{
	"certificateissuer.sol": {
		"CertificateIssuer": {
			"abi": [
				{
					"inputs": [],
					"stateMutability": "nonpayable",
					"type": "constructor"
				},
				{
					"anonymous": false,
					"inputs": [
						{
							"indexed": false,
							"internalType": "string",
							"name": "_name",
							"type": "string"
						},
						{
							"indexed": false,
							"internalType": "string",
							"name": "_courseTittle",
							"type": "string"
						},
						{
							"indexed": false,
							"internalType": "uint256",
							"name": "_duration",
							"type": "uint256"
						},
						{
							"indexed": false,
							"internalType": "uint256",
							"name": "institute",
							"type": "uint256"
						},
						{
							"indexed": false,
							"internalType": "string",
							"name": "cauth",
							"type": "string"
						}
					],
					"name": "certificateIssued",
					"type": "event"
				},
				{
					"inputs": [],
					"name": "_owner",
					"outputs": [
						{
							"internalType": "address",
							"name": "",
							"type": "address"
						}
					],
					"stateMutability": "view",
					"type": "function"
				},
				{
					"inputs": [],
					"name": "isOwner",
					"outputs": [
						{
							"internalType": "bool",
							"name": "",
							"type": "bool"
						}
					],
					"stateMutability": "view",
					"type": "function"
				},
				{
					"inputs": [
						{
							"internalType": "string",
							"name": "_name",
							"type": "string"
						},
						{
							"internalType": "string",
							"name": "_courseTittle",
							"type": "string"
						},
						{
							"internalType": "uint256",
							"name": "_duration",
							"type": "uint256"
						},
						{
							"internalType": "uint256",
							"name": "institute",
							"type": "uint256"
						},
						{
							"internalType": "string",
							"name": "cauth",
							"type": "string"
						}
					],
					"name": "issueCertificate",
					"outputs": [],
					"stateMutability": "payable",
					"type": "function"
				},
				{
					"inputs": [
						{
							"internalType": "address",
							"name": "_adminParameter",
							"type": "address"
						}
					],
					"name": "setAdmin",
					"outputs": [],
					"stateMutability": "nonpayable",
					"type": "function"
				},
				{
					"inputs": [
						{
							"internalType": "address",
							"name": "_newOwner",
							"type": "address"
						}
					],
					"name": "setOwner",
					"outputs": [],
					"stateMutability": "nonpayable",
					"type": "function"
				},
				{
					"inputs": [
						{
							"internalType": "string",
							"name": "cauth",
							"type": "string"
						}
					],
					"name": "updateCertificateRecipient",
					"outputs": [],
					"stateMutability": "nonpayable",
					"type": "function"
				},
				{
					"inputs": [
						{
							"internalType": "string",
							"name": "cauth",
							"type": "string"
						},
						{
							"internalType": "address",
							"name": "_staker",
							"type": "address"
						}
					],
					"name": "updateCertificateRecipientForStaking",
					"outputs": [],
					"stateMutability": "nonpayable",
					"type": "function"
				}
			],
			"devdoc": {
				"kind": "dev",
				"methods": {
					"isOwner()": {
						"details": "Returns true if the caller is the current owner."
					}
				},
				"version": 1
			},
			"evm": {
				"assembly": "    /* \"certificateissuer.sol\":89:3009  contract CertificateIssuer is Ownable{... */\n  mstore(0x40, 0x80)\n    /* \"certificateissuer.sol\":186:240  constructor (){... */\n  callvalue\n  dup1\n  iszero\n  tag_1\n  jumpi\n  0x00\n  dup1\n  revert\ntag_1:\n  pop\n    /* \"ownable.sol\":150:160  msg.sender */\n  caller\n    /* \"ownable.sol\":141:147  _owner */\n  0x00\n  dup1\n    /* \"ownable.sol\":141:160  _owner = msg.sender */\n  0x0100\n  exp\n  dup2\n  sload\n  dup2\n  0xffffffffffffffffffffffffffffffffffffffff\n  mul\n  not\n  and\n  swap1\n  dup4\n  0xffffffffffffffffffffffffffffffffffffffff\n  and\n  mul\n  or\n  swap1\n  sstore\n  pop\n    /* \"certificateissuer.sol\":220:230  msg.sender */\n  caller\n    /* \"certificateissuer.sol\":211:217  _admin */\n  0x03\n  0x00\n    /* \"certificateissuer.sol\":211:230  _admin = msg.sender */\n  0x0100\n  exp\n  dup2\n  sload\n  dup2\n  0xffffffffffffffffffffffffffffffffffffffff\n  mul\n  not\n  and\n  swap1\n  dup4\n  0xffffffffffffffffffffffffffffffffffffffff\n  and\n  mul\n  or\n  swap1\n  sstore\n  pop\n    /* \"certificateissuer.sol\":89:3009  contract CertificateIssuer is Ownable{... */\n  dataSize(sub_0)\n  dup1\n  dataOffset(sub_0)\n  0x00\n  codecopy\n  0x00\n  return\nstop\n\nsub_0: assembly {\n        /* \"certificateissuer.sol\":89:3009  contract CertificateIssuer is Ownable{... */\n      mstore(0x40, 0x80)\n      jumpi(tag_1, lt(calldatasize, 0x04))\n      shr(0xe0, calldataload(0x00))\n      dup1\n      0x8f32d59b\n      gt\n      tag_9\n      jumpi\n      dup1\n      0x8f32d59b\n      eq\n      tag_5\n      jumpi\n      dup1\n      0xb2bdfa7b\n      eq\n      tag_6\n      jumpi\n      dup1\n      0xe9351558\n      eq\n      tag_7\n      jumpi\n      dup1\n      0xfe49048a\n      eq\n      tag_8\n      jumpi\n      jump(tag_1)\n    tag_9:\n      dup1\n      0x13af4035\n      eq\n      tag_2\n      jumpi\n      dup1\n      0x3f59c657\n      eq\n      tag_3\n      jumpi\n      dup1\n      0x704b6c02\n      eq\n      tag_4\n      jumpi\n    tag_1:\n      0x00\n      dup1\n      revert\n        /* \"ownable.sol\":551:643  function setOwner(address _newOwner) public onlyOwner {... */\n    tag_2:\n      callvalue\n      dup1\n      iszero\n      tag_10\n      jumpi\n      0x00\n      dup1\n      revert\n    tag_10:\n      pop\n      tag_11\n      0x04\n      dup1\n      calldatasize\n      sub\n      dup2\n      add\n      swap1\n      tag_12\n      swap2\n      swap1\n      tag_13\n      jump\t// in\n    tag_12:\n      tag_14\n      jump\t// in\n    tag_11:\n      stop\n        /* \"certificateissuer.sol\":2548:2996  function issueCertificate(string memory _name , string memory _courseTittle, uint _duration , uint institute,string memory cauth ) external payable {... */\n    tag_3:\n      tag_15\n      0x04\n      dup1\n      calldatasize\n      sub\n      dup2\n      add\n      swap1\n      tag_16\n      swap2\n      swap1\n      tag_17\n      jump\t// in\n    tag_16:\n      tag_18\n      jump\t// in\n    tag_15:\n      stop\n        /* \"certificateissuer.sol\":677:781  function setAdmin(address _adminParameter) public onlyOwner{... */\n    tag_4:\n      callvalue\n      dup1\n      iszero\n      tag_19\n      jumpi\n      0x00\n      dup1\n      revert\n    tag_19:\n      pop\n      tag_20\n      0x04\n      dup1\n      calldatasize\n      sub\n      dup2\n      add\n      swap1\n      tag_21\n      swap2\n      swap1\n      tag_13\n      jump\t// in\n    tag_21:\n      tag_22\n      jump\t// in\n    tag_20:\n      stop\n        /* \"ownable.sol\":451:545  function isOwner() public view returns (bool) {... */\n    tag_5:\n      callvalue\n      dup1\n      iszero\n      tag_23\n      jumpi\n      0x00\n      dup1\n      revert\n    tag_23:\n      pop\n      tag_24\n      tag_25\n      jump\t// in\n    tag_24:\n      mload(0x40)\n      tag_26\n      swap2\n      swap1\n      tag_27\n      jump\t// in\n    tag_26:\n      mload(0x40)\n      dup1\n      swap2\n      sub\n      swap1\n      return\n        /* \"ownable.sol\":85:106  address public _owner */\n    tag_6:\n      callvalue\n      dup1\n      iszero\n      tag_28\n      jumpi\n      0x00\n      dup1\n      revert\n    tag_28:\n      pop\n      tag_29\n      tag_30\n      jump\t// in\n    tag_29:\n      mload(0x40)\n      tag_31\n      swap2\n      swap1\n      tag_32\n      jump\t// in\n    tag_31:\n      mload(0x40)\n      dup1\n      swap2\n      sub\n      swap1\n      return\n        /* \"certificateissuer.sol\":1818:2051  function updateCertificateRecipient(string memory cauth) public  {... */\n    tag_7:\n      callvalue\n      dup1\n      iszero\n      tag_33\n      jumpi\n      0x00\n      dup1\n      revert\n    tag_33:\n      pop\n      tag_34\n      0x04\n      dup1\n      calldatasize\n      sub\n      dup2\n      add\n      swap1\n      tag_35\n      swap2\n      swap1\n      tag_36\n      jump\t// in\n    tag_35:\n      tag_37\n      jump\t// in\n    tag_34:\n      stop\n        /* \"certificateissuer.sol\":2227:2540  function updateCertificateRecipientForStaking(string memory cauth,address _staker ) public   {... */\n    tag_8:\n      callvalue\n      dup1\n      iszero\n      tag_38\n      jumpi\n      0x00\n      dup1\n      revert\n    tag_38:\n      pop\n      tag_39\n      0x04\n      dup1\n      calldatasize\n      sub\n      dup2\n      add\n      swap1\n      tag_40\n      swap2\n      swap1\n      tag_41\n      jump\t// in\n    tag_40:\n      tag_42\n      jump\t// in\n    tag_39:\n      stop\n        /* \"ownable.sol\":551:643  function setOwner(address _newOwner) public onlyOwner {... */\n    tag_14:\n        /* \"ownable.sol\":299:308  isOwner() */\n      tag_44\n        /* \"ownable.sol\":299:306  isOwner */\n      tag_25\n        /* \"ownable.sol\":299:308  isOwner() */\n      jump\t// in\n    tag_44:\n        /* \"ownable.sol\":291:345  require(isOwner(), \"Ownable: caller is not the owner\") */\n      tag_45\n      jumpi\n      mload(0x40)\n      0x08c379a000000000000000000000000000000000000000000000000000000000\n      dup2\n      mstore\n      0x04\n      add\n      tag_46\n      swap1\n      tag_47\n      jump\t// in\n    tag_46:\n      mload(0x40)\n      dup1\n      swap2\n      sub\n      swap1\n      revert\n    tag_45:\n        /* \"ownable.sol\":625:634  _newOwner */\n      dup1\n        /* \"ownable.sol\":616:622  _owner */\n      0x00\n      dup1\n        /* \"ownable.sol\":616:634  _owner = _newOwner */\n      0x0100\n      exp\n      dup2\n      sload\n      dup2\n      0xffffffffffffffffffffffffffffffffffffffff\n      mul\n      not\n      and\n      swap1\n      dup4\n      0xffffffffffffffffffffffffffffffffffffffff\n      and\n      mul\n      or\n      swap1\n      sstore\n      pop\n        /* \"ownable.sol\":551:643  function setOwner(address _newOwner) public onlyOwner {... */\n      pop\n      jump\t// out\n        /* \"certificateissuer.sol\":2548:2996  function issueCertificate(string memory _name , string memory _courseTittle, uint _duration , uint institute,string memory cauth ) external payable {... */\n    tag_18:\n        /* \"certificateissuer.sol\":2790:2794  true */\n      0x01\n        /* \"certificateissuer.sol\":2769:2794  cauthValid[cauth] == true */\n      iszero\n      iszero\n        /* \"certificateissuer.sol\":2769:2779  cauthValid */\n      0x01\n        /* \"certificateissuer.sol\":2780:2785  cauth */\n      dup3\n        /* \"certificateissuer.sol\":2769:2786  cauthValid[cauth] */\n      mload(0x40)\n      tag_50\n      swap2\n      swap1\n      tag_51\n      jump\t// in\n    tag_50:\n      swap1\n      dup2\n      mstore\n      0x20\n      add\n      mload(0x40)\n      dup1\n      swap2\n      sub\n      swap1\n      keccak256\n      0x00\n      swap1\n      sload\n      swap1\n      0x0100\n      exp\n      swap1\n      div\n      0xff\n      and\n        /* \"certificateissuer.sol\":2769:2794  cauthValid[cauth] == true */\n      iszero\n      iszero\n      eq\n        /* \"certificateissuer.sol\":2761:2795  require(cauthValid[cauth] == true) */\n      tag_52\n      jumpi\n      0x00\n      dup1\n      revert\n    tag_52:\n        /* \"certificateissuer.sol\":2848:2912  certificateIssued(_name,_courseTittle,_duration,institute,cauth) */\n      0x2ee35da94d6494eb515fd8f6fffdecd1d417dbae7e370cb1f77d709473e01d59\n        /* \"certificateissuer.sol\":2866:2871  _name */\n      dup6\n        /* \"certificateissuer.sol\":2872:2885  _courseTittle */\n      dup6\n        /* \"certificateissuer.sol\":2886:2895  _duration */\n      dup6\n        /* \"certificateissuer.sol\":2896:2905  institute */\n      dup6\n        /* \"certificateissuer.sol\":2906:2911  cauth */\n      dup6\n        /* \"certificateissuer.sol\":2848:2912  certificateIssued(_name,_courseTittle,_duration,institute,cauth) */\n      mload(0x40)\n      tag_53\n      swap6\n      swap5\n      swap4\n      swap3\n      swap2\n      swap1\n      tag_54\n      jump\t// in\n    tag_53:\n      mload(0x40)\n      dup1\n      swap2\n      sub\n      swap1\n      log1\n        /* \"certificateissuer.sol\":2981:2986  false */\n      0x00\n        /* \"certificateissuer.sol\":2961:2971  cauthValid */\n      0x01\n        /* \"certificateissuer.sol\":2972:2977  cauth */\n      dup3\n        /* \"certificateissuer.sol\":2961:2978  cauthValid[cauth] */\n      mload(0x40)\n      tag_55\n      swap2\n      swap1\n      tag_51\n      jump\t// in\n    tag_55:\n      swap1\n      dup2\n      mstore\n      0x20\n      add\n      mload(0x40)\n      dup1\n      swap2\n      sub\n      swap1\n      keccak256\n      0x00\n        /* \"certificateissuer.sol\":2961:2986  cauthValid[cauth] = false */\n      0x0100\n      exp\n      dup2\n      sload\n      dup2\n      0xff\n      mul\n      not\n      and\n      swap1\n      dup4\n      iszero\n      iszero\n      mul\n      or\n      swap1\n      sstore\n      pop\n        /* \"certificateissuer.sol\":2548:2996  function issueCertificate(string memory _name , string memory _courseTittle, uint _duration , uint institute,string memory cauth ) external payable {... */\n      pop\n      pop\n      pop\n      pop\n      pop\n      jump\t// out\n        /* \"certificateissuer.sol\":677:781  function setAdmin(address _adminParameter) public onlyOwner{... */\n    tag_22:\n        /* \"ownable.sol\":299:308  isOwner() */\n      tag_57\n        /* \"ownable.sol\":299:306  isOwner */\n      tag_25\n        /* \"ownable.sol\":299:308  isOwner() */\n      jump\t// in\n    tag_57:\n        /* \"ownable.sol\":291:345  require(isOwner(), \"Ownable: caller is not the owner\") */\n      tag_58\n      jumpi\n      mload(0x40)\n      0x08c379a000000000000000000000000000000000000000000000000000000000\n      dup2\n      mstore\n      0x04\n      add\n      tag_59\n      swap1\n      tag_47\n      jump\t// in\n    tag_59:\n      mload(0x40)\n      dup1\n      swap2\n      sub\n      swap1\n      revert\n    tag_58:\n        /* \"certificateissuer.sol\":756:771  _adminParameter */\n      dup1\n        /* \"certificateissuer.sol\":747:753  _admin */\n      0x03\n      0x00\n        /* \"certificateissuer.sol\":747:771  _admin = _adminParameter */\n      0x0100\n      exp\n      dup2\n      sload\n      dup2\n      0xffffffffffffffffffffffffffffffffffffffff\n      mul\n      not\n      and\n      swap1\n      dup4\n      0xffffffffffffffffffffffffffffffffffffffff\n      and\n      mul\n      or\n      swap1\n      sstore\n      pop\n        /* \"certificateissuer.sol\":677:781  function setAdmin(address _adminParameter) public onlyOwner{... */\n      pop\n      jump\t// out\n        /* \"ownable.sol\":451:545  function isOwner() public view returns (bool) {... */\n    tag_25:\n        /* \"ownable.sol\":491:495  bool */\n      0x00\n        /* \"ownable.sol\":530:536  _owner */\n      dup1\n      0x00\n      swap1\n      sload\n      swap1\n      0x0100\n      exp\n      swap1\n      div\n      0xffffffffffffffffffffffffffffffffffffffff\n      and\n        /* \"ownable.sol\":516:536  msg.sender == _owner */\n      0xffffffffffffffffffffffffffffffffffffffff\n      and\n        /* \"ownable.sol\":516:526  msg.sender */\n      caller\n        /* \"ownable.sol\":516:536  msg.sender == _owner */\n      0xffffffffffffffffffffffffffffffffffffffff\n      and\n      eq\n        /* \"ownable.sol\":508:537  return (msg.sender == _owner) */\n      swap1\n      pop\n        /* \"ownable.sol\":451:545  function isOwner() public view returns (bool) {... */\n      swap1\n      jump\t// out\n        /* \"ownable.sol\":85:106  address public _owner */\n    tag_30:\n      0x00\n      dup1\n      sload\n      swap1\n      0x0100\n      exp\n      swap1\n      div\n      0xffffffffffffffffffffffffffffffffffffffff\n      and\n      dup2\n      jump\t// out\n        /* \"certificateissuer.sol\":1818:2051  function updateCertificateRecipient(string memory cauth) public  {... */\n    tag_37:\n        /* \"certificateissuer.sol\":1916:1922  _admin */\n      0x03\n      0x00\n      swap1\n      sload\n      swap1\n      0x0100\n      exp\n      swap1\n      div\n      0xffffffffffffffffffffffffffffffffffffffff\n      and\n        /* \"certificateissuer.sol\":1902:1922  msg.sender == _admin */\n      0xffffffffffffffffffffffffffffffffffffffff\n      and\n        /* \"certificateissuer.sol\":1902:1912  msg.sender */\n      caller\n        /* \"certificateissuer.sol\":1902:1922  msg.sender == _admin */\n      0xffffffffffffffffffffffffffffffffffffffff\n      and\n      eq\n        /* \"certificateissuer.sol\":1894:1923  require(msg.sender == _admin) */\n      tag_63\n      jumpi\n      0x00\n      dup1\n      revert\n    tag_63:\n        /* \"certificateissuer.sol\":1955:1959  true */\n      0x01\n        /* \"certificateissuer.sol\":1935:1945  cauthValid */\n      dup1\n        /* \"certificateissuer.sol\":1946:1951  cauth */\n      dup3\n        /* \"certificateissuer.sol\":1935:1952  cauthValid[cauth] */\n      mload(0x40)\n      tag_64\n      swap2\n      swap1\n      tag_51\n      jump\t// in\n    tag_64:\n      swap1\n      dup2\n      mstore\n      0x20\n      add\n      mload(0x40)\n      dup1\n      swap2\n      sub\n      swap1\n      keccak256\n      0x00\n        /* \"certificateissuer.sol\":1935:1959  cauthValid[cauth] = true */\n      0x0100\n      exp\n      dup2\n      sload\n      dup2\n      0xff\n      mul\n      not\n      and\n      swap1\n      dup4\n      iszero\n      iszero\n      mul\n      or\n      swap1\n      sstore\n      pop\n        /* \"certificateissuer.sol\":1981:1991  cauthValid */\n      0x01\n        /* \"certificateissuer.sol\":1992:1997  cauth */\n      dup2\n        /* \"certificateissuer.sol\":1981:1998  cauthValid[cauth] */\n      mload(0x40)\n      tag_65\n      swap2\n      swap1\n      tag_51\n      jump\t// in\n    tag_65:\n      swap1\n      dup2\n      mstore\n      0x20\n      add\n      mload(0x40)\n      dup1\n      swap2\n      sub\n      swap1\n      keccak256\n      0x00\n      swap1\n      sload\n      swap1\n      0x0100\n      exp\n      swap1\n      div\n      0xff\n      and\n        /* \"certificateissuer.sol\":1973:1999  require(cauthValid[cauth]) */\n      tag_66\n      jumpi\n      0x00\n      dup1\n      revert\n    tag_66:\n        /* \"certificateissuer.sol\":2037:2041  true */\n      0x01\n        /* \"certificateissuer.sol\":2012:2027  cauthToCanStake */\n      0x02\n        /* \"certificateissuer.sol\":2028:2033  cauth */\n      dup3\n        /* \"certificateissuer.sol\":2012:2034  cauthToCanStake[cauth] */\n      mload(0x40)\n      tag_67\n      swap2\n      swap1\n      tag_51\n      jump\t// in\n    tag_67:\n      swap1\n      dup2\n      mstore\n      0x20\n      add\n      mload(0x40)\n      dup1\n      swap2\n      sub\n      swap1\n      keccak256\n      0x00\n        /* \"certificateissuer.sol\":2012:2041  cauthToCanStake[cauth] = true */\n      0x0100\n      exp\n      dup2\n      sload\n      dup2\n      0xff\n      mul\n      not\n      and\n      swap1\n      dup4\n      iszero\n      iszero\n      mul\n      or\n      swap1\n      sstore\n      pop\n        /* \"certificateissuer.sol\":1818:2051  function updateCertificateRecipient(string memory cauth) public  {... */\n      pop\n      jump\t// out\n        /* \"certificateissuer.sol\":2227:2540  function updateCertificateRecipientForStaking(string memory cauth,address _staker ) public   {... */\n    tag_42:\n        /* \"certificateissuer.sol\":2353:2359  _admin */\n      0x03\n      0x00\n      swap1\n      sload\n      swap1\n      0x0100\n      exp\n      swap1\n      div\n      0xffffffffffffffffffffffffffffffffffffffff\n      and\n        /* \"certificateissuer.sol\":2339:2359  msg.sender == _admin */\n      0xffffffffffffffffffffffffffffffffffffffff\n      and\n        /* \"certificateissuer.sol\":2339:2349  msg.sender */\n      caller\n        /* \"certificateissuer.sol\":2339:2359  msg.sender == _admin */\n      0xffffffffffffffffffffffffffffffffffffffff\n      and\n      eq\n        /* \"certificateissuer.sol\":2331:2360  require(msg.sender == _admin) */\n      tag_69\n      jumpi\n      0x00\n      dup1\n      revert\n    tag_69:\n        /* \"certificateissuer.sol\":2392:2396  true */\n      0x01\n        /* \"certificateissuer.sol\":2372:2382  cauthValid */\n      dup1\n        /* \"certificateissuer.sol\":2383:2388  cauth */\n      dup4\n        /* \"certificateissuer.sol\":2372:2389  cauthValid[cauth] */\n      mload(0x40)\n      tag_70\n      swap2\n      swap1\n      tag_51\n      jump\t// in\n    tag_70:\n      swap1\n      dup2\n      mstore\n      0x20\n      add\n      mload(0x40)\n      dup1\n      swap2\n      sub\n      swap1\n      keccak256\n      0x00\n        /* \"certificateissuer.sol\":2372:2396  cauthValid[cauth] = true */\n      0x0100\n      exp\n      dup2\n      sload\n      dup2\n      0xff\n      mul\n      not\n      and\n      swap1\n      dup4\n      iszero\n      iszero\n      mul\n      or\n      swap1\n      sstore\n      pop\n        /* \"certificateissuer.sol\":2418:2428  cauthValid */\n      0x01\n        /* \"certificateissuer.sol\":2429:2434  cauth */\n      dup3\n        /* \"certificateissuer.sol\":2418:2435  cauthValid[cauth] */\n      mload(0x40)\n      tag_71\n      swap2\n      swap1\n      tag_51\n      jump\t// in\n    tag_71:\n      swap1\n      dup2\n      mstore\n      0x20\n      add\n      mload(0x40)\n      dup1\n      swap2\n      sub\n      swap1\n      keccak256\n      0x00\n      swap1\n      sload\n      swap1\n      0x0100\n      exp\n      swap1\n      div\n      0xff\n      and\n        /* \"certificateissuer.sol\":2410:2436  require(cauthValid[cauth]) */\n      tag_72\n      jumpi\n      0x00\n      dup1\n      revert\n    tag_72:\n        /* \"certificateissuer.sol\":2474:2478  true */\n      0x01\n        /* \"certificateissuer.sol\":2449:2464  cauthToCanStake */\n      0x02\n        /* \"certificateissuer.sol\":2465:2470  cauth */\n      dup4\n        /* \"certificateissuer.sol\":2449:2471  cauthToCanStake[cauth] */\n      mload(0x40)\n      tag_73\n      swap2\n      swap1\n      tag_51\n      jump\t// in\n    tag_73:\n      swap1\n      dup2\n      mstore\n      0x20\n      add\n      mload(0x40)\n      dup1\n      swap2\n      sub\n      swap1\n      keccak256\n      0x00\n        /* \"certificateissuer.sol\":2449:2478  cauthToCanStake[cauth] = true */\n      0x0100\n      exp\n      dup2\n      sload\n      dup2\n      0xff\n      mul\n      not\n      and\n      swap1\n      dup4\n      iszero\n      iszero\n      mul\n      or\n      swap1\n      sstore\n      pop\n        /* \"certificateissuer.sol\":2516:2521  cauth */\n      dup2\n        /* \"certificateissuer.sol\":2491:2504  adressToCauth */\n      0x04\n        /* \"certificateissuer.sol\":2491:2513  adressToCauth[_staker] */\n      0x00\n        /* \"certificateissuer.sol\":2505:2512  _staker */\n      dup4\n        /* \"certificateissuer.sol\":2491:2513  adressToCauth[_staker] */\n      0xffffffffffffffffffffffffffffffffffffffff\n      and\n      0xffffffffffffffffffffffffffffffffffffffff\n      and\n      dup2\n      mstore\n      0x20\n      add\n      swap1\n      dup2\n      mstore\n      0x20\n      add\n      0x00\n      keccak256\n        /* \"certificateissuer.sol\":2491:2521  adressToCauth[_staker] = cauth */\n      swap1\n      dup2\n      tag_74\n      swap2\n      swap1\n      tag_75\n      jump\t// in\n    tag_74:\n      pop\n        /* \"certificateissuer.sol\":2227:2540  function updateCertificateRecipientForStaking(string memory cauth,address _staker ) public   {... */\n      pop\n      pop\n      jump\t// out\n        /* \"#utility.yul\":7:82   */\n    tag_76:\n        /* \"#utility.yul\":40:46   */\n      0x00\n        /* \"#utility.yul\":73:75   */\n      0x40\n        /* \"#utility.yul\":67:76   */\n      mload\n        /* \"#utility.yul\":57:76   */\n      swap1\n      pop\n        /* \"#utility.yul\":7:82   */\n      swap1\n      jump\t// out\n        /* \"#utility.yul\":88:205   */\n    tag_77:\n        /* \"#utility.yul\":197:198   */\n      0x00\n        /* \"#utility.yul\":194:195   */\n      dup1\n        /* \"#utility.yul\":187:199   */\n      revert\n        /* \"#utility.yul\":211:328   */\n    tag_78:\n        /* \"#utility.yul\":320:321   */\n      0x00\n        /* \"#utility.yul\":317:318   */\n      dup1\n        /* \"#utility.yul\":310:322   */\n      revert\n        /* \"#utility.yul\":334:460   */\n    tag_79:\n        /* \"#utility.yul\":371:378   */\n      0x00\n        /* \"#utility.yul\":411:453   */\n      0xffffffffffffffffffffffffffffffffffffffff\n        /* \"#utility.yul\":404:409   */\n      dup3\n        /* \"#utility.yul\":400:454   */\n      and\n        /* \"#utility.yul\":389:454   */\n      swap1\n      pop\n        /* \"#utility.yul\":334:460   */\n      swap2\n      swap1\n      pop\n      jump\t// out\n        /* \"#utility.yul\":466:562   */\n    tag_80:\n        /* \"#utility.yul\":503:510   */\n      0x00\n        /* \"#utility.yul\":532:556   */\n      tag_131\n        /* \"#utility.yul\":550:555   */\n      dup3\n        /* \"#utility.yul\":532:556   */\n      tag_79\n      jump\t// in\n    tag_131:\n        /* \"#utility.yul\":521:556   */\n      swap1\n      pop\n        /* \"#utility.yul\":466:562   */\n      swap2\n      swap1\n      pop\n      jump\t// out\n        /* \"#utility.yul\":568:690   */\n    tag_81:\n        /* \"#utility.yul\":641:665   */\n      tag_133\n        /* \"#utility.yul\":659:664   */\n      dup2\n        /* \"#utility.yul\":641:665   */\n      tag_80\n      jump\t// in\n    tag_133:\n        /* \"#utility.yul\":634:639   */\n      dup2\n        /* \"#utility.yul\":631:666   */\n      eq\n        /* \"#utility.yul\":621:684   */\n      tag_134\n      jumpi\n        /* \"#utility.yul\":680:681   */\n      0x00\n        /* \"#utility.yul\":677:678   */\n      dup1\n        /* \"#utility.yul\":670:682   */\n      revert\n        /* \"#utility.yul\":621:684   */\n    tag_134:\n        /* \"#utility.yul\":568:690   */\n      pop\n      jump\t// out\n        /* \"#utility.yul\":696:835   */\n    tag_82:\n        /* \"#utility.yul\":742:747   */\n      0x00\n        /* \"#utility.yul\":780:786   */\n      dup2\n        /* \"#utility.yul\":767:787   */\n      calldataload\n        /* \"#utility.yul\":758:787   */\n      swap1\n      pop\n        /* \"#utility.yul\":796:829   */\n      tag_136\n        /* \"#utility.yul\":823:828   */\n      dup2\n        /* \"#utility.yul\":796:829   */\n      tag_81\n      jump\t// in\n    tag_136:\n        /* \"#utility.yul\":696:835   */\n      swap3\n      swap2\n      pop\n      pop\n      jump\t// out\n        /* \"#utility.yul\":841:1170   */\n    tag_13:\n        /* \"#utility.yul\":900:906   */\n      0x00\n        /* \"#utility.yul\":949:951   */\n      0x20\n        /* \"#utility.yul\":937:946   */\n      dup3\n        /* \"#utility.yul\":928:935   */\n      dup5\n        /* \"#utility.yul\":924:947   */\n      sub\n        /* \"#utility.yul\":920:952   */\n      slt\n        /* \"#utility.yul\":917:1036   */\n      iszero\n      tag_138\n      jumpi\n        /* \"#utility.yul\":955:1034   */\n      tag_139\n      tag_77\n      jump\t// in\n    tag_139:\n        /* \"#utility.yul\":917:1036   */\n    tag_138:\n        /* \"#utility.yul\":1075:1076   */\n      0x00\n        /* \"#utility.yul\":1100:1153   */\n      tag_140\n        /* \"#utility.yul\":1145:1152   */\n      dup5\n        /* \"#utility.yul\":1136:1142   */\n      dup3\n        /* \"#utility.yul\":1125:1134   */\n      dup6\n        /* \"#utility.yul\":1121:1143   */\n      add\n        /* \"#utility.yul\":1100:1153   */\n      tag_82\n      jump\t// in\n    tag_140:\n        /* \"#utility.yul\":1090:1153   */\n      swap2\n      pop\n        /* \"#utility.yul\":1046:1163   */\n      pop\n        /* \"#utility.yul\":841:1170   */\n      swap3\n      swap2\n      pop\n      pop\n      jump\t// out\n        /* \"#utility.yul\":1176:1293   */\n    tag_83:\n        /* \"#utility.yul\":1285:1286   */\n      0x00\n        /* \"#utility.yul\":1282:1283   */\n      dup1\n        /* \"#utility.yul\":1275:1287   */\n      revert\n        /* \"#utility.yul\":1299:1416   */\n    tag_84:\n        /* \"#utility.yul\":1408:1409   */\n      0x00\n        /* \"#utility.yul\":1405:1406   */\n      dup1\n        /* \"#utility.yul\":1398:1410   */\n      revert\n        /* \"#utility.yul\":1422:1524   */\n    tag_85:\n        /* \"#utility.yul\":1463:1469   */\n      0x00\n        /* \"#utility.yul\":1514:1516   */\n      0x1f\n        /* \"#utility.yul\":1510:1517   */\n      not\n        /* \"#utility.yul\":1505:1507   */\n      0x1f\n        /* \"#utility.yul\":1498:1503   */\n      dup4\n        /* \"#utility.yul\":1494:1508   */\n      add\n        /* \"#utility.yul\":1490:1518   */\n      and\n        /* \"#utility.yul\":1480:1518   */\n      swap1\n      pop\n        /* \"#utility.yul\":1422:1524   */\n      swap2\n      swap1\n      pop\n      jump\t// out\n        /* \"#utility.yul\":1530:1710   */\n    tag_86:\n        /* \"#utility.yul\":1578:1655   */\n      0x4e487b7100000000000000000000000000000000000000000000000000000000\n        /* \"#utility.yul\":1575:1576   */\n      0x00\n        /* \"#utility.yul\":1568:1656   */\n      mstore\n        /* \"#utility.yul\":1675:1679   */\n      0x41\n        /* \"#utility.yul\":1672:1673   */\n      0x04\n        /* \"#utility.yul\":1665:1680   */\n      mstore\n        /* \"#utility.yul\":1699:1703   */\n      0x24\n        /* \"#utility.yul\":1696:1697   */\n      0x00\n        /* \"#utility.yul\":1689:1704   */\n      revert\n        /* \"#utility.yul\":1716:1997   */\n    tag_87:\n        /* \"#utility.yul\":1799:1826   */\n      tag_146\n        /* \"#utility.yul\":1821:1825   */\n      dup3\n        /* \"#utility.yul\":1799:1826   */\n      tag_85\n      jump\t// in\n    tag_146:\n        /* \"#utility.yul\":1791:1797   */\n      dup2\n        /* \"#utility.yul\":1787:1827   */\n      add\n        /* \"#utility.yul\":1929:1935   */\n      dup2\n        /* \"#utility.yul\":1917:1927   */\n      dup2\n        /* \"#utility.yul\":1914:1936   */\n      lt\n        /* \"#utility.yul\":1893:1911   */\n      0xffffffffffffffff\n        /* \"#utility.yul\":1881:1891   */\n      dup3\n        /* \"#utility.yul\":1878:1912   */\n      gt\n        /* \"#utility.yul\":1875:1937   */\n      or\n        /* \"#utility.yul\":1872:1960   */\n      iszero\n      tag_147\n      jumpi\n        /* \"#utility.yul\":1940:1958   */\n      tag_148\n      tag_86\n      jump\t// in\n    tag_148:\n        /* \"#utility.yul\":1872:1960   */\n    tag_147:\n        /* \"#utility.yul\":1980:1990   */\n      dup1\n        /* \"#utility.yul\":1976:1978   */\n      0x40\n        /* \"#utility.yul\":1969:1991   */\n      mstore\n        /* \"#utility.yul\":1759:1997   */\n      pop\n        /* \"#utility.yul\":1716:1997   */\n      pop\n      pop\n      jump\t// out\n        /* \"#utility.yul\":2003:2132   */\n    tag_88:\n        /* \"#utility.yul\":2037:2043   */\n      0x00\n        /* \"#utility.yul\":2064:2084   */\n      tag_150\n      tag_76\n      jump\t// in\n    tag_150:\n        /* \"#utility.yul\":2054:2084   */\n      swap1\n      pop\n        /* \"#utility.yul\":2093:2126   */\n      tag_151\n        /* \"#utility.yul\":2121:2125   */\n      dup3\n        /* \"#utility.yul\":2113:2119   */\n      dup3\n        /* \"#utility.yul\":2093:2126   */\n      tag_87\n      jump\t// in\n    tag_151:\n        /* \"#utility.yul\":2003:2132   */\n      swap2\n      swap1\n      pop\n      jump\t// out\n        /* \"#utility.yul\":2138:2446   */\n    tag_89:\n        /* \"#utility.yul\":2200:2204   */\n      0x00\n        /* \"#utility.yul\":2290:2308   */\n      0xffffffffffffffff\n        /* \"#utility.yul\":2282:2288   */\n      dup3\n        /* \"#utility.yul\":2279:2309   */\n      gt\n        /* \"#utility.yul\":2276:2332   */\n      iszero\n      tag_153\n      jumpi\n        /* \"#utility.yul\":2312:2330   */\n      tag_154\n      tag_86\n      jump\t// in\n    tag_154:\n        /* \"#utility.yul\":2276:2332   */\n    tag_153:\n        /* \"#utility.yul\":2350:2379   */\n      tag_155\n        /* \"#utility.yul\":2372:2378   */\n      dup3\n        /* \"#utility.yul\":2350:2379   */\n      tag_85\n      jump\t// in\n    tag_155:\n        /* \"#utility.yul\":2342:2379   */\n      swap1\n      pop\n        /* \"#utility.yul\":2434:2438   */\n      0x20\n        /* \"#utility.yul\":2428:2432   */\n      dup2\n        /* \"#utility.yul\":2424:2439   */\n      add\n        /* \"#utility.yul\":2416:2439   */\n      swap1\n      pop\n        /* \"#utility.yul\":2138:2446   */\n      swap2\n      swap1\n      pop\n      jump\t// out\n        /* \"#utility.yul\":2452:2606   */\n    tag_90:\n        /* \"#utility.yul\":2536:2542   */\n      dup3\n        /* \"#utility.yul\":2531:2534   */\n      dup2\n        /* \"#utility.yul\":2526:2529   */\n      dup4\n        /* \"#utility.yul\":2513:2543   */\n      calldatacopy\n        /* \"#utility.yul\":2598:2599   */\n      0x00\n        /* \"#utility.yul\":2589:2595   */\n      dup4\n        /* \"#utility.yul\":2584:2587   */\n      dup4\n        /* \"#utility.yul\":2580:2596   */\n      add\n        /* \"#utility.yul\":2573:2600   */\n      mstore\n        /* \"#utility.yul\":2452:2606   */\n      pop\n      pop\n      pop\n      jump\t// out\n        /* \"#utility.yul\":2612:3024   */\n    tag_91:\n        /* \"#utility.yul\":2690:2695   */\n      0x00\n        /* \"#utility.yul\":2715:2781   */\n      tag_158\n        /* \"#utility.yul\":2731:2780   */\n      tag_159\n        /* \"#utility.yul\":2773:2779   */\n      dup5\n        /* \"#utility.yul\":2731:2780   */\n      tag_89\n      jump\t// in\n    tag_159:\n        /* \"#utility.yul\":2715:2781   */\n      tag_88\n      jump\t// in\n    tag_158:\n        /* \"#utility.yul\":2706:2781   */\n      swap1\n      pop\n        /* \"#utility.yul\":2804:2810   */\n      dup3\n        /* \"#utility.yul\":2797:2802   */\n      dup2\n        /* \"#utility.yul\":2790:2811   */\n      mstore\n        /* \"#utility.yul\":2842:2846   */\n      0x20\n        /* \"#utility.yul\":2835:2840   */\n      dup2\n        /* \"#utility.yul\":2831:2847   */\n      add\n        /* \"#utility.yul\":2880:2883   */\n      dup5\n        /* \"#utility.yul\":2871:2877   */\n      dup5\n        /* \"#utility.yul\":2866:2869   */\n      dup5\n        /* \"#utility.yul\":2862:2878   */\n      add\n        /* \"#utility.yul\":2859:2884   */\n      gt\n        /* \"#utility.yul\":2856:2968   */\n      iszero\n      tag_160\n      jumpi\n        /* \"#utility.yul\":2887:2966   */\n      tag_161\n      tag_84\n      jump\t// in\n    tag_161:\n        /* \"#utility.yul\":2856:2968   */\n    tag_160:\n        /* \"#utility.yul\":2977:3018   */\n      tag_162\n        /* \"#utility.yul\":3011:3017   */\n      dup5\n        /* \"#utility.yul\":3006:3009   */\n      dup3\n        /* \"#utility.yul\":3001:3004   */\n      dup6\n        /* \"#utility.yul\":2977:3018   */\n      tag_90\n      jump\t// in\n    tag_162:\n        /* \"#utility.yul\":2696:3024   */\n      pop\n        /* \"#utility.yul\":2612:3024   */\n      swap4\n      swap3\n      pop\n      pop\n      pop\n      jump\t// out\n        /* \"#utility.yul\":3044:3384   */\n    tag_92:\n        /* \"#utility.yul\":3100:3105   */\n      0x00\n        /* \"#utility.yul\":3149:3152   */\n      dup3\n        /* \"#utility.yul\":3142:3146   */\n      0x1f\n        /* \"#utility.yul\":3134:3140   */\n      dup4\n        /* \"#utility.yul\":3130:3147   */\n      add\n        /* \"#utility.yul\":3126:3153   */\n      slt\n        /* \"#utility.yul\":3116:3238   */\n      tag_164\n      jumpi\n        /* \"#utility.yul\":3157:3236   */\n      tag_165\n      tag_83\n      jump\t// in\n    tag_165:\n        /* \"#utility.yul\":3116:3238   */\n    tag_164:\n        /* \"#utility.yul\":3274:3280   */\n      dup2\n        /* \"#utility.yul\":3261:3281   */\n      calldataload\n        /* \"#utility.yul\":3299:3378   */\n      tag_166\n        /* \"#utility.yul\":3374:3377   */\n      dup5\n        /* \"#utility.yul\":3366:3372   */\n      dup3\n        /* \"#utility.yul\":3359:3363   */\n      0x20\n        /* \"#utility.yul\":3351:3357   */\n      dup7\n        /* \"#utility.yul\":3347:3364   */\n      add\n        /* \"#utility.yul\":3299:3378   */\n      tag_91\n      jump\t// in\n    tag_166:\n        /* \"#utility.yul\":3290:3378   */\n      swap2\n      pop\n        /* \"#utility.yul\":3106:3384   */\n      pop\n        /* \"#utility.yul\":3044:3384   */\n      swap3\n      swap2\n      pop\n      pop\n      jump\t// out\n        /* \"#utility.yul\":3390:3467   */\n    tag_93:\n        /* \"#utility.yul\":3427:3434   */\n      0x00\n        /* \"#utility.yul\":3456:3461   */\n      dup2\n        /* \"#utility.yul\":3445:3461   */\n      swap1\n      pop\n        /* \"#utility.yul\":3390:3467   */\n      swap2\n      swap1\n      pop\n      jump\t// out\n        /* \"#utility.yul\":3473:3595   */\n    tag_94:\n        /* \"#utility.yul\":3546:3570   */\n      tag_169\n        /* \"#utility.yul\":3564:3569   */\n      dup2\n        /* \"#utility.yul\":3546:3570   */\n      tag_93\n      jump\t// in\n    tag_169:\n        /* \"#utility.yul\":3539:3544   */\n      dup2\n        /* \"#utility.yul\":3536:3571   */\n      eq\n        /* \"#utility.yul\":3526:3589   */\n      tag_170\n      jumpi\n        /* \"#utility.yul\":3585:3586   */\n      0x00\n        /* \"#utility.yul\":3582:3583   */\n      dup1\n        /* \"#utility.yul\":3575:3587   */\n      revert\n        /* \"#utility.yul\":3526:3589   */\n    tag_170:\n        /* \"#utility.yul\":3473:3595   */\n      pop\n      jump\t// out\n        /* \"#utility.yul\":3601:3740   */\n    tag_95:\n        /* \"#utility.yul\":3647:3652   */\n      0x00\n        /* \"#utility.yul\":3685:3691   */\n      dup2\n        /* \"#utility.yul\":3672:3692   */\n      calldataload\n        /* \"#utility.yul\":3663:3692   */\n      swap1\n      pop\n        /* \"#utility.yul\":3701:3734   */\n      tag_172\n        /* \"#utility.yul\":3728:3733   */\n      dup2\n        /* \"#utility.yul\":3701:3734   */\n      tag_94\n      jump\t// in\n    tag_172:\n        /* \"#utility.yul\":3601:3740   */\n      swap3\n      swap2\n      pop\n      pop\n      jump\t// out\n        /* \"#utility.yul\":3746:5197   */\n    tag_17:\n        /* \"#utility.yul\":3871:3877   */\n      0x00\n        /* \"#utility.yul\":3879:3885   */\n      dup1\n        /* \"#utility.yul\":3887:3893   */\n      0x00\n        /* \"#utility.yul\":3895:3901   */\n      dup1\n        /* \"#utility.yul\":3903:3909   */\n      0x00\n        /* \"#utility.yul\":3952:3955   */\n      0xa0\n        /* \"#utility.yul\":3940:3949   */\n      dup7\n        /* \"#utility.yul\":3931:3938   */\n      dup9\n        /* \"#utility.yul\":3927:3950   */\n      sub\n        /* \"#utility.yul\":3923:3956   */\n      slt\n        /* \"#utility.yul\":3920:4040   */\n      iszero\n      tag_174\n      jumpi\n        /* \"#utility.yul\":3959:4038   */\n      tag_175\n      tag_77\n      jump\t// in\n    tag_175:\n        /* \"#utility.yul\":3920:4040   */\n    tag_174:\n        /* \"#utility.yul\":4107:4108   */\n      0x00\n        /* \"#utility.yul\":4096:4105   */\n      dup7\n        /* \"#utility.yul\":4092:4109   */\n      add\n        /* \"#utility.yul\":4079:4110   */\n      calldataload\n        /* \"#utility.yul\":4137:4155   */\n      0xffffffffffffffff\n        /* \"#utility.yul\":4129:4135   */\n      dup2\n        /* \"#utility.yul\":4126:4156   */\n      gt\n        /* \"#utility.yul\":4123:4240   */\n      iszero\n      tag_176\n      jumpi\n        /* \"#utility.yul\":4159:4238   */\n      tag_177\n      tag_78\n      jump\t// in\n    tag_177:\n        /* \"#utility.yul\":4123:4240   */\n    tag_176:\n        /* \"#utility.yul\":4264:4327   */\n      tag_178\n        /* \"#utility.yul\":4319:4326   */\n      dup9\n        /* \"#utility.yul\":4310:4316   */\n      dup3\n        /* \"#utility.yul\":4299:4308   */\n      dup10\n        /* \"#utility.yul\":4295:4317   */\n      add\n        /* \"#utility.yul\":4264:4327   */\n      tag_92\n      jump\t// in\n    tag_178:\n        /* \"#utility.yul\":4254:4327   */\n      swap6\n      pop\n        /* \"#utility.yul\":4050:4337   */\n      pop\n        /* \"#utility.yul\":4404:4406   */\n      0x20\n        /* \"#utility.yul\":4393:4402   */\n      dup7\n        /* \"#utility.yul\":4389:4407   */\n      add\n        /* \"#utility.yul\":4376:4408   */\n      calldataload\n        /* \"#utility.yul\":4435:4453   */\n      0xffffffffffffffff\n        /* \"#utility.yul\":4427:4433   */\n      dup2\n        /* \"#utility.yul\":4424:4454   */\n      gt\n        /* \"#utility.yul\":4421:4538   */\n      iszero\n      tag_179\n      jumpi\n        /* \"#utility.yul\":4457:4536   */\n      tag_180\n      tag_78\n      jump\t// in\n    tag_180:\n        /* \"#utility.yul\":4421:4538   */\n    tag_179:\n        /* \"#utility.yul\":4562:4625   */\n      tag_181\n        /* \"#utility.yul\":4617:4624   */\n      dup9\n        /* \"#utility.yul\":4608:4614   */\n      dup3\n        /* \"#utility.yul\":4597:4606   */\n      dup10\n        /* \"#utility.yul\":4593:4615   */\n      add\n        /* \"#utility.yul\":4562:4625   */\n      tag_92\n      jump\t// in\n    tag_181:\n        /* \"#utility.yul\":4552:4625   */\n      swap5\n      pop\n        /* \"#utility.yul\":4347:4635   */\n      pop\n        /* \"#utility.yul\":4674:4676   */\n      0x40\n        /* \"#utility.yul\":4700:4753   */\n      tag_182\n        /* \"#utility.yul\":4745:4752   */\n      dup9\n        /* \"#utility.yul\":4736:4742   */\n      dup3\n        /* \"#utility.yul\":4725:4734   */\n      dup10\n        /* \"#utility.yul\":4721:4743   */\n      add\n        /* \"#utility.yul\":4700:4753   */\n      tag_95\n      jump\t// in\n    tag_182:\n        /* \"#utility.yul\":4690:4753   */\n      swap4\n      pop\n        /* \"#utility.yul\":4645:4763   */\n      pop\n        /* \"#utility.yul\":4802:4804   */\n      0x60\n        /* \"#utility.yul\":4828:4881   */\n      tag_183\n        /* \"#utility.yul\":4873:4880   */\n      dup9\n        /* \"#utility.yul\":4864:4870   */\n      dup3\n        /* \"#utility.yul\":4853:4862   */\n      dup10\n        /* \"#utility.yul\":4849:4871   */\n      add\n        /* \"#utility.yul\":4828:4881   */\n      tag_95\n      jump\t// in\n    tag_183:\n        /* \"#utility.yul\":4818:4881   */\n      swap3\n      pop\n        /* \"#utility.yul\":4773:4891   */\n      pop\n        /* \"#utility.yul\":4958:4961   */\n      0x80\n        /* \"#utility.yul\":4947:4956   */\n      dup7\n        /* \"#utility.yul\":4943:4962   */\n      add\n        /* \"#utility.yul\":4930:4963   */\n      calldataload\n        /* \"#utility.yul\":4990:5008   */\n      0xffffffffffffffff\n        /* \"#utility.yul\":4982:4988   */\n      dup2\n        /* \"#utility.yul\":4979:5009   */\n      gt\n        /* \"#utility.yul\":4976:5093   */\n      iszero\n      tag_184\n      jumpi\n        /* \"#utility.yul\":5012:5091   */\n      tag_185\n      tag_78\n      jump\t// in\n    tag_185:\n        /* \"#utility.yul\":4976:5093   */\n    tag_184:\n        /* \"#utility.yul\":5117:5180   */\n      tag_186\n        /* \"#utility.yul\":5172:5179   */\n      dup9\n        /* \"#utility.yul\":5163:5169   */\n      dup3\n        /* \"#utility.yul\":5152:5161   */\n      dup10\n        /* \"#utility.yul\":5148:5170   */\n      add\n        /* \"#utility.yul\":5117:5180   */\n      tag_92\n      jump\t// in\n    tag_186:\n        /* \"#utility.yul\":5107:5180   */\n      swap2\n      pop\n        /* \"#utility.yul\":4901:5190   */\n      pop\n        /* \"#utility.yul\":3746:5197   */\n      swap3\n      swap6\n      pop\n      swap3\n      swap6\n      swap1\n      swap4\n      pop\n      jump\t// out\n        /* \"#utility.yul\":5203:5293   */\n    tag_96:\n        /* \"#utility.yul\":5237:5244   */\n      0x00\n        /* \"#utility.yul\":5280:5285   */\n      dup2\n        /* \"#utility.yul\":5273:5286   */\n      iszero\n        /* \"#utility.yul\":5266:5287   */\n      iszero\n        /* \"#utility.yul\":5255:5287   */\n      swap1\n      pop\n        /* \"#utility.yul\":5203:5293   */\n      swap2\n      swap1\n      pop\n      jump\t// out\n        /* \"#utility.yul\":5299:5408   */\n    tag_97:\n        /* \"#utility.yul\":5380:5401   */\n      tag_189\n        /* \"#utility.yul\":5395:5400   */\n      dup2\n        /* \"#utility.yul\":5380:5401   */\n      tag_96\n      jump\t// in\n    tag_189:\n        /* \"#utility.yul\":5375:5378   */\n      dup3\n        /* \"#utility.yul\":5368:5402   */\n      mstore\n        /* \"#utility.yul\":5299:5408   */\n      pop\n      pop\n      jump\t// out\n        /* \"#utility.yul\":5414:5624   */\n    tag_27:\n        /* \"#utility.yul\":5501:5505   */\n      0x00\n        /* \"#utility.yul\":5539:5541   */\n      0x20\n        /* \"#utility.yul\":5528:5537   */\n      dup3\n        /* \"#utility.yul\":5524:5542   */\n      add\n        /* \"#utility.yul\":5516:5542   */\n      swap1\n      pop\n        /* \"#utility.yul\":5552:5617   */\n      tag_191\n        /* \"#utility.yul\":5614:5615   */\n      0x00\n        /* \"#utility.yul\":5603:5612   */\n      dup4\n        /* \"#utility.yul\":5599:5616   */\n      add\n        /* \"#utility.yul\":5590:5596   */\n      dup5\n        /* \"#utility.yul\":5552:5617   */\n      tag_97\n      jump\t// in\n    tag_191:\n        /* \"#utility.yul\":5414:5624   */\n      swap3\n      swap2\n      pop\n      pop\n      jump\t// out\n        /* \"#utility.yul\":5630:5748   */\n    tag_98:\n        /* \"#utility.yul\":5717:5741   */\n      tag_193\n        /* \"#utility.yul\":5735:5740   */\n      dup2\n        /* \"#utility.yul\":5717:5741   */\n      tag_80\n      jump\t// in\n    tag_193:\n        /* \"#utility.yul\":5712:5715   */\n      dup3\n        /* \"#utility.yul\":5705:5742   */\n      mstore\n        /* \"#utility.yul\":5630:5748   */\n      pop\n      pop\n      jump\t// out\n        /* \"#utility.yul\":5754:5976   */\n    tag_32:\n        /* \"#utility.yul\":5847:5851   */\n      0x00\n        /* \"#utility.yul\":5885:5887   */\n      0x20\n        /* \"#utility.yul\":5874:5883   */\n      dup3\n        /* \"#utility.yul\":5870:5888   */\n      add\n        /* \"#utility.yul\":5862:5888   */\n      swap1\n      pop\n        /* \"#utility.yul\":5898:5969   */\n      tag_195\n        /* \"#utility.yul\":5966:5967   */\n      0x00\n        /* \"#utility.yul\":5955:5964   */\n      dup4\n        /* \"#utility.yul\":5951:5968   */\n      add\n        /* \"#utility.yul\":5942:5948   */\n      dup5\n        /* \"#utility.yul\":5898:5969   */\n      tag_98\n      jump\t// in\n    tag_195:\n        /* \"#utility.yul\":5754:5976   */\n      swap3\n      swap2\n      pop\n      pop\n      jump\t// out\n        /* \"#utility.yul\":5982:6491   */\n    tag_36:\n        /* \"#utility.yul\":6051:6057   */\n      0x00\n        /* \"#utility.yul\":6100:6102   */\n      0x20\n        /* \"#utility.yul\":6088:6097   */\n      dup3\n        /* \"#utility.yul\":6079:6086   */\n      dup5\n        /* \"#utility.yul\":6075:6098   */\n      sub\n        /* \"#utility.yul\":6071:6103   */\n      slt\n        /* \"#utility.yul\":6068:6187   */\n      iszero\n      tag_197\n      jumpi\n        /* \"#utility.yul\":6106:6185   */\n      tag_198\n      tag_77\n      jump\t// in\n    tag_198:\n        /* \"#utility.yul\":6068:6187   */\n    tag_197:\n        /* \"#utility.yul\":6254:6255   */\n      0x00\n        /* \"#utility.yul\":6243:6252   */\n      dup3\n        /* \"#utility.yul\":6239:6256   */\n      add\n        /* \"#utility.yul\":6226:6257   */\n      calldataload\n        /* \"#utility.yul\":6284:6302   */\n      0xffffffffffffffff\n        /* \"#utility.yul\":6276:6282   */\n      dup2\n        /* \"#utility.yul\":6273:6303   */\n      gt\n        /* \"#utility.yul\":6270:6387   */\n      iszero\n      tag_199\n      jumpi\n        /* \"#utility.yul\":6306:6385   */\n      tag_200\n      tag_78\n      jump\t// in\n    tag_200:\n        /* \"#utility.yul\":6270:6387   */\n    tag_199:\n        /* \"#utility.yul\":6411:6474   */\n      tag_201\n        /* \"#utility.yul\":6466:6473   */\n      dup5\n        /* \"#utility.yul\":6457:6463   */\n      dup3\n        /* \"#utility.yul\":6446:6455   */\n      dup6\n        /* \"#utility.yul\":6442:6464   */\n      add\n        /* \"#utility.yul\":6411:6474   */\n      tag_92\n      jump\t// in\n    tag_201:\n        /* \"#utility.yul\":6401:6474   */\n      swap2\n      pop\n        /* \"#utility.yul\":6197:6484   */\n      pop\n        /* \"#utility.yul\":5982:6491   */\n      swap3\n      swap2\n      pop\n      pop\n      jump\t// out\n        /* \"#utility.yul\":6497:7151   */\n    tag_41:\n        /* \"#utility.yul\":6575:6581   */\n      0x00\n        /* \"#utility.yul\":6583:6589   */\n      dup1\n        /* \"#utility.yul\":6632:6634   */\n      0x40\n        /* \"#utility.yul\":6620:6629   */\n      dup4\n        /* \"#utility.yul\":6611:6618   */\n      dup6\n        /* \"#utility.yul\":6607:6630   */\n      sub\n        /* \"#utility.yul\":6603:6635   */\n      slt\n        /* \"#utility.yul\":6600:6719   */\n      iszero\n      tag_203\n      jumpi\n        /* \"#utility.yul\":6638:6717   */\n      tag_204\n      tag_77\n      jump\t// in\n    tag_204:\n        /* \"#utility.yul\":6600:6719   */\n    tag_203:\n        /* \"#utility.yul\":6786:6787   */\n      0x00\n        /* \"#utility.yul\":6775:6784   */\n      dup4\n        /* \"#utility.yul\":6771:6788   */\n      add\n        /* \"#utility.yul\":6758:6789   */\n      calldataload\n        /* \"#utility.yul\":6816:6834   */\n      0xffffffffffffffff\n        /* \"#utility.yul\":6808:6814   */\n      dup2\n        /* \"#utility.yul\":6805:6835   */\n      gt\n        /* \"#utility.yul\":6802:6919   */\n      iszero\n      tag_205\n      jumpi\n        /* \"#utility.yul\":6838:6917   */\n      tag_206\n      tag_78\n      jump\t// in\n    tag_206:\n        /* \"#utility.yul\":6802:6919   */\n    tag_205:\n        /* \"#utility.yul\":6943:7006   */\n      tag_207\n        /* \"#utility.yul\":6998:7005   */\n      dup6\n        /* \"#utility.yul\":6989:6995   */\n      dup3\n        /* \"#utility.yul\":6978:6987   */\n      dup7\n        /* \"#utility.yul\":6974:6996   */\n      add\n        /* \"#utility.yul\":6943:7006   */\n      tag_92\n      jump\t// in\n    tag_207:\n        /* \"#utility.yul\":6933:7006   */\n      swap3\n      pop\n        /* \"#utility.yul\":6729:7016   */\n      pop\n        /* \"#utility.yul\":7055:7057   */\n      0x20\n        /* \"#utility.yul\":7081:7134   */\n      tag_208\n        /* \"#utility.yul\":7126:7133   */\n      dup6\n        /* \"#utility.yul\":7117:7123   */\n      dup3\n        /* \"#utility.yul\":7106:7115   */\n      dup7\n        /* \"#utility.yul\":7102:7124   */\n      add\n        /* \"#utility.yul\":7081:7134   */\n      tag_82\n      jump\t// in\n    tag_208:\n        /* \"#utility.yul\":7071:7134   */\n      swap2\n      pop\n        /* \"#utility.yul\":7026:7144   */\n      pop\n        /* \"#utility.yul\":6497:7151   */\n      swap3\n      pop\n      swap3\n      swap1\n      pop\n      jump\t// out\n        /* \"#utility.yul\":7157:7326   */\n    tag_99:\n        /* \"#utility.yul\":7241:7252   */\n      0x00\n        /* \"#utility.yul\":7275:7281   */\n      dup3\n        /* \"#utility.yul\":7270:7273   */\n      dup3\n        /* \"#utility.yul\":7263:7282   */\n      mstore\n        /* \"#utility.yul\":7315:7319   */\n      0x20\n        /* \"#utility.yul\":7310:7313   */\n      dup3\n        /* \"#utility.yul\":7306:7320   */\n      add\n        /* \"#utility.yul\":7291:7320   */\n      swap1\n      pop\n        /* \"#utility.yul\":7157:7326   */\n      swap3\n      swap2\n      pop\n      pop\n      jump\t// out\n        /* \"#utility.yul\":7332:7514   */\n    tag_100:\n        /* \"#utility.yul\":7472:7506   */\n      0x4f776e61626c653a2063616c6c6572206973206e6f7420746865206f776e6572\n        /* \"#utility.yul\":7468:7469   */\n      0x00\n        /* \"#utility.yul\":7460:7466   */\n      dup3\n        /* \"#utility.yul\":7456:7470   */\n      add\n        /* \"#utility.yul\":7449:7507   */\n      mstore\n        /* \"#utility.yul\":7332:7514   */\n      pop\n      jump\t// out\n        /* \"#utility.yul\":7520:7886   */\n    tag_101:\n        /* \"#utility.yul\":7662:7665   */\n      0x00\n        /* \"#utility.yul\":7683:7750   */\n      tag_212\n        /* \"#utility.yul\":7747:7749   */\n      0x20\n        /* \"#utility.yul\":7742:7745   */\n      dup4\n        /* \"#utility.yul\":7683:7750   */\n      tag_99\n      jump\t// in\n    tag_212:\n        /* \"#utility.yul\":7676:7750   */\n      swap2\n      pop\n        /* \"#utility.yul\":7759:7852   */\n      tag_213\n        /* \"#utility.yul\":7848:7851   */\n      dup3\n        /* \"#utility.yul\":7759:7852   */\n      tag_100\n      jump\t// in\n    tag_213:\n        /* \"#utility.yul\":7877:7879   */\n      0x20\n        /* \"#utility.yul\":7872:7875   */\n      dup3\n        /* \"#utility.yul\":7868:7880   */\n      add\n        /* \"#utility.yul\":7861:7880   */\n      swap1\n      pop\n        /* \"#utility.yul\":7520:7886   */\n      swap2\n      swap1\n      pop\n      jump\t// out\n        /* \"#utility.yul\":7892:8311   */\n    tag_47:\n        /* \"#utility.yul\":8058:8062   */\n      0x00\n        /* \"#utility.yul\":8096:8098   */\n      0x20\n        /* \"#utility.yul\":8085:8094   */\n      dup3\n        /* \"#utility.yul\":8081:8099   */\n      add\n        /* \"#utility.yul\":8073:8099   */\n      swap1\n      pop\n        /* \"#utility.yul\":8145:8154   */\n      dup2\n        /* \"#utility.yul\":8139:8143   */\n      dup2\n        /* \"#utility.yul\":8135:8155   */\n      sub\n        /* \"#utility.yul\":8131:8132   */\n      0x00\n        /* \"#utility.yul\":8120:8129   */\n      dup4\n        /* \"#utility.yul\":8116:8133   */\n      add\n        /* \"#utility.yul\":8109:8156   */\n      mstore\n        /* \"#utility.yul\":8173:8304   */\n      tag_215\n        /* \"#utility.yul\":8299:8303   */\n      dup2\n        /* \"#utility.yul\":8173:8304   */\n      tag_101\n      jump\t// in\n    tag_215:\n        /* \"#utility.yul\":8165:8304   */\n      swap1\n      pop\n        /* \"#utility.yul\":7892:8311   */\n      swap2\n      swap1\n      pop\n      jump\t// out\n        /* \"#utility.yul\":8317:8416   */\n    tag_102:\n        /* \"#utility.yul\":8369:8375   */\n      0x00\n        /* \"#utility.yul\":8403:8408   */\n      dup2\n        /* \"#utility.yul\":8397:8409   */\n      mload\n        /* \"#utility.yul\":8387:8409   */\n      swap1\n      pop\n        /* \"#utility.yul\":8317:8416   */\n      swap2\n      swap1\n      pop\n      jump\t// out\n        /* \"#utility.yul\":8422:8570   */\n    tag_103:\n        /* \"#utility.yul\":8524:8535   */\n      0x00\n        /* \"#utility.yul\":8561:8564   */\n      dup2\n        /* \"#utility.yul\":8546:8564   */\n      swap1\n      pop\n        /* \"#utility.yul\":8422:8570   */\n      swap3\n      swap2\n      pop\n      pop\n      jump\t// out\n        /* \"#utility.yul\":8576:8883   */\n    tag_104:\n        /* \"#utility.yul\":8644:8645   */\n      0x00\n        /* \"#utility.yul\":8654:8767   */\n    tag_219:\n        /* \"#utility.yul\":8668:8674   */\n      dup4\n        /* \"#utility.yul\":8665:8666   */\n      dup2\n        /* \"#utility.yul\":8662:8675   */\n      lt\n        /* \"#utility.yul\":8654:8767   */\n      iszero\n      tag_221\n      jumpi\n        /* \"#utility.yul\":8753:8754   */\n      dup1\n        /* \"#utility.yul\":8748:8751   */\n      dup3\n        /* \"#utility.yul\":8744:8755   */\n      add\n        /* \"#utility.yul\":8738:8756   */\n      mload\n        /* \"#utility.yul\":8734:8735   */\n      dup2\n        /* \"#utility.yul\":8729:8732   */\n      dup5\n        /* \"#utility.yul\":8725:8736   */\n      add\n        /* \"#utility.yul\":8718:8757   */\n      mstore\n        /* \"#utility.yul\":8690:8692   */\n      0x20\n        /* \"#utility.yul\":8687:8688   */\n      dup2\n        /* \"#utility.yul\":8683:8693   */\n      add\n        /* \"#utility.yul\":8678:8693   */\n      swap1\n      pop\n        /* \"#utility.yul\":8654:8767   */\n      jump(tag_219)\n    tag_221:\n        /* \"#utility.yul\":8785:8791   */\n      dup4\n        /* \"#utility.yul\":8782:8783   */\n      dup2\n        /* \"#utility.yul\":8779:8792   */\n      gt\n        /* \"#utility.yul\":8776:8877   */\n      iszero\n      tag_222\n      jumpi\n        /* \"#utility.yul\":8865:8866   */\n      0x00\n        /* \"#utility.yul\":8856:8862   */\n      dup5\n        /* \"#utility.yul\":8851:8854   */\n      dup5\n        /* \"#utility.yul\":8847:8863   */\n      add\n        /* \"#utility.yul\":8840:8867   */\n      mstore\n        /* \"#utility.yul\":8776:8877   */\n    tag_222:\n        /* \"#utility.yul\":8625:8883   */\n      pop\n        /* \"#utility.yul\":8576:8883   */\n      pop\n      pop\n      pop\n      jump\t// out\n        /* \"#utility.yul\":8889:9266   */\n    tag_105:\n        /* \"#utility.yul\":8995:8998   */\n      0x00\n        /* \"#utility.yul\":9023:9062   */\n      tag_224\n        /* \"#utility.yul\":9056:9061   */\n      dup3\n        /* \"#utility.yul\":9023:9062   */\n      tag_102\n      jump\t// in\n    tag_224:\n        /* \"#utility.yul\":9078:9167   */\n      tag_225\n        /* \"#utility.yul\":9160:9166   */\n      dup2\n        /* \"#utility.yul\":9155:9158   */\n      dup6\n        /* \"#utility.yul\":9078:9167   */\n      tag_103\n      jump\t// in\n    tag_225:\n        /* \"#utility.yul\":9071:9167   */\n      swap4\n      pop\n        /* \"#utility.yul\":9176:9228   */\n      tag_226\n        /* \"#utility.yul\":9221:9227   */\n      dup2\n        /* \"#utility.yul\":9216:9219   */\n      dup6\n        /* \"#utility.yul\":9209:9213   */\n      0x20\n        /* \"#utility.yul\":9202:9207   */\n      dup7\n        /* \"#utility.yul\":9198:9214   */\n      add\n        /* \"#utility.yul\":9176:9228   */\n      tag_104\n      jump\t// in\n    tag_226:\n        /* \"#utility.yul\":9253:9259   */\n      dup1\n        /* \"#utility.yul\":9248:9251   */\n      dup5\n        /* \"#utility.yul\":9244:9260   */\n      add\n        /* \"#utility.yul\":9237:9260   */\n      swap2\n      pop\n        /* \"#utility.yul\":8999:9266   */\n      pop\n        /* \"#utility.yul\":8889:9266   */\n      swap3\n      swap2\n      pop\n      pop\n      jump\t// out\n        /* \"#utility.yul\":9272:9547   */\n    tag_51:\n        /* \"#utility.yul\":9404:9407   */\n      0x00\n        /* \"#utility.yul\":9426:9521   */\n      tag_228\n        /* \"#utility.yul\":9517:9520   */\n      dup3\n        /* \"#utility.yul\":9508:9514   */\n      dup5\n        /* \"#utility.yul\":9426:9521   */\n      tag_105\n      jump\t// in\n    tag_228:\n        /* \"#utility.yul\":9419:9521   */\n      swap2\n      pop\n        /* \"#utility.yul\":9538:9541   */\n      dup2\n        /* \"#utility.yul\":9531:9541   */\n      swap1\n      pop\n        /* \"#utility.yul\":9272:9547   */\n      swap3\n      swap2\n      pop\n      pop\n      jump\t// out\n        /* \"#utility.yul\":9553:9917   */\n    tag_106:\n        /* \"#utility.yul\":9641:9644   */\n      0x00\n        /* \"#utility.yul\":9669:9708   */\n      tag_230\n        /* \"#utility.yul\":9702:9707   */\n      dup3\n        /* \"#utility.yul\":9669:9708   */\n      tag_102\n      jump\t// in\n    tag_230:\n        /* \"#utility.yul\":9724:9795   */\n      tag_231\n        /* \"#utility.yul\":9788:9794   */\n      dup2\n        /* \"#utility.yul\":9783:9786   */\n      dup6\n        /* \"#utility.yul\":9724:9795   */\n      tag_99\n      jump\t// in\n    tag_231:\n        /* \"#utility.yul\":9717:9795   */\n      swap4\n      pop\n        /* \"#utility.yul\":9804:9856   */\n      tag_232\n        /* \"#utility.yul\":9849:9855   */\n      dup2\n        /* \"#utility.yul\":9844:9847   */\n      dup6\n        /* \"#utility.yul\":9837:9841   */\n      0x20\n        /* \"#utility.yul\":9830:9835   */\n      dup7\n        /* \"#utility.yul\":9826:9842   */\n      add\n        /* \"#utility.yul\":9804:9856   */\n      tag_104\n      jump\t// in\n    tag_232:\n        /* \"#utility.yul\":9881:9910   */\n      tag_233\n        /* \"#utility.yul\":9903:9909   */\n      dup2\n        /* \"#utility.yul\":9881:9910   */\n      tag_85\n      jump\t// in\n    tag_233:\n        /* \"#utility.yul\":9876:9879   */\n      dup5\n        /* \"#utility.yul\":9872:9911   */\n      add\n        /* \"#utility.yul\":9865:9911   */\n      swap2\n      pop\n        /* \"#utility.yul\":9645:9917   */\n      pop\n        /* \"#utility.yul\":9553:9917   */\n      swap3\n      swap2\n      pop\n      pop\n      jump\t// out\n        /* \"#utility.yul\":9923:10041   */\n    tag_107:\n        /* \"#utility.yul\":10010:10034   */\n      tag_235\n        /* \"#utility.yul\":10028:10033   */\n      dup2\n        /* \"#utility.yul\":10010:10034   */\n      tag_93\n      jump\t// in\n    tag_235:\n        /* \"#utility.yul\":10005:10008   */\n      dup3\n        /* \"#utility.yul\":9998:10035   */\n      mstore\n        /* \"#utility.yul\":9923:10041   */\n      pop\n      pop\n      jump\t// out\n        /* \"#utility.yul\":10047:10984   */\n    tag_54:\n        /* \"#utility.yul\":10312:10316   */\n      0x00\n        /* \"#utility.yul\":10350:10353   */\n      0xa0\n        /* \"#utility.yul\":10339:10348   */\n      dup3\n        /* \"#utility.yul\":10335:10354   */\n      add\n        /* \"#utility.yul\":10327:10354   */\n      swap1\n      pop\n        /* \"#utility.yul\":10400:10409   */\n      dup2\n        /* \"#utility.yul\":10394:10398   */\n      dup2\n        /* \"#utility.yul\":10390:10410   */\n      sub\n        /* \"#utility.yul\":10386:10387   */\n      0x00\n        /* \"#utility.yul\":10375:10384   */\n      dup4\n        /* \"#utility.yul\":10371:10388   */\n      add\n        /* \"#utility.yul\":10364:10411   */\n      mstore\n        /* \"#utility.yul\":10428:10506   */\n      tag_237\n        /* \"#utility.yul\":10501:10505   */\n      dup2\n        /* \"#utility.yul\":10492:10498   */\n      dup9\n        /* \"#utility.yul\":10428:10506   */\n      tag_106\n      jump\t// in\n    tag_237:\n        /* \"#utility.yul\":10420:10506   */\n      swap1\n      pop\n        /* \"#utility.yul\":10553:10562   */\n      dup2\n        /* \"#utility.yul\":10547:10551   */\n      dup2\n        /* \"#utility.yul\":10543:10563   */\n      sub\n        /* \"#utility.yul\":10538:10540   */\n      0x20\n        /* \"#utility.yul\":10527:10536   */\n      dup4\n        /* \"#utility.yul\":10523:10541   */\n      add\n        /* \"#utility.yul\":10516:10564   */\n      mstore\n        /* \"#utility.yul\":10581:10659   */\n      tag_238\n        /* \"#utility.yul\":10654:10658   */\n      dup2\n        /* \"#utility.yul\":10645:10651   */\n      dup8\n        /* \"#utility.yul\":10581:10659   */\n      tag_106\n      jump\t// in\n    tag_238:\n        /* \"#utility.yul\":10573:10659   */\n      swap1\n      pop\n        /* \"#utility.yul\":10669:10741   */\n      tag_239\n        /* \"#utility.yul\":10737:10739   */\n      0x40\n        /* \"#utility.yul\":10726:10735   */\n      dup4\n        /* \"#utility.yul\":10722:10740   */\n      add\n        /* \"#utility.yul\":10713:10719   */\n      dup7\n        /* \"#utility.yul\":10669:10741   */\n      tag_107\n      jump\t// in\n    tag_239:\n        /* \"#utility.yul\":10751:10823   */\n      tag_240\n        /* \"#utility.yul\":10819:10821   */\n      0x60\n        /* \"#utility.yul\":10808:10817   */\n      dup4\n        /* \"#utility.yul\":10804:10822   */\n      add\n        /* \"#utility.yul\":10795:10801   */\n      dup6\n        /* \"#utility.yul\":10751:10823   */\n      tag_107\n      jump\t// in\n    tag_240:\n        /* \"#utility.yul\":10871:10880   */\n      dup2\n        /* \"#utility.yul\":10865:10869   */\n      dup2\n        /* \"#utility.yul\":10861:10881   */\n      sub\n        /* \"#utility.yul\":10855:10858   */\n      0x80\n        /* \"#utility.yul\":10844:10853   */\n      dup4\n        /* \"#utility.yul\":10840:10859   */\n      add\n        /* \"#utility.yul\":10833:10882   */\n      mstore\n        /* \"#utility.yul\":10899:10977   */\n      tag_241\n        /* \"#utility.yul\":10972:10976   */\n      dup2\n        /* \"#utility.yul\":10963:10969   */\n      dup5\n        /* \"#utility.yul\":10899:10977   */\n      tag_106\n      jump\t// in\n    tag_241:\n        /* \"#utility.yul\":10891:10977   */\n      swap1\n      pop\n        /* \"#utility.yul\":10047:10984   */\n      swap7\n      swap6\n      pop\n      pop\n      pop\n      pop\n      pop\n      pop\n      jump\t// out\n        /* \"#utility.yul\":10990:11170   */\n    tag_108:\n        /* \"#utility.yul\":11038:11115   */\n      0x4e487b7100000000000000000000000000000000000000000000000000000000\n        /* \"#utility.yul\":11035:11036   */\n      0x00\n        /* \"#utility.yul\":11028:11116   */\n      mstore\n        /* \"#utility.yul\":11135:11139   */\n      0x22\n        /* \"#utility.yul\":11132:11133   */\n      0x04\n        /* \"#utility.yul\":11125:11140   */\n      mstore\n        /* \"#utility.yul\":11159:11163   */\n      0x24\n        /* \"#utility.yul\":11156:11157   */\n      0x00\n        /* \"#utility.yul\":11149:11164   */\n      revert\n        /* \"#utility.yul\":11176:11496   */\n    tag_109:\n        /* \"#utility.yul\":11220:11226   */\n      0x00\n        /* \"#utility.yul\":11257:11258   */\n      0x02\n        /* \"#utility.yul\":11251:11255   */\n      dup3\n        /* \"#utility.yul\":11247:11259   */\n      div\n        /* \"#utility.yul\":11237:11259   */\n      swap1\n      pop\n        /* \"#utility.yul\":11304:11305   */\n      0x01\n        /* \"#utility.yul\":11298:11302   */\n      dup3\n        /* \"#utility.yul\":11294:11306   */\n      and\n        /* \"#utility.yul\":11325:11343   */\n      dup1\n        /* \"#utility.yul\":11315:11396   */\n      tag_244\n      jumpi\n        /* \"#utility.yul\":11381:11385   */\n      0x7f\n        /* \"#utility.yul\":11373:11379   */\n      dup3\n        /* \"#utility.yul\":11369:11386   */\n      and\n        /* \"#utility.yul\":11359:11386   */\n      swap2\n      pop\n        /* \"#utility.yul\":11315:11396   */\n    tag_244:\n        /* \"#utility.yul\":11443:11445   */\n      0x20\n        /* \"#utility.yul\":11435:11441   */\n      dup3\n        /* \"#utility.yul\":11432:11446   */\n      lt\n        /* \"#utility.yul\":11412:11430   */\n      dup2\n        /* \"#utility.yul\":11409:11447   */\n      sub\n        /* \"#utility.yul\":11406:11490   */\n      tag_245\n      jumpi\n        /* \"#utility.yul\":11462:11480   */\n      tag_246\n      tag_108\n      jump\t// in\n    tag_246:\n        /* \"#utility.yul\":11406:11490   */\n    tag_245:\n        /* \"#utility.yul\":11227:11496   */\n      pop\n        /* \"#utility.yul\":11176:11496   */\n      swap2\n      swap1\n      pop\n      jump\t// out\n        /* \"#utility.yul\":11502:11643   */\n    tag_110:\n        /* \"#utility.yul\":11551:11555   */\n      0x00\n        /* \"#utility.yul\":11574:11577   */\n      dup2\n        /* \"#utility.yul\":11566:11577   */\n      swap1\n      pop\n        /* \"#utility.yul\":11597:11600   */\n      dup2\n        /* \"#utility.yul\":11594:11595   */\n      0x00\n        /* \"#utility.yul\":11587:11601   */\n      mstore\n        /* \"#utility.yul\":11631:11635   */\n      0x20\n        /* \"#utility.yul\":11628:11629   */\n      0x00\n        /* \"#utility.yul\":11618:11636   */\n      keccak256\n        /* \"#utility.yul\":11610:11636   */\n      swap1\n      pop\n        /* \"#utility.yul\":11502:11643   */\n      swap2\n      swap1\n      pop\n      jump\t// out\n        /* \"#utility.yul\":11649:11742   */\n    tag_111:\n        /* \"#utility.yul\":11686:11692   */\n      0x00\n        /* \"#utility.yul\":11733:11735   */\n      0x20\n        /* \"#utility.yul\":11728:11730   */\n      0x1f\n        /* \"#utility.yul\":11721:11726   */\n      dup4\n        /* \"#utility.yul\":11717:11731   */\n      add\n        /* \"#utility.yul\":11713:11736   */\n      div\n        /* \"#utility.yul\":11703:11736   */\n      swap1\n      pop\n        /* \"#utility.yul\":11649:11742   */\n      swap2\n      swap1\n      pop\n      jump\t// out\n        /* \"#utility.yul\":11748:11855   */\n    tag_112:\n        /* \"#utility.yul\":11792:11800   */\n      0x00\n        /* \"#utility.yul\":11842:11847   */\n      dup3\n        /* \"#utility.yul\":11836:11840   */\n      dup3\n        /* \"#utility.yul\":11832:11848   */\n      shl\n        /* \"#utility.yul\":11811:11848   */\n      swap1\n      pop\n        /* \"#utility.yul\":11748:11855   */\n      swap3\n      swap2\n      pop\n      pop\n      jump\t// out\n        /* \"#utility.yul\":11861:12254   */\n    tag_113:\n        /* \"#utility.yul\":11930:11936   */\n      0x00\n        /* \"#utility.yul\":11980:11981   */\n      0x08\n        /* \"#utility.yul\":11968:11978   */\n      dup4\n        /* \"#utility.yul\":11964:11982   */\n      mul\n        /* \"#utility.yul\":12003:12100   */\n      tag_251\n        /* \"#utility.yul\":12033:12099   */\n      0xffffffffffffffffffffffffffffffffffffffffffffffffffffffffffffffff\n        /* \"#utility.yul\":12022:12031   */\n      dup3\n        /* \"#utility.yul\":12003:12100   */\n      tag_112\n      jump\t// in\n    tag_251:\n        /* \"#utility.yul\":12121:12160   */\n      tag_252\n        /* \"#utility.yul\":12151:12159   */\n      dup7\n        /* \"#utility.yul\":12140:12149   */\n      dup4\n        /* \"#utility.yul\":12121:12160   */\n      tag_112\n      jump\t// in\n    tag_252:\n        /* \"#utility.yul\":12109:12160   */\n      swap6\n      pop\n        /* \"#utility.yul\":12193:12197   */\n      dup1\n        /* \"#utility.yul\":12189:12198   */\n      not\n        /* \"#utility.yul\":12182:12187   */\n      dup5\n        /* \"#utility.yul\":12178:12199   */\n      and\n        /* \"#utility.yul\":12169:12199   */\n      swap4\n      pop\n        /* \"#utility.yul\":12242:12246   */\n      dup1\n        /* \"#utility.yul\":12232:12240   */\n      dup7\n        /* \"#utility.yul\":12228:12247   */\n      and\n        /* \"#utility.yul\":12221:12226   */\n      dup5\n        /* \"#utility.yul\":12218:12248   */\n      or\n        /* \"#utility.yul\":12208:12248   */\n      swap3\n      pop\n        /* \"#utility.yul\":11937:12254   */\n      pop\n      pop\n        /* \"#utility.yul\":11861:12254   */\n      swap4\n      swap3\n      pop\n      pop\n      pop\n      jump\t// out\n        /* \"#utility.yul\":12260:12320   */\n    tag_114:\n        /* \"#utility.yul\":12288:12291   */\n      0x00\n        /* \"#utility.yul\":12309:12314   */\n      dup2\n        /* \"#utility.yul\":12302:12314   */\n      swap1\n      pop\n        /* \"#utility.yul\":12260:12320   */\n      swap2\n      swap1\n      pop\n      jump\t// out\n        /* \"#utility.yul\":12326:12468   */\n    tag_115:\n        /* \"#utility.yul\":12376:12385   */\n      0x00\n        /* \"#utility.yul\":12409:12462   */\n      tag_255\n        /* \"#utility.yul\":12427:12461   */\n      tag_256\n        /* \"#utility.yul\":12436:12460   */\n      tag_257\n        /* \"#utility.yul\":12454:12459   */\n      dup5\n        /* \"#utility.yul\":12436:12460   */\n      tag_93\n      jump\t// in\n    tag_257:\n        /* \"#utility.yul\":12427:12461   */\n      tag_114\n      jump\t// in\n    tag_256:\n        /* \"#utility.yul\":12409:12462   */\n      tag_93\n      jump\t// in\n    tag_255:\n        /* \"#utility.yul\":12396:12462   */\n      swap1\n      pop\n        /* \"#utility.yul\":12326:12468   */\n      swap2\n      swap1\n      pop\n      jump\t// out\n        /* \"#utility.yul\":12474:12549   */\n    tag_116:\n        /* \"#utility.yul\":12517:12520   */\n      0x00\n        /* \"#utility.yul\":12538:12543   */\n      dup2\n        /* \"#utility.yul\":12531:12543   */\n      swap1\n      pop\n        /* \"#utility.yul\":12474:12549   */\n      swap2\n      swap1\n      pop\n      jump\t// out\n        /* \"#utility.yul\":12555:12824   */\n    tag_117:\n        /* \"#utility.yul\":12665:12704   */\n      tag_260\n        /* \"#utility.yul\":12696:12703   */\n      dup4\n        /* \"#utility.yul\":12665:12704   */\n      tag_115\n      jump\t// in\n    tag_260:\n        /* \"#utility.yul\":12726:12817   */\n      tag_261\n        /* \"#utility.yul\":12775:12816   */\n      tag_262\n        /* \"#utility.yul\":12799:12815   */\n      dup3\n        /* \"#utility.yul\":12775:12816   */\n      tag_116\n      jump\t// in\n    tag_262:\n        /* \"#utility.yul\":12767:12773   */\n      dup5\n        /* \"#utility.yul\":12760:12764   */\n      dup5\n        /* \"#utility.yul\":12754:12765   */\n      sload\n        /* \"#utility.yul\":12726:12817   */\n      tag_113\n      jump\t// in\n    tag_261:\n        /* \"#utility.yul\":12720:12724   */\n      dup3\n        /* \"#utility.yul\":12713:12818   */\n      sstore\n        /* \"#utility.yul\":12631:12824   */\n      pop\n        /* \"#utility.yul\":12555:12824   */\n      pop\n      pop\n      pop\n      jump\t// out\n        /* \"#utility.yul\":12830:12903   */\n    tag_118:\n        /* \"#utility.yul\":12875:12878   */\n      0x00\n        /* \"#utility.yul\":12830:12903   */\n      swap1\n      jump\t// out\n        /* \"#utility.yul\":12909:13098   */\n    tag_119:\n        /* \"#utility.yul\":12986:13018   */\n      tag_265\n      tag_118\n      jump\t// in\n    tag_265:\n        /* \"#utility.yul\":13027:13092   */\n      tag_266\n        /* \"#utility.yul\":13085:13091   */\n      dup2\n        /* \"#utility.yul\":13077:13083   */\n      dup5\n        /* \"#utility.yul\":13071:13075   */\n      dup5\n        /* \"#utility.yul\":13027:13092   */\n      tag_117\n      jump\t// in\n    tag_266:\n        /* \"#utility.yul\":12962:13098   */\n      pop\n        /* \"#utility.yul\":12909:13098   */\n      pop\n      pop\n      jump\t// out\n        /* \"#utility.yul\":13104:13290   */\n    tag_120:\n        /* \"#utility.yul\":13164:13284   */\n    tag_268:\n        /* \"#utility.yul\":13181:13184   */\n      dup2\n        /* \"#utility.yul\":13174:13179   */\n      dup2\n        /* \"#utility.yul\":13171:13185   */\n      lt\n        /* \"#utility.yul\":13164:13284   */\n      iszero\n      tag_270\n      jumpi\n        /* \"#utility.yul\":13235:13274   */\n      tag_271\n        /* \"#utility.yul\":13272:13273   */\n      0x00\n        /* \"#utility.yul\":13265:13270   */\n      dup3\n        /* \"#utility.yul\":13235:13274   */\n      tag_119\n      jump\t// in\n    tag_271:\n        /* \"#utility.yul\":13208:13209   */\n      0x01\n        /* \"#utility.yul\":13201:13206   */\n      dup2\n        /* \"#utility.yul\":13197:13210   */\n      add\n        /* \"#utility.yul\":13188:13210   */\n      swap1\n      pop\n        /* \"#utility.yul\":13164:13284   */\n      jump(tag_268)\n    tag_270:\n        /* \"#utility.yul\":13104:13290   */\n      pop\n      pop\n      jump\t// out\n        /* \"#utility.yul\":13296:13839   */\n    tag_121:\n        /* \"#utility.yul\":13397:13399   */\n      0x1f\n        /* \"#utility.yul\":13392:13395   */\n      dup3\n        /* \"#utility.yul\":13389:13400   */\n      gt\n        /* \"#utility.yul\":13386:13832   */\n      iszero\n      tag_273\n      jumpi\n        /* \"#utility.yul\":13431:13469   */\n      tag_274\n        /* \"#utility.yul\":13463:13468   */\n      dup2\n        /* \"#utility.yul\":13431:13469   */\n      tag_110\n      jump\t// in\n    tag_274:\n        /* \"#utility.yul\":13515:13544   */\n      tag_275\n        /* \"#utility.yul\":13533:13543   */\n      dup5\n        /* \"#utility.yul\":13515:13544   */\n      tag_111\n      jump\t// in\n    tag_275:\n        /* \"#utility.yul\":13505:13513   */\n      dup2\n        /* \"#utility.yul\":13501:13545   */\n      add\n        /* \"#utility.yul\":13698:13700   */\n      0x20\n        /* \"#utility.yul\":13686:13696   */\n      dup6\n        /* \"#utility.yul\":13683:13701   */\n      lt\n        /* \"#utility.yul\":13680:13729   */\n      iszero\n      tag_276\n      jumpi\n        /* \"#utility.yul\":13719:13727   */\n      dup2\n        /* \"#utility.yul\":13704:13727   */\n      swap1\n      pop\n        /* \"#utility.yul\":13680:13729   */\n    tag_276:\n        /* \"#utility.yul\":13742:13822   */\n      tag_277\n        /* \"#utility.yul\":13798:13820   */\n      tag_278\n        /* \"#utility.yul\":13816:13819   */\n      dup6\n        /* \"#utility.yul\":13798:13820   */\n      tag_111\n      jump\t// in\n    tag_278:\n        /* \"#utility.yul\":13788:13796   */\n      dup4\n        /* \"#utility.yul\":13784:13821   */\n      add\n        /* \"#utility.yul\":13771:13782   */\n      dup3\n        /* \"#utility.yul\":13742:13822   */\n      tag_120\n      jump\t// in\n    tag_277:\n        /* \"#utility.yul\":13401:13832   */\n      pop\n      pop\n        /* \"#utility.yul\":13386:13832   */\n    tag_273:\n        /* \"#utility.yul\":13296:13839   */\n      pop\n      pop\n      pop\n      jump\t// out\n        /* \"#utility.yul\":13845:13962   */\n    tag_122:\n        /* \"#utility.yul\":13899:13907   */\n      0x00\n        /* \"#utility.yul\":13949:13954   */\n      dup3\n        /* \"#utility.yul\":13943:13947   */\n      dup3\n        /* \"#utility.yul\":13939:13955   */\n      shr\n        /* \"#utility.yul\":13918:13955   */\n      swap1\n      pop\n        /* \"#utility.yul\":13845:13962   */\n      swap3\n      swap2\n      pop\n      pop\n      jump\t// out\n        /* \"#utility.yul\":13968:14137   */\n    tag_123:\n        /* \"#utility.yul\":14012:14018   */\n      0x00\n        /* \"#utility.yul\":14045:14096   */\n      tag_281\n        /* \"#utility.yul\":14093:14094   */\n      0x00\n        /* \"#utility.yul\":14089:14095   */\n      not\n        /* \"#utility.yul\":14081:14086   */\n      dup5\n        /* \"#utility.yul\":14078:14079   */\n      0x08\n        /* \"#utility.yul\":14074:14087   */\n      mul\n        /* \"#utility.yul\":14045:14096   */\n      tag_122\n      jump\t// in\n    tag_281:\n        /* \"#utility.yul\":14041:14097   */\n      not\n        /* \"#utility.yul\":14126:14130   */\n      dup1\n        /* \"#utility.yul\":14120:14124   */\n      dup4\n        /* \"#utility.yul\":14116:14131   */\n      and\n        /* \"#utility.yul\":14106:14131   */\n      swap2\n      pop\n        /* \"#utility.yul\":14019:14137   */\n      pop\n        /* \"#utility.yul\":13968:14137   */\n      swap3\n      swap2\n      pop\n      pop\n      jump\t// out\n        /* \"#utility.yul\":14142:14437   */\n    tag_124:\n        /* \"#utility.yul\":14218:14222   */\n      0x00\n        /* \"#utility.yul\":14364:14393   */\n      tag_283\n        /* \"#utility.yul\":14389:14392   */\n      dup4\n        /* \"#utility.yul\":14383:14387   */\n      dup4\n        /* \"#utility.yul\":14364:14393   */\n      tag_123\n      jump\t// in\n    tag_283:\n        /* \"#utility.yul\":14356:14393   */\n      swap2\n      pop\n        /* \"#utility.yul\":14426:14429   */\n      dup3\n        /* \"#utility.yul\":14423:14424   */\n      0x02\n        /* \"#utility.yul\":14419:14430   */\n      mul\n        /* \"#utility.yul\":14413:14417   */\n      dup3\n        /* \"#utility.yul\":14410:14431   */\n      or\n        /* \"#utility.yul\":14402:14431   */\n      swap1\n      pop\n        /* \"#utility.yul\":14142:14437   */\n      swap3\n      swap2\n      pop\n      pop\n      jump\t// out\n        /* \"#utility.yul\":14442:15837   */\n    tag_75:\n        /* \"#utility.yul\":14559:14596   */\n      tag_285\n        /* \"#utility.yul\":14592:14595   */\n      dup3\n        /* \"#utility.yul\":14559:14596   */\n      tag_102\n      jump\t// in\n    tag_285:\n        /* \"#utility.yul\":14661:14679   */\n      0xffffffffffffffff\n        /* \"#utility.yul\":14653:14659   */\n      dup2\n        /* \"#utility.yul\":14650:14680   */\n      gt\n        /* \"#utility.yul\":14647:14703   */\n      iszero\n      tag_286\n      jumpi\n        /* \"#utility.yul\":14683:14701   */\n      tag_287\n      tag_86\n      jump\t// in\n    tag_287:\n        /* \"#utility.yul\":14647:14703   */\n    tag_286:\n        /* \"#utility.yul\":14727:14765   */\n      tag_288\n        /* \"#utility.yul\":14759:14763   */\n      dup3\n        /* \"#utility.yul\":14753:14764   */\n      sload\n        /* \"#utility.yul\":14727:14765   */\n      tag_109\n      jump\t// in\n    tag_288:\n        /* \"#utility.yul\":14812:14879   */\n      tag_289\n        /* \"#utility.yul\":14872:14878   */\n      dup3\n        /* \"#utility.yul\":14864:14870   */\n      dup3\n        /* \"#utility.yul\":14858:14862   */\n      dup6\n        /* \"#utility.yul\":14812:14879   */\n      tag_121\n      jump\t// in\n    tag_289:\n        /* \"#utility.yul\":14906:14907   */\n      0x00\n        /* \"#utility.yul\":14930:14934   */\n      0x20\n        /* \"#utility.yul\":14917:14934   */\n      swap1\n      pop\n        /* \"#utility.yul\":14962:14964   */\n      0x1f\n        /* \"#utility.yul\":14954:14960   */\n      dup4\n        /* \"#utility.yul\":14951:14965   */\n      gt\n        /* \"#utility.yul\":14979:14980   */\n      0x01\n        /* \"#utility.yul\":14974:15592   */\n      dup2\n      eq\n      tag_291\n      jumpi\n        /* \"#utility.yul\":15636:15637   */\n      0x00\n        /* \"#utility.yul\":15653:15659   */\n      dup5\n        /* \"#utility.yul\":15650:15727   */\n      iszero\n      tag_292\n      jumpi\n        /* \"#utility.yul\":15702:15711   */\n      dup3\n        /* \"#utility.yul\":15697:15700   */\n      dup8\n        /* \"#utility.yul\":15693:15712   */\n      add\n        /* \"#utility.yul\":15687:15713   */\n      mload\n        /* \"#utility.yul\":15678:15713   */\n      swap1\n      pop\n        /* \"#utility.yul\":15650:15727   */\n    tag_292:\n        /* \"#utility.yul\":15753:15820   */\n      tag_293\n        /* \"#utility.yul\":15813:15819   */\n      dup6\n        /* \"#utility.yul\":15806:15811   */\n      dup3\n        /* \"#utility.yul\":15753:15820   */\n      tag_124\n      jump\t// in\n    tag_293:\n        /* \"#utility.yul\":15747:15751   */\n      dup7\n        /* \"#utility.yul\":15740:15821   */\n      sstore\n        /* \"#utility.yul\":15609:15831   */\n      pop\n        /* \"#utility.yul\":14944:15831   */\n      jump(tag_290)\n        /* \"#utility.yul\":14974:15592   */\n    tag_291:\n        /* \"#utility.yul\":15026:15030   */\n      0x1f\n        /* \"#utility.yul\":15022:15031   */\n      not\n        /* \"#utility.yul\":15014:15020   */\n      dup5\n        /* \"#utility.yul\":15010:15032   */\n      and\n        /* \"#utility.yul\":15060:15097   */\n      tag_294\n        /* \"#utility.yul\":15092:15096   */\n      dup7\n        /* \"#utility.yul\":15060:15097   */\n      tag_110\n      jump\t// in\n    tag_294:\n        /* \"#utility.yul\":15119:15120   */\n      0x00\n        /* \"#utility.yul\":15133:15341   */\n    tag_295:\n        /* \"#utility.yul\":15147:15154   */\n      dup3\n        /* \"#utility.yul\":15144:15145   */\n      dup2\n        /* \"#utility.yul\":15141:15155   */\n      lt\n        /* \"#utility.yul\":15133:15341   */\n      iszero\n      tag_297\n      jumpi\n        /* \"#utility.yul\":15226:15235   */\n      dup5\n        /* \"#utility.yul\":15221:15224   */\n      dup10\n        /* \"#utility.yul\":15217:15236   */\n      add\n        /* \"#utility.yul\":15211:15237   */\n      mload\n        /* \"#utility.yul\":15203:15209   */\n      dup3\n        /* \"#utility.yul\":15196:15238   */\n      sstore\n        /* \"#utility.yul\":15277:15278   */\n      0x01\n        /* \"#utility.yul\":15269:15275   */\n      dup3\n        /* \"#utility.yul\":15265:15279   */\n      add\n        /* \"#utility.yul\":15255:15279   */\n      swap2\n      pop\n        /* \"#utility.yul\":15324:15326   */\n      0x20\n        /* \"#utility.yul\":15313:15322   */\n      dup6\n        /* \"#utility.yul\":15309:15327   */\n      add\n        /* \"#utility.yul\":15296:15327   */\n      swap5\n      pop\n        /* \"#utility.yul\":15170:15174   */\n      0x20\n        /* \"#utility.yul\":15167:15168   */\n      dup2\n        /* \"#utility.yul\":15163:15175   */\n      add\n        /* \"#utility.yul\":15158:15175   */\n      swap1\n      pop\n        /* \"#utility.yul\":15133:15341   */\n      jump(tag_295)\n    tag_297:\n        /* \"#utility.yul\":15369:15375   */\n      dup7\n        /* \"#utility.yul\":15360:15367   */\n      dup4\n        /* \"#utility.yul\":15357:15376   */\n      lt\n        /* \"#utility.yul\":15354:15533   */\n      iszero\n      tag_298\n      jumpi\n        /* \"#utility.yul\":15427:15436   */\n      dup5\n        /* \"#utility.yul\":15422:15425   */\n      dup10\n        /* \"#utility.yul\":15418:15437   */\n      add\n        /* \"#utility.yul\":15412:15438   */\n      mload\n        /* \"#utility.yul\":15470:15518   */\n      tag_299\n        /* \"#utility.yul\":15512:15516   */\n      0x1f\n        /* \"#utility.yul\":15504:15510   */\n      dup10\n        /* \"#utility.yul\":15500:15517   */\n      and\n        /* \"#utility.yul\":15489:15498   */\n      dup3\n        /* \"#utility.yul\":15470:15518   */\n      tag_123\n      jump\t// in\n    tag_299:\n        /* \"#utility.yul\":15462:15468   */\n      dup4\n        /* \"#utility.yul\":15455:15519   */\n      sstore\n        /* \"#utility.yul\":15377:15533   */\n      pop\n        /* \"#utility.yul\":15354:15533   */\n    tag_298:\n        /* \"#utility.yul\":15579:15580   */\n      0x01\n        /* \"#utility.yul\":15575:15576   */\n      0x02\n        /* \"#utility.yul\":15567:15573   */\n      dup9\n        /* \"#utility.yul\":15563:15577   */\n      mul\n        /* \"#utility.yul\":15559:15581   */\n      add\n        /* \"#utility.yul\":15553:15557   */\n      dup9\n        /* \"#utility.yul\":15546:15582   */\n      sstore\n        /* \"#utility.yul\":14981:15592   */\n      pop\n      pop\n      pop\n        /* \"#utility.yul\":14944:15831   */\n    tag_290:\n      pop\n        /* \"#utility.yul\":14534:15837   */\n      pop\n      pop\n      pop\n        /* \"#utility.yul\":14442:15837   */\n      pop\n      pop\n      jump\t// out\n\n    auxdata: 0xa2646970667358221220ba77216f5fef2ad48f4320df31f2e620afe371f06089ad368a242514bc67762c64736f6c634300080f0033\n}\n",
				"bytecode": {
					"linkReferences": {},
					"object": "608060405234801561001057600080fd5b50336000806101000a81548173ffffffffffffffffffffffffffffffffffffffff021916908373ffffffffffffffffffffffffffffffffffffffff16021790555033600360006101000a81548173ffffffffffffffffffffffffffffffffffffffff021916908373ffffffffffffffffffffffffffffffffffffffff160217905550610ee1806100a16000396000f3fe6080604052600436106100705760003560e01c80638f32d59b1161004e5780638f32d59b146100e3578063b2bdfa7b1461010e578063e935155814610139578063fe49048a1461016257610070565b806313af4035146100755780633f59c6571461009e578063704b6c02146100ba575b600080fd5b34801561008157600080fd5b5061009c60048036038101906100979190610692565b61018b565b005b6100b860048036038101906100b3919061083b565b610215565b005b3480156100c657600080fd5b506100e160048036038101906100dc9190610692565b6102ce565b005b3480156100ef57600080fd5b506100f8610359565b6040516101059190610925565b60405180910390f35b34801561011a57600080fd5b506101236103b0565b604051610130919061094f565b60405180910390f35b34801561014557600080fd5b50610160600480360381019061015b919061096a565b6103d4565b005b34801561016e57600080fd5b50610189600480360381019061018491906109b3565b6104d3565b005b610193610359565b6101d2576040517f08c379a00000000000000000000000000000000000000000000000000000000081526004016101c990610a6c565b60405180910390fd5b806000806101000a81548173ffffffffffffffffffffffffffffffffffffffff021916908373ffffffffffffffffffffffffffffffffffffffff16021790555050565b600115156001826040516102299190610b06565b908152602001604051809103902060009054906101000a900460ff1615151461025157600080fd5b7f2ee35da94d6494eb515fd8f6fffdecd1d417dbae7e370cb1f77d709473e01d598585858585604051610288959493929190610b65565b60405180910390a160006001826040516102a29190610b06565b908152602001604051809103902060006101000a81548160ff0219169083151502179055505050505050565b6102d6610359565b610315576040517f08c379a000000000000000000000000000000000000000000000000000000000815260040161030c90610a6c565b60405180910390fd5b80600360006101000a81548173ffffffffffffffffffffffffffffffffffffffff021916908373ffffffffffffffffffffffffffffffffffffffff16021790555050565b60008060009054906101000a900473ffffffffffffffffffffffffffffffffffffffff1673ffffffffffffffffffffffffffffffffffffffff163373ffffffffffffffffffffffffffffffffffffffff1614905090565b60008054906101000a900473ffffffffffffffffffffffffffffffffffffffff1681565b600360009054906101000a900473ffffffffffffffffffffffffffffffffffffffff1673ffffffffffffffffffffffffffffffffffffffff163373ffffffffffffffffffffffffffffffffffffffff161461042e57600080fd5b6001808260405161043f9190610b06565b908152602001604051809103902060006101000a81548160ff0219169083151502179055506001816040516104749190610b06565b908152602001604051809103902060009054906101000a900460ff1661049957600080fd5b60016002826040516104ab9190610b06565b908152602001604051809103902060006101000a81548160ff02191690831515021790555050565b600360009054906101000a900473ffffffffffffffffffffffffffffffffffffffff1673ffffffffffffffffffffffffffffffffffffffff163373ffffffffffffffffffffffffffffffffffffffff161461052d57600080fd5b6001808360405161053e9190610b06565b908152602001604051809103902060006101000a81548160ff0219169083151502179055506001826040516105739190610b06565b908152602001604051809103902060009054906101000a900460ff1661059857600080fd5b60016002836040516105aa9190610b06565b908152602001604051809103902060006101000a81548160ff02191690831515021790555081600460008373ffffffffffffffffffffffffffffffffffffffff1673ffffffffffffffffffffffffffffffffffffffff168152602001908152602001600020908161061b9190610dd9565b505050565b6000604051905090565b600080fd5b600080fd5b600073ffffffffffffffffffffffffffffffffffffffff82169050919050565b600061065f82610634565b9050919050565b61066f81610654565b811461067a57600080fd5b50565b60008135905061068c81610666565b92915050565b6000602082840312156106a8576106a761062a565b5b60006106b68482850161067d565b91505092915050565b600080fd5b600080fd5b6000601f19601f8301169050919050565b7f4e487b7100000000000000000000000000000000000000000000000000000000600052604160045260246000fd5b610712826106c9565b810181811067ffffffffffffffff82111715610731576107306106da565b5b80604052505050565b6000610744610620565b90506107508282610709565b919050565b600067ffffffffffffffff8211156107705761076f6106da565b5b610779826106c9565b9050602081019050919050565b82818337600083830152505050565b60006107a86107a384610755565b61073a565b9050828152602081018484840111156107c4576107c36106c4565b5b6107cf848285610786565b509392505050565b600082601f8301126107ec576107eb6106bf565b5b81356107fc848260208601610795565b91505092915050565b6000819050919050565b61081881610805565b811461082357600080fd5b50565b6000813590506108358161080f565b92915050565b600080600080600060a086880312156108575761085661062a565b5b600086013567ffffffffffffffff8111156108755761087461062f565b5b610881888289016107d7565b955050602086013567ffffffffffffffff8111156108a2576108a161062f565b5b6108ae888289016107d7565b94505060406108bf88828901610826565b93505060606108d088828901610826565b925050608086013567ffffffffffffffff8111156108f1576108f061062f565b5b6108fd888289016107d7565b9150509295509295909350565b60008115159050919050565b61091f8161090a565b82525050565b600060208201905061093a6000830184610916565b92915050565b61094981610654565b82525050565b60006020820190506109646000830184610940565b92915050565b6000602082840312156109805761097f61062a565b5b600082013567ffffffffffffffff81111561099e5761099d61062f565b5b6109aa848285016107d7565b91505092915050565b600080604083850312156109ca576109c961062a565b5b600083013567ffffffffffffffff8111156109e8576109e761062f565b5b6109f4858286016107d7565b9250506020610a058582860161067d565b9150509250929050565b600082825260208201905092915050565b7f4f776e61626c653a2063616c6c6572206973206e6f7420746865206f776e6572600082015250565b6000610a56602083610a0f565b9150610a6182610a20565b602082019050919050565b60006020820190508181036000830152610a8581610a49565b9050919050565b600081519050919050565b600081905092915050565b60005b83811015610ac0578082015181840152602081019050610aa5565b83811115610acf576000848401525b50505050565b6000610ae082610a8c565b610aea8185610a97565b9350610afa818560208601610aa2565b80840191505092915050565b6000610b128284610ad5565b915081905092915050565b6000610b2882610a8c565b610b328185610a0f565b9350610b42818560208601610aa2565b610b4b816106c9565b840191505092915050565b610b5f81610805565b82525050565b600060a0820190508181036000830152610b7f8188610b1d565b90508181036020830152610b938187610b1d565b9050610ba26040830186610b56565b610baf6060830185610b56565b8181036080830152610bc18184610b1d565b90509695505050505050565b7f4e487b7100000000000000000000000000000000000000000000000000000000600052602260045260246000fd5b60006002820490506001821680610c1457607f821691505b602082108103610c2757610c26610bcd565b5b50919050565b60008190508160005260206000209050919050565b60006020601f8301049050919050565b600082821b905092915050565b600060088302610c8f7fffffffffffffffffffffffffffffffffffffffffffffffffffffffffffffffff82610c52565b610c998683610c52565b95508019841693508086168417925050509392505050565b6000819050919050565b6000610cd6610cd1610ccc84610805565b610cb1565b610805565b9050919050565b6000819050919050565b610cf083610cbb565b610d04610cfc82610cdd565b848454610c5f565b825550505050565b600090565b610d19610d0c565b610d24818484610ce7565b505050565b5b81811015610d4857610d3d600082610d11565b600181019050610d2a565b5050565b601f821115610d8d57610d5e81610c2d565b610d6784610c42565b81016020851015610d76578190505b610d8a610d8285610c42565b830182610d29565b50505b505050565b600082821c905092915050565b6000610db060001984600802610d92565b1980831691505092915050565b6000610dc98383610d9f565b9150826002028217905092915050565b610de282610a8c565b67ffffffffffffffff811115610dfb57610dfa6106da565b5b610e058254610bfc565b610e10828285610d4c565b600060209050601f831160018114610e435760008415610e31578287015190505b610e3b8582610dbd565b865550610ea3565b601f198416610e5186610c2d565b60005b82811015610e7957848901518255600182019150602085019450602081019050610e54565b86831015610e965784890151610e92601f891682610d9f565b8355505b6001600288020188555050505b50505050505056fea2646970667358221220ba77216f5fef2ad48f4320df31f2e620afe371f06089ad368a242514bc67762c64736f6c634300080f0033",
					"opcodes": "PUSH1 0x80 PUSH1 0x40 MSTORE CALLVALUE DUP1 ISZERO PUSH2 0x10 JUMPI PUSH1 0x0 DUP1 REVERT JUMPDEST POP CALLER PUSH1 0x0 DUP1 PUSH2 0x100 EXP DUP2 SLOAD DUP2 PUSH20 0xFFFFFFFFFFFFFFFFFFFFFFFFFFFFFFFFFFFFFFFF MUL NOT AND SWAP1 DUP4 PUSH20 0xFFFFFFFFFFFFFFFFFFFFFFFFFFFFFFFFFFFFFFFF AND MUL OR SWAP1 SSTORE POP CALLER PUSH1 0x3 PUSH1 0x0 PUSH2 0x100 EXP DUP2 SLOAD DUP2 PUSH20 0xFFFFFFFFFFFFFFFFFFFFFFFFFFFFFFFFFFFFFFFF MUL NOT AND SWAP1 DUP4 PUSH20 0xFFFFFFFFFFFFFFFFFFFFFFFFFFFFFFFFFFFFFFFF AND MUL OR SWAP1 SSTORE POP PUSH2 0xEE1 DUP1 PUSH2 0xA1 PUSH1 0x0 CODECOPY PUSH1 0x0 RETURN INVALID PUSH1 0x80 PUSH1 0x40 MSTORE PUSH1 0x4 CALLDATASIZE LT PUSH2 0x70 JUMPI PUSH1 0x0 CALLDATALOAD PUSH1 0xE0 SHR DUP1 PUSH4 0x8F32D59B GT PUSH2 0x4E JUMPI DUP1 PUSH4 0x8F32D59B EQ PUSH2 0xE3 JUMPI DUP1 PUSH4 0xB2BDFA7B EQ PUSH2 0x10E JUMPI DUP1 PUSH4 0xE9351558 EQ PUSH2 0x139 JUMPI DUP1 PUSH4 0xFE49048A EQ PUSH2 0x162 JUMPI PUSH2 0x70 JUMP JUMPDEST DUP1 PUSH4 0x13AF4035 EQ PUSH2 0x75 JUMPI DUP1 PUSH4 0x3F59C657 EQ PUSH2 0x9E JUMPI DUP1 PUSH4 0x704B6C02 EQ PUSH2 0xBA JUMPI JUMPDEST PUSH1 0x0 DUP1 REVERT JUMPDEST CALLVALUE DUP1 ISZERO PUSH2 0x81 JUMPI PUSH1 0x0 DUP1 REVERT JUMPDEST POP PUSH2 0x9C PUSH1 0x4 DUP1 CALLDATASIZE SUB DUP2 ADD SWAP1 PUSH2 0x97 SWAP2 SWAP1 PUSH2 0x692 JUMP JUMPDEST PUSH2 0x18B JUMP JUMPDEST STOP JUMPDEST PUSH2 0xB8 PUSH1 0x4 DUP1 CALLDATASIZE SUB DUP2 ADD SWAP1 PUSH2 0xB3 SWAP2 SWAP1 PUSH2 0x83B JUMP JUMPDEST PUSH2 0x215 JUMP JUMPDEST STOP JUMPDEST CALLVALUE DUP1 ISZERO PUSH2 0xC6 JUMPI PUSH1 0x0 DUP1 REVERT JUMPDEST POP PUSH2 0xE1 PUSH1 0x4 DUP1 CALLDATASIZE SUB DUP2 ADD SWAP1 PUSH2 0xDC SWAP2 SWAP1 PUSH2 0x692 JUMP JUMPDEST PUSH2 0x2CE JUMP JUMPDEST STOP JUMPDEST CALLVALUE DUP1 ISZERO PUSH2 0xEF JUMPI PUSH1 0x0 DUP1 REVERT JUMPDEST POP PUSH2 0xF8 PUSH2 0x359 JUMP JUMPDEST PUSH1 0x40 MLOAD PUSH2 0x105 SWAP2 SWAP1 PUSH2 0x925 JUMP JUMPDEST PUSH1 0x40 MLOAD DUP1 SWAP2 SUB SWAP1 RETURN JUMPDEST CALLVALUE DUP1 ISZERO PUSH2 0x11A JUMPI PUSH1 0x0 DUP1 REVERT JUMPDEST POP PUSH2 0x123 PUSH2 0x3B0 JUMP JUMPDEST PUSH1 0x40 MLOAD PUSH2 0x130 SWAP2 SWAP1 PUSH2 0x94F JUMP JUMPDEST PUSH1 0x40 MLOAD DUP1 SWAP2 SUB SWAP1 RETURN JUMPDEST CALLVALUE DUP1 ISZERO PUSH2 0x145 JUMPI PUSH1 0x0 DUP1 REVERT JUMPDEST POP PUSH2 0x160 PUSH1 0x4 DUP1 CALLDATASIZE SUB DUP2 ADD SWAP1 PUSH2 0x15B SWAP2 SWAP1 PUSH2 0x96A JUMP JUMPDEST PUSH2 0x3D4 JUMP JUMPDEST STOP JUMPDEST CALLVALUE DUP1 ISZERO PUSH2 0x16E JUMPI PUSH1 0x0 DUP1 REVERT JUMPDEST POP PUSH2 0x189 PUSH1 0x4 DUP1 CALLDATASIZE SUB DUP2 ADD SWAP1 PUSH2 0x184 SWAP2 SWAP1 PUSH2 0x9B3 JUMP JUMPDEST PUSH2 0x4D3 JUMP JUMPDEST STOP JUMPDEST PUSH2 0x193 PUSH2 0x359 JUMP JUMPDEST PUSH2 0x1D2 JUMPI PUSH1 0x40 MLOAD PUSH32 0x8C379A000000000000000000000000000000000000000000000000000000000 DUP2 MSTORE PUSH1 0x4 ADD PUSH2 0x1C9 SWAP1 PUSH2 0xA6C JUMP JUMPDEST PUSH1 0x40 MLOAD DUP1 SWAP2 SUB SWAP1 REVERT JUMPDEST DUP1 PUSH1 0x0 DUP1 PUSH2 0x100 EXP DUP2 SLOAD DUP2 PUSH20 0xFFFFFFFFFFFFFFFFFFFFFFFFFFFFFFFFFFFFFFFF MUL NOT AND SWAP1 DUP4 PUSH20 0xFFFFFFFFFFFFFFFFFFFFFFFFFFFFFFFFFFFFFFFF AND MUL OR SWAP1 SSTORE POP POP JUMP JUMPDEST PUSH1 0x1 ISZERO ISZERO PUSH1 0x1 DUP3 PUSH1 0x40 MLOAD PUSH2 0x229 SWAP2 SWAP1 PUSH2 0xB06 JUMP JUMPDEST SWAP1 DUP2 MSTORE PUSH1 0x20 ADD PUSH1 0x40 MLOAD DUP1 SWAP2 SUB SWAP1 KECCAK256 PUSH1 0x0 SWAP1 SLOAD SWAP1 PUSH2 0x100 EXP SWAP1 DIV PUSH1 0xFF AND ISZERO ISZERO EQ PUSH2 0x251 JUMPI PUSH1 0x0 DUP1 REVERT JUMPDEST PUSH32 0x2EE35DA94D6494EB515FD8F6FFFDECD1D417DBAE7E370CB1F77D709473E01D59 DUP6 DUP6 DUP6 DUP6 DUP6 PUSH1 0x40 MLOAD PUSH2 0x288 SWAP6 SWAP5 SWAP4 SWAP3 SWAP2 SWAP1 PUSH2 0xB65 JUMP JUMPDEST PUSH1 0x40 MLOAD DUP1 SWAP2 SUB SWAP1 LOG1 PUSH1 0x0 PUSH1 0x1 DUP3 PUSH1 0x40 MLOAD PUSH2 0x2A2 SWAP2 SWAP1 PUSH2 0xB06 JUMP JUMPDEST SWAP1 DUP2 MSTORE PUSH1 0x20 ADD PUSH1 0x40 MLOAD DUP1 SWAP2 SUB SWAP1 KECCAK256 PUSH1 0x0 PUSH2 0x100 EXP DUP2 SLOAD DUP2 PUSH1 0xFF MUL NOT AND SWAP1 DUP4 ISZERO ISZERO MUL OR SWAP1 SSTORE POP POP POP POP POP POP JUMP JUMPDEST PUSH2 0x2D6 PUSH2 0x359 JUMP JUMPDEST PUSH2 0x315 JUMPI PUSH1 0x40 MLOAD PUSH32 0x8C379A000000000000000000000000000000000000000000000000000000000 DUP2 MSTORE PUSH1 0x4 ADD PUSH2 0x30C SWAP1 PUSH2 0xA6C JUMP JUMPDEST PUSH1 0x40 MLOAD DUP1 SWAP2 SUB SWAP1 REVERT JUMPDEST DUP1 PUSH1 0x3 PUSH1 0x0 PUSH2 0x100 EXP DUP2 SLOAD DUP2 PUSH20 0xFFFFFFFFFFFFFFFFFFFFFFFFFFFFFFFFFFFFFFFF MUL NOT AND SWAP1 DUP4 PUSH20 0xFFFFFFFFFFFFFFFFFFFFFFFFFFFFFFFFFFFFFFFF AND MUL OR SWAP1 SSTORE POP POP JUMP JUMPDEST PUSH1 0x0 DUP1 PUSH1 0x0 SWAP1 SLOAD SWAP1 PUSH2 0x100 EXP SWAP1 DIV PUSH20 0xFFFFFFFFFFFFFFFFFFFFFFFFFFFFFFFFFFFFFFFF AND PUSH20 0xFFFFFFFFFFFFFFFFFFFFFFFFFFFFFFFFFFFFFFFF AND CALLER PUSH20 0xFFFFFFFFFFFFFFFFFFFFFFFFFFFFFFFFFFFFFFFF AND EQ SWAP1 POP SWAP1 JUMP JUMPDEST PUSH1 0x0 DUP1 SLOAD SWAP1 PUSH2 0x100 EXP SWAP1 DIV PUSH20 0xFFFFFFFFFFFFFFFFFFFFFFFFFFFFFFFFFFFFFFFF AND DUP2 JUMP JUMPDEST PUSH1 0x3 PUSH1 0x0 SWAP1 SLOAD SWAP1 PUSH2 0x100 EXP SWAP1 DIV PUSH20 0xFFFFFFFFFFFFFFFFFFFFFFFFFFFFFFFFFFFFFFFF AND PUSH20 0xFFFFFFFFFFFFFFFFFFFFFFFFFFFFFFFFFFFFFFFF AND CALLER PUSH20 0xFFFFFFFFFFFFFFFFFFFFFFFFFFFFFFFFFFFFFFFF AND EQ PUSH2 0x42E JUMPI PUSH1 0x0 DUP1 REVERT JUMPDEST PUSH1 0x1 DUP1 DUP3 PUSH1 0x40 MLOAD PUSH2 0x43F SWAP2 SWAP1 PUSH2 0xB06 JUMP JUMPDEST SWAP1 DUP2 MSTORE PUSH1 0x20 ADD PUSH1 0x40 MLOAD DUP1 SWAP2 SUB SWAP1 KECCAK256 PUSH1 0x0 PUSH2 0x100 EXP DUP2 SLOAD DUP2 PUSH1 0xFF MUL NOT AND SWAP1 DUP4 ISZERO ISZERO MUL OR SWAP1 SSTORE POP PUSH1 0x1 DUP2 PUSH1 0x40 MLOAD PUSH2 0x474 SWAP2 SWAP1 PUSH2 0xB06 JUMP JUMPDEST SWAP1 DUP2 MSTORE PUSH1 0x20 ADD PUSH1 0x40 MLOAD DUP1 SWAP2 SUB SWAP1 KECCAK256 PUSH1 0x0 SWAP1 SLOAD SWAP1 PUSH2 0x100 EXP SWAP1 DIV PUSH1 0xFF AND PUSH2 0x499 JUMPI PUSH1 0x0 DUP1 REVERT JUMPDEST PUSH1 0x1 PUSH1 0x2 DUP3 PUSH1 0x40 MLOAD PUSH2 0x4AB SWAP2 SWAP1 PUSH2 0xB06 JUMP JUMPDEST SWAP1 DUP2 MSTORE PUSH1 0x20 ADD PUSH1 0x40 MLOAD DUP1 SWAP2 SUB SWAP1 KECCAK256 PUSH1 0x0 PUSH2 0x100 EXP DUP2 SLOAD DUP2 PUSH1 0xFF MUL NOT AND SWAP1 DUP4 ISZERO ISZERO MUL OR SWAP1 SSTORE POP POP JUMP JUMPDEST PUSH1 0x3 PUSH1 0x0 SWAP1 SLOAD SWAP1 PUSH2 0x100 EXP SWAP1 DIV PUSH20 0xFFFFFFFFFFFFFFFFFFFFFFFFFFFFFFFFFFFFFFFF AND PUSH20 0xFFFFFFFFFFFFFFFFFFFFFFFFFFFFFFFFFFFFFFFF AND CALLER PUSH20 0xFFFFFFFFFFFFFFFFFFFFFFFFFFFFFFFFFFFFFFFF AND EQ PUSH2 0x52D JUMPI PUSH1 0x0 DUP1 REVERT JUMPDEST PUSH1 0x1 DUP1 DUP4 PUSH1 0x40 MLOAD PUSH2 0x53E SWAP2 SWAP1 PUSH2 0xB06 JUMP JUMPDEST SWAP1 DUP2 MSTORE PUSH1 0x20 ADD PUSH1 0x40 MLOAD DUP1 SWAP2 SUB SWAP1 KECCAK256 PUSH1 0x0 PUSH2 0x100 EXP DUP2 SLOAD DUP2 PUSH1 0xFF MUL NOT AND SWAP1 DUP4 ISZERO ISZERO MUL OR SWAP1 SSTORE POP PUSH1 0x1 DUP3 PUSH1 0x40 MLOAD PUSH2 0x573 SWAP2 SWAP1 PUSH2 0xB06 JUMP JUMPDEST SWAP1 DUP2 MSTORE PUSH1 0x20 ADD PUSH1 0x40 MLOAD DUP1 SWAP2 SUB SWAP1 KECCAK256 PUSH1 0x0 SWAP1 SLOAD SWAP1 PUSH2 0x100 EXP SWAP1 DIV PUSH1 0xFF AND PUSH2 0x598 JUMPI PUSH1 0x0 DUP1 REVERT JUMPDEST PUSH1 0x1 PUSH1 0x2 DUP4 PUSH1 0x40 MLOAD PUSH2 0x5AA SWAP2 SWAP1 PUSH2 0xB06 JUMP JUMPDEST SWAP1 DUP2 MSTORE PUSH1 0x20 ADD PUSH1 0x40 MLOAD DUP1 SWAP2 SUB SWAP1 KECCAK256 PUSH1 0x0 PUSH2 0x100 EXP DUP2 SLOAD DUP2 PUSH1 0xFF MUL NOT AND SWAP1 DUP4 ISZERO ISZERO MUL OR SWAP1 SSTORE POP DUP2 PUSH1 0x4 PUSH1 0x0 DUP4 PUSH20 0xFFFFFFFFFFFFFFFFFFFFFFFFFFFFFFFFFFFFFFFF AND PUSH20 0xFFFFFFFFFFFFFFFFFFFFFFFFFFFFFFFFFFFFFFFF AND DUP2 MSTORE PUSH1 0x20 ADD SWAP1 DUP2 MSTORE PUSH1 0x20 ADD PUSH1 0x0 KECCAK256 SWAP1 DUP2 PUSH2 0x61B SWAP2 SWAP1 PUSH2 0xDD9 JUMP JUMPDEST POP POP POP JUMP JUMPDEST PUSH1 0x0 PUSH1 0x40 MLOAD SWAP1 POP SWAP1 JUMP JUMPDEST PUSH1 0x0 DUP1 REVERT JUMPDEST PUSH1 0x0 DUP1 REVERT JUMPDEST PUSH1 0x0 PUSH20 0xFFFFFFFFFFFFFFFFFFFFFFFFFFFFFFFFFFFFFFFF DUP3 AND SWAP1 POP SWAP2 SWAP1 POP JUMP JUMPDEST PUSH1 0x0 PUSH2 0x65F DUP3 PUSH2 0x634 JUMP JUMPDEST SWAP1 POP SWAP2 SWAP1 POP JUMP JUMPDEST PUSH2 0x66F DUP2 PUSH2 0x654 JUMP JUMPDEST DUP2 EQ PUSH2 0x67A JUMPI PUSH1 0x0 DUP1 REVERT JUMPDEST POP JUMP JUMPDEST PUSH1 0x0 DUP2 CALLDATALOAD SWAP1 POP PUSH2 0x68C DUP2 PUSH2 0x666 JUMP JUMPDEST SWAP3 SWAP2 POP POP JUMP JUMPDEST PUSH1 0x0 PUSH1 0x20 DUP3 DUP5 SUB SLT ISZERO PUSH2 0x6A8 JUMPI PUSH2 0x6A7 PUSH2 0x62A JUMP JUMPDEST JUMPDEST PUSH1 0x0 PUSH2 0x6B6 DUP5 DUP3 DUP6 ADD PUSH2 0x67D JUMP JUMPDEST SWAP2 POP POP SWAP3 SWAP2 POP POP JUMP JUMPDEST PUSH1 0x0 DUP1 REVERT JUMPDEST PUSH1 0x0 DUP1 REVERT JUMPDEST PUSH1 0x0 PUSH1 0x1F NOT PUSH1 0x1F DUP4 ADD AND SWAP1 POP SWAP2 SWAP1 POP JUMP JUMPDEST PUSH32 0x4E487B7100000000000000000000000000000000000000000000000000000000 PUSH1 0x0 MSTORE PUSH1 0x41 PUSH1 0x4 MSTORE PUSH1 0x24 PUSH1 0x0 REVERT JUMPDEST PUSH2 0x712 DUP3 PUSH2 0x6C9 JUMP JUMPDEST DUP2 ADD DUP2 DUP2 LT PUSH8 0xFFFFFFFFFFFFFFFF DUP3 GT OR ISZERO PUSH2 0x731 JUMPI PUSH2 0x730 PUSH2 0x6DA JUMP JUMPDEST JUMPDEST DUP1 PUSH1 0x40 MSTORE POP POP POP JUMP JUMPDEST PUSH1 0x0 PUSH2 0x744 PUSH2 0x620 JUMP JUMPDEST SWAP1 POP PUSH2 0x750 DUP3 DUP3 PUSH2 0x709 JUMP JUMPDEST SWAP2 SWAP1 POP JUMP JUMPDEST PUSH1 0x0 PUSH8 0xFFFFFFFFFFFFFFFF DUP3 GT ISZERO PUSH2 0x770 JUMPI PUSH2 0x76F PUSH2 0x6DA JUMP JUMPDEST JUMPDEST PUSH2 0x779 DUP3 PUSH2 0x6C9 JUMP JUMPDEST SWAP1 POP PUSH1 0x20 DUP2 ADD SWAP1 POP SWAP2 SWAP1 POP JUMP JUMPDEST DUP3 DUP2 DUP4 CALLDATACOPY PUSH1 0x0 DUP4 DUP4 ADD MSTORE POP POP POP JUMP JUMPDEST PUSH1 0x0 PUSH2 0x7A8 PUSH2 0x7A3 DUP5 PUSH2 0x755 JUMP JUMPDEST PUSH2 0x73A JUMP JUMPDEST SWAP1 POP DUP3 DUP2 MSTORE PUSH1 0x20 DUP2 ADD DUP5 DUP5 DUP5 ADD GT ISZERO PUSH2 0x7C4 JUMPI PUSH2 0x7C3 PUSH2 0x6C4 JUMP JUMPDEST JUMPDEST PUSH2 0x7CF DUP5 DUP3 DUP6 PUSH2 0x786 JUMP JUMPDEST POP SWAP4 SWAP3 POP POP POP JUMP JUMPDEST PUSH1 0x0 DUP3 PUSH1 0x1F DUP4 ADD SLT PUSH2 0x7EC JUMPI PUSH2 0x7EB PUSH2 0x6BF JUMP JUMPDEST JUMPDEST DUP2 CALLDATALOAD PUSH2 0x7FC DUP5 DUP3 PUSH1 0x20 DUP7 ADD PUSH2 0x795 JUMP JUMPDEST SWAP2 POP POP SWAP3 SWAP2 POP POP JUMP JUMPDEST PUSH1 0x0 DUP2 SWAP1 POP SWAP2 SWAP1 POP JUMP JUMPDEST PUSH2 0x818 DUP2 PUSH2 0x805 JUMP JUMPDEST DUP2 EQ PUSH2 0x823 JUMPI PUSH1 0x0 DUP1 REVERT JUMPDEST POP JUMP JUMPDEST PUSH1 0x0 DUP2 CALLDATALOAD SWAP1 POP PUSH2 0x835 DUP2 PUSH2 0x80F JUMP JUMPDEST SWAP3 SWAP2 POP POP JUMP JUMPDEST PUSH1 0x0 DUP1 PUSH1 0x0 DUP1 PUSH1 0x0 PUSH1 0xA0 DUP7 DUP9 SUB SLT ISZERO PUSH2 0x857 JUMPI PUSH2 0x856 PUSH2 0x62A JUMP JUMPDEST JUMPDEST PUSH1 0x0 DUP7 ADD CALLDATALOAD PUSH8 0xFFFFFFFFFFFFFFFF DUP2 GT ISZERO PUSH2 0x875 JUMPI PUSH2 0x874 PUSH2 0x62F JUMP JUMPDEST JUMPDEST PUSH2 0x881 DUP9 DUP3 DUP10 ADD PUSH2 0x7D7 JUMP JUMPDEST SWAP6 POP POP PUSH1 0x20 DUP7 ADD CALLDATALOAD PUSH8 0xFFFFFFFFFFFFFFFF DUP2 GT ISZERO PUSH2 0x8A2 JUMPI PUSH2 0x8A1 PUSH2 0x62F JUMP JUMPDEST JUMPDEST PUSH2 0x8AE DUP9 DUP3 DUP10 ADD PUSH2 0x7D7 JUMP JUMPDEST SWAP5 POP POP PUSH1 0x40 PUSH2 0x8BF DUP9 DUP3 DUP10 ADD PUSH2 0x826 JUMP JUMPDEST SWAP4 POP POP PUSH1 0x60 PUSH2 0x8D0 DUP9 DUP3 DUP10 ADD PUSH2 0x826 JUMP JUMPDEST SWAP3 POP POP PUSH1 0x80 DUP7 ADD CALLDATALOAD PUSH8 0xFFFFFFFFFFFFFFFF DUP2 GT ISZERO PUSH2 0x8F1 JUMPI PUSH2 0x8F0 PUSH2 0x62F JUMP JUMPDEST JUMPDEST PUSH2 0x8FD DUP9 DUP3 DUP10 ADD PUSH2 0x7D7 JUMP JUMPDEST SWAP2 POP POP SWAP3 SWAP6 POP SWAP3 SWAP6 SWAP1 SWAP4 POP JUMP JUMPDEST PUSH1 0x0 DUP2 ISZERO ISZERO SWAP1 POP SWAP2 SWAP1 POP JUMP JUMPDEST PUSH2 0x91F DUP2 PUSH2 0x90A JUMP JUMPDEST DUP3 MSTORE POP POP JUMP JUMPDEST PUSH1 0x0 PUSH1 0x20 DUP3 ADD SWAP1 POP PUSH2 0x93A PUSH1 0x0 DUP4 ADD DUP5 PUSH2 0x916 JUMP JUMPDEST SWAP3 SWAP2 POP POP JUMP JUMPDEST PUSH2 0x949 DUP2 PUSH2 0x654 JUMP JUMPDEST DUP3 MSTORE POP POP JUMP JUMPDEST PUSH1 0x0 PUSH1 0x20 DUP3 ADD SWAP1 POP PUSH2 0x964 PUSH1 0x0 DUP4 ADD DUP5 PUSH2 0x940 JUMP JUMPDEST SWAP3 SWAP2 POP POP JUMP JUMPDEST PUSH1 0x0 PUSH1 0x20 DUP3 DUP5 SUB SLT ISZERO PUSH2 0x980 JUMPI PUSH2 0x97F PUSH2 0x62A JUMP JUMPDEST JUMPDEST PUSH1 0x0 DUP3 ADD CALLDATALOAD PUSH8 0xFFFFFFFFFFFFFFFF DUP2 GT ISZERO PUSH2 0x99E JUMPI PUSH2 0x99D PUSH2 0x62F JUMP JUMPDEST JUMPDEST PUSH2 0x9AA DUP5 DUP3 DUP6 ADD PUSH2 0x7D7 JUMP JUMPDEST SWAP2 POP POP SWAP3 SWAP2 POP POP JUMP JUMPDEST PUSH1 0x0 DUP1 PUSH1 0x40 DUP4 DUP6 SUB SLT ISZERO PUSH2 0x9CA JUMPI PUSH2 0x9C9 PUSH2 0x62A JUMP JUMPDEST JUMPDEST PUSH1 0x0 DUP4 ADD CALLDATALOAD PUSH8 0xFFFFFFFFFFFFFFFF DUP2 GT ISZERO PUSH2 0x9E8 JUMPI PUSH2 0x9E7 PUSH2 0x62F JUMP JUMPDEST JUMPDEST PUSH2 0x9F4 DUP6 DUP3 DUP7 ADD PUSH2 0x7D7 JUMP JUMPDEST SWAP3 POP POP PUSH1 0x20 PUSH2 0xA05 DUP6 DUP3 DUP7 ADD PUSH2 0x67D JUMP JUMPDEST SWAP2 POP POP SWAP3 POP SWAP3 SWAP1 POP JUMP JUMPDEST PUSH1 0x0 DUP3 DUP3 MSTORE PUSH1 0x20 DUP3 ADD SWAP1 POP SWAP3 SWAP2 POP POP JUMP JUMPDEST PUSH32 0x4F776E61626C653A2063616C6C6572206973206E6F7420746865206F776E6572 PUSH1 0x0 DUP3 ADD MSTORE POP JUMP JUMPDEST PUSH1 0x0 PUSH2 0xA56 PUSH1 0x20 DUP4 PUSH2 0xA0F JUMP JUMPDEST SWAP2 POP PUSH2 0xA61 DUP3 PUSH2 0xA20 JUMP JUMPDEST PUSH1 0x20 DUP3 ADD SWAP1 POP SWAP2 SWAP1 POP JUMP JUMPDEST PUSH1 0x0 PUSH1 0x20 DUP3 ADD SWAP1 POP DUP2 DUP2 SUB PUSH1 0x0 DUP4 ADD MSTORE PUSH2 0xA85 DUP2 PUSH2 0xA49 JUMP JUMPDEST SWAP1 POP SWAP2 SWAP1 POP JUMP JUMPDEST PUSH1 0x0 DUP2 MLOAD SWAP1 POP SWAP2 SWAP1 POP JUMP JUMPDEST PUSH1 0x0 DUP2 SWAP1 POP SWAP3 SWAP2 POP POP JUMP JUMPDEST PUSH1 0x0 JUMPDEST DUP4 DUP2 LT ISZERO PUSH2 0xAC0 JUMPI DUP1 DUP3 ADD MLOAD DUP2 DUP5 ADD MSTORE PUSH1 0x20 DUP2 ADD SWAP1 POP PUSH2 0xAA5 JUMP JUMPDEST DUP4 DUP2 GT ISZERO PUSH2 0xACF JUMPI PUSH1 0x0 DUP5 DUP5 ADD MSTORE JUMPDEST POP POP POP POP JUMP JUMPDEST PUSH1 0x0 PUSH2 0xAE0 DUP3 PUSH2 0xA8C JUMP JUMPDEST PUSH2 0xAEA DUP2 DUP6 PUSH2 0xA97 JUMP JUMPDEST SWAP4 POP PUSH2 0xAFA DUP2 DUP6 PUSH1 0x20 DUP7 ADD PUSH2 0xAA2 JUMP JUMPDEST DUP1 DUP5 ADD SWAP2 POP POP SWAP3 SWAP2 POP POP JUMP JUMPDEST PUSH1 0x0 PUSH2 0xB12 DUP3 DUP5 PUSH2 0xAD5 JUMP JUMPDEST SWAP2 POP DUP2 SWAP1 POP SWAP3 SWAP2 POP POP JUMP JUMPDEST PUSH1 0x0 PUSH2 0xB28 DUP3 PUSH2 0xA8C JUMP JUMPDEST PUSH2 0xB32 DUP2 DUP6 PUSH2 0xA0F JUMP JUMPDEST SWAP4 POP PUSH2 0xB42 DUP2 DUP6 PUSH1 0x20 DUP7 ADD PUSH2 0xAA2 JUMP JUMPDEST PUSH2 0xB4B DUP2 PUSH2 0x6C9 JUMP JUMPDEST DUP5 ADD SWAP2 POP POP SWAP3 SWAP2 POP POP JUMP JUMPDEST PUSH2 0xB5F DUP2 PUSH2 0x805 JUMP JUMPDEST DUP3 MSTORE POP POP JUMP JUMPDEST PUSH1 0x0 PUSH1 0xA0 DUP3 ADD SWAP1 POP DUP2 DUP2 SUB PUSH1 0x0 DUP4 ADD MSTORE PUSH2 0xB7F DUP2 DUP9 PUSH2 0xB1D JUMP JUMPDEST SWAP1 POP DUP2 DUP2 SUB PUSH1 0x20 DUP4 ADD MSTORE PUSH2 0xB93 DUP2 DUP8 PUSH2 0xB1D JUMP JUMPDEST SWAP1 POP PUSH2 0xBA2 PUSH1 0x40 DUP4 ADD DUP7 PUSH2 0xB56 JUMP JUMPDEST PUSH2 0xBAF PUSH1 0x60 DUP4 ADD DUP6 PUSH2 0xB56 JUMP JUMPDEST DUP2 DUP2 SUB PUSH1 0x80 DUP4 ADD MSTORE PUSH2 0xBC1 DUP2 DUP5 PUSH2 0xB1D JUMP JUMPDEST SWAP1 POP SWAP7 SWAP6 POP POP POP POP POP POP JUMP JUMPDEST PUSH32 0x4E487B7100000000000000000000000000000000000000000000000000000000 PUSH1 0x0 MSTORE PUSH1 0x22 PUSH1 0x4 MSTORE PUSH1 0x24 PUSH1 0x0 REVERT JUMPDEST PUSH1 0x0 PUSH1 0x2 DUP3 DIV SWAP1 POP PUSH1 0x1 DUP3 AND DUP1 PUSH2 0xC14 JUMPI PUSH1 0x7F DUP3 AND SWAP2 POP JUMPDEST PUSH1 0x20 DUP3 LT DUP2 SUB PUSH2 0xC27 JUMPI PUSH2 0xC26 PUSH2 0xBCD JUMP JUMPDEST JUMPDEST POP SWAP2 SWAP1 POP JUMP JUMPDEST PUSH1 0x0 DUP2 SWAP1 POP DUP2 PUSH1 0x0 MSTORE PUSH1 0x20 PUSH1 0x0 KECCAK256 SWAP1 POP SWAP2 SWAP1 POP JUMP JUMPDEST PUSH1 0x0 PUSH1 0x20 PUSH1 0x1F DUP4 ADD DIV SWAP1 POP SWAP2 SWAP1 POP JUMP JUMPDEST PUSH1 0x0 DUP3 DUP3 SHL SWAP1 POP SWAP3 SWAP2 POP POP JUMP JUMPDEST PUSH1 0x0 PUSH1 0x8 DUP4 MUL PUSH2 0xC8F PUSH32 0xFFFFFFFFFFFFFFFFFFFFFFFFFFFFFFFFFFFFFFFFFFFFFFFFFFFFFFFFFFFFFFFF DUP3 PUSH2 0xC52 JUMP JUMPDEST PUSH2 0xC99 DUP7 DUP4 PUSH2 0xC52 JUMP JUMPDEST SWAP6 POP DUP1 NOT DUP5 AND SWAP4 POP DUP1 DUP7 AND DUP5 OR SWAP3 POP POP POP SWAP4 SWAP3 POP POP POP JUMP JUMPDEST PUSH1 0x0 DUP2 SWAP1 POP SWAP2 SWAP1 POP JUMP JUMPDEST PUSH1 0x0 PUSH2 0xCD6 PUSH2 0xCD1 PUSH2 0xCCC DUP5 PUSH2 0x805 JUMP JUMPDEST PUSH2 0xCB1 JUMP JUMPDEST PUSH2 0x805 JUMP JUMPDEST SWAP1 POP SWAP2 SWAP1 POP JUMP JUMPDEST PUSH1 0x0 DUP2 SWAP1 POP SWAP2 SWAP1 POP JUMP JUMPDEST PUSH2 0xCF0 DUP4 PUSH2 0xCBB JUMP JUMPDEST PUSH2 0xD04 PUSH2 0xCFC DUP3 PUSH2 0xCDD JUMP JUMPDEST DUP5 DUP5 SLOAD PUSH2 0xC5F JUMP JUMPDEST DUP3 SSTORE POP POP POP POP JUMP JUMPDEST PUSH1 0x0 SWAP1 JUMP JUMPDEST PUSH2 0xD19 PUSH2 0xD0C JUMP JUMPDEST PUSH2 0xD24 DUP2 DUP5 DUP5 PUSH2 0xCE7 JUMP JUMPDEST POP POP POP JUMP JUMPDEST JUMPDEST DUP2 DUP2 LT ISZERO PUSH2 0xD48 JUMPI PUSH2 0xD3D PUSH1 0x0 DUP3 PUSH2 0xD11 JUMP JUMPDEST PUSH1 0x1 DUP2 ADD SWAP1 POP PUSH2 0xD2A JUMP JUMPDEST POP POP JUMP JUMPDEST PUSH1 0x1F DUP3 GT ISZERO PUSH2 0xD8D JUMPI PUSH2 0xD5E DUP2 PUSH2 0xC2D JUMP JUMPDEST PUSH2 0xD67 DUP5 PUSH2 0xC42 JUMP JUMPDEST DUP2 ADD PUSH1 0x20 DUP6 LT ISZERO PUSH2 0xD76 JUMPI DUP2 SWAP1 POP JUMPDEST PUSH2 0xD8A PUSH2 0xD82 DUP6 PUSH2 0xC42 JUMP JUMPDEST DUP4 ADD DUP3 PUSH2 0xD29 JUMP JUMPDEST POP POP JUMPDEST POP POP POP JUMP JUMPDEST PUSH1 0x0 DUP3 DUP3 SHR SWAP1 POP SWAP3 SWAP2 POP POP JUMP JUMPDEST PUSH1 0x0 PUSH2 0xDB0 PUSH1 0x0 NOT DUP5 PUSH1 0x8 MUL PUSH2 0xD92 JUMP JUMPDEST NOT DUP1 DUP4 AND SWAP2 POP POP SWAP3 SWAP2 POP POP JUMP JUMPDEST PUSH1 0x0 PUSH2 0xDC9 DUP4 DUP4 PUSH2 0xD9F JUMP JUMPDEST SWAP2 POP DUP3 PUSH1 0x2 MUL DUP3 OR SWAP1 POP SWAP3 SWAP2 POP POP JUMP JUMPDEST PUSH2 0xDE2 DUP3 PUSH2 0xA8C JUMP JUMPDEST PUSH8 0xFFFFFFFFFFFFFFFF DUP2 GT ISZERO PUSH2 0xDFB JUMPI PUSH2 0xDFA PUSH2 0x6DA JUMP JUMPDEST JUMPDEST PUSH2 0xE05 DUP3 SLOAD PUSH2 0xBFC JUMP JUMPDEST PUSH2 0xE10 DUP3 DUP3 DUP6 PUSH2 0xD4C JUMP JUMPDEST PUSH1 0x0 PUSH1 0x20 SWAP1 POP PUSH1 0x1F DUP4 GT PUSH1 0x1 DUP2 EQ PUSH2 0xE43 JUMPI PUSH1 0x0 DUP5 ISZERO PUSH2 0xE31 JUMPI DUP3 DUP8 ADD MLOAD SWAP1 POP JUMPDEST PUSH2 0xE3B DUP6 DUP3 PUSH2 0xDBD JUMP JUMPDEST DUP7 SSTORE POP PUSH2 0xEA3 JUMP JUMPDEST PUSH1 0x1F NOT DUP5 AND PUSH2 0xE51 DUP7 PUSH2 0xC2D JUMP JUMPDEST PUSH1 0x0 JUMPDEST DUP3 DUP2 LT ISZERO PUSH2 0xE79 JUMPI DUP5 DUP10 ADD MLOAD DUP3 SSTORE PUSH1 0x1 DUP3 ADD SWAP2 POP PUSH1 0x20 DUP6 ADD SWAP5 POP PUSH1 0x20 DUP2 ADD SWAP1 POP PUSH2 0xE54 JUMP JUMPDEST DUP7 DUP4 LT ISZERO PUSH2 0xE96 JUMPI DUP5 DUP10 ADD MLOAD PUSH2 0xE92 PUSH1 0x1F DUP10 AND DUP3 PUSH2 0xD9F JUMP JUMPDEST DUP4 SSTORE POP JUMPDEST PUSH1 0x1 PUSH1 0x2 DUP9 MUL ADD DUP9 SSTORE POP POP POP JUMPDEST POP POP POP POP POP POP JUMP INVALID LOG2 PUSH5 0x6970667358 0x22 SLT KECCAK256 0xBA PUSH24 0x216F5FEF2AD48F4320DF31F2E620AFE371F06089AD368A24 0x25 EQ 0xBC PUSH8 0x762C64736F6C6343 STOP ADDMOD 0xF STOP CALLER "
				},
				"gasEstimates": {
					"creation": {
						"codeDepositCost": "761800",
						"executionCost": "49331",
						"totalCost": "811131"
					},
					"external": {
						"_owner()": "2533",
						"isOwner()": "2496",
						"issueCertificate(string,string,uint256,uint256,string)": "infinite",
						"setAdmin(address)": "26972",
						"setOwner(address)": "26928",
						"updateCertificateRecipient(string)": "infinite",
						"updateCertificateRecipientForStaking(string,address)": "infinite"
					}
				},
				"methodIdentifiers": {
					"_owner()": "b2bdfa7b",
					"isOwner()": "8f32d59b",
					"issueCertificate(string,string,uint256,uint256,string)": "3f59c657",
					"setAdmin(address)": "704b6c02",
					"setOwner(address)": "13af4035",
					"updateCertificateRecipient(string)": "e9351558",
					"updateCertificateRecipientForStaking(string,address)": "fe49048a"
				}
			},
			"storageLayout": {
				"storage": [
					{
						"astId": 191,
						"contract": "certificateissuer.sol:CertificateIssuer",
						"label": "_owner",
						"offset": 0,
						"slot": "0",
						"type": "t_address"
					},
					{
						"astId": 18,
						"contract": "certificateissuer.sol:CertificateIssuer",
						"label": "cauthValid",
						"offset": 0,
						"slot": "1",
						"type": "t_mapping(t_string_memory_ptr,t_bool)"
					},
					{
						"astId": 22,
						"contract": "certificateissuer.sol:CertificateIssuer",
						"label": "cauthToCanStake",
						"offset": 0,
						"slot": "2",
						"type": "t_mapping(t_string_memory_ptr,t_bool)"
					},
					{
						"astId": 24,
						"contract": "certificateissuer.sol:CertificateIssuer",
						"label": "_admin",
						"offset": 0,
						"slot": "3",
						"type": "t_address"
					},
					{
						"astId": 28,
						"contract": "certificateissuer.sol:CertificateIssuer",
						"label": "adressToCauth",
						"offset": 0,
						"slot": "4",
						"type": "t_mapping(t_address,t_string_storage)"
					}
				],
				"types": {
					"t_address": {
						"encoding": "inplace",
						"label": "address",
						"numberOfBytes": "20"
					},
					"t_bool": {
						"encoding": "inplace",
						"label": "bool",
						"numberOfBytes": "1"
					},
					"t_mapping(t_address,t_string_storage)": {
						"encoding": "mapping",
						"key": "t_address",
						"label": "mapping(address => string)",
						"numberOfBytes": "32",
						"value": "t_string_storage"
					},
					"t_mapping(t_string_memory_ptr,t_bool)": {
						"encoding": "mapping",
						"key": "t_string_memory_ptr",
						"label": "mapping(string => bool)",
						"numberOfBytes": "32",
						"value": "t_bool"
					},
					"t_string_memory_ptr": {
						"encoding": "bytes",
						"label": "string",
						"numberOfBytes": "32"
					},
					"t_string_storage": {
						"encoding": "bytes",
						"label": "string",
						"numberOfBytes": "32"
					}
				}
			},
			"userdoc": {
				"kind": "user",
				"methods": {
					"constructor": {
						"notice": "create data type = struct named  certificate"
					}
				},
				"version": 1
			}
		}
	}
}