{
	"certificateissuer.sol": {
		"Staking": {
			"abi": [
				{
					"anonymous": false,
					"inputs": [
						{
							"indexed": false,
							"internalType": "string",
							"name": "_name",
							"type": "string"
						},
						{
							"indexed": false,
							"internalType": "string",
							"name": "_courseTittle",
							"type": "string"
						},
						{
							"indexed": false,
							"internalType": "uint256",
							"name": "_duration",
							"type": "uint256"
						},
						{
							"indexed": false,
							"internalType": "uint256",
							"name": "institute",
							"type": "uint256"
						},
						{
							"indexed": false,
							"internalType": "string",
							"name": "cauth",
							"type": "string"
						}
					],
					"name": "certificateIssued",
					"type": "event"
				},
				{
					"inputs": [],
					"name": "_owner",
					"outputs": [
						{
							"internalType": "address",
							"name": "",
							"type": "address"
						}
					],
					"stateMutability": "view",
					"type": "function"
				},
				{
					"inputs": [],
					"name": "isOwner",
					"outputs": [
						{
							"internalType": "bool",
							"name": "",
							"type": "bool"
						}
					],
					"stateMutability": "view",
					"type": "function"
				},
				{
					"inputs": [
						{
							"internalType": "string",
							"name": "_name",
							"type": "string"
						},
						{
							"internalType": "string",
							"name": "_courseTittle",
							"type": "string"
						},
						{
							"internalType": "uint256",
							"name": "_duration",
							"type": "uint256"
						},
						{
							"internalType": "uint256",
							"name": "institute",
							"type": "uint256"
						},
						{
							"internalType": "string",
							"name": "cauth",
							"type": "string"
						}
					],
					"name": "issueCertificate",
					"outputs": [],
					"stateMutability": "payable",
					"type": "function"
				},
				{
					"inputs": [
						{
							"internalType": "address",
							"name": "_adminParameter",
							"type": "address"
						}
					],
					"name": "setAdmin",
					"outputs": [],
					"stateMutability": "nonpayable",
					"type": "function"
				},
				{
					"inputs": [
						{
							"internalType": "address",
							"name": "_newOwner",
							"type": "address"
						}
					],
					"name": "setOwner",
					"outputs": [],
					"stateMutability": "nonpayable",
					"type": "function"
				},
				{
					"inputs": [
						{
							"internalType": "address",
							"name": "",
							"type": "address"
						}
					],
					"name": "stakedAmount",
					"outputs": [
						{
							"internalType": "uint256",
							"name": "",
							"type": "uint256"
						}
					],
					"stateMutability": "view",
					"type": "function"
				},
				{
					"inputs": [
						{
							"internalType": "string",
							"name": "cauth",
							"type": "string"
						}
					],
					"name": "updateCertificateRecipient",
					"outputs": [],
					"stateMutability": "nonpayable",
					"type": "function"
				},
				{
					"inputs": [
						{
							"internalType": "string",
							"name": "cauth",
							"type": "string"
						},
						{
							"internalType": "address",
							"name": "_staker",
							"type": "address"
						}
					],
					"name": "updateCertificateRecipientForStaking",
					"outputs": [],
					"stateMutability": "nonpayable",
					"type": "function"
				},
				{
					"stateMutability": "payable",
					"type": "receive"
				}
			],
			"devdoc": {
				"kind": "dev",
				"methods": {
					"isOwner()": {
						"details": "Returns true if the caller is the current owner."
					}
				},
				"version": 1
			},
			"evm": {
				"assembly": "    /* \"certificateissuer.sol\":3013:3288  contract Staking is CertificateIssuer {... */\n  mstore(0x40, 0x80)\n  callvalue\n  dup1\n  iszero\n  tag_1\n  jumpi\n  0x00\n  dup1\n  revert\ntag_1:\n  pop\n    /* \"ownable.sol\":150:160  msg.sender */\n  caller\n    /* \"ownable.sol\":141:147  _owner */\n  0x00\n  dup1\n    /* \"ownable.sol\":141:160  _owner = msg.sender */\n  0x0100\n  exp\n  dup2\n  sload\n  dup2\n  0xffffffffffffffffffffffffffffffffffffffff\n  mul\n  not\n  and\n  swap1\n  dup4\n  0xffffffffffffffffffffffffffffffffffffffff\n  and\n  mul\n  or\n  swap1\n  sstore\n  pop\n    /* \"certificateissuer.sol\":220:230  msg.sender */\n  caller\n    /* \"certificateissuer.sol\":211:217  _admin */\n  0x03\n  0x00\n    /* \"certificateissuer.sol\":211:230  _admin = msg.sender */\n  0x0100\n  exp\n  dup2\n  sload\n  dup2\n  0xffffffffffffffffffffffffffffffffffffffff\n  mul\n  not\n  and\n  swap1\n  dup4\n  0xffffffffffffffffffffffffffffffffffffffff\n  and\n  mul\n  or\n  swap1\n  sstore\n  pop\n    /* \"certificateissuer.sol\":3013:3288  contract Staking is CertificateIssuer {... */\n  dataSize(sub_0)\n  dup1\n  dataOffset(sub_0)\n  0x00\n  codecopy\n  0x00\n  return\nstop\n\nsub_0: assembly {\n        /* \"certificateissuer.sol\":3013:3288  contract Staking is CertificateIssuer {... */\n      mstore(0x40, 0x80)\n      jumpi(tag_1, lt(calldatasize, 0x04))\n      shr(0xe0, calldataload(0x00))\n      dup1\n      0xb2bdfa7b\n      gt\n      tag_11\n      jumpi\n      dup1\n      0xb2bdfa7b\n      eq\n      tag_7\n      jumpi\n      dup1\n      0xe9351558\n      eq\n      tag_8\n      jumpi\n      dup1\n      0xf9931855\n      eq\n      tag_9\n      jumpi\n      dup1\n      0xfe49048a\n      eq\n      tag_10\n      jumpi\n      jump(tag_2)\n    tag_11:\n      dup1\n      0x13af4035\n      eq\n      tag_3\n      jumpi\n      dup1\n      0x3f59c657\n      eq\n      tag_4\n      jumpi\n      dup1\n      0x704b6c02\n      eq\n      tag_5\n      jumpi\n      dup1\n      0x8f32d59b\n      eq\n      tag_6\n      jumpi\n      jump(tag_2)\n    tag_1:\n      jumpi(tag_2, calldatasize)\n        /* \"certificateissuer.sol\":3168:3183  cauthToCanStake */\n      0x02\n        /* \"certificateissuer.sol\":3184:3197  adressToCauth */\n      0x04\n        /* \"certificateissuer.sol\":3184:3209  adressToCauth[msg.sender] */\n      0x00\n        /* \"certificateissuer.sol\":3198:3208  msg.sender */\n      caller\n        /* \"certificateissuer.sol\":3184:3209  adressToCauth[msg.sender] */\n      0xffffffffffffffffffffffffffffffffffffffff\n      and\n      0xffffffffffffffffffffffffffffffffffffffff\n      and\n      dup2\n      mstore\n      0x20\n      add\n      swap1\n      dup2\n      mstore\n      0x20\n      add\n      0x00\n      keccak256\n        /* \"certificateissuer.sol\":3168:3210  cauthToCanStake[adressToCauth[msg.sender]] */\n      mload(0x40)\n      tag_14\n      swap2\n      swap1\n      tag_15\n      jump\t// in\n    tag_14:\n      swap1\n      dup2\n      mstore\n      0x20\n      add\n      mload(0x40)\n      dup1\n      swap2\n      sub\n      swap1\n      keccak256\n      0x00\n      swap1\n      sload\n      swap1\n      0x0100\n      exp\n      swap1\n      div\n      0xff\n      and\n        /* \"certificateissuer.sol\":3160:3211  require(cauthToCanStake[adressToCauth[msg.sender]]) */\n      tag_16\n      jumpi\n      0x00\n      dup1\n      revert\n    tag_16:\n        /* \"certificateissuer.sol\":3251:3260  msg.value */\n      callvalue\n        /* \"certificateissuer.sol\":3224:3236  stakedAmount */\n      0x05\n        /* \"certificateissuer.sol\":3224:3248  stakedAmount[msg.sender] */\n      0x00\n        /* \"certificateissuer.sol\":3237:3247  msg.sender */\n      caller\n        /* \"certificateissuer.sol\":3224:3248  stakedAmount[msg.sender] */\n      0xffffffffffffffffffffffffffffffffffffffff\n      and\n      0xffffffffffffffffffffffffffffffffffffffff\n      and\n      dup2\n      mstore\n      0x20\n      add\n      swap1\n      dup2\n      mstore\n      0x20\n      add\n      0x00\n      keccak256\n        /* \"certificateissuer.sol\":3224:3260  stakedAmount[msg.sender] = msg.value */\n      dup2\n      swap1\n      sstore\n      stop\n        /* \"certificateissuer.sol\":3013:3288  contract Staking is CertificateIssuer {... */\n    tag_2:\n      0x00\n      dup1\n      revert\n        /* \"ownable.sol\":551:643  function setOwner(address _newOwner) public onlyOwner {... */\n    tag_3:\n      callvalue\n      dup1\n      iszero\n      tag_17\n      jumpi\n      0x00\n      dup1\n      revert\n    tag_17:\n      pop\n      tag_18\n      0x04\n      dup1\n      calldatasize\n      sub\n      dup2\n      add\n      swap1\n      tag_19\n      swap2\n      swap1\n      tag_20\n      jump\t// in\n    tag_19:\n      tag_21\n      jump\t// in\n    tag_18:\n      stop\n        /* \"certificateissuer.sol\":2548:2996  function issueCertificate(string memory _name , string memory _courseTittle, uint _duration , uint institute,string memory cauth ) external payable {... */\n    tag_4:\n      tag_22\n      0x04\n      dup1\n      calldatasize\n      sub\n      dup2\n      add\n      swap1\n      tag_23\n      swap2\n      swap1\n      tag_24\n      jump\t// in\n    tag_23:\n      tag_25\n      jump\t// in\n    tag_22:\n      stop\n        /* \"certificateissuer.sol\":677:781  function setAdmin(address _adminParameter) public onlyOwner{... */\n    tag_5:\n      callvalue\n      dup1\n      iszero\n      tag_26\n      jumpi\n      0x00\n      dup1\n      revert\n    tag_26:\n      pop\n      tag_27\n      0x04\n      dup1\n      calldatasize\n      sub\n      dup2\n      add\n      swap1\n      tag_28\n      swap2\n      swap1\n      tag_20\n      jump\t// in\n    tag_28:\n      tag_29\n      jump\t// in\n    tag_27:\n      stop\n        /* \"ownable.sol\":451:545  function isOwner() public view returns (bool) {... */\n    tag_6:\n      callvalue\n      dup1\n      iszero\n      tag_30\n      jumpi\n      0x00\n      dup1\n      revert\n    tag_30:\n      pop\n      tag_31\n      tag_32\n      jump\t// in\n    tag_31:\n      mload(0x40)\n      tag_33\n      swap2\n      swap1\n      tag_34\n      jump\t// in\n    tag_33:\n      mload(0x40)\n      dup1\n      swap2\n      sub\n      swap1\n      return\n        /* \"ownable.sol\":85:106  address public _owner */\n    tag_7:\n      callvalue\n      dup1\n      iszero\n      tag_35\n      jumpi\n      0x00\n      dup1\n      revert\n    tag_35:\n      pop\n      tag_36\n      tag_37\n      jump\t// in\n    tag_36:\n      mload(0x40)\n      tag_38\n      swap2\n      swap1\n      tag_39\n      jump\t// in\n    tag_38:\n      mload(0x40)\n      dup1\n      swap2\n      sub\n      swap1\n      return\n        /* \"certificateissuer.sol\":1818:2051  function updateCertificateRecipient(string memory cauth) public  {... */\n    tag_8:\n      callvalue\n      dup1\n      iszero\n      tag_40\n      jumpi\n      0x00\n      dup1\n      revert\n    tag_40:\n      pop\n      tag_41\n      0x04\n      dup1\n      calldatasize\n      sub\n      dup2\n      add\n      swap1\n      tag_42\n      swap2\n      swap1\n      tag_43\n      jump\t// in\n    tag_42:\n      tag_44\n      jump\t// in\n    tag_41:\n      stop\n        /* \"certificateissuer.sol\":3058:3103  mapping(address =>  uint) public stakedAmount */\n    tag_9:\n      callvalue\n      dup1\n      iszero\n      tag_45\n      jumpi\n      0x00\n      dup1\n      revert\n    tag_45:\n      pop\n      tag_46\n      0x04\n      dup1\n      calldatasize\n      sub\n      dup2\n      add\n      swap1\n      tag_47\n      swap2\n      swap1\n      tag_20\n      jump\t// in\n    tag_47:\n      tag_48\n      jump\t// in\n    tag_46:\n      mload(0x40)\n      tag_49\n      swap2\n      swap1\n      tag_50\n      jump\t// in\n    tag_49:\n      mload(0x40)\n      dup1\n      swap2\n      sub\n      swap1\n      return\n        /* \"certificateissuer.sol\":2227:2540  function updateCertificateRecipientForStaking(string memory cauth,address _staker ) public   {... */\n    tag_10:\n      callvalue\n      dup1\n      iszero\n      tag_51\n      jumpi\n      0x00\n      dup1\n      revert\n    tag_51:\n      pop\n      tag_52\n      0x04\n      dup1\n      calldatasize\n      sub\n      dup2\n      add\n      swap1\n      tag_53\n      swap2\n      swap1\n      tag_54\n      jump\t// in\n    tag_53:\n      tag_55\n      jump\t// in\n    tag_52:\n      stop\n        /* \"ownable.sol\":551:643  function setOwner(address _newOwner) public onlyOwner {... */\n    tag_21:\n        /* \"ownable.sol\":299:308  isOwner() */\n      tag_57\n        /* \"ownable.sol\":299:306  isOwner */\n      tag_32\n        /* \"ownable.sol\":299:308  isOwner() */\n      jump\t// in\n    tag_57:\n        /* \"ownable.sol\":291:345  require(isOwner(), \"Ownable: caller is not the owner\") */\n      tag_58\n      jumpi\n      mload(0x40)\n      0x08c379a000000000000000000000000000000000000000000000000000000000\n      dup2\n      mstore\n      0x04\n      add\n      tag_59\n      swap1\n      tag_60\n      jump\t// in\n    tag_59:\n      mload(0x40)\n      dup1\n      swap2\n      sub\n      swap1\n      revert\n    tag_58:\n        /* \"ownable.sol\":625:634  _newOwner */\n      dup1\n        /* \"ownable.sol\":616:622  _owner */\n      0x00\n      dup1\n        /* \"ownable.sol\":616:634  _owner = _newOwner */\n      0x0100\n      exp\n      dup2\n      sload\n      dup2\n      0xffffffffffffffffffffffffffffffffffffffff\n      mul\n      not\n      and\n      swap1\n      dup4\n      0xffffffffffffffffffffffffffffffffffffffff\n      and\n      mul\n      or\n      swap1\n      sstore\n      pop\n        /* \"ownable.sol\":551:643  function setOwner(address _newOwner) public onlyOwner {... */\n      pop\n      jump\t// out\n        /* \"certificateissuer.sol\":2548:2996  function issueCertificate(string memory _name , string memory _courseTittle, uint _duration , uint institute,string memory cauth ) external payable {... */\n    tag_25:\n        /* \"certificateissuer.sol\":2790:2794  true */\n      0x01\n        /* \"certificateissuer.sol\":2769:2794  cauthValid[cauth] == true */\n      iszero\n      iszero\n        /* \"certificateissuer.sol\":2769:2779  cauthValid */\n      0x01\n        /* \"certificateissuer.sol\":2780:2785  cauth */\n      dup3\n        /* \"certificateissuer.sol\":2769:2786  cauthValid[cauth] */\n      mload(0x40)\n      tag_63\n      swap2\n      swap1\n      tag_64\n      jump\t// in\n    tag_63:\n      swap1\n      dup2\n      mstore\n      0x20\n      add\n      mload(0x40)\n      dup1\n      swap2\n      sub\n      swap1\n      keccak256\n      0x00\n      swap1\n      sload\n      swap1\n      0x0100\n      exp\n      swap1\n      div\n      0xff\n      and\n        /* \"certificateissuer.sol\":2769:2794  cauthValid[cauth] == true */\n      iszero\n      iszero\n      eq\n        /* \"certificateissuer.sol\":2761:2795  require(cauthValid[cauth] == true) */\n      tag_65\n      jumpi\n      0x00\n      dup1\n      revert\n    tag_65:\n        /* \"certificateissuer.sol\":2848:2912  certificateIssued(_name,_courseTittle,_duration,institute,cauth) */\n      0x2ee35da94d6494eb515fd8f6fffdecd1d417dbae7e370cb1f77d709473e01d59\n        /* \"certificateissuer.sol\":2866:2871  _name */\n      dup6\n        /* \"certificateissuer.sol\":2872:2885  _courseTittle */\n      dup6\n        /* \"certificateissuer.sol\":2886:2895  _duration */\n      dup6\n        /* \"certificateissuer.sol\":2896:2905  institute */\n      dup6\n        /* \"certificateissuer.sol\":2906:2911  cauth */\n      dup6\n        /* \"certificateissuer.sol\":2848:2912  certificateIssued(_name,_courseTittle,_duration,institute,cauth) */\n      mload(0x40)\n      tag_66\n      swap6\n      swap5\n      swap4\n      swap3\n      swap2\n      swap1\n      tag_67\n      jump\t// in\n    tag_66:\n      mload(0x40)\n      dup1\n      swap2\n      sub\n      swap1\n      log1\n        /* \"certificateissuer.sol\":2981:2986  false */\n      0x00\n        /* \"certificateissuer.sol\":2961:2971  cauthValid */\n      0x01\n        /* \"certificateissuer.sol\":2972:2977  cauth */\n      dup3\n        /* \"certificateissuer.sol\":2961:2978  cauthValid[cauth] */\n      mload(0x40)\n      tag_68\n      swap2\n      swap1\n      tag_64\n      jump\t// in\n    tag_68:\n      swap1\n      dup2\n      mstore\n      0x20\n      add\n      mload(0x40)\n      dup1\n      swap2\n      sub\n      swap1\n      keccak256\n      0x00\n        /* \"certificateissuer.sol\":2961:2986  cauthValid[cauth] = false */\n      0x0100\n      exp\n      dup2\n      sload\n      dup2\n      0xff\n      mul\n      not\n      and\n      swap1\n      dup4\n      iszero\n      iszero\n      mul\n      or\n      swap1\n      sstore\n      pop\n        /* \"certificateissuer.sol\":2548:2996  function issueCertificate(string memory _name , string memory _courseTittle, uint _duration , uint institute,string memory cauth ) external payable {... */\n      pop\n      pop\n      pop\n      pop\n      pop\n      jump\t// out\n        /* \"certificateissuer.sol\":677:781  function setAdmin(address _adminParameter) public onlyOwner{... */\n    tag_29:\n        /* \"ownable.sol\":299:308  isOwner() */\n      tag_70\n        /* \"ownable.sol\":299:306  isOwner */\n      tag_32\n        /* \"ownable.sol\":299:308  isOwner() */\n      jump\t// in\n    tag_70:\n        /* \"ownable.sol\":291:345  require(isOwner(), \"Ownable: caller is not the owner\") */\n      tag_71\n      jumpi\n      mload(0x40)\n      0x08c379a000000000000000000000000000000000000000000000000000000000\n      dup2\n      mstore\n      0x04\n      add\n      tag_72\n      swap1\n      tag_60\n      jump\t// in\n    tag_72:\n      mload(0x40)\n      dup1\n      swap2\n      sub\n      swap1\n      revert\n    tag_71:\n        /* \"certificateissuer.sol\":756:771  _adminParameter */\n      dup1\n        /* \"certificateissuer.sol\":747:753  _admin */\n      0x03\n      0x00\n        /* \"certificateissuer.sol\":747:771  _admin = _adminParameter */\n      0x0100\n      exp\n      dup2\n      sload\n      dup2\n      0xffffffffffffffffffffffffffffffffffffffff\n      mul\n      not\n      and\n      swap1\n      dup4\n      0xffffffffffffffffffffffffffffffffffffffff\n      and\n      mul\n      or\n      swap1\n      sstore\n      pop\n        /* \"certificateissuer.sol\":677:781  function setAdmin(address _adminParameter) public onlyOwner{... */\n      pop\n      jump\t// out\n        /* \"ownable.sol\":451:545  function isOwner() public view returns (bool) {... */\n    tag_32:\n        /* \"ownable.sol\":491:495  bool */\n      0x00\n        /* \"ownable.sol\":530:536  _owner */\n      dup1\n      0x00\n      swap1\n      sload\n      swap1\n      0x0100\n      exp\n      swap1\n      div\n      0xffffffffffffffffffffffffffffffffffffffff\n      and\n        /* \"ownable.sol\":516:536  msg.sender == _owner */\n      0xffffffffffffffffffffffffffffffffffffffff\n      and\n        /* \"ownable.sol\":516:526  msg.sender */\n      caller\n        /* \"ownable.sol\":516:536  msg.sender == _owner */\n      0xffffffffffffffffffffffffffffffffffffffff\n      and\n      eq\n        /* \"ownable.sol\":508:537  return (msg.sender == _owner) */\n      swap1\n      pop\n        /* \"ownable.sol\":451:545  function isOwner() public view returns (bool) {... */\n      swap1\n      jump\t// out\n        /* \"ownable.sol\":85:106  address public _owner */\n    tag_37:\n      0x00\n      dup1\n      sload\n      swap1\n      0x0100\n      exp\n      swap1\n      div\n      0xffffffffffffffffffffffffffffffffffffffff\n      and\n      dup2\n      jump\t// out\n        /* \"certificateissuer.sol\":1818:2051  function updateCertificateRecipient(string memory cauth) public  {... */\n    tag_44:\n        /* \"certificateissuer.sol\":1916:1922  _admin */\n      0x03\n      0x00\n      swap1\n      sload\n      swap1\n      0x0100\n      exp\n      swap1\n      div\n      0xffffffffffffffffffffffffffffffffffffffff\n      and\n        /* \"certificateissuer.sol\":1902:1922  msg.sender == _admin */\n      0xffffffffffffffffffffffffffffffffffffffff\n      and\n        /* \"certificateissuer.sol\":1902:1912  msg.sender */\n      caller\n        /* \"certificateissuer.sol\":1902:1922  msg.sender == _admin */\n      0xffffffffffffffffffffffffffffffffffffffff\n      and\n      eq\n        /* \"certificateissuer.sol\":1894:1923  require(msg.sender == _admin) */\n      tag_76\n      jumpi\n      0x00\n      dup1\n      revert\n    tag_76:\n        /* \"certificateissuer.sol\":1955:1959  true */\n      0x01\n        /* \"certificateissuer.sol\":1935:1945  cauthValid */\n      dup1\n        /* \"certificateissuer.sol\":1946:1951  cauth */\n      dup3\n        /* \"certificateissuer.sol\":1935:1952  cauthValid[cauth] */\n      mload(0x40)\n      tag_77\n      swap2\n      swap1\n      tag_64\n      jump\t// in\n    tag_77:\n      swap1\n      dup2\n      mstore\n      0x20\n      add\n      mload(0x40)\n      dup1\n      swap2\n      sub\n      swap1\n      keccak256\n      0x00\n        /* \"certificateissuer.sol\":1935:1959  cauthValid[cauth] = true */\n      0x0100\n      exp\n      dup2\n      sload\n      dup2\n      0xff\n      mul\n      not\n      and\n      swap1\n      dup4\n      iszero\n      iszero\n      mul\n      or\n      swap1\n      sstore\n      pop\n        /* \"certificateissuer.sol\":1981:1991  cauthValid */\n      0x01\n        /* \"certificateissuer.sol\":1992:1997  cauth */\n      dup2\n        /* \"certificateissuer.sol\":1981:1998  cauthValid[cauth] */\n      mload(0x40)\n      tag_78\n      swap2\n      swap1\n      tag_64\n      jump\t// in\n    tag_78:\n      swap1\n      dup2\n      mstore\n      0x20\n      add\n      mload(0x40)\n      dup1\n      swap2\n      sub\n      swap1\n      keccak256\n      0x00\n      swap1\n      sload\n      swap1\n      0x0100\n      exp\n      swap1\n      div\n      0xff\n      and\n        /* \"certificateissuer.sol\":1973:1999  require(cauthValid[cauth]) */\n      tag_79\n      jumpi\n      0x00\n      dup1\n      revert\n    tag_79:\n        /* \"certificateissuer.sol\":2037:2041  true */\n      0x01\n        /* \"certificateissuer.sol\":2012:2027  cauthToCanStake */\n      0x02\n        /* \"certificateissuer.sol\":2028:2033  cauth */\n      dup3\n        /* \"certificateissuer.sol\":2012:2034  cauthToCanStake[cauth] */\n      mload(0x40)\n      tag_80\n      swap2\n      swap1\n      tag_64\n      jump\t// in\n    tag_80:\n      swap1\n      dup2\n      mstore\n      0x20\n      add\n      mload(0x40)\n      dup1\n      swap2\n      sub\n      swap1\n      keccak256\n      0x00\n        /* \"certificateissuer.sol\":2012:2041  cauthToCanStake[cauth] = true */\n      0x0100\n      exp\n      dup2\n      sload\n      dup2\n      0xff\n      mul\n      not\n      and\n      swap1\n      dup4\n      iszero\n      iszero\n      mul\n      or\n      swap1\n      sstore\n      pop\n        /* \"certificateissuer.sol\":1818:2051  function updateCertificateRecipient(string memory cauth) public  {... */\n      pop\n      jump\t// out\n        /* \"certificateissuer.sol\":3058:3103  mapping(address =>  uint) public stakedAmount */\n    tag_48:\n      mstore(0x20, 0x05)\n      dup1\n      0x00\n      mstore\n      keccak256(0x00, 0x40)\n      0x00\n      swap2\n      pop\n      swap1\n      pop\n      sload\n      dup2\n      jump\t// out\n        /* \"certificateissuer.sol\":2227:2540  function updateCertificateRecipientForStaking(string memory cauth,address _staker ) public   {... */\n    tag_55:\n        /* \"certificateissuer.sol\":2353:2359  _admin */\n      0x03\n      0x00\n      swap1\n      sload\n      swap1\n      0x0100\n      exp\n      swap1\n      div\n      0xffffffffffffffffffffffffffffffffffffffff\n      and\n        /* \"certificateissuer.sol\":2339:2359  msg.sender == _admin */\n      0xffffffffffffffffffffffffffffffffffffffff\n      and\n        /* \"certificateissuer.sol\":2339:2349  msg.sender */\n      caller\n        /* \"certificateissuer.sol\":2339:2359  msg.sender == _admin */\n      0xffffffffffffffffffffffffffffffffffffffff\n      and\n      eq\n        /* \"certificateissuer.sol\":2331:2360  require(msg.sender == _admin) */\n      tag_82\n      jumpi\n      0x00\n      dup1\n      revert\n    tag_82:\n        /* \"certificateissuer.sol\":2392:2396  true */\n      0x01\n        /* \"certificateissuer.sol\":2372:2382  cauthValid */\n      dup1\n        /* \"certificateissuer.sol\":2383:2388  cauth */\n      dup4\n        /* \"certificateissuer.sol\":2372:2389  cauthValid[cauth] */\n      mload(0x40)\n      tag_83\n      swap2\n      swap1\n      tag_64\n      jump\t// in\n    tag_83:\n      swap1\n      dup2\n      mstore\n      0x20\n      add\n      mload(0x40)\n      dup1\n      swap2\n      sub\n      swap1\n      keccak256\n      0x00\n        /* \"certificateissuer.sol\":2372:2396  cauthValid[cauth] = true */\n      0x0100\n      exp\n      dup2\n      sload\n      dup2\n      0xff\n      mul\n      not\n      and\n      swap1\n      dup4\n      iszero\n      iszero\n      mul\n      or\n      swap1\n      sstore\n      pop\n        /* \"certificateissuer.sol\":2418:2428  cauthValid */\n      0x01\n        /* \"certificateissuer.sol\":2429:2434  cauth */\n      dup3\n        /* \"certificateissuer.sol\":2418:2435  cauthValid[cauth] */\n      mload(0x40)\n      tag_84\n      swap2\n      swap1\n      tag_64\n      jump\t// in\n    tag_84:\n      swap1\n      dup2\n      mstore\n      0x20\n      add\n      mload(0x40)\n      dup1\n      swap2\n      sub\n      swap1\n      keccak256\n      0x00\n      swap1\n      sload\n      swap1\n      0x0100\n      exp\n      swap1\n      div\n      0xff\n      and\n        /* \"certificateissuer.sol\":2410:2436  require(cauthValid[cauth]) */\n      tag_85\n      jumpi\n      0x00\n      dup1\n      revert\n    tag_85:\n        /* \"certificateissuer.sol\":2474:2478  true */\n      0x01\n        /* \"certificateissuer.sol\":2449:2464  cauthToCanStake */\n      0x02\n        /* \"certificateissuer.sol\":2465:2470  cauth */\n      dup4\n        /* \"certificateissuer.sol\":2449:2471  cauthToCanStake[cauth] */\n      mload(0x40)\n      tag_86\n      swap2\n      swap1\n      tag_64\n      jump\t// in\n    tag_86:\n      swap1\n      dup2\n      mstore\n      0x20\n      add\n      mload(0x40)\n      dup1\n      swap2\n      sub\n      swap1\n      keccak256\n      0x00\n        /* \"certificateissuer.sol\":2449:2478  cauthToCanStake[cauth] = true */\n      0x0100\n      exp\n      dup2\n      sload\n      dup2\n      0xff\n      mul\n      not\n      and\n      swap1\n      dup4\n      iszero\n      iszero\n      mul\n      or\n      swap1\n      sstore\n      pop\n        /* \"certificateissuer.sol\":2516:2521  cauth */\n      dup2\n        /* \"certificateissuer.sol\":2491:2504  adressToCauth */\n      0x04\n        /* \"certificateissuer.sol\":2491:2513  adressToCauth[_staker] */\n      0x00\n        /* \"certificateissuer.sol\":2505:2512  _staker */\n      dup4\n        /* \"certificateissuer.sol\":2491:2513  adressToCauth[_staker] */\n      0xffffffffffffffffffffffffffffffffffffffff\n      and\n      0xffffffffffffffffffffffffffffffffffffffff\n      and\n      dup2\n      mstore\n      0x20\n      add\n      swap1\n      dup2\n      mstore\n      0x20\n      add\n      0x00\n      keccak256\n        /* \"certificateissuer.sol\":2491:2521  adressToCauth[_staker] = cauth */\n      swap1\n      dup2\n      tag_87\n      swap2\n      swap1\n      tag_88\n      jump\t// in\n    tag_87:\n      pop\n        /* \"certificateissuer.sol\":2227:2540  function updateCertificateRecipientForStaking(string memory cauth,address _staker ) public   {... */\n      pop\n      pop\n      jump\t// out\n        /* \"#utility.yul\":7:187   */\n    tag_89:\n        /* \"#utility.yul\":55:132   */\n      0x4e487b7100000000000000000000000000000000000000000000000000000000\n        /* \"#utility.yul\":52:53   */\n      0x00\n        /* \"#utility.yul\":45:133   */\n      mstore\n        /* \"#utility.yul\":152:156   */\n      0x22\n        /* \"#utility.yul\":149:150   */\n      0x04\n        /* \"#utility.yul\":142:157   */\n      mstore\n        /* \"#utility.yul\":176:180   */\n      0x24\n        /* \"#utility.yul\":173:174   */\n      0x00\n        /* \"#utility.yul\":166:181   */\n      revert\n        /* \"#utility.yul\":193:513   */\n    tag_90:\n        /* \"#utility.yul\":237:243   */\n      0x00\n        /* \"#utility.yul\":274:275   */\n      0x02\n        /* \"#utility.yul\":268:272   */\n      dup3\n        /* \"#utility.yul\":264:276   */\n      div\n        /* \"#utility.yul\":254:276   */\n      swap1\n      pop\n        /* \"#utility.yul\":321:322   */\n      0x01\n        /* \"#utility.yul\":315:319   */\n      dup3\n        /* \"#utility.yul\":311:323   */\n      and\n        /* \"#utility.yul\":342:360   */\n      dup1\n        /* \"#utility.yul\":332:413   */\n      tag_142\n      jumpi\n        /* \"#utility.yul\":398:402   */\n      0x7f\n        /* \"#utility.yul\":390:396   */\n      dup3\n        /* \"#utility.yul\":386:403   */\n      and\n        /* \"#utility.yul\":376:403   */\n      swap2\n      pop\n        /* \"#utility.yul\":332:413   */\n    tag_142:\n        /* \"#utility.yul\":460:462   */\n      0x20\n        /* \"#utility.yul\":452:458   */\n      dup3\n        /* \"#utility.yul\":449:463   */\n      lt\n        /* \"#utility.yul\":429:447   */\n      dup2\n        /* \"#utility.yul\":426:464   */\n      sub\n        /* \"#utility.yul\":423:507   */\n      tag_143\n      jumpi\n        /* \"#utility.yul\":479:497   */\n      tag_144\n      tag_89\n      jump\t// in\n    tag_144:\n        /* \"#utility.yul\":423:507   */\n    tag_143:\n        /* \"#utility.yul\":244:513   */\n      pop\n        /* \"#utility.yul\":193:513   */\n      swap2\n      swap1\n      pop\n      jump\t// out\n        /* \"#utility.yul\":519:667   */\n    tag_91:\n        /* \"#utility.yul\":621:632   */\n      0x00\n        /* \"#utility.yul\":658:661   */\n      dup2\n        /* \"#utility.yul\":643:661   */\n      swap1\n      pop\n        /* \"#utility.yul\":519:667   */\n      swap3\n      swap2\n      pop\n      pop\n      jump\t// out\n        /* \"#utility.yul\":673:814   */\n    tag_92:\n        /* \"#utility.yul\":722:726   */\n      0x00\n        /* \"#utility.yul\":745:748   */\n      dup2\n        /* \"#utility.yul\":737:748   */\n      swap1\n      pop\n        /* \"#utility.yul\":768:771   */\n      dup2\n        /* \"#utility.yul\":765:766   */\n      0x00\n        /* \"#utility.yul\":758:772   */\n      mstore\n        /* \"#utility.yul\":802:806   */\n      0x20\n        /* \"#utility.yul\":799:800   */\n      0x00\n        /* \"#utility.yul\":789:807   */\n      keccak256\n        /* \"#utility.yul\":781:807   */\n      swap1\n      pop\n        /* \"#utility.yul\":673:814   */\n      swap2\n      swap1\n      pop\n      jump\t// out\n        /* \"#utility.yul\":844:1718   */\n    tag_93:\n        /* \"#utility.yul\":947:950   */\n      0x00\n        /* \"#utility.yul\":984:989   */\n      dup2\n        /* \"#utility.yul\":978:990   */\n      sload\n        /* \"#utility.yul\":1013:1049   */\n      tag_148\n        /* \"#utility.yul\":1039:1048   */\n      dup2\n        /* \"#utility.yul\":1013:1049   */\n      tag_90\n      jump\t// in\n    tag_148:\n        /* \"#utility.yul\":1065:1154   */\n      tag_149\n        /* \"#utility.yul\":1147:1153   */\n      dup2\n        /* \"#utility.yul\":1142:1145   */\n      dup7\n        /* \"#utility.yul\":1065:1154   */\n      tag_91\n      jump\t// in\n    tag_149:\n        /* \"#utility.yul\":1058:1154   */\n      swap5\n      pop\n        /* \"#utility.yul\":1185:1186   */\n      0x01\n        /* \"#utility.yul\":1174:1183   */\n      dup3\n        /* \"#utility.yul\":1170:1187   */\n      and\n        /* \"#utility.yul\":1201:1202   */\n      0x00\n        /* \"#utility.yul\":1196:1362   */\n      dup2\n      eq\n      tag_151\n      jumpi\n        /* \"#utility.yul\":1376:1377   */\n      0x01\n        /* \"#utility.yul\":1371:1712   */\n      dup2\n      eq\n      tag_152\n      jumpi\n        /* \"#utility.yul\":1163:1712   */\n      jump(tag_150)\n        /* \"#utility.yul\":1196:1362   */\n    tag_151:\n        /* \"#utility.yul\":1280:1284   */\n      0xff\n        /* \"#utility.yul\":1276:1285   */\n      not\n        /* \"#utility.yul\":1265:1274   */\n      dup4\n        /* \"#utility.yul\":1261:1286   */\n      and\n        /* \"#utility.yul\":1256:1259   */\n      dup7\n        /* \"#utility.yul\":1249:1287   */\n      mstore\n        /* \"#utility.yul\":1342:1348   */\n      dup2\n        /* \"#utility.yul\":1335:1349   */\n      iszero\n        /* \"#utility.yul\":1328:1350   */\n      iszero\n        /* \"#utility.yul\":1320:1326   */\n      dup3\n        /* \"#utility.yul\":1316:1351   */\n      mul\n        /* \"#utility.yul\":1311:1314   */\n      dup7\n        /* \"#utility.yul\":1307:1352   */\n      add\n        /* \"#utility.yul\":1300:1352   */\n      swap4\n      pop\n        /* \"#utility.yul\":1196:1362   */\n      jump(tag_150)\n        /* \"#utility.yul\":1371:1712   */\n    tag_152:\n        /* \"#utility.yul\":1438:1476   */\n      tag_153\n        /* \"#utility.yul\":1470:1475   */\n      dup6\n        /* \"#utility.yul\":1438:1476   */\n      tag_92\n      jump\t// in\n    tag_153:\n        /* \"#utility.yul\":1498:1499   */\n      0x00\n        /* \"#utility.yul\":1512:1666   */\n    tag_154:\n        /* \"#utility.yul\":1526:1532   */\n      dup4\n        /* \"#utility.yul\":1523:1524   */\n      dup2\n        /* \"#utility.yul\":1520:1533   */\n      lt\n        /* \"#utility.yul\":1512:1666   */\n      iszero\n      tag_156\n      jumpi\n        /* \"#utility.yul\":1600:1607   */\n      dup2\n        /* \"#utility.yul\":1594:1608   */\n      sload\n        /* \"#utility.yul\":1590:1591   */\n      dup2\n        /* \"#utility.yul\":1585:1588   */\n      dup10\n        /* \"#utility.yul\":1581:1592   */\n      add\n        /* \"#utility.yul\":1574:1609   */\n      mstore\n        /* \"#utility.yul\":1650:1651   */\n      0x01\n        /* \"#utility.yul\":1641:1648   */\n      dup3\n        /* \"#utility.yul\":1637:1652   */\n      add\n        /* \"#utility.yul\":1626:1652   */\n      swap2\n      pop\n        /* \"#utility.yul\":1548:1552   */\n      0x20\n        /* \"#utility.yul\":1545:1546   */\n      dup2\n        /* \"#utility.yul\":1541:1553   */\n      add\n        /* \"#utility.yul\":1536:1553   */\n      swap1\n      pop\n        /* \"#utility.yul\":1512:1666   */\n      jump(tag_154)\n    tag_156:\n        /* \"#utility.yul\":1695:1701   */\n      dup4\n        /* \"#utility.yul\":1690:1693   */\n      dup9\n        /* \"#utility.yul\":1686:1702   */\n      add\n        /* \"#utility.yul\":1679:1702   */\n      swap6\n      pop\n        /* \"#utility.yul\":1378:1712   */\n      pop\n      pop\n        /* \"#utility.yul\":1163:1712   */\n    tag_150:\n      pop\n        /* \"#utility.yul\":951:1718   */\n      pop\n      pop\n        /* \"#utility.yul\":844:1718   */\n      swap3\n      swap2\n      pop\n      pop\n      jump\t// out\n        /* \"#utility.yul\":1724:1993   */\n    tag_15:\n        /* \"#utility.yul\":1853:1856   */\n      0x00\n        /* \"#utility.yul\":1875:1967   */\n      tag_158\n        /* \"#utility.yul\":1963:1966   */\n      dup3\n        /* \"#utility.yul\":1954:1960   */\n      dup5\n        /* \"#utility.yul\":1875:1967   */\n      tag_93\n      jump\t// in\n    tag_158:\n        /* \"#utility.yul\":1868:1967   */\n      swap2\n      pop\n        /* \"#utility.yul\":1984:1987   */\n      dup2\n        /* \"#utility.yul\":1977:1987   */\n      swap1\n      pop\n        /* \"#utility.yul\":1724:1993   */\n      swap3\n      swap2\n      pop\n      pop\n      jump\t// out\n        /* \"#utility.yul\":1999:2074   */\n    tag_94:\n        /* \"#utility.yul\":2032:2038   */\n      0x00\n        /* \"#utility.yul\":2065:2067   */\n      0x40\n        /* \"#utility.yul\":2059:2068   */\n      mload\n        /* \"#utility.yul\":2049:2068   */\n      swap1\n      pop\n        /* \"#utility.yul\":1999:2074   */\n      swap1\n      jump\t// out\n        /* \"#utility.yul\":2080:2197   */\n    tag_95:\n        /* \"#utility.yul\":2189:2190   */\n      0x00\n        /* \"#utility.yul\":2186:2187   */\n      dup1\n        /* \"#utility.yul\":2179:2191   */\n      revert\n        /* \"#utility.yul\":2203:2320   */\n    tag_96:\n        /* \"#utility.yul\":2312:2313   */\n      0x00\n        /* \"#utility.yul\":2309:2310   */\n      dup1\n        /* \"#utility.yul\":2302:2314   */\n      revert\n        /* \"#utility.yul\":2326:2452   */\n    tag_97:\n        /* \"#utility.yul\":2363:2370   */\n      0x00\n        /* \"#utility.yul\":2403:2445   */\n      0xffffffffffffffffffffffffffffffffffffffff\n        /* \"#utility.yul\":2396:2401   */\n      dup3\n        /* \"#utility.yul\":2392:2446   */\n      and\n        /* \"#utility.yul\":2381:2446   */\n      swap1\n      pop\n        /* \"#utility.yul\":2326:2452   */\n      swap2\n      swap1\n      pop\n      jump\t// out\n        /* \"#utility.yul\":2458:2554   */\n    tag_98:\n        /* \"#utility.yul\":2495:2502   */\n      0x00\n        /* \"#utility.yul\":2524:2548   */\n      tag_164\n        /* \"#utility.yul\":2542:2547   */\n      dup3\n        /* \"#utility.yul\":2524:2548   */\n      tag_97\n      jump\t// in\n    tag_164:\n        /* \"#utility.yul\":2513:2548   */\n      swap1\n      pop\n        /* \"#utility.yul\":2458:2554   */\n      swap2\n      swap1\n      pop\n      jump\t// out\n        /* \"#utility.yul\":2560:2682   */\n    tag_99:\n        /* \"#utility.yul\":2633:2657   */\n      tag_166\n        /* \"#utility.yul\":2651:2656   */\n      dup2\n        /* \"#utility.yul\":2633:2657   */\n      tag_98\n      jump\t// in\n    tag_166:\n        /* \"#utility.yul\":2626:2631   */\n      dup2\n        /* \"#utility.yul\":2623:2658   */\n      eq\n        /* \"#utility.yul\":2613:2676   */\n      tag_167\n      jumpi\n        /* \"#utility.yul\":2672:2673   */\n      0x00\n        /* \"#utility.yul\":2669:2670   */\n      dup1\n        /* \"#utility.yul\":2662:2674   */\n      revert\n        /* \"#utility.yul\":2613:2676   */\n    tag_167:\n        /* \"#utility.yul\":2560:2682   */\n      pop\n      jump\t// out\n        /* \"#utility.yul\":2688:2827   */\n    tag_100:\n        /* \"#utility.yul\":2734:2739   */\n      0x00\n        /* \"#utility.yul\":2772:2778   */\n      dup2\n        /* \"#utility.yul\":2759:2779   */\n      calldataload\n        /* \"#utility.yul\":2750:2779   */\n      swap1\n      pop\n        /* \"#utility.yul\":2788:2821   */\n      tag_169\n        /* \"#utility.yul\":2815:2820   */\n      dup2\n        /* \"#utility.yul\":2788:2821   */\n      tag_99\n      jump\t// in\n    tag_169:\n        /* \"#utility.yul\":2688:2827   */\n      swap3\n      swap2\n      pop\n      pop\n      jump\t// out\n        /* \"#utility.yul\":2833:3162   */\n    tag_20:\n        /* \"#utility.yul\":2892:2898   */\n      0x00\n        /* \"#utility.yul\":2941:2943   */\n      0x20\n        /* \"#utility.yul\":2929:2938   */\n      dup3\n        /* \"#utility.yul\":2920:2927   */\n      dup5\n        /* \"#utility.yul\":2916:2939   */\n      sub\n        /* \"#utility.yul\":2912:2944   */\n      slt\n        /* \"#utility.yul\":2909:3028   */\n      iszero\n      tag_171\n      jumpi\n        /* \"#utility.yul\":2947:3026   */\n      tag_172\n      tag_95\n      jump\t// in\n    tag_172:\n        /* \"#utility.yul\":2909:3028   */\n    tag_171:\n        /* \"#utility.yul\":3067:3068   */\n      0x00\n        /* \"#utility.yul\":3092:3145   */\n      tag_173\n        /* \"#utility.yul\":3137:3144   */\n      dup5\n        /* \"#utility.yul\":3128:3134   */\n      dup3\n        /* \"#utility.yul\":3117:3126   */\n      dup6\n        /* \"#utility.yul\":3113:3135   */\n      add\n        /* \"#utility.yul\":3092:3145   */\n      tag_100\n      jump\t// in\n    tag_173:\n        /* \"#utility.yul\":3082:3145   */\n      swap2\n      pop\n        /* \"#utility.yul\":3038:3155   */\n      pop\n        /* \"#utility.yul\":2833:3162   */\n      swap3\n      swap2\n      pop\n      pop\n      jump\t// out\n        /* \"#utility.yul\":3168:3285   */\n    tag_101:\n        /* \"#utility.yul\":3277:3278   */\n      0x00\n        /* \"#utility.yul\":3274:3275   */\n      dup1\n        /* \"#utility.yul\":3267:3279   */\n      revert\n        /* \"#utility.yul\":3291:3408   */\n    tag_102:\n        /* \"#utility.yul\":3400:3401   */\n      0x00\n        /* \"#utility.yul\":3397:3398   */\n      dup1\n        /* \"#utility.yul\":3390:3402   */\n      revert\n        /* \"#utility.yul\":3414:3516   */\n    tag_103:\n        /* \"#utility.yul\":3455:3461   */\n      0x00\n        /* \"#utility.yul\":3506:3508   */\n      0x1f\n        /* \"#utility.yul\":3502:3509   */\n      not\n        /* \"#utility.yul\":3497:3499   */\n      0x1f\n        /* \"#utility.yul\":3490:3495   */\n      dup4\n        /* \"#utility.yul\":3486:3500   */\n      add\n        /* \"#utility.yul\":3482:3510   */\n      and\n        /* \"#utility.yul\":3472:3510   */\n      swap1\n      pop\n        /* \"#utility.yul\":3414:3516   */\n      swap2\n      swap1\n      pop\n      jump\t// out\n        /* \"#utility.yul\":3522:3702   */\n    tag_104:\n        /* \"#utility.yul\":3570:3647   */\n      0x4e487b7100000000000000000000000000000000000000000000000000000000\n        /* \"#utility.yul\":3567:3568   */\n      0x00\n        /* \"#utility.yul\":3560:3648   */\n      mstore\n        /* \"#utility.yul\":3667:3671   */\n      0x41\n        /* \"#utility.yul\":3664:3665   */\n      0x04\n        /* \"#utility.yul\":3657:3672   */\n      mstore\n        /* \"#utility.yul\":3691:3695   */\n      0x24\n        /* \"#utility.yul\":3688:3689   */\n      0x00\n        /* \"#utility.yul\":3681:3696   */\n      revert\n        /* \"#utility.yul\":3708:3989   */\n    tag_105:\n        /* \"#utility.yul\":3791:3818   */\n      tag_179\n        /* \"#utility.yul\":3813:3817   */\n      dup3\n        /* \"#utility.yul\":3791:3818   */\n      tag_103\n      jump\t// in\n    tag_179:\n        /* \"#utility.yul\":3783:3789   */\n      dup2\n        /* \"#utility.yul\":3779:3819   */\n      add\n        /* \"#utility.yul\":3921:3927   */\n      dup2\n        /* \"#utility.yul\":3909:3919   */\n      dup2\n        /* \"#utility.yul\":3906:3928   */\n      lt\n        /* \"#utility.yul\":3885:3903   */\n      0xffffffffffffffff\n        /* \"#utility.yul\":3873:3883   */\n      dup3\n        /* \"#utility.yul\":3870:3904   */\n      gt\n        /* \"#utility.yul\":3867:3929   */\n      or\n        /* \"#utility.yul\":3864:3952   */\n      iszero\n      tag_180\n      jumpi\n        /* \"#utility.yul\":3932:3950   */\n      tag_181\n      tag_104\n      jump\t// in\n    tag_181:\n        /* \"#utility.yul\":3864:3952   */\n    tag_180:\n        /* \"#utility.yul\":3972:3982   */\n      dup1\n        /* \"#utility.yul\":3968:3970   */\n      0x40\n        /* \"#utility.yul\":3961:3983   */\n      mstore\n        /* \"#utility.yul\":3751:3989   */\n      pop\n        /* \"#utility.yul\":3708:3989   */\n      pop\n      pop\n      jump\t// out\n        /* \"#utility.yul\":3995:4124   */\n    tag_106:\n        /* \"#utility.yul\":4029:4035   */\n      0x00\n        /* \"#utility.yul\":4056:4076   */\n      tag_183\n      tag_94\n      jump\t// in\n    tag_183:\n        /* \"#utility.yul\":4046:4076   */\n      swap1\n      pop\n        /* \"#utility.yul\":4085:4118   */\n      tag_184\n        /* \"#utility.yul\":4113:4117   */\n      dup3\n        /* \"#utility.yul\":4105:4111   */\n      dup3\n        /* \"#utility.yul\":4085:4118   */\n      tag_105\n      jump\t// in\n    tag_184:\n        /* \"#utility.yul\":3995:4124   */\n      swap2\n      swap1\n      pop\n      jump\t// out\n        /* \"#utility.yul\":4130:4438   */\n    tag_107:\n        /* \"#utility.yul\":4192:4196   */\n      0x00\n        /* \"#utility.yul\":4282:4300   */\n      0xffffffffffffffff\n        /* \"#utility.yul\":4274:4280   */\n      dup3\n        /* \"#utility.yul\":4271:4301   */\n      gt\n        /* \"#utility.yul\":4268:4324   */\n      iszero\n      tag_186\n      jumpi\n        /* \"#utility.yul\":4304:4322   */\n      tag_187\n      tag_104\n      jump\t// in\n    tag_187:\n        /* \"#utility.yul\":4268:4324   */\n    tag_186:\n        /* \"#utility.yul\":4342:4371   */\n      tag_188\n        /* \"#utility.yul\":4364:4370   */\n      dup3\n        /* \"#utility.yul\":4342:4371   */\n      tag_103\n      jump\t// in\n    tag_188:\n        /* \"#utility.yul\":4334:4371   */\n      swap1\n      pop\n        /* \"#utility.yul\":4426:4430   */\n      0x20\n        /* \"#utility.yul\":4420:4424   */\n      dup2\n        /* \"#utility.yul\":4416:4431   */\n      add\n        /* \"#utility.yul\":4408:4431   */\n      swap1\n      pop\n        /* \"#utility.yul\":4130:4438   */\n      swap2\n      swap1\n      pop\n      jump\t// out\n        /* \"#utility.yul\":4444:4598   */\n    tag_108:\n        /* \"#utility.yul\":4528:4534   */\n      dup3\n        /* \"#utility.yul\":4523:4526   */\n      dup2\n        /* \"#utility.yul\":4518:4521   */\n      dup4\n        /* \"#utility.yul\":4505:4535   */\n      calldatacopy\n        /* \"#utility.yul\":4590:4591   */\n      0x00\n        /* \"#utility.yul\":4581:4587   */\n      dup4\n        /* \"#utility.yul\":4576:4579   */\n      dup4\n        /* \"#utility.yul\":4572:4588   */\n      add\n        /* \"#utility.yul\":4565:4592   */\n      mstore\n        /* \"#utility.yul\":4444:4598   */\n      pop\n      pop\n      pop\n      jump\t// out\n        /* \"#utility.yul\":4604:5016   */\n    tag_109:\n        /* \"#utility.yul\":4682:4687   */\n      0x00\n        /* \"#utility.yul\":4707:4773   */\n      tag_191\n        /* \"#utility.yul\":4723:4772   */\n      tag_192\n        /* \"#utility.yul\":4765:4771   */\n      dup5\n        /* \"#utility.yul\":4723:4772   */\n      tag_107\n      jump\t// in\n    tag_192:\n        /* \"#utility.yul\":4707:4773   */\n      tag_106\n      jump\t// in\n    tag_191:\n        /* \"#utility.yul\":4698:4773   */\n      swap1\n      pop\n        /* \"#utility.yul\":4796:4802   */\n      dup3\n        /* \"#utility.yul\":4789:4794   */\n      dup2\n        /* \"#utility.yul\":4782:4803   */\n      mstore\n        /* \"#utility.yul\":4834:4838   */\n      0x20\n        /* \"#utility.yul\":4827:4832   */\n      dup2\n        /* \"#utility.yul\":4823:4839   */\n      add\n        /* \"#utility.yul\":4872:4875   */\n      dup5\n        /* \"#utility.yul\":4863:4869   */\n      dup5\n        /* \"#utility.yul\":4858:4861   */\n      dup5\n        /* \"#utility.yul\":4854:4870   */\n      add\n        /* \"#utility.yul\":4851:4876   */\n      gt\n        /* \"#utility.yul\":4848:4960   */\n      iszero\n      tag_193\n      jumpi\n        /* \"#utility.yul\":4879:4958   */\n      tag_194\n      tag_102\n      jump\t// in\n    tag_194:\n        /* \"#utility.yul\":4848:4960   */\n    tag_193:\n        /* \"#utility.yul\":4969:5010   */\n      tag_195\n        /* \"#utility.yul\":5003:5009   */\n      dup5\n        /* \"#utility.yul\":4998:5001   */\n      dup3\n        /* \"#utility.yul\":4993:4996   */\n      dup6\n        /* \"#utility.yul\":4969:5010   */\n      tag_108\n      jump\t// in\n    tag_195:\n        /* \"#utility.yul\":4688:5016   */\n      pop\n        /* \"#utility.yul\":4604:5016   */\n      swap4\n      swap3\n      pop\n      pop\n      pop\n      jump\t// out\n        /* \"#utility.yul\":5036:5376   */\n    tag_110:\n        /* \"#utility.yul\":5092:5097   */\n      0x00\n        /* \"#utility.yul\":5141:5144   */\n      dup3\n        /* \"#utility.yul\":5134:5138   */\n      0x1f\n        /* \"#utility.yul\":5126:5132   */\n      dup4\n        /* \"#utility.yul\":5122:5139   */\n      add\n        /* \"#utility.yul\":5118:5145   */\n      slt\n        /* \"#utility.yul\":5108:5230   */\n      tag_197\n      jumpi\n        /* \"#utility.yul\":5149:5228   */\n      tag_198\n      tag_101\n      jump\t// in\n    tag_198:\n        /* \"#utility.yul\":5108:5230   */\n    tag_197:\n        /* \"#utility.yul\":5266:5272   */\n      dup2\n        /* \"#utility.yul\":5253:5273   */\n      calldataload\n        /* \"#utility.yul\":5291:5370   */\n      tag_199\n        /* \"#utility.yul\":5366:5369   */\n      dup5\n        /* \"#utility.yul\":5358:5364   */\n      dup3\n        /* \"#utility.yul\":5351:5355   */\n      0x20\n        /* \"#utility.yul\":5343:5349   */\n      dup7\n        /* \"#utility.yul\":5339:5356   */\n      add\n        /* \"#utility.yul\":5291:5370   */\n      tag_109\n      jump\t// in\n    tag_199:\n        /* \"#utility.yul\":5282:5370   */\n      swap2\n      pop\n        /* \"#utility.yul\":5098:5376   */\n      pop\n        /* \"#utility.yul\":5036:5376   */\n      swap3\n      swap2\n      pop\n      pop\n      jump\t// out\n        /* \"#utility.yul\":5382:5459   */\n    tag_111:\n        /* \"#utility.yul\":5419:5426   */\n      0x00\n        /* \"#utility.yul\":5448:5453   */\n      dup2\n        /* \"#utility.yul\":5437:5453   */\n      swap1\n      pop\n        /* \"#utility.yul\":5382:5459   */\n      swap2\n      swap1\n      pop\n      jump\t// out\n        /* \"#utility.yul\":5465:5587   */\n    tag_112:\n        /* \"#utility.yul\":5538:5562   */\n      tag_202\n        /* \"#utility.yul\":5556:5561   */\n      dup2\n        /* \"#utility.yul\":5538:5562   */\n      tag_111\n      jump\t// in\n    tag_202:\n        /* \"#utility.yul\":5531:5536   */\n      dup2\n        /* \"#utility.yul\":5528:5563   */\n      eq\n        /* \"#utility.yul\":5518:5581   */\n      tag_203\n      jumpi\n        /* \"#utility.yul\":5577:5578   */\n      0x00\n        /* \"#utility.yul\":5574:5575   */\n      dup1\n        /* \"#utility.yul\":5567:5579   */\n      revert\n        /* \"#utility.yul\":5518:5581   */\n    tag_203:\n        /* \"#utility.yul\":5465:5587   */\n      pop\n      jump\t// out\n        /* \"#utility.yul\":5593:5732   */\n    tag_113:\n        /* \"#utility.yul\":5639:5644   */\n      0x00\n        /* \"#utility.yul\":5677:5683   */\n      dup2\n        /* \"#utility.yul\":5664:5684   */\n      calldataload\n        /* \"#utility.yul\":5655:5684   */\n      swap1\n      pop\n        /* \"#utility.yul\":5693:5726   */\n      tag_205\n        /* \"#utility.yul\":5720:5725   */\n      dup2\n        /* \"#utility.yul\":5693:5726   */\n      tag_112\n      jump\t// in\n    tag_205:\n        /* \"#utility.yul\":5593:5732   */\n      swap3\n      swap2\n      pop\n      pop\n      jump\t// out\n        /* \"#utility.yul\":5738:7189   */\n    tag_24:\n        /* \"#utility.yul\":5863:5869   */\n      0x00\n        /* \"#utility.yul\":5871:5877   */\n      dup1\n        /* \"#utility.yul\":5879:5885   */\n      0x00\n        /* \"#utility.yul\":5887:5893   */\n      dup1\n        /* \"#utility.yul\":5895:5901   */\n      0x00\n        /* \"#utility.yul\":5944:5947   */\n      0xa0\n        /* \"#utility.yul\":5932:5941   */\n      dup7\n        /* \"#utility.yul\":5923:5930   */\n      dup9\n        /* \"#utility.yul\":5919:5942   */\n      sub\n        /* \"#utility.yul\":5915:5948   */\n      slt\n        /* \"#utility.yul\":5912:6032   */\n      iszero\n      tag_207\n      jumpi\n        /* \"#utility.yul\":5951:6030   */\n      tag_208\n      tag_95\n      jump\t// in\n    tag_208:\n        /* \"#utility.yul\":5912:6032   */\n    tag_207:\n        /* \"#utility.yul\":6099:6100   */\n      0x00\n        /* \"#utility.yul\":6088:6097   */\n      dup7\n        /* \"#utility.yul\":6084:6101   */\n      add\n        /* \"#utility.yul\":6071:6102   */\n      calldataload\n        /* \"#utility.yul\":6129:6147   */\n      0xffffffffffffffff\n        /* \"#utility.yul\":6121:6127   */\n      dup2\n        /* \"#utility.yul\":6118:6148   */\n      gt\n        /* \"#utility.yul\":6115:6232   */\n      iszero\n      tag_209\n      jumpi\n        /* \"#utility.yul\":6151:6230   */\n      tag_210\n      tag_96\n      jump\t// in\n    tag_210:\n        /* \"#utility.yul\":6115:6232   */\n    tag_209:\n        /* \"#utility.yul\":6256:6319   */\n      tag_211\n        /* \"#utility.yul\":6311:6318   */\n      dup9\n        /* \"#utility.yul\":6302:6308   */\n      dup3\n        /* \"#utility.yul\":6291:6300   */\n      dup10\n        /* \"#utility.yul\":6287:6309   */\n      add\n        /* \"#utility.yul\":6256:6319   */\n      tag_110\n      jump\t// in\n    tag_211:\n        /* \"#utility.yul\":6246:6319   */\n      swap6\n      pop\n        /* \"#utility.yul\":6042:6329   */\n      pop\n        /* \"#utility.yul\":6396:6398   */\n      0x20\n        /* \"#utility.yul\":6385:6394   */\n      dup7\n        /* \"#utility.yul\":6381:6399   */\n      add\n        /* \"#utility.yul\":6368:6400   */\n      calldataload\n        /* \"#utility.yul\":6427:6445   */\n      0xffffffffffffffff\n        /* \"#utility.yul\":6419:6425   */\n      dup2\n        /* \"#utility.yul\":6416:6446   */\n      gt\n        /* \"#utility.yul\":6413:6530   */\n      iszero\n      tag_212\n      jumpi\n        /* \"#utility.yul\":6449:6528   */\n      tag_213\n      tag_96\n      jump\t// in\n    tag_213:\n        /* \"#utility.yul\":6413:6530   */\n    tag_212:\n        /* \"#utility.yul\":6554:6617   */\n      tag_214\n        /* \"#utility.yul\":6609:6616   */\n      dup9\n        /* \"#utility.yul\":6600:6606   */\n      dup3\n        /* \"#utility.yul\":6589:6598   */\n      dup10\n        /* \"#utility.yul\":6585:6607   */\n      add\n        /* \"#utility.yul\":6554:6617   */\n      tag_110\n      jump\t// in\n    tag_214:\n        /* \"#utility.yul\":6544:6617   */\n      swap5\n      pop\n        /* \"#utility.yul\":6339:6627   */\n      pop\n        /* \"#utility.yul\":6666:6668   */\n      0x40\n        /* \"#utility.yul\":6692:6745   */\n      tag_215\n        /* \"#utility.yul\":6737:6744   */\n      dup9\n        /* \"#utility.yul\":6728:6734   */\n      dup3\n        /* \"#utility.yul\":6717:6726   */\n      dup10\n        /* \"#utility.yul\":6713:6735   */\n      add\n        /* \"#utility.yul\":6692:6745   */\n      tag_113\n      jump\t// in\n    tag_215:\n        /* \"#utility.yul\":6682:6745   */\n      swap4\n      pop\n        /* \"#utility.yul\":6637:6755   */\n      pop\n        /* \"#utility.yul\":6794:6796   */\n      0x60\n        /* \"#utility.yul\":6820:6873   */\n      tag_216\n        /* \"#utility.yul\":6865:6872   */\n      dup9\n        /* \"#utility.yul\":6856:6862   */\n      dup3\n        /* \"#utility.yul\":6845:6854   */\n      dup10\n        /* \"#utility.yul\":6841:6863   */\n      add\n        /* \"#utility.yul\":6820:6873   */\n      tag_113\n      jump\t// in\n    tag_216:\n        /* \"#utility.yul\":6810:6873   */\n      swap3\n      pop\n        /* \"#utility.yul\":6765:6883   */\n      pop\n        /* \"#utility.yul\":6950:6953   */\n      0x80\n        /* \"#utility.yul\":6939:6948   */\n      dup7\n        /* \"#utility.yul\":6935:6954   */\n      add\n        /* \"#utility.yul\":6922:6955   */\n      calldataload\n        /* \"#utility.yul\":6982:7000   */\n      0xffffffffffffffff\n        /* \"#utility.yul\":6974:6980   */\n      dup2\n        /* \"#utility.yul\":6971:7001   */\n      gt\n        /* \"#utility.yul\":6968:7085   */\n      iszero\n      tag_217\n      jumpi\n        /* \"#utility.yul\":7004:7083   */\n      tag_218\n      tag_96\n      jump\t// in\n    tag_218:\n        /* \"#utility.yul\":6968:7085   */\n    tag_217:\n        /* \"#utility.yul\":7109:7172   */\n      tag_219\n        /* \"#utility.yul\":7164:7171   */\n      dup9\n        /* \"#utility.yul\":7155:7161   */\n      dup3\n        /* \"#utility.yul\":7144:7153   */\n      dup10\n        /* \"#utility.yul\":7140:7162   */\n      add\n        /* \"#utility.yul\":7109:7172   */\n      tag_110\n      jump\t// in\n    tag_219:\n        /* \"#utility.yul\":7099:7172   */\n      swap2\n      pop\n        /* \"#utility.yul\":6893:7182   */\n      pop\n        /* \"#utility.yul\":5738:7189   */\n      swap3\n      swap6\n      pop\n      swap3\n      swap6\n      swap1\n      swap4\n      pop\n      jump\t// out\n        /* \"#utility.yul\":7195:7285   */\n    tag_114:\n        /* \"#utility.yul\":7229:7236   */\n      0x00\n        /* \"#utility.yul\":7272:7277   */\n      dup2\n        /* \"#utility.yul\":7265:7278   */\n      iszero\n        /* \"#utility.yul\":7258:7279   */\n      iszero\n        /* \"#utility.yul\":7247:7279   */\n      swap1\n      pop\n        /* \"#utility.yul\":7195:7285   */\n      swap2\n      swap1\n      pop\n      jump\t// out\n        /* \"#utility.yul\":7291:7400   */\n    tag_115:\n        /* \"#utility.yul\":7372:7393   */\n      tag_222\n        /* \"#utility.yul\":7387:7392   */\n      dup2\n        /* \"#utility.yul\":7372:7393   */\n      tag_114\n      jump\t// in\n    tag_222:\n        /* \"#utility.yul\":7367:7370   */\n      dup3\n        /* \"#utility.yul\":7360:7394   */\n      mstore\n        /* \"#utility.yul\":7291:7400   */\n      pop\n      pop\n      jump\t// out\n        /* \"#utility.yul\":7406:7616   */\n    tag_34:\n        /* \"#utility.yul\":7493:7497   */\n      0x00\n        /* \"#utility.yul\":7531:7533   */\n      0x20\n        /* \"#utility.yul\":7520:7529   */\n      dup3\n        /* \"#utility.yul\":7516:7534   */\n      add\n        /* \"#utility.yul\":7508:7534   */\n      swap1\n      pop\n        /* \"#utility.yul\":7544:7609   */\n      tag_224\n        /* \"#utility.yul\":7606:7607   */\n      0x00\n        /* \"#utility.yul\":7595:7604   */\n      dup4\n        /* \"#utility.yul\":7591:7608   */\n      add\n        /* \"#utility.yul\":7582:7588   */\n      dup5\n        /* \"#utility.yul\":7544:7609   */\n      tag_115\n      jump\t// in\n    tag_224:\n        /* \"#utility.yul\":7406:7616   */\n      swap3\n      swap2\n      pop\n      pop\n      jump\t// out\n        /* \"#utility.yul\":7622:7740   */\n    tag_116:\n        /* \"#utility.yul\":7709:7733   */\n      tag_226\n        /* \"#utility.yul\":7727:7732   */\n      dup2\n        /* \"#utility.yul\":7709:7733   */\n      tag_98\n      jump\t// in\n    tag_226:\n        /* \"#utility.yul\":7704:7707   */\n      dup3\n        /* \"#utility.yul\":7697:7734   */\n      mstore\n        /* \"#utility.yul\":7622:7740   */\n      pop\n      pop\n      jump\t// out\n        /* \"#utility.yul\":7746:7968   */\n    tag_39:\n        /* \"#utility.yul\":7839:7843   */\n      0x00\n        /* \"#utility.yul\":7877:7879   */\n      0x20\n        /* \"#utility.yul\":7866:7875   */\n      dup3\n        /* \"#utility.yul\":7862:7880   */\n      add\n        /* \"#utility.yul\":7854:7880   */\n      swap1\n      pop\n        /* \"#utility.yul\":7890:7961   */\n      tag_228\n        /* \"#utility.yul\":7958:7959   */\n      0x00\n        /* \"#utility.yul\":7947:7956   */\n      dup4\n        /* \"#utility.yul\":7943:7960   */\n      add\n        /* \"#utility.yul\":7934:7940   */\n      dup5\n        /* \"#utility.yul\":7890:7961   */\n      tag_116\n      jump\t// in\n    tag_228:\n        /* \"#utility.yul\":7746:7968   */\n      swap3\n      swap2\n      pop\n      pop\n      jump\t// out\n        /* \"#utility.yul\":7974:8483   */\n    tag_43:\n        /* \"#utility.yul\":8043:8049   */\n      0x00\n        /* \"#utility.yul\":8092:8094   */\n      0x20\n        /* \"#utility.yul\":8080:8089   */\n      dup3\n        /* \"#utility.yul\":8071:8078   */\n      dup5\n        /* \"#utility.yul\":8067:8090   */\n      sub\n        /* \"#utility.yul\":8063:8095   */\n      slt\n        /* \"#utility.yul\":8060:8179   */\n      iszero\n      tag_230\n      jumpi\n        /* \"#utility.yul\":8098:8177   */\n      tag_231\n      tag_95\n      jump\t// in\n    tag_231:\n        /* \"#utility.yul\":8060:8179   */\n    tag_230:\n        /* \"#utility.yul\":8246:8247   */\n      0x00\n        /* \"#utility.yul\":8235:8244   */\n      dup3\n        /* \"#utility.yul\":8231:8248   */\n      add\n        /* \"#utility.yul\":8218:8249   */\n      calldataload\n        /* \"#utility.yul\":8276:8294   */\n      0xffffffffffffffff\n        /* \"#utility.yul\":8268:8274   */\n      dup2\n        /* \"#utility.yul\":8265:8295   */\n      gt\n        /* \"#utility.yul\":8262:8379   */\n      iszero\n      tag_232\n      jumpi\n        /* \"#utility.yul\":8298:8377   */\n      tag_233\n      tag_96\n      jump\t// in\n    tag_233:\n        /* \"#utility.yul\":8262:8379   */\n    tag_232:\n        /* \"#utility.yul\":8403:8466   */\n      tag_234\n        /* \"#utility.yul\":8458:8465   */\n      dup5\n        /* \"#utility.yul\":8449:8455   */\n      dup3\n        /* \"#utility.yul\":8438:8447   */\n      dup6\n        /* \"#utility.yul\":8434:8456   */\n      add\n        /* \"#utility.yul\":8403:8466   */\n      tag_110\n      jump\t// in\n    tag_234:\n        /* \"#utility.yul\":8393:8466   */\n      swap2\n      pop\n        /* \"#utility.yul\":8189:8476   */\n      pop\n        /* \"#utility.yul\":7974:8483   */\n      swap3\n      swap2\n      pop\n      pop\n      jump\t// out\n        /* \"#utility.yul\":8489:8607   */\n    tag_117:\n        /* \"#utility.yul\":8576:8600   */\n      tag_236\n        /* \"#utility.yul\":8594:8599   */\n      dup2\n        /* \"#utility.yul\":8576:8600   */\n      tag_111\n      jump\t// in\n    tag_236:\n        /* \"#utility.yul\":8571:8574   */\n      dup3\n        /* \"#utility.yul\":8564:8601   */\n      mstore\n        /* \"#utility.yul\":8489:8607   */\n      pop\n      pop\n      jump\t// out\n        /* \"#utility.yul\":8613:8835   */\n    tag_50:\n        /* \"#utility.yul\":8706:8710   */\n      0x00\n        /* \"#utility.yul\":8744:8746   */\n      0x20\n        /* \"#utility.yul\":8733:8742   */\n      dup3\n        /* \"#utility.yul\":8729:8747   */\n      add\n        /* \"#utility.yul\":8721:8747   */\n      swap1\n      pop\n        /* \"#utility.yul\":8757:8828   */\n      tag_238\n        /* \"#utility.yul\":8825:8826   */\n      0x00\n        /* \"#utility.yul\":8814:8823   */\n      dup4\n        /* \"#utility.yul\":8810:8827   */\n      add\n        /* \"#utility.yul\":8801:8807   */\n      dup5\n        /* \"#utility.yul\":8757:8828   */\n      tag_117\n      jump\t// in\n    tag_238:\n        /* \"#utility.yul\":8613:8835   */\n      swap3\n      swap2\n      pop\n      pop\n      jump\t// out\n        /* \"#utility.yul\":8841:9495   */\n    tag_54:\n        /* \"#utility.yul\":8919:8925   */\n      0x00\n        /* \"#utility.yul\":8927:8933   */\n      dup1\n        /* \"#utility.yul\":8976:8978   */\n      0x40\n        /* \"#utility.yul\":8964:8973   */\n      dup4\n        /* \"#utility.yul\":8955:8962   */\n      dup6\n        /* \"#utility.yul\":8951:8974   */\n      sub\n        /* \"#utility.yul\":8947:8979   */\n      slt\n        /* \"#utility.yul\":8944:9063   */\n      iszero\n      tag_240\n      jumpi\n        /* \"#utility.yul\":8982:9061   */\n      tag_241\n      tag_95\n      jump\t// in\n    tag_241:\n        /* \"#utility.yul\":8944:9063   */\n    tag_240:\n        /* \"#utility.yul\":9130:9131   */\n      0x00\n        /* \"#utility.yul\":9119:9128   */\n      dup4\n        /* \"#utility.yul\":9115:9132   */\n      add\n        /* \"#utility.yul\":9102:9133   */\n      calldataload\n        /* \"#utility.yul\":9160:9178   */\n      0xffffffffffffffff\n        /* \"#utility.yul\":9152:9158   */\n      dup2\n        /* \"#utility.yul\":9149:9179   */\n      gt\n        /* \"#utility.yul\":9146:9263   */\n      iszero\n      tag_242\n      jumpi\n        /* \"#utility.yul\":9182:9261   */\n      tag_243\n      tag_96\n      jump\t// in\n    tag_243:\n        /* \"#utility.yul\":9146:9263   */\n    tag_242:\n        /* \"#utility.yul\":9287:9350   */\n      tag_244\n        /* \"#utility.yul\":9342:9349   */\n      dup6\n        /* \"#utility.yul\":9333:9339   */\n      dup3\n        /* \"#utility.yul\":9322:9331   */\n      dup7\n        /* \"#utility.yul\":9318:9340   */\n      add\n        /* \"#utility.yul\":9287:9350   */\n      tag_110\n      jump\t// in\n    tag_244:\n        /* \"#utility.yul\":9277:9350   */\n      swap3\n      pop\n        /* \"#utility.yul\":9073:9360   */\n      pop\n        /* \"#utility.yul\":9399:9401   */\n      0x20\n        /* \"#utility.yul\":9425:9478   */\n      tag_245\n        /* \"#utility.yul\":9470:9477   */\n      dup6\n        /* \"#utility.yul\":9461:9467   */\n      dup3\n        /* \"#utility.yul\":9450:9459   */\n      dup7\n        /* \"#utility.yul\":9446:9468   */\n      add\n        /* \"#utility.yul\":9425:9478   */\n      tag_100\n      jump\t// in\n    tag_245:\n        /* \"#utility.yul\":9415:9478   */\n      swap2\n      pop\n        /* \"#utility.yul\":9370:9488   */\n      pop\n        /* \"#utility.yul\":8841:9495   */\n      swap3\n      pop\n      swap3\n      swap1\n      pop\n      jump\t// out\n        /* \"#utility.yul\":9501:9670   */\n    tag_118:\n        /* \"#utility.yul\":9585:9596   */\n      0x00\n        /* \"#utility.yul\":9619:9625   */\n      dup3\n        /* \"#utility.yul\":9614:9617   */\n      dup3\n        /* \"#utility.yul\":9607:9626   */\n      mstore\n        /* \"#utility.yul\":9659:9663   */\n      0x20\n        /* \"#utility.yul\":9654:9657   */\n      dup3\n        /* \"#utility.yul\":9650:9664   */\n      add\n        /* \"#utility.yul\":9635:9664   */\n      swap1\n      pop\n        /* \"#utility.yul\":9501:9670   */\n      swap3\n      swap2\n      pop\n      pop\n      jump\t// out\n        /* \"#utility.yul\":9676:9858   */\n    tag_119:\n        /* \"#utility.yul\":9816:9850   */\n      0x4f776e61626c653a2063616c6c6572206973206e6f7420746865206f776e6572\n        /* \"#utility.yul\":9812:9813   */\n      0x00\n        /* \"#utility.yul\":9804:9810   */\n      dup3\n        /* \"#utility.yul\":9800:9814   */\n      add\n        /* \"#utility.yul\":9793:9851   */\n      mstore\n        /* \"#utility.yul\":9676:9858   */\n      pop\n      jump\t// out\n        /* \"#utility.yul\":9864:10230   */\n    tag_120:\n        /* \"#utility.yul\":10006:10009   */\n      0x00\n        /* \"#utility.yul\":10027:10094   */\n      tag_249\n        /* \"#utility.yul\":10091:10093   */\n      0x20\n        /* \"#utility.yul\":10086:10089   */\n      dup4\n        /* \"#utility.yul\":10027:10094   */\n      tag_118\n      jump\t// in\n    tag_249:\n        /* \"#utility.yul\":10020:10094   */\n      swap2\n      pop\n        /* \"#utility.yul\":10103:10196   */\n      tag_250\n        /* \"#utility.yul\":10192:10195   */\n      dup3\n        /* \"#utility.yul\":10103:10196   */\n      tag_119\n      jump\t// in\n    tag_250:\n        /* \"#utility.yul\":10221:10223   */\n      0x20\n        /* \"#utility.yul\":10216:10219   */\n      dup3\n        /* \"#utility.yul\":10212:10224   */\n      add\n        /* \"#utility.yul\":10205:10224   */\n      swap1\n      pop\n        /* \"#utility.yul\":9864:10230   */\n      swap2\n      swap1\n      pop\n      jump\t// out\n        /* \"#utility.yul\":10236:10655   */\n    tag_60:\n        /* \"#utility.yul\":10402:10406   */\n      0x00\n        /* \"#utility.yul\":10440:10442   */\n      0x20\n        /* \"#utility.yul\":10429:10438   */\n      dup3\n        /* \"#utility.yul\":10425:10443   */\n      add\n        /* \"#utility.yul\":10417:10443   */\n      swap1\n      pop\n        /* \"#utility.yul\":10489:10498   */\n      dup2\n        /* \"#utility.yul\":10483:10487   */\n      dup2\n        /* \"#utility.yul\":10479:10499   */\n      sub\n        /* \"#utility.yul\":10475:10476   */\n      0x00\n        /* \"#utility.yul\":10464:10473   */\n      dup4\n        /* \"#utility.yul\":10460:10477   */\n      add\n        /* \"#utility.yul\":10453:10500   */\n      mstore\n        /* \"#utility.yul\":10517:10648   */\n      tag_252\n        /* \"#utility.yul\":10643:10647   */\n      dup2\n        /* \"#utility.yul\":10517:10648   */\n      tag_120\n      jump\t// in\n    tag_252:\n        /* \"#utility.yul\":10509:10648   */\n      swap1\n      pop\n        /* \"#utility.yul\":10236:10655   */\n      swap2\n      swap1\n      pop\n      jump\t// out\n        /* \"#utility.yul\":10661:10760   */\n    tag_121:\n        /* \"#utility.yul\":10713:10719   */\n      0x00\n        /* \"#utility.yul\":10747:10752   */\n      dup2\n        /* \"#utility.yul\":10741:10753   */\n      mload\n        /* \"#utility.yul\":10731:10753   */\n      swap1\n      pop\n        /* \"#utility.yul\":10661:10760   */\n      swap2\n      swap1\n      pop\n      jump\t// out\n        /* \"#utility.yul\":10766:11073   */\n    tag_122:\n        /* \"#utility.yul\":10834:10835   */\n      0x00\n        /* \"#utility.yul\":10844:10957   */\n    tag_255:\n        /* \"#utility.yul\":10858:10864   */\n      dup4\n        /* \"#utility.yul\":10855:10856   */\n      dup2\n        /* \"#utility.yul\":10852:10865   */\n      lt\n        /* \"#utility.yul\":10844:10957   */\n      iszero\n      tag_257\n      jumpi\n        /* \"#utility.yul\":10943:10944   */\n      dup1\n        /* \"#utility.yul\":10938:10941   */\n      dup3\n        /* \"#utility.yul\":10934:10945   */\n      add\n        /* \"#utility.yul\":10928:10946   */\n      mload\n        /* \"#utility.yul\":10924:10925   */\n      dup2\n        /* \"#utility.yul\":10919:10922   */\n      dup5\n        /* \"#utility.yul\":10915:10926   */\n      add\n        /* \"#utility.yul\":10908:10947   */\n      mstore\n        /* \"#utility.yul\":10880:10882   */\n      0x20\n        /* \"#utility.yul\":10877:10878   */\n      dup2\n        /* \"#utility.yul\":10873:10883   */\n      add\n        /* \"#utility.yul\":10868:10883   */\n      swap1\n      pop\n        /* \"#utility.yul\":10844:10957   */\n      jump(tag_255)\n    tag_257:\n        /* \"#utility.yul\":10975:10981   */\n      dup4\n        /* \"#utility.yul\":10972:10973   */\n      dup2\n        /* \"#utility.yul\":10969:10982   */\n      gt\n        /* \"#utility.yul\":10966:11067   */\n      iszero\n      tag_258\n      jumpi\n        /* \"#utility.yul\":11055:11056   */\n      0x00\n        /* \"#utility.yul\":11046:11052   */\n      dup5\n        /* \"#utility.yul\":11041:11044   */\n      dup5\n        /* \"#utility.yul\":11037:11053   */\n      add\n        /* \"#utility.yul\":11030:11057   */\n      mstore\n        /* \"#utility.yul\":10966:11067   */\n    tag_258:\n        /* \"#utility.yul\":10815:11073   */\n      pop\n        /* \"#utility.yul\":10766:11073   */\n      pop\n      pop\n      pop\n      jump\t// out\n        /* \"#utility.yul\":11079:11456   */\n    tag_123:\n        /* \"#utility.yul\":11185:11188   */\n      0x00\n        /* \"#utility.yul\":11213:11252   */\n      tag_260\n        /* \"#utility.yul\":11246:11251   */\n      dup3\n        /* \"#utility.yul\":11213:11252   */\n      tag_121\n      jump\t// in\n    tag_260:\n        /* \"#utility.yul\":11268:11357   */\n      tag_261\n        /* \"#utility.yul\":11350:11356   */\n      dup2\n        /* \"#utility.yul\":11345:11348   */\n      dup6\n        /* \"#utility.yul\":11268:11357   */\n      tag_91\n      jump\t// in\n    tag_261:\n        /* \"#utility.yul\":11261:11357   */\n      swap4\n      pop\n        /* \"#utility.yul\":11366:11418   */\n      tag_262\n        /* \"#utility.yul\":11411:11417   */\n      dup2\n        /* \"#utility.yul\":11406:11409   */\n      dup6\n        /* \"#utility.yul\":11399:11403   */\n      0x20\n        /* \"#utility.yul\":11392:11397   */\n      dup7\n        /* \"#utility.yul\":11388:11404   */\n      add\n        /* \"#utility.yul\":11366:11418   */\n      tag_122\n      jump\t// in\n    tag_262:\n        /* \"#utility.yul\":11443:11449   */\n      dup1\n        /* \"#utility.yul\":11438:11441   */\n      dup5\n        /* \"#utility.yul\":11434:11450   */\n      add\n        /* \"#utility.yul\":11427:11450   */\n      swap2\n      pop\n        /* \"#utility.yul\":11189:11456   */\n      pop\n        /* \"#utility.yul\":11079:11456   */\n      swap3\n      swap2\n      pop\n      pop\n      jump\t// out\n        /* \"#utility.yul\":11462:11737   */\n    tag_64:\n        /* \"#utility.yul\":11594:11597   */\n      0x00\n        /* \"#utility.yul\":11616:11711   */\n      tag_264\n        /* \"#utility.yul\":11707:11710   */\n      dup3\n        /* \"#utility.yul\":11698:11704   */\n      dup5\n        /* \"#utility.yul\":11616:11711   */\n      tag_123\n      jump\t// in\n    tag_264:\n        /* \"#utility.yul\":11609:11711   */\n      swap2\n      pop\n        /* \"#utility.yul\":11728:11731   */\n      dup2\n        /* \"#utility.yul\":11721:11731   */\n      swap1\n      pop\n        /* \"#utility.yul\":11462:11737   */\n      swap3\n      swap2\n      pop\n      pop\n      jump\t// out\n        /* \"#utility.yul\":11743:12107   */\n    tag_124:\n        /* \"#utility.yul\":11831:11834   */\n      0x00\n        /* \"#utility.yul\":11859:11898   */\n      tag_266\n        /* \"#utility.yul\":11892:11897   */\n      dup3\n        /* \"#utility.yul\":11859:11898   */\n      tag_121\n      jump\t// in\n    tag_266:\n        /* \"#utility.yul\":11914:11985   */\n      tag_267\n        /* \"#utility.yul\":11978:11984   */\n      dup2\n        /* \"#utility.yul\":11973:11976   */\n      dup6\n        /* \"#utility.yul\":11914:11985   */\n      tag_118\n      jump\t// in\n    tag_267:\n        /* \"#utility.yul\":11907:11985   */\n      swap4\n      pop\n        /* \"#utility.yul\":11994:12046   */\n      tag_268\n        /* \"#utility.yul\":12039:12045   */\n      dup2\n        /* \"#utility.yul\":12034:12037   */\n      dup6\n        /* \"#utility.yul\":12027:12031   */\n      0x20\n        /* \"#utility.yul\":12020:12025   */\n      dup7\n        /* \"#utility.yul\":12016:12032   */\n      add\n        /* \"#utility.yul\":11994:12046   */\n      tag_122\n      jump\t// in\n    tag_268:\n        /* \"#utility.yul\":12071:12100   */\n      tag_269\n        /* \"#utility.yul\":12093:12099   */\n      dup2\n        /* \"#utility.yul\":12071:12100   */\n      tag_103\n      jump\t// in\n    tag_269:\n        /* \"#utility.yul\":12066:12069   */\n      dup5\n        /* \"#utility.yul\":12062:12101   */\n      add\n        /* \"#utility.yul\":12055:12101   */\n      swap2\n      pop\n        /* \"#utility.yul\":11835:12107   */\n      pop\n        /* \"#utility.yul\":11743:12107   */\n      swap3\n      swap2\n      pop\n      pop\n      jump\t// out\n        /* \"#utility.yul\":12113:13050   */\n    tag_67:\n        /* \"#utility.yul\":12378:12382   */\n      0x00\n        /* \"#utility.yul\":12416:12419   */\n      0xa0\n        /* \"#utility.yul\":12405:12414   */\n      dup3\n        /* \"#utility.yul\":12401:12420   */\n      add\n        /* \"#utility.yul\":12393:12420   */\n      swap1\n      pop\n        /* \"#utility.yul\":12466:12475   */\n      dup2\n        /* \"#utility.yul\":12460:12464   */\n      dup2\n        /* \"#utility.yul\":12456:12476   */\n      sub\n        /* \"#utility.yul\":12452:12453   */\n      0x00\n        /* \"#utility.yul\":12441:12450   */\n      dup4\n        /* \"#utility.yul\":12437:12454   */\n      add\n        /* \"#utility.yul\":12430:12477   */\n      mstore\n        /* \"#utility.yul\":12494:12572   */\n      tag_271\n        /* \"#utility.yul\":12567:12571   */\n      dup2\n        /* \"#utility.yul\":12558:12564   */\n      dup9\n        /* \"#utility.yul\":12494:12572   */\n      tag_124\n      jump\t// in\n    tag_271:\n        /* \"#utility.yul\":12486:12572   */\n      swap1\n      pop\n        /* \"#utility.yul\":12619:12628   */\n      dup2\n        /* \"#utility.yul\":12613:12617   */\n      dup2\n        /* \"#utility.yul\":12609:12629   */\n      sub\n        /* \"#utility.yul\":12604:12606   */\n      0x20\n        /* \"#utility.yul\":12593:12602   */\n      dup4\n        /* \"#utility.yul\":12589:12607   */\n      add\n        /* \"#utility.yul\":12582:12630   */\n      mstore\n        /* \"#utility.yul\":12647:12725   */\n      tag_272\n        /* \"#utility.yul\":12720:12724   */\n      dup2\n        /* \"#utility.yul\":12711:12717   */\n      dup8\n        /* \"#utility.yul\":12647:12725   */\n      tag_124\n      jump\t// in\n    tag_272:\n        /* \"#utility.yul\":12639:12725   */\n      swap1\n      pop\n        /* \"#utility.yul\":12735:12807   */\n      tag_273\n        /* \"#utility.yul\":12803:12805   */\n      0x40\n        /* \"#utility.yul\":12792:12801   */\n      dup4\n        /* \"#utility.yul\":12788:12806   */\n      add\n        /* \"#utility.yul\":12779:12785   */\n      dup7\n        /* \"#utility.yul\":12735:12807   */\n      tag_117\n      jump\t// in\n    tag_273:\n        /* \"#utility.yul\":12817:12889   */\n      tag_274\n        /* \"#utility.yul\":12885:12887   */\n      0x60\n        /* \"#utility.yul\":12874:12883   */\n      dup4\n        /* \"#utility.yul\":12870:12888   */\n      add\n        /* \"#utility.yul\":12861:12867   */\n      dup6\n        /* \"#utility.yul\":12817:12889   */\n      tag_117\n      jump\t// in\n    tag_274:\n        /* \"#utility.yul\":12937:12946   */\n      dup2\n        /* \"#utility.yul\":12931:12935   */\n      dup2\n        /* \"#utility.yul\":12927:12947   */\n      sub\n        /* \"#utility.yul\":12921:12924   */\n      0x80\n        /* \"#utility.yul\":12910:12919   */\n      dup4\n        /* \"#utility.yul\":12906:12925   */\n      add\n        /* \"#utility.yul\":12899:12948   */\n      mstore\n        /* \"#utility.yul\":12965:13043   */\n      tag_275\n        /* \"#utility.yul\":13038:13042   */\n      dup2\n        /* \"#utility.yul\":13029:13035   */\n      dup5\n        /* \"#utility.yul\":12965:13043   */\n      tag_124\n      jump\t// in\n    tag_275:\n        /* \"#utility.yul\":12957:13043   */\n      swap1\n      pop\n        /* \"#utility.yul\":12113:13050   */\n      swap7\n      swap6\n      pop\n      pop\n      pop\n      pop\n      pop\n      pop\n      jump\t// out\n        /* \"#utility.yul\":13056:13149   */\n    tag_125:\n        /* \"#utility.yul\":13093:13099   */\n      0x00\n        /* \"#utility.yul\":13140:13142   */\n      0x20\n        /* \"#utility.yul\":13135:13137   */\n      0x1f\n        /* \"#utility.yul\":13128:13133   */\n      dup4\n        /* \"#utility.yul\":13124:13138   */\n      add\n        /* \"#utility.yul\":13120:13143   */\n      div\n        /* \"#utility.yul\":13110:13143   */\n      swap1\n      pop\n        /* \"#utility.yul\":13056:13149   */\n      swap2\n      swap1\n      pop\n      jump\t// out\n        /* \"#utility.yul\":13155:13262   */\n    tag_126:\n        /* \"#utility.yul\":13199:13207   */\n      0x00\n        /* \"#utility.yul\":13249:13254   */\n      dup3\n        /* \"#utility.yul\":13243:13247   */\n      dup3\n        /* \"#utility.yul\":13239:13255   */\n      shl\n        /* \"#utility.yul\":13218:13255   */\n      swap1\n      pop\n        /* \"#utility.yul\":13155:13262   */\n      swap3\n      swap2\n      pop\n      pop\n      jump\t// out\n        /* \"#utility.yul\":13268:13661   */\n    tag_127:\n        /* \"#utility.yul\":13337:13343   */\n      0x00\n        /* \"#utility.yul\":13387:13388   */\n      0x08\n        /* \"#utility.yul\":13375:13385   */\n      dup4\n        /* \"#utility.yul\":13371:13389   */\n      mul\n        /* \"#utility.yul\":13410:13507   */\n      tag_279\n        /* \"#utility.yul\":13440:13506   */\n      0xffffffffffffffffffffffffffffffffffffffffffffffffffffffffffffffff\n        /* \"#utility.yul\":13429:13438   */\n      dup3\n        /* \"#utility.yul\":13410:13507   */\n      tag_126\n      jump\t// in\n    tag_279:\n        /* \"#utility.yul\":13528:13567   */\n      tag_280\n        /* \"#utility.yul\":13558:13566   */\n      dup7\n        /* \"#utility.yul\":13547:13556   */\n      dup4\n        /* \"#utility.yul\":13528:13567   */\n      tag_126\n      jump\t// in\n    tag_280:\n        /* \"#utility.yul\":13516:13567   */\n      swap6\n      pop\n        /* \"#utility.yul\":13600:13604   */\n      dup1\n        /* \"#utility.yul\":13596:13605   */\n      not\n        /* \"#utility.yul\":13589:13594   */\n      dup5\n        /* \"#utility.yul\":13585:13606   */\n      and\n        /* \"#utility.yul\":13576:13606   */\n      swap4\n      pop\n        /* \"#utility.yul\":13649:13653   */\n      dup1\n        /* \"#utility.yul\":13639:13647   */\n      dup7\n        /* \"#utility.yul\":13635:13654   */\n      and\n        /* \"#utility.yul\":13628:13633   */\n      dup5\n        /* \"#utility.yul\":13625:13655   */\n      or\n        /* \"#utility.yul\":13615:13655   */\n      swap3\n      pop\n        /* \"#utility.yul\":13344:13661   */\n      pop\n      pop\n        /* \"#utility.yul\":13268:13661   */\n      swap4\n      swap3\n      pop\n      pop\n      pop\n      jump\t// out\n        /* \"#utility.yul\":13667:13727   */\n    tag_128:\n        /* \"#utility.yul\":13695:13698   */\n      0x00\n        /* \"#utility.yul\":13716:13721   */\n      dup2\n        /* \"#utility.yul\":13709:13721   */\n      swap1\n      pop\n        /* \"#utility.yul\":13667:13727   */\n      swap2\n      swap1\n      pop\n      jump\t// out\n        /* \"#utility.yul\":13733:13875   */\n    tag_129:\n        /* \"#utility.yul\":13783:13792   */\n      0x00\n        /* \"#utility.yul\":13816:13869   */\n      tag_283\n        /* \"#utility.yul\":13834:13868   */\n      tag_284\n        /* \"#utility.yul\":13843:13867   */\n      tag_285\n        /* \"#utility.yul\":13861:13866   */\n      dup5\n        /* \"#utility.yul\":13843:13867   */\n      tag_111\n      jump\t// in\n    tag_285:\n        /* \"#utility.yul\":13834:13868   */\n      tag_128\n      jump\t// in\n    tag_284:\n        /* \"#utility.yul\":13816:13869   */\n      tag_111\n      jump\t// in\n    tag_283:\n        /* \"#utility.yul\":13803:13869   */\n      swap1\n      pop\n        /* \"#utility.yul\":13733:13875   */\n      swap2\n      swap1\n      pop\n      jump\t// out\n        /* \"#utility.yul\":13881:13956   */\n    tag_130:\n        /* \"#utility.yul\":13924:13927   */\n      0x00\n        /* \"#utility.yul\":13945:13950   */\n      dup2\n        /* \"#utility.yul\":13938:13950   */\n      swap1\n      pop\n        /* \"#utility.yul\":13881:13956   */\n      swap2\n      swap1\n      pop\n      jump\t// out\n        /* \"#utility.yul\":13962:14231   */\n    tag_131:\n        /* \"#utility.yul\":14072:14111   */\n      tag_288\n        /* \"#utility.yul\":14103:14110   */\n      dup4\n        /* \"#utility.yul\":14072:14111   */\n      tag_129\n      jump\t// in\n    tag_288:\n        /* \"#utility.yul\":14133:14224   */\n      tag_289\n        /* \"#utility.yul\":14182:14223   */\n      tag_290\n        /* \"#utility.yul\":14206:14222   */\n      dup3\n        /* \"#utility.yul\":14182:14223   */\n      tag_130\n      jump\t// in\n    tag_290:\n        /* \"#utility.yul\":14174:14180   */\n      dup5\n        /* \"#utility.yul\":14167:14171   */\n      dup5\n        /* \"#utility.yul\":14161:14172   */\n      sload\n        /* \"#utility.yul\":14133:14224   */\n      tag_127\n      jump\t// in\n    tag_289:\n        /* \"#utility.yul\":14127:14131   */\n      dup3\n        /* \"#utility.yul\":14120:14225   */\n      sstore\n        /* \"#utility.yul\":14038:14231   */\n      pop\n        /* \"#utility.yul\":13962:14231   */\n      pop\n      pop\n      pop\n      jump\t// out\n        /* \"#utility.yul\":14237:14310   */\n    tag_132:\n        /* \"#utility.yul\":14282:14285   */\n      0x00\n        /* \"#utility.yul\":14237:14310   */\n      swap1\n      jump\t// out\n        /* \"#utility.yul\":14316:14505   */\n    tag_133:\n        /* \"#utility.yul\":14393:14425   */\n      tag_293\n      tag_132\n      jump\t// in\n    tag_293:\n        /* \"#utility.yul\":14434:14499   */\n      tag_294\n        /* \"#utility.yul\":14492:14498   */\n      dup2\n        /* \"#utility.yul\":14484:14490   */\n      dup5\n        /* \"#utility.yul\":14478:14482   */\n      dup5\n        /* \"#utility.yul\":14434:14499   */\n      tag_131\n      jump\t// in\n    tag_294:\n        /* \"#utility.yul\":14369:14505   */\n      pop\n        /* \"#utility.yul\":14316:14505   */\n      pop\n      pop\n      jump\t// out\n        /* \"#utility.yul\":14511:14697   */\n    tag_134:\n        /* \"#utility.yul\":14571:14691   */\n    tag_296:\n        /* \"#utility.yul\":14588:14591   */\n      dup2\n        /* \"#utility.yul\":14581:14586   */\n      dup2\n        /* \"#utility.yul\":14578:14592   */\n      lt\n        /* \"#utility.yul\":14571:14691   */\n      iszero\n      tag_298\n      jumpi\n        /* \"#utility.yul\":14642:14681   */\n      tag_299\n        /* \"#utility.yul\":14679:14680   */\n      0x00\n        /* \"#utility.yul\":14672:14677   */\n      dup3\n        /* \"#utility.yul\":14642:14681   */\n      tag_133\n      jump\t// in\n    tag_299:\n        /* \"#utility.yul\":14615:14616   */\n      0x01\n        /* \"#utility.yul\":14608:14613   */\n      dup2\n        /* \"#utility.yul\":14604:14617   */\n      add\n        /* \"#utility.yul\":14595:14617   */\n      swap1\n      pop\n        /* \"#utility.yul\":14571:14691   */\n      jump(tag_296)\n    tag_298:\n        /* \"#utility.yul\":14511:14697   */\n      pop\n      pop\n      jump\t// out\n        /* \"#utility.yul\":14703:15246   */\n    tag_135:\n        /* \"#utility.yul\":14804:14806   */\n      0x1f\n        /* \"#utility.yul\":14799:14802   */\n      dup3\n        /* \"#utility.yul\":14796:14807   */\n      gt\n        /* \"#utility.yul\":14793:15239   */\n      iszero\n      tag_301\n      jumpi\n        /* \"#utility.yul\":14838:14876   */\n      tag_302\n        /* \"#utility.yul\":14870:14875   */\n      dup2\n        /* \"#utility.yul\":14838:14876   */\n      tag_92\n      jump\t// in\n    tag_302:\n        /* \"#utility.yul\":14922:14951   */\n      tag_303\n        /* \"#utility.yul\":14940:14950   */\n      dup5\n        /* \"#utility.yul\":14922:14951   */\n      tag_125\n      jump\t// in\n    tag_303:\n        /* \"#utility.yul\":14912:14920   */\n      dup2\n        /* \"#utility.yul\":14908:14952   */\n      add\n        /* \"#utility.yul\":15105:15107   */\n      0x20\n        /* \"#utility.yul\":15093:15103   */\n      dup6\n        /* \"#utility.yul\":15090:15108   */\n      lt\n        /* \"#utility.yul\":15087:15136   */\n      iszero\n      tag_304\n      jumpi\n        /* \"#utility.yul\":15126:15134   */\n      dup2\n        /* \"#utility.yul\":15111:15134   */\n      swap1\n      pop\n        /* \"#utility.yul\":15087:15136   */\n    tag_304:\n        /* \"#utility.yul\":15149:15229   */\n      tag_305\n        /* \"#utility.yul\":15205:15227   */\n      tag_306\n        /* \"#utility.yul\":15223:15226   */\n      dup6\n        /* \"#utility.yul\":15205:15227   */\n      tag_125\n      jump\t// in\n    tag_306:\n        /* \"#utility.yul\":15195:15203   */\n      dup4\n        /* \"#utility.yul\":15191:15228   */\n      add\n        /* \"#utility.yul\":15178:15189   */\n      dup3\n        /* \"#utility.yul\":15149:15229   */\n      tag_134\n      jump\t// in\n    tag_305:\n        /* \"#utility.yul\":14808:15239   */\n      pop\n      pop\n        /* \"#utility.yul\":14793:15239   */\n    tag_301:\n        /* \"#utility.yul\":14703:15246   */\n      pop\n      pop\n      pop\n      jump\t// out\n        /* \"#utility.yul\":15252:15369   */\n    tag_136:\n        /* \"#utility.yul\":15306:15314   */\n      0x00\n        /* \"#utility.yul\":15356:15361   */\n      dup3\n        /* \"#utility.yul\":15350:15354   */\n      dup3\n        /* \"#utility.yul\":15346:15362   */\n      shr\n        /* \"#utility.yul\":15325:15362   */\n      swap1\n      pop\n        /* \"#utility.yul\":15252:15369   */\n      swap3\n      swap2\n      pop\n      pop\n      jump\t// out\n        /* \"#utility.yul\":15375:15544   */\n    tag_137:\n        /* \"#utility.yul\":15419:15425   */\n      0x00\n        /* \"#utility.yul\":15452:15503   */\n      tag_309\n        /* \"#utility.yul\":15500:15501   */\n      0x00\n        /* \"#utility.yul\":15496:15502   */\n      not\n        /* \"#utility.yul\":15488:15493   */\n      dup5\n        /* \"#utility.yul\":15485:15486   */\n      0x08\n        /* \"#utility.yul\":15481:15494   */\n      mul\n        /* \"#utility.yul\":15452:15503   */\n      tag_136\n      jump\t// in\n    tag_309:\n        /* \"#utility.yul\":15448:15504   */\n      not\n        /* \"#utility.yul\":15533:15537   */\n      dup1\n        /* \"#utility.yul\":15527:15531   */\n      dup4\n        /* \"#utility.yul\":15523:15538   */\n      and\n        /* \"#utility.yul\":15513:15538   */\n      swap2\n      pop\n        /* \"#utility.yul\":15426:15544   */\n      pop\n        /* \"#utility.yul\":15375:15544   */\n      swap3\n      swap2\n      pop\n      pop\n      jump\t// out\n        /* \"#utility.yul\":15549:15844   */\n    tag_138:\n        /* \"#utility.yul\":15625:15629   */\n      0x00\n        /* \"#utility.yul\":15771:15800   */\n      tag_311\n        /* \"#utility.yul\":15796:15799   */\n      dup4\n        /* \"#utility.yul\":15790:15794   */\n      dup4\n        /* \"#utility.yul\":15771:15800   */\n      tag_137\n      jump\t// in\n    tag_311:\n        /* \"#utility.yul\":15763:15800   */\n      swap2\n      pop\n        /* \"#utility.yul\":15833:15836   */\n      dup3\n        /* \"#utility.yul\":15830:15831   */\n      0x02\n        /* \"#utility.yul\":15826:15837   */\n      mul\n        /* \"#utility.yul\":15820:15824   */\n      dup3\n        /* \"#utility.yul\":15817:15838   */\n      or\n        /* \"#utility.yul\":15809:15838   */\n      swap1\n      pop\n        /* \"#utility.yul\":15549:15844   */\n      swap3\n      swap2\n      pop\n      pop\n      jump\t// out\n        /* \"#utility.yul\":15849:17244   */\n    tag_88:\n        /* \"#utility.yul\":15966:16003   */\n      tag_313\n        /* \"#utility.yul\":15999:16002   */\n      dup3\n        /* \"#utility.yul\":15966:16003   */\n      tag_121\n      jump\t// in\n    tag_313:\n        /* \"#utility.yul\":16068:16086   */\n      0xffffffffffffffff\n        /* \"#utility.yul\":16060:16066   */\n      dup2\n        /* \"#utility.yul\":16057:16087   */\n      gt\n        /* \"#utility.yul\":16054:16110   */\n      iszero\n      tag_314\n      jumpi\n        /* \"#utility.yul\":16090:16108   */\n      tag_315\n      tag_104\n      jump\t// in\n    tag_315:\n        /* \"#utility.yul\":16054:16110   */\n    tag_314:\n        /* \"#utility.yul\":16134:16172   */\n      tag_316\n        /* \"#utility.yul\":16166:16170   */\n      dup3\n        /* \"#utility.yul\":16160:16171   */\n      sload\n        /* \"#utility.yul\":16134:16172   */\n      tag_90\n      jump\t// in\n    tag_316:\n        /* \"#utility.yul\":16219:16286   */\n      tag_317\n        /* \"#utility.yul\":16279:16285   */\n      dup3\n        /* \"#utility.yul\":16271:16277   */\n      dup3\n        /* \"#utility.yul\":16265:16269   */\n      dup6\n        /* \"#utility.yul\":16219:16286   */\n      tag_135\n      jump\t// in\n    tag_317:\n        /* \"#utility.yul\":16313:16314   */\n      0x00\n        /* \"#utility.yul\":16337:16341   */\n      0x20\n        /* \"#utility.yul\":16324:16341   */\n      swap1\n      pop\n        /* \"#utility.yul\":16369:16371   */\n      0x1f\n        /* \"#utility.yul\":16361:16367   */\n      dup4\n        /* \"#utility.yul\":16358:16372   */\n      gt\n        /* \"#utility.yul\":16386:16387   */\n      0x01\n        /* \"#utility.yul\":16381:16999   */\n      dup2\n      eq\n      tag_319\n      jumpi\n        /* \"#utility.yul\":17043:17044   */\n      0x00\n        /* \"#utility.yul\":17060:17066   */\n      dup5\n        /* \"#utility.yul\":17057:17134   */\n      iszero\n      tag_320\n      jumpi\n        /* \"#utility.yul\":17109:17118   */\n      dup3\n        /* \"#utility.yul\":17104:17107   */\n      dup8\n        /* \"#utility.yul\":17100:17119   */\n      add\n        /* \"#utility.yul\":17094:17120   */\n      mload\n        /* \"#utility.yul\":17085:17120   */\n      swap1\n      pop\n        /* \"#utility.yul\":17057:17134   */\n    tag_320:\n        /* \"#utility.yul\":17160:17227   */\n      tag_321\n        /* \"#utility.yul\":17220:17226   */\n      dup6\n        /* \"#utility.yul\":17213:17218   */\n      dup3\n        /* \"#utility.yul\":17160:17227   */\n      tag_138\n      jump\t// in\n    tag_321:\n        /* \"#utility.yul\":17154:17158   */\n      dup7\n        /* \"#utility.yul\":17147:17228   */\n      sstore\n        /* \"#utility.yul\":17016:17238   */\n      pop\n        /* \"#utility.yul\":16351:17238   */\n      jump(tag_318)\n        /* \"#utility.yul\":16381:16999   */\n    tag_319:\n        /* \"#utility.yul\":16433:16437   */\n      0x1f\n        /* \"#utility.yul\":16429:16438   */\n      not\n        /* \"#utility.yul\":16421:16427   */\n      dup5\n        /* \"#utility.yul\":16417:16439   */\n      and\n        /* \"#utility.yul\":16467:16504   */\n      tag_322\n        /* \"#utility.yul\":16499:16503   */\n      dup7\n        /* \"#utility.yul\":16467:16504   */\n      tag_92\n      jump\t// in\n    tag_322:\n        /* \"#utility.yul\":16526:16527   */\n      0x00\n        /* \"#utility.yul\":16540:16748   */\n    tag_323:\n        /* \"#utility.yul\":16554:16561   */\n      dup3\n        /* \"#utility.yul\":16551:16552   */\n      dup2\n        /* \"#utility.yul\":16548:16562   */\n      lt\n        /* \"#utility.yul\":16540:16748   */\n      iszero\n      tag_325\n      jumpi\n        /* \"#utility.yul\":16633:16642   */\n      dup5\n        /* \"#utility.yul\":16628:16631   */\n      dup10\n        /* \"#utility.yul\":16624:16643   */\n      add\n        /* \"#utility.yul\":16618:16644   */\n      mload\n        /* \"#utility.yul\":16610:16616   */\n      dup3\n        /* \"#utility.yul\":16603:16645   */\n      sstore\n        /* \"#utility.yul\":16684:16685   */\n      0x01\n        /* \"#utility.yul\":16676:16682   */\n      dup3\n        /* \"#utility.yul\":16672:16686   */\n      add\n        /* \"#utility.yul\":16662:16686   */\n      swap2\n      pop\n        /* \"#utility.yul\":16731:16733   */\n      0x20\n        /* \"#utility.yul\":16720:16729   */\n      dup6\n        /* \"#utility.yul\":16716:16734   */\n      add\n        /* \"#utility.yul\":16703:16734   */\n      swap5\n      pop\n        /* \"#utility.yul\":16577:16581   */\n      0x20\n        /* \"#utility.yul\":16574:16575   */\n      dup2\n        /* \"#utility.yul\":16570:16582   */\n      add\n        /* \"#utility.yul\":16565:16582   */\n      swap1\n      pop\n        /* \"#utility.yul\":16540:16748   */\n      jump(tag_323)\n    tag_325:\n        /* \"#utility.yul\":16776:16782   */\n      dup7\n        /* \"#utility.yul\":16767:16774   */\n      dup4\n        /* \"#utility.yul\":16764:16783   */\n      lt\n        /* \"#utility.yul\":16761:16940   */\n      iszero\n      tag_326\n      jumpi\n        /* \"#utility.yul\":16834:16843   */\n      dup5\n        /* \"#utility.yul\":16829:16832   */\n      dup10\n        /* \"#utility.yul\":16825:16844   */\n      add\n        /* \"#utility.yul\":16819:16845   */\n      mload\n        /* \"#utility.yul\":16877:16925   */\n      tag_327\n        /* \"#utility.yul\":16919:16923   */\n      0x1f\n        /* \"#utility.yul\":16911:16917   */\n      dup10\n        /* \"#utility.yul\":16907:16924   */\n      and\n        /* \"#utility.yul\":16896:16905   */\n      dup3\n        /* \"#utility.yul\":16877:16925   */\n      tag_137\n      jump\t// in\n    tag_327:\n        /* \"#utility.yul\":16869:16875   */\n      dup4\n        /* \"#utility.yul\":16862:16926   */\n      sstore\n        /* \"#utility.yul\":16784:16940   */\n      pop\n        /* \"#utility.yul\":16761:16940   */\n    tag_326:\n        /* \"#utility.yul\":16986:16987   */\n      0x01\n        /* \"#utility.yul\":16982:16983   */\n      0x02\n        /* \"#utility.yul\":16974:16980   */\n      dup9\n        /* \"#utility.yul\":16970:16984   */\n      mul\n        /* \"#utility.yul\":16966:16988   */\n      add\n        /* \"#utility.yul\":16960:16964   */\n      dup9\n        /* \"#utility.yul\":16953:16989   */\n      sstore\n        /* \"#utility.yul\":16388:16999   */\n      pop\n      pop\n      pop\n        /* \"#utility.yul\":16351:17238   */\n    tag_318:\n      pop\n        /* \"#utility.yul\":15941:17244   */\n      pop\n      pop\n      pop\n        /* \"#utility.yul\":15849:17244   */\n      pop\n      pop\n      jump\t// out\n\n    auxdata: 0xa26469706673582212201cad7720d0b48e34286c4b1eb7eb863de25d798b776b251f53aace0d9605555b64736f6c634300080f0033\n}\n",
				"bytecode": {
					"linkReferences": {},
					"object": "608060405234801561001057600080fd5b50336000806101000a81548173ffffffffffffffffffffffffffffffffffffffff021916908373ffffffffffffffffffffffffffffffffffffffff16021790555033600360006101000a81548173ffffffffffffffffffffffffffffffffffffffff021916908373ffffffffffffffffffffffffffffffffffffffff1602179055506110b7806100a16000396000f3fe60806040526004361061007f5760003560e01c8063b2bdfa7b1161004e578063b2bdfa7b146101da578063e935155814610205578063f99318551461022e578063fe49048a1461026b5761013c565b806313af4035146101415780633f59c6571461016a578063704b6c02146101865780638f32d59b146101af5761013c565b3661013c576002600460003373ffffffffffffffffffffffffffffffffffffffff1673ffffffffffffffffffffffffffffffffffffffff1681526020019081526020016000206040516100d29190610844565b908152602001604051809103902060009054906101000a900460ff166100f757600080fd5b34600560003373ffffffffffffffffffffffffffffffffffffffff1673ffffffffffffffffffffffffffffffffffffffff168152602001908152602001600020819055005b600080fd5b34801561014d57600080fd5b50610168600480360381019061016391906108cd565b610294565b005b610184600480360381019061017f9190610a76565b61031e565b005b34801561019257600080fd5b506101ad60048036038101906101a891906108cd565b6103d7565b005b3480156101bb57600080fd5b506101c4610462565b6040516101d19190610b60565b60405180910390f35b3480156101e657600080fd5b506101ef6104b9565b6040516101fc9190610b8a565b60405180910390f35b34801561021157600080fd5b5061022c60048036038101906102279190610ba5565b6104dd565b005b34801561023a57600080fd5b50610255600480360381019061025091906108cd565b6105dc565b6040516102629190610bfd565b60405180910390f35b34801561027757600080fd5b50610292600480360381019061028d9190610c18565b6105f4565b005b61029c610462565b6102db576040517f08c379a00000000000000000000000000000000000000000000000000000000081526004016102d290610cd1565b60405180910390fd5b806000806101000a81548173ffffffffffffffffffffffffffffffffffffffff021916908373ffffffffffffffffffffffffffffffffffffffff16021790555050565b600115156001826040516103329190610d60565b908152602001604051809103902060009054906101000a900460ff1615151461035a57600080fd5b7f2ee35da94d6494eb515fd8f6fffdecd1d417dbae7e370cb1f77d709473e01d598585858585604051610391959493929190610db0565b60405180910390a160006001826040516103ab9190610d60565b908152602001604051809103902060006101000a81548160ff0219169083151502179055505050505050565b6103df610462565b61041e576040517f08c379a000000000000000000000000000000000000000000000000000000000815260040161041590610cd1565b60405180910390fd5b80600360006101000a81548173ffffffffffffffffffffffffffffffffffffffff021916908373ffffffffffffffffffffffffffffffffffffffff16021790555050565b60008060009054906101000a900473ffffffffffffffffffffffffffffffffffffffff1673ffffffffffffffffffffffffffffffffffffffff163373ffffffffffffffffffffffffffffffffffffffff1614905090565b60008054906101000a900473ffffffffffffffffffffffffffffffffffffffff1681565b600360009054906101000a900473ffffffffffffffffffffffffffffffffffffffff1673ffffffffffffffffffffffffffffffffffffffff163373ffffffffffffffffffffffffffffffffffffffff161461053757600080fd5b600180826040516105489190610d60565b908152602001604051809103902060006101000a81548160ff02191690831515021790555060018160405161057d9190610d60565b908152602001604051809103902060009054906101000a900460ff166105a257600080fd5b60016002826040516105b49190610d60565b908152602001604051809103902060006101000a81548160ff02191690831515021790555050565b60056020528060005260406000206000915090505481565b600360009054906101000a900473ffffffffffffffffffffffffffffffffffffffff1673ffffffffffffffffffffffffffffffffffffffff163373ffffffffffffffffffffffffffffffffffffffff161461064e57600080fd5b6001808360405161065f9190610d60565b908152602001604051809103902060006101000a81548160ff0219169083151502179055506001826040516106949190610d60565b908152602001604051809103902060009054906101000a900460ff166106b957600080fd5b60016002836040516106cb9190610d60565b908152602001604051809103902060006101000a81548160ff02191690831515021790555081600460008373ffffffffffffffffffffffffffffffffffffffff1673ffffffffffffffffffffffffffffffffffffffff168152602001908152602001600020908161073c9190610faf565b505050565b7f4e487b7100000000000000000000000000000000000000000000000000000000600052602260045260246000fd5b6000600282049050600182168061078857607f821691505b60208210810361079b5761079a610741565b5b50919050565b600081905092915050565b60008190508160005260206000209050919050565b600081546107ce81610770565b6107d881866107a1565b945060018216600081146107f357600181146108085761083b565b60ff198316865281151582028601935061083b565b610811856107ac565b60005b8381101561083357815481890152600182019150602081019050610814565b838801955050505b50505092915050565b600061085082846107c1565b915081905092915050565b6000604051905090565b600080fd5b600080fd5b600073ffffffffffffffffffffffffffffffffffffffff82169050919050565b600061089a8261086f565b9050919050565b6108aa8161088f565b81146108b557600080fd5b50565b6000813590506108c7816108a1565b92915050565b6000602082840312156108e3576108e2610865565b5b60006108f1848285016108b8565b91505092915050565b600080fd5b600080fd5b6000601f19601f8301169050919050565b7f4e487b7100000000000000000000000000000000000000000000000000000000600052604160045260246000fd5b61094d82610904565b810181811067ffffffffffffffff8211171561096c5761096b610915565b5b80604052505050565b600061097f61085b565b905061098b8282610944565b919050565b600067ffffffffffffffff8211156109ab576109aa610915565b5b6109b482610904565b9050602081019050919050565b82818337600083830152505050565b60006109e36109de84610990565b610975565b9050828152602081018484840111156109ff576109fe6108ff565b5b610a0a8482856109c1565b509392505050565b600082601f830112610a2757610a266108fa565b5b8135610a378482602086016109d0565b91505092915050565b6000819050919050565b610a5381610a40565b8114610a5e57600080fd5b50565b600081359050610a7081610a4a565b92915050565b600080600080600060a08688031215610a9257610a91610865565b5b600086013567ffffffffffffffff811115610ab057610aaf61086a565b5b610abc88828901610a12565b955050602086013567ffffffffffffffff811115610add57610adc61086a565b5b610ae988828901610a12565b9450506040610afa88828901610a61565b9350506060610b0b88828901610a61565b925050608086013567ffffffffffffffff811115610b2c57610b2b61086a565b5b610b3888828901610a12565b9150509295509295909350565b60008115159050919050565b610b5a81610b45565b82525050565b6000602082019050610b756000830184610b51565b92915050565b610b848161088f565b82525050565b6000602082019050610b9f6000830184610b7b565b92915050565b600060208284031215610bbb57610bba610865565b5b600082013567ffffffffffffffff811115610bd957610bd861086a565b5b610be584828501610a12565b91505092915050565b610bf781610a40565b82525050565b6000602082019050610c126000830184610bee565b92915050565b60008060408385031215610c2f57610c2e610865565b5b600083013567ffffffffffffffff811115610c4d57610c4c61086a565b5b610c5985828601610a12565b9250506020610c6a858286016108b8565b9150509250929050565b600082825260208201905092915050565b7f4f776e61626c653a2063616c6c6572206973206e6f7420746865206f776e6572600082015250565b6000610cbb602083610c74565b9150610cc682610c85565b602082019050919050565b60006020820190508181036000830152610cea81610cae565b9050919050565b600081519050919050565b60005b83811015610d1a578082015181840152602081019050610cff565b83811115610d29576000848401525b50505050565b6000610d3a82610cf1565b610d4481856107a1565b9350610d54818560208601610cfc565b80840191505092915050565b6000610d6c8284610d2f565b915081905092915050565b6000610d8282610cf1565b610d8c8185610c74565b9350610d9c818560208601610cfc565b610da581610904565b840191505092915050565b600060a0820190508181036000830152610dca8188610d77565b90508181036020830152610dde8187610d77565b9050610ded6040830186610bee565b610dfa6060830185610bee565b8181036080830152610e0c8184610d77565b90509695505050505050565b60006020601f8301049050919050565b600082821b905092915050565b600060088302610e657fffffffffffffffffffffffffffffffffffffffffffffffffffffffffffffffff82610e28565b610e6f8683610e28565b95508019841693508086168417925050509392505050565b6000819050919050565b6000610eac610ea7610ea284610a40565b610e87565b610a40565b9050919050565b6000819050919050565b610ec683610e91565b610eda610ed282610eb3565b848454610e35565b825550505050565b600090565b610eef610ee2565b610efa818484610ebd565b505050565b5b81811015610f1e57610f13600082610ee7565b600181019050610f00565b5050565b601f821115610f6357610f34816107ac565b610f3d84610e18565b81016020851015610f4c578190505b610f60610f5885610e18565b830182610eff565b50505b505050565b600082821c905092915050565b6000610f8660001984600802610f68565b1980831691505092915050565b6000610f9f8383610f75565b9150826002028217905092915050565b610fb882610cf1565b67ffffffffffffffff811115610fd157610fd0610915565b5b610fdb8254610770565b610fe6828285610f22565b600060209050601f8311600181146110195760008415611007578287015190505b6110118582610f93565b865550611079565b601f198416611027866107ac565b60005b8281101561104f5784890151825560018201915060208501945060208101905061102a565b8683101561106c5784890151611068601f891682610f75565b8355505b6001600288020188555050505b50505050505056fea26469706673582212201cad7720d0b48e34286c4b1eb7eb863de25d798b776b251f53aace0d9605555b64736f6c634300080f0033",
					"opcodes": "PUSH1 0x80 PUSH1 0x40 MSTORE CALLVALUE DUP1 ISZERO PUSH2 0x10 JUMPI PUSH1 0x0 DUP1 REVERT JUMPDEST POP CALLER PUSH1 0x0 DUP1 PUSH2 0x100 EXP DUP2 SLOAD DUP2 PUSH20 0xFFFFFFFFFFFFFFFFFFFFFFFFFFFFFFFFFFFFFFFF MUL NOT AND SWAP1 DUP4 PUSH20 0xFFFFFFFFFFFFFFFFFFFFFFFFFFFFFFFFFFFFFFFF AND MUL OR SWAP1 SSTORE POP CALLER PUSH1 0x3 PUSH1 0x0 PUSH2 0x100 EXP DUP2 SLOAD DUP2 PUSH20 0xFFFFFFFFFFFFFFFFFFFFFFFFFFFFFFFFFFFFFFFF MUL NOT AND SWAP1 DUP4 PUSH20 0xFFFFFFFFFFFFFFFFFFFFFFFFFFFFFFFFFFFFFFFF AND MUL OR SWAP1 SSTORE POP PUSH2 0x10B7 DUP1 PUSH2 0xA1 PUSH1 0x0 CODECOPY PUSH1 0x0 RETURN INVALID PUSH1 0x80 PUSH1 0x40 MSTORE PUSH1 0x4 CALLDATASIZE LT PUSH2 0x7F JUMPI PUSH1 0x0 CALLDATALOAD PUSH1 0xE0 SHR DUP1 PUSH4 0xB2BDFA7B GT PUSH2 0x4E JUMPI DUP1 PUSH4 0xB2BDFA7B EQ PUSH2 0x1DA JUMPI DUP1 PUSH4 0xE9351558 EQ PUSH2 0x205 JUMPI DUP1 PUSH4 0xF9931855 EQ PUSH2 0x22E JUMPI DUP1 PUSH4 0xFE49048A EQ PUSH2 0x26B JUMPI PUSH2 0x13C JUMP JUMPDEST DUP1 PUSH4 0x13AF4035 EQ PUSH2 0x141 JUMPI DUP1 PUSH4 0x3F59C657 EQ PUSH2 0x16A JUMPI DUP1 PUSH4 0x704B6C02 EQ PUSH2 0x186 JUMPI DUP1 PUSH4 0x8F32D59B EQ PUSH2 0x1AF JUMPI PUSH2 0x13C JUMP JUMPDEST CALLDATASIZE PUSH2 0x13C JUMPI PUSH1 0x2 PUSH1 0x4 PUSH1 0x0 CALLER PUSH20 0xFFFFFFFFFFFFFFFFFFFFFFFFFFFFFFFFFFFFFFFF AND PUSH20 0xFFFFFFFFFFFFFFFFFFFFFFFFFFFFFFFFFFFFFFFF AND DUP2 MSTORE PUSH1 0x20 ADD SWAP1 DUP2 MSTORE PUSH1 0x20 ADD PUSH1 0x0 KECCAK256 PUSH1 0x40 MLOAD PUSH2 0xD2 SWAP2 SWAP1 PUSH2 0x844 JUMP JUMPDEST SWAP1 DUP2 MSTORE PUSH1 0x20 ADD PUSH1 0x40 MLOAD DUP1 SWAP2 SUB SWAP1 KECCAK256 PUSH1 0x0 SWAP1 SLOAD SWAP1 PUSH2 0x100 EXP SWAP1 DIV PUSH1 0xFF AND PUSH2 0xF7 JUMPI PUSH1 0x0 DUP1 REVERT JUMPDEST CALLVALUE PUSH1 0x5 PUSH1 0x0 CALLER PUSH20 0xFFFFFFFFFFFFFFFFFFFFFFFFFFFFFFFFFFFFFFFF AND PUSH20 0xFFFFFFFFFFFFFFFFFFFFFFFFFFFFFFFFFFFFFFFF AND DUP2 MSTORE PUSH1 0x20 ADD SWAP1 DUP2 MSTORE PUSH1 0x20 ADD PUSH1 0x0 KECCAK256 DUP2 SWAP1 SSTORE STOP JUMPDEST PUSH1 0x0 DUP1 REVERT JUMPDEST CALLVALUE DUP1 ISZERO PUSH2 0x14D JUMPI PUSH1 0x0 DUP1 REVERT JUMPDEST POP PUSH2 0x168 PUSH1 0x4 DUP1 CALLDATASIZE SUB DUP2 ADD SWAP1 PUSH2 0x163 SWAP2 SWAP1 PUSH2 0x8CD JUMP JUMPDEST PUSH2 0x294 JUMP JUMPDEST STOP JUMPDEST PUSH2 0x184 PUSH1 0x4 DUP1 CALLDATASIZE SUB DUP2 ADD SWAP1 PUSH2 0x17F SWAP2 SWAP1 PUSH2 0xA76 JUMP JUMPDEST PUSH2 0x31E JUMP JUMPDEST STOP JUMPDEST CALLVALUE DUP1 ISZERO PUSH2 0x192 JUMPI PUSH1 0x0 DUP1 REVERT JUMPDEST POP PUSH2 0x1AD PUSH1 0x4 DUP1 CALLDATASIZE SUB DUP2 ADD SWAP1 PUSH2 0x1A8 SWAP2 SWAP1 PUSH2 0x8CD JUMP JUMPDEST PUSH2 0x3D7 JUMP JUMPDEST STOP JUMPDEST CALLVALUE DUP1 ISZERO PUSH2 0x1BB JUMPI PUSH1 0x0 DUP1 REVERT JUMPDEST POP PUSH2 0x1C4 PUSH2 0x462 JUMP JUMPDEST PUSH1 0x40 MLOAD PUSH2 0x1D1 SWAP2 SWAP1 PUSH2 0xB60 JUMP JUMPDEST PUSH1 0x40 MLOAD DUP1 SWAP2 SUB SWAP1 RETURN JUMPDEST CALLVALUE DUP1 ISZERO PUSH2 0x1E6 JUMPI PUSH1 0x0 DUP1 REVERT JUMPDEST POP PUSH2 0x1EF PUSH2 0x4B9 JUMP JUMPDEST PUSH1 0x40 MLOAD PUSH2 0x1FC SWAP2 SWAP1 PUSH2 0xB8A JUMP JUMPDEST PUSH1 0x40 MLOAD DUP1 SWAP2 SUB SWAP1 RETURN JUMPDEST CALLVALUE DUP1 ISZERO PUSH2 0x211 JUMPI PUSH1 0x0 DUP1 REVERT JUMPDEST POP PUSH2 0x22C PUSH1 0x4 DUP1 CALLDATASIZE SUB DUP2 ADD SWAP1 PUSH2 0x227 SWAP2 SWAP1 PUSH2 0xBA5 JUMP JUMPDEST PUSH2 0x4DD JUMP JUMPDEST STOP JUMPDEST CALLVALUE DUP1 ISZERO PUSH2 0x23A JUMPI PUSH1 0x0 DUP1 REVERT JUMPDEST POP PUSH2 0x255 PUSH1 0x4 DUP1 CALLDATASIZE SUB DUP2 ADD SWAP1 PUSH2 0x250 SWAP2 SWAP1 PUSH2 0x8CD JUMP JUMPDEST PUSH2 0x5DC JUMP JUMPDEST PUSH1 0x40 MLOAD PUSH2 0x262 SWAP2 SWAP1 PUSH2 0xBFD JUMP JUMPDEST PUSH1 0x40 MLOAD DUP1 SWAP2 SUB SWAP1 RETURN JUMPDEST CALLVALUE DUP1 ISZERO PUSH2 0x277 JUMPI PUSH1 0x0 DUP1 REVERT JUMPDEST POP PUSH2 0x292 PUSH1 0x4 DUP1 CALLDATASIZE SUB DUP2 ADD SWAP1 PUSH2 0x28D SWAP2 SWAP1 PUSH2 0xC18 JUMP JUMPDEST PUSH2 0x5F4 JUMP JUMPDEST STOP JUMPDEST PUSH2 0x29C PUSH2 0x462 JUMP JUMPDEST PUSH2 0x2DB JUMPI PUSH1 0x40 MLOAD PUSH32 0x8C379A000000000000000000000000000000000000000000000000000000000 DUP2 MSTORE PUSH1 0x4 ADD PUSH2 0x2D2 SWAP1 PUSH2 0xCD1 JUMP JUMPDEST PUSH1 0x40 MLOAD DUP1 SWAP2 SUB SWAP1 REVERT JUMPDEST DUP1 PUSH1 0x0 DUP1 PUSH2 0x100 EXP DUP2 SLOAD DUP2 PUSH20 0xFFFFFFFFFFFFFFFFFFFFFFFFFFFFFFFFFFFFFFFF MUL NOT AND SWAP1 DUP4 PUSH20 0xFFFFFFFFFFFFFFFFFFFFFFFFFFFFFFFFFFFFFFFF AND MUL OR SWAP1 SSTORE POP POP JUMP JUMPDEST PUSH1 0x1 ISZERO ISZERO PUSH1 0x1 DUP3 PUSH1 0x40 MLOAD PUSH2 0x332 SWAP2 SWAP1 PUSH2 0xD60 JUMP JUMPDEST SWAP1 DUP2 MSTORE PUSH1 0x20 ADD PUSH1 0x40 MLOAD DUP1 SWAP2 SUB SWAP1 KECCAK256 PUSH1 0x0 SWAP1 SLOAD SWAP1 PUSH2 0x100 EXP SWAP1 DIV PUSH1 0xFF AND ISZERO ISZERO EQ PUSH2 0x35A JUMPI PUSH1 0x0 DUP1 REVERT JUMPDEST PUSH32 0x2EE35DA94D6494EB515FD8F6FFFDECD1D417DBAE7E370CB1F77D709473E01D59 DUP6 DUP6 DUP6 DUP6 DUP6 PUSH1 0x40 MLOAD PUSH2 0x391 SWAP6 SWAP5 SWAP4 SWAP3 SWAP2 SWAP1 PUSH2 0xDB0 JUMP JUMPDEST PUSH1 0x40 MLOAD DUP1 SWAP2 SUB SWAP1 LOG1 PUSH1 0x0 PUSH1 0x1 DUP3 PUSH1 0x40 MLOAD PUSH2 0x3AB SWAP2 SWAP1 PUSH2 0xD60 JUMP JUMPDEST SWAP1 DUP2 MSTORE PUSH1 0x20 ADD PUSH1 0x40 MLOAD DUP1 SWAP2 SUB SWAP1 KECCAK256 PUSH1 0x0 PUSH2 0x100 EXP DUP2 SLOAD DUP2 PUSH1 0xFF MUL NOT AND SWAP1 DUP4 ISZERO ISZERO MUL OR SWAP1 SSTORE POP POP POP POP POP POP JUMP JUMPDEST PUSH2 0x3DF PUSH2 0x462 JUMP JUMPDEST PUSH2 0x41E JUMPI PUSH1 0x40 MLOAD PUSH32 0x8C379A000000000000000000000000000000000000000000000000000000000 DUP2 MSTORE PUSH1 0x4 ADD PUSH2 0x415 SWAP1 PUSH2 0xCD1 JUMP JUMPDEST PUSH1 0x40 MLOAD DUP1 SWAP2 SUB SWAP1 REVERT JUMPDEST DUP1 PUSH1 0x3 PUSH1 0x0 PUSH2 0x100 EXP DUP2 SLOAD DUP2 PUSH20 0xFFFFFFFFFFFFFFFFFFFFFFFFFFFFFFFFFFFFFFFF MUL NOT AND SWAP1 DUP4 PUSH20 0xFFFFFFFFFFFFFFFFFFFFFFFFFFFFFFFFFFFFFFFF AND MUL OR SWAP1 SSTORE POP POP JUMP JUMPDEST PUSH1 0x0 DUP1 PUSH1 0x0 SWAP1 SLOAD SWAP1 PUSH2 0x100 EXP SWAP1 DIV PUSH20 0xFFFFFFFFFFFFFFFFFFFFFFFFFFFFFFFFFFFFFFFF AND PUSH20 0xFFFFFFFFFFFFFFFFFFFFFFFFFFFFFFFFFFFFFFFF AND CALLER PUSH20 0xFFFFFFFFFFFFFFFFFFFFFFFFFFFFFFFFFFFFFFFF AND EQ SWAP1 POP SWAP1 JUMP JUMPDEST PUSH1 0x0 DUP1 SLOAD SWAP1 PUSH2 0x100 EXP SWAP1 DIV PUSH20 0xFFFFFFFFFFFFFFFFFFFFFFFFFFFFFFFFFFFFFFFF AND DUP2 JUMP JUMPDEST PUSH1 0x3 PUSH1 0x0 SWAP1 SLOAD SWAP1 PUSH2 0x100 EXP SWAP1 DIV PUSH20 0xFFFFFFFFFFFFFFFFFFFFFFFFFFFFFFFFFFFFFFFF AND PUSH20 0xFFFFFFFFFFFFFFFFFFFFFFFFFFFFFFFFFFFFFFFF AND CALLER PUSH20 0xFFFFFFFFFFFFFFFFFFFFFFFFFFFFFFFFFFFFFFFF AND EQ PUSH2 0x537 JUMPI PUSH1 0x0 DUP1 REVERT JUMPDEST PUSH1 0x1 DUP1 DUP3 PUSH1 0x40 MLOAD PUSH2 0x548 SWAP2 SWAP1 PUSH2 0xD60 JUMP JUMPDEST SWAP1 DUP2 MSTORE PUSH1 0x20 ADD PUSH1 0x40 MLOAD DUP1 SWAP2 SUB SWAP1 KECCAK256 PUSH1 0x0 PUSH2 0x100 EXP DUP2 SLOAD DUP2 PUSH1 0xFF MUL NOT AND SWAP1 DUP4 ISZERO ISZERO MUL OR SWAP1 SSTORE POP PUSH1 0x1 DUP2 PUSH1 0x40 MLOAD PUSH2 0x57D SWAP2 SWAP1 PUSH2 0xD60 JUMP JUMPDEST SWAP1 DUP2 MSTORE PUSH1 0x20 ADD PUSH1 0x40 MLOAD DUP1 SWAP2 SUB SWAP1 KECCAK256 PUSH1 0x0 SWAP1 SLOAD SWAP1 PUSH2 0x100 EXP SWAP1 DIV PUSH1 0xFF AND PUSH2 0x5A2 JUMPI PUSH1 0x0 DUP1 REVERT JUMPDEST PUSH1 0x1 PUSH1 0x2 DUP3 PUSH1 0x40 MLOAD PUSH2 0x5B4 SWAP2 SWAP1 PUSH2 0xD60 JUMP JUMPDEST SWAP1 DUP2 MSTORE PUSH1 0x20 ADD PUSH1 0x40 MLOAD DUP1 SWAP2 SUB SWAP1 KECCAK256 PUSH1 0x0 PUSH2 0x100 EXP DUP2 SLOAD DUP2 PUSH1 0xFF MUL NOT AND SWAP1 DUP4 ISZERO ISZERO MUL OR SWAP1 SSTORE POP POP JUMP JUMPDEST PUSH1 0x5 PUSH1 0x20 MSTORE DUP1 PUSH1 0x0 MSTORE PUSH1 0x40 PUSH1 0x0 KECCAK256 PUSH1 0x0 SWAP2 POP SWAP1 POP SLOAD DUP2 JUMP JUMPDEST PUSH1 0x3 PUSH1 0x0 SWAP1 SLOAD SWAP1 PUSH2 0x100 EXP SWAP1 DIV PUSH20 0xFFFFFFFFFFFFFFFFFFFFFFFFFFFFFFFFFFFFFFFF AND PUSH20 0xFFFFFFFFFFFFFFFFFFFFFFFFFFFFFFFFFFFFFFFF AND CALLER PUSH20 0xFFFFFFFFFFFFFFFFFFFFFFFFFFFFFFFFFFFFFFFF AND EQ PUSH2 0x64E JUMPI PUSH1 0x0 DUP1 REVERT JUMPDEST PUSH1 0x1 DUP1 DUP4 PUSH1 0x40 MLOAD PUSH2 0x65F SWAP2 SWAP1 PUSH2 0xD60 JUMP JUMPDEST SWAP1 DUP2 MSTORE PUSH1 0x20 ADD PUSH1 0x40 MLOAD DUP1 SWAP2 SUB SWAP1 KECCAK256 PUSH1 0x0 PUSH2 0x100 EXP DUP2 SLOAD DUP2 PUSH1 0xFF MUL NOT AND SWAP1 DUP4 ISZERO ISZERO MUL OR SWAP1 SSTORE POP PUSH1 0x1 DUP3 PUSH1 0x40 MLOAD PUSH2 0x694 SWAP2 SWAP1 PUSH2 0xD60 JUMP JUMPDEST SWAP1 DUP2 MSTORE PUSH1 0x20 ADD PUSH1 0x40 MLOAD DUP1 SWAP2 SUB SWAP1 KECCAK256 PUSH1 0x0 SWAP1 SLOAD SWAP1 PUSH2 0x100 EXP SWAP1 DIV PUSH1 0xFF AND PUSH2 0x6B9 JUMPI PUSH1 0x0 DUP1 REVERT JUMPDEST PUSH1 0x1 PUSH1 0x2 DUP4 PUSH1 0x40 MLOAD PUSH2 0x6CB SWAP2 SWAP1 PUSH2 0xD60 JUMP JUMPDEST SWAP1 DUP2 MSTORE PUSH1 0x20 ADD PUSH1 0x40 MLOAD DUP1 SWAP2 SUB SWAP1 KECCAK256 PUSH1 0x0 PUSH2 0x100 EXP DUP2 SLOAD DUP2 PUSH1 0xFF MUL NOT AND SWAP1 DUP4 ISZERO ISZERO MUL OR SWAP1 SSTORE POP DUP2 PUSH1 0x4 PUSH1 0x0 DUP4 PUSH20 0xFFFFFFFFFFFFFFFFFFFFFFFFFFFFFFFFFFFFFFFF AND PUSH20 0xFFFFFFFFFFFFFFFFFFFFFFFFFFFFFFFFFFFFFFFF AND DUP2 MSTORE PUSH1 0x20 ADD SWAP1 DUP2 MSTORE PUSH1 0x20 ADD PUSH1 0x0 KECCAK256 SWAP1 DUP2 PUSH2 0x73C SWAP2 SWAP1 PUSH2 0xFAF JUMP JUMPDEST POP POP POP JUMP JUMPDEST PUSH32 0x4E487B7100000000000000000000000000000000000000000000000000000000 PUSH1 0x0 MSTORE PUSH1 0x22 PUSH1 0x4 MSTORE PUSH1 0x24 PUSH1 0x0 REVERT JUMPDEST PUSH1 0x0 PUSH1 0x2 DUP3 DIV SWAP1 POP PUSH1 0x1 DUP3 AND DUP1 PUSH2 0x788 JUMPI PUSH1 0x7F DUP3 AND SWAP2 POP JUMPDEST PUSH1 0x20 DUP3 LT DUP2 SUB PUSH2 0x79B JUMPI PUSH2 0x79A PUSH2 0x741 JUMP JUMPDEST JUMPDEST POP SWAP2 SWAP1 POP JUMP JUMPDEST PUSH1 0x0 DUP2 SWAP1 POP SWAP3 SWAP2 POP POP JUMP JUMPDEST PUSH1 0x0 DUP2 SWAP1 POP DUP2 PUSH1 0x0 MSTORE PUSH1 0x20 PUSH1 0x0 KECCAK256 SWAP1 POP SWAP2 SWAP1 POP JUMP JUMPDEST PUSH1 0x0 DUP2 SLOAD PUSH2 0x7CE DUP2 PUSH2 0x770 JUMP JUMPDEST PUSH2 0x7D8 DUP2 DUP7 PUSH2 0x7A1 JUMP JUMPDEST SWAP5 POP PUSH1 0x1 DUP3 AND PUSH1 0x0 DUP2 EQ PUSH2 0x7F3 JUMPI PUSH1 0x1 DUP2 EQ PUSH2 0x808 JUMPI PUSH2 0x83B JUMP JUMPDEST PUSH1 0xFF NOT DUP4 AND DUP7 MSTORE DUP2 ISZERO ISZERO DUP3 MUL DUP7 ADD SWAP4 POP PUSH2 0x83B JUMP JUMPDEST PUSH2 0x811 DUP6 PUSH2 0x7AC JUMP JUMPDEST PUSH1 0x0 JUMPDEST DUP4 DUP2 LT ISZERO PUSH2 0x833 JUMPI DUP2 SLOAD DUP2 DUP10 ADD MSTORE PUSH1 0x1 DUP3 ADD SWAP2 POP PUSH1 0x20 DUP2 ADD SWAP1 POP PUSH2 0x814 JUMP JUMPDEST DUP4 DUP9 ADD SWAP6 POP POP POP JUMPDEST POP POP POP SWAP3 SWAP2 POP POP JUMP JUMPDEST PUSH1 0x0 PUSH2 0x850 DUP3 DUP5 PUSH2 0x7C1 JUMP JUMPDEST SWAP2 POP DUP2 SWAP1 POP SWAP3 SWAP2 POP POP JUMP JUMPDEST PUSH1 0x0 PUSH1 0x40 MLOAD SWAP1 POP SWAP1 JUMP JUMPDEST PUSH1 0x0 DUP1 REVERT JUMPDEST PUSH1 0x0 DUP1 REVERT JUMPDEST PUSH1 0x0 PUSH20 0xFFFFFFFFFFFFFFFFFFFFFFFFFFFFFFFFFFFFFFFF DUP3 AND SWAP1 POP SWAP2 SWAP1 POP JUMP JUMPDEST PUSH1 0x0 PUSH2 0x89A DUP3 PUSH2 0x86F JUMP JUMPDEST SWAP1 POP SWAP2 SWAP1 POP JUMP JUMPDEST PUSH2 0x8AA DUP2 PUSH2 0x88F JUMP JUMPDEST DUP2 EQ PUSH2 0x8B5 JUMPI PUSH1 0x0 DUP1 REVERT JUMPDEST POP JUMP JUMPDEST PUSH1 0x0 DUP2 CALLDATALOAD SWAP1 POP PUSH2 0x8C7 DUP2 PUSH2 0x8A1 JUMP JUMPDEST SWAP3 SWAP2 POP POP JUMP JUMPDEST PUSH1 0x0 PUSH1 0x20 DUP3 DUP5 SUB SLT ISZERO PUSH2 0x8E3 JUMPI PUSH2 0x8E2 PUSH2 0x865 JUMP JUMPDEST JUMPDEST PUSH1 0x0 PUSH2 0x8F1 DUP5 DUP3 DUP6 ADD PUSH2 0x8B8 JUMP JUMPDEST SWAP2 POP POP SWAP3 SWAP2 POP POP JUMP JUMPDEST PUSH1 0x0 DUP1 REVERT JUMPDEST PUSH1 0x0 DUP1 REVERT JUMPDEST PUSH1 0x0 PUSH1 0x1F NOT PUSH1 0x1F DUP4 ADD AND SWAP1 POP SWAP2 SWAP1 POP JUMP JUMPDEST PUSH32 0x4E487B7100000000000000000000000000000000000000000000000000000000 PUSH1 0x0 MSTORE PUSH1 0x41 PUSH1 0x4 MSTORE PUSH1 0x24 PUSH1 0x0 REVERT JUMPDEST PUSH2 0x94D DUP3 PUSH2 0x904 JUMP JUMPDEST DUP2 ADD DUP2 DUP2 LT PUSH8 0xFFFFFFFFFFFFFFFF DUP3 GT OR ISZERO PUSH2 0x96C JUMPI PUSH2 0x96B PUSH2 0x915 JUMP JUMPDEST JUMPDEST DUP1 PUSH1 0x40 MSTORE POP POP POP JUMP JUMPDEST PUSH1 0x0 PUSH2 0x97F PUSH2 0x85B JUMP JUMPDEST SWAP1 POP PUSH2 0x98B DUP3 DUP3 PUSH2 0x944 JUMP JUMPDEST SWAP2 SWAP1 POP JUMP JUMPDEST PUSH1 0x0 PUSH8 0xFFFFFFFFFFFFFFFF DUP3 GT ISZERO PUSH2 0x9AB JUMPI PUSH2 0x9AA PUSH2 0x915 JUMP JUMPDEST JUMPDEST PUSH2 0x9B4 DUP3 PUSH2 0x904 JUMP JUMPDEST SWAP1 POP PUSH1 0x20 DUP2 ADD SWAP1 POP SWAP2 SWAP1 POP JUMP JUMPDEST DUP3 DUP2 DUP4 CALLDATACOPY PUSH1 0x0 DUP4 DUP4 ADD MSTORE POP POP POP JUMP JUMPDEST PUSH1 0x0 PUSH2 0x9E3 PUSH2 0x9DE DUP5 PUSH2 0x990 JUMP JUMPDEST PUSH2 0x975 JUMP JUMPDEST SWAP1 POP DUP3 DUP2 MSTORE PUSH1 0x20 DUP2 ADD DUP5 DUP5 DUP5 ADD GT ISZERO PUSH2 0x9FF JUMPI PUSH2 0x9FE PUSH2 0x8FF JUMP JUMPDEST JUMPDEST PUSH2 0xA0A DUP5 DUP3 DUP6 PUSH2 0x9C1 JUMP JUMPDEST POP SWAP4 SWAP3 POP POP POP JUMP JUMPDEST PUSH1 0x0 DUP3 PUSH1 0x1F DUP4 ADD SLT PUSH2 0xA27 JUMPI PUSH2 0xA26 PUSH2 0x8FA JUMP JUMPDEST JUMPDEST DUP2 CALLDATALOAD PUSH2 0xA37 DUP5 DUP3 PUSH1 0x20 DUP7 ADD PUSH2 0x9D0 JUMP JUMPDEST SWAP2 POP POP SWAP3 SWAP2 POP POP JUMP JUMPDEST PUSH1 0x0 DUP2 SWAP1 POP SWAP2 SWAP1 POP JUMP JUMPDEST PUSH2 0xA53 DUP2 PUSH2 0xA40 JUMP JUMPDEST DUP2 EQ PUSH2 0xA5E JUMPI PUSH1 0x0 DUP1 REVERT JUMPDEST POP JUMP JUMPDEST PUSH1 0x0 DUP2 CALLDATALOAD SWAP1 POP PUSH2 0xA70 DUP2 PUSH2 0xA4A JUMP JUMPDEST SWAP3 SWAP2 POP POP JUMP JUMPDEST PUSH1 0x0 DUP1 PUSH1 0x0 DUP1 PUSH1 0x0 PUSH1 0xA0 DUP7 DUP9 SUB SLT ISZERO PUSH2 0xA92 JUMPI PUSH2 0xA91 PUSH2 0x865 JUMP JUMPDEST JUMPDEST PUSH1 0x0 DUP7 ADD CALLDATALOAD PUSH8 0xFFFFFFFFFFFFFFFF DUP2 GT ISZERO PUSH2 0xAB0 JUMPI PUSH2 0xAAF PUSH2 0x86A JUMP JUMPDEST JUMPDEST PUSH2 0xABC DUP9 DUP3 DUP10 ADD PUSH2 0xA12 JUMP JUMPDEST SWAP6 POP POP PUSH1 0x20 DUP7 ADD CALLDATALOAD PUSH8 0xFFFFFFFFFFFFFFFF DUP2 GT ISZERO PUSH2 0xADD JUMPI PUSH2 0xADC PUSH2 0x86A JUMP JUMPDEST JUMPDEST PUSH2 0xAE9 DUP9 DUP3 DUP10 ADD PUSH2 0xA12 JUMP JUMPDEST SWAP5 POP POP PUSH1 0x40 PUSH2 0xAFA DUP9 DUP3 DUP10 ADD PUSH2 0xA61 JUMP JUMPDEST SWAP4 POP POP PUSH1 0x60 PUSH2 0xB0B DUP9 DUP3 DUP10 ADD PUSH2 0xA61 JUMP JUMPDEST SWAP3 POP POP PUSH1 0x80 DUP7 ADD CALLDATALOAD PUSH8 0xFFFFFFFFFFFFFFFF DUP2 GT ISZERO PUSH2 0xB2C JUMPI PUSH2 0xB2B PUSH2 0x86A JUMP JUMPDEST JUMPDEST PUSH2 0xB38 DUP9 DUP3 DUP10 ADD PUSH2 0xA12 JUMP JUMPDEST SWAP2 POP POP SWAP3 SWAP6 POP SWAP3 SWAP6 SWAP1 SWAP4 POP JUMP JUMPDEST PUSH1 0x0 DUP2 ISZERO ISZERO SWAP1 POP SWAP2 SWAP1 POP JUMP JUMPDEST PUSH2 0xB5A DUP2 PUSH2 0xB45 JUMP JUMPDEST DUP3 MSTORE POP POP JUMP JUMPDEST PUSH1 0x0 PUSH1 0x20 DUP3 ADD SWAP1 POP PUSH2 0xB75 PUSH1 0x0 DUP4 ADD DUP5 PUSH2 0xB51 JUMP JUMPDEST SWAP3 SWAP2 POP POP JUMP JUMPDEST PUSH2 0xB84 DUP2 PUSH2 0x88F JUMP JUMPDEST DUP3 MSTORE POP POP JUMP JUMPDEST PUSH1 0x0 PUSH1 0x20 DUP3 ADD SWAP1 POP PUSH2 0xB9F PUSH1 0x0 DUP4 ADD DUP5 PUSH2 0xB7B JUMP JUMPDEST SWAP3 SWAP2 POP POP JUMP JUMPDEST PUSH1 0x0 PUSH1 0x20 DUP3 DUP5 SUB SLT ISZERO PUSH2 0xBBB JUMPI PUSH2 0xBBA PUSH2 0x865 JUMP JUMPDEST JUMPDEST PUSH1 0x0 DUP3 ADD CALLDATALOAD PUSH8 0xFFFFFFFFFFFFFFFF DUP2 GT ISZERO PUSH2 0xBD9 JUMPI PUSH2 0xBD8 PUSH2 0x86A JUMP JUMPDEST JUMPDEST PUSH2 0xBE5 DUP5 DUP3 DUP6 ADD PUSH2 0xA12 JUMP JUMPDEST SWAP2 POP POP SWAP3 SWAP2 POP POP JUMP JUMPDEST PUSH2 0xBF7 DUP2 PUSH2 0xA40 JUMP JUMPDEST DUP3 MSTORE POP POP JUMP JUMPDEST PUSH1 0x0 PUSH1 0x20 DUP3 ADD SWAP1 POP PUSH2 0xC12 PUSH1 0x0 DUP4 ADD DUP5 PUSH2 0xBEE JUMP JUMPDEST SWAP3 SWAP2 POP POP JUMP JUMPDEST PUSH1 0x0 DUP1 PUSH1 0x40 DUP4 DUP6 SUB SLT ISZERO PUSH2 0xC2F JUMPI PUSH2 0xC2E PUSH2 0x865 JUMP JUMPDEST JUMPDEST PUSH1 0x0 DUP4 ADD CALLDATALOAD PUSH8 0xFFFFFFFFFFFFFFFF DUP2 GT ISZERO PUSH2 0xC4D JUMPI PUSH2 0xC4C PUSH2 0x86A JUMP JUMPDEST JUMPDEST PUSH2 0xC59 DUP6 DUP3 DUP7 ADD PUSH2 0xA12 JUMP JUMPDEST SWAP3 POP POP PUSH1 0x20 PUSH2 0xC6A DUP6 DUP3 DUP7 ADD PUSH2 0x8B8 JUMP JUMPDEST SWAP2 POP POP SWAP3 POP SWAP3 SWAP1 POP JUMP JUMPDEST PUSH1 0x0 DUP3 DUP3 MSTORE PUSH1 0x20 DUP3 ADD SWAP1 POP SWAP3 SWAP2 POP POP JUMP JUMPDEST PUSH32 0x4F776E61626C653A2063616C6C6572206973206E6F7420746865206F776E6572 PUSH1 0x0 DUP3 ADD MSTORE POP JUMP JUMPDEST PUSH1 0x0 PUSH2 0xCBB PUSH1 0x20 DUP4 PUSH2 0xC74 JUMP JUMPDEST SWAP2 POP PUSH2 0xCC6 DUP3 PUSH2 0xC85 JUMP JUMPDEST PUSH1 0x20 DUP3 ADD SWAP1 POP SWAP2 SWAP1 POP JUMP JUMPDEST PUSH1 0x0 PUSH1 0x20 DUP3 ADD SWAP1 POP DUP2 DUP2 SUB PUSH1 0x0 DUP4 ADD MSTORE PUSH2 0xCEA DUP2 PUSH2 0xCAE JUMP JUMPDEST SWAP1 POP SWAP2 SWAP1 POP JUMP JUMPDEST PUSH1 0x0 DUP2 MLOAD SWAP1 POP SWAP2 SWAP1 POP JUMP JUMPDEST PUSH1 0x0 JUMPDEST DUP4 DUP2 LT ISZERO PUSH2 0xD1A JUMPI DUP1 DUP3 ADD MLOAD DUP2 DUP5 ADD MSTORE PUSH1 0x20 DUP2 ADD SWAP1 POP PUSH2 0xCFF JUMP JUMPDEST DUP4 DUP2 GT ISZERO PUSH2 0xD29 JUMPI PUSH1 0x0 DUP5 DUP5 ADD MSTORE JUMPDEST POP POP POP POP JUMP JUMPDEST PUSH1 0x0 PUSH2 0xD3A DUP3 PUSH2 0xCF1 JUMP JUMPDEST PUSH2 0xD44 DUP2 DUP6 PUSH2 0x7A1 JUMP JUMPDEST SWAP4 POP PUSH2 0xD54 DUP2 DUP6 PUSH1 0x20 DUP7 ADD PUSH2 0xCFC JUMP JUMPDEST DUP1 DUP5 ADD SWAP2 POP POP SWAP3 SWAP2 POP POP JUMP JUMPDEST PUSH1 0x0 PUSH2 0xD6C DUP3 DUP5 PUSH2 0xD2F JUMP JUMPDEST SWAP2 POP DUP2 SWAP1 POP SWAP3 SWAP2 POP POP JUMP JUMPDEST PUSH1 0x0 PUSH2 0xD82 DUP3 PUSH2 0xCF1 JUMP JUMPDEST PUSH2 0xD8C DUP2 DUP6 PUSH2 0xC74 JUMP JUMPDEST SWAP4 POP PUSH2 0xD9C DUP2 DUP6 PUSH1 0x20 DUP7 ADD PUSH2 0xCFC JUMP JUMPDEST PUSH2 0xDA5 DUP2 PUSH2 0x904 JUMP JUMPDEST DUP5 ADD SWAP2 POP POP SWAP3 SWAP2 POP POP JUMP JUMPDEST PUSH1 0x0 PUSH1 0xA0 DUP3 ADD SWAP1 POP DUP2 DUP2 SUB PUSH1 0x0 DUP4 ADD MSTORE PUSH2 0xDCA DUP2 DUP9 PUSH2 0xD77 JUMP JUMPDEST SWAP1 POP DUP2 DUP2 SUB PUSH1 0x20 DUP4 ADD MSTORE PUSH2 0xDDE DUP2 DUP8 PUSH2 0xD77 JUMP JUMPDEST SWAP1 POP PUSH2 0xDED PUSH1 0x40 DUP4 ADD DUP7 PUSH2 0xBEE JUMP JUMPDEST PUSH2 0xDFA PUSH1 0x60 DUP4 ADD DUP6 PUSH2 0xBEE JUMP JUMPDEST DUP2 DUP2 SUB PUSH1 0x80 DUP4 ADD MSTORE PUSH2 0xE0C DUP2 DUP5 PUSH2 0xD77 JUMP JUMPDEST SWAP1 POP SWAP7 SWAP6 POP POP POP POP POP POP JUMP JUMPDEST PUSH1 0x0 PUSH1 0x20 PUSH1 0x1F DUP4 ADD DIV SWAP1 POP SWAP2 SWAP1 POP JUMP JUMPDEST PUSH1 0x0 DUP3 DUP3 SHL SWAP1 POP SWAP3 SWAP2 POP POP JUMP JUMPDEST PUSH1 0x0 PUSH1 0x8 DUP4 MUL PUSH2 0xE65 PUSH32 0xFFFFFFFFFFFFFFFFFFFFFFFFFFFFFFFFFFFFFFFFFFFFFFFFFFFFFFFFFFFFFFFF DUP3 PUSH2 0xE28 JUMP JUMPDEST PUSH2 0xE6F DUP7 DUP4 PUSH2 0xE28 JUMP JUMPDEST SWAP6 POP DUP1 NOT DUP5 AND SWAP4 POP DUP1 DUP7 AND DUP5 OR SWAP3 POP POP POP SWAP4 SWAP3 POP POP POP JUMP JUMPDEST PUSH1 0x0 DUP2 SWAP1 POP SWAP2 SWAP1 POP JUMP JUMPDEST PUSH1 0x0 PUSH2 0xEAC PUSH2 0xEA7 PUSH2 0xEA2 DUP5 PUSH2 0xA40 JUMP JUMPDEST PUSH2 0xE87 JUMP JUMPDEST PUSH2 0xA40 JUMP JUMPDEST SWAP1 POP SWAP2 SWAP1 POP JUMP JUMPDEST PUSH1 0x0 DUP2 SWAP1 POP SWAP2 SWAP1 POP JUMP JUMPDEST PUSH2 0xEC6 DUP4 PUSH2 0xE91 JUMP JUMPDEST PUSH2 0xEDA PUSH2 0xED2 DUP3 PUSH2 0xEB3 JUMP JUMPDEST DUP5 DUP5 SLOAD PUSH2 0xE35 JUMP JUMPDEST DUP3 SSTORE POP POP POP POP JUMP JUMPDEST PUSH1 0x0 SWAP1 JUMP JUMPDEST PUSH2 0xEEF PUSH2 0xEE2 JUMP JUMPDEST PUSH2 0xEFA DUP2 DUP5 DUP5 PUSH2 0xEBD JUMP JUMPDEST POP POP POP JUMP JUMPDEST JUMPDEST DUP2 DUP2 LT ISZERO PUSH2 0xF1E JUMPI PUSH2 0xF13 PUSH1 0x0 DUP3 PUSH2 0xEE7 JUMP JUMPDEST PUSH1 0x1 DUP2 ADD SWAP1 POP PUSH2 0xF00 JUMP JUMPDEST POP POP JUMP JUMPDEST PUSH1 0x1F DUP3 GT ISZERO PUSH2 0xF63 JUMPI PUSH2 0xF34 DUP2 PUSH2 0x7AC JUMP JUMPDEST PUSH2 0xF3D DUP5 PUSH2 0xE18 JUMP JUMPDEST DUP2 ADD PUSH1 0x20 DUP6 LT ISZERO PUSH2 0xF4C JUMPI DUP2 SWAP1 POP JUMPDEST PUSH2 0xF60 PUSH2 0xF58 DUP6 PUSH2 0xE18 JUMP JUMPDEST DUP4 ADD DUP3 PUSH2 0xEFF JUMP JUMPDEST POP POP JUMPDEST POP POP POP JUMP JUMPDEST PUSH1 0x0 DUP3 DUP3 SHR SWAP1 POP SWAP3 SWAP2 POP POP JUMP JUMPDEST PUSH1 0x0 PUSH2 0xF86 PUSH1 0x0 NOT DUP5 PUSH1 0x8 MUL PUSH2 0xF68 JUMP JUMPDEST NOT DUP1 DUP4 AND SWAP2 POP POP SWAP3 SWAP2 POP POP JUMP JUMPDEST PUSH1 0x0 PUSH2 0xF9F DUP4 DUP4 PUSH2 0xF75 JUMP JUMPDEST SWAP2 POP DUP3 PUSH1 0x2 MUL DUP3 OR SWAP1 POP SWAP3 SWAP2 POP POP JUMP JUMPDEST PUSH2 0xFB8 DUP3 PUSH2 0xCF1 JUMP JUMPDEST PUSH8 0xFFFFFFFFFFFFFFFF DUP2 GT ISZERO PUSH2 0xFD1 JUMPI PUSH2 0xFD0 PUSH2 0x915 JUMP JUMPDEST JUMPDEST PUSH2 0xFDB DUP3 SLOAD PUSH2 0x770 JUMP JUMPDEST PUSH2 0xFE6 DUP3 DUP3 DUP6 PUSH2 0xF22 JUMP JUMPDEST PUSH1 0x0 PUSH1 0x20 SWAP1 POP PUSH1 0x1F DUP4 GT PUSH1 0x1 DUP2 EQ PUSH2 0x1019 JUMPI PUSH1 0x0 DUP5 ISZERO PUSH2 0x1007 JUMPI DUP3 DUP8 ADD MLOAD SWAP1 POP JUMPDEST PUSH2 0x1011 DUP6 DUP3 PUSH2 0xF93 JUMP JUMPDEST DUP7 SSTORE POP PUSH2 0x1079 JUMP JUMPDEST PUSH1 0x1F NOT DUP5 AND PUSH2 0x1027 DUP7 PUSH2 0x7AC JUMP JUMPDEST PUSH1 0x0 JUMPDEST DUP3 DUP2 LT ISZERO PUSH2 0x104F JUMPI DUP5 DUP10 ADD MLOAD DUP3 SSTORE PUSH1 0x1 DUP3 ADD SWAP2 POP PUSH1 0x20 DUP6 ADD SWAP5 POP PUSH1 0x20 DUP2 ADD SWAP1 POP PUSH2 0x102A JUMP JUMPDEST DUP7 DUP4 LT ISZERO PUSH2 0x106C JUMPI DUP5 DUP10 ADD MLOAD PUSH2 0x1068 PUSH1 0x1F DUP10 AND DUP3 PUSH2 0xF75 JUMP JUMPDEST DUP4 SSTORE POP JUMPDEST PUSH1 0x1 PUSH1 0x2 DUP9 MUL ADD DUP9 SSTORE POP POP POP JUMPDEST POP POP POP POP POP POP JUMP INVALID LOG2 PUSH5 0x6970667358 0x22 SLT KECCAK256 SHR 0xAD PUSH24 0x20D0B48E34286C4B1EB7EB863DE25D798B776B251F53AACE 0xD SWAP7 SDIV SSTORE JUMPDEST PUSH5 0x736F6C6343 STOP ADDMOD 0xF STOP CALLER "
				},
				"gasEstimates": {
					"creation": {
						"codeDepositCost": "855800",
						"executionCost": "49422",
						"totalCost": "905222"
					},
					"external": {
						"_owner()": "2511",
						"isOwner()": "2563",
						"issueCertificate(string,string,uint256,uint256,string)": "infinite",
						"setAdmin(address)": "26972",
						"setOwner(address)": "26928",
						"stakedAmount(address)": "2858",
						"updateCertificateRecipient(string)": "infinite",
						"updateCertificateRecipientForStaking(string,address)": "infinite"
					}
				},
				"methodIdentifiers": {
					"_owner()": "b2bdfa7b",
					"isOwner()": "8f32d59b",
					"issueCertificate(string,string,uint256,uint256,string)": "3f59c657",
					"setAdmin(address)": "704b6c02",
					"setOwner(address)": "13af4035",
					"stakedAmount(address)": "f9931855",
					"updateCertificateRecipient(string)": "e9351558",
					"updateCertificateRecipientForStaking(string,address)": "fe49048a"
				}
			},
			"storageLayout": {
				"storage": [
					{
						"astId": 191,
						"contract": "certificateissuer.sol:Staking",
						"label": "_owner",
						"offset": 0,
						"slot": "0",
						"type": "t_address"
					},
					{
						"astId": 18,
						"contract": "certificateissuer.sol:Staking",
						"label": "cauthValid",
						"offset": 0,
						"slot": "1",
						"type": "t_mapping(t_string_memory_ptr,t_bool)"
					},
					{
						"astId": 22,
						"contract": "certificateissuer.sol:Staking",
						"label": "cauthToCanStake",
						"offset": 0,
						"slot": "2",
						"type": "t_mapping(t_string_memory_ptr,t_bool)"
					},
					{
						"astId": 24,
						"contract": "certificateissuer.sol:Staking",
						"label": "_admin",
						"offset": 0,
						"slot": "3",
						"type": "t_address"
					},
					{
						"astId": 28,
						"contract": "certificateissuer.sol:Staking",
						"label": "adressToCauth",
						"offset": 0,
						"slot": "4",
						"type": "t_mapping(t_address,t_string_storage)"
					},
					{
						"astId": 165,
						"contract": "certificateissuer.sol:Staking",
						"label": "stakedAmount",
						"offset": 0,
						"slot": "5",
						"type": "t_mapping(t_address,t_uint256)"
					}
				],
				"types": {
					"t_address": {
						"encoding": "inplace",
						"label": "address",
						"numberOfBytes": "20"
					},
					"t_bool": {
						"encoding": "inplace",
						"label": "bool",
						"numberOfBytes": "1"
					},
					"t_mapping(t_address,t_string_storage)": {
						"encoding": "mapping",
						"key": "t_address",
						"label": "mapping(address => string)",
						"numberOfBytes": "32",
						"value": "t_string_storage"
					},
					"t_mapping(t_address,t_uint256)": {
						"encoding": "mapping",
						"key": "t_address",
						"label": "mapping(address => uint256)",
						"numberOfBytes": "32",
						"value": "t_uint256"
					},
					"t_mapping(t_string_memory_ptr,t_bool)": {
						"encoding": "mapping",
						"key": "t_string_memory_ptr",
						"label": "mapping(string => bool)",
						"numberOfBytes": "32",
						"value": "t_bool"
					},
					"t_string_memory_ptr": {
						"encoding": "bytes",
						"label": "string",
						"numberOfBytes": "32"
					},
					"t_string_storage": {
						"encoding": "bytes",
						"label": "string",
						"numberOfBytes": "32"
					},
					"t_uint256": {
						"encoding": "inplace",
						"label": "uint256",
						"numberOfBytes": "32"
					}
				}
			},
			"userdoc": {
				"kind": "user",
				"methods": {},
				"version": 1
			}
		}
	}
}