{
	"certificateissuer.sol": {
		"CertificateIssuer": {
			"abi": [
				{
					"inputs": [],
					"stateMutability": "nonpayable",
					"type": "constructor"
				},
				{
					"anonymous": false,
					"inputs": [
						{
							"indexed": false,
							"internalType": "string",
							"name": "_name",
							"type": "string"
						},
						{
							"indexed": false,
							"internalType": "string",
							"name": "_courseTittle",
							"type": "string"
						},
						{
							"indexed": false,
							"internalType": "uint256",
							"name": "_duration",
							"type": "uint256"
						},
						{
							"indexed": false,
							"internalType": "uint256",
							"name": "institute",
							"type": "uint256"
						},
						{
							"indexed": false,
							"internalType": "string",
							"name": "cauth",
							"type": "string"
						}
					],
					"name": "certificateIssued",
					"type": "event"
				},
				{
					"anonymous": false,
					"inputs": [
						{
							"indexed": false,
							"internalType": "address",
							"name": "_studentAddress",
							"type": "address"
						},
						{
							"indexed": false,
							"internalType": "uint256",
							"name": "_amount",
							"type": "uint256"
						}
					],
					"name": "stakeReturned",
					"type": "event"
				},
				{
					"inputs": [],
					"name": "_owner",
					"outputs": [
						{
							"internalType": "address",
							"name": "",
							"type": "address"
						}
					],
					"stateMutability": "view",
					"type": "function"
				},
				{
					"inputs": [],
					"name": "isOwner",
					"outputs": [
						{
							"internalType": "bool",
							"name": "",
							"type": "bool"
						}
					],
					"stateMutability": "view",
					"type": "function"
				},
				{
					"inputs": [
						{
							"internalType": "string",
							"name": "_name",
							"type": "string"
						},
						{
							"internalType": "string",
							"name": "_courseTittle",
							"type": "string"
						},
						{
							"internalType": "uint256",
							"name": "_duration",
							"type": "uint256"
						},
						{
							"internalType": "uint256",
							"name": "institute",
							"type": "uint256"
						},
						{
							"internalType": "string",
							"name": "cauth",
							"type": "string"
						}
					],
					"name": "issueCertificate",
					"outputs": [],
					"stateMutability": "payable",
					"type": "function"
				},
				{
					"inputs": [
						{
							"internalType": "address",
							"name": "_studentAddress",
							"type": "address"
						}
					],
					"name": "returnStakedEther",
					"outputs": [],
					"stateMutability": "payable",
					"type": "function"
				},
				{
					"inputs": [
						{
							"internalType": "address",
							"name": "_adminParameter",
							"type": "address"
						}
					],
					"name": "setAdmin",
					"outputs": [],
					"stateMutability": "nonpayable",
					"type": "function"
				},
				{
					"inputs": [
						{
							"internalType": "address",
							"name": "_newOwner",
							"type": "address"
						}
					],
					"name": "setOwner",
					"outputs": [],
					"stateMutability": "nonpayable",
					"type": "function"
				},
				{
					"inputs": [
						{
							"internalType": "address",
							"name": "",
							"type": "address"
						}
					],
					"name": "stakedAmount",
					"outputs": [
						{
							"internalType": "uint256",
							"name": "",
							"type": "uint256"
						}
					],
					"stateMutability": "view",
					"type": "function"
				},
				{
					"inputs": [
						{
							"internalType": "string",
							"name": "cauth",
							"type": "string"
						}
					],
					"name": "updateCertificateRecipient",
					"outputs": [],
					"stateMutability": "nonpayable",
					"type": "function"
				},
				{
					"inputs": [
						{
							"internalType": "string",
							"name": "cauth",
							"type": "string"
						},
						{
							"internalType": "address",
							"name": "_staker",
							"type": "address"
						}
					],
					"name": "updateCertificateRecipientForStaking",
					"outputs": [],
					"stateMutability": "nonpayable",
					"type": "function"
				},
				{
					"stateMutability": "payable",
					"type": "receive"
				}
			],
			"devdoc": {
				"kind": "dev",
				"methods": {
					"isOwner()": {
						"details": "Returns true if the caller is the current owner."
					}
				},
				"version": 1
			},
			"evm": {
				"assembly": "    /* \"certificateissuer.sol\":89:3658  contract CertificateIssuer is Ownable{... */\n  mstore(0x40, 0x80)\n    /* \"certificateissuer.sol\":193:247  constructor (){... */\n  callvalue\n  dup1\n  iszero\n  tag_1\n  jumpi\n  0x00\n  dup1\n  revert\ntag_1:\n  pop\n    /* \"ownable.sol\":150:160  msg.sender */\n  caller\n    /* \"ownable.sol\":141:147  _owner */\n  0x00\n  dup1\n    /* \"ownable.sol\":141:160  _owner = msg.sender */\n  0x0100\n  exp\n  dup2\n  sload\n  dup2\n  0xffffffffffffffffffffffffffffffffffffffff\n  mul\n  not\n  and\n  swap1\n  dup4\n  0xffffffffffffffffffffffffffffffffffffffff\n  and\n  mul\n  or\n  swap1\n  sstore\n  pop\n    /* \"certificateissuer.sol\":227:237  msg.sender */\n  caller\n    /* \"certificateissuer.sol\":218:224  _admin */\n  0x04\n  0x00\n    /* \"certificateissuer.sol\":218:237  _admin = msg.sender */\n  0x0100\n  exp\n  dup2\n  sload\n  dup2\n  0xffffffffffffffffffffffffffffffffffffffff\n  mul\n  not\n  and\n  swap1\n  dup4\n  0xffffffffffffffffffffffffffffffffffffffff\n  and\n  mul\n  or\n  swap1\n  sstore\n  pop\n    /* \"certificateissuer.sol\":89:3658  contract CertificateIssuer is Ownable{... */\n  dataSize(sub_0)\n  dup1\n  dataOffset(sub_0)\n  0x00\n  codecopy\n  0x00\n  return\nstop\n\nsub_0: assembly {\n        /* \"certificateissuer.sol\":89:3658  contract CertificateIssuer is Ownable{... */\n      mstore(0x40, 0x80)\n      jumpi(tag_1, lt(calldatasize, 0x04))\n      shr(0xe0, calldataload(0x00))\n      dup1\n      0xb2bdfa7b\n      gt\n      tag_12\n      jumpi\n      dup1\n      0xb2bdfa7b\n      eq\n      tag_7\n      jumpi\n      dup1\n      0xe9351558\n      eq\n      tag_8\n      jumpi\n      dup1\n      0xe9e65331\n      eq\n      tag_9\n      jumpi\n      dup1\n      0xf9931855\n      eq\n      tag_10\n      jumpi\n      dup1\n      0xfe49048a\n      eq\n      tag_11\n      jumpi\n      jump(tag_2)\n    tag_12:\n      dup1\n      0x13af4035\n      eq\n      tag_3\n      jumpi\n      dup1\n      0x3f59c657\n      eq\n      tag_4\n      jumpi\n      dup1\n      0x704b6c02\n      eq\n      tag_5\n      jumpi\n      dup1\n      0x8f32d59b\n      eq\n      tag_6\n      jumpi\n      jump(tag_2)\n    tag_1:\n      jumpi(tag_2, calldatasize)\n        /* \"certificateissuer.sol\":3548:3563  cauthToCanStake */\n      0x02\n        /* \"certificateissuer.sol\":3564:3577  adressToCauth */\n      0x05\n        /* \"certificateissuer.sol\":3564:3589  adressToCauth[msg.sender] */\n      0x00\n        /* \"certificateissuer.sol\":3578:3588  msg.sender */\n      caller\n        /* \"certificateissuer.sol\":3564:3589  adressToCauth[msg.sender] */\n      0xffffffffffffffffffffffffffffffffffffffff\n      and\n      0xffffffffffffffffffffffffffffffffffffffff\n      and\n      dup2\n      mstore\n      0x20\n      add\n      swap1\n      dup2\n      mstore\n      0x20\n      add\n      0x00\n      keccak256\n        /* \"certificateissuer.sol\":3548:3590  cauthToCanStake[adressToCauth[msg.sender]] */\n      mload(0x40)\n      tag_15\n      swap2\n      swap1\n      tag_16\n      jump\t// in\n    tag_15:\n      swap1\n      dup2\n      mstore\n      0x20\n      add\n      mload(0x40)\n      dup1\n      swap2\n      sub\n      swap1\n      keccak256\n      0x00\n      swap1\n      sload\n      swap1\n      0x0100\n      exp\n      swap1\n      div\n      0xff\n      and\n        /* \"certificateissuer.sol\":3540:3591  require(cauthToCanStake[adressToCauth[msg.sender]]) */\n      tag_17\n      jumpi\n      0x00\n      dup1\n      revert\n    tag_17:\n        /* \"certificateissuer.sol\":3631:3640  msg.value */\n      callvalue\n        /* \"certificateissuer.sol\":3604:3616  stakedAmount */\n      0x06\n        /* \"certificateissuer.sol\":3604:3628  stakedAmount[msg.sender] */\n      0x00\n        /* \"certificateissuer.sol\":3617:3627  msg.sender */\n      caller\n        /* \"certificateissuer.sol\":3604:3628  stakedAmount[msg.sender] */\n      0xffffffffffffffffffffffffffffffffffffffff\n      and\n      0xffffffffffffffffffffffffffffffffffffffff\n      and\n      dup2\n      mstore\n      0x20\n      add\n      swap1\n      dup2\n      mstore\n      0x20\n      add\n      0x00\n      keccak256\n        /* \"certificateissuer.sol\":3604:3640  stakedAmount[msg.sender] = msg.value */\n      dup2\n      swap1\n      sstore\n      stop\n        /* \"certificateissuer.sol\":89:3658  contract CertificateIssuer is Ownable{... */\n    tag_2:\n      0x00\n      dup1\n      revert\n        /* \"ownable.sol\":551:643  function setOwner(address _newOwner) public onlyOwner {... */\n    tag_3:\n      callvalue\n      dup1\n      iszero\n      tag_18\n      jumpi\n      0x00\n      dup1\n      revert\n    tag_18:\n      pop\n      tag_19\n      0x04\n      dup1\n      calldatasize\n      sub\n      dup2\n      add\n      swap1\n      tag_20\n      swap2\n      swap1\n      tag_21\n      jump\t// in\n    tag_20:\n      tag_22\n      jump\t// in\n    tag_19:\n      stop\n        /* \"certificateissuer.sol\":2688:3398  function issueCertificate(string memory _name , string memory _courseTittle, uint _duration , uint institute,string memory cauth ) external payable  {... */\n    tag_4:\n      tag_23\n      0x04\n      dup1\n      calldatasize\n      sub\n      dup2\n      add\n      swap1\n      tag_24\n      swap2\n      swap1\n      tag_25\n      jump\t// in\n    tag_24:\n      tag_26\n      jump\t// in\n    tag_23:\n      stop\n        /* \"certificateissuer.sol\":302:406  function setAdmin(address _adminParameter) public onlyOwner{... */\n    tag_5:\n      callvalue\n      dup1\n      iszero\n      tag_27\n      jumpi\n      0x00\n      dup1\n      revert\n    tag_27:\n      pop\n      tag_28\n      0x04\n      dup1\n      calldatasize\n      sub\n      dup2\n      add\n      swap1\n      tag_29\n      swap2\n      swap1\n      tag_21\n      jump\t// in\n    tag_29:\n      tag_30\n      jump\t// in\n    tag_28:\n      stop\n        /* \"ownable.sol\":451:545  function isOwner() public view returns (bool) {... */\n    tag_6:\n      callvalue\n      dup1\n      iszero\n      tag_31\n      jumpi\n      0x00\n      dup1\n      revert\n    tag_31:\n      pop\n      tag_32\n      tag_33\n      jump\t// in\n    tag_32:\n      mload(0x40)\n      tag_34\n      swap2\n      swap1\n      tag_35\n      jump\t// in\n    tag_34:\n      mload(0x40)\n      dup1\n      swap2\n      sub\n      swap1\n      return\n        /* \"ownable.sol\":85:106  address public _owner */\n    tag_7:\n      callvalue\n      dup1\n      iszero\n      tag_36\n      jumpi\n      0x00\n      dup1\n      revert\n    tag_36:\n      pop\n      tag_37\n      tag_38\n      jump\t// in\n    tag_37:\n      mload(0x40)\n      tag_39\n      swap2\n      swap1\n      tag_40\n      jump\t// in\n    tag_39:\n      mload(0x40)\n      dup1\n      swap2\n      sub\n      swap1\n      return\n        /* \"certificateissuer.sol\":1926:2159  function updateCertificateRecipient(string memory cauth) public  {... */\n    tag_8:\n      callvalue\n      dup1\n      iszero\n      tag_41\n      jumpi\n      0x00\n      dup1\n      revert\n    tag_41:\n      pop\n      tag_42\n      0x04\n      dup1\n      calldatasize\n      sub\n      dup2\n      add\n      swap1\n      tag_43\n      swap2\n      swap1\n      tag_44\n      jump\t// in\n    tag_43:\n      tag_45\n      jump\t// in\n    tag_42:\n      stop\n        /* \"certificateissuer.sol\":3406:3490  function returnStakedEther(address _studentAddress) public payable{... */\n    tag_9:\n      tag_46\n      0x04\n      dup1\n      calldatasize\n      sub\n      dup2\n      add\n      swap1\n      tag_47\n      swap2\n      swap1\n      tag_21\n      jump\t// in\n    tag_47:\n      tag_48\n      jump\t// in\n    tag_46:\n      stop\n        /* \"certificateissuer.sol\":712:757  mapping(address =>  uint) public stakedAmount */\n    tag_10:\n      callvalue\n      dup1\n      iszero\n      tag_49\n      jumpi\n      0x00\n      dup1\n      revert\n    tag_49:\n      pop\n      tag_50\n      0x04\n      dup1\n      calldatasize\n      sub\n      dup2\n      add\n      swap1\n      tag_51\n      swap2\n      swap1\n      tag_21\n      jump\t// in\n    tag_51:\n      tag_52\n      jump\t// in\n    tag_50:\n      mload(0x40)\n      tag_53\n      swap2\n      swap1\n      tag_54\n      jump\t// in\n    tag_53:\n      mload(0x40)\n      dup1\n      swap2\n      sub\n      swap1\n      return\n        /* \"certificateissuer.sol\":2335:2680  function updateCertificateRecipientForStaking(string memory cauth,address _staker ) public   {... */\n    tag_11:\n      callvalue\n      dup1\n      iszero\n      tag_55\n      jumpi\n      0x00\n      dup1\n      revert\n    tag_55:\n      pop\n      tag_56\n      0x04\n      dup1\n      calldatasize\n      sub\n      dup2\n      add\n      swap1\n      tag_57\n      swap2\n      swap1\n      tag_58\n      jump\t// in\n    tag_57:\n      tag_59\n      jump\t// in\n    tag_56:\n      stop\n        /* \"ownable.sol\":551:643  function setOwner(address _newOwner) public onlyOwner {... */\n    tag_22:\n        /* \"ownable.sol\":299:308  isOwner() */\n      tag_61\n        /* \"ownable.sol\":299:306  isOwner */\n      tag_33\n        /* \"ownable.sol\":299:308  isOwner() */\n      jump\t// in\n    tag_61:\n        /* \"ownable.sol\":291:345  require(isOwner(), \"Ownable: caller is not the owner\") */\n      tag_62\n      jumpi\n      mload(0x40)\n      0x08c379a000000000000000000000000000000000000000000000000000000000\n      dup2\n      mstore\n      0x04\n      add\n      tag_63\n      swap1\n      tag_64\n      jump\t// in\n    tag_63:\n      mload(0x40)\n      dup1\n      swap2\n      sub\n      swap1\n      revert\n    tag_62:\n        /* \"ownable.sol\":625:634  _newOwner */\n      dup1\n        /* \"ownable.sol\":616:622  _owner */\n      0x00\n      dup1\n        /* \"ownable.sol\":616:634  _owner = _newOwner */\n      0x0100\n      exp\n      dup2\n      sload\n      dup2\n      0xffffffffffffffffffffffffffffffffffffffff\n      mul\n      not\n      and\n      swap1\n      dup4\n      0xffffffffffffffffffffffffffffffffffffffff\n      and\n      mul\n      or\n      swap1\n      sstore\n      pop\n        /* \"ownable.sol\":551:643  function setOwner(address _newOwner) public onlyOwner {... */\n      pop\n      jump\t// out\n        /* \"certificateissuer.sol\":2688:3398  function issueCertificate(string memory _name , string memory _courseTittle, uint _duration , uint institute,string memory cauth ) external payable  {... */\n    tag_26:\n        /* \"certificateissuer.sol\":2931:2935  true */\n      0x01\n        /* \"certificateissuer.sol\":2910:2935  cauthValid[cauth] == true */\n      iszero\n      iszero\n        /* \"certificateissuer.sol\":2910:2920  cauthValid */\n      0x01\n        /* \"certificateissuer.sol\":2921:2926  cauth */\n      dup3\n        /* \"certificateissuer.sol\":2910:2927  cauthValid[cauth] */\n      mload(0x40)\n      tag_67\n      swap2\n      swap1\n      tag_68\n      jump\t// in\n    tag_67:\n      swap1\n      dup2\n      mstore\n      0x20\n      add\n      mload(0x40)\n      dup1\n      swap2\n      sub\n      swap1\n      keccak256\n      0x00\n      swap1\n      sload\n      swap1\n      0x0100\n      exp\n      swap1\n      div\n      0xff\n      and\n        /* \"certificateissuer.sol\":2910:2935  cauthValid[cauth] == true */\n      iszero\n      iszero\n      eq\n        /* \"certificateissuer.sol\":2902:2936  require(cauthValid[cauth] == true) */\n      tag_69\n      jumpi\n      0x00\n      dup1\n      revert\n    tag_69:\n        /* \"certificateissuer.sol\":3000:3006  _admin */\n      0x04\n      0x00\n      swap1\n      sload\n      swap1\n      0x0100\n      exp\n      swap1\n      div\n      0xffffffffffffffffffffffffffffffffffffffff\n      and\n        /* \"certificateissuer.sol\":2986:3006  msg.sender == _admin */\n      0xffffffffffffffffffffffffffffffffffffffff\n      and\n        /* \"certificateissuer.sol\":2986:2996  msg.sender */\n      caller\n        /* \"certificateissuer.sol\":2986:3006  msg.sender == _admin */\n      0xffffffffffffffffffffffffffffffffffffffff\n      and\n      eq\n        /* \"certificateissuer.sol\":2978:3007  require(msg.sender == _admin) */\n      tag_70\n      jumpi\n      0x00\n      dup1\n      revert\n    tag_70:\n        /* \"certificateissuer.sol\":3052:3116  certificateIssued(_name,_courseTittle,_duration,institute,cauth) */\n      0x2ee35da94d6494eb515fd8f6fffdecd1d417dbae7e370cb1f77d709473e01d59\n        /* \"certificateissuer.sol\":3070:3075  _name */\n      dup6\n        /* \"certificateissuer.sol\":3076:3089  _courseTittle */\n      dup6\n        /* \"certificateissuer.sol\":3090:3099  _duration */\n      dup6\n        /* \"certificateissuer.sol\":3100:3109  institute */\n      dup6\n        /* \"certificateissuer.sol\":3110:3115  cauth */\n      dup6\n        /* \"certificateissuer.sol\":3052:3116  certificateIssued(_name,_courseTittle,_duration,institute,cauth) */\n      mload(0x40)\n      tag_71\n      swap6\n      swap5\n      swap4\n      swap3\n      swap2\n      swap1\n      tag_72\n      jump\t// in\n    tag_71:\n      mload(0x40)\n      dup1\n      swap2\n      sub\n      swap1\n      log1\n        /* \"certificateissuer.sol\":3185:3190  false */\n      0x00\n        /* \"certificateissuer.sol\":3165:3175  cauthValid */\n      0x01\n        /* \"certificateissuer.sol\":3176:3181  cauth */\n      dup3\n        /* \"certificateissuer.sol\":3165:3182  cauthValid[cauth] */\n      mload(0x40)\n      tag_73\n      swap2\n      swap1\n      tag_68\n      jump\t// in\n    tag_73:\n      swap1\n      dup2\n      mstore\n      0x20\n      add\n      mload(0x40)\n      dup1\n      swap2\n      sub\n      swap1\n      keccak256\n      0x00\n        /* \"certificateissuer.sol\":3165:3190  cauthValid[cauth] = false */\n      0x0100\n      exp\n      dup2\n      sload\n      dup2\n      0xff\n      mul\n      not\n      and\n      swap1\n      dup4\n      iszero\n      iszero\n      mul\n      or\n      swap1\n      sstore\n      pop\n        /* \"certificateissuer.sol\":3208:3223  cauthToCanStake */\n      0x02\n        /* \"certificateissuer.sol\":3224:3229  cauth */\n      dup2\n        /* \"certificateissuer.sol\":3208:3230  cauthToCanStake[cauth] */\n      mload(0x40)\n      tag_74\n      swap2\n      swap1\n      tag_68\n      jump\t// in\n    tag_74:\n      swap1\n      dup2\n      mstore\n      0x20\n      add\n      mload(0x40)\n      dup1\n      swap2\n      sub\n      swap1\n      keccak256\n      0x00\n      swap1\n      sload\n      swap1\n      0x0100\n      exp\n      swap1\n      div\n      0xff\n      and\n        /* \"certificateissuer.sol\":3205:3391  if(cauthToCanStake[cauth]){... */\n      iszero\n      tag_75\n      jumpi\n        /* \"certificateissuer.sol\":3246:3286  returnStakedEther(cauthToAddress[cauth]) */\n      tag_76\n        /* \"certificateissuer.sol\":3264:3278  cauthToAddress */\n      0x03\n        /* \"certificateissuer.sol\":3279:3284  cauth */\n      dup3\n        /* \"certificateissuer.sol\":3264:3285  cauthToAddress[cauth] */\n      mload(0x40)\n      tag_77\n      swap2\n      swap1\n      tag_68\n      jump\t// in\n    tag_77:\n      swap1\n      dup2\n      mstore\n      0x20\n      add\n      mload(0x40)\n      dup1\n      swap2\n      sub\n      swap1\n      keccak256\n      0x00\n      swap1\n      sload\n      swap1\n      0x0100\n      exp\n      swap1\n      div\n      0xffffffffffffffffffffffffffffffffffffffff\n      and\n        /* \"certificateissuer.sol\":3246:3263  returnStakedEther */\n      tag_48\n        /* \"certificateissuer.sol\":3246:3286  returnStakedEther(cauthToAddress[cauth]) */\n      jump\t// in\n    tag_76:\n        /* \"certificateissuer.sol\":3306:3378  stakeReturned(cauthToAddress[cauth],stakedAmount[cauthToAddress[cauth]]) */\n      0x4e5bfbe05270402fc09cd413235062e684a8396be0a33385106e3b5c34302e60\n        /* \"certificateissuer.sol\":3320:3334  cauthToAddress */\n      0x03\n        /* \"certificateissuer.sol\":3335:3340  cauth */\n      dup3\n        /* \"certificateissuer.sol\":3320:3341  cauthToAddress[cauth] */\n      mload(0x40)\n      tag_78\n      swap2\n      swap1\n      tag_68\n      jump\t// in\n    tag_78:\n      swap1\n      dup2\n      mstore\n      0x20\n      add\n      mload(0x40)\n      dup1\n      swap2\n      sub\n      swap1\n      keccak256\n      0x00\n      swap1\n      sload\n      swap1\n      0x0100\n      exp\n      swap1\n      div\n      0xffffffffffffffffffffffffffffffffffffffff\n      and\n        /* \"certificateissuer.sol\":3342:3354  stakedAmount */\n      0x06\n        /* \"certificateissuer.sol\":3342:3377  stakedAmount[cauthToAddress[cauth]] */\n      0x00\n        /* \"certificateissuer.sol\":3355:3369  cauthToAddress */\n      0x03\n        /* \"certificateissuer.sol\":3370:3375  cauth */\n      dup6\n        /* \"certificateissuer.sol\":3355:3376  cauthToAddress[cauth] */\n      mload(0x40)\n      tag_79\n      swap2\n      swap1\n      tag_68\n      jump\t// in\n    tag_79:\n      swap1\n      dup2\n      mstore\n      0x20\n      add\n      mload(0x40)\n      dup1\n      swap2\n      sub\n      swap1\n      keccak256\n      0x00\n      swap1\n      sload\n      swap1\n      0x0100\n      exp\n      swap1\n      div\n      0xffffffffffffffffffffffffffffffffffffffff\n      and\n        /* \"certificateissuer.sol\":3342:3377  stakedAmount[cauthToAddress[cauth]] */\n      0xffffffffffffffffffffffffffffffffffffffff\n      and\n      0xffffffffffffffffffffffffffffffffffffffff\n      and\n      dup2\n      mstore\n      0x20\n      add\n      swap1\n      dup2\n      mstore\n      0x20\n      add\n      0x00\n      keccak256\n      sload\n        /* \"certificateissuer.sol\":3306:3378  stakeReturned(cauthToAddress[cauth],stakedAmount[cauthToAddress[cauth]]) */\n      mload(0x40)\n      tag_80\n      swap3\n      swap2\n      swap1\n      tag_81\n      jump\t// in\n    tag_80:\n      mload(0x40)\n      dup1\n      swap2\n      sub\n      swap1\n      log1\n        /* \"certificateissuer.sol\":3205:3391  if(cauthToCanStake[cauth]){... */\n    tag_75:\n        /* \"certificateissuer.sol\":2688:3398  function issueCertificate(string memory _name , string memory _courseTittle, uint _duration , uint institute,string memory cauth ) external payable  {... */\n      pop\n      pop\n      pop\n      pop\n      pop\n      jump\t// out\n        /* \"certificateissuer.sol\":302:406  function setAdmin(address _adminParameter) public onlyOwner{... */\n    tag_30:\n        /* \"ownable.sol\":299:308  isOwner() */\n      tag_83\n        /* \"ownable.sol\":299:306  isOwner */\n      tag_33\n        /* \"ownable.sol\":299:308  isOwner() */\n      jump\t// in\n    tag_83:\n        /* \"ownable.sol\":291:345  require(isOwner(), \"Ownable: caller is not the owner\") */\n      tag_84\n      jumpi\n      mload(0x40)\n      0x08c379a000000000000000000000000000000000000000000000000000000000\n      dup2\n      mstore\n      0x04\n      add\n      tag_85\n      swap1\n      tag_64\n      jump\t// in\n    tag_85:\n      mload(0x40)\n      dup1\n      swap2\n      sub\n      swap1\n      revert\n    tag_84:\n        /* \"certificateissuer.sol\":381:396  _adminParameter */\n      dup1\n        /* \"certificateissuer.sol\":372:378  _admin */\n      0x04\n      0x00\n        /* \"certificateissuer.sol\":372:396  _admin = _adminParameter */\n      0x0100\n      exp\n      dup2\n      sload\n      dup2\n      0xffffffffffffffffffffffffffffffffffffffff\n      mul\n      not\n      and\n      swap1\n      dup4\n      0xffffffffffffffffffffffffffffffffffffffff\n      and\n      mul\n      or\n      swap1\n      sstore\n      pop\n        /* \"certificateissuer.sol\":302:406  function setAdmin(address _adminParameter) public onlyOwner{... */\n      pop\n      jump\t// out\n        /* \"ownable.sol\":451:545  function isOwner() public view returns (bool) {... */\n    tag_33:\n        /* \"ownable.sol\":491:495  bool */\n      0x00\n        /* \"ownable.sol\":530:536  _owner */\n      dup1\n      0x00\n      swap1\n      sload\n      swap1\n      0x0100\n      exp\n      swap1\n      div\n      0xffffffffffffffffffffffffffffffffffffffff\n      and\n        /* \"ownable.sol\":516:536  msg.sender == _owner */\n      0xffffffffffffffffffffffffffffffffffffffff\n      and\n        /* \"ownable.sol\":516:526  msg.sender */\n      caller\n        /* \"ownable.sol\":516:536  msg.sender == _owner */\n      0xffffffffffffffffffffffffffffffffffffffff\n      and\n      eq\n        /* \"ownable.sol\":508:537  return (msg.sender == _owner) */\n      swap1\n      pop\n        /* \"ownable.sol\":451:545  function isOwner() public view returns (bool) {... */\n      swap1\n      jump\t// out\n        /* \"ownable.sol\":85:106  address public _owner */\n    tag_38:\n      0x00\n      dup1\n      sload\n      swap1\n      0x0100\n      exp\n      swap1\n      div\n      0xffffffffffffffffffffffffffffffffffffffff\n      and\n      dup2\n      jump\t// out\n        /* \"certificateissuer.sol\":1926:2159  function updateCertificateRecipient(string memory cauth) public  {... */\n    tag_45:\n        /* \"certificateissuer.sol\":2024:2030  _admin */\n      0x04\n      0x00\n      swap1\n      sload\n      swap1\n      0x0100\n      exp\n      swap1\n      div\n      0xffffffffffffffffffffffffffffffffffffffff\n      and\n        /* \"certificateissuer.sol\":2010:2030  msg.sender == _admin */\n      0xffffffffffffffffffffffffffffffffffffffff\n      and\n        /* \"certificateissuer.sol\":2010:2020  msg.sender */\n      caller\n        /* \"certificateissuer.sol\":2010:2030  msg.sender == _admin */\n      0xffffffffffffffffffffffffffffffffffffffff\n      and\n      eq\n        /* \"certificateissuer.sol\":2002:2031  require(msg.sender == _admin) */\n      tag_89\n      jumpi\n      0x00\n      dup1\n      revert\n    tag_89:\n        /* \"certificateissuer.sol\":2063:2067  true */\n      0x01\n        /* \"certificateissuer.sol\":2043:2053  cauthValid */\n      dup1\n        /* \"certificateissuer.sol\":2054:2059  cauth */\n      dup3\n        /* \"certificateissuer.sol\":2043:2060  cauthValid[cauth] */\n      mload(0x40)\n      tag_90\n      swap2\n      swap1\n      tag_68\n      jump\t// in\n    tag_90:\n      swap1\n      dup2\n      mstore\n      0x20\n      add\n      mload(0x40)\n      dup1\n      swap2\n      sub\n      swap1\n      keccak256\n      0x00\n        /* \"certificateissuer.sol\":2043:2067  cauthValid[cauth] = true */\n      0x0100\n      exp\n      dup2\n      sload\n      dup2\n      0xff\n      mul\n      not\n      and\n      swap1\n      dup4\n      iszero\n      iszero\n      mul\n      or\n      swap1\n      sstore\n      pop\n        /* \"certificateissuer.sol\":2089:2099  cauthValid */\n      0x01\n        /* \"certificateissuer.sol\":2100:2105  cauth */\n      dup2\n        /* \"certificateissuer.sol\":2089:2106  cauthValid[cauth] */\n      mload(0x40)\n      tag_91\n      swap2\n      swap1\n      tag_68\n      jump\t// in\n    tag_91:\n      swap1\n      dup2\n      mstore\n      0x20\n      add\n      mload(0x40)\n      dup1\n      swap2\n      sub\n      swap1\n      keccak256\n      0x00\n      swap1\n      sload\n      swap1\n      0x0100\n      exp\n      swap1\n      div\n      0xff\n      and\n        /* \"certificateissuer.sol\":2081:2107  require(cauthValid[cauth]) */\n      tag_92\n      jumpi\n      0x00\n      dup1\n      revert\n    tag_92:\n        /* \"certificateissuer.sol\":2145:2149  true */\n      0x01\n        /* \"certificateissuer.sol\":2120:2135  cauthToCanStake */\n      0x02\n        /* \"certificateissuer.sol\":2136:2141  cauth */\n      dup3\n        /* \"certificateissuer.sol\":2120:2142  cauthToCanStake[cauth] */\n      mload(0x40)\n      tag_93\n      swap2\n      swap1\n      tag_68\n      jump\t// in\n    tag_93:\n      swap1\n      dup2\n      mstore\n      0x20\n      add\n      mload(0x40)\n      dup1\n      swap2\n      sub\n      swap1\n      keccak256\n      0x00\n        /* \"certificateissuer.sol\":2120:2149  cauthToCanStake[cauth] = true */\n      0x0100\n      exp\n      dup2\n      sload\n      dup2\n      0xff\n      mul\n      not\n      and\n      swap1\n      dup4\n      iszero\n      iszero\n      mul\n      or\n      swap1\n      sstore\n      pop\n        /* \"certificateissuer.sol\":1926:2159  function updateCertificateRecipient(string memory cauth) public  {... */\n      pop\n      jump\t// out\n        /* \"certificateissuer.sol\":3406:3490  function returnStakedEther(address _studentAddress) public payable{... */\n    tag_48:\n      pop\n      jump\t// out\n        /* \"certificateissuer.sol\":712:757  mapping(address =>  uint) public stakedAmount */\n    tag_52:\n      mstore(0x20, 0x06)\n      dup1\n      0x00\n      mstore\n      keccak256(0x00, 0x40)\n      0x00\n      swap2\n      pop\n      swap1\n      pop\n      sload\n      dup2\n      jump\t// out\n        /* \"certificateissuer.sol\":2335:2680  function updateCertificateRecipientForStaking(string memory cauth,address _staker ) public   {... */\n    tag_59:\n        /* \"certificateissuer.sol\":2461:2467  _admin */\n      0x04\n      0x00\n      swap1\n      sload\n      swap1\n      0x0100\n      exp\n      swap1\n      div\n      0xffffffffffffffffffffffffffffffffffffffff\n      and\n        /* \"certificateissuer.sol\":2447:2467  msg.sender == _admin */\n      0xffffffffffffffffffffffffffffffffffffffff\n      and\n        /* \"certificateissuer.sol\":2447:2457  msg.sender */\n      caller\n        /* \"certificateissuer.sol\":2447:2467  msg.sender == _admin */\n      0xffffffffffffffffffffffffffffffffffffffff\n      and\n      eq\n        /* \"certificateissuer.sol\":2439:2468  require(msg.sender == _admin) */\n      tag_96\n      jumpi\n      0x00\n      dup1\n      revert\n    tag_96:\n        /* \"certificateissuer.sol\":2500:2504  true */\n      0x01\n        /* \"certificateissuer.sol\":2480:2490  cauthValid */\n      dup1\n        /* \"certificateissuer.sol\":2491:2496  cauth */\n      dup4\n        /* \"certificateissuer.sol\":2480:2497  cauthValid[cauth] */\n      mload(0x40)\n      tag_97\n      swap2\n      swap1\n      tag_68\n      jump\t// in\n    tag_97:\n      swap1\n      dup2\n      mstore\n      0x20\n      add\n      mload(0x40)\n      dup1\n      swap2\n      sub\n      swap1\n      keccak256\n      0x00\n        /* \"certificateissuer.sol\":2480:2504  cauthValid[cauth] = true */\n      0x0100\n      exp\n      dup2\n      sload\n      dup2\n      0xff\n      mul\n      not\n      and\n      swap1\n      dup4\n      iszero\n      iszero\n      mul\n      or\n      swap1\n      sstore\n      pop\n        /* \"certificateissuer.sol\":2526:2536  cauthValid */\n      0x01\n        /* \"certificateissuer.sol\":2537:2542  cauth */\n      dup3\n        /* \"certificateissuer.sol\":2526:2543  cauthValid[cauth] */\n      mload(0x40)\n      tag_98\n      swap2\n      swap1\n      tag_68\n      jump\t// in\n    tag_98:\n      swap1\n      dup2\n      mstore\n      0x20\n      add\n      mload(0x40)\n      dup1\n      swap2\n      sub\n      swap1\n      keccak256\n      0x00\n      swap1\n      sload\n      swap1\n      0x0100\n      exp\n      swap1\n      div\n      0xff\n      and\n        /* \"certificateissuer.sol\":2518:2544  require(cauthValid[cauth]) */\n      tag_99\n      jumpi\n      0x00\n      dup1\n      revert\n    tag_99:\n        /* \"certificateissuer.sol\":2582:2586  true */\n      0x01\n        /* \"certificateissuer.sol\":2557:2572  cauthToCanStake */\n      0x02\n        /* \"certificateissuer.sol\":2573:2578  cauth */\n      dup4\n        /* \"certificateissuer.sol\":2557:2579  cauthToCanStake[cauth] */\n      mload(0x40)\n      tag_100\n      swap2\n      swap1\n      tag_68\n      jump\t// in\n    tag_100:\n      swap1\n      dup2\n      mstore\n      0x20\n      add\n      mload(0x40)\n      dup1\n      swap2\n      sub\n      swap1\n      keccak256\n      0x00\n        /* \"certificateissuer.sol\":2557:2586  cauthToCanStake[cauth] = true */\n      0x0100\n      exp\n      dup2\n      sload\n      dup2\n      0xff\n      mul\n      not\n      and\n      swap1\n      dup4\n      iszero\n      iszero\n      mul\n      or\n      swap1\n      sstore\n      pop\n        /* \"certificateissuer.sol\":2624:2629  cauth */\n      dup2\n        /* \"certificateissuer.sol\":2599:2612  adressToCauth */\n      0x05\n        /* \"certificateissuer.sol\":2599:2621  adressToCauth[_staker] */\n      0x00\n        /* \"certificateissuer.sol\":2613:2620  _staker */\n      dup4\n        /* \"certificateissuer.sol\":2599:2621  adressToCauth[_staker] */\n      0xffffffffffffffffffffffffffffffffffffffff\n      and\n      0xffffffffffffffffffffffffffffffffffffffff\n      and\n      dup2\n      mstore\n      0x20\n      add\n      swap1\n      dup2\n      mstore\n      0x20\n      add\n      0x00\n      keccak256\n        /* \"certificateissuer.sol\":2599:2629  adressToCauth[_staker] = cauth */\n      swap1\n      dup2\n      tag_101\n      swap2\n      swap1\n      tag_102\n      jump\t// in\n    tag_101:\n      pop\n        /* \"certificateissuer.sol\":2664:2671  _staker */\n      dup1\n        /* \"certificateissuer.sol\":2641:2655  cauthToAddress */\n      0x03\n        /* \"certificateissuer.sol\":2656:2661  cauth */\n      dup4\n        /* \"certificateissuer.sol\":2641:2662  cauthToAddress[cauth] */\n      mload(0x40)\n      tag_103\n      swap2\n      swap1\n      tag_68\n      jump\t// in\n    tag_103:\n      swap1\n      dup2\n      mstore\n      0x20\n      add\n      mload(0x40)\n      dup1\n      swap2\n      sub\n      swap1\n      keccak256\n      0x00\n        /* \"certificateissuer.sol\":2641:2671  cauthToAddress[cauth] =_staker */\n      0x0100\n      exp\n      dup2\n      sload\n      dup2\n      0xffffffffffffffffffffffffffffffffffffffff\n      mul\n      not\n      and\n      swap1\n      dup4\n      0xffffffffffffffffffffffffffffffffffffffff\n      and\n      mul\n      or\n      swap1\n      sstore\n      pop\n        /* \"certificateissuer.sol\":2335:2680  function updateCertificateRecipientForStaking(string memory cauth,address _staker ) public   {... */\n      pop\n      pop\n      jump\t// out\n        /* \"#utility.yul\":7:187   */\n    tag_104:\n        /* \"#utility.yul\":55:132   */\n      0x4e487b7100000000000000000000000000000000000000000000000000000000\n        /* \"#utility.yul\":52:53   */\n      0x00\n        /* \"#utility.yul\":45:133   */\n      mstore\n        /* \"#utility.yul\":152:156   */\n      0x22\n        /* \"#utility.yul\":149:150   */\n      0x04\n        /* \"#utility.yul\":142:157   */\n      mstore\n        /* \"#utility.yul\":176:180   */\n      0x24\n        /* \"#utility.yul\":173:174   */\n      0x00\n        /* \"#utility.yul\":166:181   */\n      revert\n        /* \"#utility.yul\":193:513   */\n    tag_105:\n        /* \"#utility.yul\":237:243   */\n      0x00\n        /* \"#utility.yul\":274:275   */\n      0x02\n        /* \"#utility.yul\":268:272   */\n      dup3\n        /* \"#utility.yul\":264:276   */\n      div\n        /* \"#utility.yul\":254:276   */\n      swap1\n      pop\n        /* \"#utility.yul\":321:322   */\n      0x01\n        /* \"#utility.yul\":315:319   */\n      dup3\n        /* \"#utility.yul\":311:323   */\n      and\n        /* \"#utility.yul\":342:360   */\n      dup1\n        /* \"#utility.yul\":332:413   */\n      tag_157\n      jumpi\n        /* \"#utility.yul\":398:402   */\n      0x7f\n        /* \"#utility.yul\":390:396   */\n      dup3\n        /* \"#utility.yul\":386:403   */\n      and\n        /* \"#utility.yul\":376:403   */\n      swap2\n      pop\n        /* \"#utility.yul\":332:413   */\n    tag_157:\n        /* \"#utility.yul\":460:462   */\n      0x20\n        /* \"#utility.yul\":452:458   */\n      dup3\n        /* \"#utility.yul\":449:463   */\n      lt\n        /* \"#utility.yul\":429:447   */\n      dup2\n        /* \"#utility.yul\":426:464   */\n      sub\n        /* \"#utility.yul\":423:507   */\n      tag_158\n      jumpi\n        /* \"#utility.yul\":479:497   */\n      tag_159\n      tag_104\n      jump\t// in\n    tag_159:\n        /* \"#utility.yul\":423:507   */\n    tag_158:\n        /* \"#utility.yul\":244:513   */\n      pop\n        /* \"#utility.yul\":193:513   */\n      swap2\n      swap1\n      pop\n      jump\t// out\n        /* \"#utility.yul\":519:667   */\n    tag_106:\n        /* \"#utility.yul\":621:632   */\n      0x00\n        /* \"#utility.yul\":658:661   */\n      dup2\n        /* \"#utility.yul\":643:661   */\n      swap1\n      pop\n        /* \"#utility.yul\":519:667   */\n      swap3\n      swap2\n      pop\n      pop\n      jump\t// out\n        /* \"#utility.yul\":673:814   */\n    tag_107:\n        /* \"#utility.yul\":722:726   */\n      0x00\n        /* \"#utility.yul\":745:748   */\n      dup2\n        /* \"#utility.yul\":737:748   */\n      swap1\n      pop\n        /* \"#utility.yul\":768:771   */\n      dup2\n        /* \"#utility.yul\":765:766   */\n      0x00\n        /* \"#utility.yul\":758:772   */\n      mstore\n        /* \"#utility.yul\":802:806   */\n      0x20\n        /* \"#utility.yul\":799:800   */\n      0x00\n        /* \"#utility.yul\":789:807   */\n      keccak256\n        /* \"#utility.yul\":781:807   */\n      swap1\n      pop\n        /* \"#utility.yul\":673:814   */\n      swap2\n      swap1\n      pop\n      jump\t// out\n        /* \"#utility.yul\":844:1718   */\n    tag_108:\n        /* \"#utility.yul\":947:950   */\n      0x00\n        /* \"#utility.yul\":984:989   */\n      dup2\n        /* \"#utility.yul\":978:990   */\n      sload\n        /* \"#utility.yul\":1013:1049   */\n      tag_163\n        /* \"#utility.yul\":1039:1048   */\n      dup2\n        /* \"#utility.yul\":1013:1049   */\n      tag_105\n      jump\t// in\n    tag_163:\n        /* \"#utility.yul\":1065:1154   */\n      tag_164\n        /* \"#utility.yul\":1147:1153   */\n      dup2\n        /* \"#utility.yul\":1142:1145   */\n      dup7\n        /* \"#utility.yul\":1065:1154   */\n      tag_106\n      jump\t// in\n    tag_164:\n        /* \"#utility.yul\":1058:1154   */\n      swap5\n      pop\n        /* \"#utility.yul\":1185:1186   */\n      0x01\n        /* \"#utility.yul\":1174:1183   */\n      dup3\n        /* \"#utility.yul\":1170:1187   */\n      and\n        /* \"#utility.yul\":1201:1202   */\n      0x00\n        /* \"#utility.yul\":1196:1362   */\n      dup2\n      eq\n      tag_166\n      jumpi\n        /* \"#utility.yul\":1376:1377   */\n      0x01\n        /* \"#utility.yul\":1371:1712   */\n      dup2\n      eq\n      tag_167\n      jumpi\n        /* \"#utility.yul\":1163:1712   */\n      jump(tag_165)\n        /* \"#utility.yul\":1196:1362   */\n    tag_166:\n        /* \"#utility.yul\":1280:1284   */\n      0xff\n        /* \"#utility.yul\":1276:1285   */\n      not\n        /* \"#utility.yul\":1265:1274   */\n      dup4\n        /* \"#utility.yul\":1261:1286   */\n      and\n        /* \"#utility.yul\":1256:1259   */\n      dup7\n        /* \"#utility.yul\":1249:1287   */\n      mstore\n        /* \"#utility.yul\":1342:1348   */\n      dup2\n        /* \"#utility.yul\":1335:1349   */\n      iszero\n        /* \"#utility.yul\":1328:1350   */\n      iszero\n        /* \"#utility.yul\":1320:1326   */\n      dup3\n        /* \"#utility.yul\":1316:1351   */\n      mul\n        /* \"#utility.yul\":1311:1314   */\n      dup7\n        /* \"#utility.yul\":1307:1352   */\n      add\n        /* \"#utility.yul\":1300:1352   */\n      swap4\n      pop\n        /* \"#utility.yul\":1196:1362   */\n      jump(tag_165)\n        /* \"#utility.yul\":1371:1712   */\n    tag_167:\n        /* \"#utility.yul\":1438:1476   */\n      tag_168\n        /* \"#utility.yul\":1470:1475   */\n      dup6\n        /* \"#utility.yul\":1438:1476   */\n      tag_107\n      jump\t// in\n    tag_168:\n        /* \"#utility.yul\":1498:1499   */\n      0x00\n        /* \"#utility.yul\":1512:1666   */\n    tag_169:\n        /* \"#utility.yul\":1526:1532   */\n      dup4\n        /* \"#utility.yul\":1523:1524   */\n      dup2\n        /* \"#utility.yul\":1520:1533   */\n      lt\n        /* \"#utility.yul\":1512:1666   */\n      iszero\n      tag_171\n      jumpi\n        /* \"#utility.yul\":1600:1607   */\n      dup2\n        /* \"#utility.yul\":1594:1608   */\n      sload\n        /* \"#utility.yul\":1590:1591   */\n      dup2\n        /* \"#utility.yul\":1585:1588   */\n      dup10\n        /* \"#utility.yul\":1581:1592   */\n      add\n        /* \"#utility.yul\":1574:1609   */\n      mstore\n        /* \"#utility.yul\":1650:1651   */\n      0x01\n        /* \"#utility.yul\":1641:1648   */\n      dup3\n        /* \"#utility.yul\":1637:1652   */\n      add\n        /* \"#utility.yul\":1626:1652   */\n      swap2\n      pop\n        /* \"#utility.yul\":1548:1552   */\n      0x20\n        /* \"#utility.yul\":1545:1546   */\n      dup2\n        /* \"#utility.yul\":1541:1553   */\n      add\n        /* \"#utility.yul\":1536:1553   */\n      swap1\n      pop\n        /* \"#utility.yul\":1512:1666   */\n      jump(tag_169)\n    tag_171:\n        /* \"#utility.yul\":1695:1701   */\n      dup4\n        /* \"#utility.yul\":1690:1693   */\n      dup9\n        /* \"#utility.yul\":1686:1702   */\n      add\n        /* \"#utility.yul\":1679:1702   */\n      swap6\n      pop\n        /* \"#utility.yul\":1378:1712   */\n      pop\n      pop\n        /* \"#utility.yul\":1163:1712   */\n    tag_165:\n      pop\n        /* \"#utility.yul\":951:1718   */\n      pop\n      pop\n        /* \"#utility.yul\":844:1718   */\n      swap3\n      swap2\n      pop\n      pop\n      jump\t// out\n        /* \"#utility.yul\":1724:1993   */\n    tag_16:\n        /* \"#utility.yul\":1853:1856   */\n      0x00\n        /* \"#utility.yul\":1875:1967   */\n      tag_173\n        /* \"#utility.yul\":1963:1966   */\n      dup3\n        /* \"#utility.yul\":1954:1960   */\n      dup5\n        /* \"#utility.yul\":1875:1967   */\n      tag_108\n      jump\t// in\n    tag_173:\n        /* \"#utility.yul\":1868:1967   */\n      swap2\n      pop\n        /* \"#utility.yul\":1984:1987   */\n      dup2\n        /* \"#utility.yul\":1977:1987   */\n      swap1\n      pop\n        /* \"#utility.yul\":1724:1993   */\n      swap3\n      swap2\n      pop\n      pop\n      jump\t// out\n        /* \"#utility.yul\":1999:2074   */\n    tag_109:\n        /* \"#utility.yul\":2032:2038   */\n      0x00\n        /* \"#utility.yul\":2065:2067   */\n      0x40\n        /* \"#utility.yul\":2059:2068   */\n      mload\n        /* \"#utility.yul\":2049:2068   */\n      swap1\n      pop\n        /* \"#utility.yul\":1999:2074   */\n      swap1\n      jump\t// out\n        /* \"#utility.yul\":2080:2197   */\n    tag_110:\n        /* \"#utility.yul\":2189:2190   */\n      0x00\n        /* \"#utility.yul\":2186:2187   */\n      dup1\n        /* \"#utility.yul\":2179:2191   */\n      revert\n        /* \"#utility.yul\":2203:2320   */\n    tag_111:\n        /* \"#utility.yul\":2312:2313   */\n      0x00\n        /* \"#utility.yul\":2309:2310   */\n      dup1\n        /* \"#utility.yul\":2302:2314   */\n      revert\n        /* \"#utility.yul\":2326:2452   */\n    tag_112:\n        /* \"#utility.yul\":2363:2370   */\n      0x00\n        /* \"#utility.yul\":2403:2445   */\n      0xffffffffffffffffffffffffffffffffffffffff\n        /* \"#utility.yul\":2396:2401   */\n      dup3\n        /* \"#utility.yul\":2392:2446   */\n      and\n        /* \"#utility.yul\":2381:2446   */\n      swap1\n      pop\n        /* \"#utility.yul\":2326:2452   */\n      swap2\n      swap1\n      pop\n      jump\t// out\n        /* \"#utility.yul\":2458:2554   */\n    tag_113:\n        /* \"#utility.yul\":2495:2502   */\n      0x00\n        /* \"#utility.yul\":2524:2548   */\n      tag_179\n        /* \"#utility.yul\":2542:2547   */\n      dup3\n        /* \"#utility.yul\":2524:2548   */\n      tag_112\n      jump\t// in\n    tag_179:\n        /* \"#utility.yul\":2513:2548   */\n      swap1\n      pop\n        /* \"#utility.yul\":2458:2554   */\n      swap2\n      swap1\n      pop\n      jump\t// out\n        /* \"#utility.yul\":2560:2682   */\n    tag_114:\n        /* \"#utility.yul\":2633:2657   */\n      tag_181\n        /* \"#utility.yul\":2651:2656   */\n      dup2\n        /* \"#utility.yul\":2633:2657   */\n      tag_113\n      jump\t// in\n    tag_181:\n        /* \"#utility.yul\":2626:2631   */\n      dup2\n        /* \"#utility.yul\":2623:2658   */\n      eq\n        /* \"#utility.yul\":2613:2676   */\n      tag_182\n      jumpi\n        /* \"#utility.yul\":2672:2673   */\n      0x00\n        /* \"#utility.yul\":2669:2670   */\n      dup1\n        /* \"#utility.yul\":2662:2674   */\n      revert\n        /* \"#utility.yul\":2613:2676   */\n    tag_182:\n        /* \"#utility.yul\":2560:2682   */\n      pop\n      jump\t// out\n        /* \"#utility.yul\":2688:2827   */\n    tag_115:\n        /* \"#utility.yul\":2734:2739   */\n      0x00\n        /* \"#utility.yul\":2772:2778   */\n      dup2\n        /* \"#utility.yul\":2759:2779   */\n      calldataload\n        /* \"#utility.yul\":2750:2779   */\n      swap1\n      pop\n        /* \"#utility.yul\":2788:2821   */\n      tag_184\n        /* \"#utility.yul\":2815:2820   */\n      dup2\n        /* \"#utility.yul\":2788:2821   */\n      tag_114\n      jump\t// in\n    tag_184:\n        /* \"#utility.yul\":2688:2827   */\n      swap3\n      swap2\n      pop\n      pop\n      jump\t// out\n        /* \"#utility.yul\":2833:3162   */\n    tag_21:\n        /* \"#utility.yul\":2892:2898   */\n      0x00\n        /* \"#utility.yul\":2941:2943   */\n      0x20\n        /* \"#utility.yul\":2929:2938   */\n      dup3\n        /* \"#utility.yul\":2920:2927   */\n      dup5\n        /* \"#utility.yul\":2916:2939   */\n      sub\n        /* \"#utility.yul\":2912:2944   */\n      slt\n        /* \"#utility.yul\":2909:3028   */\n      iszero\n      tag_186\n      jumpi\n        /* \"#utility.yul\":2947:3026   */\n      tag_187\n      tag_110\n      jump\t// in\n    tag_187:\n        /* \"#utility.yul\":2909:3028   */\n    tag_186:\n        /* \"#utility.yul\":3067:3068   */\n      0x00\n        /* \"#utility.yul\":3092:3145   */\n      tag_188\n        /* \"#utility.yul\":3137:3144   */\n      dup5\n        /* \"#utility.yul\":3128:3134   */\n      dup3\n        /* \"#utility.yul\":3117:3126   */\n      dup6\n        /* \"#utility.yul\":3113:3135   */\n      add\n        /* \"#utility.yul\":3092:3145   */\n      tag_115\n      jump\t// in\n    tag_188:\n        /* \"#utility.yul\":3082:3145   */\n      swap2\n      pop\n        /* \"#utility.yul\":3038:3155   */\n      pop\n        /* \"#utility.yul\":2833:3162   */\n      swap3\n      swap2\n      pop\n      pop\n      jump\t// out\n        /* \"#utility.yul\":3168:3285   */\n    tag_116:\n        /* \"#utility.yul\":3277:3278   */\n      0x00\n        /* \"#utility.yul\":3274:3275   */\n      dup1\n        /* \"#utility.yul\":3267:3279   */\n      revert\n        /* \"#utility.yul\":3291:3408   */\n    tag_117:\n        /* \"#utility.yul\":3400:3401   */\n      0x00\n        /* \"#utility.yul\":3397:3398   */\n      dup1\n        /* \"#utility.yul\":3390:3402   */\n      revert\n        /* \"#utility.yul\":3414:3516   */\n    tag_118:\n        /* \"#utility.yul\":3455:3461   */\n      0x00\n        /* \"#utility.yul\":3506:3508   */\n      0x1f\n        /* \"#utility.yul\":3502:3509   */\n      not\n        /* \"#utility.yul\":3497:3499   */\n      0x1f\n        /* \"#utility.yul\":3490:3495   */\n      dup4\n        /* \"#utility.yul\":3486:3500   */\n      add\n        /* \"#utility.yul\":3482:3510   */\n      and\n        /* \"#utility.yul\":3472:3510   */\n      swap1\n      pop\n        /* \"#utility.yul\":3414:3516   */\n      swap2\n      swap1\n      pop\n      jump\t// out\n        /* \"#utility.yul\":3522:3702   */\n    tag_119:\n        /* \"#utility.yul\":3570:3647   */\n      0x4e487b7100000000000000000000000000000000000000000000000000000000\n        /* \"#utility.yul\":3567:3568   */\n      0x00\n        /* \"#utility.yul\":3560:3648   */\n      mstore\n        /* \"#utility.yul\":3667:3671   */\n      0x41\n        /* \"#utility.yul\":3664:3665   */\n      0x04\n        /* \"#utility.yul\":3657:3672   */\n      mstore\n        /* \"#utility.yul\":3691:3695   */\n      0x24\n        /* \"#utility.yul\":3688:3689   */\n      0x00\n        /* \"#utility.yul\":3681:3696   */\n      revert\n        /* \"#utility.yul\":3708:3989   */\n    tag_120:\n        /* \"#utility.yul\":3791:3818   */\n      tag_194\n        /* \"#utility.yul\":3813:3817   */\n      dup3\n        /* \"#utility.yul\":3791:3818   */\n      tag_118\n      jump\t// in\n    tag_194:\n        /* \"#utility.yul\":3783:3789   */\n      dup2\n        /* \"#utility.yul\":3779:3819   */\n      add\n        /* \"#utility.yul\":3921:3927   */\n      dup2\n        /* \"#utility.yul\":3909:3919   */\n      dup2\n        /* \"#utility.yul\":3906:3928   */\n      lt\n        /* \"#utility.yul\":3885:3903   */\n      0xffffffffffffffff\n        /* \"#utility.yul\":3873:3883   */\n      dup3\n        /* \"#utility.yul\":3870:3904   */\n      gt\n        /* \"#utility.yul\":3867:3929   */\n      or\n        /* \"#utility.yul\":3864:3952   */\n      iszero\n      tag_195\n      jumpi\n        /* \"#utility.yul\":3932:3950   */\n      tag_196\n      tag_119\n      jump\t// in\n    tag_196:\n        /* \"#utility.yul\":3864:3952   */\n    tag_195:\n        /* \"#utility.yul\":3972:3982   */\n      dup1\n        /* \"#utility.yul\":3968:3970   */\n      0x40\n        /* \"#utility.yul\":3961:3983   */\n      mstore\n        /* \"#utility.yul\":3751:3989   */\n      pop\n        /* \"#utility.yul\":3708:3989   */\n      pop\n      pop\n      jump\t// out\n        /* \"#utility.yul\":3995:4124   */\n    tag_121:\n        /* \"#utility.yul\":4029:4035   */\n      0x00\n        /* \"#utility.yul\":4056:4076   */\n      tag_198\n      tag_109\n      jump\t// in\n    tag_198:\n        /* \"#utility.yul\":4046:4076   */\n      swap1\n      pop\n        /* \"#utility.yul\":4085:4118   */\n      tag_199\n        /* \"#utility.yul\":4113:4117   */\n      dup3\n        /* \"#utility.yul\":4105:4111   */\n      dup3\n        /* \"#utility.yul\":4085:4118   */\n      tag_120\n      jump\t// in\n    tag_199:\n        /* \"#utility.yul\":3995:4124   */\n      swap2\n      swap1\n      pop\n      jump\t// out\n        /* \"#utility.yul\":4130:4438   */\n    tag_122:\n        /* \"#utility.yul\":4192:4196   */\n      0x00\n        /* \"#utility.yul\":4282:4300   */\n      0xffffffffffffffff\n        /* \"#utility.yul\":4274:4280   */\n      dup3\n        /* \"#utility.yul\":4271:4301   */\n      gt\n        /* \"#utility.yul\":4268:4324   */\n      iszero\n      tag_201\n      jumpi\n        /* \"#utility.yul\":4304:4322   */\n      tag_202\n      tag_119\n      jump\t// in\n    tag_202:\n        /* \"#utility.yul\":4268:4324   */\n    tag_201:\n        /* \"#utility.yul\":4342:4371   */\n      tag_203\n        /* \"#utility.yul\":4364:4370   */\n      dup3\n        /* \"#utility.yul\":4342:4371   */\n      tag_118\n      jump\t// in\n    tag_203:\n        /* \"#utility.yul\":4334:4371   */\n      swap1\n      pop\n        /* \"#utility.yul\":4426:4430   */\n      0x20\n        /* \"#utility.yul\":4420:4424   */\n      dup2\n        /* \"#utility.yul\":4416:4431   */\n      add\n        /* \"#utility.yul\":4408:4431   */\n      swap1\n      pop\n        /* \"#utility.yul\":4130:4438   */\n      swap2\n      swap1\n      pop\n      jump\t// out\n        /* \"#utility.yul\":4444:4598   */\n    tag_123:\n        /* \"#utility.yul\":4528:4534   */\n      dup3\n        /* \"#utility.yul\":4523:4526   */\n      dup2\n        /* \"#utility.yul\":4518:4521   */\n      dup4\n        /* \"#utility.yul\":4505:4535   */\n      calldatacopy\n        /* \"#utility.yul\":4590:4591   */\n      0x00\n        /* \"#utility.yul\":4581:4587   */\n      dup4\n        /* \"#utility.yul\":4576:4579   */\n      dup4\n        /* \"#utility.yul\":4572:4588   */\n      add\n        /* \"#utility.yul\":4565:4592   */\n      mstore\n        /* \"#utility.yul\":4444:4598   */\n      pop\n      pop\n      pop\n      jump\t// out\n        /* \"#utility.yul\":4604:5016   */\n    tag_124:\n        /* \"#utility.yul\":4682:4687   */\n      0x00\n        /* \"#utility.yul\":4707:4773   */\n      tag_206\n        /* \"#utility.yul\":4723:4772   */\n      tag_207\n        /* \"#utility.yul\":4765:4771   */\n      dup5\n        /* \"#utility.yul\":4723:4772   */\n      tag_122\n      jump\t// in\n    tag_207:\n        /* \"#utility.yul\":4707:4773   */\n      tag_121\n      jump\t// in\n    tag_206:\n        /* \"#utility.yul\":4698:4773   */\n      swap1\n      pop\n        /* \"#utility.yul\":4796:4802   */\n      dup3\n        /* \"#utility.yul\":4789:4794   */\n      dup2\n        /* \"#utility.yul\":4782:4803   */\n      mstore\n        /* \"#utility.yul\":4834:4838   */\n      0x20\n        /* \"#utility.yul\":4827:4832   */\n      dup2\n        /* \"#utility.yul\":4823:4839   */\n      add\n        /* \"#utility.yul\":4872:4875   */\n      dup5\n        /* \"#utility.yul\":4863:4869   */\n      dup5\n        /* \"#utility.yul\":4858:4861   */\n      dup5\n        /* \"#utility.yul\":4854:4870   */\n      add\n        /* \"#utility.yul\":4851:4876   */\n      gt\n        /* \"#utility.yul\":4848:4960   */\n      iszero\n      tag_208\n      jumpi\n        /* \"#utility.yul\":4879:4958   */\n      tag_209\n      tag_117\n      jump\t// in\n    tag_209:\n        /* \"#utility.yul\":4848:4960   */\n    tag_208:\n        /* \"#utility.yul\":4969:5010   */\n      tag_210\n        /* \"#utility.yul\":5003:5009   */\n      dup5\n        /* \"#utility.yul\":4998:5001   */\n      dup3\n        /* \"#utility.yul\":4993:4996   */\n      dup6\n        /* \"#utility.yul\":4969:5010   */\n      tag_123\n      jump\t// in\n    tag_210:\n        /* \"#utility.yul\":4688:5016   */\n      pop\n        /* \"#utility.yul\":4604:5016   */\n      swap4\n      swap3\n      pop\n      pop\n      pop\n      jump\t// out\n        /* \"#utility.yul\":5036:5376   */\n    tag_125:\n        /* \"#utility.yul\":5092:5097   */\n      0x00\n        /* \"#utility.yul\":5141:5144   */\n      dup3\n        /* \"#utility.yul\":5134:5138   */\n      0x1f\n        /* \"#utility.yul\":5126:5132   */\n      dup4\n        /* \"#utility.yul\":5122:5139   */\n      add\n        /* \"#utility.yul\":5118:5145   */\n      slt\n        /* \"#utility.yul\":5108:5230   */\n      tag_212\n      jumpi\n        /* \"#utility.yul\":5149:5228   */\n      tag_213\n      tag_116\n      jump\t// in\n    tag_213:\n        /* \"#utility.yul\":5108:5230   */\n    tag_212:\n        /* \"#utility.yul\":5266:5272   */\n      dup2\n        /* \"#utility.yul\":5253:5273   */\n      calldataload\n        /* \"#utility.yul\":5291:5370   */\n      tag_214\n        /* \"#utility.yul\":5366:5369   */\n      dup5\n        /* \"#utility.yul\":5358:5364   */\n      dup3\n        /* \"#utility.yul\":5351:5355   */\n      0x20\n        /* \"#utility.yul\":5343:5349   */\n      dup7\n        /* \"#utility.yul\":5339:5356   */\n      add\n        /* \"#utility.yul\":5291:5370   */\n      tag_124\n      jump\t// in\n    tag_214:\n        /* \"#utility.yul\":5282:5370   */\n      swap2\n      pop\n        /* \"#utility.yul\":5098:5376   */\n      pop\n        /* \"#utility.yul\":5036:5376   */\n      swap3\n      swap2\n      pop\n      pop\n      jump\t// out\n        /* \"#utility.yul\":5382:5459   */\n    tag_126:\n        /* \"#utility.yul\":5419:5426   */\n      0x00\n        /* \"#utility.yul\":5448:5453   */\n      dup2\n        /* \"#utility.yul\":5437:5453   */\n      swap1\n      pop\n        /* \"#utility.yul\":5382:5459   */\n      swap2\n      swap1\n      pop\n      jump\t// out\n        /* \"#utility.yul\":5465:5587   */\n    tag_127:\n        /* \"#utility.yul\":5538:5562   */\n      tag_217\n        /* \"#utility.yul\":5556:5561   */\n      dup2\n        /* \"#utility.yul\":5538:5562   */\n      tag_126\n      jump\t// in\n    tag_217:\n        /* \"#utility.yul\":5531:5536   */\n      dup2\n        /* \"#utility.yul\":5528:5563   */\n      eq\n        /* \"#utility.yul\":5518:5581   */\n      tag_218\n      jumpi\n        /* \"#utility.yul\":5577:5578   */\n      0x00\n        /* \"#utility.yul\":5574:5575   */\n      dup1\n        /* \"#utility.yul\":5567:5579   */\n      revert\n        /* \"#utility.yul\":5518:5581   */\n    tag_218:\n        /* \"#utility.yul\":5465:5587   */\n      pop\n      jump\t// out\n        /* \"#utility.yul\":5593:5732   */\n    tag_128:\n        /* \"#utility.yul\":5639:5644   */\n      0x00\n        /* \"#utility.yul\":5677:5683   */\n      dup2\n        /* \"#utility.yul\":5664:5684   */\n      calldataload\n        /* \"#utility.yul\":5655:5684   */\n      swap1\n      pop\n        /* \"#utility.yul\":5693:5726   */\n      tag_220\n        /* \"#utility.yul\":5720:5725   */\n      dup2\n        /* \"#utility.yul\":5693:5726   */\n      tag_127\n      jump\t// in\n    tag_220:\n        /* \"#utility.yul\":5593:5732   */\n      swap3\n      swap2\n      pop\n      pop\n      jump\t// out\n        /* \"#utility.yul\":5738:7189   */\n    tag_25:\n        /* \"#utility.yul\":5863:5869   */\n      0x00\n        /* \"#utility.yul\":5871:5877   */\n      dup1\n        /* \"#utility.yul\":5879:5885   */\n      0x00\n        /* \"#utility.yul\":5887:5893   */\n      dup1\n        /* \"#utility.yul\":5895:5901   */\n      0x00\n        /* \"#utility.yul\":5944:5947   */\n      0xa0\n        /* \"#utility.yul\":5932:5941   */\n      dup7\n        /* \"#utility.yul\":5923:5930   */\n      dup9\n        /* \"#utility.yul\":5919:5942   */\n      sub\n        /* \"#utility.yul\":5915:5948   */\n      slt\n        /* \"#utility.yul\":5912:6032   */\n      iszero\n      tag_222\n      jumpi\n        /* \"#utility.yul\":5951:6030   */\n      tag_223\n      tag_110\n      jump\t// in\n    tag_223:\n        /* \"#utility.yul\":5912:6032   */\n    tag_222:\n        /* \"#utility.yul\":6099:6100   */\n      0x00\n        /* \"#utility.yul\":6088:6097   */\n      dup7\n        /* \"#utility.yul\":6084:6101   */\n      add\n        /* \"#utility.yul\":6071:6102   */\n      calldataload\n        /* \"#utility.yul\":6129:6147   */\n      0xffffffffffffffff\n        /* \"#utility.yul\":6121:6127   */\n      dup2\n        /* \"#utility.yul\":6118:6148   */\n      gt\n        /* \"#utility.yul\":6115:6232   */\n      iszero\n      tag_224\n      jumpi\n        /* \"#utility.yul\":6151:6230   */\n      tag_225\n      tag_111\n      jump\t// in\n    tag_225:\n        /* \"#utility.yul\":6115:6232   */\n    tag_224:\n        /* \"#utility.yul\":6256:6319   */\n      tag_226\n        /* \"#utility.yul\":6311:6318   */\n      dup9\n        /* \"#utility.yul\":6302:6308   */\n      dup3\n        /* \"#utility.yul\":6291:6300   */\n      dup10\n        /* \"#utility.yul\":6287:6309   */\n      add\n        /* \"#utility.yul\":6256:6319   */\n      tag_125\n      jump\t// in\n    tag_226:\n        /* \"#utility.yul\":6246:6319   */\n      swap6\n      pop\n        /* \"#utility.yul\":6042:6329   */\n      pop\n        /* \"#utility.yul\":6396:6398   */\n      0x20\n        /* \"#utility.yul\":6385:6394   */\n      dup7\n        /* \"#utility.yul\":6381:6399   */\n      add\n        /* \"#utility.yul\":6368:6400   */\n      calldataload\n        /* \"#utility.yul\":6427:6445   */\n      0xffffffffffffffff\n        /* \"#utility.yul\":6419:6425   */\n      dup2\n        /* \"#utility.yul\":6416:6446   */\n      gt\n        /* \"#utility.yul\":6413:6530   */\n      iszero\n      tag_227\n      jumpi\n        /* \"#utility.yul\":6449:6528   */\n      tag_228\n      tag_111\n      jump\t// in\n    tag_228:\n        /* \"#utility.yul\":6413:6530   */\n    tag_227:\n        /* \"#utility.yul\":6554:6617   */\n      tag_229\n        /* \"#utility.yul\":6609:6616   */\n      dup9\n        /* \"#utility.yul\":6600:6606   */\n      dup3\n        /* \"#utility.yul\":6589:6598   */\n      dup10\n        /* \"#utility.yul\":6585:6607   */\n      add\n        /* \"#utility.yul\":6554:6617   */\n      tag_125\n      jump\t// in\n    tag_229:\n        /* \"#utility.yul\":6544:6617   */\n      swap5\n      pop\n        /* \"#utility.yul\":6339:6627   */\n      pop\n        /* \"#utility.yul\":6666:6668   */\n      0x40\n        /* \"#utility.yul\":6692:6745   */\n      tag_230\n        /* \"#utility.yul\":6737:6744   */\n      dup9\n        /* \"#utility.yul\":6728:6734   */\n      dup3\n        /* \"#utility.yul\":6717:6726   */\n      dup10\n        /* \"#utility.yul\":6713:6735   */\n      add\n        /* \"#utility.yul\":6692:6745   */\n      tag_128\n      jump\t// in\n    tag_230:\n        /* \"#utility.yul\":6682:6745   */\n      swap4\n      pop\n        /* \"#utility.yul\":6637:6755   */\n      pop\n        /* \"#utility.yul\":6794:6796   */\n      0x60\n        /* \"#utility.yul\":6820:6873   */\n      tag_231\n        /* \"#utility.yul\":6865:6872   */\n      dup9\n        /* \"#utility.yul\":6856:6862   */\n      dup3\n        /* \"#utility.yul\":6845:6854   */\n      dup10\n        /* \"#utility.yul\":6841:6863   */\n      add\n        /* \"#utility.yul\":6820:6873   */\n      tag_128\n      jump\t// in\n    tag_231:\n        /* \"#utility.yul\":6810:6873   */\n      swap3\n      pop\n        /* \"#utility.yul\":6765:6883   */\n      pop\n        /* \"#utility.yul\":6950:6953   */\n      0x80\n        /* \"#utility.yul\":6939:6948   */\n      dup7\n        /* \"#utility.yul\":6935:6954   */\n      add\n        /* \"#utility.yul\":6922:6955   */\n      calldataload\n        /* \"#utility.yul\":6982:7000   */\n      0xffffffffffffffff\n        /* \"#utility.yul\":6974:6980   */\n      dup2\n        /* \"#utility.yul\":6971:7001   */\n      gt\n        /* \"#utility.yul\":6968:7085   */\n      iszero\n      tag_232\n      jumpi\n        /* \"#utility.yul\":7004:7083   */\n      tag_233\n      tag_111\n      jump\t// in\n    tag_233:\n        /* \"#utility.yul\":6968:7085   */\n    tag_232:\n        /* \"#utility.yul\":7109:7172   */\n      tag_234\n        /* \"#utility.yul\":7164:7171   */\n      dup9\n        /* \"#utility.yul\":7155:7161   */\n      dup3\n        /* \"#utility.yul\":7144:7153   */\n      dup10\n        /* \"#utility.yul\":7140:7162   */\n      add\n        /* \"#utility.yul\":7109:7172   */\n      tag_125\n      jump\t// in\n    tag_234:\n        /* \"#utility.yul\":7099:7172   */\n      swap2\n      pop\n        /* \"#utility.yul\":6893:7182   */\n      pop\n        /* \"#utility.yul\":5738:7189   */\n      swap3\n      swap6\n      pop\n      swap3\n      swap6\n      swap1\n      swap4\n      pop\n      jump\t// out\n        /* \"#utility.yul\":7195:7285   */\n    tag_129:\n        /* \"#utility.yul\":7229:7236   */\n      0x00\n        /* \"#utility.yul\":7272:7277   */\n      dup2\n        /* \"#utility.yul\":7265:7278   */\n      iszero\n        /* \"#utility.yul\":7258:7279   */\n      iszero\n        /* \"#utility.yul\":7247:7279   */\n      swap1\n      pop\n        /* \"#utility.yul\":7195:7285   */\n      swap2\n      swap1\n      pop\n      jump\t// out\n        /* \"#utility.yul\":7291:7400   */\n    tag_130:\n        /* \"#utility.yul\":7372:7393   */\n      tag_237\n        /* \"#utility.yul\":7387:7392   */\n      dup2\n        /* \"#utility.yul\":7372:7393   */\n      tag_129\n      jump\t// in\n    tag_237:\n        /* \"#utility.yul\":7367:7370   */\n      dup3\n        /* \"#utility.yul\":7360:7394   */\n      mstore\n        /* \"#utility.yul\":7291:7400   */\n      pop\n      pop\n      jump\t// out\n        /* \"#utility.yul\":7406:7616   */\n    tag_35:\n        /* \"#utility.yul\":7493:7497   */\n      0x00\n        /* \"#utility.yul\":7531:7533   */\n      0x20\n        /* \"#utility.yul\":7520:7529   */\n      dup3\n        /* \"#utility.yul\":7516:7534   */\n      add\n        /* \"#utility.yul\":7508:7534   */\n      swap1\n      pop\n        /* \"#utility.yul\":7544:7609   */\n      tag_239\n        /* \"#utility.yul\":7606:7607   */\n      0x00\n        /* \"#utility.yul\":7595:7604   */\n      dup4\n        /* \"#utility.yul\":7591:7608   */\n      add\n        /* \"#utility.yul\":7582:7588   */\n      dup5\n        /* \"#utility.yul\":7544:7609   */\n      tag_130\n      jump\t// in\n    tag_239:\n        /* \"#utility.yul\":7406:7616   */\n      swap3\n      swap2\n      pop\n      pop\n      jump\t// out\n        /* \"#utility.yul\":7622:7740   */\n    tag_131:\n        /* \"#utility.yul\":7709:7733   */\n      tag_241\n        /* \"#utility.yul\":7727:7732   */\n      dup2\n        /* \"#utility.yul\":7709:7733   */\n      tag_113\n      jump\t// in\n    tag_241:\n        /* \"#utility.yul\":7704:7707   */\n      dup3\n        /* \"#utility.yul\":7697:7734   */\n      mstore\n        /* \"#utility.yul\":7622:7740   */\n      pop\n      pop\n      jump\t// out\n        /* \"#utility.yul\":7746:7968   */\n    tag_40:\n        /* \"#utility.yul\":7839:7843   */\n      0x00\n        /* \"#utility.yul\":7877:7879   */\n      0x20\n        /* \"#utility.yul\":7866:7875   */\n      dup3\n        /* \"#utility.yul\":7862:7880   */\n      add\n        /* \"#utility.yul\":7854:7880   */\n      swap1\n      pop\n        /* \"#utility.yul\":7890:7961   */\n      tag_243\n        /* \"#utility.yul\":7958:7959   */\n      0x00\n        /* \"#utility.yul\":7947:7956   */\n      dup4\n        /* \"#utility.yul\":7943:7960   */\n      add\n        /* \"#utility.yul\":7934:7940   */\n      dup5\n        /* \"#utility.yul\":7890:7961   */\n      tag_131\n      jump\t// in\n    tag_243:\n        /* \"#utility.yul\":7746:7968   */\n      swap3\n      swap2\n      pop\n      pop\n      jump\t// out\n        /* \"#utility.yul\":7974:8483   */\n    tag_44:\n        /* \"#utility.yul\":8043:8049   */\n      0x00\n        /* \"#utility.yul\":8092:8094   */\n      0x20\n        /* \"#utility.yul\":8080:8089   */\n      dup3\n        /* \"#utility.yul\":8071:8078   */\n      dup5\n        /* \"#utility.yul\":8067:8090   */\n      sub\n        /* \"#utility.yul\":8063:8095   */\n      slt\n        /* \"#utility.yul\":8060:8179   */\n      iszero\n      tag_245\n      jumpi\n        /* \"#utility.yul\":8098:8177   */\n      tag_246\n      tag_110\n      jump\t// in\n    tag_246:\n        /* \"#utility.yul\":8060:8179   */\n    tag_245:\n        /* \"#utility.yul\":8246:8247   */\n      0x00\n        /* \"#utility.yul\":8235:8244   */\n      dup3\n        /* \"#utility.yul\":8231:8248   */\n      add\n        /* \"#utility.yul\":8218:8249   */\n      calldataload\n        /* \"#utility.yul\":8276:8294   */\n      0xffffffffffffffff\n        /* \"#utility.yul\":8268:8274   */\n      dup2\n        /* \"#utility.yul\":8265:8295   */\n      gt\n        /* \"#utility.yul\":8262:8379   */\n      iszero\n      tag_247\n      jumpi\n        /* \"#utility.yul\":8298:8377   */\n      tag_248\n      tag_111\n      jump\t// in\n    tag_248:\n        /* \"#utility.yul\":8262:8379   */\n    tag_247:\n        /* \"#utility.yul\":8403:8466   */\n      tag_249\n        /* \"#utility.yul\":8458:8465   */\n      dup5\n        /* \"#utility.yul\":8449:8455   */\n      dup3\n        /* \"#utility.yul\":8438:8447   */\n      dup6\n        /* \"#utility.yul\":8434:8456   */\n      add\n        /* \"#utility.yul\":8403:8466   */\n      tag_125\n      jump\t// in\n    tag_249:\n        /* \"#utility.yul\":8393:8466   */\n      swap2\n      pop\n        /* \"#utility.yul\":8189:8476   */\n      pop\n        /* \"#utility.yul\":7974:8483   */\n      swap3\n      swap2\n      pop\n      pop\n      jump\t// out\n        /* \"#utility.yul\":8489:8607   */\n    tag_132:\n        /* \"#utility.yul\":8576:8600   */\n      tag_251\n        /* \"#utility.yul\":8594:8599   */\n      dup2\n        /* \"#utility.yul\":8576:8600   */\n      tag_126\n      jump\t// in\n    tag_251:\n        /* \"#utility.yul\":8571:8574   */\n      dup3\n        /* \"#utility.yul\":8564:8601   */\n      mstore\n        /* \"#utility.yul\":8489:8607   */\n      pop\n      pop\n      jump\t// out\n        /* \"#utility.yul\":8613:8835   */\n    tag_54:\n        /* \"#utility.yul\":8706:8710   */\n      0x00\n        /* \"#utility.yul\":8744:8746   */\n      0x20\n        /* \"#utility.yul\":8733:8742   */\n      dup3\n        /* \"#utility.yul\":8729:8747   */\n      add\n        /* \"#utility.yul\":8721:8747   */\n      swap1\n      pop\n        /* \"#utility.yul\":8757:8828   */\n      tag_253\n        /* \"#utility.yul\":8825:8826   */\n      0x00\n        /* \"#utility.yul\":8814:8823   */\n      dup4\n        /* \"#utility.yul\":8810:8827   */\n      add\n        /* \"#utility.yul\":8801:8807   */\n      dup5\n        /* \"#utility.yul\":8757:8828   */\n      tag_132\n      jump\t// in\n    tag_253:\n        /* \"#utility.yul\":8613:8835   */\n      swap3\n      swap2\n      pop\n      pop\n      jump\t// out\n        /* \"#utility.yul\":8841:9495   */\n    tag_58:\n        /* \"#utility.yul\":8919:8925   */\n      0x00\n        /* \"#utility.yul\":8927:8933   */\n      dup1\n        /* \"#utility.yul\":8976:8978   */\n      0x40\n        /* \"#utility.yul\":8964:8973   */\n      dup4\n        /* \"#utility.yul\":8955:8962   */\n      dup6\n        /* \"#utility.yul\":8951:8974   */\n      sub\n        /* \"#utility.yul\":8947:8979   */\n      slt\n        /* \"#utility.yul\":8944:9063   */\n      iszero\n      tag_255\n      jumpi\n        /* \"#utility.yul\":8982:9061   */\n      tag_256\n      tag_110\n      jump\t// in\n    tag_256:\n        /* \"#utility.yul\":8944:9063   */\n    tag_255:\n        /* \"#utility.yul\":9130:9131   */\n      0x00\n        /* \"#utility.yul\":9119:9128   */\n      dup4\n        /* \"#utility.yul\":9115:9132   */\n      add\n        /* \"#utility.yul\":9102:9133   */\n      calldataload\n        /* \"#utility.yul\":9160:9178   */\n      0xffffffffffffffff\n        /* \"#utility.yul\":9152:9158   */\n      dup2\n        /* \"#utility.yul\":9149:9179   */\n      gt\n        /* \"#utility.yul\":9146:9263   */\n      iszero\n      tag_257\n      jumpi\n        /* \"#utility.yul\":9182:9261   */\n      tag_258\n      tag_111\n      jump\t// in\n    tag_258:\n        /* \"#utility.yul\":9146:9263   */\n    tag_257:\n        /* \"#utility.yul\":9287:9350   */\n      tag_259\n        /* \"#utility.yul\":9342:9349   */\n      dup6\n        /* \"#utility.yul\":9333:9339   */\n      dup3\n        /* \"#utility.yul\":9322:9331   */\n      dup7\n        /* \"#utility.yul\":9318:9340   */\n      add\n        /* \"#utility.yul\":9287:9350   */\n      tag_125\n      jump\t// in\n    tag_259:\n        /* \"#utility.yul\":9277:9350   */\n      swap3\n      pop\n        /* \"#utility.yul\":9073:9360   */\n      pop\n        /* \"#utility.yul\":9399:9401   */\n      0x20\n        /* \"#utility.yul\":9425:9478   */\n      tag_260\n        /* \"#utility.yul\":9470:9477   */\n      dup6\n        /* \"#utility.yul\":9461:9467   */\n      dup3\n        /* \"#utility.yul\":9450:9459   */\n      dup7\n        /* \"#utility.yul\":9446:9468   */\n      add\n        /* \"#utility.yul\":9425:9478   */\n      tag_115\n      jump\t// in\n    tag_260:\n        /* \"#utility.yul\":9415:9478   */\n      swap2\n      pop\n        /* \"#utility.yul\":9370:9488   */\n      pop\n        /* \"#utility.yul\":8841:9495   */\n      swap3\n      pop\n      swap3\n      swap1\n      pop\n      jump\t// out\n        /* \"#utility.yul\":9501:9670   */\n    tag_133:\n        /* \"#utility.yul\":9585:9596   */\n      0x00\n        /* \"#utility.yul\":9619:9625   */\n      dup3\n        /* \"#utility.yul\":9614:9617   */\n      dup3\n        /* \"#utility.yul\":9607:9626   */\n      mstore\n        /* \"#utility.yul\":9659:9663   */\n      0x20\n        /* \"#utility.yul\":9654:9657   */\n      dup3\n        /* \"#utility.yul\":9650:9664   */\n      add\n        /* \"#utility.yul\":9635:9664   */\n      swap1\n      pop\n        /* \"#utility.yul\":9501:9670   */\n      swap3\n      swap2\n      pop\n      pop\n      jump\t// out\n        /* \"#utility.yul\":9676:9858   */\n    tag_134:\n        /* \"#utility.yul\":9816:9850   */\n      0x4f776e61626c653a2063616c6c6572206973206e6f7420746865206f776e6572\n        /* \"#utility.yul\":9812:9813   */\n      0x00\n        /* \"#utility.yul\":9804:9810   */\n      dup3\n        /* \"#utility.yul\":9800:9814   */\n      add\n        /* \"#utility.yul\":9793:9851   */\n      mstore\n        /* \"#utility.yul\":9676:9858   */\n      pop\n      jump\t// out\n        /* \"#utility.yul\":9864:10230   */\n    tag_135:\n        /* \"#utility.yul\":10006:10009   */\n      0x00\n        /* \"#utility.yul\":10027:10094   */\n      tag_264\n        /* \"#utility.yul\":10091:10093   */\n      0x20\n        /* \"#utility.yul\":10086:10089   */\n      dup4\n        /* \"#utility.yul\":10027:10094   */\n      tag_133\n      jump\t// in\n    tag_264:\n        /* \"#utility.yul\":10020:10094   */\n      swap2\n      pop\n        /* \"#utility.yul\":10103:10196   */\n      tag_265\n        /* \"#utility.yul\":10192:10195   */\n      dup3\n        /* \"#utility.yul\":10103:10196   */\n      tag_134\n      jump\t// in\n    tag_265:\n        /* \"#utility.yul\":10221:10223   */\n      0x20\n        /* \"#utility.yul\":10216:10219   */\n      dup3\n        /* \"#utility.yul\":10212:10224   */\n      add\n        /* \"#utility.yul\":10205:10224   */\n      swap1\n      pop\n        /* \"#utility.yul\":9864:10230   */\n      swap2\n      swap1\n      pop\n      jump\t// out\n        /* \"#utility.yul\":10236:10655   */\n    tag_64:\n        /* \"#utility.yul\":10402:10406   */\n      0x00\n        /* \"#utility.yul\":10440:10442   */\n      0x20\n        /* \"#utility.yul\":10429:10438   */\n      dup3\n        /* \"#utility.yul\":10425:10443   */\n      add\n        /* \"#utility.yul\":10417:10443   */\n      swap1\n      pop\n        /* \"#utility.yul\":10489:10498   */\n      dup2\n        /* \"#utility.yul\":10483:10487   */\n      dup2\n        /* \"#utility.yul\":10479:10499   */\n      sub\n        /* \"#utility.yul\":10475:10476   */\n      0x00\n        /* \"#utility.yul\":10464:10473   */\n      dup4\n        /* \"#utility.yul\":10460:10477   */\n      add\n        /* \"#utility.yul\":10453:10500   */\n      mstore\n        /* \"#utility.yul\":10517:10648   */\n      tag_267\n        /* \"#utility.yul\":10643:10647   */\n      dup2\n        /* \"#utility.yul\":10517:10648   */\n      tag_135\n      jump\t// in\n    tag_267:\n        /* \"#utility.yul\":10509:10648   */\n      swap1\n      pop\n        /* \"#utility.yul\":10236:10655   */\n      swap2\n      swap1\n      pop\n      jump\t// out\n        /* \"#utility.yul\":10661:10760   */\n    tag_136:\n        /* \"#utility.yul\":10713:10719   */\n      0x00\n        /* \"#utility.yul\":10747:10752   */\n      dup2\n        /* \"#utility.yul\":10741:10753   */\n      mload\n        /* \"#utility.yul\":10731:10753   */\n      swap1\n      pop\n        /* \"#utility.yul\":10661:10760   */\n      swap2\n      swap1\n      pop\n      jump\t// out\n        /* \"#utility.yul\":10766:11073   */\n    tag_137:\n        /* \"#utility.yul\":10834:10835   */\n      0x00\n        /* \"#utility.yul\":10844:10957   */\n    tag_270:\n        /* \"#utility.yul\":10858:10864   */\n      dup4\n        /* \"#utility.yul\":10855:10856   */\n      dup2\n        /* \"#utility.yul\":10852:10865   */\n      lt\n        /* \"#utility.yul\":10844:10957   */\n      iszero\n      tag_272\n      jumpi\n        /* \"#utility.yul\":10943:10944   */\n      dup1\n        /* \"#utility.yul\":10938:10941   */\n      dup3\n        /* \"#utility.yul\":10934:10945   */\n      add\n        /* \"#utility.yul\":10928:10946   */\n      mload\n        /* \"#utility.yul\":10924:10925   */\n      dup2\n        /* \"#utility.yul\":10919:10922   */\n      dup5\n        /* \"#utility.yul\":10915:10926   */\n      add\n        /* \"#utility.yul\":10908:10947   */\n      mstore\n        /* \"#utility.yul\":10880:10882   */\n      0x20\n        /* \"#utility.yul\":10877:10878   */\n      dup2\n        /* \"#utility.yul\":10873:10883   */\n      add\n        /* \"#utility.yul\":10868:10883   */\n      swap1\n      pop\n        /* \"#utility.yul\":10844:10957   */\n      jump(tag_270)\n    tag_272:\n        /* \"#utility.yul\":10975:10981   */\n      dup4\n        /* \"#utility.yul\":10972:10973   */\n      dup2\n        /* \"#utility.yul\":10969:10982   */\n      gt\n        /* \"#utility.yul\":10966:11067   */\n      iszero\n      tag_273\n      jumpi\n        /* \"#utility.yul\":11055:11056   */\n      0x00\n        /* \"#utility.yul\":11046:11052   */\n      dup5\n        /* \"#utility.yul\":11041:11044   */\n      dup5\n        /* \"#utility.yul\":11037:11053   */\n      add\n        /* \"#utility.yul\":11030:11057   */\n      mstore\n        /* \"#utility.yul\":10966:11067   */\n    tag_273:\n        /* \"#utility.yul\":10815:11073   */\n      pop\n        /* \"#utility.yul\":10766:11073   */\n      pop\n      pop\n      pop\n      jump\t// out\n        /* \"#utility.yul\":11079:11456   */\n    tag_138:\n        /* \"#utility.yul\":11185:11188   */\n      0x00\n        /* \"#utility.yul\":11213:11252   */\n      tag_275\n        /* \"#utility.yul\":11246:11251   */\n      dup3\n        /* \"#utility.yul\":11213:11252   */\n      tag_136\n      jump\t// in\n    tag_275:\n        /* \"#utility.yul\":11268:11357   */\n      tag_276\n        /* \"#utility.yul\":11350:11356   */\n      dup2\n        /* \"#utility.yul\":11345:11348   */\n      dup6\n        /* \"#utility.yul\":11268:11357   */\n      tag_106\n      jump\t// in\n    tag_276:\n        /* \"#utility.yul\":11261:11357   */\n      swap4\n      pop\n        /* \"#utility.yul\":11366:11418   */\n      tag_277\n        /* \"#utility.yul\":11411:11417   */\n      dup2\n        /* \"#utility.yul\":11406:11409   */\n      dup6\n        /* \"#utility.yul\":11399:11403   */\n      0x20\n        /* \"#utility.yul\":11392:11397   */\n      dup7\n        /* \"#utility.yul\":11388:11404   */\n      add\n        /* \"#utility.yul\":11366:11418   */\n      tag_137\n      jump\t// in\n    tag_277:\n        /* \"#utility.yul\":11443:11449   */\n      dup1\n        /* \"#utility.yul\":11438:11441   */\n      dup5\n        /* \"#utility.yul\":11434:11450   */\n      add\n        /* \"#utility.yul\":11427:11450   */\n      swap2\n      pop\n        /* \"#utility.yul\":11189:11456   */\n      pop\n        /* \"#utility.yul\":11079:11456   */\n      swap3\n      swap2\n      pop\n      pop\n      jump\t// out\n        /* \"#utility.yul\":11462:11737   */\n    tag_68:\n        /* \"#utility.yul\":11594:11597   */\n      0x00\n        /* \"#utility.yul\":11616:11711   */\n      tag_279\n        /* \"#utility.yul\":11707:11710   */\n      dup3\n        /* \"#utility.yul\":11698:11704   */\n      dup5\n        /* \"#utility.yul\":11616:11711   */\n      tag_138\n      jump\t// in\n    tag_279:\n        /* \"#utility.yul\":11609:11711   */\n      swap2\n      pop\n        /* \"#utility.yul\":11728:11731   */\n      dup2\n        /* \"#utility.yul\":11721:11731   */\n      swap1\n      pop\n        /* \"#utility.yul\":11462:11737   */\n      swap3\n      swap2\n      pop\n      pop\n      jump\t// out\n        /* \"#utility.yul\":11743:12107   */\n    tag_139:\n        /* \"#utility.yul\":11831:11834   */\n      0x00\n        /* \"#utility.yul\":11859:11898   */\n      tag_281\n        /* \"#utility.yul\":11892:11897   */\n      dup3\n        /* \"#utility.yul\":11859:11898   */\n      tag_136\n      jump\t// in\n    tag_281:\n        /* \"#utility.yul\":11914:11985   */\n      tag_282\n        /* \"#utility.yul\":11978:11984   */\n      dup2\n        /* \"#utility.yul\":11973:11976   */\n      dup6\n        /* \"#utility.yul\":11914:11985   */\n      tag_133\n      jump\t// in\n    tag_282:\n        /* \"#utility.yul\":11907:11985   */\n      swap4\n      pop\n        /* \"#utility.yul\":11994:12046   */\n      tag_283\n        /* \"#utility.yul\":12039:12045   */\n      dup2\n        /* \"#utility.yul\":12034:12037   */\n      dup6\n        /* \"#utility.yul\":12027:12031   */\n      0x20\n        /* \"#utility.yul\":12020:12025   */\n      dup7\n        /* \"#utility.yul\":12016:12032   */\n      add\n        /* \"#utility.yul\":11994:12046   */\n      tag_137\n      jump\t// in\n    tag_283:\n        /* \"#utility.yul\":12071:12100   */\n      tag_284\n        /* \"#utility.yul\":12093:12099   */\n      dup2\n        /* \"#utility.yul\":12071:12100   */\n      tag_118\n      jump\t// in\n    tag_284:\n        /* \"#utility.yul\":12066:12069   */\n      dup5\n        /* \"#utility.yul\":12062:12101   */\n      add\n        /* \"#utility.yul\":12055:12101   */\n      swap2\n      pop\n        /* \"#utility.yul\":11835:12107   */\n      pop\n        /* \"#utility.yul\":11743:12107   */\n      swap3\n      swap2\n      pop\n      pop\n      jump\t// out\n        /* \"#utility.yul\":12113:13050   */\n    tag_72:\n        /* \"#utility.yul\":12378:12382   */\n      0x00\n        /* \"#utility.yul\":12416:12419   */\n      0xa0\n        /* \"#utility.yul\":12405:12414   */\n      dup3\n        /* \"#utility.yul\":12401:12420   */\n      add\n        /* \"#utility.yul\":12393:12420   */\n      swap1\n      pop\n        /* \"#utility.yul\":12466:12475   */\n      dup2\n        /* \"#utility.yul\":12460:12464   */\n      dup2\n        /* \"#utility.yul\":12456:12476   */\n      sub\n        /* \"#utility.yul\":12452:12453   */\n      0x00\n        /* \"#utility.yul\":12441:12450   */\n      dup4\n        /* \"#utility.yul\":12437:12454   */\n      add\n        /* \"#utility.yul\":12430:12477   */\n      mstore\n        /* \"#utility.yul\":12494:12572   */\n      tag_286\n        /* \"#utility.yul\":12567:12571   */\n      dup2\n        /* \"#utility.yul\":12558:12564   */\n      dup9\n        /* \"#utility.yul\":12494:12572   */\n      tag_139\n      jump\t// in\n    tag_286:\n        /* \"#utility.yul\":12486:12572   */\n      swap1\n      pop\n        /* \"#utility.yul\":12619:12628   */\n      dup2\n        /* \"#utility.yul\":12613:12617   */\n      dup2\n        /* \"#utility.yul\":12609:12629   */\n      sub\n        /* \"#utility.yul\":12604:12606   */\n      0x20\n        /* \"#utility.yul\":12593:12602   */\n      dup4\n        /* \"#utility.yul\":12589:12607   */\n      add\n        /* \"#utility.yul\":12582:12630   */\n      mstore\n        /* \"#utility.yul\":12647:12725   */\n      tag_287\n        /* \"#utility.yul\":12720:12724   */\n      dup2\n        /* \"#utility.yul\":12711:12717   */\n      dup8\n        /* \"#utility.yul\":12647:12725   */\n      tag_139\n      jump\t// in\n    tag_287:\n        /* \"#utility.yul\":12639:12725   */\n      swap1\n      pop\n        /* \"#utility.yul\":12735:12807   */\n      tag_288\n        /* \"#utility.yul\":12803:12805   */\n      0x40\n        /* \"#utility.yul\":12792:12801   */\n      dup4\n        /* \"#utility.yul\":12788:12806   */\n      add\n        /* \"#utility.yul\":12779:12785   */\n      dup7\n        /* \"#utility.yul\":12735:12807   */\n      tag_132\n      jump\t// in\n    tag_288:\n        /* \"#utility.yul\":12817:12889   */\n      tag_289\n        /* \"#utility.yul\":12885:12887   */\n      0x60\n        /* \"#utility.yul\":12874:12883   */\n      dup4\n        /* \"#utility.yul\":12870:12888   */\n      add\n        /* \"#utility.yul\":12861:12867   */\n      dup6\n        /* \"#utility.yul\":12817:12889   */\n      tag_132\n      jump\t// in\n    tag_289:\n        /* \"#utility.yul\":12937:12946   */\n      dup2\n        /* \"#utility.yul\":12931:12935   */\n      dup2\n        /* \"#utility.yul\":12927:12947   */\n      sub\n        /* \"#utility.yul\":12921:12924   */\n      0x80\n        /* \"#utility.yul\":12910:12919   */\n      dup4\n        /* \"#utility.yul\":12906:12925   */\n      add\n        /* \"#utility.yul\":12899:12948   */\n      mstore\n        /* \"#utility.yul\":12965:13043   */\n      tag_290\n        /* \"#utility.yul\":13038:13042   */\n      dup2\n        /* \"#utility.yul\":13029:13035   */\n      dup5\n        /* \"#utility.yul\":12965:13043   */\n      tag_139\n      jump\t// in\n    tag_290:\n        /* \"#utility.yul\":12957:13043   */\n      swap1\n      pop\n        /* \"#utility.yul\":12113:13050   */\n      swap7\n      swap6\n      pop\n      pop\n      pop\n      pop\n      pop\n      pop\n      jump\t// out\n        /* \"#utility.yul\":13056:13388   */\n    tag_81:\n        /* \"#utility.yul\":13177:13181   */\n      0x00\n        /* \"#utility.yul\":13215:13217   */\n      0x40\n        /* \"#utility.yul\":13204:13213   */\n      dup3\n        /* \"#utility.yul\":13200:13218   */\n      add\n        /* \"#utility.yul\":13192:13218   */\n      swap1\n      pop\n        /* \"#utility.yul\":13228:13299   */\n      tag_292\n        /* \"#utility.yul\":13296:13297   */\n      0x00\n        /* \"#utility.yul\":13285:13294   */\n      dup4\n        /* \"#utility.yul\":13281:13298   */\n      add\n        /* \"#utility.yul\":13272:13278   */\n      dup6\n        /* \"#utility.yul\":13228:13299   */\n      tag_131\n      jump\t// in\n    tag_292:\n        /* \"#utility.yul\":13309:13381   */\n      tag_293\n        /* \"#utility.yul\":13377:13379   */\n      0x20\n        /* \"#utility.yul\":13366:13375   */\n      dup4\n        /* \"#utility.yul\":13362:13380   */\n      add\n        /* \"#utility.yul\":13353:13359   */\n      dup5\n        /* \"#utility.yul\":13309:13381   */\n      tag_132\n      jump\t// in\n    tag_293:\n        /* \"#utility.yul\":13056:13388   */\n      swap4\n      swap3\n      pop\n      pop\n      pop\n      jump\t// out\n        /* \"#utility.yul\":13394:13487   */\n    tag_140:\n        /* \"#utility.yul\":13431:13437   */\n      0x00\n        /* \"#utility.yul\":13478:13480   */\n      0x20\n        /* \"#utility.yul\":13473:13475   */\n      0x1f\n        /* \"#utility.yul\":13466:13471   */\n      dup4\n        /* \"#utility.yul\":13462:13476   */\n      add\n        /* \"#utility.yul\":13458:13481   */\n      div\n        /* \"#utility.yul\":13448:13481   */\n      swap1\n      pop\n        /* \"#utility.yul\":13394:13487   */\n      swap2\n      swap1\n      pop\n      jump\t// out\n        /* \"#utility.yul\":13493:13600   */\n    tag_141:\n        /* \"#utility.yul\":13537:13545   */\n      0x00\n        /* \"#utility.yul\":13587:13592   */\n      dup3\n        /* \"#utility.yul\":13581:13585   */\n      dup3\n        /* \"#utility.yul\":13577:13593   */\n      shl\n        /* \"#utility.yul\":13556:13593   */\n      swap1\n      pop\n        /* \"#utility.yul\":13493:13600   */\n      swap3\n      swap2\n      pop\n      pop\n      jump\t// out\n        /* \"#utility.yul\":13606:13999   */\n    tag_142:\n        /* \"#utility.yul\":13675:13681   */\n      0x00\n        /* \"#utility.yul\":13725:13726   */\n      0x08\n        /* \"#utility.yul\":13713:13723   */\n      dup4\n        /* \"#utility.yul\":13709:13727   */\n      mul\n        /* \"#utility.yul\":13748:13845   */\n      tag_297\n        /* \"#utility.yul\":13778:13844   */\n      0xffffffffffffffffffffffffffffffffffffffffffffffffffffffffffffffff\n        /* \"#utility.yul\":13767:13776   */\n      dup3\n        /* \"#utility.yul\":13748:13845   */\n      tag_141\n      jump\t// in\n    tag_297:\n        /* \"#utility.yul\":13866:13905   */\n      tag_298\n        /* \"#utility.yul\":13896:13904   */\n      dup7\n        /* \"#utility.yul\":13885:13894   */\n      dup4\n        /* \"#utility.yul\":13866:13905   */\n      tag_141\n      jump\t// in\n    tag_298:\n        /* \"#utility.yul\":13854:13905   */\n      swap6\n      pop\n        /* \"#utility.yul\":13938:13942   */\n      dup1\n        /* \"#utility.yul\":13934:13943   */\n      not\n        /* \"#utility.yul\":13927:13932   */\n      dup5\n        /* \"#utility.yul\":13923:13944   */\n      and\n        /* \"#utility.yul\":13914:13944   */\n      swap4\n      pop\n        /* \"#utility.yul\":13987:13991   */\n      dup1\n        /* \"#utility.yul\":13977:13985   */\n      dup7\n        /* \"#utility.yul\":13973:13992   */\n      and\n        /* \"#utility.yul\":13966:13971   */\n      dup5\n        /* \"#utility.yul\":13963:13993   */\n      or\n        /* \"#utility.yul\":13953:13993   */\n      swap3\n      pop\n        /* \"#utility.yul\":13682:13999   */\n      pop\n      pop\n        /* \"#utility.yul\":13606:13999   */\n      swap4\n      swap3\n      pop\n      pop\n      pop\n      jump\t// out\n        /* \"#utility.yul\":14005:14065   */\n    tag_143:\n        /* \"#utility.yul\":14033:14036   */\n      0x00\n        /* \"#utility.yul\":14054:14059   */\n      dup2\n        /* \"#utility.yul\":14047:14059   */\n      swap1\n      pop\n        /* \"#utility.yul\":14005:14065   */\n      swap2\n      swap1\n      pop\n      jump\t// out\n        /* \"#utility.yul\":14071:14213   */\n    tag_144:\n        /* \"#utility.yul\":14121:14130   */\n      0x00\n        /* \"#utility.yul\":14154:14207   */\n      tag_301\n        /* \"#utility.yul\":14172:14206   */\n      tag_302\n        /* \"#utility.yul\":14181:14205   */\n      tag_303\n        /* \"#utility.yul\":14199:14204   */\n      dup5\n        /* \"#utility.yul\":14181:14205   */\n      tag_126\n      jump\t// in\n    tag_303:\n        /* \"#utility.yul\":14172:14206   */\n      tag_143\n      jump\t// in\n    tag_302:\n        /* \"#utility.yul\":14154:14207   */\n      tag_126\n      jump\t// in\n    tag_301:\n        /* \"#utility.yul\":14141:14207   */\n      swap1\n      pop\n        /* \"#utility.yul\":14071:14213   */\n      swap2\n      swap1\n      pop\n      jump\t// out\n        /* \"#utility.yul\":14219:14294   */\n    tag_145:\n        /* \"#utility.yul\":14262:14265   */\n      0x00\n        /* \"#utility.yul\":14283:14288   */\n      dup2\n        /* \"#utility.yul\":14276:14288   */\n      swap1\n      pop\n        /* \"#utility.yul\":14219:14294   */\n      swap2\n      swap1\n      pop\n      jump\t// out\n        /* \"#utility.yul\":14300:14569   */\n    tag_146:\n        /* \"#utility.yul\":14410:14449   */\n      tag_306\n        /* \"#utility.yul\":14441:14448   */\n      dup4\n        /* \"#utility.yul\":14410:14449   */\n      tag_144\n      jump\t// in\n    tag_306:\n        /* \"#utility.yul\":14471:14562   */\n      tag_307\n        /* \"#utility.yul\":14520:14561   */\n      tag_308\n        /* \"#utility.yul\":14544:14560   */\n      dup3\n        /* \"#utility.yul\":14520:14561   */\n      tag_145\n      jump\t// in\n    tag_308:\n        /* \"#utility.yul\":14512:14518   */\n      dup5\n        /* \"#utility.yul\":14505:14509   */\n      dup5\n        /* \"#utility.yul\":14499:14510   */\n      sload\n        /* \"#utility.yul\":14471:14562   */\n      tag_142\n      jump\t// in\n    tag_307:\n        /* \"#utility.yul\":14465:14469   */\n      dup3\n        /* \"#utility.yul\":14458:14563   */\n      sstore\n        /* \"#utility.yul\":14376:14569   */\n      pop\n        /* \"#utility.yul\":14300:14569   */\n      pop\n      pop\n      pop\n      jump\t// out\n        /* \"#utility.yul\":14575:14648   */\n    tag_147:\n        /* \"#utility.yul\":14620:14623   */\n      0x00\n        /* \"#utility.yul\":14575:14648   */\n      swap1\n      jump\t// out\n        /* \"#utility.yul\":14654:14843   */\n    tag_148:\n        /* \"#utility.yul\":14731:14763   */\n      tag_311\n      tag_147\n      jump\t// in\n    tag_311:\n        /* \"#utility.yul\":14772:14837   */\n      tag_312\n        /* \"#utility.yul\":14830:14836   */\n      dup2\n        /* \"#utility.yul\":14822:14828   */\n      dup5\n        /* \"#utility.yul\":14816:14820   */\n      dup5\n        /* \"#utility.yul\":14772:14837   */\n      tag_146\n      jump\t// in\n    tag_312:\n        /* \"#utility.yul\":14707:14843   */\n      pop\n        /* \"#utility.yul\":14654:14843   */\n      pop\n      pop\n      jump\t// out\n        /* \"#utility.yul\":14849:15035   */\n    tag_149:\n        /* \"#utility.yul\":14909:15029   */\n    tag_314:\n        /* \"#utility.yul\":14926:14929   */\n      dup2\n        /* \"#utility.yul\":14919:14924   */\n      dup2\n        /* \"#utility.yul\":14916:14930   */\n      lt\n        /* \"#utility.yul\":14909:15029   */\n      iszero\n      tag_316\n      jumpi\n        /* \"#utility.yul\":14980:15019   */\n      tag_317\n        /* \"#utility.yul\":15017:15018   */\n      0x00\n        /* \"#utility.yul\":15010:15015   */\n      dup3\n        /* \"#utility.yul\":14980:15019   */\n      tag_148\n      jump\t// in\n    tag_317:\n        /* \"#utility.yul\":14953:14954   */\n      0x01\n        /* \"#utility.yul\":14946:14951   */\n      dup2\n        /* \"#utility.yul\":14942:14955   */\n      add\n        /* \"#utility.yul\":14933:14955   */\n      swap1\n      pop\n        /* \"#utility.yul\":14909:15029   */\n      jump(tag_314)\n    tag_316:\n        /* \"#utility.yul\":14849:15035   */\n      pop\n      pop\n      jump\t// out\n        /* \"#utility.yul\":15041:15584   */\n    tag_150:\n        /* \"#utility.yul\":15142:15144   */\n      0x1f\n        /* \"#utility.yul\":15137:15140   */\n      dup3\n        /* \"#utility.yul\":15134:15145   */\n      gt\n        /* \"#utility.yul\":15131:15577   */\n      iszero\n      tag_319\n      jumpi\n        /* \"#utility.yul\":15176:15214   */\n      tag_320\n        /* \"#utility.yul\":15208:15213   */\n      dup2\n        /* \"#utility.yul\":15176:15214   */\n      tag_107\n      jump\t// in\n    tag_320:\n        /* \"#utility.yul\":15260:15289   */\n      tag_321\n        /* \"#utility.yul\":15278:15288   */\n      dup5\n        /* \"#utility.yul\":15260:15289   */\n      tag_140\n      jump\t// in\n    tag_321:\n        /* \"#utility.yul\":15250:15258   */\n      dup2\n        /* \"#utility.yul\":15246:15290   */\n      add\n        /* \"#utility.yul\":15443:15445   */\n      0x20\n        /* \"#utility.yul\":15431:15441   */\n      dup6\n        /* \"#utility.yul\":15428:15446   */\n      lt\n        /* \"#utility.yul\":15425:15474   */\n      iszero\n      tag_322\n      jumpi\n        /* \"#utility.yul\":15464:15472   */\n      dup2\n        /* \"#utility.yul\":15449:15472   */\n      swap1\n      pop\n        /* \"#utility.yul\":15425:15474   */\n    tag_322:\n        /* \"#utility.yul\":15487:15567   */\n      tag_323\n        /* \"#utility.yul\":15543:15565   */\n      tag_324\n        /* \"#utility.yul\":15561:15564   */\n      dup6\n        /* \"#utility.yul\":15543:15565   */\n      tag_140\n      jump\t// in\n    tag_324:\n        /* \"#utility.yul\":15533:15541   */\n      dup4\n        /* \"#utility.yul\":15529:15566   */\n      add\n        /* \"#utility.yul\":15516:15527   */\n      dup3\n        /* \"#utility.yul\":15487:15567   */\n      tag_149\n      jump\t// in\n    tag_323:\n        /* \"#utility.yul\":15146:15577   */\n      pop\n      pop\n        /* \"#utility.yul\":15131:15577   */\n    tag_319:\n        /* \"#utility.yul\":15041:15584   */\n      pop\n      pop\n      pop\n      jump\t// out\n        /* \"#utility.yul\":15590:15707   */\n    tag_151:\n        /* \"#utility.yul\":15644:15652   */\n      0x00\n        /* \"#utility.yul\":15694:15699   */\n      dup3\n        /* \"#utility.yul\":15688:15692   */\n      dup3\n        /* \"#utility.yul\":15684:15700   */\n      shr\n        /* \"#utility.yul\":15663:15700   */\n      swap1\n      pop\n        /* \"#utility.yul\":15590:15707   */\n      swap3\n      swap2\n      pop\n      pop\n      jump\t// out\n        /* \"#utility.yul\":15713:15882   */\n    tag_152:\n        /* \"#utility.yul\":15757:15763   */\n      0x00\n        /* \"#utility.yul\":15790:15841   */\n      tag_327\n        /* \"#utility.yul\":15838:15839   */\n      0x00\n        /* \"#utility.yul\":15834:15840   */\n      not\n        /* \"#utility.yul\":15826:15831   */\n      dup5\n        /* \"#utility.yul\":15823:15824   */\n      0x08\n        /* \"#utility.yul\":15819:15832   */\n      mul\n        /* \"#utility.yul\":15790:15841   */\n      tag_151\n      jump\t// in\n    tag_327:\n        /* \"#utility.yul\":15786:15842   */\n      not\n        /* \"#utility.yul\":15871:15875   */\n      dup1\n        /* \"#utility.yul\":15865:15869   */\n      dup4\n        /* \"#utility.yul\":15861:15876   */\n      and\n        /* \"#utility.yul\":15851:15876   */\n      swap2\n      pop\n        /* \"#utility.yul\":15764:15882   */\n      pop\n        /* \"#utility.yul\":15713:15882   */\n      swap3\n      swap2\n      pop\n      pop\n      jump\t// out\n        /* \"#utility.yul\":15887:16182   */\n    tag_153:\n        /* \"#utility.yul\":15963:15967   */\n      0x00\n        /* \"#utility.yul\":16109:16138   */\n      tag_329\n        /* \"#utility.yul\":16134:16137   */\n      dup4\n        /* \"#utility.yul\":16128:16132   */\n      dup4\n        /* \"#utility.yul\":16109:16138   */\n      tag_152\n      jump\t// in\n    tag_329:\n        /* \"#utility.yul\":16101:16138   */\n      swap2\n      pop\n        /* \"#utility.yul\":16171:16174   */\n      dup3\n        /* \"#utility.yul\":16168:16169   */\n      0x02\n        /* \"#utility.yul\":16164:16175   */\n      mul\n        /* \"#utility.yul\":16158:16162   */\n      dup3\n        /* \"#utility.yul\":16155:16176   */\n      or\n        /* \"#utility.yul\":16147:16176   */\n      swap1\n      pop\n        /* \"#utility.yul\":15887:16182   */\n      swap3\n      swap2\n      pop\n      pop\n      jump\t// out\n        /* \"#utility.yul\":16187:17582   */\n    tag_102:\n        /* \"#utility.yul\":16304:16341   */\n      tag_331\n        /* \"#utility.yul\":16337:16340   */\n      dup3\n        /* \"#utility.yul\":16304:16341   */\n      tag_136\n      jump\t// in\n    tag_331:\n        /* \"#utility.yul\":16406:16424   */\n      0xffffffffffffffff\n        /* \"#utility.yul\":16398:16404   */\n      dup2\n        /* \"#utility.yul\":16395:16425   */\n      gt\n        /* \"#utility.yul\":16392:16448   */\n      iszero\n      tag_332\n      jumpi\n        /* \"#utility.yul\":16428:16446   */\n      tag_333\n      tag_119\n      jump\t// in\n    tag_333:\n        /* \"#utility.yul\":16392:16448   */\n    tag_332:\n        /* \"#utility.yul\":16472:16510   */\n      tag_334\n        /* \"#utility.yul\":16504:16508   */\n      dup3\n        /* \"#utility.yul\":16498:16509   */\n      sload\n        /* \"#utility.yul\":16472:16510   */\n      tag_105\n      jump\t// in\n    tag_334:\n        /* \"#utility.yul\":16557:16624   */\n      tag_335\n        /* \"#utility.yul\":16617:16623   */\n      dup3\n        /* \"#utility.yul\":16609:16615   */\n      dup3\n        /* \"#utility.yul\":16603:16607   */\n      dup6\n        /* \"#utility.yul\":16557:16624   */\n      tag_150\n      jump\t// in\n    tag_335:\n        /* \"#utility.yul\":16651:16652   */\n      0x00\n        /* \"#utility.yul\":16675:16679   */\n      0x20\n        /* \"#utility.yul\":16662:16679   */\n      swap1\n      pop\n        /* \"#utility.yul\":16707:16709   */\n      0x1f\n        /* \"#utility.yul\":16699:16705   */\n      dup4\n        /* \"#utility.yul\":16696:16710   */\n      gt\n        /* \"#utility.yul\":16724:16725   */\n      0x01\n        /* \"#utility.yul\":16719:17337   */\n      dup2\n      eq\n      tag_337\n      jumpi\n        /* \"#utility.yul\":17381:17382   */\n      0x00\n        /* \"#utility.yul\":17398:17404   */\n      dup5\n        /* \"#utility.yul\":17395:17472   */\n      iszero\n      tag_338\n      jumpi\n        /* \"#utility.yul\":17447:17456   */\n      dup3\n        /* \"#utility.yul\":17442:17445   */\n      dup8\n        /* \"#utility.yul\":17438:17457   */\n      add\n        /* \"#utility.yul\":17432:17458   */\n      mload\n        /* \"#utility.yul\":17423:17458   */\n      swap1\n      pop\n        /* \"#utility.yul\":17395:17472   */\n    tag_338:\n        /* \"#utility.yul\":17498:17565   */\n      tag_339\n        /* \"#utility.yul\":17558:17564   */\n      dup6\n        /* \"#utility.yul\":17551:17556   */\n      dup3\n        /* \"#utility.yul\":17498:17565   */\n      tag_153\n      jump\t// in\n    tag_339:\n        /* \"#utility.yul\":17492:17496   */\n      dup7\n        /* \"#utility.yul\":17485:17566   */\n      sstore\n        /* \"#utility.yul\":17354:17576   */\n      pop\n        /* \"#utility.yul\":16689:17576   */\n      jump(tag_336)\n        /* \"#utility.yul\":16719:17337   */\n    tag_337:\n        /* \"#utility.yul\":16771:16775   */\n      0x1f\n        /* \"#utility.yul\":16767:16776   */\n      not\n        /* \"#utility.yul\":16759:16765   */\n      dup5\n        /* \"#utility.yul\":16755:16777   */\n      and\n        /* \"#utility.yul\":16805:16842   */\n      tag_340\n        /* \"#utility.yul\":16837:16841   */\n      dup7\n        /* \"#utility.yul\":16805:16842   */\n      tag_107\n      jump\t// in\n    tag_340:\n        /* \"#utility.yul\":16864:16865   */\n      0x00\n        /* \"#utility.yul\":16878:17086   */\n    tag_341:\n        /* \"#utility.yul\":16892:16899   */\n      dup3\n        /* \"#utility.yul\":16889:16890   */\n      dup2\n        /* \"#utility.yul\":16886:16900   */\n      lt\n        /* \"#utility.yul\":16878:17086   */\n      iszero\n      tag_343\n      jumpi\n        /* \"#utility.yul\":16971:16980   */\n      dup5\n        /* \"#utility.yul\":16966:16969   */\n      dup10\n        /* \"#utility.yul\":16962:16981   */\n      add\n        /* \"#utility.yul\":16956:16982   */\n      mload\n        /* \"#utility.yul\":16948:16954   */\n      dup3\n        /* \"#utility.yul\":16941:16983   */\n      sstore\n        /* \"#utility.yul\":17022:17023   */\n      0x01\n        /* \"#utility.yul\":17014:17020   */\n      dup3\n        /* \"#utility.yul\":17010:17024   */\n      add\n        /* \"#utility.yul\":17000:17024   */\n      swap2\n      pop\n        /* \"#utility.yul\":17069:17071   */\n      0x20\n        /* \"#utility.yul\":17058:17067   */\n      dup6\n        /* \"#utility.yul\":17054:17072   */\n      add\n        /* \"#utility.yul\":17041:17072   */\n      swap5\n      pop\n        /* \"#utility.yul\":16915:16919   */\n      0x20\n        /* \"#utility.yul\":16912:16913   */\n      dup2\n        /* \"#utility.yul\":16908:16920   */\n      add\n        /* \"#utility.yul\":16903:16920   */\n      swap1\n      pop\n        /* \"#utility.yul\":16878:17086   */\n      jump(tag_341)\n    tag_343:\n        /* \"#utility.yul\":17114:17120   */\n      dup7\n        /* \"#utility.yul\":17105:17112   */\n      dup4\n        /* \"#utility.yul\":17102:17121   */\n      lt\n        /* \"#utility.yul\":17099:17278   */\n      iszero\n      tag_344\n      jumpi\n        /* \"#utility.yul\":17172:17181   */\n      dup5\n        /* \"#utility.yul\":17167:17170   */\n      dup10\n        /* \"#utility.yul\":17163:17182   */\n      add\n        /* \"#utility.yul\":17157:17183   */\n      mload\n        /* \"#utility.yul\":17215:17263   */\n      tag_345\n        /* \"#utility.yul\":17257:17261   */\n      0x1f\n        /* \"#utility.yul\":17249:17255   */\n      dup10\n        /* \"#utility.yul\":17245:17262   */\n      and\n        /* \"#utility.yul\":17234:17243   */\n      dup3\n        /* \"#utility.yul\":17215:17263   */\n      tag_152\n      jump\t// in\n    tag_345:\n        /* \"#utility.yul\":17207:17213   */\n      dup4\n        /* \"#utility.yul\":17200:17264   */\n      sstore\n        /* \"#utility.yul\":17122:17278   */\n      pop\n        /* \"#utility.yul\":17099:17278   */\n    tag_344:\n        /* \"#utility.yul\":17324:17325   */\n      0x01\n        /* \"#utility.yul\":17320:17321   */\n      0x02\n        /* \"#utility.yul\":17312:17318   */\n      dup9\n        /* \"#utility.yul\":17308:17322   */\n      mul\n        /* \"#utility.yul\":17304:17326   */\n      add\n        /* \"#utility.yul\":17298:17302   */\n      dup9\n        /* \"#utility.yul\":17291:17327   */\n      sstore\n        /* \"#utility.yul\":16726:17337   */\n      pop\n      pop\n      pop\n        /* \"#utility.yul\":16689:17576   */\n    tag_336:\n      pop\n        /* \"#utility.yul\":16279:17582   */\n      pop\n      pop\n      pop\n        /* \"#utility.yul\":16187:17582   */\n      pop\n      pop\n      jump\t// out\n\n    auxdata: 0xa2646970667358221220334426f6d3a02ee99a072e327c4f382e21358c2583548fa5f9c691ba47e51d1764736f6c634300080f0033\n}\n",
				"bytecode": {
					"linkReferences": {},
					"object": "608060405234801561001057600080fd5b50336000806101000a81548173ffffffffffffffffffffffffffffffffffffffff021916908373ffffffffffffffffffffffffffffffffffffffff16021790555033600460006101000a81548173ffffffffffffffffffffffffffffffffffffffff021916908373ffffffffffffffffffffffffffffffffffffffff16021790555061132e806100a16000396000f3fe60806040526004361061008a5760003560e01c8063b2bdfa7b11610059578063b2bdfa7b146101e5578063e935155814610210578063e9e6533114610239578063f993185514610255578063fe49048a1461029257610147565b806313af40351461014c5780633f59c65714610175578063704b6c02146101915780638f32d59b146101ba57610147565b36610147576002600560003373ffffffffffffffffffffffffffffffffffffffff1673ffffffffffffffffffffffffffffffffffffffff1681526020019081526020016000206040516100dd9190610a92565b908152602001604051809103902060009054906101000a900460ff1661010257600080fd5b34600660003373ffffffffffffffffffffffffffffffffffffffff1673ffffffffffffffffffffffffffffffffffffffff168152602001908152602001600020819055005b600080fd5b34801561015857600080fd5b50610173600480360381019061016e9190610b1b565b6102bb565b005b61018f600480360381019061018a9190610cc4565b610345565b005b34801561019d57600080fd5b506101b860048036038101906101b39190610b1b565b6105c5565b005b3480156101c657600080fd5b506101cf610650565b6040516101dc9190610dae565b60405180910390f35b3480156101f157600080fd5b506101fa6106a7565b6040516102079190610dd8565b60405180910390f35b34801561021c57600080fd5b5061023760048036038101906102329190610df3565b6106cb565b005b610253600480360381019061024e9190610b1b565b6107ca565b005b34801561026157600080fd5b5061027c60048036038101906102779190610b1b565b6107cd565b6040516102899190610e4b565b60405180910390f35b34801561029e57600080fd5b506102b960048036038101906102b49190610e66565b6107e5565b005b6102c3610650565b610302576040517f08c379a00000000000000000000000000000000000000000000000000000000081526004016102f990610f1f565b60405180910390fd5b806000806101000a81548173ffffffffffffffffffffffffffffffffffffffff021916908373ffffffffffffffffffffffffffffffffffffffff16021790555050565b600115156001826040516103599190610fae565b908152602001604051809103902060009054906101000a900460ff1615151461038157600080fd5b600460009054906101000a900473ffffffffffffffffffffffffffffffffffffffff1673ffffffffffffffffffffffffffffffffffffffff163373ffffffffffffffffffffffffffffffffffffffff16146103db57600080fd5b7f2ee35da94d6494eb515fd8f6fffdecd1d417dbae7e370cb1f77d709473e01d598585858585604051610412959493929190610ffe565b60405180910390a1600060018260405161042c9190610fae565b908152602001604051809103902060006101000a81548160ff0219169083151502179055506002816040516104619190610fae565b908152602001604051809103902060009054906101000a900460ff16156105be576104c96003826040516104959190610fae565b908152602001604051809103902060009054906101000a900473ffffffffffffffffffffffffffffffffffffffff166107ca565b7f4e5bfbe05270402fc09cd413235062e684a8396be0a33385106e3b5c34302e606003826040516104fa9190610fae565b908152602001604051809103902060009054906101000a900473ffffffffffffffffffffffffffffffffffffffff166006600060038560405161053d9190610fae565b908152602001604051809103902060009054906101000a900473ffffffffffffffffffffffffffffffffffffffff1673ffffffffffffffffffffffffffffffffffffffff1673ffffffffffffffffffffffffffffffffffffffff168152602001908152602001600020546040516105b5929190611066565b60405180910390a15b5050505050565b6105cd610650565b61060c576040517f08c379a000000000000000000000000000000000000000000000000000000000815260040161060390610f1f565b60405180910390fd5b80600460006101000a81548173ffffffffffffffffffffffffffffffffffffffff021916908373ffffffffffffffffffffffffffffffffffffffff16021790555050565b60008060009054906101000a900473ffffffffffffffffffffffffffffffffffffffff1673ffffffffffffffffffffffffffffffffffffffff163373ffffffffffffffffffffffffffffffffffffffff1614905090565b60008054906101000a900473ffffffffffffffffffffffffffffffffffffffff1681565b600460009054906101000a900473ffffffffffffffffffffffffffffffffffffffff1673ffffffffffffffffffffffffffffffffffffffff163373ffffffffffffffffffffffffffffffffffffffff161461072557600080fd5b600180826040516107369190610fae565b908152602001604051809103902060006101000a81548160ff02191690831515021790555060018160405161076b9190610fae565b908152602001604051809103902060009054906101000a900460ff1661079057600080fd5b60016002826040516107a29190610fae565b908152602001604051809103902060006101000a81548160ff02191690831515021790555050565b50565b60066020528060005260406000206000915090505481565b600460009054906101000a900473ffffffffffffffffffffffffffffffffffffffff1673ffffffffffffffffffffffffffffffffffffffff163373ffffffffffffffffffffffffffffffffffffffff161461083f57600080fd5b600180836040516108509190610fae565b908152602001604051809103902060006101000a81548160ff0219169083151502179055506001826040516108859190610fae565b908152602001604051809103902060009054906101000a900460ff166108aa57600080fd5b60016002836040516108bc9190610fae565b908152602001604051809103902060006101000a81548160ff02191690831515021790555081600560008373ffffffffffffffffffffffffffffffffffffffff1673ffffffffffffffffffffffffffffffffffffffff168152602001908152602001600020908161092d9190611226565b508060038360405161093f9190610fae565b908152602001604051809103902060006101000a81548173ffffffffffffffffffffffffffffffffffffffff021916908373ffffffffffffffffffffffffffffffffffffffff1602179055505050565b7f4e487b7100000000000000000000000000000000000000000000000000000000600052602260045260246000fd5b600060028204905060018216806109d657607f821691505b6020821081036109e9576109e861098f565b5b50919050565b600081905092915050565b60008190508160005260206000209050919050565b60008154610a1c816109be565b610a2681866109ef565b94506001821660008114610a415760018114610a5657610a89565b60ff1983168652811515820286019350610a89565b610a5f856109fa565b60005b83811015610a8157815481890152600182019150602081019050610a62565b838801955050505b50505092915050565b6000610a9e8284610a0f565b915081905092915050565b6000604051905090565b600080fd5b600080fd5b600073ffffffffffffffffffffffffffffffffffffffff82169050919050565b6000610ae882610abd565b9050919050565b610af881610add565b8114610b0357600080fd5b50565b600081359050610b1581610aef565b92915050565b600060208284031215610b3157610b30610ab3565b5b6000610b3f84828501610b06565b91505092915050565b600080fd5b600080fd5b6000601f19601f8301169050919050565b7f4e487b7100000000000000000000000000000000000000000000000000000000600052604160045260246000fd5b610b9b82610b52565b810181811067ffffffffffffffff82111715610bba57610bb9610b63565b5b80604052505050565b6000610bcd610aa9565b9050610bd98282610b92565b919050565b600067ffffffffffffffff821115610bf957610bf8610b63565b5b610c0282610b52565b9050602081019050919050565b82818337600083830152505050565b6000610c31610c2c84610bde565b610bc3565b905082815260208101848484011115610c4d57610c4c610b4d565b5b610c58848285610c0f565b509392505050565b600082601f830112610c7557610c74610b48565b5b8135610c85848260208601610c1e565b91505092915050565b6000819050919050565b610ca181610c8e565b8114610cac57600080fd5b50565b600081359050610cbe81610c98565b92915050565b600080600080600060a08688031215610ce057610cdf610ab3565b5b600086013567ffffffffffffffff811115610cfe57610cfd610ab8565b5b610d0a88828901610c60565b955050602086013567ffffffffffffffff811115610d2b57610d2a610ab8565b5b610d3788828901610c60565b9450506040610d4888828901610caf565b9350506060610d5988828901610caf565b925050608086013567ffffffffffffffff811115610d7a57610d79610ab8565b5b610d8688828901610c60565b9150509295509295909350565b60008115159050919050565b610da881610d93565b82525050565b6000602082019050610dc36000830184610d9f565b92915050565b610dd281610add565b82525050565b6000602082019050610ded6000830184610dc9565b92915050565b600060208284031215610e0957610e08610ab3565b5b600082013567ffffffffffffffff811115610e2757610e26610ab8565b5b610e3384828501610c60565b91505092915050565b610e4581610c8e565b82525050565b6000602082019050610e606000830184610e3c565b92915050565b60008060408385031215610e7d57610e7c610ab3565b5b600083013567ffffffffffffffff811115610e9b57610e9a610ab8565b5b610ea785828601610c60565b9250506020610eb885828601610b06565b9150509250929050565b600082825260208201905092915050565b7f4f776e61626c653a2063616c6c6572206973206e6f7420746865206f776e6572600082015250565b6000610f09602083610ec2565b9150610f1482610ed3565b602082019050919050565b60006020820190508181036000830152610f3881610efc565b9050919050565b600081519050919050565b60005b83811015610f68578082015181840152602081019050610f4d565b83811115610f77576000848401525b50505050565b6000610f8882610f3f565b610f9281856109ef565b9350610fa2818560208601610f4a565b80840191505092915050565b6000610fba8284610f7d565b915081905092915050565b6000610fd082610f3f565b610fda8185610ec2565b9350610fea818560208601610f4a565b610ff381610b52565b840191505092915050565b600060a08201905081810360008301526110188188610fc5565b9050818103602083015261102c8187610fc5565b905061103b6040830186610e3c565b6110486060830185610e3c565b818103608083015261105a8184610fc5565b90509695505050505050565b600060408201905061107b6000830185610dc9565b6110886020830184610e3c565b9392505050565b60006020601f8301049050919050565b600082821b905092915050565b6000600883026110dc7fffffffffffffffffffffffffffffffffffffffffffffffffffffffffffffffff8261109f565b6110e6868361109f565b95508019841693508086168417925050509392505050565b6000819050919050565b600061112361111e61111984610c8e565b6110fe565b610c8e565b9050919050565b6000819050919050565b61113d83611108565b6111516111498261112a565b8484546110ac565b825550505050565b600090565b611166611159565b611171818484611134565b505050565b5b818110156111955761118a60008261115e565b600181019050611177565b5050565b601f8211156111da576111ab816109fa565b6111b48461108f565b810160208510156111c3578190505b6111d76111cf8561108f565b830182611176565b50505b505050565b600082821c905092915050565b60006111fd600019846008026111df565b1980831691505092915050565b600061121683836111ec565b9150826002028217905092915050565b61122f82610f3f565b67ffffffffffffffff81111561124857611247610b63565b5b61125282546109be565b61125d828285611199565b600060209050601f831160018114611290576000841561127e578287015190505b611288858261120a565b8655506112f0565b601f19841661129e866109fa565b60005b828110156112c6578489015182556001820191506020850194506020810190506112a1565b868310156112e357848901516112df601f8916826111ec565b8355505b6001600288020188555050505b50505050505056fea2646970667358221220334426f6d3a02ee99a072e327c4f382e21358c2583548fa5f9c691ba47e51d1764736f6c634300080f0033",
					"opcodes": "PUSH1 0x80 PUSH1 0x40 MSTORE CALLVALUE DUP1 ISZERO PUSH2 0x10 JUMPI PUSH1 0x0 DUP1 REVERT JUMPDEST POP CALLER PUSH1 0x0 DUP1 PUSH2 0x100 EXP DUP2 SLOAD DUP2 PUSH20 0xFFFFFFFFFFFFFFFFFFFFFFFFFFFFFFFFFFFFFFFF MUL NOT AND SWAP1 DUP4 PUSH20 0xFFFFFFFFFFFFFFFFFFFFFFFFFFFFFFFFFFFFFFFF AND MUL OR SWAP1 SSTORE POP CALLER PUSH1 0x4 PUSH1 0x0 PUSH2 0x100 EXP DUP2 SLOAD DUP2 PUSH20 0xFFFFFFFFFFFFFFFFFFFFFFFFFFFFFFFFFFFFFFFF MUL NOT AND SWAP1 DUP4 PUSH20 0xFFFFFFFFFFFFFFFFFFFFFFFFFFFFFFFFFFFFFFFF AND MUL OR SWAP1 SSTORE POP PUSH2 0x132E DUP1 PUSH2 0xA1 PUSH1 0x0 CODECOPY PUSH1 0x0 RETURN INVALID PUSH1 0x80 PUSH1 0x40 MSTORE PUSH1 0x4 CALLDATASIZE LT PUSH2 0x8A JUMPI PUSH1 0x0 CALLDATALOAD PUSH1 0xE0 SHR DUP1 PUSH4 0xB2BDFA7B GT PUSH2 0x59 JUMPI DUP1 PUSH4 0xB2BDFA7B EQ PUSH2 0x1E5 JUMPI DUP1 PUSH4 0xE9351558 EQ PUSH2 0x210 JUMPI DUP1 PUSH4 0xE9E65331 EQ PUSH2 0x239 JUMPI DUP1 PUSH4 0xF9931855 EQ PUSH2 0x255 JUMPI DUP1 PUSH4 0xFE49048A EQ PUSH2 0x292 JUMPI PUSH2 0x147 JUMP JUMPDEST DUP1 PUSH4 0x13AF4035 EQ PUSH2 0x14C JUMPI DUP1 PUSH4 0x3F59C657 EQ PUSH2 0x175 JUMPI DUP1 PUSH4 0x704B6C02 EQ PUSH2 0x191 JUMPI DUP1 PUSH4 0x8F32D59B EQ PUSH2 0x1BA JUMPI PUSH2 0x147 JUMP JUMPDEST CALLDATASIZE PUSH2 0x147 JUMPI PUSH1 0x2 PUSH1 0x5 PUSH1 0x0 CALLER PUSH20 0xFFFFFFFFFFFFFFFFFFFFFFFFFFFFFFFFFFFFFFFF AND PUSH20 0xFFFFFFFFFFFFFFFFFFFFFFFFFFFFFFFFFFFFFFFF AND DUP2 MSTORE PUSH1 0x20 ADD SWAP1 DUP2 MSTORE PUSH1 0x20 ADD PUSH1 0x0 KECCAK256 PUSH1 0x40 MLOAD PUSH2 0xDD SWAP2 SWAP1 PUSH2 0xA92 JUMP JUMPDEST SWAP1 DUP2 MSTORE PUSH1 0x20 ADD PUSH1 0x40 MLOAD DUP1 SWAP2 SUB SWAP1 KECCAK256 PUSH1 0x0 SWAP1 SLOAD SWAP1 PUSH2 0x100 EXP SWAP1 DIV PUSH1 0xFF AND PUSH2 0x102 JUMPI PUSH1 0x0 DUP1 REVERT JUMPDEST CALLVALUE PUSH1 0x6 PUSH1 0x0 CALLER PUSH20 0xFFFFFFFFFFFFFFFFFFFFFFFFFFFFFFFFFFFFFFFF AND PUSH20 0xFFFFFFFFFFFFFFFFFFFFFFFFFFFFFFFFFFFFFFFF AND DUP2 MSTORE PUSH1 0x20 ADD SWAP1 DUP2 MSTORE PUSH1 0x20 ADD PUSH1 0x0 KECCAK256 DUP2 SWAP1 SSTORE STOP JUMPDEST PUSH1 0x0 DUP1 REVERT JUMPDEST CALLVALUE DUP1 ISZERO PUSH2 0x158 JUMPI PUSH1 0x0 DUP1 REVERT JUMPDEST POP PUSH2 0x173 PUSH1 0x4 DUP1 CALLDATASIZE SUB DUP2 ADD SWAP1 PUSH2 0x16E SWAP2 SWAP1 PUSH2 0xB1B JUMP JUMPDEST PUSH2 0x2BB JUMP JUMPDEST STOP JUMPDEST PUSH2 0x18F PUSH1 0x4 DUP1 CALLDATASIZE SUB DUP2 ADD SWAP1 PUSH2 0x18A SWAP2 SWAP1 PUSH2 0xCC4 JUMP JUMPDEST PUSH2 0x345 JUMP JUMPDEST STOP JUMPDEST CALLVALUE DUP1 ISZERO PUSH2 0x19D JUMPI PUSH1 0x0 DUP1 REVERT JUMPDEST POP PUSH2 0x1B8 PUSH1 0x4 DUP1 CALLDATASIZE SUB DUP2 ADD SWAP1 PUSH2 0x1B3 SWAP2 SWAP1 PUSH2 0xB1B JUMP JUMPDEST PUSH2 0x5C5 JUMP JUMPDEST STOP JUMPDEST CALLVALUE DUP1 ISZERO PUSH2 0x1C6 JUMPI PUSH1 0x0 DUP1 REVERT JUMPDEST POP PUSH2 0x1CF PUSH2 0x650 JUMP JUMPDEST PUSH1 0x40 MLOAD PUSH2 0x1DC SWAP2 SWAP1 PUSH2 0xDAE JUMP JUMPDEST PUSH1 0x40 MLOAD DUP1 SWAP2 SUB SWAP1 RETURN JUMPDEST CALLVALUE DUP1 ISZERO PUSH2 0x1F1 JUMPI PUSH1 0x0 DUP1 REVERT JUMPDEST POP PUSH2 0x1FA PUSH2 0x6A7 JUMP JUMPDEST PUSH1 0x40 MLOAD PUSH2 0x207 SWAP2 SWAP1 PUSH2 0xDD8 JUMP JUMPDEST PUSH1 0x40 MLOAD DUP1 SWAP2 SUB SWAP1 RETURN JUMPDEST CALLVALUE DUP1 ISZERO PUSH2 0x21C JUMPI PUSH1 0x0 DUP1 REVERT JUMPDEST POP PUSH2 0x237 PUSH1 0x4 DUP1 CALLDATASIZE SUB DUP2 ADD SWAP1 PUSH2 0x232 SWAP2 SWAP1 PUSH2 0xDF3 JUMP JUMPDEST PUSH2 0x6CB JUMP JUMPDEST STOP JUMPDEST PUSH2 0x253 PUSH1 0x4 DUP1 CALLDATASIZE SUB DUP2 ADD SWAP1 PUSH2 0x24E SWAP2 SWAP1 PUSH2 0xB1B JUMP JUMPDEST PUSH2 0x7CA JUMP JUMPDEST STOP JUMPDEST CALLVALUE DUP1 ISZERO PUSH2 0x261 JUMPI PUSH1 0x0 DUP1 REVERT JUMPDEST POP PUSH2 0x27C PUSH1 0x4 DUP1 CALLDATASIZE SUB DUP2 ADD SWAP1 PUSH2 0x277 SWAP2 SWAP1 PUSH2 0xB1B JUMP JUMPDEST PUSH2 0x7CD JUMP JUMPDEST PUSH1 0x40 MLOAD PUSH2 0x289 SWAP2 SWAP1 PUSH2 0xE4B JUMP JUMPDEST PUSH1 0x40 MLOAD DUP1 SWAP2 SUB SWAP1 RETURN JUMPDEST CALLVALUE DUP1 ISZERO PUSH2 0x29E JUMPI PUSH1 0x0 DUP1 REVERT JUMPDEST POP PUSH2 0x2B9 PUSH1 0x4 DUP1 CALLDATASIZE SUB DUP2 ADD SWAP1 PUSH2 0x2B4 SWAP2 SWAP1 PUSH2 0xE66 JUMP JUMPDEST PUSH2 0x7E5 JUMP JUMPDEST STOP JUMPDEST PUSH2 0x2C3 PUSH2 0x650 JUMP JUMPDEST PUSH2 0x302 JUMPI PUSH1 0x40 MLOAD PUSH32 0x8C379A000000000000000000000000000000000000000000000000000000000 DUP2 MSTORE PUSH1 0x4 ADD PUSH2 0x2F9 SWAP1 PUSH2 0xF1F JUMP JUMPDEST PUSH1 0x40 MLOAD DUP1 SWAP2 SUB SWAP1 REVERT JUMPDEST DUP1 PUSH1 0x0 DUP1 PUSH2 0x100 EXP DUP2 SLOAD DUP2 PUSH20 0xFFFFFFFFFFFFFFFFFFFFFFFFFFFFFFFFFFFFFFFF MUL NOT AND SWAP1 DUP4 PUSH20 0xFFFFFFFFFFFFFFFFFFFFFFFFFFFFFFFFFFFFFFFF AND MUL OR SWAP1 SSTORE POP POP JUMP JUMPDEST PUSH1 0x1 ISZERO ISZERO PUSH1 0x1 DUP3 PUSH1 0x40 MLOAD PUSH2 0x359 SWAP2 SWAP1 PUSH2 0xFAE JUMP JUMPDEST SWAP1 DUP2 MSTORE PUSH1 0x20 ADD PUSH1 0x40 MLOAD DUP1 SWAP2 SUB SWAP1 KECCAK256 PUSH1 0x0 SWAP1 SLOAD SWAP1 PUSH2 0x100 EXP SWAP1 DIV PUSH1 0xFF AND ISZERO ISZERO EQ PUSH2 0x381 JUMPI PUSH1 0x0 DUP1 REVERT JUMPDEST PUSH1 0x4 PUSH1 0x0 SWAP1 SLOAD SWAP1 PUSH2 0x100 EXP SWAP1 DIV PUSH20 0xFFFFFFFFFFFFFFFFFFFFFFFFFFFFFFFFFFFFFFFF AND PUSH20 0xFFFFFFFFFFFFFFFFFFFFFFFFFFFFFFFFFFFFFFFF AND CALLER PUSH20 0xFFFFFFFFFFFFFFFFFFFFFFFFFFFFFFFFFFFFFFFF AND EQ PUSH2 0x3DB JUMPI PUSH1 0x0 DUP1 REVERT JUMPDEST PUSH32 0x2EE35DA94D6494EB515FD8F6FFFDECD1D417DBAE7E370CB1F77D709473E01D59 DUP6 DUP6 DUP6 DUP6 DUP6 PUSH1 0x40 MLOAD PUSH2 0x412 SWAP6 SWAP5 SWAP4 SWAP3 SWAP2 SWAP1 PUSH2 0xFFE JUMP JUMPDEST PUSH1 0x40 MLOAD DUP1 SWAP2 SUB SWAP1 LOG1 PUSH1 0x0 PUSH1 0x1 DUP3 PUSH1 0x40 MLOAD PUSH2 0x42C SWAP2 SWAP1 PUSH2 0xFAE JUMP JUMPDEST SWAP1 DUP2 MSTORE PUSH1 0x20 ADD PUSH1 0x40 MLOAD DUP1 SWAP2 SUB SWAP1 KECCAK256 PUSH1 0x0 PUSH2 0x100 EXP DUP2 SLOAD DUP2 PUSH1 0xFF MUL NOT AND SWAP1 DUP4 ISZERO ISZERO MUL OR SWAP1 SSTORE POP PUSH1 0x2 DUP2 PUSH1 0x40 MLOAD PUSH2 0x461 SWAP2 SWAP1 PUSH2 0xFAE JUMP JUMPDEST SWAP1 DUP2 MSTORE PUSH1 0x20 ADD PUSH1 0x40 MLOAD DUP1 SWAP2 SUB SWAP1 KECCAK256 PUSH1 0x0 SWAP1 SLOAD SWAP1 PUSH2 0x100 EXP SWAP1 DIV PUSH1 0xFF AND ISZERO PUSH2 0x5BE JUMPI PUSH2 0x4C9 PUSH1 0x3 DUP3 PUSH1 0x40 MLOAD PUSH2 0x495 SWAP2 SWAP1 PUSH2 0xFAE JUMP JUMPDEST SWAP1 DUP2 MSTORE PUSH1 0x20 ADD PUSH1 0x40 MLOAD DUP1 SWAP2 SUB SWAP1 KECCAK256 PUSH1 0x0 SWAP1 SLOAD SWAP1 PUSH2 0x100 EXP SWAP1 DIV PUSH20 0xFFFFFFFFFFFFFFFFFFFFFFFFFFFFFFFFFFFFFFFF AND PUSH2 0x7CA JUMP JUMPDEST PUSH32 0x4E5BFBE05270402FC09CD413235062E684A8396BE0A33385106E3B5C34302E60 PUSH1 0x3 DUP3 PUSH1 0x40 MLOAD PUSH2 0x4FA SWAP2 SWAP1 PUSH2 0xFAE JUMP JUMPDEST SWAP1 DUP2 MSTORE PUSH1 0x20 ADD PUSH1 0x40 MLOAD DUP1 SWAP2 SUB SWAP1 KECCAK256 PUSH1 0x0 SWAP1 SLOAD SWAP1 PUSH2 0x100 EXP SWAP1 DIV PUSH20 0xFFFFFFFFFFFFFFFFFFFFFFFFFFFFFFFFFFFFFFFF AND PUSH1 0x6 PUSH1 0x0 PUSH1 0x3 DUP6 PUSH1 0x40 MLOAD PUSH2 0x53D SWAP2 SWAP1 PUSH2 0xFAE JUMP JUMPDEST SWAP1 DUP2 MSTORE PUSH1 0x20 ADD PUSH1 0x40 MLOAD DUP1 SWAP2 SUB SWAP1 KECCAK256 PUSH1 0x0 SWAP1 SLOAD SWAP1 PUSH2 0x100 EXP SWAP1 DIV PUSH20 0xFFFFFFFFFFFFFFFFFFFFFFFFFFFFFFFFFFFFFFFF AND PUSH20 0xFFFFFFFFFFFFFFFFFFFFFFFFFFFFFFFFFFFFFFFF AND PUSH20 0xFFFFFFFFFFFFFFFFFFFFFFFFFFFFFFFFFFFFFFFF AND DUP2 MSTORE PUSH1 0x20 ADD SWAP1 DUP2 MSTORE PUSH1 0x20 ADD PUSH1 0x0 KECCAK256 SLOAD PUSH1 0x40 MLOAD PUSH2 0x5B5 SWAP3 SWAP2 SWAP1 PUSH2 0x1066 JUMP JUMPDEST PUSH1 0x40 MLOAD DUP1 SWAP2 SUB SWAP1 LOG1 JUMPDEST POP POP POP POP POP JUMP JUMPDEST PUSH2 0x5CD PUSH2 0x650 JUMP JUMPDEST PUSH2 0x60C JUMPI PUSH1 0x40 MLOAD PUSH32 0x8C379A000000000000000000000000000000000000000000000000000000000 DUP2 MSTORE PUSH1 0x4 ADD PUSH2 0x603 SWAP1 PUSH2 0xF1F JUMP JUMPDEST PUSH1 0x40 MLOAD DUP1 SWAP2 SUB SWAP1 REVERT JUMPDEST DUP1 PUSH1 0x4 PUSH1 0x0 PUSH2 0x100 EXP DUP2 SLOAD DUP2 PUSH20 0xFFFFFFFFFFFFFFFFFFFFFFFFFFFFFFFFFFFFFFFF MUL NOT AND SWAP1 DUP4 PUSH20 0xFFFFFFFFFFFFFFFFFFFFFFFFFFFFFFFFFFFFFFFF AND MUL OR SWAP1 SSTORE POP POP JUMP JUMPDEST PUSH1 0x0 DUP1 PUSH1 0x0 SWAP1 SLOAD SWAP1 PUSH2 0x100 EXP SWAP1 DIV PUSH20 0xFFFFFFFFFFFFFFFFFFFFFFFFFFFFFFFFFFFFFFFF AND PUSH20 0xFFFFFFFFFFFFFFFFFFFFFFFFFFFFFFFFFFFFFFFF AND CALLER PUSH20 0xFFFFFFFFFFFFFFFFFFFFFFFFFFFFFFFFFFFFFFFF AND EQ SWAP1 POP SWAP1 JUMP JUMPDEST PUSH1 0x0 DUP1 SLOAD SWAP1 PUSH2 0x100 EXP SWAP1 DIV PUSH20 0xFFFFFFFFFFFFFFFFFFFFFFFFFFFFFFFFFFFFFFFF AND DUP2 JUMP JUMPDEST PUSH1 0x4 PUSH1 0x0 SWAP1 SLOAD SWAP1 PUSH2 0x100 EXP SWAP1 DIV PUSH20 0xFFFFFFFFFFFFFFFFFFFFFFFFFFFFFFFFFFFFFFFF AND PUSH20 0xFFFFFFFFFFFFFFFFFFFFFFFFFFFFFFFFFFFFFFFF AND CALLER PUSH20 0xFFFFFFFFFFFFFFFFFFFFFFFFFFFFFFFFFFFFFFFF AND EQ PUSH2 0x725 JUMPI PUSH1 0x0 DUP1 REVERT JUMPDEST PUSH1 0x1 DUP1 DUP3 PUSH1 0x40 MLOAD PUSH2 0x736 SWAP2 SWAP1 PUSH2 0xFAE JUMP JUMPDEST SWAP1 DUP2 MSTORE PUSH1 0x20 ADD PUSH1 0x40 MLOAD DUP1 SWAP2 SUB SWAP1 KECCAK256 PUSH1 0x0 PUSH2 0x100 EXP DUP2 SLOAD DUP2 PUSH1 0xFF MUL NOT AND SWAP1 DUP4 ISZERO ISZERO MUL OR SWAP1 SSTORE POP PUSH1 0x1 DUP2 PUSH1 0x40 MLOAD PUSH2 0x76B SWAP2 SWAP1 PUSH2 0xFAE JUMP JUMPDEST SWAP1 DUP2 MSTORE PUSH1 0x20 ADD PUSH1 0x40 MLOAD DUP1 SWAP2 SUB SWAP1 KECCAK256 PUSH1 0x0 SWAP1 SLOAD SWAP1 PUSH2 0x100 EXP SWAP1 DIV PUSH1 0xFF AND PUSH2 0x790 JUMPI PUSH1 0x0 DUP1 REVERT JUMPDEST PUSH1 0x1 PUSH1 0x2 DUP3 PUSH1 0x40 MLOAD PUSH2 0x7A2 SWAP2 SWAP1 PUSH2 0xFAE JUMP JUMPDEST SWAP1 DUP2 MSTORE PUSH1 0x20 ADD PUSH1 0x40 MLOAD DUP1 SWAP2 SUB SWAP1 KECCAK256 PUSH1 0x0 PUSH2 0x100 EXP DUP2 SLOAD DUP2 PUSH1 0xFF MUL NOT AND SWAP1 DUP4 ISZERO ISZERO MUL OR SWAP1 SSTORE POP POP JUMP JUMPDEST POP JUMP JUMPDEST PUSH1 0x6 PUSH1 0x20 MSTORE DUP1 PUSH1 0x0 MSTORE PUSH1 0x40 PUSH1 0x0 KECCAK256 PUSH1 0x0 SWAP2 POP SWAP1 POP SLOAD DUP2 JUMP JUMPDEST PUSH1 0x4 PUSH1 0x0 SWAP1 SLOAD SWAP1 PUSH2 0x100 EXP SWAP1 DIV PUSH20 0xFFFFFFFFFFFFFFFFFFFFFFFFFFFFFFFFFFFFFFFF AND PUSH20 0xFFFFFFFFFFFFFFFFFFFFFFFFFFFFFFFFFFFFFFFF AND CALLER PUSH20 0xFFFFFFFFFFFFFFFFFFFFFFFFFFFFFFFFFFFFFFFF AND EQ PUSH2 0x83F JUMPI PUSH1 0x0 DUP1 REVERT JUMPDEST PUSH1 0x1 DUP1 DUP4 PUSH1 0x40 MLOAD PUSH2 0x850 SWAP2 SWAP1 PUSH2 0xFAE JUMP JUMPDEST SWAP1 DUP2 MSTORE PUSH1 0x20 ADD PUSH1 0x40 MLOAD DUP1 SWAP2 SUB SWAP1 KECCAK256 PUSH1 0x0 PUSH2 0x100 EXP DUP2 SLOAD DUP2 PUSH1 0xFF MUL NOT AND SWAP1 DUP4 ISZERO ISZERO MUL OR SWAP1 SSTORE POP PUSH1 0x1 DUP3 PUSH1 0x40 MLOAD PUSH2 0x885 SWAP2 SWAP1 PUSH2 0xFAE JUMP JUMPDEST SWAP1 DUP2 MSTORE PUSH1 0x20 ADD PUSH1 0x40 MLOAD DUP1 SWAP2 SUB SWAP1 KECCAK256 PUSH1 0x0 SWAP1 SLOAD SWAP1 PUSH2 0x100 EXP SWAP1 DIV PUSH1 0xFF AND PUSH2 0x8AA JUMPI PUSH1 0x0 DUP1 REVERT JUMPDEST PUSH1 0x1 PUSH1 0x2 DUP4 PUSH1 0x40 MLOAD PUSH2 0x8BC SWAP2 SWAP1 PUSH2 0xFAE JUMP JUMPDEST SWAP1 DUP2 MSTORE PUSH1 0x20 ADD PUSH1 0x40 MLOAD DUP1 SWAP2 SUB SWAP1 KECCAK256 PUSH1 0x0 PUSH2 0x100 EXP DUP2 SLOAD DUP2 PUSH1 0xFF MUL NOT AND SWAP1 DUP4 ISZERO ISZERO MUL OR SWAP1 SSTORE POP DUP2 PUSH1 0x5 PUSH1 0x0 DUP4 PUSH20 0xFFFFFFFFFFFFFFFFFFFFFFFFFFFFFFFFFFFFFFFF AND PUSH20 0xFFFFFFFFFFFFFFFFFFFFFFFFFFFFFFFFFFFFFFFF AND DUP2 MSTORE PUSH1 0x20 ADD SWAP1 DUP2 MSTORE PUSH1 0x20 ADD PUSH1 0x0 KECCAK256 SWAP1 DUP2 PUSH2 0x92D SWAP2 SWAP1 PUSH2 0x1226 JUMP JUMPDEST POP DUP1 PUSH1 0x3 DUP4 PUSH1 0x40 MLOAD PUSH2 0x93F SWAP2 SWAP1 PUSH2 0xFAE JUMP JUMPDEST SWAP1 DUP2 MSTORE PUSH1 0x20 ADD PUSH1 0x40 MLOAD DUP1 SWAP2 SUB SWAP1 KECCAK256 PUSH1 0x0 PUSH2 0x100 EXP DUP2 SLOAD DUP2 PUSH20 0xFFFFFFFFFFFFFFFFFFFFFFFFFFFFFFFFFFFFFFFF MUL NOT AND SWAP1 DUP4 PUSH20 0xFFFFFFFFFFFFFFFFFFFFFFFFFFFFFFFFFFFFFFFF AND MUL OR SWAP1 SSTORE POP POP POP JUMP JUMPDEST PUSH32 0x4E487B7100000000000000000000000000000000000000000000000000000000 PUSH1 0x0 MSTORE PUSH1 0x22 PUSH1 0x4 MSTORE PUSH1 0x24 PUSH1 0x0 REVERT JUMPDEST PUSH1 0x0 PUSH1 0x2 DUP3 DIV SWAP1 POP PUSH1 0x1 DUP3 AND DUP1 PUSH2 0x9D6 JUMPI PUSH1 0x7F DUP3 AND SWAP2 POP JUMPDEST PUSH1 0x20 DUP3 LT DUP2 SUB PUSH2 0x9E9 JUMPI PUSH2 0x9E8 PUSH2 0x98F JUMP JUMPDEST JUMPDEST POP SWAP2 SWAP1 POP JUMP JUMPDEST PUSH1 0x0 DUP2 SWAP1 POP SWAP3 SWAP2 POP POP JUMP JUMPDEST PUSH1 0x0 DUP2 SWAP1 POP DUP2 PUSH1 0x0 MSTORE PUSH1 0x20 PUSH1 0x0 KECCAK256 SWAP1 POP SWAP2 SWAP1 POP JUMP JUMPDEST PUSH1 0x0 DUP2 SLOAD PUSH2 0xA1C DUP2 PUSH2 0x9BE JUMP JUMPDEST PUSH2 0xA26 DUP2 DUP7 PUSH2 0x9EF JUMP JUMPDEST SWAP5 POP PUSH1 0x1 DUP3 AND PUSH1 0x0 DUP2 EQ PUSH2 0xA41 JUMPI PUSH1 0x1 DUP2 EQ PUSH2 0xA56 JUMPI PUSH2 0xA89 JUMP JUMPDEST PUSH1 0xFF NOT DUP4 AND DUP7 MSTORE DUP2 ISZERO ISZERO DUP3 MUL DUP7 ADD SWAP4 POP PUSH2 0xA89 JUMP JUMPDEST PUSH2 0xA5F DUP6 PUSH2 0x9FA JUMP JUMPDEST PUSH1 0x0 JUMPDEST DUP4 DUP2 LT ISZERO PUSH2 0xA81 JUMPI DUP2 SLOAD DUP2 DUP10 ADD MSTORE PUSH1 0x1 DUP3 ADD SWAP2 POP PUSH1 0x20 DUP2 ADD SWAP1 POP PUSH2 0xA62 JUMP JUMPDEST DUP4 DUP9 ADD SWAP6 POP POP POP JUMPDEST POP POP POP SWAP3 SWAP2 POP POP JUMP JUMPDEST PUSH1 0x0 PUSH2 0xA9E DUP3 DUP5 PUSH2 0xA0F JUMP JUMPDEST SWAP2 POP DUP2 SWAP1 POP SWAP3 SWAP2 POP POP JUMP JUMPDEST PUSH1 0x0 PUSH1 0x40 MLOAD SWAP1 POP SWAP1 JUMP JUMPDEST PUSH1 0x0 DUP1 REVERT JUMPDEST PUSH1 0x0 DUP1 REVERT JUMPDEST PUSH1 0x0 PUSH20 0xFFFFFFFFFFFFFFFFFFFFFFFFFFFFFFFFFFFFFFFF DUP3 AND SWAP1 POP SWAP2 SWAP1 POP JUMP JUMPDEST PUSH1 0x0 PUSH2 0xAE8 DUP3 PUSH2 0xABD JUMP JUMPDEST SWAP1 POP SWAP2 SWAP1 POP JUMP JUMPDEST PUSH2 0xAF8 DUP2 PUSH2 0xADD JUMP JUMPDEST DUP2 EQ PUSH2 0xB03 JUMPI PUSH1 0x0 DUP1 REVERT JUMPDEST POP JUMP JUMPDEST PUSH1 0x0 DUP2 CALLDATALOAD SWAP1 POP PUSH2 0xB15 DUP2 PUSH2 0xAEF JUMP JUMPDEST SWAP3 SWAP2 POP POP JUMP JUMPDEST PUSH1 0x0 PUSH1 0x20 DUP3 DUP5 SUB SLT ISZERO PUSH2 0xB31 JUMPI PUSH2 0xB30 PUSH2 0xAB3 JUMP JUMPDEST JUMPDEST PUSH1 0x0 PUSH2 0xB3F DUP5 DUP3 DUP6 ADD PUSH2 0xB06 JUMP JUMPDEST SWAP2 POP POP SWAP3 SWAP2 POP POP JUMP JUMPDEST PUSH1 0x0 DUP1 REVERT JUMPDEST PUSH1 0x0 DUP1 REVERT JUMPDEST PUSH1 0x0 PUSH1 0x1F NOT PUSH1 0x1F DUP4 ADD AND SWAP1 POP SWAP2 SWAP1 POP JUMP JUMPDEST PUSH32 0x4E487B7100000000000000000000000000000000000000000000000000000000 PUSH1 0x0 MSTORE PUSH1 0x41 PUSH1 0x4 MSTORE PUSH1 0x24 PUSH1 0x0 REVERT JUMPDEST PUSH2 0xB9B DUP3 PUSH2 0xB52 JUMP JUMPDEST DUP2 ADD DUP2 DUP2 LT PUSH8 0xFFFFFFFFFFFFFFFF DUP3 GT OR ISZERO PUSH2 0xBBA JUMPI PUSH2 0xBB9 PUSH2 0xB63 JUMP JUMPDEST JUMPDEST DUP1 PUSH1 0x40 MSTORE POP POP POP JUMP JUMPDEST PUSH1 0x0 PUSH2 0xBCD PUSH2 0xAA9 JUMP JUMPDEST SWAP1 POP PUSH2 0xBD9 DUP3 DUP3 PUSH2 0xB92 JUMP JUMPDEST SWAP2 SWAP1 POP JUMP JUMPDEST PUSH1 0x0 PUSH8 0xFFFFFFFFFFFFFFFF DUP3 GT ISZERO PUSH2 0xBF9 JUMPI PUSH2 0xBF8 PUSH2 0xB63 JUMP JUMPDEST JUMPDEST PUSH2 0xC02 DUP3 PUSH2 0xB52 JUMP JUMPDEST SWAP1 POP PUSH1 0x20 DUP2 ADD SWAP1 POP SWAP2 SWAP1 POP JUMP JUMPDEST DUP3 DUP2 DUP4 CALLDATACOPY PUSH1 0x0 DUP4 DUP4 ADD MSTORE POP POP POP JUMP JUMPDEST PUSH1 0x0 PUSH2 0xC31 PUSH2 0xC2C DUP5 PUSH2 0xBDE JUMP JUMPDEST PUSH2 0xBC3 JUMP JUMPDEST SWAP1 POP DUP3 DUP2 MSTORE PUSH1 0x20 DUP2 ADD DUP5 DUP5 DUP5 ADD GT ISZERO PUSH2 0xC4D JUMPI PUSH2 0xC4C PUSH2 0xB4D JUMP JUMPDEST JUMPDEST PUSH2 0xC58 DUP5 DUP3 DUP6 PUSH2 0xC0F JUMP JUMPDEST POP SWAP4 SWAP3 POP POP POP JUMP JUMPDEST PUSH1 0x0 DUP3 PUSH1 0x1F DUP4 ADD SLT PUSH2 0xC75 JUMPI PUSH2 0xC74 PUSH2 0xB48 JUMP JUMPDEST JUMPDEST DUP2 CALLDATALOAD PUSH2 0xC85 DUP5 DUP3 PUSH1 0x20 DUP7 ADD PUSH2 0xC1E JUMP JUMPDEST SWAP2 POP POP SWAP3 SWAP2 POP POP JUMP JUMPDEST PUSH1 0x0 DUP2 SWAP1 POP SWAP2 SWAP1 POP JUMP JUMPDEST PUSH2 0xCA1 DUP2 PUSH2 0xC8E JUMP JUMPDEST DUP2 EQ PUSH2 0xCAC JUMPI PUSH1 0x0 DUP1 REVERT JUMPDEST POP JUMP JUMPDEST PUSH1 0x0 DUP2 CALLDATALOAD SWAP1 POP PUSH2 0xCBE DUP2 PUSH2 0xC98 JUMP JUMPDEST SWAP3 SWAP2 POP POP JUMP JUMPDEST PUSH1 0x0 DUP1 PUSH1 0x0 DUP1 PUSH1 0x0 PUSH1 0xA0 DUP7 DUP9 SUB SLT ISZERO PUSH2 0xCE0 JUMPI PUSH2 0xCDF PUSH2 0xAB3 JUMP JUMPDEST JUMPDEST PUSH1 0x0 DUP7 ADD CALLDATALOAD PUSH8 0xFFFFFFFFFFFFFFFF DUP2 GT ISZERO PUSH2 0xCFE JUMPI PUSH2 0xCFD PUSH2 0xAB8 JUMP JUMPDEST JUMPDEST PUSH2 0xD0A DUP9 DUP3 DUP10 ADD PUSH2 0xC60 JUMP JUMPDEST SWAP6 POP POP PUSH1 0x20 DUP7 ADD CALLDATALOAD PUSH8 0xFFFFFFFFFFFFFFFF DUP2 GT ISZERO PUSH2 0xD2B JUMPI PUSH2 0xD2A PUSH2 0xAB8 JUMP JUMPDEST JUMPDEST PUSH2 0xD37 DUP9 DUP3 DUP10 ADD PUSH2 0xC60 JUMP JUMPDEST SWAP5 POP POP PUSH1 0x40 PUSH2 0xD48 DUP9 DUP3 DUP10 ADD PUSH2 0xCAF JUMP JUMPDEST SWAP4 POP POP PUSH1 0x60 PUSH2 0xD59 DUP9 DUP3 DUP10 ADD PUSH2 0xCAF JUMP JUMPDEST SWAP3 POP POP PUSH1 0x80 DUP7 ADD CALLDATALOAD PUSH8 0xFFFFFFFFFFFFFFFF DUP2 GT ISZERO PUSH2 0xD7A JUMPI PUSH2 0xD79 PUSH2 0xAB8 JUMP JUMPDEST JUMPDEST PUSH2 0xD86 DUP9 DUP3 DUP10 ADD PUSH2 0xC60 JUMP JUMPDEST SWAP2 POP POP SWAP3 SWAP6 POP SWAP3 SWAP6 SWAP1 SWAP4 POP JUMP JUMPDEST PUSH1 0x0 DUP2 ISZERO ISZERO SWAP1 POP SWAP2 SWAP1 POP JUMP JUMPDEST PUSH2 0xDA8 DUP2 PUSH2 0xD93 JUMP JUMPDEST DUP3 MSTORE POP POP JUMP JUMPDEST PUSH1 0x0 PUSH1 0x20 DUP3 ADD SWAP1 POP PUSH2 0xDC3 PUSH1 0x0 DUP4 ADD DUP5 PUSH2 0xD9F JUMP JUMPDEST SWAP3 SWAP2 POP POP JUMP JUMPDEST PUSH2 0xDD2 DUP2 PUSH2 0xADD JUMP JUMPDEST DUP3 MSTORE POP POP JUMP JUMPDEST PUSH1 0x0 PUSH1 0x20 DUP3 ADD SWAP1 POP PUSH2 0xDED PUSH1 0x0 DUP4 ADD DUP5 PUSH2 0xDC9 JUMP JUMPDEST SWAP3 SWAP2 POP POP JUMP JUMPDEST PUSH1 0x0 PUSH1 0x20 DUP3 DUP5 SUB SLT ISZERO PUSH2 0xE09 JUMPI PUSH2 0xE08 PUSH2 0xAB3 JUMP JUMPDEST JUMPDEST PUSH1 0x0 DUP3 ADD CALLDATALOAD PUSH8 0xFFFFFFFFFFFFFFFF DUP2 GT ISZERO PUSH2 0xE27 JUMPI PUSH2 0xE26 PUSH2 0xAB8 JUMP JUMPDEST JUMPDEST PUSH2 0xE33 DUP5 DUP3 DUP6 ADD PUSH2 0xC60 JUMP JUMPDEST SWAP2 POP POP SWAP3 SWAP2 POP POP JUMP JUMPDEST PUSH2 0xE45 DUP2 PUSH2 0xC8E JUMP JUMPDEST DUP3 MSTORE POP POP JUMP JUMPDEST PUSH1 0x0 PUSH1 0x20 DUP3 ADD SWAP1 POP PUSH2 0xE60 PUSH1 0x0 DUP4 ADD DUP5 PUSH2 0xE3C JUMP JUMPDEST SWAP3 SWAP2 POP POP JUMP JUMPDEST PUSH1 0x0 DUP1 PUSH1 0x40 DUP4 DUP6 SUB SLT ISZERO PUSH2 0xE7D JUMPI PUSH2 0xE7C PUSH2 0xAB3 JUMP JUMPDEST JUMPDEST PUSH1 0x0 DUP4 ADD CALLDATALOAD PUSH8 0xFFFFFFFFFFFFFFFF DUP2 GT ISZERO PUSH2 0xE9B JUMPI PUSH2 0xE9A PUSH2 0xAB8 JUMP JUMPDEST JUMPDEST PUSH2 0xEA7 DUP6 DUP3 DUP7 ADD PUSH2 0xC60 JUMP JUMPDEST SWAP3 POP POP PUSH1 0x20 PUSH2 0xEB8 DUP6 DUP3 DUP7 ADD PUSH2 0xB06 JUMP JUMPDEST SWAP2 POP POP SWAP3 POP SWAP3 SWAP1 POP JUMP JUMPDEST PUSH1 0x0 DUP3 DUP3 MSTORE PUSH1 0x20 DUP3 ADD SWAP1 POP SWAP3 SWAP2 POP POP JUMP JUMPDEST PUSH32 0x4F776E61626C653A2063616C6C6572206973206E6F7420746865206F776E6572 PUSH1 0x0 DUP3 ADD MSTORE POP JUMP JUMPDEST PUSH1 0x0 PUSH2 0xF09 PUSH1 0x20 DUP4 PUSH2 0xEC2 JUMP JUMPDEST SWAP2 POP PUSH2 0xF14 DUP3 PUSH2 0xED3 JUMP JUMPDEST PUSH1 0x20 DUP3 ADD SWAP1 POP SWAP2 SWAP1 POP JUMP JUMPDEST PUSH1 0x0 PUSH1 0x20 DUP3 ADD SWAP1 POP DUP2 DUP2 SUB PUSH1 0x0 DUP4 ADD MSTORE PUSH2 0xF38 DUP2 PUSH2 0xEFC JUMP JUMPDEST SWAP1 POP SWAP2 SWAP1 POP JUMP JUMPDEST PUSH1 0x0 DUP2 MLOAD SWAP1 POP SWAP2 SWAP1 POP JUMP JUMPDEST PUSH1 0x0 JUMPDEST DUP4 DUP2 LT ISZERO PUSH2 0xF68 JUMPI DUP1 DUP3 ADD MLOAD DUP2 DUP5 ADD MSTORE PUSH1 0x20 DUP2 ADD SWAP1 POP PUSH2 0xF4D JUMP JUMPDEST DUP4 DUP2 GT ISZERO PUSH2 0xF77 JUMPI PUSH1 0x0 DUP5 DUP5 ADD MSTORE JUMPDEST POP POP POP POP JUMP JUMPDEST PUSH1 0x0 PUSH2 0xF88 DUP3 PUSH2 0xF3F JUMP JUMPDEST PUSH2 0xF92 DUP2 DUP6 PUSH2 0x9EF JUMP JUMPDEST SWAP4 POP PUSH2 0xFA2 DUP2 DUP6 PUSH1 0x20 DUP7 ADD PUSH2 0xF4A JUMP JUMPDEST DUP1 DUP5 ADD SWAP2 POP POP SWAP3 SWAP2 POP POP JUMP JUMPDEST PUSH1 0x0 PUSH2 0xFBA DUP3 DUP5 PUSH2 0xF7D JUMP JUMPDEST SWAP2 POP DUP2 SWAP1 POP SWAP3 SWAP2 POP POP JUMP JUMPDEST PUSH1 0x0 PUSH2 0xFD0 DUP3 PUSH2 0xF3F JUMP JUMPDEST PUSH2 0xFDA DUP2 DUP6 PUSH2 0xEC2 JUMP JUMPDEST SWAP4 POP PUSH2 0xFEA DUP2 DUP6 PUSH1 0x20 DUP7 ADD PUSH2 0xF4A JUMP JUMPDEST PUSH2 0xFF3 DUP2 PUSH2 0xB52 JUMP JUMPDEST DUP5 ADD SWAP2 POP POP SWAP3 SWAP2 POP POP JUMP JUMPDEST PUSH1 0x0 PUSH1 0xA0 DUP3 ADD SWAP1 POP DUP2 DUP2 SUB PUSH1 0x0 DUP4 ADD MSTORE PUSH2 0x1018 DUP2 DUP9 PUSH2 0xFC5 JUMP JUMPDEST SWAP1 POP DUP2 DUP2 SUB PUSH1 0x20 DUP4 ADD MSTORE PUSH2 0x102C DUP2 DUP8 PUSH2 0xFC5 JUMP JUMPDEST SWAP1 POP PUSH2 0x103B PUSH1 0x40 DUP4 ADD DUP7 PUSH2 0xE3C JUMP JUMPDEST PUSH2 0x1048 PUSH1 0x60 DUP4 ADD DUP6 PUSH2 0xE3C JUMP JUMPDEST DUP2 DUP2 SUB PUSH1 0x80 DUP4 ADD MSTORE PUSH2 0x105A DUP2 DUP5 PUSH2 0xFC5 JUMP JUMPDEST SWAP1 POP SWAP7 SWAP6 POP POP POP POP POP POP JUMP JUMPDEST PUSH1 0x0 PUSH1 0x40 DUP3 ADD SWAP1 POP PUSH2 0x107B PUSH1 0x0 DUP4 ADD DUP6 PUSH2 0xDC9 JUMP JUMPDEST PUSH2 0x1088 PUSH1 0x20 DUP4 ADD DUP5 PUSH2 0xE3C JUMP JUMPDEST SWAP4 SWAP3 POP POP POP JUMP JUMPDEST PUSH1 0x0 PUSH1 0x20 PUSH1 0x1F DUP4 ADD DIV SWAP1 POP SWAP2 SWAP1 POP JUMP JUMPDEST PUSH1 0x0 DUP3 DUP3 SHL SWAP1 POP SWAP3 SWAP2 POP POP JUMP JUMPDEST PUSH1 0x0 PUSH1 0x8 DUP4 MUL PUSH2 0x10DC PUSH32 0xFFFFFFFFFFFFFFFFFFFFFFFFFFFFFFFFFFFFFFFFFFFFFFFFFFFFFFFFFFFFFFFF DUP3 PUSH2 0x109F JUMP JUMPDEST PUSH2 0x10E6 DUP7 DUP4 PUSH2 0x109F JUMP JUMPDEST SWAP6 POP DUP1 NOT DUP5 AND SWAP4 POP DUP1 DUP7 AND DUP5 OR SWAP3 POP POP POP SWAP4 SWAP3 POP POP POP JUMP JUMPDEST PUSH1 0x0 DUP2 SWAP1 POP SWAP2 SWAP1 POP JUMP JUMPDEST PUSH1 0x0 PUSH2 0x1123 PUSH2 0x111E PUSH2 0x1119 DUP5 PUSH2 0xC8E JUMP JUMPDEST PUSH2 0x10FE JUMP JUMPDEST PUSH2 0xC8E JUMP JUMPDEST SWAP1 POP SWAP2 SWAP1 POP JUMP JUMPDEST PUSH1 0x0 DUP2 SWAP1 POP SWAP2 SWAP1 POP JUMP JUMPDEST PUSH2 0x113D DUP4 PUSH2 0x1108 JUMP JUMPDEST PUSH2 0x1151 PUSH2 0x1149 DUP3 PUSH2 0x112A JUMP JUMPDEST DUP5 DUP5 SLOAD PUSH2 0x10AC JUMP JUMPDEST DUP3 SSTORE POP POP POP POP JUMP JUMPDEST PUSH1 0x0 SWAP1 JUMP JUMPDEST PUSH2 0x1166 PUSH2 0x1159 JUMP JUMPDEST PUSH2 0x1171 DUP2 DUP5 DUP5 PUSH2 0x1134 JUMP JUMPDEST POP POP POP JUMP JUMPDEST JUMPDEST DUP2 DUP2 LT ISZERO PUSH2 0x1195 JUMPI PUSH2 0x118A PUSH1 0x0 DUP3 PUSH2 0x115E JUMP JUMPDEST PUSH1 0x1 DUP2 ADD SWAP1 POP PUSH2 0x1177 JUMP JUMPDEST POP POP JUMP JUMPDEST PUSH1 0x1F DUP3 GT ISZERO PUSH2 0x11DA JUMPI PUSH2 0x11AB DUP2 PUSH2 0x9FA JUMP JUMPDEST PUSH2 0x11B4 DUP5 PUSH2 0x108F JUMP JUMPDEST DUP2 ADD PUSH1 0x20 DUP6 LT ISZERO PUSH2 0x11C3 JUMPI DUP2 SWAP1 POP JUMPDEST PUSH2 0x11D7 PUSH2 0x11CF DUP6 PUSH2 0x108F JUMP JUMPDEST DUP4 ADD DUP3 PUSH2 0x1176 JUMP JUMPDEST POP POP JUMPDEST POP POP POP JUMP JUMPDEST PUSH1 0x0 DUP3 DUP3 SHR SWAP1 POP SWAP3 SWAP2 POP POP JUMP JUMPDEST PUSH1 0x0 PUSH2 0x11FD PUSH1 0x0 NOT DUP5 PUSH1 0x8 MUL PUSH2 0x11DF JUMP JUMPDEST NOT DUP1 DUP4 AND SWAP2 POP POP SWAP3 SWAP2 POP POP JUMP JUMPDEST PUSH1 0x0 PUSH2 0x1216 DUP4 DUP4 PUSH2 0x11EC JUMP JUMPDEST SWAP2 POP DUP3 PUSH1 0x2 MUL DUP3 OR SWAP1 POP SWAP3 SWAP2 POP POP JUMP JUMPDEST PUSH2 0x122F DUP3 PUSH2 0xF3F JUMP JUMPDEST PUSH8 0xFFFFFFFFFFFFFFFF DUP2 GT ISZERO PUSH2 0x1248 JUMPI PUSH2 0x1247 PUSH2 0xB63 JUMP JUMPDEST JUMPDEST PUSH2 0x1252 DUP3 SLOAD PUSH2 0x9BE JUMP JUMPDEST PUSH2 0x125D DUP3 DUP3 DUP6 PUSH2 0x1199 JUMP JUMPDEST PUSH1 0x0 PUSH1 0x20 SWAP1 POP PUSH1 0x1F DUP4 GT PUSH1 0x1 DUP2 EQ PUSH2 0x1290 JUMPI PUSH1 0x0 DUP5 ISZERO PUSH2 0x127E JUMPI DUP3 DUP8 ADD MLOAD SWAP1 POP JUMPDEST PUSH2 0x1288 DUP6 DUP3 PUSH2 0x120A JUMP JUMPDEST DUP7 SSTORE POP PUSH2 0x12F0 JUMP JUMPDEST PUSH1 0x1F NOT DUP5 AND PUSH2 0x129E DUP7 PUSH2 0x9FA JUMP JUMPDEST PUSH1 0x0 JUMPDEST DUP3 DUP2 LT ISZERO PUSH2 0x12C6 JUMPI DUP5 DUP10 ADD MLOAD DUP3 SSTORE PUSH1 0x1 DUP3 ADD SWAP2 POP PUSH1 0x20 DUP6 ADD SWAP5 POP PUSH1 0x20 DUP2 ADD SWAP1 POP PUSH2 0x12A1 JUMP JUMPDEST DUP7 DUP4 LT ISZERO PUSH2 0x12E3 JUMPI DUP5 DUP10 ADD MLOAD PUSH2 0x12DF PUSH1 0x1F DUP10 AND DUP3 PUSH2 0x11EC JUMP JUMPDEST DUP4 SSTORE POP JUMPDEST PUSH1 0x1 PUSH1 0x2 DUP9 MUL ADD DUP9 SSTORE POP POP POP JUMPDEST POP POP POP POP POP POP JUMP INVALID LOG2 PUSH5 0x6970667358 0x22 SLT KECCAK256 CALLER DIFFICULTY 0x26 0xF6 0xD3 LOG0 0x2E 0xE9 SWAP11 SMOD 0x2E ORIGIN PUSH29 0x4F382E21358C2583548FA5F9C691BA47E51D1764736F6C634300080F00 CALLER "
				},
				"gasEstimates": {
					"creation": {
						"codeDepositCost": "982000",
						"executionCost": "49553",
						"totalCost": "1031553"
					},
					"external": {
						"_owner()": "2511",
						"isOwner()": "2563",
						"issueCertificate(string,string,uint256,uint256,string)": "infinite",
						"returnStakedEther(address)": "475",
						"setAdmin(address)": "26972",
						"setOwner(address)": "26928",
						"stakedAmount(address)": "2880",
						"updateCertificateRecipient(string)": "infinite",
						"updateCertificateRecipientForStaking(string,address)": "infinite"
					}
				},
				"methodIdentifiers": {
					"_owner()": "b2bdfa7b",
					"isOwner()": "8f32d59b",
					"issueCertificate(string,string,uint256,uint256,string)": "3f59c657",
					"returnStakedEther(address)": "e9e65331",
					"setAdmin(address)": "704b6c02",
					"setOwner(address)": "13af4035",
					"stakedAmount(address)": "f9931855",
					"updateCertificateRecipient(string)": "e9351558",
					"updateCertificateRecipientForStaking(string,address)": "fe49048a"
				}
			},
			"storageLayout": {
				"storage": [
					{
						"astId": 238,
						"contract": "certificateissuer.sol:CertificateIssuer",
						"label": "_owner",
						"offset": 0,
						"slot": "0",
						"type": "t_address"
					},
					{
						"astId": 29,
						"contract": "certificateissuer.sol:CertificateIssuer",
						"label": "cauthValid",
						"offset": 0,
						"slot": "1",
						"type": "t_mapping(t_string_memory_ptr,t_bool)"
					},
					{
						"astId": 33,
						"contract": "certificateissuer.sol:CertificateIssuer",
						"label": "cauthToCanStake",
						"offset": 0,
						"slot": "2",
						"type": "t_mapping(t_string_memory_ptr,t_bool)"
					},
					{
						"astId": 37,
						"contract": "certificateissuer.sol:CertificateIssuer",
						"label": "cauthToAddress",
						"offset": 0,
						"slot": "3",
						"type": "t_mapping(t_string_memory_ptr,t_address)"
					},
					{
						"astId": 39,
						"contract": "certificateissuer.sol:CertificateIssuer",
						"label": "_admin",
						"offset": 0,
						"slot": "4",
						"type": "t_address"
					},
					{
						"astId": 43,
						"contract": "certificateissuer.sol:CertificateIssuer",
						"label": "adressToCauth",
						"offset": 0,
						"slot": "5",
						"type": "t_mapping(t_address,t_string_storage)"
					},
					{
						"astId": 47,
						"contract": "certificateissuer.sol:CertificateIssuer",
						"label": "stakedAmount",
						"offset": 0,
						"slot": "6",
						"type": "t_mapping(t_address,t_uint256)"
					}
				],
				"types": {
					"t_address": {
						"encoding": "inplace",
						"label": "address",
						"numberOfBytes": "20"
					},
					"t_bool": {
						"encoding": "inplace",
						"label": "bool",
						"numberOfBytes": "1"
					},
					"t_mapping(t_address,t_string_storage)": {
						"encoding": "mapping",
						"key": "t_address",
						"label": "mapping(address => string)",
						"numberOfBytes": "32",
						"value": "t_string_storage"
					},
					"t_mapping(t_address,t_uint256)": {
						"encoding": "mapping",
						"key": "t_address",
						"label": "mapping(address => uint256)",
						"numberOfBytes": "32",
						"value": "t_uint256"
					},
					"t_mapping(t_string_memory_ptr,t_address)": {
						"encoding": "mapping",
						"key": "t_string_memory_ptr",
						"label": "mapping(string => address)",
						"numberOfBytes": "32",
						"value": "t_address"
					},
					"t_mapping(t_string_memory_ptr,t_bool)": {
						"encoding": "mapping",
						"key": "t_string_memory_ptr",
						"label": "mapping(string => bool)",
						"numberOfBytes": "32",
						"value": "t_bool"
					},
					"t_string_memory_ptr": {
						"encoding": "bytes",
						"label": "string",
						"numberOfBytes": "32"
					},
					"t_string_storage": {
						"encoding": "bytes",
						"label": "string",
						"numberOfBytes": "32"
					},
					"t_uint256": {
						"encoding": "inplace",
						"label": "uint256",
						"numberOfBytes": "32"
					}
				}
			},
			"userdoc": {
				"kind": "user",
				"methods": {},
				"version": 1
			}
		}
	}
}