{
	"certificateissuer.sol": {
		"CertificateIssuer": {
			"abi": [
				{
					"inputs": [],
					"stateMutability": "nonpayable",
					"type": "constructor"
				},
				{
					"anonymous": false,
					"inputs": [
						{
							"indexed": false,
							"internalType": "string",
							"name": "_name",
							"type": "string"
						},
						{
							"indexed": false,
							"internalType": "string",
							"name": "_courseTittle",
							"type": "string"
						},
						{
							"indexed": false,
							"internalType": "uint256",
							"name": "_duration",
							"type": "uint256"
						},
						{
							"indexed": false,
							"internalType": "string",
							"name": "institute",
							"type": "string"
						},
						{
							"indexed": false,
							"internalType": "string",
							"name": "cauth",
							"type": "string"
						}
					],
					"name": "certificateIssued",
					"type": "event"
				},
				{
					"anonymous": false,
					"inputs": [
						{
							"indexed": false,
							"internalType": "address",
							"name": "_studentAddress",
							"type": "address"
						},
						{
							"indexed": false,
							"internalType": "uint256",
							"name": "_amount",
							"type": "uint256"
						}
					],
					"name": "stakeReturned",
					"type": "event"
				},
				{
					"inputs": [],
					"name": "_owner",
					"outputs": [
						{
							"internalType": "address",
							"name": "",
							"type": "address"
						}
					],
					"stateMutability": "view",
					"type": "function"
				},
				{
					"inputs": [],
					"name": "isOwner",
					"outputs": [
						{
							"internalType": "bool",
							"name": "",
							"type": "bool"
						}
					],
					"stateMutability": "view",
					"type": "function"
				},
				{
					"inputs": [
						{
							"internalType": "string",
							"name": "_name",
							"type": "string"
						},
						{
							"internalType": "string",
							"name": "_courseTittle",
							"type": "string"
						},
						{
							"internalType": "uint256",
							"name": "_duration",
							"type": "uint256"
						},
						{
							"internalType": "string",
							"name": "institute",
							"type": "string"
						},
						{
							"internalType": "string",
							"name": "cauth",
							"type": "string"
						}
					],
					"name": "issueCertificate",
					"outputs": [],
					"stateMutability": "payable",
					"type": "function"
				},
				{
					"inputs": [
						{
							"internalType": "address",
							"name": "_studentAddress",
							"type": "address"
						}
					],
					"name": "returnStakedEther",
					"outputs": [],
					"stateMutability": "payable",
					"type": "function"
				},
				{
					"inputs": [
						{
							"internalType": "address",
							"name": "_adminParameter",
							"type": "address"
						}
					],
					"name": "setAdmin",
					"outputs": [],
					"stateMutability": "nonpayable",
					"type": "function"
				},
				{
					"inputs": [
						{
							"internalType": "address",
							"name": "_newOwner",
							"type": "address"
						}
					],
					"name": "setOwner",
					"outputs": [],
					"stateMutability": "nonpayable",
					"type": "function"
				},
				{
					"inputs": [
						{
							"internalType": "address",
							"name": "",
							"type": "address"
						}
					],
					"name": "stakedAmount",
					"outputs": [
						{
							"internalType": "uint256",
							"name": "",
							"type": "uint256"
						}
					],
					"stateMutability": "view",
					"type": "function"
				},
				{
					"inputs": [
						{
							"internalType": "string",
							"name": "cauth",
							"type": "string"
						}
					],
					"name": "updateCertificateRecipient",
					"outputs": [],
					"stateMutability": "nonpayable",
					"type": "function"
				},
				{
					"inputs": [
						{
							"internalType": "string",
							"name": "cauth",
							"type": "string"
						},
						{
							"internalType": "address",
							"name": "_staker",
							"type": "address"
						}
					],
					"name": "updateCertificateRecipientForStaking",
					"outputs": [],
					"stateMutability": "nonpayable",
					"type": "function"
				},
				{
					"stateMutability": "payable",
					"type": "receive"
				}
			],
			"devdoc": {
				"kind": "dev",
				"methods": {
					"isOwner()": {
						"details": "Returns true if the caller is the current owner."
					}
				},
				"version": 1
			},
			"evm": {
				"assembly": "    /* \"certificateissuer.sol\":89:3467  contract CertificateIssuer is Ownable{... */\n  mstore(0x40, 0x80)\n    /* \"certificateissuer.sol\":193:247  constructor (){... */\n  callvalue\n  dup1\n  iszero\n  tag_1\n  jumpi\n  0x00\n  dup1\n  revert\ntag_1:\n  pop\n    /* \"ownable.sol\":150:160  msg.sender */\n  caller\n    /* \"ownable.sol\":141:147  _owner */\n  0x00\n  dup1\n    /* \"ownable.sol\":141:160  _owner = msg.sender */\n  0x0100\n  exp\n  dup2\n  sload\n  dup2\n  0xffffffffffffffffffffffffffffffffffffffff\n  mul\n  not\n  and\n  swap1\n  dup4\n  0xffffffffffffffffffffffffffffffffffffffff\n  and\n  mul\n  or\n  swap1\n  sstore\n  pop\n    /* \"certificateissuer.sol\":227:237  msg.sender */\n  caller\n    /* \"certificateissuer.sol\":218:224  _admin */\n  0x04\n  0x00\n    /* \"certificateissuer.sol\":218:237  _admin = msg.sender */\n  0x0100\n  exp\n  dup2\n  sload\n  dup2\n  0xffffffffffffffffffffffffffffffffffffffff\n  mul\n  not\n  and\n  swap1\n  dup4\n  0xffffffffffffffffffffffffffffffffffffffff\n  and\n  mul\n  or\n  swap1\n  sstore\n  pop\n    /* \"certificateissuer.sol\":89:3467  contract CertificateIssuer is Ownable{... */\n  dataSize(sub_0)\n  dup1\n  dataOffset(sub_0)\n  0x00\n  codecopy\n  0x00\n  return\nstop\n\nsub_0: assembly {\n        /* \"certificateissuer.sol\":89:3467  contract CertificateIssuer is Ownable{... */\n      mstore(0x40, 0x80)\n      jumpi(tag_1, lt(calldatasize, 0x04))\n      shr(0xe0, calldataload(0x00))\n      dup1\n      0xb2bdfa7b\n      gt\n      tag_12\n      jumpi\n      dup1\n      0xb2bdfa7b\n      eq\n      tag_7\n      jumpi\n      dup1\n      0xe9351558\n      eq\n      tag_8\n      jumpi\n      dup1\n      0xe9e65331\n      eq\n      tag_9\n      jumpi\n      dup1\n      0xf9931855\n      eq\n      tag_10\n      jumpi\n      dup1\n      0xfe49048a\n      eq\n      tag_11\n      jumpi\n      jump(tag_2)\n    tag_12:\n      dup1\n      0x13af4035\n      eq\n      tag_3\n      jumpi\n      dup1\n      0x5bbe4ac3\n      eq\n      tag_4\n      jumpi\n      dup1\n      0x704b6c02\n      eq\n      tag_5\n      jumpi\n      dup1\n      0x8f32d59b\n      eq\n      tag_6\n      jumpi\n      jump(tag_2)\n    tag_1:\n      jumpi(tag_2, calldatasize)\n        /* \"certificateissuer.sol\":3357:3372  cauthToCanStake */\n      0x02\n        /* \"certificateissuer.sol\":3373:3386  adressToCauth */\n      0x05\n        /* \"certificateissuer.sol\":3373:3398  adressToCauth[msg.sender] */\n      0x00\n        /* \"certificateissuer.sol\":3387:3397  msg.sender */\n      caller\n        /* \"certificateissuer.sol\":3373:3398  adressToCauth[msg.sender] */\n      0xffffffffffffffffffffffffffffffffffffffff\n      and\n      0xffffffffffffffffffffffffffffffffffffffff\n      and\n      dup2\n      mstore\n      0x20\n      add\n      swap1\n      dup2\n      mstore\n      0x20\n      add\n      0x00\n      keccak256\n        /* \"certificateissuer.sol\":3357:3399  cauthToCanStake[adressToCauth[msg.sender]] */\n      mload(0x40)\n      tag_15\n      swap2\n      swap1\n      tag_16\n      jump\t// in\n    tag_15:\n      swap1\n      dup2\n      mstore\n      0x20\n      add\n      mload(0x40)\n      dup1\n      swap2\n      sub\n      swap1\n      keccak256\n      0x00\n      swap1\n      sload\n      swap1\n      0x0100\n      exp\n      swap1\n      div\n      0xff\n      and\n        /* \"certificateissuer.sol\":3349:3400  require(cauthToCanStake[adressToCauth[msg.sender]]) */\n      tag_17\n      jumpi\n      0x00\n      dup1\n      revert\n    tag_17:\n        /* \"certificateissuer.sol\":3440:3449  msg.value */\n      callvalue\n        /* \"certificateissuer.sol\":3413:3425  stakedAmount */\n      0x06\n        /* \"certificateissuer.sol\":3413:3437  stakedAmount[msg.sender] */\n      0x00\n        /* \"certificateissuer.sol\":3426:3436  msg.sender */\n      caller\n        /* \"certificateissuer.sol\":3413:3437  stakedAmount[msg.sender] */\n      0xffffffffffffffffffffffffffffffffffffffff\n      and\n      0xffffffffffffffffffffffffffffffffffffffff\n      and\n      dup2\n      mstore\n      0x20\n      add\n      swap1\n      dup2\n      mstore\n      0x20\n      add\n      0x00\n      keccak256\n        /* \"certificateissuer.sol\":3413:3449  stakedAmount[msg.sender] = msg.value */\n      dup2\n      swap1\n      sstore\n      stop\n        /* \"certificateissuer.sol\":89:3467  contract CertificateIssuer is Ownable{... */\n    tag_2:\n      0x00\n      dup1\n      revert\n        /* \"ownable.sol\":551:643  function setOwner(address _newOwner) public onlyOwner {... */\n    tag_3:\n      callvalue\n      dup1\n      iszero\n      tag_18\n      jumpi\n      0x00\n      dup1\n      revert\n    tag_18:\n      pop\n      tag_19\n      0x04\n      dup1\n      calldatasize\n      sub\n      dup2\n      add\n      swap1\n      tag_20\n      swap2\n      swap1\n      tag_21\n      jump\t// in\n    tag_20:\n      tag_22\n      jump\t// in\n    tag_19:\n      stop\n        /* \"certificateissuer.sol\":2690:3207  function issueCertificate(string memory _name , string memory _courseTittle, uint _duration , string memory institute,string memory cauth ) external payable  {... */\n    tag_4:\n      tag_23\n      0x04\n      dup1\n      calldatasize\n      sub\n      dup2\n      add\n      swap1\n      tag_24\n      swap2\n      swap1\n      tag_25\n      jump\t// in\n    tag_24:\n      tag_26\n      jump\t// in\n    tag_23:\n      stop\n        /* \"certificateissuer.sol\":302:406  function setAdmin(address _adminParameter) public onlyOwner{... */\n    tag_5:\n      callvalue\n      dup1\n      iszero\n      tag_27\n      jumpi\n      0x00\n      dup1\n      revert\n    tag_27:\n      pop\n      tag_28\n      0x04\n      dup1\n      calldatasize\n      sub\n      dup2\n      add\n      swap1\n      tag_29\n      swap2\n      swap1\n      tag_21\n      jump\t// in\n    tag_29:\n      tag_30\n      jump\t// in\n    tag_28:\n      stop\n        /* \"ownable.sol\":451:545  function isOwner() public view returns (bool) {... */\n    tag_6:\n      callvalue\n      dup1\n      iszero\n      tag_31\n      jumpi\n      0x00\n      dup1\n      revert\n    tag_31:\n      pop\n      tag_32\n      tag_33\n      jump\t// in\n    tag_32:\n      mload(0x40)\n      tag_34\n      swap2\n      swap1\n      tag_35\n      jump\t// in\n    tag_34:\n      mload(0x40)\n      dup1\n      swap2\n      sub\n      swap1\n      return\n        /* \"ownable.sol\":85:106  address public _owner */\n    tag_7:\n      callvalue\n      dup1\n      iszero\n      tag_36\n      jumpi\n      0x00\n      dup1\n      revert\n    tag_36:\n      pop\n      tag_37\n      tag_38\n      jump\t// in\n    tag_37:\n      mload(0x40)\n      tag_39\n      swap2\n      swap1\n      tag_40\n      jump\t// in\n    tag_39:\n      mload(0x40)\n      dup1\n      swap2\n      sub\n      swap1\n      return\n        /* \"certificateissuer.sol\":1928:2161  function updateCertificateRecipient(string memory cauth) public  {... */\n    tag_8:\n      callvalue\n      dup1\n      iszero\n      tag_41\n      jumpi\n      0x00\n      dup1\n      revert\n    tag_41:\n      pop\n      tag_42\n      0x04\n      dup1\n      calldatasize\n      sub\n      dup2\n      add\n      swap1\n      tag_43\n      swap2\n      swap1\n      tag_44\n      jump\t// in\n    tag_43:\n      tag_45\n      jump\t// in\n    tag_42:\n      stop\n        /* \"certificateissuer.sol\":3215:3299  function returnStakedEther(address _studentAddress) public payable{... */\n    tag_9:\n      tag_46\n      0x04\n      dup1\n      calldatasize\n      sub\n      dup2\n      add\n      swap1\n      tag_47\n      swap2\n      swap1\n      tag_21\n      jump\t// in\n    tag_47:\n      tag_48\n      jump\t// in\n    tag_46:\n      stop\n        /* \"certificateissuer.sol\":712:757  mapping(address =>  uint) public stakedAmount */\n    tag_10:\n      callvalue\n      dup1\n      iszero\n      tag_49\n      jumpi\n      0x00\n      dup1\n      revert\n    tag_49:\n      pop\n      tag_50\n      0x04\n      dup1\n      calldatasize\n      sub\n      dup2\n      add\n      swap1\n      tag_51\n      swap2\n      swap1\n      tag_21\n      jump\t// in\n    tag_51:\n      tag_52\n      jump\t// in\n    tag_50:\n      mload(0x40)\n      tag_53\n      swap2\n      swap1\n      tag_54\n      jump\t// in\n    tag_53:\n      mload(0x40)\n      dup1\n      swap2\n      sub\n      swap1\n      return\n        /* \"certificateissuer.sol\":2337:2682  function updateCertificateRecipientForStaking(string memory cauth,address _staker ) public   {... */\n    tag_11:\n      callvalue\n      dup1\n      iszero\n      tag_55\n      jumpi\n      0x00\n      dup1\n      revert\n    tag_55:\n      pop\n      tag_56\n      0x04\n      dup1\n      calldatasize\n      sub\n      dup2\n      add\n      swap1\n      tag_57\n      swap2\n      swap1\n      tag_58\n      jump\t// in\n    tag_57:\n      tag_59\n      jump\t// in\n    tag_56:\n      stop\n        /* \"ownable.sol\":551:643  function setOwner(address _newOwner) public onlyOwner {... */\n    tag_22:\n        /* \"ownable.sol\":299:308  isOwner() */\n      tag_61\n        /* \"ownable.sol\":299:306  isOwner */\n      tag_33\n        /* \"ownable.sol\":299:308  isOwner() */\n      jump\t// in\n    tag_61:\n        /* \"ownable.sol\":291:345  require(isOwner(), \"Ownable: caller is not the owner\") */\n      tag_62\n      jumpi\n      mload(0x40)\n      0x08c379a000000000000000000000000000000000000000000000000000000000\n      dup2\n      mstore\n      0x04\n      add\n      tag_63\n      swap1\n      tag_64\n      jump\t// in\n    tag_63:\n      mload(0x40)\n      dup1\n      swap2\n      sub\n      swap1\n      revert\n    tag_62:\n        /* \"ownable.sol\":625:634  _newOwner */\n      dup1\n        /* \"ownable.sol\":616:622  _owner */\n      0x00\n      dup1\n        /* \"ownable.sol\":616:634  _owner = _newOwner */\n      0x0100\n      exp\n      dup2\n      sload\n      dup2\n      0xffffffffffffffffffffffffffffffffffffffff\n      mul\n      not\n      and\n      swap1\n      dup4\n      0xffffffffffffffffffffffffffffffffffffffff\n      and\n      mul\n      or\n      swap1\n      sstore\n      pop\n        /* \"ownable.sol\":551:643  function setOwner(address _newOwner) public onlyOwner {... */\n      pop\n      jump\t// out\n        /* \"certificateissuer.sol\":2690:3207  function issueCertificate(string memory _name , string memory _courseTittle, uint _duration , string memory institute,string memory cauth ) external payable  {... */\n    tag_26:\n        /* \"certificateissuer.sol\":2921:2927  _admin */\n      0x04\n      0x00\n      swap1\n      sload\n      swap1\n      0x0100\n      exp\n      swap1\n      div\n      0xffffffffffffffffffffffffffffffffffffffff\n      and\n        /* \"certificateissuer.sol\":2907:2927  msg.sender == _admin */\n      0xffffffffffffffffffffffffffffffffffffffff\n      and\n        /* \"certificateissuer.sol\":2907:2917  msg.sender */\n      caller\n        /* \"certificateissuer.sol\":2907:2927  msg.sender == _admin */\n      0xffffffffffffffffffffffffffffffffffffffff\n      and\n      eq\n        /* \"certificateissuer.sol\":2899:2928  require(msg.sender == _admin) */\n      tag_67\n      jumpi\n      0x00\n      dup1\n      revert\n    tag_67:\n        /* \"certificateissuer.sol\":3009:3013  true */\n      0x01\n        /* \"certificateissuer.sol\":2988:3013  cauthValid[cauth] == true */\n      iszero\n      iszero\n        /* \"certificateissuer.sol\":2988:2998  cauthValid */\n      0x01\n        /* \"certificateissuer.sol\":2999:3004  cauth */\n      dup3\n        /* \"certificateissuer.sol\":2988:3005  cauthValid[cauth] */\n      mload(0x40)\n      tag_68\n      swap2\n      swap1\n      tag_69\n      jump\t// in\n    tag_68:\n      swap1\n      dup2\n      mstore\n      0x20\n      add\n      mload(0x40)\n      dup1\n      swap2\n      sub\n      swap1\n      keccak256\n      0x00\n      swap1\n      sload\n      swap1\n      0x0100\n      exp\n      swap1\n      pop\n      pop\n        /* \"certificateissuer.sol\":2988:3013  cauthValid[cauth] == true */\n      pop\n        /* \"certificateissuer.sol\":3057:3121  certificateIssued(_name,_courseTittle,_duration,institute,cauth) */\n      0xe10b63ae15af33dfb6fd11bdb907fba25fdd8cdbb63d7c46d530e30901d62107\n        /* \"certificateissuer.sol\":3075:3080  _name */\n      dup6\n        /* \"certificateissuer.sol\":3081:3094  _courseTittle */\n      dup6\n        /* \"certificateissuer.sol\":3095:3104  _duration */\n      dup6\n        /* \"certificateissuer.sol\":3105:3114  institute */\n      dup6\n        /* \"certificateissuer.sol\":3115:3120  cauth */\n      dup6\n        /* \"certificateissuer.sol\":3057:3121  certificateIssued(_name,_courseTittle,_duration,institute,cauth) */\n      mload(0x40)\n      tag_70\n      swap6\n      swap5\n      swap4\n      swap3\n      swap2\n      swap1\n      tag_71\n      jump\t// in\n    tag_70:\n      mload(0x40)\n      dup1\n      swap2\n      sub\n      swap1\n      log1\n        /* \"certificateissuer.sol\":3190:3195  false */\n      0x00\n        /* \"certificateissuer.sol\":3170:3180  cauthValid */\n      0x01\n        /* \"certificateissuer.sol\":3181:3186  cauth */\n      dup3\n        /* \"certificateissuer.sol\":3170:3187  cauthValid[cauth] */\n      mload(0x40)\n      tag_72\n      swap2\n      swap1\n      tag_69\n      jump\t// in\n    tag_72:\n      swap1\n      dup2\n      mstore\n      0x20\n      add\n      mload(0x40)\n      dup1\n      swap2\n      sub\n      swap1\n      keccak256\n      0x00\n        /* \"certificateissuer.sol\":3170:3195  cauthValid[cauth] = false */\n      0x0100\n      exp\n      dup2\n      sload\n      dup2\n      0xff\n      mul\n      not\n      and\n      swap1\n      dup4\n      iszero\n      iszero\n      mul\n      or\n      swap1\n      sstore\n      pop\n        /* \"certificateissuer.sol\":2690:3207  function issueCertificate(string memory _name , string memory _courseTittle, uint _duration , string memory institute,string memory cauth ) external payable  {... */\n      pop\n      pop\n      pop\n      pop\n      pop\n      jump\t// out\n        /* \"certificateissuer.sol\":302:406  function setAdmin(address _adminParameter) public onlyOwner{... */\n    tag_30:\n        /* \"ownable.sol\":299:308  isOwner() */\n      tag_74\n        /* \"ownable.sol\":299:306  isOwner */\n      tag_33\n        /* \"ownable.sol\":299:308  isOwner() */\n      jump\t// in\n    tag_74:\n        /* \"ownable.sol\":291:345  require(isOwner(), \"Ownable: caller is not the owner\") */\n      tag_75\n      jumpi\n      mload(0x40)\n      0x08c379a000000000000000000000000000000000000000000000000000000000\n      dup2\n      mstore\n      0x04\n      add\n      tag_76\n      swap1\n      tag_64\n      jump\t// in\n    tag_76:\n      mload(0x40)\n      dup1\n      swap2\n      sub\n      swap1\n      revert\n    tag_75:\n        /* \"certificateissuer.sol\":381:396  _adminParameter */\n      dup1\n        /* \"certificateissuer.sol\":372:378  _admin */\n      0x04\n      0x00\n        /* \"certificateissuer.sol\":372:396  _admin = _adminParameter */\n      0x0100\n      exp\n      dup2\n      sload\n      dup2\n      0xffffffffffffffffffffffffffffffffffffffff\n      mul\n      not\n      and\n      swap1\n      dup4\n      0xffffffffffffffffffffffffffffffffffffffff\n      and\n      mul\n      or\n      swap1\n      sstore\n      pop\n        /* \"certificateissuer.sol\":302:406  function setAdmin(address _adminParameter) public onlyOwner{... */\n      pop\n      jump\t// out\n        /* \"ownable.sol\":451:545  function isOwner() public view returns (bool) {... */\n    tag_33:\n        /* \"ownable.sol\":491:495  bool */\n      0x00\n        /* \"ownable.sol\":530:536  _owner */\n      dup1\n      0x00\n      swap1\n      sload\n      swap1\n      0x0100\n      exp\n      swap1\n      div\n      0xffffffffffffffffffffffffffffffffffffffff\n      and\n        /* \"ownable.sol\":516:536  msg.sender == _owner */\n      0xffffffffffffffffffffffffffffffffffffffff\n      and\n        /* \"ownable.sol\":516:526  msg.sender */\n      caller\n        /* \"ownable.sol\":516:536  msg.sender == _owner */\n      0xffffffffffffffffffffffffffffffffffffffff\n      and\n      eq\n        /* \"ownable.sol\":508:537  return (msg.sender == _owner) */\n      swap1\n      pop\n        /* \"ownable.sol\":451:545  function isOwner() public view returns (bool) {... */\n      swap1\n      jump\t// out\n        /* \"ownable.sol\":85:106  address public _owner */\n    tag_38:\n      0x00\n      dup1\n      sload\n      swap1\n      0x0100\n      exp\n      swap1\n      div\n      0xffffffffffffffffffffffffffffffffffffffff\n      and\n      dup2\n      jump\t// out\n        /* \"certificateissuer.sol\":1928:2161  function updateCertificateRecipient(string memory cauth) public  {... */\n    tag_45:\n        /* \"certificateissuer.sol\":2026:2032  _admin */\n      0x04\n      0x00\n      swap1\n      sload\n      swap1\n      0x0100\n      exp\n      swap1\n      div\n      0xffffffffffffffffffffffffffffffffffffffff\n      and\n        /* \"certificateissuer.sol\":2012:2032  msg.sender == _admin */\n      0xffffffffffffffffffffffffffffffffffffffff\n      and\n        /* \"certificateissuer.sol\":2012:2022  msg.sender */\n      caller\n        /* \"certificateissuer.sol\":2012:2032  msg.sender == _admin */\n      0xffffffffffffffffffffffffffffffffffffffff\n      and\n      eq\n        /* \"certificateissuer.sol\":2004:2033  require(msg.sender == _admin) */\n      tag_80\n      jumpi\n      0x00\n      dup1\n      revert\n    tag_80:\n        /* \"certificateissuer.sol\":2065:2069  true */\n      0x01\n        /* \"certificateissuer.sol\":2045:2055  cauthValid */\n      dup1\n        /* \"certificateissuer.sol\":2056:2061  cauth */\n      dup3\n        /* \"certificateissuer.sol\":2045:2062  cauthValid[cauth] */\n      mload(0x40)\n      tag_81\n      swap2\n      swap1\n      tag_69\n      jump\t// in\n    tag_81:\n      swap1\n      dup2\n      mstore\n      0x20\n      add\n      mload(0x40)\n      dup1\n      swap2\n      sub\n      swap1\n      keccak256\n      0x00\n        /* \"certificateissuer.sol\":2045:2069  cauthValid[cauth] = true */\n      0x0100\n      exp\n      dup2\n      sload\n      dup2\n      0xff\n      mul\n      not\n      and\n      swap1\n      dup4\n      iszero\n      iszero\n      mul\n      or\n      swap1\n      sstore\n      pop\n        /* \"certificateissuer.sol\":2091:2101  cauthValid */\n      0x01\n        /* \"certificateissuer.sol\":2102:2107  cauth */\n      dup2\n        /* \"certificateissuer.sol\":2091:2108  cauthValid[cauth] */\n      mload(0x40)\n      tag_82\n      swap2\n      swap1\n      tag_69\n      jump\t// in\n    tag_82:\n      swap1\n      dup2\n      mstore\n      0x20\n      add\n      mload(0x40)\n      dup1\n      swap2\n      sub\n      swap1\n      keccak256\n      0x00\n      swap1\n      sload\n      swap1\n      0x0100\n      exp\n      swap1\n      div\n      0xff\n      and\n        /* \"certificateissuer.sol\":2083:2109  require(cauthValid[cauth]) */\n      tag_83\n      jumpi\n      0x00\n      dup1\n      revert\n    tag_83:\n        /* \"certificateissuer.sol\":2147:2151  true */\n      0x01\n        /* \"certificateissuer.sol\":2122:2137  cauthToCanStake */\n      0x02\n        /* \"certificateissuer.sol\":2138:2143  cauth */\n      dup3\n        /* \"certificateissuer.sol\":2122:2144  cauthToCanStake[cauth] */\n      mload(0x40)\n      tag_84\n      swap2\n      swap1\n      tag_69\n      jump\t// in\n    tag_84:\n      swap1\n      dup2\n      mstore\n      0x20\n      add\n      mload(0x40)\n      dup1\n      swap2\n      sub\n      swap1\n      keccak256\n      0x00\n        /* \"certificateissuer.sol\":2122:2151  cauthToCanStake[cauth] = true */\n      0x0100\n      exp\n      dup2\n      sload\n      dup2\n      0xff\n      mul\n      not\n      and\n      swap1\n      dup4\n      iszero\n      iszero\n      mul\n      or\n      swap1\n      sstore\n      pop\n        /* \"certificateissuer.sol\":1928:2161  function updateCertificateRecipient(string memory cauth) public  {... */\n      pop\n      jump\t// out\n        /* \"certificateissuer.sol\":3215:3299  function returnStakedEther(address _studentAddress) public payable{... */\n    tag_48:\n      pop\n      jump\t// out\n        /* \"certificateissuer.sol\":712:757  mapping(address =>  uint) public stakedAmount */\n    tag_52:\n      mstore(0x20, 0x06)\n      dup1\n      0x00\n      mstore\n      keccak256(0x00, 0x40)\n      0x00\n      swap2\n      pop\n      swap1\n      pop\n      sload\n      dup2\n      jump\t// out\n        /* \"certificateissuer.sol\":2337:2682  function updateCertificateRecipientForStaking(string memory cauth,address _staker ) public   {... */\n    tag_59:\n        /* \"certificateissuer.sol\":2463:2469  _admin */\n      0x04\n      0x00\n      swap1\n      sload\n      swap1\n      0x0100\n      exp\n      swap1\n      div\n      0xffffffffffffffffffffffffffffffffffffffff\n      and\n        /* \"certificateissuer.sol\":2449:2469  msg.sender == _admin */\n      0xffffffffffffffffffffffffffffffffffffffff\n      and\n        /* \"certificateissuer.sol\":2449:2459  msg.sender */\n      caller\n        /* \"certificateissuer.sol\":2449:2469  msg.sender == _admin */\n      0xffffffffffffffffffffffffffffffffffffffff\n      and\n      eq\n        /* \"certificateissuer.sol\":2441:2470  require(msg.sender == _admin) */\n      tag_87\n      jumpi\n      0x00\n      dup1\n      revert\n    tag_87:\n        /* \"certificateissuer.sol\":2502:2506  true */\n      0x01\n        /* \"certificateissuer.sol\":2482:2492  cauthValid */\n      dup1\n        /* \"certificateissuer.sol\":2493:2498  cauth */\n      dup4\n        /* \"certificateissuer.sol\":2482:2499  cauthValid[cauth] */\n      mload(0x40)\n      tag_88\n      swap2\n      swap1\n      tag_69\n      jump\t// in\n    tag_88:\n      swap1\n      dup2\n      mstore\n      0x20\n      add\n      mload(0x40)\n      dup1\n      swap2\n      sub\n      swap1\n      keccak256\n      0x00\n        /* \"certificateissuer.sol\":2482:2506  cauthValid[cauth] = true */\n      0x0100\n      exp\n      dup2\n      sload\n      dup2\n      0xff\n      mul\n      not\n      and\n      swap1\n      dup4\n      iszero\n      iszero\n      mul\n      or\n      swap1\n      sstore\n      pop\n        /* \"certificateissuer.sol\":2528:2538  cauthValid */\n      0x01\n        /* \"certificateissuer.sol\":2539:2544  cauth */\n      dup3\n        /* \"certificateissuer.sol\":2528:2545  cauthValid[cauth] */\n      mload(0x40)\n      tag_89\n      swap2\n      swap1\n      tag_69\n      jump\t// in\n    tag_89:\n      swap1\n      dup2\n      mstore\n      0x20\n      add\n      mload(0x40)\n      dup1\n      swap2\n      sub\n      swap1\n      keccak256\n      0x00\n      swap1\n      sload\n      swap1\n      0x0100\n      exp\n      swap1\n      div\n      0xff\n      and\n        /* \"certificateissuer.sol\":2520:2546  require(cauthValid[cauth]) */\n      tag_90\n      jumpi\n      0x00\n      dup1\n      revert\n    tag_90:\n        /* \"certificateissuer.sol\":2584:2588  true */\n      0x01\n        /* \"certificateissuer.sol\":2559:2574  cauthToCanStake */\n      0x02\n        /* \"certificateissuer.sol\":2575:2580  cauth */\n      dup4\n        /* \"certificateissuer.sol\":2559:2581  cauthToCanStake[cauth] */\n      mload(0x40)\n      tag_91\n      swap2\n      swap1\n      tag_69\n      jump\t// in\n    tag_91:\n      swap1\n      dup2\n      mstore\n      0x20\n      add\n      mload(0x40)\n      dup1\n      swap2\n      sub\n      swap1\n      keccak256\n      0x00\n        /* \"certificateissuer.sol\":2559:2588  cauthToCanStake[cauth] = true */\n      0x0100\n      exp\n      dup2\n      sload\n      dup2\n      0xff\n      mul\n      not\n      and\n      swap1\n      dup4\n      iszero\n      iszero\n      mul\n      or\n      swap1\n      sstore\n      pop\n        /* \"certificateissuer.sol\":2626:2631  cauth */\n      dup2\n        /* \"certificateissuer.sol\":2601:2614  adressToCauth */\n      0x05\n        /* \"certificateissuer.sol\":2601:2623  adressToCauth[_staker] */\n      0x00\n        /* \"certificateissuer.sol\":2615:2622  _staker */\n      dup4\n        /* \"certificateissuer.sol\":2601:2623  adressToCauth[_staker] */\n      0xffffffffffffffffffffffffffffffffffffffff\n      and\n      0xffffffffffffffffffffffffffffffffffffffff\n      and\n      dup2\n      mstore\n      0x20\n      add\n      swap1\n      dup2\n      mstore\n      0x20\n      add\n      0x00\n      keccak256\n        /* \"certificateissuer.sol\":2601:2631  adressToCauth[_staker] = cauth */\n      swap1\n      dup2\n      tag_92\n      swap2\n      swap1\n      tag_93\n      jump\t// in\n    tag_92:\n      pop\n        /* \"certificateissuer.sol\":2666:2673  _staker */\n      dup1\n        /* \"certificateissuer.sol\":2643:2657  cauthToAddress */\n      0x03\n        /* \"certificateissuer.sol\":2658:2663  cauth */\n      dup4\n        /* \"certificateissuer.sol\":2643:2664  cauthToAddress[cauth] */\n      mload(0x40)\n      tag_94\n      swap2\n      swap1\n      tag_69\n      jump\t// in\n    tag_94:\n      swap1\n      dup2\n      mstore\n      0x20\n      add\n      mload(0x40)\n      dup1\n      swap2\n      sub\n      swap1\n      keccak256\n      0x00\n        /* \"certificateissuer.sol\":2643:2673  cauthToAddress[cauth] =_staker */\n      0x0100\n      exp\n      dup2\n      sload\n      dup2\n      0xffffffffffffffffffffffffffffffffffffffff\n      mul\n      not\n      and\n      swap1\n      dup4\n      0xffffffffffffffffffffffffffffffffffffffff\n      and\n      mul\n      or\n      swap1\n      sstore\n      pop\n        /* \"certificateissuer.sol\":2337:2682  function updateCertificateRecipientForStaking(string memory cauth,address _staker ) public   {... */\n      pop\n      pop\n      jump\t// out\n        /* \"#utility.yul\":7:187   */\n    tag_95:\n        /* \"#utility.yul\":55:132   */\n      0x4e487b7100000000000000000000000000000000000000000000000000000000\n        /* \"#utility.yul\":52:53   */\n      0x00\n        /* \"#utility.yul\":45:133   */\n      mstore\n        /* \"#utility.yul\":152:156   */\n      0x22\n        /* \"#utility.yul\":149:150   */\n      0x04\n        /* \"#utility.yul\":142:157   */\n      mstore\n        /* \"#utility.yul\":176:180   */\n      0x24\n        /* \"#utility.yul\":173:174   */\n      0x00\n        /* \"#utility.yul\":166:181   */\n      revert\n        /* \"#utility.yul\":193:513   */\n    tag_96:\n        /* \"#utility.yul\":237:243   */\n      0x00\n        /* \"#utility.yul\":274:275   */\n      0x02\n        /* \"#utility.yul\":268:272   */\n      dup3\n        /* \"#utility.yul\":264:276   */\n      div\n        /* \"#utility.yul\":254:276   */\n      swap1\n      pop\n        /* \"#utility.yul\":321:322   */\n      0x01\n        /* \"#utility.yul\":315:319   */\n      dup3\n        /* \"#utility.yul\":311:323   */\n      and\n        /* \"#utility.yul\":342:360   */\n      dup1\n        /* \"#utility.yul\":332:413   */\n      tag_148\n      jumpi\n        /* \"#utility.yul\":398:402   */\n      0x7f\n        /* \"#utility.yul\":390:396   */\n      dup3\n        /* \"#utility.yul\":386:403   */\n      and\n        /* \"#utility.yul\":376:403   */\n      swap2\n      pop\n        /* \"#utility.yul\":332:413   */\n    tag_148:\n        /* \"#utility.yul\":460:462   */\n      0x20\n        /* \"#utility.yul\":452:458   */\n      dup3\n        /* \"#utility.yul\":449:463   */\n      lt\n        /* \"#utility.yul\":429:447   */\n      dup2\n        /* \"#utility.yul\":426:464   */\n      sub\n        /* \"#utility.yul\":423:507   */\n      tag_149\n      jumpi\n        /* \"#utility.yul\":479:497   */\n      tag_150\n      tag_95\n      jump\t// in\n    tag_150:\n        /* \"#utility.yul\":423:507   */\n    tag_149:\n        /* \"#utility.yul\":244:513   */\n      pop\n        /* \"#utility.yul\":193:513   */\n      swap2\n      swap1\n      pop\n      jump\t// out\n        /* \"#utility.yul\":519:667   */\n    tag_97:\n        /* \"#utility.yul\":621:632   */\n      0x00\n        /* \"#utility.yul\":658:661   */\n      dup2\n        /* \"#utility.yul\":643:661   */\n      swap1\n      pop\n        /* \"#utility.yul\":519:667   */\n      swap3\n      swap2\n      pop\n      pop\n      jump\t// out\n        /* \"#utility.yul\":673:814   */\n    tag_98:\n        /* \"#utility.yul\":722:726   */\n      0x00\n        /* \"#utility.yul\":745:748   */\n      dup2\n        /* \"#utility.yul\":737:748   */\n      swap1\n      pop\n        /* \"#utility.yul\":768:771   */\n      dup2\n        /* \"#utility.yul\":765:766   */\n      0x00\n        /* \"#utility.yul\":758:772   */\n      mstore\n        /* \"#utility.yul\":802:806   */\n      0x20\n        /* \"#utility.yul\":799:800   */\n      0x00\n        /* \"#utility.yul\":789:807   */\n      keccak256\n        /* \"#utility.yul\":781:807   */\n      swap1\n      pop\n        /* \"#utility.yul\":673:814   */\n      swap2\n      swap1\n      pop\n      jump\t// out\n        /* \"#utility.yul\":844:1718   */\n    tag_99:\n        /* \"#utility.yul\":947:950   */\n      0x00\n        /* \"#utility.yul\":984:989   */\n      dup2\n        /* \"#utility.yul\":978:990   */\n      sload\n        /* \"#utility.yul\":1013:1049   */\n      tag_154\n        /* \"#utility.yul\":1039:1048   */\n      dup2\n        /* \"#utility.yul\":1013:1049   */\n      tag_96\n      jump\t// in\n    tag_154:\n        /* \"#utility.yul\":1065:1154   */\n      tag_155\n        /* \"#utility.yul\":1147:1153   */\n      dup2\n        /* \"#utility.yul\":1142:1145   */\n      dup7\n        /* \"#utility.yul\":1065:1154   */\n      tag_97\n      jump\t// in\n    tag_155:\n        /* \"#utility.yul\":1058:1154   */\n      swap5\n      pop\n        /* \"#utility.yul\":1185:1186   */\n      0x01\n        /* \"#utility.yul\":1174:1183   */\n      dup3\n        /* \"#utility.yul\":1170:1187   */\n      and\n        /* \"#utility.yul\":1201:1202   */\n      0x00\n        /* \"#utility.yul\":1196:1362   */\n      dup2\n      eq\n      tag_157\n      jumpi\n        /* \"#utility.yul\":1376:1377   */\n      0x01\n        /* \"#utility.yul\":1371:1712   */\n      dup2\n      eq\n      tag_158\n      jumpi\n        /* \"#utility.yul\":1163:1712   */\n      jump(tag_156)\n        /* \"#utility.yul\":1196:1362   */\n    tag_157:\n        /* \"#utility.yul\":1280:1284   */\n      0xff\n        /* \"#utility.yul\":1276:1285   */\n      not\n        /* \"#utility.yul\":1265:1274   */\n      dup4\n        /* \"#utility.yul\":1261:1286   */\n      and\n        /* \"#utility.yul\":1256:1259   */\n      dup7\n        /* \"#utility.yul\":1249:1287   */\n      mstore\n        /* \"#utility.yul\":1342:1348   */\n      dup2\n        /* \"#utility.yul\":1335:1349   */\n      iszero\n        /* \"#utility.yul\":1328:1350   */\n      iszero\n        /* \"#utility.yul\":1320:1326   */\n      dup3\n        /* \"#utility.yul\":1316:1351   */\n      mul\n        /* \"#utility.yul\":1311:1314   */\n      dup7\n        /* \"#utility.yul\":1307:1352   */\n      add\n        /* \"#utility.yul\":1300:1352   */\n      swap4\n      pop\n        /* \"#utility.yul\":1196:1362   */\n      jump(tag_156)\n        /* \"#utility.yul\":1371:1712   */\n    tag_158:\n        /* \"#utility.yul\":1438:1476   */\n      tag_159\n        /* \"#utility.yul\":1470:1475   */\n      dup6\n        /* \"#utility.yul\":1438:1476   */\n      tag_98\n      jump\t// in\n    tag_159:\n        /* \"#utility.yul\":1498:1499   */\n      0x00\n        /* \"#utility.yul\":1512:1666   */\n    tag_160:\n        /* \"#utility.yul\":1526:1532   */\n      dup4\n        /* \"#utility.yul\":1523:1524   */\n      dup2\n        /* \"#utility.yul\":1520:1533   */\n      lt\n        /* \"#utility.yul\":1512:1666   */\n      iszero\n      tag_162\n      jumpi\n        /* \"#utility.yul\":1600:1607   */\n      dup2\n        /* \"#utility.yul\":1594:1608   */\n      sload\n        /* \"#utility.yul\":1590:1591   */\n      dup2\n        /* \"#utility.yul\":1585:1588   */\n      dup10\n        /* \"#utility.yul\":1581:1592   */\n      add\n        /* \"#utility.yul\":1574:1609   */\n      mstore\n        /* \"#utility.yul\":1650:1651   */\n      0x01\n        /* \"#utility.yul\":1641:1648   */\n      dup3\n        /* \"#utility.yul\":1637:1652   */\n      add\n        /* \"#utility.yul\":1626:1652   */\n      swap2\n      pop\n        /* \"#utility.yul\":1548:1552   */\n      0x20\n        /* \"#utility.yul\":1545:1546   */\n      dup2\n        /* \"#utility.yul\":1541:1553   */\n      add\n        /* \"#utility.yul\":1536:1553   */\n      swap1\n      pop\n        /* \"#utility.yul\":1512:1666   */\n      jump(tag_160)\n    tag_162:\n        /* \"#utility.yul\":1695:1701   */\n      dup4\n        /* \"#utility.yul\":1690:1693   */\n      dup9\n        /* \"#utility.yul\":1686:1702   */\n      add\n        /* \"#utility.yul\":1679:1702   */\n      swap6\n      pop\n        /* \"#utility.yul\":1378:1712   */\n      pop\n      pop\n        /* \"#utility.yul\":1163:1712   */\n    tag_156:\n      pop\n        /* \"#utility.yul\":951:1718   */\n      pop\n      pop\n        /* \"#utility.yul\":844:1718   */\n      swap3\n      swap2\n      pop\n      pop\n      jump\t// out\n        /* \"#utility.yul\":1724:1993   */\n    tag_16:\n        /* \"#utility.yul\":1853:1856   */\n      0x00\n        /* \"#utility.yul\":1875:1967   */\n      tag_164\n        /* \"#utility.yul\":1963:1966   */\n      dup3\n        /* \"#utility.yul\":1954:1960   */\n      dup5\n        /* \"#utility.yul\":1875:1967   */\n      tag_99\n      jump\t// in\n    tag_164:\n        /* \"#utility.yul\":1868:1967   */\n      swap2\n      pop\n        /* \"#utility.yul\":1984:1987   */\n      dup2\n        /* \"#utility.yul\":1977:1987   */\n      swap1\n      pop\n        /* \"#utility.yul\":1724:1993   */\n      swap3\n      swap2\n      pop\n      pop\n      jump\t// out\n        /* \"#utility.yul\":1999:2074   */\n    tag_100:\n        /* \"#utility.yul\":2032:2038   */\n      0x00\n        /* \"#utility.yul\":2065:2067   */\n      0x40\n        /* \"#utility.yul\":2059:2068   */\n      mload\n        /* \"#utility.yul\":2049:2068   */\n      swap1\n      pop\n        /* \"#utility.yul\":1999:2074   */\n      swap1\n      jump\t// out\n        /* \"#utility.yul\":2080:2197   */\n    tag_101:\n        /* \"#utility.yul\":2189:2190   */\n      0x00\n        /* \"#utility.yul\":2186:2187   */\n      dup1\n        /* \"#utility.yul\":2179:2191   */\n      revert\n        /* \"#utility.yul\":2203:2320   */\n    tag_102:\n        /* \"#utility.yul\":2312:2313   */\n      0x00\n        /* \"#utility.yul\":2309:2310   */\n      dup1\n        /* \"#utility.yul\":2302:2314   */\n      revert\n        /* \"#utility.yul\":2326:2452   */\n    tag_103:\n        /* \"#utility.yul\":2363:2370   */\n      0x00\n        /* \"#utility.yul\":2403:2445   */\n      0xffffffffffffffffffffffffffffffffffffffff\n        /* \"#utility.yul\":2396:2401   */\n      dup3\n        /* \"#utility.yul\":2392:2446   */\n      and\n        /* \"#utility.yul\":2381:2446   */\n      swap1\n      pop\n        /* \"#utility.yul\":2326:2452   */\n      swap2\n      swap1\n      pop\n      jump\t// out\n        /* \"#utility.yul\":2458:2554   */\n    tag_104:\n        /* \"#utility.yul\":2495:2502   */\n      0x00\n        /* \"#utility.yul\":2524:2548   */\n      tag_170\n        /* \"#utility.yul\":2542:2547   */\n      dup3\n        /* \"#utility.yul\":2524:2548   */\n      tag_103\n      jump\t// in\n    tag_170:\n        /* \"#utility.yul\":2513:2548   */\n      swap1\n      pop\n        /* \"#utility.yul\":2458:2554   */\n      swap2\n      swap1\n      pop\n      jump\t// out\n        /* \"#utility.yul\":2560:2682   */\n    tag_105:\n        /* \"#utility.yul\":2633:2657   */\n      tag_172\n        /* \"#utility.yul\":2651:2656   */\n      dup2\n        /* \"#utility.yul\":2633:2657   */\n      tag_104\n      jump\t// in\n    tag_172:\n        /* \"#utility.yul\":2626:2631   */\n      dup2\n        /* \"#utility.yul\":2623:2658   */\n      eq\n        /* \"#utility.yul\":2613:2676   */\n      tag_173\n      jumpi\n        /* \"#utility.yul\":2672:2673   */\n      0x00\n        /* \"#utility.yul\":2669:2670   */\n      dup1\n        /* \"#utility.yul\":2662:2674   */\n      revert\n        /* \"#utility.yul\":2613:2676   */\n    tag_173:\n        /* \"#utility.yul\":2560:2682   */\n      pop\n      jump\t// out\n        /* \"#utility.yul\":2688:2827   */\n    tag_106:\n        /* \"#utility.yul\":2734:2739   */\n      0x00\n        /* \"#utility.yul\":2772:2778   */\n      dup2\n        /* \"#utility.yul\":2759:2779   */\n      calldataload\n        /* \"#utility.yul\":2750:2779   */\n      swap1\n      pop\n        /* \"#utility.yul\":2788:2821   */\n      tag_175\n        /* \"#utility.yul\":2815:2820   */\n      dup2\n        /* \"#utility.yul\":2788:2821   */\n      tag_105\n      jump\t// in\n    tag_175:\n        /* \"#utility.yul\":2688:2827   */\n      swap3\n      swap2\n      pop\n      pop\n      jump\t// out\n        /* \"#utility.yul\":2833:3162   */\n    tag_21:\n        /* \"#utility.yul\":2892:2898   */\n      0x00\n        /* \"#utility.yul\":2941:2943   */\n      0x20\n        /* \"#utility.yul\":2929:2938   */\n      dup3\n        /* \"#utility.yul\":2920:2927   */\n      dup5\n        /* \"#utility.yul\":2916:2939   */\n      sub\n        /* \"#utility.yul\":2912:2944   */\n      slt\n        /* \"#utility.yul\":2909:3028   */\n      iszero\n      tag_177\n      jumpi\n        /* \"#utility.yul\":2947:3026   */\n      tag_178\n      tag_101\n      jump\t// in\n    tag_178:\n        /* \"#utility.yul\":2909:3028   */\n    tag_177:\n        /* \"#utility.yul\":3067:3068   */\n      0x00\n        /* \"#utility.yul\":3092:3145   */\n      tag_179\n        /* \"#utility.yul\":3137:3144   */\n      dup5\n        /* \"#utility.yul\":3128:3134   */\n      dup3\n        /* \"#utility.yul\":3117:3126   */\n      dup6\n        /* \"#utility.yul\":3113:3135   */\n      add\n        /* \"#utility.yul\":3092:3145   */\n      tag_106\n      jump\t// in\n    tag_179:\n        /* \"#utility.yul\":3082:3145   */\n      swap2\n      pop\n        /* \"#utility.yul\":3038:3155   */\n      pop\n        /* \"#utility.yul\":2833:3162   */\n      swap3\n      swap2\n      pop\n      pop\n      jump\t// out\n        /* \"#utility.yul\":3168:3285   */\n    tag_107:\n        /* \"#utility.yul\":3277:3278   */\n      0x00\n        /* \"#utility.yul\":3274:3275   */\n      dup1\n        /* \"#utility.yul\":3267:3279   */\n      revert\n        /* \"#utility.yul\":3291:3408   */\n    tag_108:\n        /* \"#utility.yul\":3400:3401   */\n      0x00\n        /* \"#utility.yul\":3397:3398   */\n      dup1\n        /* \"#utility.yul\":3390:3402   */\n      revert\n        /* \"#utility.yul\":3414:3516   */\n    tag_109:\n        /* \"#utility.yul\":3455:3461   */\n      0x00\n        /* \"#utility.yul\":3506:3508   */\n      0x1f\n        /* \"#utility.yul\":3502:3509   */\n      not\n        /* \"#utility.yul\":3497:3499   */\n      0x1f\n        /* \"#utility.yul\":3490:3495   */\n      dup4\n        /* \"#utility.yul\":3486:3500   */\n      add\n        /* \"#utility.yul\":3482:3510   */\n      and\n        /* \"#utility.yul\":3472:3510   */\n      swap1\n      pop\n        /* \"#utility.yul\":3414:3516   */\n      swap2\n      swap1\n      pop\n      jump\t// out\n        /* \"#utility.yul\":3522:3702   */\n    tag_110:\n        /* \"#utility.yul\":3570:3647   */\n      0x4e487b7100000000000000000000000000000000000000000000000000000000\n        /* \"#utility.yul\":3567:3568   */\n      0x00\n        /* \"#utility.yul\":3560:3648   */\n      mstore\n        /* \"#utility.yul\":3667:3671   */\n      0x41\n        /* \"#utility.yul\":3664:3665   */\n      0x04\n        /* \"#utility.yul\":3657:3672   */\n      mstore\n        /* \"#utility.yul\":3691:3695   */\n      0x24\n        /* \"#utility.yul\":3688:3689   */\n      0x00\n        /* \"#utility.yul\":3681:3696   */\n      revert\n        /* \"#utility.yul\":3708:3989   */\n    tag_111:\n        /* \"#utility.yul\":3791:3818   */\n      tag_185\n        /* \"#utility.yul\":3813:3817   */\n      dup3\n        /* \"#utility.yul\":3791:3818   */\n      tag_109\n      jump\t// in\n    tag_185:\n        /* \"#utility.yul\":3783:3789   */\n      dup2\n        /* \"#utility.yul\":3779:3819   */\n      add\n        /* \"#utility.yul\":3921:3927   */\n      dup2\n        /* \"#utility.yul\":3909:3919   */\n      dup2\n        /* \"#utility.yul\":3906:3928   */\n      lt\n        /* \"#utility.yul\":3885:3903   */\n      0xffffffffffffffff\n        /* \"#utility.yul\":3873:3883   */\n      dup3\n        /* \"#utility.yul\":3870:3904   */\n      gt\n        /* \"#utility.yul\":3867:3929   */\n      or\n        /* \"#utility.yul\":3864:3952   */\n      iszero\n      tag_186\n      jumpi\n        /* \"#utility.yul\":3932:3950   */\n      tag_187\n      tag_110\n      jump\t// in\n    tag_187:\n        /* \"#utility.yul\":3864:3952   */\n    tag_186:\n        /* \"#utility.yul\":3972:3982   */\n      dup1\n        /* \"#utility.yul\":3968:3970   */\n      0x40\n        /* \"#utility.yul\":3961:3983   */\n      mstore\n        /* \"#utility.yul\":3751:3989   */\n      pop\n        /* \"#utility.yul\":3708:3989   */\n      pop\n      pop\n      jump\t// out\n        /* \"#utility.yul\":3995:4124   */\n    tag_112:\n        /* \"#utility.yul\":4029:4035   */\n      0x00\n        /* \"#utility.yul\":4056:4076   */\n      tag_189\n      tag_100\n      jump\t// in\n    tag_189:\n        /* \"#utility.yul\":4046:4076   */\n      swap1\n      pop\n        /* \"#utility.yul\":4085:4118   */\n      tag_190\n        /* \"#utility.yul\":4113:4117   */\n      dup3\n        /* \"#utility.yul\":4105:4111   */\n      dup3\n        /* \"#utility.yul\":4085:4118   */\n      tag_111\n      jump\t// in\n    tag_190:\n        /* \"#utility.yul\":3995:4124   */\n      swap2\n      swap1\n      pop\n      jump\t// out\n        /* \"#utility.yul\":4130:4438   */\n    tag_113:\n        /* \"#utility.yul\":4192:4196   */\n      0x00\n        /* \"#utility.yul\":4282:4300   */\n      0xffffffffffffffff\n        /* \"#utility.yul\":4274:4280   */\n      dup3\n        /* \"#utility.yul\":4271:4301   */\n      gt\n        /* \"#utility.yul\":4268:4324   */\n      iszero\n      tag_192\n      jumpi\n        /* \"#utility.yul\":4304:4322   */\n      tag_193\n      tag_110\n      jump\t// in\n    tag_193:\n        /* \"#utility.yul\":4268:4324   */\n    tag_192:\n        /* \"#utility.yul\":4342:4371   */\n      tag_194\n        /* \"#utility.yul\":4364:4370   */\n      dup3\n        /* \"#utility.yul\":4342:4371   */\n      tag_109\n      jump\t// in\n    tag_194:\n        /* \"#utility.yul\":4334:4371   */\n      swap1\n      pop\n        /* \"#utility.yul\":4426:4430   */\n      0x20\n        /* \"#utility.yul\":4420:4424   */\n      dup2\n        /* \"#utility.yul\":4416:4431   */\n      add\n        /* \"#utility.yul\":4408:4431   */\n      swap1\n      pop\n        /* \"#utility.yul\":4130:4438   */\n      swap2\n      swap1\n      pop\n      jump\t// out\n        /* \"#utility.yul\":4444:4598   */\n    tag_114:\n        /* \"#utility.yul\":4528:4534   */\n      dup3\n        /* \"#utility.yul\":4523:4526   */\n      dup2\n        /* \"#utility.yul\":4518:4521   */\n      dup4\n        /* \"#utility.yul\":4505:4535   */\n      calldatacopy\n        /* \"#utility.yul\":4590:4591   */\n      0x00\n        /* \"#utility.yul\":4581:4587   */\n      dup4\n        /* \"#utility.yul\":4576:4579   */\n      dup4\n        /* \"#utility.yul\":4572:4588   */\n      add\n        /* \"#utility.yul\":4565:4592   */\n      mstore\n        /* \"#utility.yul\":4444:4598   */\n      pop\n      pop\n      pop\n      jump\t// out\n        /* \"#utility.yul\":4604:5016   */\n    tag_115:\n        /* \"#utility.yul\":4682:4687   */\n      0x00\n        /* \"#utility.yul\":4707:4773   */\n      tag_197\n        /* \"#utility.yul\":4723:4772   */\n      tag_198\n        /* \"#utility.yul\":4765:4771   */\n      dup5\n        /* \"#utility.yul\":4723:4772   */\n      tag_113\n      jump\t// in\n    tag_198:\n        /* \"#utility.yul\":4707:4773   */\n      tag_112\n      jump\t// in\n    tag_197:\n        /* \"#utility.yul\":4698:4773   */\n      swap1\n      pop\n        /* \"#utility.yul\":4796:4802   */\n      dup3\n        /* \"#utility.yul\":4789:4794   */\n      dup2\n        /* \"#utility.yul\":4782:4803   */\n      mstore\n        /* \"#utility.yul\":4834:4838   */\n      0x20\n        /* \"#utility.yul\":4827:4832   */\n      dup2\n        /* \"#utility.yul\":4823:4839   */\n      add\n        /* \"#utility.yul\":4872:4875   */\n      dup5\n        /* \"#utility.yul\":4863:4869   */\n      dup5\n        /* \"#utility.yul\":4858:4861   */\n      dup5\n        /* \"#utility.yul\":4854:4870   */\n      add\n        /* \"#utility.yul\":4851:4876   */\n      gt\n        /* \"#utility.yul\":4848:4960   */\n      iszero\n      tag_199\n      jumpi\n        /* \"#utility.yul\":4879:4958   */\n      tag_200\n      tag_108\n      jump\t// in\n    tag_200:\n        /* \"#utility.yul\":4848:4960   */\n    tag_199:\n        /* \"#utility.yul\":4969:5010   */\n      tag_201\n        /* \"#utility.yul\":5003:5009   */\n      dup5\n        /* \"#utility.yul\":4998:5001   */\n      dup3\n        /* \"#utility.yul\":4993:4996   */\n      dup6\n        /* \"#utility.yul\":4969:5010   */\n      tag_114\n      jump\t// in\n    tag_201:\n        /* \"#utility.yul\":4688:5016   */\n      pop\n        /* \"#utility.yul\":4604:5016   */\n      swap4\n      swap3\n      pop\n      pop\n      pop\n      jump\t// out\n        /* \"#utility.yul\":5036:5376   */\n    tag_116:\n        /* \"#utility.yul\":5092:5097   */\n      0x00\n        /* \"#utility.yul\":5141:5144   */\n      dup3\n        /* \"#utility.yul\":5134:5138   */\n      0x1f\n        /* \"#utility.yul\":5126:5132   */\n      dup4\n        /* \"#utility.yul\":5122:5139   */\n      add\n        /* \"#utility.yul\":5118:5145   */\n      slt\n        /* \"#utility.yul\":5108:5230   */\n      tag_203\n      jumpi\n        /* \"#utility.yul\":5149:5228   */\n      tag_204\n      tag_107\n      jump\t// in\n    tag_204:\n        /* \"#utility.yul\":5108:5230   */\n    tag_203:\n        /* \"#utility.yul\":5266:5272   */\n      dup2\n        /* \"#utility.yul\":5253:5273   */\n      calldataload\n        /* \"#utility.yul\":5291:5370   */\n      tag_205\n        /* \"#utility.yul\":5366:5369   */\n      dup5\n        /* \"#utility.yul\":5358:5364   */\n      dup3\n        /* \"#utility.yul\":5351:5355   */\n      0x20\n        /* \"#utility.yul\":5343:5349   */\n      dup7\n        /* \"#utility.yul\":5339:5356   */\n      add\n        /* \"#utility.yul\":5291:5370   */\n      tag_115\n      jump\t// in\n    tag_205:\n        /* \"#utility.yul\":5282:5370   */\n      swap2\n      pop\n        /* \"#utility.yul\":5098:5376   */\n      pop\n        /* \"#utility.yul\":5036:5376   */\n      swap3\n      swap2\n      pop\n      pop\n      jump\t// out\n        /* \"#utility.yul\":5382:5459   */\n    tag_117:\n        /* \"#utility.yul\":5419:5426   */\n      0x00\n        /* \"#utility.yul\":5448:5453   */\n      dup2\n        /* \"#utility.yul\":5437:5453   */\n      swap1\n      pop\n        /* \"#utility.yul\":5382:5459   */\n      swap2\n      swap1\n      pop\n      jump\t// out\n        /* \"#utility.yul\":5465:5587   */\n    tag_118:\n        /* \"#utility.yul\":5538:5562   */\n      tag_208\n        /* \"#utility.yul\":5556:5561   */\n      dup2\n        /* \"#utility.yul\":5538:5562   */\n      tag_117\n      jump\t// in\n    tag_208:\n        /* \"#utility.yul\":5531:5536   */\n      dup2\n        /* \"#utility.yul\":5528:5563   */\n      eq\n        /* \"#utility.yul\":5518:5581   */\n      tag_209\n      jumpi\n        /* \"#utility.yul\":5577:5578   */\n      0x00\n        /* \"#utility.yul\":5574:5575   */\n      dup1\n        /* \"#utility.yul\":5567:5579   */\n      revert\n        /* \"#utility.yul\":5518:5581   */\n    tag_209:\n        /* \"#utility.yul\":5465:5587   */\n      pop\n      jump\t// out\n        /* \"#utility.yul\":5593:5732   */\n    tag_119:\n        /* \"#utility.yul\":5639:5644   */\n      0x00\n        /* \"#utility.yul\":5677:5683   */\n      dup2\n        /* \"#utility.yul\":5664:5684   */\n      calldataload\n        /* \"#utility.yul\":5655:5684   */\n      swap1\n      pop\n        /* \"#utility.yul\":5693:5726   */\n      tag_211\n        /* \"#utility.yul\":5720:5725   */\n      dup2\n        /* \"#utility.yul\":5693:5726   */\n      tag_118\n      jump\t// in\n    tag_211:\n        /* \"#utility.yul\":5593:5732   */\n      swap3\n      swap2\n      pop\n      pop\n      jump\t// out\n        /* \"#utility.yul\":5738:7369   */\n    tag_25:\n        /* \"#utility.yul\":5873:5879   */\n      0x00\n        /* \"#utility.yul\":5881:5887   */\n      dup1\n        /* \"#utility.yul\":5889:5895   */\n      0x00\n        /* \"#utility.yul\":5897:5903   */\n      dup1\n        /* \"#utility.yul\":5905:5911   */\n      0x00\n        /* \"#utility.yul\":5954:5957   */\n      0xa0\n        /* \"#utility.yul\":5942:5951   */\n      dup7\n        /* \"#utility.yul\":5933:5940   */\n      dup9\n        /* \"#utility.yul\":5929:5952   */\n      sub\n        /* \"#utility.yul\":5925:5958   */\n      slt\n        /* \"#utility.yul\":5922:6042   */\n      iszero\n      tag_213\n      jumpi\n        /* \"#utility.yul\":5961:6040   */\n      tag_214\n      tag_101\n      jump\t// in\n    tag_214:\n        /* \"#utility.yul\":5922:6042   */\n    tag_213:\n        /* \"#utility.yul\":6109:6110   */\n      0x00\n        /* \"#utility.yul\":6098:6107   */\n      dup7\n        /* \"#utility.yul\":6094:6111   */\n      add\n        /* \"#utility.yul\":6081:6112   */\n      calldataload\n        /* \"#utility.yul\":6139:6157   */\n      0xffffffffffffffff\n        /* \"#utility.yul\":6131:6137   */\n      dup2\n        /* \"#utility.yul\":6128:6158   */\n      gt\n        /* \"#utility.yul\":6125:6242   */\n      iszero\n      tag_215\n      jumpi\n        /* \"#utility.yul\":6161:6240   */\n      tag_216\n      tag_102\n      jump\t// in\n    tag_216:\n        /* \"#utility.yul\":6125:6242   */\n    tag_215:\n        /* \"#utility.yul\":6266:6329   */\n      tag_217\n        /* \"#utility.yul\":6321:6328   */\n      dup9\n        /* \"#utility.yul\":6312:6318   */\n      dup3\n        /* \"#utility.yul\":6301:6310   */\n      dup10\n        /* \"#utility.yul\":6297:6319   */\n      add\n        /* \"#utility.yul\":6266:6329   */\n      tag_116\n      jump\t// in\n    tag_217:\n        /* \"#utility.yul\":6256:6329   */\n      swap6\n      pop\n        /* \"#utility.yul\":6052:6339   */\n      pop\n        /* \"#utility.yul\":6406:6408   */\n      0x20\n        /* \"#utility.yul\":6395:6404   */\n      dup7\n        /* \"#utility.yul\":6391:6409   */\n      add\n        /* \"#utility.yul\":6378:6410   */\n      calldataload\n        /* \"#utility.yul\":6437:6455   */\n      0xffffffffffffffff\n        /* \"#utility.yul\":6429:6435   */\n      dup2\n        /* \"#utility.yul\":6426:6456   */\n      gt\n        /* \"#utility.yul\":6423:6540   */\n      iszero\n      tag_218\n      jumpi\n        /* \"#utility.yul\":6459:6538   */\n      tag_219\n      tag_102\n      jump\t// in\n    tag_219:\n        /* \"#utility.yul\":6423:6540   */\n    tag_218:\n        /* \"#utility.yul\":6564:6627   */\n      tag_220\n        /* \"#utility.yul\":6619:6626   */\n      dup9\n        /* \"#utility.yul\":6610:6616   */\n      dup3\n        /* \"#utility.yul\":6599:6608   */\n      dup10\n        /* \"#utility.yul\":6595:6617   */\n      add\n        /* \"#utility.yul\":6564:6627   */\n      tag_116\n      jump\t// in\n    tag_220:\n        /* \"#utility.yul\":6554:6627   */\n      swap5\n      pop\n        /* \"#utility.yul\":6349:6637   */\n      pop\n        /* \"#utility.yul\":6676:6678   */\n      0x40\n        /* \"#utility.yul\":6702:6755   */\n      tag_221\n        /* \"#utility.yul\":6747:6754   */\n      dup9\n        /* \"#utility.yul\":6738:6744   */\n      dup3\n        /* \"#utility.yul\":6727:6736   */\n      dup10\n        /* \"#utility.yul\":6723:6745   */\n      add\n        /* \"#utility.yul\":6702:6755   */\n      tag_119\n      jump\t// in\n    tag_221:\n        /* \"#utility.yul\":6692:6755   */\n      swap4\n      pop\n        /* \"#utility.yul\":6647:6765   */\n      pop\n        /* \"#utility.yul\":6832:6834   */\n      0x60\n        /* \"#utility.yul\":6821:6830   */\n      dup7\n        /* \"#utility.yul\":6817:6835   */\n      add\n        /* \"#utility.yul\":6804:6836   */\n      calldataload\n        /* \"#utility.yul\":6863:6881   */\n      0xffffffffffffffff\n        /* \"#utility.yul\":6855:6861   */\n      dup2\n        /* \"#utility.yul\":6852:6882   */\n      gt\n        /* \"#utility.yul\":6849:6966   */\n      iszero\n      tag_222\n      jumpi\n        /* \"#utility.yul\":6885:6964   */\n      tag_223\n      tag_102\n      jump\t// in\n    tag_223:\n        /* \"#utility.yul\":6849:6966   */\n    tag_222:\n        /* \"#utility.yul\":6990:7053   */\n      tag_224\n        /* \"#utility.yul\":7045:7052   */\n      dup9\n        /* \"#utility.yul\":7036:7042   */\n      dup3\n        /* \"#utility.yul\":7025:7034   */\n      dup10\n        /* \"#utility.yul\":7021:7043   */\n      add\n        /* \"#utility.yul\":6990:7053   */\n      tag_116\n      jump\t// in\n    tag_224:\n        /* \"#utility.yul\":6980:7053   */\n      swap3\n      pop\n        /* \"#utility.yul\":6775:7063   */\n      pop\n        /* \"#utility.yul\":7130:7133   */\n      0x80\n        /* \"#utility.yul\":7119:7128   */\n      dup7\n        /* \"#utility.yul\":7115:7134   */\n      add\n        /* \"#utility.yul\":7102:7135   */\n      calldataload\n        /* \"#utility.yul\":7162:7180   */\n      0xffffffffffffffff\n        /* \"#utility.yul\":7154:7160   */\n      dup2\n        /* \"#utility.yul\":7151:7181   */\n      gt\n        /* \"#utility.yul\":7148:7265   */\n      iszero\n      tag_225\n      jumpi\n        /* \"#utility.yul\":7184:7263   */\n      tag_226\n      tag_102\n      jump\t// in\n    tag_226:\n        /* \"#utility.yul\":7148:7265   */\n    tag_225:\n        /* \"#utility.yul\":7289:7352   */\n      tag_227\n        /* \"#utility.yul\":7344:7351   */\n      dup9\n        /* \"#utility.yul\":7335:7341   */\n      dup3\n        /* \"#utility.yul\":7324:7333   */\n      dup10\n        /* \"#utility.yul\":7320:7342   */\n      add\n        /* \"#utility.yul\":7289:7352   */\n      tag_116\n      jump\t// in\n    tag_227:\n        /* \"#utility.yul\":7279:7352   */\n      swap2\n      pop\n        /* \"#utility.yul\":7073:7362   */\n      pop\n        /* \"#utility.yul\":5738:7369   */\n      swap3\n      swap6\n      pop\n      swap3\n      swap6\n      swap1\n      swap4\n      pop\n      jump\t// out\n        /* \"#utility.yul\":7375:7465   */\n    tag_120:\n        /* \"#utility.yul\":7409:7416   */\n      0x00\n        /* \"#utility.yul\":7452:7457   */\n      dup2\n        /* \"#utility.yul\":7445:7458   */\n      iszero\n        /* \"#utility.yul\":7438:7459   */\n      iszero\n        /* \"#utility.yul\":7427:7459   */\n      swap1\n      pop\n        /* \"#utility.yul\":7375:7465   */\n      swap2\n      swap1\n      pop\n      jump\t// out\n        /* \"#utility.yul\":7471:7580   */\n    tag_121:\n        /* \"#utility.yul\":7552:7573   */\n      tag_230\n        /* \"#utility.yul\":7567:7572   */\n      dup2\n        /* \"#utility.yul\":7552:7573   */\n      tag_120\n      jump\t// in\n    tag_230:\n        /* \"#utility.yul\":7547:7550   */\n      dup3\n        /* \"#utility.yul\":7540:7574   */\n      mstore\n        /* \"#utility.yul\":7471:7580   */\n      pop\n      pop\n      jump\t// out\n        /* \"#utility.yul\":7586:7796   */\n    tag_35:\n        /* \"#utility.yul\":7673:7677   */\n      0x00\n        /* \"#utility.yul\":7711:7713   */\n      0x20\n        /* \"#utility.yul\":7700:7709   */\n      dup3\n        /* \"#utility.yul\":7696:7714   */\n      add\n        /* \"#utility.yul\":7688:7714   */\n      swap1\n      pop\n        /* \"#utility.yul\":7724:7789   */\n      tag_232\n        /* \"#utility.yul\":7786:7787   */\n      0x00\n        /* \"#utility.yul\":7775:7784   */\n      dup4\n        /* \"#utility.yul\":7771:7788   */\n      add\n        /* \"#utility.yul\":7762:7768   */\n      dup5\n        /* \"#utility.yul\":7724:7789   */\n      tag_121\n      jump\t// in\n    tag_232:\n        /* \"#utility.yul\":7586:7796   */\n      swap3\n      swap2\n      pop\n      pop\n      jump\t// out\n        /* \"#utility.yul\":7802:7920   */\n    tag_122:\n        /* \"#utility.yul\":7889:7913   */\n      tag_234\n        /* \"#utility.yul\":7907:7912   */\n      dup2\n        /* \"#utility.yul\":7889:7913   */\n      tag_104\n      jump\t// in\n    tag_234:\n        /* \"#utility.yul\":7884:7887   */\n      dup3\n        /* \"#utility.yul\":7877:7914   */\n      mstore\n        /* \"#utility.yul\":7802:7920   */\n      pop\n      pop\n      jump\t// out\n        /* \"#utility.yul\":7926:8148   */\n    tag_40:\n        /* \"#utility.yul\":8019:8023   */\n      0x00\n        /* \"#utility.yul\":8057:8059   */\n      0x20\n        /* \"#utility.yul\":8046:8055   */\n      dup3\n        /* \"#utility.yul\":8042:8060   */\n      add\n        /* \"#utility.yul\":8034:8060   */\n      swap1\n      pop\n        /* \"#utility.yul\":8070:8141   */\n      tag_236\n        /* \"#utility.yul\":8138:8139   */\n      0x00\n        /* \"#utility.yul\":8127:8136   */\n      dup4\n        /* \"#utility.yul\":8123:8140   */\n      add\n        /* \"#utility.yul\":8114:8120   */\n      dup5\n        /* \"#utility.yul\":8070:8141   */\n      tag_122\n      jump\t// in\n    tag_236:\n        /* \"#utility.yul\":7926:8148   */\n      swap3\n      swap2\n      pop\n      pop\n      jump\t// out\n        /* \"#utility.yul\":8154:8663   */\n    tag_44:\n        /* \"#utility.yul\":8223:8229   */\n      0x00\n        /* \"#utility.yul\":8272:8274   */\n      0x20\n        /* \"#utility.yul\":8260:8269   */\n      dup3\n        /* \"#utility.yul\":8251:8258   */\n      dup5\n        /* \"#utility.yul\":8247:8270   */\n      sub\n        /* \"#utility.yul\":8243:8275   */\n      slt\n        /* \"#utility.yul\":8240:8359   */\n      iszero\n      tag_238\n      jumpi\n        /* \"#utility.yul\":8278:8357   */\n      tag_239\n      tag_101\n      jump\t// in\n    tag_239:\n        /* \"#utility.yul\":8240:8359   */\n    tag_238:\n        /* \"#utility.yul\":8426:8427   */\n      0x00\n        /* \"#utility.yul\":8415:8424   */\n      dup3\n        /* \"#utility.yul\":8411:8428   */\n      add\n        /* \"#utility.yul\":8398:8429   */\n      calldataload\n        /* \"#utility.yul\":8456:8474   */\n      0xffffffffffffffff\n        /* \"#utility.yul\":8448:8454   */\n      dup2\n        /* \"#utility.yul\":8445:8475   */\n      gt\n        /* \"#utility.yul\":8442:8559   */\n      iszero\n      tag_240\n      jumpi\n        /* \"#utility.yul\":8478:8557   */\n      tag_241\n      tag_102\n      jump\t// in\n    tag_241:\n        /* \"#utility.yul\":8442:8559   */\n    tag_240:\n        /* \"#utility.yul\":8583:8646   */\n      tag_242\n        /* \"#utility.yul\":8638:8645   */\n      dup5\n        /* \"#utility.yul\":8629:8635   */\n      dup3\n        /* \"#utility.yul\":8618:8627   */\n      dup6\n        /* \"#utility.yul\":8614:8636   */\n      add\n        /* \"#utility.yul\":8583:8646   */\n      tag_116\n      jump\t// in\n    tag_242:\n        /* \"#utility.yul\":8573:8646   */\n      swap2\n      pop\n        /* \"#utility.yul\":8369:8656   */\n      pop\n        /* \"#utility.yul\":8154:8663   */\n      swap3\n      swap2\n      pop\n      pop\n      jump\t// out\n        /* \"#utility.yul\":8669:8787   */\n    tag_123:\n        /* \"#utility.yul\":8756:8780   */\n      tag_244\n        /* \"#utility.yul\":8774:8779   */\n      dup2\n        /* \"#utility.yul\":8756:8780   */\n      tag_117\n      jump\t// in\n    tag_244:\n        /* \"#utility.yul\":8751:8754   */\n      dup3\n        /* \"#utility.yul\":8744:8781   */\n      mstore\n        /* \"#utility.yul\":8669:8787   */\n      pop\n      pop\n      jump\t// out\n        /* \"#utility.yul\":8793:9015   */\n    tag_54:\n        /* \"#utility.yul\":8886:8890   */\n      0x00\n        /* \"#utility.yul\":8924:8926   */\n      0x20\n        /* \"#utility.yul\":8913:8922   */\n      dup3\n        /* \"#utility.yul\":8909:8927   */\n      add\n        /* \"#utility.yul\":8901:8927   */\n      swap1\n      pop\n        /* \"#utility.yul\":8937:9008   */\n      tag_246\n        /* \"#utility.yul\":9005:9006   */\n      0x00\n        /* \"#utility.yul\":8994:9003   */\n      dup4\n        /* \"#utility.yul\":8990:9007   */\n      add\n        /* \"#utility.yul\":8981:8987   */\n      dup5\n        /* \"#utility.yul\":8937:9008   */\n      tag_123\n      jump\t// in\n    tag_246:\n        /* \"#utility.yul\":8793:9015   */\n      swap3\n      swap2\n      pop\n      pop\n      jump\t// out\n        /* \"#utility.yul\":9021:9675   */\n    tag_58:\n        /* \"#utility.yul\":9099:9105   */\n      0x00\n        /* \"#utility.yul\":9107:9113   */\n      dup1\n        /* \"#utility.yul\":9156:9158   */\n      0x40\n        /* \"#utility.yul\":9144:9153   */\n      dup4\n        /* \"#utility.yul\":9135:9142   */\n      dup6\n        /* \"#utility.yul\":9131:9154   */\n      sub\n        /* \"#utility.yul\":9127:9159   */\n      slt\n        /* \"#utility.yul\":9124:9243   */\n      iszero\n      tag_248\n      jumpi\n        /* \"#utility.yul\":9162:9241   */\n      tag_249\n      tag_101\n      jump\t// in\n    tag_249:\n        /* \"#utility.yul\":9124:9243   */\n    tag_248:\n        /* \"#utility.yul\":9310:9311   */\n      0x00\n        /* \"#utility.yul\":9299:9308   */\n      dup4\n        /* \"#utility.yul\":9295:9312   */\n      add\n        /* \"#utility.yul\":9282:9313   */\n      calldataload\n        /* \"#utility.yul\":9340:9358   */\n      0xffffffffffffffff\n        /* \"#utility.yul\":9332:9338   */\n      dup2\n        /* \"#utility.yul\":9329:9359   */\n      gt\n        /* \"#utility.yul\":9326:9443   */\n      iszero\n      tag_250\n      jumpi\n        /* \"#utility.yul\":9362:9441   */\n      tag_251\n      tag_102\n      jump\t// in\n    tag_251:\n        /* \"#utility.yul\":9326:9443   */\n    tag_250:\n        /* \"#utility.yul\":9467:9530   */\n      tag_252\n        /* \"#utility.yul\":9522:9529   */\n      dup6\n        /* \"#utility.yul\":9513:9519   */\n      dup3\n        /* \"#utility.yul\":9502:9511   */\n      dup7\n        /* \"#utility.yul\":9498:9520   */\n      add\n        /* \"#utility.yul\":9467:9530   */\n      tag_116\n      jump\t// in\n    tag_252:\n        /* \"#utility.yul\":9457:9530   */\n      swap3\n      pop\n        /* \"#utility.yul\":9253:9540   */\n      pop\n        /* \"#utility.yul\":9579:9581   */\n      0x20\n        /* \"#utility.yul\":9605:9658   */\n      tag_253\n        /* \"#utility.yul\":9650:9657   */\n      dup6\n        /* \"#utility.yul\":9641:9647   */\n      dup3\n        /* \"#utility.yul\":9630:9639   */\n      dup7\n        /* \"#utility.yul\":9626:9648   */\n      add\n        /* \"#utility.yul\":9605:9658   */\n      tag_106\n      jump\t// in\n    tag_253:\n        /* \"#utility.yul\":9595:9658   */\n      swap2\n      pop\n        /* \"#utility.yul\":9550:9668   */\n      pop\n        /* \"#utility.yul\":9021:9675   */\n      swap3\n      pop\n      swap3\n      swap1\n      pop\n      jump\t// out\n        /* \"#utility.yul\":9681:9850   */\n    tag_124:\n        /* \"#utility.yul\":9765:9776   */\n      0x00\n        /* \"#utility.yul\":9799:9805   */\n      dup3\n        /* \"#utility.yul\":9794:9797   */\n      dup3\n        /* \"#utility.yul\":9787:9806   */\n      mstore\n        /* \"#utility.yul\":9839:9843   */\n      0x20\n        /* \"#utility.yul\":9834:9837   */\n      dup3\n        /* \"#utility.yul\":9830:9844   */\n      add\n        /* \"#utility.yul\":9815:9844   */\n      swap1\n      pop\n        /* \"#utility.yul\":9681:9850   */\n      swap3\n      swap2\n      pop\n      pop\n      jump\t// out\n        /* \"#utility.yul\":9856:10038   */\n    tag_125:\n        /* \"#utility.yul\":9996:10030   */\n      0x4f776e61626c653a2063616c6c6572206973206e6f7420746865206f776e6572\n        /* \"#utility.yul\":9992:9993   */\n      0x00\n        /* \"#utility.yul\":9984:9990   */\n      dup3\n        /* \"#utility.yul\":9980:9994   */\n      add\n        /* \"#utility.yul\":9973:10031   */\n      mstore\n        /* \"#utility.yul\":9856:10038   */\n      pop\n      jump\t// out\n        /* \"#utility.yul\":10044:10410   */\n    tag_126:\n        /* \"#utility.yul\":10186:10189   */\n      0x00\n        /* \"#utility.yul\":10207:10274   */\n      tag_257\n        /* \"#utility.yul\":10271:10273   */\n      0x20\n        /* \"#utility.yul\":10266:10269   */\n      dup4\n        /* \"#utility.yul\":10207:10274   */\n      tag_124\n      jump\t// in\n    tag_257:\n        /* \"#utility.yul\":10200:10274   */\n      swap2\n      pop\n        /* \"#utility.yul\":10283:10376   */\n      tag_258\n        /* \"#utility.yul\":10372:10375   */\n      dup3\n        /* \"#utility.yul\":10283:10376   */\n      tag_125\n      jump\t// in\n    tag_258:\n        /* \"#utility.yul\":10401:10403   */\n      0x20\n        /* \"#utility.yul\":10396:10399   */\n      dup3\n        /* \"#utility.yul\":10392:10404   */\n      add\n        /* \"#utility.yul\":10385:10404   */\n      swap1\n      pop\n        /* \"#utility.yul\":10044:10410   */\n      swap2\n      swap1\n      pop\n      jump\t// out\n        /* \"#utility.yul\":10416:10835   */\n    tag_64:\n        /* \"#utility.yul\":10582:10586   */\n      0x00\n        /* \"#utility.yul\":10620:10622   */\n      0x20\n        /* \"#utility.yul\":10609:10618   */\n      dup3\n        /* \"#utility.yul\":10605:10623   */\n      add\n        /* \"#utility.yul\":10597:10623   */\n      swap1\n      pop\n        /* \"#utility.yul\":10669:10678   */\n      dup2\n        /* \"#utility.yul\":10663:10667   */\n      dup2\n        /* \"#utility.yul\":10659:10679   */\n      sub\n        /* \"#utility.yul\":10655:10656   */\n      0x00\n        /* \"#utility.yul\":10644:10653   */\n      dup4\n        /* \"#utility.yul\":10640:10657   */\n      add\n        /* \"#utility.yul\":10633:10680   */\n      mstore\n        /* \"#utility.yul\":10697:10828   */\n      tag_260\n        /* \"#utility.yul\":10823:10827   */\n      dup2\n        /* \"#utility.yul\":10697:10828   */\n      tag_126\n      jump\t// in\n    tag_260:\n        /* \"#utility.yul\":10689:10828   */\n      swap1\n      pop\n        /* \"#utility.yul\":10416:10835   */\n      swap2\n      swap1\n      pop\n      jump\t// out\n        /* \"#utility.yul\":10841:10940   */\n    tag_127:\n        /* \"#utility.yul\":10893:10899   */\n      0x00\n        /* \"#utility.yul\":10927:10932   */\n      dup2\n        /* \"#utility.yul\":10921:10933   */\n      mload\n        /* \"#utility.yul\":10911:10933   */\n      swap1\n      pop\n        /* \"#utility.yul\":10841:10940   */\n      swap2\n      swap1\n      pop\n      jump\t// out\n        /* \"#utility.yul\":10946:11253   */\n    tag_128:\n        /* \"#utility.yul\":11014:11015   */\n      0x00\n        /* \"#utility.yul\":11024:11137   */\n    tag_263:\n        /* \"#utility.yul\":11038:11044   */\n      dup4\n        /* \"#utility.yul\":11035:11036   */\n      dup2\n        /* \"#utility.yul\":11032:11045   */\n      lt\n        /* \"#utility.yul\":11024:11137   */\n      iszero\n      tag_265\n      jumpi\n        /* \"#utility.yul\":11123:11124   */\n      dup1\n        /* \"#utility.yul\":11118:11121   */\n      dup3\n        /* \"#utility.yul\":11114:11125   */\n      add\n        /* \"#utility.yul\":11108:11126   */\n      mload\n        /* \"#utility.yul\":11104:11105   */\n      dup2\n        /* \"#utility.yul\":11099:11102   */\n      dup5\n        /* \"#utility.yul\":11095:11106   */\n      add\n        /* \"#utility.yul\":11088:11127   */\n      mstore\n        /* \"#utility.yul\":11060:11062   */\n      0x20\n        /* \"#utility.yul\":11057:11058   */\n      dup2\n        /* \"#utility.yul\":11053:11063   */\n      add\n        /* \"#utility.yul\":11048:11063   */\n      swap1\n      pop\n        /* \"#utility.yul\":11024:11137   */\n      jump(tag_263)\n    tag_265:\n        /* \"#utility.yul\":11155:11161   */\n      dup4\n        /* \"#utility.yul\":11152:11153   */\n      dup2\n        /* \"#utility.yul\":11149:11162   */\n      gt\n        /* \"#utility.yul\":11146:11247   */\n      iszero\n      tag_266\n      jumpi\n        /* \"#utility.yul\":11235:11236   */\n      0x00\n        /* \"#utility.yul\":11226:11232   */\n      dup5\n        /* \"#utility.yul\":11221:11224   */\n      dup5\n        /* \"#utility.yul\":11217:11233   */\n      add\n        /* \"#utility.yul\":11210:11237   */\n      mstore\n        /* \"#utility.yul\":11146:11247   */\n    tag_266:\n        /* \"#utility.yul\":10995:11253   */\n      pop\n        /* \"#utility.yul\":10946:11253   */\n      pop\n      pop\n      pop\n      jump\t// out\n        /* \"#utility.yul\":11259:11636   */\n    tag_129:\n        /* \"#utility.yul\":11365:11368   */\n      0x00\n        /* \"#utility.yul\":11393:11432   */\n      tag_268\n        /* \"#utility.yul\":11426:11431   */\n      dup3\n        /* \"#utility.yul\":11393:11432   */\n      tag_127\n      jump\t// in\n    tag_268:\n        /* \"#utility.yul\":11448:11537   */\n      tag_269\n        /* \"#utility.yul\":11530:11536   */\n      dup2\n        /* \"#utility.yul\":11525:11528   */\n      dup6\n        /* \"#utility.yul\":11448:11537   */\n      tag_97\n      jump\t// in\n    tag_269:\n        /* \"#utility.yul\":11441:11537   */\n      swap4\n      pop\n        /* \"#utility.yul\":11546:11598   */\n      tag_270\n        /* \"#utility.yul\":11591:11597   */\n      dup2\n        /* \"#utility.yul\":11586:11589   */\n      dup6\n        /* \"#utility.yul\":11579:11583   */\n      0x20\n        /* \"#utility.yul\":11572:11577   */\n      dup7\n        /* \"#utility.yul\":11568:11584   */\n      add\n        /* \"#utility.yul\":11546:11598   */\n      tag_128\n      jump\t// in\n    tag_270:\n        /* \"#utility.yul\":11623:11629   */\n      dup1\n        /* \"#utility.yul\":11618:11621   */\n      dup5\n        /* \"#utility.yul\":11614:11630   */\n      add\n        /* \"#utility.yul\":11607:11630   */\n      swap2\n      pop\n        /* \"#utility.yul\":11369:11636   */\n      pop\n        /* \"#utility.yul\":11259:11636   */\n      swap3\n      swap2\n      pop\n      pop\n      jump\t// out\n        /* \"#utility.yul\":11642:11917   */\n    tag_69:\n        /* \"#utility.yul\":11774:11777   */\n      0x00\n        /* \"#utility.yul\":11796:11891   */\n      tag_272\n        /* \"#utility.yul\":11887:11890   */\n      dup3\n        /* \"#utility.yul\":11878:11884   */\n      dup5\n        /* \"#utility.yul\":11796:11891   */\n      tag_129\n      jump\t// in\n    tag_272:\n        /* \"#utility.yul\":11789:11891   */\n      swap2\n      pop\n        /* \"#utility.yul\":11908:11911   */\n      dup2\n        /* \"#utility.yul\":11901:11911   */\n      swap1\n      pop\n        /* \"#utility.yul\":11642:11917   */\n      swap3\n      swap2\n      pop\n      pop\n      jump\t// out\n        /* \"#utility.yul\":11923:12287   */\n    tag_130:\n        /* \"#utility.yul\":12011:12014   */\n      0x00\n        /* \"#utility.yul\":12039:12078   */\n      tag_274\n        /* \"#utility.yul\":12072:12077   */\n      dup3\n        /* \"#utility.yul\":12039:12078   */\n      tag_127\n      jump\t// in\n    tag_274:\n        /* \"#utility.yul\":12094:12165   */\n      tag_275\n        /* \"#utility.yul\":12158:12164   */\n      dup2\n        /* \"#utility.yul\":12153:12156   */\n      dup6\n        /* \"#utility.yul\":12094:12165   */\n      tag_124\n      jump\t// in\n    tag_275:\n        /* \"#utility.yul\":12087:12165   */\n      swap4\n      pop\n        /* \"#utility.yul\":12174:12226   */\n      tag_276\n        /* \"#utility.yul\":12219:12225   */\n      dup2\n        /* \"#utility.yul\":12214:12217   */\n      dup6\n        /* \"#utility.yul\":12207:12211   */\n      0x20\n        /* \"#utility.yul\":12200:12205   */\n      dup7\n        /* \"#utility.yul\":12196:12212   */\n      add\n        /* \"#utility.yul\":12174:12226   */\n      tag_128\n      jump\t// in\n    tag_276:\n        /* \"#utility.yul\":12251:12280   */\n      tag_277\n        /* \"#utility.yul\":12273:12279   */\n      dup2\n        /* \"#utility.yul\":12251:12280   */\n      tag_109\n      jump\t// in\n    tag_277:\n        /* \"#utility.yul\":12246:12249   */\n      dup5\n        /* \"#utility.yul\":12242:12281   */\n      add\n        /* \"#utility.yul\":12235:12281   */\n      swap2\n      pop\n        /* \"#utility.yul\":12015:12287   */\n      pop\n        /* \"#utility.yul\":11923:12287   */\n      swap3\n      swap2\n      pop\n      pop\n      jump\t// out\n        /* \"#utility.yul\":12293:13321   */\n    tag_71:\n        /* \"#utility.yul\":12578:12582   */\n      0x00\n        /* \"#utility.yul\":12616:12619   */\n      0xa0\n        /* \"#utility.yul\":12605:12614   */\n      dup3\n        /* \"#utility.yul\":12601:12620   */\n      add\n        /* \"#utility.yul\":12593:12620   */\n      swap1\n      pop\n        /* \"#utility.yul\":12666:12675   */\n      dup2\n        /* \"#utility.yul\":12660:12664   */\n      dup2\n        /* \"#utility.yul\":12656:12676   */\n      sub\n        /* \"#utility.yul\":12652:12653   */\n      0x00\n        /* \"#utility.yul\":12641:12650   */\n      dup4\n        /* \"#utility.yul\":12637:12654   */\n      add\n        /* \"#utility.yul\":12630:12677   */\n      mstore\n        /* \"#utility.yul\":12694:12772   */\n      tag_279\n        /* \"#utility.yul\":12767:12771   */\n      dup2\n        /* \"#utility.yul\":12758:12764   */\n      dup9\n        /* \"#utility.yul\":12694:12772   */\n      tag_130\n      jump\t// in\n    tag_279:\n        /* \"#utility.yul\":12686:12772   */\n      swap1\n      pop\n        /* \"#utility.yul\":12819:12828   */\n      dup2\n        /* \"#utility.yul\":12813:12817   */\n      dup2\n        /* \"#utility.yul\":12809:12829   */\n      sub\n        /* \"#utility.yul\":12804:12806   */\n      0x20\n        /* \"#utility.yul\":12793:12802   */\n      dup4\n        /* \"#utility.yul\":12789:12807   */\n      add\n        /* \"#utility.yul\":12782:12830   */\n      mstore\n        /* \"#utility.yul\":12847:12925   */\n      tag_280\n        /* \"#utility.yul\":12920:12924   */\n      dup2\n        /* \"#utility.yul\":12911:12917   */\n      dup8\n        /* \"#utility.yul\":12847:12925   */\n      tag_130\n      jump\t// in\n    tag_280:\n        /* \"#utility.yul\":12839:12925   */\n      swap1\n      pop\n        /* \"#utility.yul\":12935:13007   */\n      tag_281\n        /* \"#utility.yul\":13003:13005   */\n      0x40\n        /* \"#utility.yul\":12992:13001   */\n      dup4\n        /* \"#utility.yul\":12988:13006   */\n      add\n        /* \"#utility.yul\":12979:12985   */\n      dup7\n        /* \"#utility.yul\":12935:13007   */\n      tag_123\n      jump\t// in\n    tag_281:\n        /* \"#utility.yul\":13054:13063   */\n      dup2\n        /* \"#utility.yul\":13048:13052   */\n      dup2\n        /* \"#utility.yul\":13044:13064   */\n      sub\n        /* \"#utility.yul\":13039:13041   */\n      0x60\n        /* \"#utility.yul\":13028:13037   */\n      dup4\n        /* \"#utility.yul\":13024:13042   */\n      add\n        /* \"#utility.yul\":13017:13065   */\n      mstore\n        /* \"#utility.yul\":13082:13160   */\n      tag_282\n        /* \"#utility.yul\":13155:13159   */\n      dup2\n        /* \"#utility.yul\":13146:13152   */\n      dup6\n        /* \"#utility.yul\":13082:13160   */\n      tag_130\n      jump\t// in\n    tag_282:\n        /* \"#utility.yul\":13074:13160   */\n      swap1\n      pop\n        /* \"#utility.yul\":13208:13217   */\n      dup2\n        /* \"#utility.yul\":13202:13206   */\n      dup2\n        /* \"#utility.yul\":13198:13218   */\n      sub\n        /* \"#utility.yul\":13192:13195   */\n      0x80\n        /* \"#utility.yul\":13181:13190   */\n      dup4\n        /* \"#utility.yul\":13177:13196   */\n      add\n        /* \"#utility.yul\":13170:13219   */\n      mstore\n        /* \"#utility.yul\":13236:13314   */\n      tag_283\n        /* \"#utility.yul\":13309:13313   */\n      dup2\n        /* \"#utility.yul\":13300:13306   */\n      dup5\n        /* \"#utility.yul\":13236:13314   */\n      tag_130\n      jump\t// in\n    tag_283:\n        /* \"#utility.yul\":13228:13314   */\n      swap1\n      pop\n        /* \"#utility.yul\":12293:13321   */\n      swap7\n      swap6\n      pop\n      pop\n      pop\n      pop\n      pop\n      pop\n      jump\t// out\n        /* \"#utility.yul\":13327:13420   */\n    tag_131:\n        /* \"#utility.yul\":13364:13370   */\n      0x00\n        /* \"#utility.yul\":13411:13413   */\n      0x20\n        /* \"#utility.yul\":13406:13408   */\n      0x1f\n        /* \"#utility.yul\":13399:13404   */\n      dup4\n        /* \"#utility.yul\":13395:13409   */\n      add\n        /* \"#utility.yul\":13391:13414   */\n      div\n        /* \"#utility.yul\":13381:13414   */\n      swap1\n      pop\n        /* \"#utility.yul\":13327:13420   */\n      swap2\n      swap1\n      pop\n      jump\t// out\n        /* \"#utility.yul\":13426:13533   */\n    tag_132:\n        /* \"#utility.yul\":13470:13478   */\n      0x00\n        /* \"#utility.yul\":13520:13525   */\n      dup3\n        /* \"#utility.yul\":13514:13518   */\n      dup3\n        /* \"#utility.yul\":13510:13526   */\n      shl\n        /* \"#utility.yul\":13489:13526   */\n      swap1\n      pop\n        /* \"#utility.yul\":13426:13533   */\n      swap3\n      swap2\n      pop\n      pop\n      jump\t// out\n        /* \"#utility.yul\":13539:13932   */\n    tag_133:\n        /* \"#utility.yul\":13608:13614   */\n      0x00\n        /* \"#utility.yul\":13658:13659   */\n      0x08\n        /* \"#utility.yul\":13646:13656   */\n      dup4\n        /* \"#utility.yul\":13642:13660   */\n      mul\n        /* \"#utility.yul\":13681:13778   */\n      tag_287\n        /* \"#utility.yul\":13711:13777   */\n      0xffffffffffffffffffffffffffffffffffffffffffffffffffffffffffffffff\n        /* \"#utility.yul\":13700:13709   */\n      dup3\n        /* \"#utility.yul\":13681:13778   */\n      tag_132\n      jump\t// in\n    tag_287:\n        /* \"#utility.yul\":13799:13838   */\n      tag_288\n        /* \"#utility.yul\":13829:13837   */\n      dup7\n        /* \"#utility.yul\":13818:13827   */\n      dup4\n        /* \"#utility.yul\":13799:13838   */\n      tag_132\n      jump\t// in\n    tag_288:\n        /* \"#utility.yul\":13787:13838   */\n      swap6\n      pop\n        /* \"#utility.yul\":13871:13875   */\n      dup1\n        /* \"#utility.yul\":13867:13876   */\n      not\n        /* \"#utility.yul\":13860:13865   */\n      dup5\n        /* \"#utility.yul\":13856:13877   */\n      and\n        /* \"#utility.yul\":13847:13877   */\n      swap4\n      pop\n        /* \"#utility.yul\":13920:13924   */\n      dup1\n        /* \"#utility.yul\":13910:13918   */\n      dup7\n        /* \"#utility.yul\":13906:13925   */\n      and\n        /* \"#utility.yul\":13899:13904   */\n      dup5\n        /* \"#utility.yul\":13896:13926   */\n      or\n        /* \"#utility.yul\":13886:13926   */\n      swap3\n      pop\n        /* \"#utility.yul\":13615:13932   */\n      pop\n      pop\n        /* \"#utility.yul\":13539:13932   */\n      swap4\n      swap3\n      pop\n      pop\n      pop\n      jump\t// out\n        /* \"#utility.yul\":13938:13998   */\n    tag_134:\n        /* \"#utility.yul\":13966:13969   */\n      0x00\n        /* \"#utility.yul\":13987:13992   */\n      dup2\n        /* \"#utility.yul\":13980:13992   */\n      swap1\n      pop\n        /* \"#utility.yul\":13938:13998   */\n      swap2\n      swap1\n      pop\n      jump\t// out\n        /* \"#utility.yul\":14004:14146   */\n    tag_135:\n        /* \"#utility.yul\":14054:14063   */\n      0x00\n        /* \"#utility.yul\":14087:14140   */\n      tag_291\n        /* \"#utility.yul\":14105:14139   */\n      tag_292\n        /* \"#utility.yul\":14114:14138   */\n      tag_293\n        /* \"#utility.yul\":14132:14137   */\n      dup5\n        /* \"#utility.yul\":14114:14138   */\n      tag_117\n      jump\t// in\n    tag_293:\n        /* \"#utility.yul\":14105:14139   */\n      tag_134\n      jump\t// in\n    tag_292:\n        /* \"#utility.yul\":14087:14140   */\n      tag_117\n      jump\t// in\n    tag_291:\n        /* \"#utility.yul\":14074:14140   */\n      swap1\n      pop\n        /* \"#utility.yul\":14004:14146   */\n      swap2\n      swap1\n      pop\n      jump\t// out\n        /* \"#utility.yul\":14152:14227   */\n    tag_136:\n        /* \"#utility.yul\":14195:14198   */\n      0x00\n        /* \"#utility.yul\":14216:14221   */\n      dup2\n        /* \"#utility.yul\":14209:14221   */\n      swap1\n      pop\n        /* \"#utility.yul\":14152:14227   */\n      swap2\n      swap1\n      pop\n      jump\t// out\n        /* \"#utility.yul\":14233:14502   */\n    tag_137:\n        /* \"#utility.yul\":14343:14382   */\n      tag_296\n        /* \"#utility.yul\":14374:14381   */\n      dup4\n        /* \"#utility.yul\":14343:14382   */\n      tag_135\n      jump\t// in\n    tag_296:\n        /* \"#utility.yul\":14404:14495   */\n      tag_297\n        /* \"#utility.yul\":14453:14494   */\n      tag_298\n        /* \"#utility.yul\":14477:14493   */\n      dup3\n        /* \"#utility.yul\":14453:14494   */\n      tag_136\n      jump\t// in\n    tag_298:\n        /* \"#utility.yul\":14445:14451   */\n      dup5\n        /* \"#utility.yul\":14438:14442   */\n      dup5\n        /* \"#utility.yul\":14432:14443   */\n      sload\n        /* \"#utility.yul\":14404:14495   */\n      tag_133\n      jump\t// in\n    tag_297:\n        /* \"#utility.yul\":14398:14402   */\n      dup3\n        /* \"#utility.yul\":14391:14496   */\n      sstore\n        /* \"#utility.yul\":14309:14502   */\n      pop\n        /* \"#utility.yul\":14233:14502   */\n      pop\n      pop\n      pop\n      jump\t// out\n        /* \"#utility.yul\":14508:14581   */\n    tag_138:\n        /* \"#utility.yul\":14553:14556   */\n      0x00\n        /* \"#utility.yul\":14508:14581   */\n      swap1\n      jump\t// out\n        /* \"#utility.yul\":14587:14776   */\n    tag_139:\n        /* \"#utility.yul\":14664:14696   */\n      tag_301\n      tag_138\n      jump\t// in\n    tag_301:\n        /* \"#utility.yul\":14705:14770   */\n      tag_302\n        /* \"#utility.yul\":14763:14769   */\n      dup2\n        /* \"#utility.yul\":14755:14761   */\n      dup5\n        /* \"#utility.yul\":14749:14753   */\n      dup5\n        /* \"#utility.yul\":14705:14770   */\n      tag_137\n      jump\t// in\n    tag_302:\n        /* \"#utility.yul\":14640:14776   */\n      pop\n        /* \"#utility.yul\":14587:14776   */\n      pop\n      pop\n      jump\t// out\n        /* \"#utility.yul\":14782:14968   */\n    tag_140:\n        /* \"#utility.yul\":14842:14962   */\n    tag_304:\n        /* \"#utility.yul\":14859:14862   */\n      dup2\n        /* \"#utility.yul\":14852:14857   */\n      dup2\n        /* \"#utility.yul\":14849:14863   */\n      lt\n        /* \"#utility.yul\":14842:14962   */\n      iszero\n      tag_306\n      jumpi\n        /* \"#utility.yul\":14913:14952   */\n      tag_307\n        /* \"#utility.yul\":14950:14951   */\n      0x00\n        /* \"#utility.yul\":14943:14948   */\n      dup3\n        /* \"#utility.yul\":14913:14952   */\n      tag_139\n      jump\t// in\n    tag_307:\n        /* \"#utility.yul\":14886:14887   */\n      0x01\n        /* \"#utility.yul\":14879:14884   */\n      dup2\n        /* \"#utility.yul\":14875:14888   */\n      add\n        /* \"#utility.yul\":14866:14888   */\n      swap1\n      pop\n        /* \"#utility.yul\":14842:14962   */\n      jump(tag_304)\n    tag_306:\n        /* \"#utility.yul\":14782:14968   */\n      pop\n      pop\n      jump\t// out\n        /* \"#utility.yul\":14974:15517   */\n    tag_141:\n        /* \"#utility.yul\":15075:15077   */\n      0x1f\n        /* \"#utility.yul\":15070:15073   */\n      dup3\n        /* \"#utility.yul\":15067:15078   */\n      gt\n        /* \"#utility.yul\":15064:15510   */\n      iszero\n      tag_309\n      jumpi\n        /* \"#utility.yul\":15109:15147   */\n      tag_310\n        /* \"#utility.yul\":15141:15146   */\n      dup2\n        /* \"#utility.yul\":15109:15147   */\n      tag_98\n      jump\t// in\n    tag_310:\n        /* \"#utility.yul\":15193:15222   */\n      tag_311\n        /* \"#utility.yul\":15211:15221   */\n      dup5\n        /* \"#utility.yul\":15193:15222   */\n      tag_131\n      jump\t// in\n    tag_311:\n        /* \"#utility.yul\":15183:15191   */\n      dup2\n        /* \"#utility.yul\":15179:15223   */\n      add\n        /* \"#utility.yul\":15376:15378   */\n      0x20\n        /* \"#utility.yul\":15364:15374   */\n      dup6\n        /* \"#utility.yul\":15361:15379   */\n      lt\n        /* \"#utility.yul\":15358:15407   */\n      iszero\n      tag_312\n      jumpi\n        /* \"#utility.yul\":15397:15405   */\n      dup2\n        /* \"#utility.yul\":15382:15405   */\n      swap1\n      pop\n        /* \"#utility.yul\":15358:15407   */\n    tag_312:\n        /* \"#utility.yul\":15420:15500   */\n      tag_313\n        /* \"#utility.yul\":15476:15498   */\n      tag_314\n        /* \"#utility.yul\":15494:15497   */\n      dup6\n        /* \"#utility.yul\":15476:15498   */\n      tag_131\n      jump\t// in\n    tag_314:\n        /* \"#utility.yul\":15466:15474   */\n      dup4\n        /* \"#utility.yul\":15462:15499   */\n      add\n        /* \"#utility.yul\":15449:15460   */\n      dup3\n        /* \"#utility.yul\":15420:15500   */\n      tag_140\n      jump\t// in\n    tag_313:\n        /* \"#utility.yul\":15079:15510   */\n      pop\n      pop\n        /* \"#utility.yul\":15064:15510   */\n    tag_309:\n        /* \"#utility.yul\":14974:15517   */\n      pop\n      pop\n      pop\n      jump\t// out\n        /* \"#utility.yul\":15523:15640   */\n    tag_142:\n        /* \"#utility.yul\":15577:15585   */\n      0x00\n        /* \"#utility.yul\":15627:15632   */\n      dup3\n        /* \"#utility.yul\":15621:15625   */\n      dup3\n        /* \"#utility.yul\":15617:15633   */\n      shr\n        /* \"#utility.yul\":15596:15633   */\n      swap1\n      pop\n        /* \"#utility.yul\":15523:15640   */\n      swap3\n      swap2\n      pop\n      pop\n      jump\t// out\n        /* \"#utility.yul\":15646:15815   */\n    tag_143:\n        /* \"#utility.yul\":15690:15696   */\n      0x00\n        /* \"#utility.yul\":15723:15774   */\n      tag_317\n        /* \"#utility.yul\":15771:15772   */\n      0x00\n        /* \"#utility.yul\":15767:15773   */\n      not\n        /* \"#utility.yul\":15759:15764   */\n      dup5\n        /* \"#utility.yul\":15756:15757   */\n      0x08\n        /* \"#utility.yul\":15752:15765   */\n      mul\n        /* \"#utility.yul\":15723:15774   */\n      tag_142\n      jump\t// in\n    tag_317:\n        /* \"#utility.yul\":15719:15775   */\n      not\n        /* \"#utility.yul\":15804:15808   */\n      dup1\n        /* \"#utility.yul\":15798:15802   */\n      dup4\n        /* \"#utility.yul\":15794:15809   */\n      and\n        /* \"#utility.yul\":15784:15809   */\n      swap2\n      pop\n        /* \"#utility.yul\":15697:15815   */\n      pop\n        /* \"#utility.yul\":15646:15815   */\n      swap3\n      swap2\n      pop\n      pop\n      jump\t// out\n        /* \"#utility.yul\":15820:16115   */\n    tag_144:\n        /* \"#utility.yul\":15896:15900   */\n      0x00\n        /* \"#utility.yul\":16042:16071   */\n      tag_319\n        /* \"#utility.yul\":16067:16070   */\n      dup4\n        /* \"#utility.yul\":16061:16065   */\n      dup4\n        /* \"#utility.yul\":16042:16071   */\n      tag_143\n      jump\t// in\n    tag_319:\n        /* \"#utility.yul\":16034:16071   */\n      swap2\n      pop\n        /* \"#utility.yul\":16104:16107   */\n      dup3\n        /* \"#utility.yul\":16101:16102   */\n      0x02\n        /* \"#utility.yul\":16097:16108   */\n      mul\n        /* \"#utility.yul\":16091:16095   */\n      dup3\n        /* \"#utility.yul\":16088:16109   */\n      or\n        /* \"#utility.yul\":16080:16109   */\n      swap1\n      pop\n        /* \"#utility.yul\":15820:16115   */\n      swap3\n      swap2\n      pop\n      pop\n      jump\t// out\n        /* \"#utility.yul\":16120:17515   */\n    tag_93:\n        /* \"#utility.yul\":16237:16274   */\n      tag_321\n        /* \"#utility.yul\":16270:16273   */\n      dup3\n        /* \"#utility.yul\":16237:16274   */\n      tag_127\n      jump\t// in\n    tag_321:\n        /* \"#utility.yul\":16339:16357   */\n      0xffffffffffffffff\n        /* \"#utility.yul\":16331:16337   */\n      dup2\n        /* \"#utility.yul\":16328:16358   */\n      gt\n        /* \"#utility.yul\":16325:16381   */\n      iszero\n      tag_322\n      jumpi\n        /* \"#utility.yul\":16361:16379   */\n      tag_323\n      tag_110\n      jump\t// in\n    tag_323:\n        /* \"#utility.yul\":16325:16381   */\n    tag_322:\n        /* \"#utility.yul\":16405:16443   */\n      tag_324\n        /* \"#utility.yul\":16437:16441   */\n      dup3\n        /* \"#utility.yul\":16431:16442   */\n      sload\n        /* \"#utility.yul\":16405:16443   */\n      tag_96\n      jump\t// in\n    tag_324:\n        /* \"#utility.yul\":16490:16557   */\n      tag_325\n        /* \"#utility.yul\":16550:16556   */\n      dup3\n        /* \"#utility.yul\":16542:16548   */\n      dup3\n        /* \"#utility.yul\":16536:16540   */\n      dup6\n        /* \"#utility.yul\":16490:16557   */\n      tag_141\n      jump\t// in\n    tag_325:\n        /* \"#utility.yul\":16584:16585   */\n      0x00\n        /* \"#utility.yul\":16608:16612   */\n      0x20\n        /* \"#utility.yul\":16595:16612   */\n      swap1\n      pop\n        /* \"#utility.yul\":16640:16642   */\n      0x1f\n        /* \"#utility.yul\":16632:16638   */\n      dup4\n        /* \"#utility.yul\":16629:16643   */\n      gt\n        /* \"#utility.yul\":16657:16658   */\n      0x01\n        /* \"#utility.yul\":16652:17270   */\n      dup2\n      eq\n      tag_327\n      jumpi\n        /* \"#utility.yul\":17314:17315   */\n      0x00\n        /* \"#utility.yul\":17331:17337   */\n      dup5\n        /* \"#utility.yul\":17328:17405   */\n      iszero\n      tag_328\n      jumpi\n        /* \"#utility.yul\":17380:17389   */\n      dup3\n        /* \"#utility.yul\":17375:17378   */\n      dup8\n        /* \"#utility.yul\":17371:17390   */\n      add\n        /* \"#utility.yul\":17365:17391   */\n      mload\n        /* \"#utility.yul\":17356:17391   */\n      swap1\n      pop\n        /* \"#utility.yul\":17328:17405   */\n    tag_328:\n        /* \"#utility.yul\":17431:17498   */\n      tag_329\n        /* \"#utility.yul\":17491:17497   */\n      dup6\n        /* \"#utility.yul\":17484:17489   */\n      dup3\n        /* \"#utility.yul\":17431:17498   */\n      tag_144\n      jump\t// in\n    tag_329:\n        /* \"#utility.yul\":17425:17429   */\n      dup7\n        /* \"#utility.yul\":17418:17499   */\n      sstore\n        /* \"#utility.yul\":17287:17509   */\n      pop\n        /* \"#utility.yul\":16622:17509   */\n      jump(tag_326)\n        /* \"#utility.yul\":16652:17270   */\n    tag_327:\n        /* \"#utility.yul\":16704:16708   */\n      0x1f\n        /* \"#utility.yul\":16700:16709   */\n      not\n        /* \"#utility.yul\":16692:16698   */\n      dup5\n        /* \"#utility.yul\":16688:16710   */\n      and\n        /* \"#utility.yul\":16738:16775   */\n      tag_330\n        /* \"#utility.yul\":16770:16774   */\n      dup7\n        /* \"#utility.yul\":16738:16775   */\n      tag_98\n      jump\t// in\n    tag_330:\n        /* \"#utility.yul\":16797:16798   */\n      0x00\n        /* \"#utility.yul\":16811:17019   */\n    tag_331:\n        /* \"#utility.yul\":16825:16832   */\n      dup3\n        /* \"#utility.yul\":16822:16823   */\n      dup2\n        /* \"#utility.yul\":16819:16833   */\n      lt\n        /* \"#utility.yul\":16811:17019   */\n      iszero\n      tag_333\n      jumpi\n        /* \"#utility.yul\":16904:16913   */\n      dup5\n        /* \"#utility.yul\":16899:16902   */\n      dup10\n        /* \"#utility.yul\":16895:16914   */\n      add\n        /* \"#utility.yul\":16889:16915   */\n      mload\n        /* \"#utility.yul\":16881:16887   */\n      dup3\n        /* \"#utility.yul\":16874:16916   */\n      sstore\n        /* \"#utility.yul\":16955:16956   */\n      0x01\n        /* \"#utility.yul\":16947:16953   */\n      dup3\n        /* \"#utility.yul\":16943:16957   */\n      add\n        /* \"#utility.yul\":16933:16957   */\n      swap2\n      pop\n        /* \"#utility.yul\":17002:17004   */\n      0x20\n        /* \"#utility.yul\":16991:17000   */\n      dup6\n        /* \"#utility.yul\":16987:17005   */\n      add\n        /* \"#utility.yul\":16974:17005   */\n      swap5\n      pop\n        /* \"#utility.yul\":16848:16852   */\n      0x20\n        /* \"#utility.yul\":16845:16846   */\n      dup2\n        /* \"#utility.yul\":16841:16853   */\n      add\n        /* \"#utility.yul\":16836:16853   */\n      swap1\n      pop\n        /* \"#utility.yul\":16811:17019   */\n      jump(tag_331)\n    tag_333:\n        /* \"#utility.yul\":17047:17053   */\n      dup7\n        /* \"#utility.yul\":17038:17045   */\n      dup4\n        /* \"#utility.yul\":17035:17054   */\n      lt\n        /* \"#utility.yul\":17032:17211   */\n      iszero\n      tag_334\n      jumpi\n        /* \"#utility.yul\":17105:17114   */\n      dup5\n        /* \"#utility.yul\":17100:17103   */\n      dup10\n        /* \"#utility.yul\":17096:17115   */\n      add\n        /* \"#utility.yul\":17090:17116   */\n      mload\n        /* \"#utility.yul\":17148:17196   */\n      tag_335\n        /* \"#utility.yul\":17190:17194   */\n      0x1f\n        /* \"#utility.yul\":17182:17188   */\n      dup10\n        /* \"#utility.yul\":17178:17195   */\n      and\n        /* \"#utility.yul\":17167:17176   */\n      dup3\n        /* \"#utility.yul\":17148:17196   */\n      tag_143\n      jump\t// in\n    tag_335:\n        /* \"#utility.yul\":17140:17146   */\n      dup4\n        /* \"#utility.yul\":17133:17197   */\n      sstore\n        /* \"#utility.yul\":17055:17211   */\n      pop\n        /* \"#utility.yul\":17032:17211   */\n    tag_334:\n        /* \"#utility.yul\":17257:17258   */\n      0x01\n        /* \"#utility.yul\":17253:17254   */\n      0x02\n        /* \"#utility.yul\":17245:17251   */\n      dup9\n        /* \"#utility.yul\":17241:17255   */\n      mul\n        /* \"#utility.yul\":17237:17259   */\n      add\n        /* \"#utility.yul\":17231:17235   */\n      dup9\n        /* \"#utility.yul\":17224:17260   */\n      sstore\n        /* \"#utility.yul\":16659:17270   */\n      pop\n      pop\n      pop\n        /* \"#utility.yul\":16622:17509   */\n    tag_326:\n      pop\n        /* \"#utility.yul\":16212:17515   */\n      pop\n      pop\n      pop\n        /* \"#utility.yul\":16120:17515   */\n      pop\n      pop\n      jump\t// out\n\n    auxdata: 0xa26469706673582212208eeb4e0cd987b98c487515842b1fda9b14b905c2dd7abddddd9eb57e2d88418764736f6c634300080f0033\n}\n",
				"bytecode": {
					"linkReferences": {},
					"object": "608060405234801561001057600080fd5b50336000806101000a81548173ffffffffffffffffffffffffffffffffffffffff021916908373ffffffffffffffffffffffffffffffffffffffff16021790555033600460006101000a81548173ffffffffffffffffffffffffffffffffffffffff021916908373ffffffffffffffffffffffffffffffffffffffff1602179055506111ae806100a16000396000f3fe60806040526004361061008a5760003560e01c8063b2bdfa7b11610059578063b2bdfa7b146101e5578063e935155814610210578063e9e6533114610239578063f993185514610255578063fe49048a1461029257610147565b806313af40351461014c5780635bbe4ac314610175578063704b6c02146101915780638f32d59b146101ba57610147565b36610147576002600560003373ffffffffffffffffffffffffffffffffffffffff1673ffffffffffffffffffffffffffffffffffffffff1681526020019081526020016000206040516100dd9190610918565b908152602001604051809103902060009054906101000a900460ff1661010257600080fd5b34600660003373ffffffffffffffffffffffffffffffffffffffff1673ffffffffffffffffffffffffffffffffffffffff168152602001908152602001600020819055005b600080fd5b34801561015857600080fd5b50610173600480360381019061016e91906109a1565b6102bb565b005b61018f600480360381019061018a9190610b4a565b610345565b005b34801561019d57600080fd5b506101b860048036038101906101b391906109a1565b61044b565b005b3480156101c657600080fd5b506101cf6104d6565b6040516101dc9190610c50565b60405180910390f35b3480156101f157600080fd5b506101fa61052d565b6040516102079190610c7a565b60405180910390f35b34801561021c57600080fd5b5061023760048036038101906102329190610c95565b610551565b005b610253600480360381019061024e91906109a1565b610650565b005b34801561026157600080fd5b5061027c600480360381019061027791906109a1565b610653565b6040516102899190610ced565b60405180910390f35b34801561029e57600080fd5b506102b960048036038101906102b49190610d08565b61066b565b005b6102c36104d6565b610302576040517f08c379a00000000000000000000000000000000000000000000000000000000081526004016102f990610dc1565b60405180910390fd5b806000806101000a81548173ffffffffffffffffffffffffffffffffffffffff021916908373ffffffffffffffffffffffffffffffffffffffff16021790555050565b600460009054906101000a900473ffffffffffffffffffffffffffffffffffffffff1673ffffffffffffffffffffffffffffffffffffffff163373ffffffffffffffffffffffffffffffffffffffff161461039f57600080fd5b600115156001826040516103b39190610e50565b908152602001604051809103902060009054906101000a905050507fe10b63ae15af33dfb6fd11bdb907fba25fdd8cdbb63d7c46d530e30901d621078585858585604051610405959493929190610ea0565b60405180910390a1600060018260405161041f9190610e50565b908152602001604051809103902060006101000a81548160ff0219169083151502179055505050505050565b6104536104d6565b610492576040517f08c379a000000000000000000000000000000000000000000000000000000000815260040161048990610dc1565b60405180910390fd5b80600460006101000a81548173ffffffffffffffffffffffffffffffffffffffff021916908373ffffffffffffffffffffffffffffffffffffffff16021790555050565b60008060009054906101000a900473ffffffffffffffffffffffffffffffffffffffff1673ffffffffffffffffffffffffffffffffffffffff163373ffffffffffffffffffffffffffffffffffffffff1614905090565b60008054906101000a900473ffffffffffffffffffffffffffffffffffffffff1681565b600460009054906101000a900473ffffffffffffffffffffffffffffffffffffffff1673ffffffffffffffffffffffffffffffffffffffff163373ffffffffffffffffffffffffffffffffffffffff16146105ab57600080fd5b600180826040516105bc9190610e50565b908152602001604051809103902060006101000a81548160ff0219169083151502179055506001816040516105f19190610e50565b908152602001604051809103902060009054906101000a900460ff1661061657600080fd5b60016002826040516106289190610e50565b908152602001604051809103902060006101000a81548160ff02191690831515021790555050565b50565b60066020528060005260406000206000915090505481565b600460009054906101000a900473ffffffffffffffffffffffffffffffffffffffff1673ffffffffffffffffffffffffffffffffffffffff163373ffffffffffffffffffffffffffffffffffffffff16146106c557600080fd5b600180836040516106d69190610e50565b908152602001604051809103902060006101000a81548160ff02191690831515021790555060018260405161070b9190610e50565b908152602001604051809103902060009054906101000a900460ff1661073057600080fd5b60016002836040516107429190610e50565b908152602001604051809103902060006101000a81548160ff02191690831515021790555081600560008373ffffffffffffffffffffffffffffffffffffffff1673ffffffffffffffffffffffffffffffffffffffff16815260200190815260200160002090816107b391906110a6565b50806003836040516107c59190610e50565b908152602001604051809103902060006101000a81548173ffffffffffffffffffffffffffffffffffffffff021916908373ffffffffffffffffffffffffffffffffffffffff1602179055505050565b7f4e487b7100000000000000000000000000000000000000000000000000000000600052602260045260246000fd5b6000600282049050600182168061085c57607f821691505b60208210810361086f5761086e610815565b5b50919050565b600081905092915050565b60008190508160005260206000209050919050565b600081546108a281610844565b6108ac8186610875565b945060018216600081146108c757600181146108dc5761090f565b60ff198316865281151582028601935061090f565b6108e585610880565b60005b83811015610907578154818901526001820191506020810190506108e8565b838801955050505b50505092915050565b60006109248284610895565b915081905092915050565b6000604051905090565b600080fd5b600080fd5b600073ffffffffffffffffffffffffffffffffffffffff82169050919050565b600061096e82610943565b9050919050565b61097e81610963565b811461098957600080fd5b50565b60008135905061099b81610975565b92915050565b6000602082840312156109b7576109b6610939565b5b60006109c58482850161098c565b91505092915050565b600080fd5b600080fd5b6000601f19601f8301169050919050565b7f4e487b7100000000000000000000000000000000000000000000000000000000600052604160045260246000fd5b610a21826109d8565b810181811067ffffffffffffffff82111715610a4057610a3f6109e9565b5b80604052505050565b6000610a5361092f565b9050610a5f8282610a18565b919050565b600067ffffffffffffffff821115610a7f57610a7e6109e9565b5b610a88826109d8565b9050602081019050919050565b82818337600083830152505050565b6000610ab7610ab284610a64565b610a49565b905082815260208101848484011115610ad357610ad26109d3565b5b610ade848285610a95565b509392505050565b600082601f830112610afb57610afa6109ce565b5b8135610b0b848260208601610aa4565b91505092915050565b6000819050919050565b610b2781610b14565b8114610b3257600080fd5b50565b600081359050610b4481610b1e565b92915050565b600080600080600060a08688031215610b6657610b65610939565b5b600086013567ffffffffffffffff811115610b8457610b8361093e565b5b610b9088828901610ae6565b955050602086013567ffffffffffffffff811115610bb157610bb061093e565b5b610bbd88828901610ae6565b9450506040610bce88828901610b35565b935050606086013567ffffffffffffffff811115610bef57610bee61093e565b5b610bfb88828901610ae6565b925050608086013567ffffffffffffffff811115610c1c57610c1b61093e565b5b610c2888828901610ae6565b9150509295509295909350565b60008115159050919050565b610c4a81610c35565b82525050565b6000602082019050610c656000830184610c41565b92915050565b610c7481610963565b82525050565b6000602082019050610c8f6000830184610c6b565b92915050565b600060208284031215610cab57610caa610939565b5b600082013567ffffffffffffffff811115610cc957610cc861093e565b5b610cd584828501610ae6565b91505092915050565b610ce781610b14565b82525050565b6000602082019050610d026000830184610cde565b92915050565b60008060408385031215610d1f57610d1e610939565b5b600083013567ffffffffffffffff811115610d3d57610d3c61093e565b5b610d4985828601610ae6565b9250506020610d5a8582860161098c565b9150509250929050565b600082825260208201905092915050565b7f4f776e61626c653a2063616c6c6572206973206e6f7420746865206f776e6572600082015250565b6000610dab602083610d64565b9150610db682610d75565b602082019050919050565b60006020820190508181036000830152610dda81610d9e565b9050919050565b600081519050919050565b60005b83811015610e0a578082015181840152602081019050610def565b83811115610e19576000848401525b50505050565b6000610e2a82610de1565b610e348185610875565b9350610e44818560208601610dec565b80840191505092915050565b6000610e5c8284610e1f565b915081905092915050565b6000610e7282610de1565b610e7c8185610d64565b9350610e8c818560208601610dec565b610e95816109d8565b840191505092915050565b600060a0820190508181036000830152610eba8188610e67565b90508181036020830152610ece8187610e67565b9050610edd6040830186610cde565b8181036060830152610eef8185610e67565b90508181036080830152610f038184610e67565b90509695505050505050565b60006020601f8301049050919050565b600082821b905092915050565b600060088302610f5c7fffffffffffffffffffffffffffffffffffffffffffffffffffffffffffffffff82610f1f565b610f668683610f1f565b95508019841693508086168417925050509392505050565b6000819050919050565b6000610fa3610f9e610f9984610b14565b610f7e565b610b14565b9050919050565b6000819050919050565b610fbd83610f88565b610fd1610fc982610faa565b848454610f2c565b825550505050565b600090565b610fe6610fd9565b610ff1818484610fb4565b505050565b5b818110156110155761100a600082610fde565b600181019050610ff7565b5050565b601f82111561105a5761102b81610880565b61103484610f0f565b81016020851015611043578190505b61105761104f85610f0f565b830182610ff6565b50505b505050565b600082821c905092915050565b600061107d6000198460080261105f565b1980831691505092915050565b6000611096838361106c565b9150826002028217905092915050565b6110af82610de1565b67ffffffffffffffff8111156110c8576110c76109e9565b5b6110d28254610844565b6110dd828285611019565b600060209050601f83116001811461111057600084156110fe578287015190505b611108858261108a565b865550611170565b601f19841661111e86610880565b60005b8281101561114657848901518255600182019150602085019450602081019050611121565b86831015611163578489015161115f601f89168261106c565b8355505b6001600288020188555050505b50505050505056fea26469706673582212208eeb4e0cd987b98c487515842b1fda9b14b905c2dd7abddddd9eb57e2d88418764736f6c634300080f0033",
					"opcodes": "PUSH1 0x80 PUSH1 0x40 MSTORE CALLVALUE DUP1 ISZERO PUSH2 0x10 JUMPI PUSH1 0x0 DUP1 REVERT JUMPDEST POP CALLER PUSH1 0x0 DUP1 PUSH2 0x100 EXP DUP2 SLOAD DUP2 PUSH20 0xFFFFFFFFFFFFFFFFFFFFFFFFFFFFFFFFFFFFFFFF MUL NOT AND SWAP1 DUP4 PUSH20 0xFFFFFFFFFFFFFFFFFFFFFFFFFFFFFFFFFFFFFFFF AND MUL OR SWAP1 SSTORE POP CALLER PUSH1 0x4 PUSH1 0x0 PUSH2 0x100 EXP DUP2 SLOAD DUP2 PUSH20 0xFFFFFFFFFFFFFFFFFFFFFFFFFFFFFFFFFFFFFFFF MUL NOT AND SWAP1 DUP4 PUSH20 0xFFFFFFFFFFFFFFFFFFFFFFFFFFFFFFFFFFFFFFFF AND MUL OR SWAP1 SSTORE POP PUSH2 0x11AE DUP1 PUSH2 0xA1 PUSH1 0x0 CODECOPY PUSH1 0x0 RETURN INVALID PUSH1 0x80 PUSH1 0x40 MSTORE PUSH1 0x4 CALLDATASIZE LT PUSH2 0x8A JUMPI PUSH1 0x0 CALLDATALOAD PUSH1 0xE0 SHR DUP1 PUSH4 0xB2BDFA7B GT PUSH2 0x59 JUMPI DUP1 PUSH4 0xB2BDFA7B EQ PUSH2 0x1E5 JUMPI DUP1 PUSH4 0xE9351558 EQ PUSH2 0x210 JUMPI DUP1 PUSH4 0xE9E65331 EQ PUSH2 0x239 JUMPI DUP1 PUSH4 0xF9931855 EQ PUSH2 0x255 JUMPI DUP1 PUSH4 0xFE49048A EQ PUSH2 0x292 JUMPI PUSH2 0x147 JUMP JUMPDEST DUP1 PUSH4 0x13AF4035 EQ PUSH2 0x14C JUMPI DUP1 PUSH4 0x5BBE4AC3 EQ PUSH2 0x175 JUMPI DUP1 PUSH4 0x704B6C02 EQ PUSH2 0x191 JUMPI DUP1 PUSH4 0x8F32D59B EQ PUSH2 0x1BA JUMPI PUSH2 0x147 JUMP JUMPDEST CALLDATASIZE PUSH2 0x147 JUMPI PUSH1 0x2 PUSH1 0x5 PUSH1 0x0 CALLER PUSH20 0xFFFFFFFFFFFFFFFFFFFFFFFFFFFFFFFFFFFFFFFF AND PUSH20 0xFFFFFFFFFFFFFFFFFFFFFFFFFFFFFFFFFFFFFFFF AND DUP2 MSTORE PUSH1 0x20 ADD SWAP1 DUP2 MSTORE PUSH1 0x20 ADD PUSH1 0x0 KECCAK256 PUSH1 0x40 MLOAD PUSH2 0xDD SWAP2 SWAP1 PUSH2 0x918 JUMP JUMPDEST SWAP1 DUP2 MSTORE PUSH1 0x20 ADD PUSH1 0x40 MLOAD DUP1 SWAP2 SUB SWAP1 KECCAK256 PUSH1 0x0 SWAP1 SLOAD SWAP1 PUSH2 0x100 EXP SWAP1 DIV PUSH1 0xFF AND PUSH2 0x102 JUMPI PUSH1 0x0 DUP1 REVERT JUMPDEST CALLVALUE PUSH1 0x6 PUSH1 0x0 CALLER PUSH20 0xFFFFFFFFFFFFFFFFFFFFFFFFFFFFFFFFFFFFFFFF AND PUSH20 0xFFFFFFFFFFFFFFFFFFFFFFFFFFFFFFFFFFFFFFFF AND DUP2 MSTORE PUSH1 0x20 ADD SWAP1 DUP2 MSTORE PUSH1 0x20 ADD PUSH1 0x0 KECCAK256 DUP2 SWAP1 SSTORE STOP JUMPDEST PUSH1 0x0 DUP1 REVERT JUMPDEST CALLVALUE DUP1 ISZERO PUSH2 0x158 JUMPI PUSH1 0x0 DUP1 REVERT JUMPDEST POP PUSH2 0x173 PUSH1 0x4 DUP1 CALLDATASIZE SUB DUP2 ADD SWAP1 PUSH2 0x16E SWAP2 SWAP1 PUSH2 0x9A1 JUMP JUMPDEST PUSH2 0x2BB JUMP JUMPDEST STOP JUMPDEST PUSH2 0x18F PUSH1 0x4 DUP1 CALLDATASIZE SUB DUP2 ADD SWAP1 PUSH2 0x18A SWAP2 SWAP1 PUSH2 0xB4A JUMP JUMPDEST PUSH2 0x345 JUMP JUMPDEST STOP JUMPDEST CALLVALUE DUP1 ISZERO PUSH2 0x19D JUMPI PUSH1 0x0 DUP1 REVERT JUMPDEST POP PUSH2 0x1B8 PUSH1 0x4 DUP1 CALLDATASIZE SUB DUP2 ADD SWAP1 PUSH2 0x1B3 SWAP2 SWAP1 PUSH2 0x9A1 JUMP JUMPDEST PUSH2 0x44B JUMP JUMPDEST STOP JUMPDEST CALLVALUE DUP1 ISZERO PUSH2 0x1C6 JUMPI PUSH1 0x0 DUP1 REVERT JUMPDEST POP PUSH2 0x1CF PUSH2 0x4D6 JUMP JUMPDEST PUSH1 0x40 MLOAD PUSH2 0x1DC SWAP2 SWAP1 PUSH2 0xC50 JUMP JUMPDEST PUSH1 0x40 MLOAD DUP1 SWAP2 SUB SWAP1 RETURN JUMPDEST CALLVALUE DUP1 ISZERO PUSH2 0x1F1 JUMPI PUSH1 0x0 DUP1 REVERT JUMPDEST POP PUSH2 0x1FA PUSH2 0x52D JUMP JUMPDEST PUSH1 0x40 MLOAD PUSH2 0x207 SWAP2 SWAP1 PUSH2 0xC7A JUMP JUMPDEST PUSH1 0x40 MLOAD DUP1 SWAP2 SUB SWAP1 RETURN JUMPDEST CALLVALUE DUP1 ISZERO PUSH2 0x21C JUMPI PUSH1 0x0 DUP1 REVERT JUMPDEST POP PUSH2 0x237 PUSH1 0x4 DUP1 CALLDATASIZE SUB DUP2 ADD SWAP1 PUSH2 0x232 SWAP2 SWAP1 PUSH2 0xC95 JUMP JUMPDEST PUSH2 0x551 JUMP JUMPDEST STOP JUMPDEST PUSH2 0x253 PUSH1 0x4 DUP1 CALLDATASIZE SUB DUP2 ADD SWAP1 PUSH2 0x24E SWAP2 SWAP1 PUSH2 0x9A1 JUMP JUMPDEST PUSH2 0x650 JUMP JUMPDEST STOP JUMPDEST CALLVALUE DUP1 ISZERO PUSH2 0x261 JUMPI PUSH1 0x0 DUP1 REVERT JUMPDEST POP PUSH2 0x27C PUSH1 0x4 DUP1 CALLDATASIZE SUB DUP2 ADD SWAP1 PUSH2 0x277 SWAP2 SWAP1 PUSH2 0x9A1 JUMP JUMPDEST PUSH2 0x653 JUMP JUMPDEST PUSH1 0x40 MLOAD PUSH2 0x289 SWAP2 SWAP1 PUSH2 0xCED JUMP JUMPDEST PUSH1 0x40 MLOAD DUP1 SWAP2 SUB SWAP1 RETURN JUMPDEST CALLVALUE DUP1 ISZERO PUSH2 0x29E JUMPI PUSH1 0x0 DUP1 REVERT JUMPDEST POP PUSH2 0x2B9 PUSH1 0x4 DUP1 CALLDATASIZE SUB DUP2 ADD SWAP1 PUSH2 0x2B4 SWAP2 SWAP1 PUSH2 0xD08 JUMP JUMPDEST PUSH2 0x66B JUMP JUMPDEST STOP JUMPDEST PUSH2 0x2C3 PUSH2 0x4D6 JUMP JUMPDEST PUSH2 0x302 JUMPI PUSH1 0x40 MLOAD PUSH32 0x8C379A000000000000000000000000000000000000000000000000000000000 DUP2 MSTORE PUSH1 0x4 ADD PUSH2 0x2F9 SWAP1 PUSH2 0xDC1 JUMP JUMPDEST PUSH1 0x40 MLOAD DUP1 SWAP2 SUB SWAP1 REVERT JUMPDEST DUP1 PUSH1 0x0 DUP1 PUSH2 0x100 EXP DUP2 SLOAD DUP2 PUSH20 0xFFFFFFFFFFFFFFFFFFFFFFFFFFFFFFFFFFFFFFFF MUL NOT AND SWAP1 DUP4 PUSH20 0xFFFFFFFFFFFFFFFFFFFFFFFFFFFFFFFFFFFFFFFF AND MUL OR SWAP1 SSTORE POP POP JUMP JUMPDEST PUSH1 0x4 PUSH1 0x0 SWAP1 SLOAD SWAP1 PUSH2 0x100 EXP SWAP1 DIV PUSH20 0xFFFFFFFFFFFFFFFFFFFFFFFFFFFFFFFFFFFFFFFF AND PUSH20 0xFFFFFFFFFFFFFFFFFFFFFFFFFFFFFFFFFFFFFFFF AND CALLER PUSH20 0xFFFFFFFFFFFFFFFFFFFFFFFFFFFFFFFFFFFFFFFF AND EQ PUSH2 0x39F JUMPI PUSH1 0x0 DUP1 REVERT JUMPDEST PUSH1 0x1 ISZERO ISZERO PUSH1 0x1 DUP3 PUSH1 0x40 MLOAD PUSH2 0x3B3 SWAP2 SWAP1 PUSH2 0xE50 JUMP JUMPDEST SWAP1 DUP2 MSTORE PUSH1 0x20 ADD PUSH1 0x40 MLOAD DUP1 SWAP2 SUB SWAP1 KECCAK256 PUSH1 0x0 SWAP1 SLOAD SWAP1 PUSH2 0x100 EXP SWAP1 POP POP POP PUSH32 0xE10B63AE15AF33DFB6FD11BDB907FBA25FDD8CDBB63D7C46D530E30901D62107 DUP6 DUP6 DUP6 DUP6 DUP6 PUSH1 0x40 MLOAD PUSH2 0x405 SWAP6 SWAP5 SWAP4 SWAP3 SWAP2 SWAP1 PUSH2 0xEA0 JUMP JUMPDEST PUSH1 0x40 MLOAD DUP1 SWAP2 SUB SWAP1 LOG1 PUSH1 0x0 PUSH1 0x1 DUP3 PUSH1 0x40 MLOAD PUSH2 0x41F SWAP2 SWAP1 PUSH2 0xE50 JUMP JUMPDEST SWAP1 DUP2 MSTORE PUSH1 0x20 ADD PUSH1 0x40 MLOAD DUP1 SWAP2 SUB SWAP1 KECCAK256 PUSH1 0x0 PUSH2 0x100 EXP DUP2 SLOAD DUP2 PUSH1 0xFF MUL NOT AND SWAP1 DUP4 ISZERO ISZERO MUL OR SWAP1 SSTORE POP POP POP POP POP POP JUMP JUMPDEST PUSH2 0x453 PUSH2 0x4D6 JUMP JUMPDEST PUSH2 0x492 JUMPI PUSH1 0x40 MLOAD PUSH32 0x8C379A000000000000000000000000000000000000000000000000000000000 DUP2 MSTORE PUSH1 0x4 ADD PUSH2 0x489 SWAP1 PUSH2 0xDC1 JUMP JUMPDEST PUSH1 0x40 MLOAD DUP1 SWAP2 SUB SWAP1 REVERT JUMPDEST DUP1 PUSH1 0x4 PUSH1 0x0 PUSH2 0x100 EXP DUP2 SLOAD DUP2 PUSH20 0xFFFFFFFFFFFFFFFFFFFFFFFFFFFFFFFFFFFFFFFF MUL NOT AND SWAP1 DUP4 PUSH20 0xFFFFFFFFFFFFFFFFFFFFFFFFFFFFFFFFFFFFFFFF AND MUL OR SWAP1 SSTORE POP POP JUMP JUMPDEST PUSH1 0x0 DUP1 PUSH1 0x0 SWAP1 SLOAD SWAP1 PUSH2 0x100 EXP SWAP1 DIV PUSH20 0xFFFFFFFFFFFFFFFFFFFFFFFFFFFFFFFFFFFFFFFF AND PUSH20 0xFFFFFFFFFFFFFFFFFFFFFFFFFFFFFFFFFFFFFFFF AND CALLER PUSH20 0xFFFFFFFFFFFFFFFFFFFFFFFFFFFFFFFFFFFFFFFF AND EQ SWAP1 POP SWAP1 JUMP JUMPDEST PUSH1 0x0 DUP1 SLOAD SWAP1 PUSH2 0x100 EXP SWAP1 DIV PUSH20 0xFFFFFFFFFFFFFFFFFFFFFFFFFFFFFFFFFFFFFFFF AND DUP2 JUMP JUMPDEST PUSH1 0x4 PUSH1 0x0 SWAP1 SLOAD SWAP1 PUSH2 0x100 EXP SWAP1 DIV PUSH20 0xFFFFFFFFFFFFFFFFFFFFFFFFFFFFFFFFFFFFFFFF AND PUSH20 0xFFFFFFFFFFFFFFFFFFFFFFFFFFFFFFFFFFFFFFFF AND CALLER PUSH20 0xFFFFFFFFFFFFFFFFFFFFFFFFFFFFFFFFFFFFFFFF AND EQ PUSH2 0x5AB JUMPI PUSH1 0x0 DUP1 REVERT JUMPDEST PUSH1 0x1 DUP1 DUP3 PUSH1 0x40 MLOAD PUSH2 0x5BC SWAP2 SWAP1 PUSH2 0xE50 JUMP JUMPDEST SWAP1 DUP2 MSTORE PUSH1 0x20 ADD PUSH1 0x40 MLOAD DUP1 SWAP2 SUB SWAP1 KECCAK256 PUSH1 0x0 PUSH2 0x100 EXP DUP2 SLOAD DUP2 PUSH1 0xFF MUL NOT AND SWAP1 DUP4 ISZERO ISZERO MUL OR SWAP1 SSTORE POP PUSH1 0x1 DUP2 PUSH1 0x40 MLOAD PUSH2 0x5F1 SWAP2 SWAP1 PUSH2 0xE50 JUMP JUMPDEST SWAP1 DUP2 MSTORE PUSH1 0x20 ADD PUSH1 0x40 MLOAD DUP1 SWAP2 SUB SWAP1 KECCAK256 PUSH1 0x0 SWAP1 SLOAD SWAP1 PUSH2 0x100 EXP SWAP1 DIV PUSH1 0xFF AND PUSH2 0x616 JUMPI PUSH1 0x0 DUP1 REVERT JUMPDEST PUSH1 0x1 PUSH1 0x2 DUP3 PUSH1 0x40 MLOAD PUSH2 0x628 SWAP2 SWAP1 PUSH2 0xE50 JUMP JUMPDEST SWAP1 DUP2 MSTORE PUSH1 0x20 ADD PUSH1 0x40 MLOAD DUP1 SWAP2 SUB SWAP1 KECCAK256 PUSH1 0x0 PUSH2 0x100 EXP DUP2 SLOAD DUP2 PUSH1 0xFF MUL NOT AND SWAP1 DUP4 ISZERO ISZERO MUL OR SWAP1 SSTORE POP POP JUMP JUMPDEST POP JUMP JUMPDEST PUSH1 0x6 PUSH1 0x20 MSTORE DUP1 PUSH1 0x0 MSTORE PUSH1 0x40 PUSH1 0x0 KECCAK256 PUSH1 0x0 SWAP2 POP SWAP1 POP SLOAD DUP2 JUMP JUMPDEST PUSH1 0x4 PUSH1 0x0 SWAP1 SLOAD SWAP1 PUSH2 0x100 EXP SWAP1 DIV PUSH20 0xFFFFFFFFFFFFFFFFFFFFFFFFFFFFFFFFFFFFFFFF AND PUSH20 0xFFFFFFFFFFFFFFFFFFFFFFFFFFFFFFFFFFFFFFFF AND CALLER PUSH20 0xFFFFFFFFFFFFFFFFFFFFFFFFFFFFFFFFFFFFFFFF AND EQ PUSH2 0x6C5 JUMPI PUSH1 0x0 DUP1 REVERT JUMPDEST PUSH1 0x1 DUP1 DUP4 PUSH1 0x40 MLOAD PUSH2 0x6D6 SWAP2 SWAP1 PUSH2 0xE50 JUMP JUMPDEST SWAP1 DUP2 MSTORE PUSH1 0x20 ADD PUSH1 0x40 MLOAD DUP1 SWAP2 SUB SWAP1 KECCAK256 PUSH1 0x0 PUSH2 0x100 EXP DUP2 SLOAD DUP2 PUSH1 0xFF MUL NOT AND SWAP1 DUP4 ISZERO ISZERO MUL OR SWAP1 SSTORE POP PUSH1 0x1 DUP3 PUSH1 0x40 MLOAD PUSH2 0x70B SWAP2 SWAP1 PUSH2 0xE50 JUMP JUMPDEST SWAP1 DUP2 MSTORE PUSH1 0x20 ADD PUSH1 0x40 MLOAD DUP1 SWAP2 SUB SWAP1 KECCAK256 PUSH1 0x0 SWAP1 SLOAD SWAP1 PUSH2 0x100 EXP SWAP1 DIV PUSH1 0xFF AND PUSH2 0x730 JUMPI PUSH1 0x0 DUP1 REVERT JUMPDEST PUSH1 0x1 PUSH1 0x2 DUP4 PUSH1 0x40 MLOAD PUSH2 0x742 SWAP2 SWAP1 PUSH2 0xE50 JUMP JUMPDEST SWAP1 DUP2 MSTORE PUSH1 0x20 ADD PUSH1 0x40 MLOAD DUP1 SWAP2 SUB SWAP1 KECCAK256 PUSH1 0x0 PUSH2 0x100 EXP DUP2 SLOAD DUP2 PUSH1 0xFF MUL NOT AND SWAP1 DUP4 ISZERO ISZERO MUL OR SWAP1 SSTORE POP DUP2 PUSH1 0x5 PUSH1 0x0 DUP4 PUSH20 0xFFFFFFFFFFFFFFFFFFFFFFFFFFFFFFFFFFFFFFFF AND PUSH20 0xFFFFFFFFFFFFFFFFFFFFFFFFFFFFFFFFFFFFFFFF AND DUP2 MSTORE PUSH1 0x20 ADD SWAP1 DUP2 MSTORE PUSH1 0x20 ADD PUSH1 0x0 KECCAK256 SWAP1 DUP2 PUSH2 0x7B3 SWAP2 SWAP1 PUSH2 0x10A6 JUMP JUMPDEST POP DUP1 PUSH1 0x3 DUP4 PUSH1 0x40 MLOAD PUSH2 0x7C5 SWAP2 SWAP1 PUSH2 0xE50 JUMP JUMPDEST SWAP1 DUP2 MSTORE PUSH1 0x20 ADD PUSH1 0x40 MLOAD DUP1 SWAP2 SUB SWAP1 KECCAK256 PUSH1 0x0 PUSH2 0x100 EXP DUP2 SLOAD DUP2 PUSH20 0xFFFFFFFFFFFFFFFFFFFFFFFFFFFFFFFFFFFFFFFF MUL NOT AND SWAP1 DUP4 PUSH20 0xFFFFFFFFFFFFFFFFFFFFFFFFFFFFFFFFFFFFFFFF AND MUL OR SWAP1 SSTORE POP POP POP JUMP JUMPDEST PUSH32 0x4E487B7100000000000000000000000000000000000000000000000000000000 PUSH1 0x0 MSTORE PUSH1 0x22 PUSH1 0x4 MSTORE PUSH1 0x24 PUSH1 0x0 REVERT JUMPDEST PUSH1 0x0 PUSH1 0x2 DUP3 DIV SWAP1 POP PUSH1 0x1 DUP3 AND DUP1 PUSH2 0x85C JUMPI PUSH1 0x7F DUP3 AND SWAP2 POP JUMPDEST PUSH1 0x20 DUP3 LT DUP2 SUB PUSH2 0x86F JUMPI PUSH2 0x86E PUSH2 0x815 JUMP JUMPDEST JUMPDEST POP SWAP2 SWAP1 POP JUMP JUMPDEST PUSH1 0x0 DUP2 SWAP1 POP SWAP3 SWAP2 POP POP JUMP JUMPDEST PUSH1 0x0 DUP2 SWAP1 POP DUP2 PUSH1 0x0 MSTORE PUSH1 0x20 PUSH1 0x0 KECCAK256 SWAP1 POP SWAP2 SWAP1 POP JUMP JUMPDEST PUSH1 0x0 DUP2 SLOAD PUSH2 0x8A2 DUP2 PUSH2 0x844 JUMP JUMPDEST PUSH2 0x8AC DUP2 DUP7 PUSH2 0x875 JUMP JUMPDEST SWAP5 POP PUSH1 0x1 DUP3 AND PUSH1 0x0 DUP2 EQ PUSH2 0x8C7 JUMPI PUSH1 0x1 DUP2 EQ PUSH2 0x8DC JUMPI PUSH2 0x90F JUMP JUMPDEST PUSH1 0xFF NOT DUP4 AND DUP7 MSTORE DUP2 ISZERO ISZERO DUP3 MUL DUP7 ADD SWAP4 POP PUSH2 0x90F JUMP JUMPDEST PUSH2 0x8E5 DUP6 PUSH2 0x880 JUMP JUMPDEST PUSH1 0x0 JUMPDEST DUP4 DUP2 LT ISZERO PUSH2 0x907 JUMPI DUP2 SLOAD DUP2 DUP10 ADD MSTORE PUSH1 0x1 DUP3 ADD SWAP2 POP PUSH1 0x20 DUP2 ADD SWAP1 POP PUSH2 0x8E8 JUMP JUMPDEST DUP4 DUP9 ADD SWAP6 POP POP POP JUMPDEST POP POP POP SWAP3 SWAP2 POP POP JUMP JUMPDEST PUSH1 0x0 PUSH2 0x924 DUP3 DUP5 PUSH2 0x895 JUMP JUMPDEST SWAP2 POP DUP2 SWAP1 POP SWAP3 SWAP2 POP POP JUMP JUMPDEST PUSH1 0x0 PUSH1 0x40 MLOAD SWAP1 POP SWAP1 JUMP JUMPDEST PUSH1 0x0 DUP1 REVERT JUMPDEST PUSH1 0x0 DUP1 REVERT JUMPDEST PUSH1 0x0 PUSH20 0xFFFFFFFFFFFFFFFFFFFFFFFFFFFFFFFFFFFFFFFF DUP3 AND SWAP1 POP SWAP2 SWAP1 POP JUMP JUMPDEST PUSH1 0x0 PUSH2 0x96E DUP3 PUSH2 0x943 JUMP JUMPDEST SWAP1 POP SWAP2 SWAP1 POP JUMP JUMPDEST PUSH2 0x97E DUP2 PUSH2 0x963 JUMP JUMPDEST DUP2 EQ PUSH2 0x989 JUMPI PUSH1 0x0 DUP1 REVERT JUMPDEST POP JUMP JUMPDEST PUSH1 0x0 DUP2 CALLDATALOAD SWAP1 POP PUSH2 0x99B DUP2 PUSH2 0x975 JUMP JUMPDEST SWAP3 SWAP2 POP POP JUMP JUMPDEST PUSH1 0x0 PUSH1 0x20 DUP3 DUP5 SUB SLT ISZERO PUSH2 0x9B7 JUMPI PUSH2 0x9B6 PUSH2 0x939 JUMP JUMPDEST JUMPDEST PUSH1 0x0 PUSH2 0x9C5 DUP5 DUP3 DUP6 ADD PUSH2 0x98C JUMP JUMPDEST SWAP2 POP POP SWAP3 SWAP2 POP POP JUMP JUMPDEST PUSH1 0x0 DUP1 REVERT JUMPDEST PUSH1 0x0 DUP1 REVERT JUMPDEST PUSH1 0x0 PUSH1 0x1F NOT PUSH1 0x1F DUP4 ADD AND SWAP1 POP SWAP2 SWAP1 POP JUMP JUMPDEST PUSH32 0x4E487B7100000000000000000000000000000000000000000000000000000000 PUSH1 0x0 MSTORE PUSH1 0x41 PUSH1 0x4 MSTORE PUSH1 0x24 PUSH1 0x0 REVERT JUMPDEST PUSH2 0xA21 DUP3 PUSH2 0x9D8 JUMP JUMPDEST DUP2 ADD DUP2 DUP2 LT PUSH8 0xFFFFFFFFFFFFFFFF DUP3 GT OR ISZERO PUSH2 0xA40 JUMPI PUSH2 0xA3F PUSH2 0x9E9 JUMP JUMPDEST JUMPDEST DUP1 PUSH1 0x40 MSTORE POP POP POP JUMP JUMPDEST PUSH1 0x0 PUSH2 0xA53 PUSH2 0x92F JUMP JUMPDEST SWAP1 POP PUSH2 0xA5F DUP3 DUP3 PUSH2 0xA18 JUMP JUMPDEST SWAP2 SWAP1 POP JUMP JUMPDEST PUSH1 0x0 PUSH8 0xFFFFFFFFFFFFFFFF DUP3 GT ISZERO PUSH2 0xA7F JUMPI PUSH2 0xA7E PUSH2 0x9E9 JUMP JUMPDEST JUMPDEST PUSH2 0xA88 DUP3 PUSH2 0x9D8 JUMP JUMPDEST SWAP1 POP PUSH1 0x20 DUP2 ADD SWAP1 POP SWAP2 SWAP1 POP JUMP JUMPDEST DUP3 DUP2 DUP4 CALLDATACOPY PUSH1 0x0 DUP4 DUP4 ADD MSTORE POP POP POP JUMP JUMPDEST PUSH1 0x0 PUSH2 0xAB7 PUSH2 0xAB2 DUP5 PUSH2 0xA64 JUMP JUMPDEST PUSH2 0xA49 JUMP JUMPDEST SWAP1 POP DUP3 DUP2 MSTORE PUSH1 0x20 DUP2 ADD DUP5 DUP5 DUP5 ADD GT ISZERO PUSH2 0xAD3 JUMPI PUSH2 0xAD2 PUSH2 0x9D3 JUMP JUMPDEST JUMPDEST PUSH2 0xADE DUP5 DUP3 DUP6 PUSH2 0xA95 JUMP JUMPDEST POP SWAP4 SWAP3 POP POP POP JUMP JUMPDEST PUSH1 0x0 DUP3 PUSH1 0x1F DUP4 ADD SLT PUSH2 0xAFB JUMPI PUSH2 0xAFA PUSH2 0x9CE JUMP JUMPDEST JUMPDEST DUP2 CALLDATALOAD PUSH2 0xB0B DUP5 DUP3 PUSH1 0x20 DUP7 ADD PUSH2 0xAA4 JUMP JUMPDEST SWAP2 POP POP SWAP3 SWAP2 POP POP JUMP JUMPDEST PUSH1 0x0 DUP2 SWAP1 POP SWAP2 SWAP1 POP JUMP JUMPDEST PUSH2 0xB27 DUP2 PUSH2 0xB14 JUMP JUMPDEST DUP2 EQ PUSH2 0xB32 JUMPI PUSH1 0x0 DUP1 REVERT JUMPDEST POP JUMP JUMPDEST PUSH1 0x0 DUP2 CALLDATALOAD SWAP1 POP PUSH2 0xB44 DUP2 PUSH2 0xB1E JUMP JUMPDEST SWAP3 SWAP2 POP POP JUMP JUMPDEST PUSH1 0x0 DUP1 PUSH1 0x0 DUP1 PUSH1 0x0 PUSH1 0xA0 DUP7 DUP9 SUB SLT ISZERO PUSH2 0xB66 JUMPI PUSH2 0xB65 PUSH2 0x939 JUMP JUMPDEST JUMPDEST PUSH1 0x0 DUP7 ADD CALLDATALOAD PUSH8 0xFFFFFFFFFFFFFFFF DUP2 GT ISZERO PUSH2 0xB84 JUMPI PUSH2 0xB83 PUSH2 0x93E JUMP JUMPDEST JUMPDEST PUSH2 0xB90 DUP9 DUP3 DUP10 ADD PUSH2 0xAE6 JUMP JUMPDEST SWAP6 POP POP PUSH1 0x20 DUP7 ADD CALLDATALOAD PUSH8 0xFFFFFFFFFFFFFFFF DUP2 GT ISZERO PUSH2 0xBB1 JUMPI PUSH2 0xBB0 PUSH2 0x93E JUMP JUMPDEST JUMPDEST PUSH2 0xBBD DUP9 DUP3 DUP10 ADD PUSH2 0xAE6 JUMP JUMPDEST SWAP5 POP POP PUSH1 0x40 PUSH2 0xBCE DUP9 DUP3 DUP10 ADD PUSH2 0xB35 JUMP JUMPDEST SWAP4 POP POP PUSH1 0x60 DUP7 ADD CALLDATALOAD PUSH8 0xFFFFFFFFFFFFFFFF DUP2 GT ISZERO PUSH2 0xBEF JUMPI PUSH2 0xBEE PUSH2 0x93E JUMP JUMPDEST JUMPDEST PUSH2 0xBFB DUP9 DUP3 DUP10 ADD PUSH2 0xAE6 JUMP JUMPDEST SWAP3 POP POP PUSH1 0x80 DUP7 ADD CALLDATALOAD PUSH8 0xFFFFFFFFFFFFFFFF DUP2 GT ISZERO PUSH2 0xC1C JUMPI PUSH2 0xC1B PUSH2 0x93E JUMP JUMPDEST JUMPDEST PUSH2 0xC28 DUP9 DUP3 DUP10 ADD PUSH2 0xAE6 JUMP JUMPDEST SWAP2 POP POP SWAP3 SWAP6 POP SWAP3 SWAP6 SWAP1 SWAP4 POP JUMP JUMPDEST PUSH1 0x0 DUP2 ISZERO ISZERO SWAP1 POP SWAP2 SWAP1 POP JUMP JUMPDEST PUSH2 0xC4A DUP2 PUSH2 0xC35 JUMP JUMPDEST DUP3 MSTORE POP POP JUMP JUMPDEST PUSH1 0x0 PUSH1 0x20 DUP3 ADD SWAP1 POP PUSH2 0xC65 PUSH1 0x0 DUP4 ADD DUP5 PUSH2 0xC41 JUMP JUMPDEST SWAP3 SWAP2 POP POP JUMP JUMPDEST PUSH2 0xC74 DUP2 PUSH2 0x963 JUMP JUMPDEST DUP3 MSTORE POP POP JUMP JUMPDEST PUSH1 0x0 PUSH1 0x20 DUP3 ADD SWAP1 POP PUSH2 0xC8F PUSH1 0x0 DUP4 ADD DUP5 PUSH2 0xC6B JUMP JUMPDEST SWAP3 SWAP2 POP POP JUMP JUMPDEST PUSH1 0x0 PUSH1 0x20 DUP3 DUP5 SUB SLT ISZERO PUSH2 0xCAB JUMPI PUSH2 0xCAA PUSH2 0x939 JUMP JUMPDEST JUMPDEST PUSH1 0x0 DUP3 ADD CALLDATALOAD PUSH8 0xFFFFFFFFFFFFFFFF DUP2 GT ISZERO PUSH2 0xCC9 JUMPI PUSH2 0xCC8 PUSH2 0x93E JUMP JUMPDEST JUMPDEST PUSH2 0xCD5 DUP5 DUP3 DUP6 ADD PUSH2 0xAE6 JUMP JUMPDEST SWAP2 POP POP SWAP3 SWAP2 POP POP JUMP JUMPDEST PUSH2 0xCE7 DUP2 PUSH2 0xB14 JUMP JUMPDEST DUP3 MSTORE POP POP JUMP JUMPDEST PUSH1 0x0 PUSH1 0x20 DUP3 ADD SWAP1 POP PUSH2 0xD02 PUSH1 0x0 DUP4 ADD DUP5 PUSH2 0xCDE JUMP JUMPDEST SWAP3 SWAP2 POP POP JUMP JUMPDEST PUSH1 0x0 DUP1 PUSH1 0x40 DUP4 DUP6 SUB SLT ISZERO PUSH2 0xD1F JUMPI PUSH2 0xD1E PUSH2 0x939 JUMP JUMPDEST JUMPDEST PUSH1 0x0 DUP4 ADD CALLDATALOAD PUSH8 0xFFFFFFFFFFFFFFFF DUP2 GT ISZERO PUSH2 0xD3D JUMPI PUSH2 0xD3C PUSH2 0x93E JUMP JUMPDEST JUMPDEST PUSH2 0xD49 DUP6 DUP3 DUP7 ADD PUSH2 0xAE6 JUMP JUMPDEST SWAP3 POP POP PUSH1 0x20 PUSH2 0xD5A DUP6 DUP3 DUP7 ADD PUSH2 0x98C JUMP JUMPDEST SWAP2 POP POP SWAP3 POP SWAP3 SWAP1 POP JUMP JUMPDEST PUSH1 0x0 DUP3 DUP3 MSTORE PUSH1 0x20 DUP3 ADD SWAP1 POP SWAP3 SWAP2 POP POP JUMP JUMPDEST PUSH32 0x4F776E61626C653A2063616C6C6572206973206E6F7420746865206F776E6572 PUSH1 0x0 DUP3 ADD MSTORE POP JUMP JUMPDEST PUSH1 0x0 PUSH2 0xDAB PUSH1 0x20 DUP4 PUSH2 0xD64 JUMP JUMPDEST SWAP2 POP PUSH2 0xDB6 DUP3 PUSH2 0xD75 JUMP JUMPDEST PUSH1 0x20 DUP3 ADD SWAP1 POP SWAP2 SWAP1 POP JUMP JUMPDEST PUSH1 0x0 PUSH1 0x20 DUP3 ADD SWAP1 POP DUP2 DUP2 SUB PUSH1 0x0 DUP4 ADD MSTORE PUSH2 0xDDA DUP2 PUSH2 0xD9E JUMP JUMPDEST SWAP1 POP SWAP2 SWAP1 POP JUMP JUMPDEST PUSH1 0x0 DUP2 MLOAD SWAP1 POP SWAP2 SWAP1 POP JUMP JUMPDEST PUSH1 0x0 JUMPDEST DUP4 DUP2 LT ISZERO PUSH2 0xE0A JUMPI DUP1 DUP3 ADD MLOAD DUP2 DUP5 ADD MSTORE PUSH1 0x20 DUP2 ADD SWAP1 POP PUSH2 0xDEF JUMP JUMPDEST DUP4 DUP2 GT ISZERO PUSH2 0xE19 JUMPI PUSH1 0x0 DUP5 DUP5 ADD MSTORE JUMPDEST POP POP POP POP JUMP JUMPDEST PUSH1 0x0 PUSH2 0xE2A DUP3 PUSH2 0xDE1 JUMP JUMPDEST PUSH2 0xE34 DUP2 DUP6 PUSH2 0x875 JUMP JUMPDEST SWAP4 POP PUSH2 0xE44 DUP2 DUP6 PUSH1 0x20 DUP7 ADD PUSH2 0xDEC JUMP JUMPDEST DUP1 DUP5 ADD SWAP2 POP POP SWAP3 SWAP2 POP POP JUMP JUMPDEST PUSH1 0x0 PUSH2 0xE5C DUP3 DUP5 PUSH2 0xE1F JUMP JUMPDEST SWAP2 POP DUP2 SWAP1 POP SWAP3 SWAP2 POP POP JUMP JUMPDEST PUSH1 0x0 PUSH2 0xE72 DUP3 PUSH2 0xDE1 JUMP JUMPDEST PUSH2 0xE7C DUP2 DUP6 PUSH2 0xD64 JUMP JUMPDEST SWAP4 POP PUSH2 0xE8C DUP2 DUP6 PUSH1 0x20 DUP7 ADD PUSH2 0xDEC JUMP JUMPDEST PUSH2 0xE95 DUP2 PUSH2 0x9D8 JUMP JUMPDEST DUP5 ADD SWAP2 POP POP SWAP3 SWAP2 POP POP JUMP JUMPDEST PUSH1 0x0 PUSH1 0xA0 DUP3 ADD SWAP1 POP DUP2 DUP2 SUB PUSH1 0x0 DUP4 ADD MSTORE PUSH2 0xEBA DUP2 DUP9 PUSH2 0xE67 JUMP JUMPDEST SWAP1 POP DUP2 DUP2 SUB PUSH1 0x20 DUP4 ADD MSTORE PUSH2 0xECE DUP2 DUP8 PUSH2 0xE67 JUMP JUMPDEST SWAP1 POP PUSH2 0xEDD PUSH1 0x40 DUP4 ADD DUP7 PUSH2 0xCDE JUMP JUMPDEST DUP2 DUP2 SUB PUSH1 0x60 DUP4 ADD MSTORE PUSH2 0xEEF DUP2 DUP6 PUSH2 0xE67 JUMP JUMPDEST SWAP1 POP DUP2 DUP2 SUB PUSH1 0x80 DUP4 ADD MSTORE PUSH2 0xF03 DUP2 DUP5 PUSH2 0xE67 JUMP JUMPDEST SWAP1 POP SWAP7 SWAP6 POP POP POP POP POP POP JUMP JUMPDEST PUSH1 0x0 PUSH1 0x20 PUSH1 0x1F DUP4 ADD DIV SWAP1 POP SWAP2 SWAP1 POP JUMP JUMPDEST PUSH1 0x0 DUP3 DUP3 SHL SWAP1 POP SWAP3 SWAP2 POP POP JUMP JUMPDEST PUSH1 0x0 PUSH1 0x8 DUP4 MUL PUSH2 0xF5C PUSH32 0xFFFFFFFFFFFFFFFFFFFFFFFFFFFFFFFFFFFFFFFFFFFFFFFFFFFFFFFFFFFFFFFF DUP3 PUSH2 0xF1F JUMP JUMPDEST PUSH2 0xF66 DUP7 DUP4 PUSH2 0xF1F JUMP JUMPDEST SWAP6 POP DUP1 NOT DUP5 AND SWAP4 POP DUP1 DUP7 AND DUP5 OR SWAP3 POP POP POP SWAP4 SWAP3 POP POP POP JUMP JUMPDEST PUSH1 0x0 DUP2 SWAP1 POP SWAP2 SWAP1 POP JUMP JUMPDEST PUSH1 0x0 PUSH2 0xFA3 PUSH2 0xF9E PUSH2 0xF99 DUP5 PUSH2 0xB14 JUMP JUMPDEST PUSH2 0xF7E JUMP JUMPDEST PUSH2 0xB14 JUMP JUMPDEST SWAP1 POP SWAP2 SWAP1 POP JUMP JUMPDEST PUSH1 0x0 DUP2 SWAP1 POP SWAP2 SWAP1 POP JUMP JUMPDEST PUSH2 0xFBD DUP4 PUSH2 0xF88 JUMP JUMPDEST PUSH2 0xFD1 PUSH2 0xFC9 DUP3 PUSH2 0xFAA JUMP JUMPDEST DUP5 DUP5 SLOAD PUSH2 0xF2C JUMP JUMPDEST DUP3 SSTORE POP POP POP POP JUMP JUMPDEST PUSH1 0x0 SWAP1 JUMP JUMPDEST PUSH2 0xFE6 PUSH2 0xFD9 JUMP JUMPDEST PUSH2 0xFF1 DUP2 DUP5 DUP5 PUSH2 0xFB4 JUMP JUMPDEST POP POP POP JUMP JUMPDEST JUMPDEST DUP2 DUP2 LT ISZERO PUSH2 0x1015 JUMPI PUSH2 0x100A PUSH1 0x0 DUP3 PUSH2 0xFDE JUMP JUMPDEST PUSH1 0x1 DUP2 ADD SWAP1 POP PUSH2 0xFF7 JUMP JUMPDEST POP POP JUMP JUMPDEST PUSH1 0x1F DUP3 GT ISZERO PUSH2 0x105A JUMPI PUSH2 0x102B DUP2 PUSH2 0x880 JUMP JUMPDEST PUSH2 0x1034 DUP5 PUSH2 0xF0F JUMP JUMPDEST DUP2 ADD PUSH1 0x20 DUP6 LT ISZERO PUSH2 0x1043 JUMPI DUP2 SWAP1 POP JUMPDEST PUSH2 0x1057 PUSH2 0x104F DUP6 PUSH2 0xF0F JUMP JUMPDEST DUP4 ADD DUP3 PUSH2 0xFF6 JUMP JUMPDEST POP POP JUMPDEST POP POP POP JUMP JUMPDEST PUSH1 0x0 DUP3 DUP3 SHR SWAP1 POP SWAP3 SWAP2 POP POP JUMP JUMPDEST PUSH1 0x0 PUSH2 0x107D PUSH1 0x0 NOT DUP5 PUSH1 0x8 MUL PUSH2 0x105F JUMP JUMPDEST NOT DUP1 DUP4 AND SWAP2 POP POP SWAP3 SWAP2 POP POP JUMP JUMPDEST PUSH1 0x0 PUSH2 0x1096 DUP4 DUP4 PUSH2 0x106C JUMP JUMPDEST SWAP2 POP DUP3 PUSH1 0x2 MUL DUP3 OR SWAP1 POP SWAP3 SWAP2 POP POP JUMP JUMPDEST PUSH2 0x10AF DUP3 PUSH2 0xDE1 JUMP JUMPDEST PUSH8 0xFFFFFFFFFFFFFFFF DUP2 GT ISZERO PUSH2 0x10C8 JUMPI PUSH2 0x10C7 PUSH2 0x9E9 JUMP JUMPDEST JUMPDEST PUSH2 0x10D2 DUP3 SLOAD PUSH2 0x844 JUMP JUMPDEST PUSH2 0x10DD DUP3 DUP3 DUP6 PUSH2 0x1019 JUMP JUMPDEST PUSH1 0x0 PUSH1 0x20 SWAP1 POP PUSH1 0x1F DUP4 GT PUSH1 0x1 DUP2 EQ PUSH2 0x1110 JUMPI PUSH1 0x0 DUP5 ISZERO PUSH2 0x10FE JUMPI DUP3 DUP8 ADD MLOAD SWAP1 POP JUMPDEST PUSH2 0x1108 DUP6 DUP3 PUSH2 0x108A JUMP JUMPDEST DUP7 SSTORE POP PUSH2 0x1170 JUMP JUMPDEST PUSH1 0x1F NOT DUP5 AND PUSH2 0x111E DUP7 PUSH2 0x880 JUMP JUMPDEST PUSH1 0x0 JUMPDEST DUP3 DUP2 LT ISZERO PUSH2 0x1146 JUMPI DUP5 DUP10 ADD MLOAD DUP3 SSTORE PUSH1 0x1 DUP3 ADD SWAP2 POP PUSH1 0x20 DUP6 ADD SWAP5 POP PUSH1 0x20 DUP2 ADD SWAP1 POP PUSH2 0x1121 JUMP JUMPDEST DUP7 DUP4 LT ISZERO PUSH2 0x1163 JUMPI DUP5 DUP10 ADD MLOAD PUSH2 0x115F PUSH1 0x1F DUP10 AND DUP3 PUSH2 0x106C JUMP JUMPDEST DUP4 SSTORE POP JUMPDEST PUSH1 0x1 PUSH1 0x2 DUP9 MUL ADD DUP9 SSTORE POP POP POP JUMPDEST POP POP POP POP POP POP JUMP INVALID LOG2 PUSH5 0x6970667358 0x22 SLT KECCAK256 DUP15 0xEB 0x4E 0xC 0xD9 DUP8 0xB9 DUP13 BASEFEE PUSH22 0x15842B1FDA9B14B905C2DD7ABDDDDD9EB57E2D884187 PUSH5 0x736F6C6343 STOP ADDMOD 0xF STOP CALLER "
				},
				"gasEstimates": {
					"creation": {
						"codeDepositCost": "905200",
						"executionCost": "49474",
						"totalCost": "954674"
					},
					"external": {
						"_owner()": "2511",
						"isOwner()": "2563",
						"issueCertificate(string,string,uint256,string,string)": "infinite",
						"returnStakedEther(address)": "475",
						"setAdmin(address)": "26972",
						"setOwner(address)": "26928",
						"stakedAmount(address)": "2880",
						"updateCertificateRecipient(string)": "infinite",
						"updateCertificateRecipientForStaking(string,address)": "infinite"
					}
				},
				"methodIdentifiers": {
					"_owner()": "b2bdfa7b",
					"isOwner()": "8f32d59b",
					"issueCertificate(string,string,uint256,string,string)": "5bbe4ac3",
					"returnStakedEther(address)": "e9e65331",
					"setAdmin(address)": "704b6c02",
					"setOwner(address)": "13af4035",
					"stakedAmount(address)": "f9931855",
					"updateCertificateRecipient(string)": "e9351558",
					"updateCertificateRecipientForStaking(string,address)": "fe49048a"
				}
			},
			"storageLayout": {
				"storage": [
					{
						"astId": 214,
						"contract": "certificateissuer.sol:CertificateIssuer",
						"label": "_owner",
						"offset": 0,
						"slot": "0",
						"type": "t_address"
					},
					{
						"astId": 29,
						"contract": "certificateissuer.sol:CertificateIssuer",
						"label": "cauthValid",
						"offset": 0,
						"slot": "1",
						"type": "t_mapping(t_string_memory_ptr,t_bool)"
					},
					{
						"astId": 33,
						"contract": "certificateissuer.sol:CertificateIssuer",
						"label": "cauthToCanStake",
						"offset": 0,
						"slot": "2",
						"type": "t_mapping(t_string_memory_ptr,t_bool)"
					},
					{
						"astId": 37,
						"contract": "certificateissuer.sol:CertificateIssuer",
						"label": "cauthToAddress",
						"offset": 0,
						"slot": "3",
						"type": "t_mapping(t_string_memory_ptr,t_address)"
					},
					{
						"astId": 39,
						"contract": "certificateissuer.sol:CertificateIssuer",
						"label": "_admin",
						"offset": 0,
						"slot": "4",
						"type": "t_address"
					},
					{
						"astId": 43,
						"contract": "certificateissuer.sol:CertificateIssuer",
						"label": "adressToCauth",
						"offset": 0,
						"slot": "5",
						"type": "t_mapping(t_address,t_string_storage)"
					},
					{
						"astId": 47,
						"contract": "certificateissuer.sol:CertificateIssuer",
						"label": "stakedAmount",
						"offset": 0,
						"slot": "6",
						"type": "t_mapping(t_address,t_uint256)"
					}
				],
				"types": {
					"t_address": {
						"encoding": "inplace",
						"label": "address",
						"numberOfBytes": "20"
					},
					"t_bool": {
						"encoding": "inplace",
						"label": "bool",
						"numberOfBytes": "1"
					},
					"t_mapping(t_address,t_string_storage)": {
						"encoding": "mapping",
						"key": "t_address",
						"label": "mapping(address => string)",
						"numberOfBytes": "32",
						"value": "t_string_storage"
					},
					"t_mapping(t_address,t_uint256)": {
						"encoding": "mapping",
						"key": "t_address",
						"label": "mapping(address => uint256)",
						"numberOfBytes": "32",
						"value": "t_uint256"
					},
					"t_mapping(t_string_memory_ptr,t_address)": {
						"encoding": "mapping",
						"key": "t_string_memory_ptr",
						"label": "mapping(string => address)",
						"numberOfBytes": "32",
						"value": "t_address"
					},
					"t_mapping(t_string_memory_ptr,t_bool)": {
						"encoding": "mapping",
						"key": "t_string_memory_ptr",
						"label": "mapping(string => bool)",
						"numberOfBytes": "32",
						"value": "t_bool"
					},
					"t_string_memory_ptr": {
						"encoding": "bytes",
						"label": "string",
						"numberOfBytes": "32"
					},
					"t_string_storage": {
						"encoding": "bytes",
						"label": "string",
						"numberOfBytes": "32"
					},
					"t_uint256": {
						"encoding": "inplace",
						"label": "uint256",
						"numberOfBytes": "32"
					}
				}
			},
			"userdoc": {
				"kind": "user",
				"methods": {},
				"version": 1
			}
		}
	}
}