{
	"certificateissuer.sol": {
		"CertificateIssuer": {
			"abi": [
				{
					"inputs": [
						{
							"internalType": "string",
							"name": "_name",
							"type": "string"
						},
						{
							"internalType": "string",
							"name": "_nation",
							"type": "string"
						},
						{
							"internalType": "uint256",
							"name": "_nid",
							"type": "uint256"
						},
						{
							"internalType": "uint256",
							"name": "institute",
							"type": "uint256"
						},
						{
							"internalType": "string",
							"name": "cauth",
							"type": "string"
						}
					],
					"name": "issueCertificate",
					"outputs": [],
					"stateMutability": "payable",
					"type": "function"
				}
			],
			"devdoc": {
				"kind": "dev",
				"methods": {},
				"version": 1
			},
			"evm": {
				"assembly": "    /* \"certificateissuer.sol\":105:1599  contract CertificateIssuer{... */\n  mstore(0x40, 0x80)\n  callvalue\n  dup1\n  iszero\n  tag_1\n  jumpi\n  0x00\n  dup1\n  revert\ntag_1:\n  pop\n  dataSize(sub_0)\n  dup1\n  dataOffset(sub_0)\n  0x00\n  codecopy\n  0x00\n  return\nstop\n\nsub_0: assembly {\n        /* \"certificateissuer.sol\":105:1599  contract CertificateIssuer{... */\n      mstore(0x40, 0x80)\n      jumpi(tag_1, lt(calldatasize, 0x04))\n      shr(0xe0, calldataload(0x00))\n      dup1\n      0x3f59c657\n      eq\n      tag_2\n      jumpi\n    tag_1:\n      0x00\n      dup1\n      revert\n        /* \"certificateissuer.sol\":1119:1414  function issueCertificate(string memory _name , string memory _nation, uint _nid , uint institute, string memory cauth ) external payable {... */\n    tag_2:\n      tag_3\n      0x04\n      dup1\n      calldatasize\n      sub\n      dup2\n      add\n      swap1\n      tag_4\n      swap2\n      swap1\n      tag_5\n      jump\t// in\n    tag_4:\n      tag_6\n      jump\t// in\n    tag_3:\n      stop\n    tag_6:\n      pop\n      pop\n      pop\n      pop\n      pop\n      jump\t// out\n        /* \"#utility.yul\":7:82   */\n    tag_8:\n        /* \"#utility.yul\":40:46   */\n      0x00\n        /* \"#utility.yul\":73:75   */\n      0x40\n        /* \"#utility.yul\":67:76   */\n      mload\n        /* \"#utility.yul\":57:76   */\n      swap1\n      pop\n        /* \"#utility.yul\":7:82   */\n      swap1\n      jump\t// out\n        /* \"#utility.yul\":88:205   */\n    tag_9:\n        /* \"#utility.yul\":197:198   */\n      0x00\n        /* \"#utility.yul\":194:195   */\n      dup1\n        /* \"#utility.yul\":187:199   */\n      revert\n        /* \"#utility.yul\":211:328   */\n    tag_10:\n        /* \"#utility.yul\":320:321   */\n      0x00\n        /* \"#utility.yul\":317:318   */\n      dup1\n        /* \"#utility.yul\":310:322   */\n      revert\n        /* \"#utility.yul\":334:451   */\n    tag_11:\n        /* \"#utility.yul\":443:444   */\n      0x00\n        /* \"#utility.yul\":440:441   */\n      dup1\n        /* \"#utility.yul\":433:445   */\n      revert\n        /* \"#utility.yul\":457:574   */\n    tag_12:\n        /* \"#utility.yul\":566:567   */\n      0x00\n        /* \"#utility.yul\":563:564   */\n      dup1\n        /* \"#utility.yul\":556:568   */\n      revert\n        /* \"#utility.yul\":580:682   */\n    tag_13:\n        /* \"#utility.yul\":621:627   */\n      0x00\n        /* \"#utility.yul\":672:674   */\n      0x1f\n        /* \"#utility.yul\":668:675   */\n      not\n        /* \"#utility.yul\":663:665   */\n      0x1f\n        /* \"#utility.yul\":656:661   */\n      dup4\n        /* \"#utility.yul\":652:666   */\n      add\n        /* \"#utility.yul\":648:676   */\n      and\n        /* \"#utility.yul\":638:676   */\n      swap1\n      pop\n        /* \"#utility.yul\":580:682   */\n      swap2\n      swap1\n      pop\n      jump\t// out\n        /* \"#utility.yul\":688:868   */\n    tag_14:\n        /* \"#utility.yul\":736:813   */\n      0x4e487b7100000000000000000000000000000000000000000000000000000000\n        /* \"#utility.yul\":733:734   */\n      0x00\n        /* \"#utility.yul\":726:814   */\n      mstore\n        /* \"#utility.yul\":833:837   */\n      0x41\n        /* \"#utility.yul\":830:831   */\n      0x04\n        /* \"#utility.yul\":823:838   */\n      mstore\n        /* \"#utility.yul\":857:861   */\n      0x24\n        /* \"#utility.yul\":854:855   */\n      0x00\n        /* \"#utility.yul\":847:862   */\n      revert\n        /* \"#utility.yul\":874:1155   */\n    tag_15:\n        /* \"#utility.yul\":957:984   */\n      tag_33\n        /* \"#utility.yul\":979:983   */\n      dup3\n        /* \"#utility.yul\":957:984   */\n      tag_13\n      jump\t// in\n    tag_33:\n        /* \"#utility.yul\":949:955   */\n      dup2\n        /* \"#utility.yul\":945:985   */\n      add\n        /* \"#utility.yul\":1087:1093   */\n      dup2\n        /* \"#utility.yul\":1075:1085   */\n      dup2\n        /* \"#utility.yul\":1072:1094   */\n      lt\n        /* \"#utility.yul\":1051:1069   */\n      0xffffffffffffffff\n        /* \"#utility.yul\":1039:1049   */\n      dup3\n        /* \"#utility.yul\":1036:1070   */\n      gt\n        /* \"#utility.yul\":1033:1095   */\n      or\n        /* \"#utility.yul\":1030:1118   */\n      iszero\n      tag_34\n      jumpi\n        /* \"#utility.yul\":1098:1116   */\n      tag_35\n      tag_14\n      jump\t// in\n    tag_35:\n        /* \"#utility.yul\":1030:1118   */\n    tag_34:\n        /* \"#utility.yul\":1138:1148   */\n      dup1\n        /* \"#utility.yul\":1134:1136   */\n      0x40\n        /* \"#utility.yul\":1127:1149   */\n      mstore\n        /* \"#utility.yul\":917:1155   */\n      pop\n        /* \"#utility.yul\":874:1155   */\n      pop\n      pop\n      jump\t// out\n        /* \"#utility.yul\":1161:1290   */\n    tag_16:\n        /* \"#utility.yul\":1195:1201   */\n      0x00\n        /* \"#utility.yul\":1222:1242   */\n      tag_37\n      tag_8\n      jump\t// in\n    tag_37:\n        /* \"#utility.yul\":1212:1242   */\n      swap1\n      pop\n        /* \"#utility.yul\":1251:1284   */\n      tag_38\n        /* \"#utility.yul\":1279:1283   */\n      dup3\n        /* \"#utility.yul\":1271:1277   */\n      dup3\n        /* \"#utility.yul\":1251:1284   */\n      tag_15\n      jump\t// in\n    tag_38:\n        /* \"#utility.yul\":1161:1290   */\n      swap2\n      swap1\n      pop\n      jump\t// out\n        /* \"#utility.yul\":1296:1604   */\n    tag_17:\n        /* \"#utility.yul\":1358:1362   */\n      0x00\n        /* \"#utility.yul\":1448:1466   */\n      0xffffffffffffffff\n        /* \"#utility.yul\":1440:1446   */\n      dup3\n        /* \"#utility.yul\":1437:1467   */\n      gt\n        /* \"#utility.yul\":1434:1490   */\n      iszero\n      tag_40\n      jumpi\n        /* \"#utility.yul\":1470:1488   */\n      tag_41\n      tag_14\n      jump\t// in\n    tag_41:\n        /* \"#utility.yul\":1434:1490   */\n    tag_40:\n        /* \"#utility.yul\":1508:1537   */\n      tag_42\n        /* \"#utility.yul\":1530:1536   */\n      dup3\n        /* \"#utility.yul\":1508:1537   */\n      tag_13\n      jump\t// in\n    tag_42:\n        /* \"#utility.yul\":1500:1537   */\n      swap1\n      pop\n        /* \"#utility.yul\":1592:1596   */\n      0x20\n        /* \"#utility.yul\":1586:1590   */\n      dup2\n        /* \"#utility.yul\":1582:1597   */\n      add\n        /* \"#utility.yul\":1574:1597   */\n      swap1\n      pop\n        /* \"#utility.yul\":1296:1604   */\n      swap2\n      swap1\n      pop\n      jump\t// out\n        /* \"#utility.yul\":1610:1764   */\n    tag_18:\n        /* \"#utility.yul\":1694:1700   */\n      dup3\n        /* \"#utility.yul\":1689:1692   */\n      dup2\n        /* \"#utility.yul\":1684:1687   */\n      dup4\n        /* \"#utility.yul\":1671:1701   */\n      calldatacopy\n        /* \"#utility.yul\":1756:1757   */\n      0x00\n        /* \"#utility.yul\":1747:1753   */\n      dup4\n        /* \"#utility.yul\":1742:1745   */\n      dup4\n        /* \"#utility.yul\":1738:1754   */\n      add\n        /* \"#utility.yul\":1731:1758   */\n      mstore\n        /* \"#utility.yul\":1610:1764   */\n      pop\n      pop\n      pop\n      jump\t// out\n        /* \"#utility.yul\":1770:2182   */\n    tag_19:\n        /* \"#utility.yul\":1848:1853   */\n      0x00\n        /* \"#utility.yul\":1873:1939   */\n      tag_45\n        /* \"#utility.yul\":1889:1938   */\n      tag_46\n        /* \"#utility.yul\":1931:1937   */\n      dup5\n        /* \"#utility.yul\":1889:1938   */\n      tag_17\n      jump\t// in\n    tag_46:\n        /* \"#utility.yul\":1873:1939   */\n      tag_16\n      jump\t// in\n    tag_45:\n        /* \"#utility.yul\":1864:1939   */\n      swap1\n      pop\n        /* \"#utility.yul\":1962:1968   */\n      dup3\n        /* \"#utility.yul\":1955:1960   */\n      dup2\n        /* \"#utility.yul\":1948:1969   */\n      mstore\n        /* \"#utility.yul\":2000:2004   */\n      0x20\n        /* \"#utility.yul\":1993:1998   */\n      dup2\n        /* \"#utility.yul\":1989:2005   */\n      add\n        /* \"#utility.yul\":2038:2041   */\n      dup5\n        /* \"#utility.yul\":2029:2035   */\n      dup5\n        /* \"#utility.yul\":2024:2027   */\n      dup5\n        /* \"#utility.yul\":2020:2036   */\n      add\n        /* \"#utility.yul\":2017:2042   */\n      gt\n        /* \"#utility.yul\":2014:2126   */\n      iszero\n      tag_47\n      jumpi\n        /* \"#utility.yul\":2045:2124   */\n      tag_48\n      tag_12\n      jump\t// in\n    tag_48:\n        /* \"#utility.yul\":2014:2126   */\n    tag_47:\n        /* \"#utility.yul\":2135:2176   */\n      tag_49\n        /* \"#utility.yul\":2169:2175   */\n      dup5\n        /* \"#utility.yul\":2164:2167   */\n      dup3\n        /* \"#utility.yul\":2159:2162   */\n      dup6\n        /* \"#utility.yul\":2135:2176   */\n      tag_18\n      jump\t// in\n    tag_49:\n        /* \"#utility.yul\":1854:2182   */\n      pop\n        /* \"#utility.yul\":1770:2182   */\n      swap4\n      swap3\n      pop\n      pop\n      pop\n      jump\t// out\n        /* \"#utility.yul\":2202:2542   */\n    tag_20:\n        /* \"#utility.yul\":2258:2263   */\n      0x00\n        /* \"#utility.yul\":2307:2310   */\n      dup3\n        /* \"#utility.yul\":2300:2304   */\n      0x1f\n        /* \"#utility.yul\":2292:2298   */\n      dup4\n        /* \"#utility.yul\":2288:2305   */\n      add\n        /* \"#utility.yul\":2284:2311   */\n      slt\n        /* \"#utility.yul\":2274:2396   */\n      tag_51\n      jumpi\n        /* \"#utility.yul\":2315:2394   */\n      tag_52\n      tag_11\n      jump\t// in\n    tag_52:\n        /* \"#utility.yul\":2274:2396   */\n    tag_51:\n        /* \"#utility.yul\":2432:2438   */\n      dup2\n        /* \"#utility.yul\":2419:2439   */\n      calldataload\n        /* \"#utility.yul\":2457:2536   */\n      tag_53\n        /* \"#utility.yul\":2532:2535   */\n      dup5\n        /* \"#utility.yul\":2524:2530   */\n      dup3\n        /* \"#utility.yul\":2517:2521   */\n      0x20\n        /* \"#utility.yul\":2509:2515   */\n      dup7\n        /* \"#utility.yul\":2505:2522   */\n      add\n        /* \"#utility.yul\":2457:2536   */\n      tag_19\n      jump\t// in\n    tag_53:\n        /* \"#utility.yul\":2448:2536   */\n      swap2\n      pop\n        /* \"#utility.yul\":2264:2542   */\n      pop\n        /* \"#utility.yul\":2202:2542   */\n      swap3\n      swap2\n      pop\n      pop\n      jump\t// out\n        /* \"#utility.yul\":2548:2625   */\n    tag_21:\n        /* \"#utility.yul\":2585:2592   */\n      0x00\n        /* \"#utility.yul\":2614:2619   */\n      dup2\n        /* \"#utility.yul\":2603:2619   */\n      swap1\n      pop\n        /* \"#utility.yul\":2548:2625   */\n      swap2\n      swap1\n      pop\n      jump\t// out\n        /* \"#utility.yul\":2631:2753   */\n    tag_22:\n        /* \"#utility.yul\":2704:2728   */\n      tag_56\n        /* \"#utility.yul\":2722:2727   */\n      dup2\n        /* \"#utility.yul\":2704:2728   */\n      tag_21\n      jump\t// in\n    tag_56:\n        /* \"#utility.yul\":2697:2702   */\n      dup2\n        /* \"#utility.yul\":2694:2729   */\n      eq\n        /* \"#utility.yul\":2684:2747   */\n      tag_57\n      jumpi\n        /* \"#utility.yul\":2743:2744   */\n      0x00\n        /* \"#utility.yul\":2740:2741   */\n      dup1\n        /* \"#utility.yul\":2733:2745   */\n      revert\n        /* \"#utility.yul\":2684:2747   */\n    tag_57:\n        /* \"#utility.yul\":2631:2753   */\n      pop\n      jump\t// out\n        /* \"#utility.yul\":2759:2898   */\n    tag_23:\n        /* \"#utility.yul\":2805:2810   */\n      0x00\n        /* \"#utility.yul\":2843:2849   */\n      dup2\n        /* \"#utility.yul\":2830:2850   */\n      calldataload\n        /* \"#utility.yul\":2821:2850   */\n      swap1\n      pop\n        /* \"#utility.yul\":2859:2892   */\n      tag_59\n        /* \"#utility.yul\":2886:2891   */\n      dup2\n        /* \"#utility.yul\":2859:2892   */\n      tag_22\n      jump\t// in\n    tag_59:\n        /* \"#utility.yul\":2759:2898   */\n      swap3\n      swap2\n      pop\n      pop\n      jump\t// out\n        /* \"#utility.yul\":2904:4355   */\n    tag_5:\n        /* \"#utility.yul\":3029:3035   */\n      0x00\n        /* \"#utility.yul\":3037:3043   */\n      dup1\n        /* \"#utility.yul\":3045:3051   */\n      0x00\n        /* \"#utility.yul\":3053:3059   */\n      dup1\n        /* \"#utility.yul\":3061:3067   */\n      0x00\n        /* \"#utility.yul\":3110:3113   */\n      0xa0\n        /* \"#utility.yul\":3098:3107   */\n      dup7\n        /* \"#utility.yul\":3089:3096   */\n      dup9\n        /* \"#utility.yul\":3085:3108   */\n      sub\n        /* \"#utility.yul\":3081:3114   */\n      slt\n        /* \"#utility.yul\":3078:3198   */\n      iszero\n      tag_61\n      jumpi\n        /* \"#utility.yul\":3117:3196   */\n      tag_62\n      tag_9\n      jump\t// in\n    tag_62:\n        /* \"#utility.yul\":3078:3198   */\n    tag_61:\n        /* \"#utility.yul\":3265:3266   */\n      0x00\n        /* \"#utility.yul\":3254:3263   */\n      dup7\n        /* \"#utility.yul\":3250:3267   */\n      add\n        /* \"#utility.yul\":3237:3268   */\n      calldataload\n        /* \"#utility.yul\":3295:3313   */\n      0xffffffffffffffff\n        /* \"#utility.yul\":3287:3293   */\n      dup2\n        /* \"#utility.yul\":3284:3314   */\n      gt\n        /* \"#utility.yul\":3281:3398   */\n      iszero\n      tag_63\n      jumpi\n        /* \"#utility.yul\":3317:3396   */\n      tag_64\n      tag_10\n      jump\t// in\n    tag_64:\n        /* \"#utility.yul\":3281:3398   */\n    tag_63:\n        /* \"#utility.yul\":3422:3485   */\n      tag_65\n        /* \"#utility.yul\":3477:3484   */\n      dup9\n        /* \"#utility.yul\":3468:3474   */\n      dup3\n        /* \"#utility.yul\":3457:3466   */\n      dup10\n        /* \"#utility.yul\":3453:3475   */\n      add\n        /* \"#utility.yul\":3422:3485   */\n      tag_20\n      jump\t// in\n    tag_65:\n        /* \"#utility.yul\":3412:3485   */\n      swap6\n      pop\n        /* \"#utility.yul\":3208:3495   */\n      pop\n        /* \"#utility.yul\":3562:3564   */\n      0x20\n        /* \"#utility.yul\":3551:3560   */\n      dup7\n        /* \"#utility.yul\":3547:3565   */\n      add\n        /* \"#utility.yul\":3534:3566   */\n      calldataload\n        /* \"#utility.yul\":3593:3611   */\n      0xffffffffffffffff\n        /* \"#utility.yul\":3585:3591   */\n      dup2\n        /* \"#utility.yul\":3582:3612   */\n      gt\n        /* \"#utility.yul\":3579:3696   */\n      iszero\n      tag_66\n      jumpi\n        /* \"#utility.yul\":3615:3694   */\n      tag_67\n      tag_10\n      jump\t// in\n    tag_67:\n        /* \"#utility.yul\":3579:3696   */\n    tag_66:\n        /* \"#utility.yul\":3720:3783   */\n      tag_68\n        /* \"#utility.yul\":3775:3782   */\n      dup9\n        /* \"#utility.yul\":3766:3772   */\n      dup3\n        /* \"#utility.yul\":3755:3764   */\n      dup10\n        /* \"#utility.yul\":3751:3773   */\n      add\n        /* \"#utility.yul\":3720:3783   */\n      tag_20\n      jump\t// in\n    tag_68:\n        /* \"#utility.yul\":3710:3783   */\n      swap5\n      pop\n        /* \"#utility.yul\":3505:3793   */\n      pop\n        /* \"#utility.yul\":3832:3834   */\n      0x40\n        /* \"#utility.yul\":3858:3911   */\n      tag_69\n        /* \"#utility.yul\":3903:3910   */\n      dup9\n        /* \"#utility.yul\":3894:3900   */\n      dup3\n        /* \"#utility.yul\":3883:3892   */\n      dup10\n        /* \"#utility.yul\":3879:3901   */\n      add\n        /* \"#utility.yul\":3858:3911   */\n      tag_23\n      jump\t// in\n    tag_69:\n        /* \"#utility.yul\":3848:3911   */\n      swap4\n      pop\n        /* \"#utility.yul\":3803:3921   */\n      pop\n        /* \"#utility.yul\":3960:3962   */\n      0x60\n        /* \"#utility.yul\":3986:4039   */\n      tag_70\n        /* \"#utility.yul\":4031:4038   */\n      dup9\n        /* \"#utility.yul\":4022:4028   */\n      dup3\n        /* \"#utility.yul\":4011:4020   */\n      dup10\n        /* \"#utility.yul\":4007:4029   */\n      add\n        /* \"#utility.yul\":3986:4039   */\n      tag_23\n      jump\t// in\n    tag_70:\n        /* \"#utility.yul\":3976:4039   */\n      swap3\n      pop\n        /* \"#utility.yul\":3931:4049   */\n      pop\n        /* \"#utility.yul\":4116:4119   */\n      0x80\n        /* \"#utility.yul\":4105:4114   */\n      dup7\n        /* \"#utility.yul\":4101:4120   */\n      add\n        /* \"#utility.yul\":4088:4121   */\n      calldataload\n        /* \"#utility.yul\":4148:4166   */\n      0xffffffffffffffff\n        /* \"#utility.yul\":4140:4146   */\n      dup2\n        /* \"#utility.yul\":4137:4167   */\n      gt\n        /* \"#utility.yul\":4134:4251   */\n      iszero\n      tag_71\n      jumpi\n        /* \"#utility.yul\":4170:4249   */\n      tag_72\n      tag_10\n      jump\t// in\n    tag_72:\n        /* \"#utility.yul\":4134:4251   */\n    tag_71:\n        /* \"#utility.yul\":4275:4338   */\n      tag_73\n        /* \"#utility.yul\":4330:4337   */\n      dup9\n        /* \"#utility.yul\":4321:4327   */\n      dup3\n        /* \"#utility.yul\":4310:4319   */\n      dup10\n        /* \"#utility.yul\":4306:4328   */\n      add\n        /* \"#utility.yul\":4275:4338   */\n      tag_20\n      jump\t// in\n    tag_73:\n        /* \"#utility.yul\":4265:4338   */\n      swap2\n      pop\n        /* \"#utility.yul\":4059:4348   */\n      pop\n        /* \"#utility.yul\":2904:4355   */\n      swap3\n      swap6\n      pop\n      swap3\n      swap6\n      swap1\n      swap4\n      pop\n      jump\t// out\n\n    auxdata: 0xa26469706673582212208a6cd43d16297ececeb50387b054d383c8d74780f2bb9f924a9a641b6146fb2364736f6c634300080f0033\n}\n",
				"bytecode": {
					"linkReferences": {},
					"object": "608060405234801561001057600080fd5b506102db806100206000396000f3fe60806040526004361061001e5760003560e01c80633f59c65714610023575b600080fd5b61003d600480360381019061003891906101d6565b61003f565b005b5050505050565b6000604051905090565b600080fd5b600080fd5b600080fd5b600080fd5b6000601f19601f8301169050919050565b7f4e487b7100000000000000000000000000000000000000000000000000000000600052604160045260246000fd5b6100ad82610064565b810181811067ffffffffffffffff821117156100cc576100cb610075565b5b80604052505050565b60006100df610046565b90506100eb82826100a4565b919050565b600067ffffffffffffffff82111561010b5761010a610075565b5b61011482610064565b9050602081019050919050565b82818337600083830152505050565b600061014361013e846100f0565b6100d5565b90508281526020810184848401111561015f5761015e61005f565b5b61016a848285610121565b509392505050565b600082601f8301126101875761018661005a565b5b8135610197848260208601610130565b91505092915050565b6000819050919050565b6101b3816101a0565b81146101be57600080fd5b50565b6000813590506101d0816101aa565b92915050565b600080600080600060a086880312156101f2576101f1610050565b5b600086013567ffffffffffffffff8111156102105761020f610055565b5b61021c88828901610172565b955050602086013567ffffffffffffffff81111561023d5761023c610055565b5b61024988828901610172565b945050604061025a888289016101c1565b935050606061026b888289016101c1565b925050608086013567ffffffffffffffff81111561028c5761028b610055565b5b61029888828901610172565b915050929550929590935056fea26469706673582212208a6cd43d16297ececeb50387b054d383c8d74780f2bb9f924a9a641b6146fb2364736f6c634300080f0033",
					"opcodes": "PUSH1 0x80 PUSH1 0x40 MSTORE CALLVALUE DUP1 ISZERO PUSH2 0x10 JUMPI PUSH1 0x0 DUP1 REVERT JUMPDEST POP PUSH2 0x2DB DUP1 PUSH2 0x20 PUSH1 0x0 CODECOPY PUSH1 0x0 RETURN INVALID PUSH1 0x80 PUSH1 0x40 MSTORE PUSH1 0x4 CALLDATASIZE LT PUSH2 0x1E JUMPI PUSH1 0x0 CALLDATALOAD PUSH1 0xE0 SHR DUP1 PUSH4 0x3F59C657 EQ PUSH2 0x23 JUMPI JUMPDEST PUSH1 0x0 DUP1 REVERT JUMPDEST PUSH2 0x3D PUSH1 0x4 DUP1 CALLDATASIZE SUB DUP2 ADD SWAP1 PUSH2 0x38 SWAP2 SWAP1 PUSH2 0x1D6 JUMP JUMPDEST PUSH2 0x3F JUMP JUMPDEST STOP JUMPDEST POP POP POP POP POP JUMP JUMPDEST PUSH1 0x0 PUSH1 0x40 MLOAD SWAP1 POP SWAP1 JUMP JUMPDEST PUSH1 0x0 DUP1 REVERT JUMPDEST PUSH1 0x0 DUP1 REVERT JUMPDEST PUSH1 0x0 DUP1 REVERT JUMPDEST PUSH1 0x0 DUP1 REVERT JUMPDEST PUSH1 0x0 PUSH1 0x1F NOT PUSH1 0x1F DUP4 ADD AND SWAP1 POP SWAP2 SWAP1 POP JUMP JUMPDEST PUSH32 0x4E487B7100000000000000000000000000000000000000000000000000000000 PUSH1 0x0 MSTORE PUSH1 0x41 PUSH1 0x4 MSTORE PUSH1 0x24 PUSH1 0x0 REVERT JUMPDEST PUSH2 0xAD DUP3 PUSH2 0x64 JUMP JUMPDEST DUP2 ADD DUP2 DUP2 LT PUSH8 0xFFFFFFFFFFFFFFFF DUP3 GT OR ISZERO PUSH2 0xCC JUMPI PUSH2 0xCB PUSH2 0x75 JUMP JUMPDEST JUMPDEST DUP1 PUSH1 0x40 MSTORE POP POP POP JUMP JUMPDEST PUSH1 0x0 PUSH2 0xDF PUSH2 0x46 JUMP JUMPDEST SWAP1 POP PUSH2 0xEB DUP3 DUP3 PUSH2 0xA4 JUMP JUMPDEST SWAP2 SWAP1 POP JUMP JUMPDEST PUSH1 0x0 PUSH8 0xFFFFFFFFFFFFFFFF DUP3 GT ISZERO PUSH2 0x10B JUMPI PUSH2 0x10A PUSH2 0x75 JUMP JUMPDEST JUMPDEST PUSH2 0x114 DUP3 PUSH2 0x64 JUMP JUMPDEST SWAP1 POP PUSH1 0x20 DUP2 ADD SWAP1 POP SWAP2 SWAP1 POP JUMP JUMPDEST DUP3 DUP2 DUP4 CALLDATACOPY PUSH1 0x0 DUP4 DUP4 ADD MSTORE POP POP POP JUMP JUMPDEST PUSH1 0x0 PUSH2 0x143 PUSH2 0x13E DUP5 PUSH2 0xF0 JUMP JUMPDEST PUSH2 0xD5 JUMP JUMPDEST SWAP1 POP DUP3 DUP2 MSTORE PUSH1 0x20 DUP2 ADD DUP5 DUP5 DUP5 ADD GT ISZERO PUSH2 0x15F JUMPI PUSH2 0x15E PUSH2 0x5F JUMP JUMPDEST JUMPDEST PUSH2 0x16A DUP5 DUP3 DUP6 PUSH2 0x121 JUMP JUMPDEST POP SWAP4 SWAP3 POP POP POP JUMP JUMPDEST PUSH1 0x0 DUP3 PUSH1 0x1F DUP4 ADD SLT PUSH2 0x187 JUMPI PUSH2 0x186 PUSH2 0x5A JUMP JUMPDEST JUMPDEST DUP2 CALLDATALOAD PUSH2 0x197 DUP5 DUP3 PUSH1 0x20 DUP7 ADD PUSH2 0x130 JUMP JUMPDEST SWAP2 POP POP SWAP3 SWAP2 POP POP JUMP JUMPDEST PUSH1 0x0 DUP2 SWAP1 POP SWAP2 SWAP1 POP JUMP JUMPDEST PUSH2 0x1B3 DUP2 PUSH2 0x1A0 JUMP JUMPDEST DUP2 EQ PUSH2 0x1BE JUMPI PUSH1 0x0 DUP1 REVERT JUMPDEST POP JUMP JUMPDEST PUSH1 0x0 DUP2 CALLDATALOAD SWAP1 POP PUSH2 0x1D0 DUP2 PUSH2 0x1AA JUMP JUMPDEST SWAP3 SWAP2 POP POP JUMP JUMPDEST PUSH1 0x0 DUP1 PUSH1 0x0 DUP1 PUSH1 0x0 PUSH1 0xA0 DUP7 DUP9 SUB SLT ISZERO PUSH2 0x1F2 JUMPI PUSH2 0x1F1 PUSH2 0x50 JUMP JUMPDEST JUMPDEST PUSH1 0x0 DUP7 ADD CALLDATALOAD PUSH8 0xFFFFFFFFFFFFFFFF DUP2 GT ISZERO PUSH2 0x210 JUMPI PUSH2 0x20F PUSH2 0x55 JUMP JUMPDEST JUMPDEST PUSH2 0x21C DUP9 DUP3 DUP10 ADD PUSH2 0x172 JUMP JUMPDEST SWAP6 POP POP PUSH1 0x20 DUP7 ADD CALLDATALOAD PUSH8 0xFFFFFFFFFFFFFFFF DUP2 GT ISZERO PUSH2 0x23D JUMPI PUSH2 0x23C PUSH2 0x55 JUMP JUMPDEST JUMPDEST PUSH2 0x249 DUP9 DUP3 DUP10 ADD PUSH2 0x172 JUMP JUMPDEST SWAP5 POP POP PUSH1 0x40 PUSH2 0x25A DUP9 DUP3 DUP10 ADD PUSH2 0x1C1 JUMP JUMPDEST SWAP4 POP POP PUSH1 0x60 PUSH2 0x26B DUP9 DUP3 DUP10 ADD PUSH2 0x1C1 JUMP JUMPDEST SWAP3 POP POP PUSH1 0x80 DUP7 ADD CALLDATALOAD PUSH8 0xFFFFFFFFFFFFFFFF DUP2 GT ISZERO PUSH2 0x28C JUMPI PUSH2 0x28B PUSH2 0x55 JUMP JUMPDEST JUMPDEST PUSH2 0x298 DUP9 DUP3 DUP10 ADD PUSH2 0x172 JUMP JUMPDEST SWAP2 POP POP SWAP3 SWAP6 POP SWAP3 SWAP6 SWAP1 SWAP4 POP JUMP INVALID LOG2 PUSH5 0x6970667358 0x22 SLT KECCAK256 DUP11 PUSH13 0xD43D16297ECECEB50387B054D3 DUP4 0xC8 0xD7 SELFBALANCE DUP1 CALLCODE 0xBB SWAP16 SWAP3 0x4A SWAP11 PUSH5 0x1B6146FB23 PUSH5 0x736F6C6343 STOP ADDMOD 0xF STOP CALLER "
				},
				"gasEstimates": {
					"creation": {
						"codeDepositCost": "146200",
						"executionCost": "190",
						"totalCost": "146390"
					},
					"external": {
						"issueCertificate(string,string,uint256,uint256,string)": "infinite"
					}
				},
				"methodIdentifiers": {
					"issueCertificate(string,string,uint256,uint256,string)": "3f59c657"
				}
			},
			"storageLayout": {
				"storage": [],
				"types": null
			},
			"userdoc": {
				"kind": "user",
				"methods": {
					"issueCertificate(string,string,uint256,uint256,string)": {
						"notice": "create data type = struct named  certificate"
					}
				},
				"version": 1
			}
		}
	}
}