{
	"certificateissuer.sol": {
		"CertificateIssuer": {
			"abi": [
				{
					"inputs": [],
					"stateMutability": "nonpayable",
					"type": "constructor"
				},
				{
					"inputs": [],
					"name": "_owner",
					"outputs": [
						{
							"internalType": "address",
							"name": "",
							"type": "address"
						}
					],
					"stateMutability": "view",
					"type": "function"
				},
				{
					"inputs": [],
					"name": "isOwner",
					"outputs": [
						{
							"internalType": "bool",
							"name": "",
							"type": "bool"
						}
					],
					"stateMutability": "view",
					"type": "function"
				},
				{
					"inputs": [
						{
							"internalType": "string",
							"name": "_name",
							"type": "string"
						},
						{
							"internalType": "string",
							"name": "_courseTittle",
							"type": "string"
						},
						{
							"internalType": "uint256",
							"name": "_duration",
							"type": "uint256"
						},
						{
							"internalType": "uint256",
							"name": "institute",
							"type": "uint256"
						},
						{
							"internalType": "string",
							"name": "cauth",
							"type": "string"
						}
					],
					"name": "issueCertificate",
					"outputs": [],
					"stateMutability": "payable",
					"type": "function"
				},
				{
					"inputs": [
						{
							"internalType": "address",
							"name": "_adminParameter",
							"type": "address"
						}
					],
					"name": "setAdmin",
					"outputs": [],
					"stateMutability": "nonpayable",
					"type": "function"
				},
				{
					"inputs": [
						{
							"internalType": "address",
							"name": "_newOwner",
							"type": "address"
						}
					],
					"name": "setOwner",
					"outputs": [],
					"stateMutability": "nonpayable",
					"type": "function"
				},
				{
					"inputs": [
						{
							"internalType": "string",
							"name": "cauth",
							"type": "string"
						}
					],
					"name": "updateCertificateRecipient",
					"outputs": [],
					"stateMutability": "nonpayable",
					"type": "function"
				},
				{
					"inputs": [
						{
							"internalType": "string",
							"name": "cauth",
							"type": "string"
						},
						{
							"internalType": "address",
							"name": "_staker",
							"type": "address"
						}
					],
					"name": "updateCertificateRecipientForStaking",
					"outputs": [],
					"stateMutability": "nonpayable",
					"type": "function"
				}
			],
			"devdoc": {
				"kind": "dev",
				"methods": {
					"isOwner()": {
						"details": "Returns true if the caller is the current owner."
					}
				},
				"version": 1
			},
			"evm": {
				"assembly": "    /* \"certificateissuer.sol\":89:3016  contract CertificateIssuer is Ownable{... */\n  mstore(0x40, 0x80)\n    /* \"certificateissuer.sol\":186:240  constructor (){... */\n  callvalue\n  dup1\n  iszero\n  tag_1\n  jumpi\n  0x00\n  dup1\n  revert\ntag_1:\n  pop\n    /* \"ownable.sol\":150:160  msg.sender */\n  caller\n    /* \"ownable.sol\":141:147  _owner */\n  0x00\n  dup1\n    /* \"ownable.sol\":141:160  _owner = msg.sender */\n  0x0100\n  exp\n  dup2\n  sload\n  dup2\n  0xffffffffffffffffffffffffffffffffffffffff\n  mul\n  not\n  and\n  swap1\n  dup4\n  0xffffffffffffffffffffffffffffffffffffffff\n  and\n  mul\n  or\n  swap1\n  sstore\n  pop\n    /* \"certificateissuer.sol\":220:230  msg.sender */\n  caller\n    /* \"certificateissuer.sol\":211:217  _admin */\n  0x03\n  0x00\n    /* \"certificateissuer.sol\":211:230  _admin = msg.sender */\n  0x0100\n  exp\n  dup2\n  sload\n  dup2\n  0xffffffffffffffffffffffffffffffffffffffff\n  mul\n  not\n  and\n  swap1\n  dup4\n  0xffffffffffffffffffffffffffffffffffffffff\n  and\n  mul\n  or\n  swap1\n  sstore\n  pop\n    /* \"certificateissuer.sol\":89:3016  contract CertificateIssuer is Ownable{... */\n  dataSize(sub_0)\n  dup1\n  dataOffset(sub_0)\n  0x00\n  codecopy\n  0x00\n  return\nstop\n\nsub_0: assembly {\n        /* \"certificateissuer.sol\":89:3016  contract CertificateIssuer is Ownable{... */\n      mstore(0x40, 0x80)\n      jumpi(tag_1, lt(calldatasize, 0x04))\n      shr(0xe0, calldataload(0x00))\n      dup1\n      0x8f32d59b\n      gt\n      tag_9\n      jumpi\n      dup1\n      0x8f32d59b\n      eq\n      tag_5\n      jumpi\n      dup1\n      0xb2bdfa7b\n      eq\n      tag_6\n      jumpi\n      dup1\n      0xe9351558\n      eq\n      tag_7\n      jumpi\n      dup1\n      0xfe49048a\n      eq\n      tag_8\n      jumpi\n      jump(tag_1)\n    tag_9:\n      dup1\n      0x13af4035\n      eq\n      tag_2\n      jumpi\n      dup1\n      0x3f59c657\n      eq\n      tag_3\n      jumpi\n      dup1\n      0x704b6c02\n      eq\n      tag_4\n      jumpi\n    tag_1:\n      0x00\n      dup1\n      revert\n        /* \"ownable.sol\":551:643  function setOwner(address _newOwner) public onlyOwner {... */\n    tag_2:\n      callvalue\n      dup1\n      iszero\n      tag_10\n      jumpi\n      0x00\n      dup1\n      revert\n    tag_10:\n      pop\n      tag_11\n      0x04\n      dup1\n      calldatasize\n      sub\n      dup2\n      add\n      swap1\n      tag_12\n      swap2\n      swap1\n      tag_13\n      jump\t// in\n    tag_12:\n      tag_14\n      jump\t// in\n    tag_11:\n      stop\n        /* \"certificateissuer.sol\":2463:2831  function issueCertificate(string memory _name , string memory _courseTittle, uint _duration , uint institute,string memory cauth ) external payable {... */\n    tag_3:\n      tag_15\n      0x04\n      dup1\n      calldatasize\n      sub\n      dup2\n      add\n      swap1\n      tag_16\n      swap2\n      swap1\n      tag_17\n      jump\t// in\n    tag_16:\n      tag_18\n      jump\t// in\n    tag_15:\n      stop\n        /* \"certificateissuer.sol\":592:696  function setAdmin(address _adminParameter) public onlyOwner{... */\n    tag_4:\n      callvalue\n      dup1\n      iszero\n      tag_19\n      jumpi\n      0x00\n      dup1\n      revert\n    tag_19:\n      pop\n      tag_20\n      0x04\n      dup1\n      calldatasize\n      sub\n      dup2\n      add\n      swap1\n      tag_21\n      swap2\n      swap1\n      tag_13\n      jump\t// in\n    tag_21:\n      tag_22\n      jump\t// in\n    tag_20:\n      stop\n        /* \"ownable.sol\":451:545  function isOwner() public view returns (bool) {... */\n    tag_5:\n      callvalue\n      dup1\n      iszero\n      tag_23\n      jumpi\n      0x00\n      dup1\n      revert\n    tag_23:\n      pop\n      tag_24\n      tag_25\n      jump\t// in\n    tag_24:\n      mload(0x40)\n      tag_26\n      swap2\n      swap1\n      tag_27\n      jump\t// in\n    tag_26:\n      mload(0x40)\n      dup1\n      swap2\n      sub\n      swap1\n      return\n        /* \"ownable.sol\":85:106  address public _owner */\n    tag_6:\n      callvalue\n      dup1\n      iszero\n      tag_28\n      jumpi\n      0x00\n      dup1\n      revert\n    tag_28:\n      pop\n      tag_29\n      tag_30\n      jump\t// in\n    tag_29:\n      mload(0x40)\n      tag_31\n      swap2\n      swap1\n      tag_32\n      jump\t// in\n    tag_31:\n      mload(0x40)\n      dup1\n      swap2\n      sub\n      swap1\n      return\n        /* \"certificateissuer.sol\":1733:1966  function updateCertificateRecipient(string memory cauth) public  {... */\n    tag_7:\n      callvalue\n      dup1\n      iszero\n      tag_33\n      jumpi\n      0x00\n      dup1\n      revert\n    tag_33:\n      pop\n      tag_34\n      0x04\n      dup1\n      calldatasize\n      sub\n      dup2\n      add\n      swap1\n      tag_35\n      swap2\n      swap1\n      tag_36\n      jump\t// in\n    tag_35:\n      tag_37\n      jump\t// in\n    tag_34:\n      stop\n        /* \"certificateissuer.sol\":2142:2455  function updateCertificateRecipientForStaking(string memory cauth,address _staker ) public   {... */\n    tag_8:\n      callvalue\n      dup1\n      iszero\n      tag_38\n      jumpi\n      0x00\n      dup1\n      revert\n    tag_38:\n      pop\n      tag_39\n      0x04\n      dup1\n      calldatasize\n      sub\n      dup2\n      add\n      swap1\n      tag_40\n      swap2\n      swap1\n      tag_41\n      jump\t// in\n    tag_40:\n      tag_42\n      jump\t// in\n    tag_39:\n      stop\n        /* \"ownable.sol\":551:643  function setOwner(address _newOwner) public onlyOwner {... */\n    tag_14:\n        /* \"ownable.sol\":299:308  isOwner() */\n      tag_44\n        /* \"ownable.sol\":299:306  isOwner */\n      tag_25\n        /* \"ownable.sol\":299:308  isOwner() */\n      jump\t// in\n    tag_44:\n        /* \"ownable.sol\":291:345  require(isOwner(), \"Ownable: caller is not the owner\") */\n      tag_45\n      jumpi\n      mload(0x40)\n      0x08c379a000000000000000000000000000000000000000000000000000000000\n      dup2\n      mstore\n      0x04\n      add\n      tag_46\n      swap1\n      tag_47\n      jump\t// in\n    tag_46:\n      mload(0x40)\n      dup1\n      swap2\n      sub\n      swap1\n      revert\n    tag_45:\n        /* \"ownable.sol\":625:634  _newOwner */\n      dup1\n        /* \"ownable.sol\":616:622  _owner */\n      0x00\n      dup1\n        /* \"ownable.sol\":616:634  _owner = _newOwner */\n      0x0100\n      exp\n      dup2\n      sload\n      dup2\n      0xffffffffffffffffffffffffffffffffffffffff\n      mul\n      not\n      and\n      swap1\n      dup4\n      0xffffffffffffffffffffffffffffffffffffffff\n      and\n      mul\n      or\n      swap1\n      sstore\n      pop\n        /* \"ownable.sol\":551:643  function setOwner(address _newOwner) public onlyOwner {... */\n      pop\n      jump\t// out\n        /* \"certificateissuer.sol\":2463:2831  function issueCertificate(string memory _name , string memory _courseTittle, uint _duration , uint institute,string memory cauth ) external payable {... */\n    tag_18:\n        /* \"certificateissuer.sol\":2705:2709  true */\n      0x01\n        /* \"certificateissuer.sol\":2684:2709  cauthValid[cauth] == true */\n      iszero\n      iszero\n        /* \"certificateissuer.sol\":2684:2694  cauthValid */\n      0x01\n        /* \"certificateissuer.sol\":2695:2700  cauth */\n      dup3\n        /* \"certificateissuer.sol\":2684:2701  cauthValid[cauth] */\n      mload(0x40)\n      tag_50\n      swap2\n      swap1\n      tag_51\n      jump\t// in\n    tag_50:\n      swap1\n      dup2\n      mstore\n      0x20\n      add\n      mload(0x40)\n      dup1\n      swap2\n      sub\n      swap1\n      keccak256\n      0x00\n      swap1\n      sload\n      swap1\n      0x0100\n      exp\n      swap1\n      div\n      0xff\n      and\n        /* \"certificateissuer.sol\":2684:2709  cauthValid[cauth] == true */\n      iszero\n      iszero\n      eq\n        /* \"certificateissuer.sol\":2676:2710  require(cauthValid[cauth] == true) */\n      tag_52\n      jumpi\n      0x00\n      dup1\n      revert\n    tag_52:\n        /* \"certificateissuer.sol\":2816:2821  false */\n      0x00\n        /* \"certificateissuer.sol\":2796:2806  cauthValid */\n      0x01\n        /* \"certificateissuer.sol\":2807:2812  cauth */\n      dup3\n        /* \"certificateissuer.sol\":2796:2813  cauthValid[cauth] */\n      mload(0x40)\n      tag_53\n      swap2\n      swap1\n      tag_51\n      jump\t// in\n    tag_53:\n      swap1\n      dup2\n      mstore\n      0x20\n      add\n      mload(0x40)\n      dup1\n      swap2\n      sub\n      swap1\n      keccak256\n      0x00\n        /* \"certificateissuer.sol\":2796:2821  cauthValid[cauth] = false */\n      0x0100\n      exp\n      dup2\n      sload\n      dup2\n      0xff\n      mul\n      not\n      and\n      swap1\n      dup4\n      iszero\n      iszero\n      mul\n      or\n      swap1\n      sstore\n      pop\n        /* \"certificateissuer.sol\":2463:2831  function issueCertificate(string memory _name , string memory _courseTittle, uint _duration , uint institute,string memory cauth ) external payable {... */\n      pop\n      pop\n      pop\n      pop\n      pop\n      jump\t// out\n        /* \"certificateissuer.sol\":592:696  function setAdmin(address _adminParameter) public onlyOwner{... */\n    tag_22:\n        /* \"ownable.sol\":299:308  isOwner() */\n      tag_55\n        /* \"ownable.sol\":299:306  isOwner */\n      tag_25\n        /* \"ownable.sol\":299:308  isOwner() */\n      jump\t// in\n    tag_55:\n        /* \"ownable.sol\":291:345  require(isOwner(), \"Ownable: caller is not the owner\") */\n      tag_56\n      jumpi\n      mload(0x40)\n      0x08c379a000000000000000000000000000000000000000000000000000000000\n      dup2\n      mstore\n      0x04\n      add\n      tag_57\n      swap1\n      tag_47\n      jump\t// in\n    tag_57:\n      mload(0x40)\n      dup1\n      swap2\n      sub\n      swap1\n      revert\n    tag_56:\n        /* \"certificateissuer.sol\":671:686  _adminParameter */\n      dup1\n        /* \"certificateissuer.sol\":662:668  _admin */\n      0x03\n      0x00\n        /* \"certificateissuer.sol\":662:686  _admin = _adminParameter */\n      0x0100\n      exp\n      dup2\n      sload\n      dup2\n      0xffffffffffffffffffffffffffffffffffffffff\n      mul\n      not\n      and\n      swap1\n      dup4\n      0xffffffffffffffffffffffffffffffffffffffff\n      and\n      mul\n      or\n      swap1\n      sstore\n      pop\n        /* \"certificateissuer.sol\":592:696  function setAdmin(address _adminParameter) public onlyOwner{... */\n      pop\n      jump\t// out\n        /* \"ownable.sol\":451:545  function isOwner() public view returns (bool) {... */\n    tag_25:\n        /* \"ownable.sol\":491:495  bool */\n      0x00\n        /* \"ownable.sol\":530:536  _owner */\n      dup1\n      0x00\n      swap1\n      sload\n      swap1\n      0x0100\n      exp\n      swap1\n      div\n      0xffffffffffffffffffffffffffffffffffffffff\n      and\n        /* \"ownable.sol\":516:536  msg.sender == _owner */\n      0xffffffffffffffffffffffffffffffffffffffff\n      and\n        /* \"ownable.sol\":516:526  msg.sender */\n      caller\n        /* \"ownable.sol\":516:536  msg.sender == _owner */\n      0xffffffffffffffffffffffffffffffffffffffff\n      and\n      eq\n        /* \"ownable.sol\":508:537  return (msg.sender == _owner) */\n      swap1\n      pop\n        /* \"ownable.sol\":451:545  function isOwner() public view returns (bool) {... */\n      swap1\n      jump\t// out\n        /* \"ownable.sol\":85:106  address public _owner */\n    tag_30:\n      0x00\n      dup1\n      sload\n      swap1\n      0x0100\n      exp\n      swap1\n      div\n      0xffffffffffffffffffffffffffffffffffffffff\n      and\n      dup2\n      jump\t// out\n        /* \"certificateissuer.sol\":1733:1966  function updateCertificateRecipient(string memory cauth) public  {... */\n    tag_37:\n        /* \"certificateissuer.sol\":1831:1837  _admin */\n      0x03\n      0x00\n      swap1\n      sload\n      swap1\n      0x0100\n      exp\n      swap1\n      div\n      0xffffffffffffffffffffffffffffffffffffffff\n      and\n        /* \"certificateissuer.sol\":1817:1837  msg.sender == _admin */\n      0xffffffffffffffffffffffffffffffffffffffff\n      and\n        /* \"certificateissuer.sol\":1817:1827  msg.sender */\n      caller\n        /* \"certificateissuer.sol\":1817:1837  msg.sender == _admin */\n      0xffffffffffffffffffffffffffffffffffffffff\n      and\n      eq\n        /* \"certificateissuer.sol\":1809:1838  require(msg.sender == _admin) */\n      tag_61\n      jumpi\n      0x00\n      dup1\n      revert\n    tag_61:\n        /* \"certificateissuer.sol\":1870:1874  true */\n      0x01\n        /* \"certificateissuer.sol\":1850:1860  cauthValid */\n      dup1\n        /* \"certificateissuer.sol\":1861:1866  cauth */\n      dup3\n        /* \"certificateissuer.sol\":1850:1867  cauthValid[cauth] */\n      mload(0x40)\n      tag_62\n      swap2\n      swap1\n      tag_51\n      jump\t// in\n    tag_62:\n      swap1\n      dup2\n      mstore\n      0x20\n      add\n      mload(0x40)\n      dup1\n      swap2\n      sub\n      swap1\n      keccak256\n      0x00\n        /* \"certificateissuer.sol\":1850:1874  cauthValid[cauth] = true */\n      0x0100\n      exp\n      dup2\n      sload\n      dup2\n      0xff\n      mul\n      not\n      and\n      swap1\n      dup4\n      iszero\n      iszero\n      mul\n      or\n      swap1\n      sstore\n      pop\n        /* \"certificateissuer.sol\":1896:1906  cauthValid */\n      0x01\n        /* \"certificateissuer.sol\":1907:1912  cauth */\n      dup2\n        /* \"certificateissuer.sol\":1896:1913  cauthValid[cauth] */\n      mload(0x40)\n      tag_63\n      swap2\n      swap1\n      tag_51\n      jump\t// in\n    tag_63:\n      swap1\n      dup2\n      mstore\n      0x20\n      add\n      mload(0x40)\n      dup1\n      swap2\n      sub\n      swap1\n      keccak256\n      0x00\n      swap1\n      sload\n      swap1\n      0x0100\n      exp\n      swap1\n      div\n      0xff\n      and\n        /* \"certificateissuer.sol\":1888:1914  require(cauthValid[cauth]) */\n      tag_64\n      jumpi\n      0x00\n      dup1\n      revert\n    tag_64:\n        /* \"certificateissuer.sol\":1952:1956  true */\n      0x01\n        /* \"certificateissuer.sol\":1927:1942  cauthToCanStake */\n      0x02\n        /* \"certificateissuer.sol\":1943:1948  cauth */\n      dup3\n        /* \"certificateissuer.sol\":1927:1949  cauthToCanStake[cauth] */\n      mload(0x40)\n      tag_65\n      swap2\n      swap1\n      tag_51\n      jump\t// in\n    tag_65:\n      swap1\n      dup2\n      mstore\n      0x20\n      add\n      mload(0x40)\n      dup1\n      swap2\n      sub\n      swap1\n      keccak256\n      0x00\n        /* \"certificateissuer.sol\":1927:1956  cauthToCanStake[cauth] = true */\n      0x0100\n      exp\n      dup2\n      sload\n      dup2\n      0xff\n      mul\n      not\n      and\n      swap1\n      dup4\n      iszero\n      iszero\n      mul\n      or\n      swap1\n      sstore\n      pop\n        /* \"certificateissuer.sol\":1733:1966  function updateCertificateRecipient(string memory cauth) public  {... */\n      pop\n      jump\t// out\n        /* \"certificateissuer.sol\":2142:2455  function updateCertificateRecipientForStaking(string memory cauth,address _staker ) public   {... */\n    tag_42:\n        /* \"certificateissuer.sol\":2268:2274  _admin */\n      0x03\n      0x00\n      swap1\n      sload\n      swap1\n      0x0100\n      exp\n      swap1\n      div\n      0xffffffffffffffffffffffffffffffffffffffff\n      and\n        /* \"certificateissuer.sol\":2254:2274  msg.sender == _admin */\n      0xffffffffffffffffffffffffffffffffffffffff\n      and\n        /* \"certificateissuer.sol\":2254:2264  msg.sender */\n      caller\n        /* \"certificateissuer.sol\":2254:2274  msg.sender == _admin */\n      0xffffffffffffffffffffffffffffffffffffffff\n      and\n      eq\n        /* \"certificateissuer.sol\":2246:2275  require(msg.sender == _admin) */\n      tag_67\n      jumpi\n      0x00\n      dup1\n      revert\n    tag_67:\n        /* \"certificateissuer.sol\":2307:2311  true */\n      0x01\n        /* \"certificateissuer.sol\":2287:2297  cauthValid */\n      dup1\n        /* \"certificateissuer.sol\":2298:2303  cauth */\n      dup4\n        /* \"certificateissuer.sol\":2287:2304  cauthValid[cauth] */\n      mload(0x40)\n      tag_68\n      swap2\n      swap1\n      tag_51\n      jump\t// in\n    tag_68:\n      swap1\n      dup2\n      mstore\n      0x20\n      add\n      mload(0x40)\n      dup1\n      swap2\n      sub\n      swap1\n      keccak256\n      0x00\n        /* \"certificateissuer.sol\":2287:2311  cauthValid[cauth] = true */\n      0x0100\n      exp\n      dup2\n      sload\n      dup2\n      0xff\n      mul\n      not\n      and\n      swap1\n      dup4\n      iszero\n      iszero\n      mul\n      or\n      swap1\n      sstore\n      pop\n        /* \"certificateissuer.sol\":2333:2343  cauthValid */\n      0x01\n        /* \"certificateissuer.sol\":2344:2349  cauth */\n      dup3\n        /* \"certificateissuer.sol\":2333:2350  cauthValid[cauth] */\n      mload(0x40)\n      tag_69\n      swap2\n      swap1\n      tag_51\n      jump\t// in\n    tag_69:\n      swap1\n      dup2\n      mstore\n      0x20\n      add\n      mload(0x40)\n      dup1\n      swap2\n      sub\n      swap1\n      keccak256\n      0x00\n      swap1\n      sload\n      swap1\n      0x0100\n      exp\n      swap1\n      div\n      0xff\n      and\n        /* \"certificateissuer.sol\":2325:2351  require(cauthValid[cauth]) */\n      tag_70\n      jumpi\n      0x00\n      dup1\n      revert\n    tag_70:\n        /* \"certificateissuer.sol\":2389:2393  true */\n      0x01\n        /* \"certificateissuer.sol\":2364:2379  cauthToCanStake */\n      0x02\n        /* \"certificateissuer.sol\":2380:2385  cauth */\n      dup4\n        /* \"certificateissuer.sol\":2364:2386  cauthToCanStake[cauth] */\n      mload(0x40)\n      tag_71\n      swap2\n      swap1\n      tag_51\n      jump\t// in\n    tag_71:\n      swap1\n      dup2\n      mstore\n      0x20\n      add\n      mload(0x40)\n      dup1\n      swap2\n      sub\n      swap1\n      keccak256\n      0x00\n        /* \"certificateissuer.sol\":2364:2393  cauthToCanStake[cauth] = true */\n      0x0100\n      exp\n      dup2\n      sload\n      dup2\n      0xff\n      mul\n      not\n      and\n      swap1\n      dup4\n      iszero\n      iszero\n      mul\n      or\n      swap1\n      sstore\n      pop\n        /* \"certificateissuer.sol\":2431:2436  cauth */\n      dup2\n        /* \"certificateissuer.sol\":2406:2419  adressToCauth */\n      0x04\n        /* \"certificateissuer.sol\":2406:2428  adressToCauth[_staker] */\n      0x00\n        /* \"certificateissuer.sol\":2420:2427  _staker */\n      dup4\n        /* \"certificateissuer.sol\":2406:2428  adressToCauth[_staker] */\n      0xffffffffffffffffffffffffffffffffffffffff\n      and\n      0xffffffffffffffffffffffffffffffffffffffff\n      and\n      dup2\n      mstore\n      0x20\n      add\n      swap1\n      dup2\n      mstore\n      0x20\n      add\n      0x00\n      keccak256\n        /* \"certificateissuer.sol\":2406:2436  adressToCauth[_staker] = cauth */\n      swap1\n      dup2\n      tag_72\n      swap2\n      swap1\n      tag_73\n      jump\t// in\n    tag_72:\n      pop\n        /* \"certificateissuer.sol\":2142:2455  function updateCertificateRecipientForStaking(string memory cauth,address _staker ) public   {... */\n      pop\n      pop\n      jump\t// out\n        /* \"#utility.yul\":7:82   */\n    tag_74:\n        /* \"#utility.yul\":40:46   */\n      0x00\n        /* \"#utility.yul\":73:75   */\n      0x40\n        /* \"#utility.yul\":67:76   */\n      mload\n        /* \"#utility.yul\":57:76   */\n      swap1\n      pop\n        /* \"#utility.yul\":7:82   */\n      swap1\n      jump\t// out\n        /* \"#utility.yul\":88:205   */\n    tag_75:\n        /* \"#utility.yul\":197:198   */\n      0x00\n        /* \"#utility.yul\":194:195   */\n      dup1\n        /* \"#utility.yul\":187:199   */\n      revert\n        /* \"#utility.yul\":211:328   */\n    tag_76:\n        /* \"#utility.yul\":320:321   */\n      0x00\n        /* \"#utility.yul\":317:318   */\n      dup1\n        /* \"#utility.yul\":310:322   */\n      revert\n        /* \"#utility.yul\":334:460   */\n    tag_77:\n        /* \"#utility.yul\":371:378   */\n      0x00\n        /* \"#utility.yul\":411:453   */\n      0xffffffffffffffffffffffffffffffffffffffff\n        /* \"#utility.yul\":404:409   */\n      dup3\n        /* \"#utility.yul\":400:454   */\n      and\n        /* \"#utility.yul\":389:454   */\n      swap1\n      pop\n        /* \"#utility.yul\":334:460   */\n      swap2\n      swap1\n      pop\n      jump\t// out\n        /* \"#utility.yul\":466:562   */\n    tag_78:\n        /* \"#utility.yul\":503:510   */\n      0x00\n        /* \"#utility.yul\":532:556   */\n      tag_127\n        /* \"#utility.yul\":550:555   */\n      dup3\n        /* \"#utility.yul\":532:556   */\n      tag_77\n      jump\t// in\n    tag_127:\n        /* \"#utility.yul\":521:556   */\n      swap1\n      pop\n        /* \"#utility.yul\":466:562   */\n      swap2\n      swap1\n      pop\n      jump\t// out\n        /* \"#utility.yul\":568:690   */\n    tag_79:\n        /* \"#utility.yul\":641:665   */\n      tag_129\n        /* \"#utility.yul\":659:664   */\n      dup2\n        /* \"#utility.yul\":641:665   */\n      tag_78\n      jump\t// in\n    tag_129:\n        /* \"#utility.yul\":634:639   */\n      dup2\n        /* \"#utility.yul\":631:666   */\n      eq\n        /* \"#utility.yul\":621:684   */\n      tag_130\n      jumpi\n        /* \"#utility.yul\":680:681   */\n      0x00\n        /* \"#utility.yul\":677:678   */\n      dup1\n        /* \"#utility.yul\":670:682   */\n      revert\n        /* \"#utility.yul\":621:684   */\n    tag_130:\n        /* \"#utility.yul\":568:690   */\n      pop\n      jump\t// out\n        /* \"#utility.yul\":696:835   */\n    tag_80:\n        /* \"#utility.yul\":742:747   */\n      0x00\n        /* \"#utility.yul\":780:786   */\n      dup2\n        /* \"#utility.yul\":767:787   */\n      calldataload\n        /* \"#utility.yul\":758:787   */\n      swap1\n      pop\n        /* \"#utility.yul\":796:829   */\n      tag_132\n        /* \"#utility.yul\":823:828   */\n      dup2\n        /* \"#utility.yul\":796:829   */\n      tag_79\n      jump\t// in\n    tag_132:\n        /* \"#utility.yul\":696:835   */\n      swap3\n      swap2\n      pop\n      pop\n      jump\t// out\n        /* \"#utility.yul\":841:1170   */\n    tag_13:\n        /* \"#utility.yul\":900:906   */\n      0x00\n        /* \"#utility.yul\":949:951   */\n      0x20\n        /* \"#utility.yul\":937:946   */\n      dup3\n        /* \"#utility.yul\":928:935   */\n      dup5\n        /* \"#utility.yul\":924:947   */\n      sub\n        /* \"#utility.yul\":920:952   */\n      slt\n        /* \"#utility.yul\":917:1036   */\n      iszero\n      tag_134\n      jumpi\n        /* \"#utility.yul\":955:1034   */\n      tag_135\n      tag_75\n      jump\t// in\n    tag_135:\n        /* \"#utility.yul\":917:1036   */\n    tag_134:\n        /* \"#utility.yul\":1075:1076   */\n      0x00\n        /* \"#utility.yul\":1100:1153   */\n      tag_136\n        /* \"#utility.yul\":1145:1152   */\n      dup5\n        /* \"#utility.yul\":1136:1142   */\n      dup3\n        /* \"#utility.yul\":1125:1134   */\n      dup6\n        /* \"#utility.yul\":1121:1143   */\n      add\n        /* \"#utility.yul\":1100:1153   */\n      tag_80\n      jump\t// in\n    tag_136:\n        /* \"#utility.yul\":1090:1153   */\n      swap2\n      pop\n        /* \"#utility.yul\":1046:1163   */\n      pop\n        /* \"#utility.yul\":841:1170   */\n      swap3\n      swap2\n      pop\n      pop\n      jump\t// out\n        /* \"#utility.yul\":1176:1293   */\n    tag_81:\n        /* \"#utility.yul\":1285:1286   */\n      0x00\n        /* \"#utility.yul\":1282:1283   */\n      dup1\n        /* \"#utility.yul\":1275:1287   */\n      revert\n        /* \"#utility.yul\":1299:1416   */\n    tag_82:\n        /* \"#utility.yul\":1408:1409   */\n      0x00\n        /* \"#utility.yul\":1405:1406   */\n      dup1\n        /* \"#utility.yul\":1398:1410   */\n      revert\n        /* \"#utility.yul\":1422:1524   */\n    tag_83:\n        /* \"#utility.yul\":1463:1469   */\n      0x00\n        /* \"#utility.yul\":1514:1516   */\n      0x1f\n        /* \"#utility.yul\":1510:1517   */\n      not\n        /* \"#utility.yul\":1505:1507   */\n      0x1f\n        /* \"#utility.yul\":1498:1503   */\n      dup4\n        /* \"#utility.yul\":1494:1508   */\n      add\n        /* \"#utility.yul\":1490:1518   */\n      and\n        /* \"#utility.yul\":1480:1518   */\n      swap1\n      pop\n        /* \"#utility.yul\":1422:1524   */\n      swap2\n      swap1\n      pop\n      jump\t// out\n        /* \"#utility.yul\":1530:1710   */\n    tag_84:\n        /* \"#utility.yul\":1578:1655   */\n      0x4e487b7100000000000000000000000000000000000000000000000000000000\n        /* \"#utility.yul\":1575:1576   */\n      0x00\n        /* \"#utility.yul\":1568:1656   */\n      mstore\n        /* \"#utility.yul\":1675:1679   */\n      0x41\n        /* \"#utility.yul\":1672:1673   */\n      0x04\n        /* \"#utility.yul\":1665:1680   */\n      mstore\n        /* \"#utility.yul\":1699:1703   */\n      0x24\n        /* \"#utility.yul\":1696:1697   */\n      0x00\n        /* \"#utility.yul\":1689:1704   */\n      revert\n        /* \"#utility.yul\":1716:1997   */\n    tag_85:\n        /* \"#utility.yul\":1799:1826   */\n      tag_142\n        /* \"#utility.yul\":1821:1825   */\n      dup3\n        /* \"#utility.yul\":1799:1826   */\n      tag_83\n      jump\t// in\n    tag_142:\n        /* \"#utility.yul\":1791:1797   */\n      dup2\n        /* \"#utility.yul\":1787:1827   */\n      add\n        /* \"#utility.yul\":1929:1935   */\n      dup2\n        /* \"#utility.yul\":1917:1927   */\n      dup2\n        /* \"#utility.yul\":1914:1936   */\n      lt\n        /* \"#utility.yul\":1893:1911   */\n      0xffffffffffffffff\n        /* \"#utility.yul\":1881:1891   */\n      dup3\n        /* \"#utility.yul\":1878:1912   */\n      gt\n        /* \"#utility.yul\":1875:1937   */\n      or\n        /* \"#utility.yul\":1872:1960   */\n      iszero\n      tag_143\n      jumpi\n        /* \"#utility.yul\":1940:1958   */\n      tag_144\n      tag_84\n      jump\t// in\n    tag_144:\n        /* \"#utility.yul\":1872:1960   */\n    tag_143:\n        /* \"#utility.yul\":1980:1990   */\n      dup1\n        /* \"#utility.yul\":1976:1978   */\n      0x40\n        /* \"#utility.yul\":1969:1991   */\n      mstore\n        /* \"#utility.yul\":1759:1997   */\n      pop\n        /* \"#utility.yul\":1716:1997   */\n      pop\n      pop\n      jump\t// out\n        /* \"#utility.yul\":2003:2132   */\n    tag_86:\n        /* \"#utility.yul\":2037:2043   */\n      0x00\n        /* \"#utility.yul\":2064:2084   */\n      tag_146\n      tag_74\n      jump\t// in\n    tag_146:\n        /* \"#utility.yul\":2054:2084   */\n      swap1\n      pop\n        /* \"#utility.yul\":2093:2126   */\n      tag_147\n        /* \"#utility.yul\":2121:2125   */\n      dup3\n        /* \"#utility.yul\":2113:2119   */\n      dup3\n        /* \"#utility.yul\":2093:2126   */\n      tag_85\n      jump\t// in\n    tag_147:\n        /* \"#utility.yul\":2003:2132   */\n      swap2\n      swap1\n      pop\n      jump\t// out\n        /* \"#utility.yul\":2138:2446   */\n    tag_87:\n        /* \"#utility.yul\":2200:2204   */\n      0x00\n        /* \"#utility.yul\":2290:2308   */\n      0xffffffffffffffff\n        /* \"#utility.yul\":2282:2288   */\n      dup3\n        /* \"#utility.yul\":2279:2309   */\n      gt\n        /* \"#utility.yul\":2276:2332   */\n      iszero\n      tag_149\n      jumpi\n        /* \"#utility.yul\":2312:2330   */\n      tag_150\n      tag_84\n      jump\t// in\n    tag_150:\n        /* \"#utility.yul\":2276:2332   */\n    tag_149:\n        /* \"#utility.yul\":2350:2379   */\n      tag_151\n        /* \"#utility.yul\":2372:2378   */\n      dup3\n        /* \"#utility.yul\":2350:2379   */\n      tag_83\n      jump\t// in\n    tag_151:\n        /* \"#utility.yul\":2342:2379   */\n      swap1\n      pop\n        /* \"#utility.yul\":2434:2438   */\n      0x20\n        /* \"#utility.yul\":2428:2432   */\n      dup2\n        /* \"#utility.yul\":2424:2439   */\n      add\n        /* \"#utility.yul\":2416:2439   */\n      swap1\n      pop\n        /* \"#utility.yul\":2138:2446   */\n      swap2\n      swap1\n      pop\n      jump\t// out\n        /* \"#utility.yul\":2452:2606   */\n    tag_88:\n        /* \"#utility.yul\":2536:2542   */\n      dup3\n        /* \"#utility.yul\":2531:2534   */\n      dup2\n        /* \"#utility.yul\":2526:2529   */\n      dup4\n        /* \"#utility.yul\":2513:2543   */\n      calldatacopy\n        /* \"#utility.yul\":2598:2599   */\n      0x00\n        /* \"#utility.yul\":2589:2595   */\n      dup4\n        /* \"#utility.yul\":2584:2587   */\n      dup4\n        /* \"#utility.yul\":2580:2596   */\n      add\n        /* \"#utility.yul\":2573:2600   */\n      mstore\n        /* \"#utility.yul\":2452:2606   */\n      pop\n      pop\n      pop\n      jump\t// out\n        /* \"#utility.yul\":2612:3024   */\n    tag_89:\n        /* \"#utility.yul\":2690:2695   */\n      0x00\n        /* \"#utility.yul\":2715:2781   */\n      tag_154\n        /* \"#utility.yul\":2731:2780   */\n      tag_155\n        /* \"#utility.yul\":2773:2779   */\n      dup5\n        /* \"#utility.yul\":2731:2780   */\n      tag_87\n      jump\t// in\n    tag_155:\n        /* \"#utility.yul\":2715:2781   */\n      tag_86\n      jump\t// in\n    tag_154:\n        /* \"#utility.yul\":2706:2781   */\n      swap1\n      pop\n        /* \"#utility.yul\":2804:2810   */\n      dup3\n        /* \"#utility.yul\":2797:2802   */\n      dup2\n        /* \"#utility.yul\":2790:2811   */\n      mstore\n        /* \"#utility.yul\":2842:2846   */\n      0x20\n        /* \"#utility.yul\":2835:2840   */\n      dup2\n        /* \"#utility.yul\":2831:2847   */\n      add\n        /* \"#utility.yul\":2880:2883   */\n      dup5\n        /* \"#utility.yul\":2871:2877   */\n      dup5\n        /* \"#utility.yul\":2866:2869   */\n      dup5\n        /* \"#utility.yul\":2862:2878   */\n      add\n        /* \"#utility.yul\":2859:2884   */\n      gt\n        /* \"#utility.yul\":2856:2968   */\n      iszero\n      tag_156\n      jumpi\n        /* \"#utility.yul\":2887:2966   */\n      tag_157\n      tag_82\n      jump\t// in\n    tag_157:\n        /* \"#utility.yul\":2856:2968   */\n    tag_156:\n        /* \"#utility.yul\":2977:3018   */\n      tag_158\n        /* \"#utility.yul\":3011:3017   */\n      dup5\n        /* \"#utility.yul\":3006:3009   */\n      dup3\n        /* \"#utility.yul\":3001:3004   */\n      dup6\n        /* \"#utility.yul\":2977:3018   */\n      tag_88\n      jump\t// in\n    tag_158:\n        /* \"#utility.yul\":2696:3024   */\n      pop\n        /* \"#utility.yul\":2612:3024   */\n      swap4\n      swap3\n      pop\n      pop\n      pop\n      jump\t// out\n        /* \"#utility.yul\":3044:3384   */\n    tag_90:\n        /* \"#utility.yul\":3100:3105   */\n      0x00\n        /* \"#utility.yul\":3149:3152   */\n      dup3\n        /* \"#utility.yul\":3142:3146   */\n      0x1f\n        /* \"#utility.yul\":3134:3140   */\n      dup4\n        /* \"#utility.yul\":3130:3147   */\n      add\n        /* \"#utility.yul\":3126:3153   */\n      slt\n        /* \"#utility.yul\":3116:3238   */\n      tag_160\n      jumpi\n        /* \"#utility.yul\":3157:3236   */\n      tag_161\n      tag_81\n      jump\t// in\n    tag_161:\n        /* \"#utility.yul\":3116:3238   */\n    tag_160:\n        /* \"#utility.yul\":3274:3280   */\n      dup2\n        /* \"#utility.yul\":3261:3281   */\n      calldataload\n        /* \"#utility.yul\":3299:3378   */\n      tag_162\n        /* \"#utility.yul\":3374:3377   */\n      dup5\n        /* \"#utility.yul\":3366:3372   */\n      dup3\n        /* \"#utility.yul\":3359:3363   */\n      0x20\n        /* \"#utility.yul\":3351:3357   */\n      dup7\n        /* \"#utility.yul\":3347:3364   */\n      add\n        /* \"#utility.yul\":3299:3378   */\n      tag_89\n      jump\t// in\n    tag_162:\n        /* \"#utility.yul\":3290:3378   */\n      swap2\n      pop\n        /* \"#utility.yul\":3106:3384   */\n      pop\n        /* \"#utility.yul\":3044:3384   */\n      swap3\n      swap2\n      pop\n      pop\n      jump\t// out\n        /* \"#utility.yul\":3390:3467   */\n    tag_91:\n        /* \"#utility.yul\":3427:3434   */\n      0x00\n        /* \"#utility.yul\":3456:3461   */\n      dup2\n        /* \"#utility.yul\":3445:3461   */\n      swap1\n      pop\n        /* \"#utility.yul\":3390:3467   */\n      swap2\n      swap1\n      pop\n      jump\t// out\n        /* \"#utility.yul\":3473:3595   */\n    tag_92:\n        /* \"#utility.yul\":3546:3570   */\n      tag_165\n        /* \"#utility.yul\":3564:3569   */\n      dup2\n        /* \"#utility.yul\":3546:3570   */\n      tag_91\n      jump\t// in\n    tag_165:\n        /* \"#utility.yul\":3539:3544   */\n      dup2\n        /* \"#utility.yul\":3536:3571   */\n      eq\n        /* \"#utility.yul\":3526:3589   */\n      tag_166\n      jumpi\n        /* \"#utility.yul\":3585:3586   */\n      0x00\n        /* \"#utility.yul\":3582:3583   */\n      dup1\n        /* \"#utility.yul\":3575:3587   */\n      revert\n        /* \"#utility.yul\":3526:3589   */\n    tag_166:\n        /* \"#utility.yul\":3473:3595   */\n      pop\n      jump\t// out\n        /* \"#utility.yul\":3601:3740   */\n    tag_93:\n        /* \"#utility.yul\":3647:3652   */\n      0x00\n        /* \"#utility.yul\":3685:3691   */\n      dup2\n        /* \"#utility.yul\":3672:3692   */\n      calldataload\n        /* \"#utility.yul\":3663:3692   */\n      swap1\n      pop\n        /* \"#utility.yul\":3701:3734   */\n      tag_168\n        /* \"#utility.yul\":3728:3733   */\n      dup2\n        /* \"#utility.yul\":3701:3734   */\n      tag_92\n      jump\t// in\n    tag_168:\n        /* \"#utility.yul\":3601:3740   */\n      swap3\n      swap2\n      pop\n      pop\n      jump\t// out\n        /* \"#utility.yul\":3746:5197   */\n    tag_17:\n        /* \"#utility.yul\":3871:3877   */\n      0x00\n        /* \"#utility.yul\":3879:3885   */\n      dup1\n        /* \"#utility.yul\":3887:3893   */\n      0x00\n        /* \"#utility.yul\":3895:3901   */\n      dup1\n        /* \"#utility.yul\":3903:3909   */\n      0x00\n        /* \"#utility.yul\":3952:3955   */\n      0xa0\n        /* \"#utility.yul\":3940:3949   */\n      dup7\n        /* \"#utility.yul\":3931:3938   */\n      dup9\n        /* \"#utility.yul\":3927:3950   */\n      sub\n        /* \"#utility.yul\":3923:3956   */\n      slt\n        /* \"#utility.yul\":3920:4040   */\n      iszero\n      tag_170\n      jumpi\n        /* \"#utility.yul\":3959:4038   */\n      tag_171\n      tag_75\n      jump\t// in\n    tag_171:\n        /* \"#utility.yul\":3920:4040   */\n    tag_170:\n        /* \"#utility.yul\":4107:4108   */\n      0x00\n        /* \"#utility.yul\":4096:4105   */\n      dup7\n        /* \"#utility.yul\":4092:4109   */\n      add\n        /* \"#utility.yul\":4079:4110   */\n      calldataload\n        /* \"#utility.yul\":4137:4155   */\n      0xffffffffffffffff\n        /* \"#utility.yul\":4129:4135   */\n      dup2\n        /* \"#utility.yul\":4126:4156   */\n      gt\n        /* \"#utility.yul\":4123:4240   */\n      iszero\n      tag_172\n      jumpi\n        /* \"#utility.yul\":4159:4238   */\n      tag_173\n      tag_76\n      jump\t// in\n    tag_173:\n        /* \"#utility.yul\":4123:4240   */\n    tag_172:\n        /* \"#utility.yul\":4264:4327   */\n      tag_174\n        /* \"#utility.yul\":4319:4326   */\n      dup9\n        /* \"#utility.yul\":4310:4316   */\n      dup3\n        /* \"#utility.yul\":4299:4308   */\n      dup10\n        /* \"#utility.yul\":4295:4317   */\n      add\n        /* \"#utility.yul\":4264:4327   */\n      tag_90\n      jump\t// in\n    tag_174:\n        /* \"#utility.yul\":4254:4327   */\n      swap6\n      pop\n        /* \"#utility.yul\":4050:4337   */\n      pop\n        /* \"#utility.yul\":4404:4406   */\n      0x20\n        /* \"#utility.yul\":4393:4402   */\n      dup7\n        /* \"#utility.yul\":4389:4407   */\n      add\n        /* \"#utility.yul\":4376:4408   */\n      calldataload\n        /* \"#utility.yul\":4435:4453   */\n      0xffffffffffffffff\n        /* \"#utility.yul\":4427:4433   */\n      dup2\n        /* \"#utility.yul\":4424:4454   */\n      gt\n        /* \"#utility.yul\":4421:4538   */\n      iszero\n      tag_175\n      jumpi\n        /* \"#utility.yul\":4457:4536   */\n      tag_176\n      tag_76\n      jump\t// in\n    tag_176:\n        /* \"#utility.yul\":4421:4538   */\n    tag_175:\n        /* \"#utility.yul\":4562:4625   */\n      tag_177\n        /* \"#utility.yul\":4617:4624   */\n      dup9\n        /* \"#utility.yul\":4608:4614   */\n      dup3\n        /* \"#utility.yul\":4597:4606   */\n      dup10\n        /* \"#utility.yul\":4593:4615   */\n      add\n        /* \"#utility.yul\":4562:4625   */\n      tag_90\n      jump\t// in\n    tag_177:\n        /* \"#utility.yul\":4552:4625   */\n      swap5\n      pop\n        /* \"#utility.yul\":4347:4635   */\n      pop\n        /* \"#utility.yul\":4674:4676   */\n      0x40\n        /* \"#utility.yul\":4700:4753   */\n      tag_178\n        /* \"#utility.yul\":4745:4752   */\n      dup9\n        /* \"#utility.yul\":4736:4742   */\n      dup3\n        /* \"#utility.yul\":4725:4734   */\n      dup10\n        /* \"#utility.yul\":4721:4743   */\n      add\n        /* \"#utility.yul\":4700:4753   */\n      tag_93\n      jump\t// in\n    tag_178:\n        /* \"#utility.yul\":4690:4753   */\n      swap4\n      pop\n        /* \"#utility.yul\":4645:4763   */\n      pop\n        /* \"#utility.yul\":4802:4804   */\n      0x60\n        /* \"#utility.yul\":4828:4881   */\n      tag_179\n        /* \"#utility.yul\":4873:4880   */\n      dup9\n        /* \"#utility.yul\":4864:4870   */\n      dup3\n        /* \"#utility.yul\":4853:4862   */\n      dup10\n        /* \"#utility.yul\":4849:4871   */\n      add\n        /* \"#utility.yul\":4828:4881   */\n      tag_93\n      jump\t// in\n    tag_179:\n        /* \"#utility.yul\":4818:4881   */\n      swap3\n      pop\n        /* \"#utility.yul\":4773:4891   */\n      pop\n        /* \"#utility.yul\":4958:4961   */\n      0x80\n        /* \"#utility.yul\":4947:4956   */\n      dup7\n        /* \"#utility.yul\":4943:4962   */\n      add\n        /* \"#utility.yul\":4930:4963   */\n      calldataload\n        /* \"#utility.yul\":4990:5008   */\n      0xffffffffffffffff\n        /* \"#utility.yul\":4982:4988   */\n      dup2\n        /* \"#utility.yul\":4979:5009   */\n      gt\n        /* \"#utility.yul\":4976:5093   */\n      iszero\n      tag_180\n      jumpi\n        /* \"#utility.yul\":5012:5091   */\n      tag_181\n      tag_76\n      jump\t// in\n    tag_181:\n        /* \"#utility.yul\":4976:5093   */\n    tag_180:\n        /* \"#utility.yul\":5117:5180   */\n      tag_182\n        /* \"#utility.yul\":5172:5179   */\n      dup9\n        /* \"#utility.yul\":5163:5169   */\n      dup3\n        /* \"#utility.yul\":5152:5161   */\n      dup10\n        /* \"#utility.yul\":5148:5170   */\n      add\n        /* \"#utility.yul\":5117:5180   */\n      tag_90\n      jump\t// in\n    tag_182:\n        /* \"#utility.yul\":5107:5180   */\n      swap2\n      pop\n        /* \"#utility.yul\":4901:5190   */\n      pop\n        /* \"#utility.yul\":3746:5197   */\n      swap3\n      swap6\n      pop\n      swap3\n      swap6\n      swap1\n      swap4\n      pop\n      jump\t// out\n        /* \"#utility.yul\":5203:5293   */\n    tag_94:\n        /* \"#utility.yul\":5237:5244   */\n      0x00\n        /* \"#utility.yul\":5280:5285   */\n      dup2\n        /* \"#utility.yul\":5273:5286   */\n      iszero\n        /* \"#utility.yul\":5266:5287   */\n      iszero\n        /* \"#utility.yul\":5255:5287   */\n      swap1\n      pop\n        /* \"#utility.yul\":5203:5293   */\n      swap2\n      swap1\n      pop\n      jump\t// out\n        /* \"#utility.yul\":5299:5408   */\n    tag_95:\n        /* \"#utility.yul\":5380:5401   */\n      tag_185\n        /* \"#utility.yul\":5395:5400   */\n      dup2\n        /* \"#utility.yul\":5380:5401   */\n      tag_94\n      jump\t// in\n    tag_185:\n        /* \"#utility.yul\":5375:5378   */\n      dup3\n        /* \"#utility.yul\":5368:5402   */\n      mstore\n        /* \"#utility.yul\":5299:5408   */\n      pop\n      pop\n      jump\t// out\n        /* \"#utility.yul\":5414:5624   */\n    tag_27:\n        /* \"#utility.yul\":5501:5505   */\n      0x00\n        /* \"#utility.yul\":5539:5541   */\n      0x20\n        /* \"#utility.yul\":5528:5537   */\n      dup3\n        /* \"#utility.yul\":5524:5542   */\n      add\n        /* \"#utility.yul\":5516:5542   */\n      swap1\n      pop\n        /* \"#utility.yul\":5552:5617   */\n      tag_187\n        /* \"#utility.yul\":5614:5615   */\n      0x00\n        /* \"#utility.yul\":5603:5612   */\n      dup4\n        /* \"#utility.yul\":5599:5616   */\n      add\n        /* \"#utility.yul\":5590:5596   */\n      dup5\n        /* \"#utility.yul\":5552:5617   */\n      tag_95\n      jump\t// in\n    tag_187:\n        /* \"#utility.yul\":5414:5624   */\n      swap3\n      swap2\n      pop\n      pop\n      jump\t// out\n        /* \"#utility.yul\":5630:5748   */\n    tag_96:\n        /* \"#utility.yul\":5717:5741   */\n      tag_189\n        /* \"#utility.yul\":5735:5740   */\n      dup2\n        /* \"#utility.yul\":5717:5741   */\n      tag_78\n      jump\t// in\n    tag_189:\n        /* \"#utility.yul\":5712:5715   */\n      dup3\n        /* \"#utility.yul\":5705:5742   */\n      mstore\n        /* \"#utility.yul\":5630:5748   */\n      pop\n      pop\n      jump\t// out\n        /* \"#utility.yul\":5754:5976   */\n    tag_32:\n        /* \"#utility.yul\":5847:5851   */\n      0x00\n        /* \"#utility.yul\":5885:5887   */\n      0x20\n        /* \"#utility.yul\":5874:5883   */\n      dup3\n        /* \"#utility.yul\":5870:5888   */\n      add\n        /* \"#utility.yul\":5862:5888   */\n      swap1\n      pop\n        /* \"#utility.yul\":5898:5969   */\n      tag_191\n        /* \"#utility.yul\":5966:5967   */\n      0x00\n        /* \"#utility.yul\":5955:5964   */\n      dup4\n        /* \"#utility.yul\":5951:5968   */\n      add\n        /* \"#utility.yul\":5942:5948   */\n      dup5\n        /* \"#utility.yul\":5898:5969   */\n      tag_96\n      jump\t// in\n    tag_191:\n        /* \"#utility.yul\":5754:5976   */\n      swap3\n      swap2\n      pop\n      pop\n      jump\t// out\n        /* \"#utility.yul\":5982:6491   */\n    tag_36:\n        /* \"#utility.yul\":6051:6057   */\n      0x00\n        /* \"#utility.yul\":6100:6102   */\n      0x20\n        /* \"#utility.yul\":6088:6097   */\n      dup3\n        /* \"#utility.yul\":6079:6086   */\n      dup5\n        /* \"#utility.yul\":6075:6098   */\n      sub\n        /* \"#utility.yul\":6071:6103   */\n      slt\n        /* \"#utility.yul\":6068:6187   */\n      iszero\n      tag_193\n      jumpi\n        /* \"#utility.yul\":6106:6185   */\n      tag_194\n      tag_75\n      jump\t// in\n    tag_194:\n        /* \"#utility.yul\":6068:6187   */\n    tag_193:\n        /* \"#utility.yul\":6254:6255   */\n      0x00\n        /* \"#utility.yul\":6243:6252   */\n      dup3\n        /* \"#utility.yul\":6239:6256   */\n      add\n        /* \"#utility.yul\":6226:6257   */\n      calldataload\n        /* \"#utility.yul\":6284:6302   */\n      0xffffffffffffffff\n        /* \"#utility.yul\":6276:6282   */\n      dup2\n        /* \"#utility.yul\":6273:6303   */\n      gt\n        /* \"#utility.yul\":6270:6387   */\n      iszero\n      tag_195\n      jumpi\n        /* \"#utility.yul\":6306:6385   */\n      tag_196\n      tag_76\n      jump\t// in\n    tag_196:\n        /* \"#utility.yul\":6270:6387   */\n    tag_195:\n        /* \"#utility.yul\":6411:6474   */\n      tag_197\n        /* \"#utility.yul\":6466:6473   */\n      dup5\n        /* \"#utility.yul\":6457:6463   */\n      dup3\n        /* \"#utility.yul\":6446:6455   */\n      dup6\n        /* \"#utility.yul\":6442:6464   */\n      add\n        /* \"#utility.yul\":6411:6474   */\n      tag_90\n      jump\t// in\n    tag_197:\n        /* \"#utility.yul\":6401:6474   */\n      swap2\n      pop\n        /* \"#utility.yul\":6197:6484   */\n      pop\n        /* \"#utility.yul\":5982:6491   */\n      swap3\n      swap2\n      pop\n      pop\n      jump\t// out\n        /* \"#utility.yul\":6497:7151   */\n    tag_41:\n        /* \"#utility.yul\":6575:6581   */\n      0x00\n        /* \"#utility.yul\":6583:6589   */\n      dup1\n        /* \"#utility.yul\":6632:6634   */\n      0x40\n        /* \"#utility.yul\":6620:6629   */\n      dup4\n        /* \"#utility.yul\":6611:6618   */\n      dup6\n        /* \"#utility.yul\":6607:6630   */\n      sub\n        /* \"#utility.yul\":6603:6635   */\n      slt\n        /* \"#utility.yul\":6600:6719   */\n      iszero\n      tag_199\n      jumpi\n        /* \"#utility.yul\":6638:6717   */\n      tag_200\n      tag_75\n      jump\t// in\n    tag_200:\n        /* \"#utility.yul\":6600:6719   */\n    tag_199:\n        /* \"#utility.yul\":6786:6787   */\n      0x00\n        /* \"#utility.yul\":6775:6784   */\n      dup4\n        /* \"#utility.yul\":6771:6788   */\n      add\n        /* \"#utility.yul\":6758:6789   */\n      calldataload\n        /* \"#utility.yul\":6816:6834   */\n      0xffffffffffffffff\n        /* \"#utility.yul\":6808:6814   */\n      dup2\n        /* \"#utility.yul\":6805:6835   */\n      gt\n        /* \"#utility.yul\":6802:6919   */\n      iszero\n      tag_201\n      jumpi\n        /* \"#utility.yul\":6838:6917   */\n      tag_202\n      tag_76\n      jump\t// in\n    tag_202:\n        /* \"#utility.yul\":6802:6919   */\n    tag_201:\n        /* \"#utility.yul\":6943:7006   */\n      tag_203\n        /* \"#utility.yul\":6998:7005   */\n      dup6\n        /* \"#utility.yul\":6989:6995   */\n      dup3\n        /* \"#utility.yul\":6978:6987   */\n      dup7\n        /* \"#utility.yul\":6974:6996   */\n      add\n        /* \"#utility.yul\":6943:7006   */\n      tag_90\n      jump\t// in\n    tag_203:\n        /* \"#utility.yul\":6933:7006   */\n      swap3\n      pop\n        /* \"#utility.yul\":6729:7016   */\n      pop\n        /* \"#utility.yul\":7055:7057   */\n      0x20\n        /* \"#utility.yul\":7081:7134   */\n      tag_204\n        /* \"#utility.yul\":7126:7133   */\n      dup6\n        /* \"#utility.yul\":7117:7123   */\n      dup3\n        /* \"#utility.yul\":7106:7115   */\n      dup7\n        /* \"#utility.yul\":7102:7124   */\n      add\n        /* \"#utility.yul\":7081:7134   */\n      tag_80\n      jump\t// in\n    tag_204:\n        /* \"#utility.yul\":7071:7134   */\n      swap2\n      pop\n        /* \"#utility.yul\":7026:7144   */\n      pop\n        /* \"#utility.yul\":6497:7151   */\n      swap3\n      pop\n      swap3\n      swap1\n      pop\n      jump\t// out\n        /* \"#utility.yul\":7157:7326   */\n    tag_97:\n        /* \"#utility.yul\":7241:7252   */\n      0x00\n        /* \"#utility.yul\":7275:7281   */\n      dup3\n        /* \"#utility.yul\":7270:7273   */\n      dup3\n        /* \"#utility.yul\":7263:7282   */\n      mstore\n        /* \"#utility.yul\":7315:7319   */\n      0x20\n        /* \"#utility.yul\":7310:7313   */\n      dup3\n        /* \"#utility.yul\":7306:7320   */\n      add\n        /* \"#utility.yul\":7291:7320   */\n      swap1\n      pop\n        /* \"#utility.yul\":7157:7326   */\n      swap3\n      swap2\n      pop\n      pop\n      jump\t// out\n        /* \"#utility.yul\":7332:7514   */\n    tag_98:\n        /* \"#utility.yul\":7472:7506   */\n      0x4f776e61626c653a2063616c6c6572206973206e6f7420746865206f776e6572\n        /* \"#utility.yul\":7468:7469   */\n      0x00\n        /* \"#utility.yul\":7460:7466   */\n      dup3\n        /* \"#utility.yul\":7456:7470   */\n      add\n        /* \"#utility.yul\":7449:7507   */\n      mstore\n        /* \"#utility.yul\":7332:7514   */\n      pop\n      jump\t// out\n        /* \"#utility.yul\":7520:7886   */\n    tag_99:\n        /* \"#utility.yul\":7662:7665   */\n      0x00\n        /* \"#utility.yul\":7683:7750   */\n      tag_208\n        /* \"#utility.yul\":7747:7749   */\n      0x20\n        /* \"#utility.yul\":7742:7745   */\n      dup4\n        /* \"#utility.yul\":7683:7750   */\n      tag_97\n      jump\t// in\n    tag_208:\n        /* \"#utility.yul\":7676:7750   */\n      swap2\n      pop\n        /* \"#utility.yul\":7759:7852   */\n      tag_209\n        /* \"#utility.yul\":7848:7851   */\n      dup3\n        /* \"#utility.yul\":7759:7852   */\n      tag_98\n      jump\t// in\n    tag_209:\n        /* \"#utility.yul\":7877:7879   */\n      0x20\n        /* \"#utility.yul\":7872:7875   */\n      dup3\n        /* \"#utility.yul\":7868:7880   */\n      add\n        /* \"#utility.yul\":7861:7880   */\n      swap1\n      pop\n        /* \"#utility.yul\":7520:7886   */\n      swap2\n      swap1\n      pop\n      jump\t// out\n        /* \"#utility.yul\":7892:8311   */\n    tag_47:\n        /* \"#utility.yul\":8058:8062   */\n      0x00\n        /* \"#utility.yul\":8096:8098   */\n      0x20\n        /* \"#utility.yul\":8085:8094   */\n      dup3\n        /* \"#utility.yul\":8081:8099   */\n      add\n        /* \"#utility.yul\":8073:8099   */\n      swap1\n      pop\n        /* \"#utility.yul\":8145:8154   */\n      dup2\n        /* \"#utility.yul\":8139:8143   */\n      dup2\n        /* \"#utility.yul\":8135:8155   */\n      sub\n        /* \"#utility.yul\":8131:8132   */\n      0x00\n        /* \"#utility.yul\":8120:8129   */\n      dup4\n        /* \"#utility.yul\":8116:8133   */\n      add\n        /* \"#utility.yul\":8109:8156   */\n      mstore\n        /* \"#utility.yul\":8173:8304   */\n      tag_211\n        /* \"#utility.yul\":8299:8303   */\n      dup2\n        /* \"#utility.yul\":8173:8304   */\n      tag_99\n      jump\t// in\n    tag_211:\n        /* \"#utility.yul\":8165:8304   */\n      swap1\n      pop\n        /* \"#utility.yul\":7892:8311   */\n      swap2\n      swap1\n      pop\n      jump\t// out\n        /* \"#utility.yul\":8317:8416   */\n    tag_100:\n        /* \"#utility.yul\":8369:8375   */\n      0x00\n        /* \"#utility.yul\":8403:8408   */\n      dup2\n        /* \"#utility.yul\":8397:8409   */\n      mload\n        /* \"#utility.yul\":8387:8409   */\n      swap1\n      pop\n        /* \"#utility.yul\":8317:8416   */\n      swap2\n      swap1\n      pop\n      jump\t// out\n        /* \"#utility.yul\":8422:8570   */\n    tag_101:\n        /* \"#utility.yul\":8524:8535   */\n      0x00\n        /* \"#utility.yul\":8561:8564   */\n      dup2\n        /* \"#utility.yul\":8546:8564   */\n      swap1\n      pop\n        /* \"#utility.yul\":8422:8570   */\n      swap3\n      swap2\n      pop\n      pop\n      jump\t// out\n        /* \"#utility.yul\":8576:8883   */\n    tag_102:\n        /* \"#utility.yul\":8644:8645   */\n      0x00\n        /* \"#utility.yul\":8654:8767   */\n    tag_215:\n        /* \"#utility.yul\":8668:8674   */\n      dup4\n        /* \"#utility.yul\":8665:8666   */\n      dup2\n        /* \"#utility.yul\":8662:8675   */\n      lt\n        /* \"#utility.yul\":8654:8767   */\n      iszero\n      tag_217\n      jumpi\n        /* \"#utility.yul\":8753:8754   */\n      dup1\n        /* \"#utility.yul\":8748:8751   */\n      dup3\n        /* \"#utility.yul\":8744:8755   */\n      add\n        /* \"#utility.yul\":8738:8756   */\n      mload\n        /* \"#utility.yul\":8734:8735   */\n      dup2\n        /* \"#utility.yul\":8729:8732   */\n      dup5\n        /* \"#utility.yul\":8725:8736   */\n      add\n        /* \"#utility.yul\":8718:8757   */\n      mstore\n        /* \"#utility.yul\":8690:8692   */\n      0x20\n        /* \"#utility.yul\":8687:8688   */\n      dup2\n        /* \"#utility.yul\":8683:8693   */\n      add\n        /* \"#utility.yul\":8678:8693   */\n      swap1\n      pop\n        /* \"#utility.yul\":8654:8767   */\n      jump(tag_215)\n    tag_217:\n        /* \"#utility.yul\":8785:8791   */\n      dup4\n        /* \"#utility.yul\":8782:8783   */\n      dup2\n        /* \"#utility.yul\":8779:8792   */\n      gt\n        /* \"#utility.yul\":8776:8877   */\n      iszero\n      tag_218\n      jumpi\n        /* \"#utility.yul\":8865:8866   */\n      0x00\n        /* \"#utility.yul\":8856:8862   */\n      dup5\n        /* \"#utility.yul\":8851:8854   */\n      dup5\n        /* \"#utility.yul\":8847:8863   */\n      add\n        /* \"#utility.yul\":8840:8867   */\n      mstore\n        /* \"#utility.yul\":8776:8877   */\n    tag_218:\n        /* \"#utility.yul\":8625:8883   */\n      pop\n        /* \"#utility.yul\":8576:8883   */\n      pop\n      pop\n      pop\n      jump\t// out\n        /* \"#utility.yul\":8889:9266   */\n    tag_103:\n        /* \"#utility.yul\":8995:8998   */\n      0x00\n        /* \"#utility.yul\":9023:9062   */\n      tag_220\n        /* \"#utility.yul\":9056:9061   */\n      dup3\n        /* \"#utility.yul\":9023:9062   */\n      tag_100\n      jump\t// in\n    tag_220:\n        /* \"#utility.yul\":9078:9167   */\n      tag_221\n        /* \"#utility.yul\":9160:9166   */\n      dup2\n        /* \"#utility.yul\":9155:9158   */\n      dup6\n        /* \"#utility.yul\":9078:9167   */\n      tag_101\n      jump\t// in\n    tag_221:\n        /* \"#utility.yul\":9071:9167   */\n      swap4\n      pop\n        /* \"#utility.yul\":9176:9228   */\n      tag_222\n        /* \"#utility.yul\":9221:9227   */\n      dup2\n        /* \"#utility.yul\":9216:9219   */\n      dup6\n        /* \"#utility.yul\":9209:9213   */\n      0x20\n        /* \"#utility.yul\":9202:9207   */\n      dup7\n        /* \"#utility.yul\":9198:9214   */\n      add\n        /* \"#utility.yul\":9176:9228   */\n      tag_102\n      jump\t// in\n    tag_222:\n        /* \"#utility.yul\":9253:9259   */\n      dup1\n        /* \"#utility.yul\":9248:9251   */\n      dup5\n        /* \"#utility.yul\":9244:9260   */\n      add\n        /* \"#utility.yul\":9237:9260   */\n      swap2\n      pop\n        /* \"#utility.yul\":8999:9266   */\n      pop\n        /* \"#utility.yul\":8889:9266   */\n      swap3\n      swap2\n      pop\n      pop\n      jump\t// out\n        /* \"#utility.yul\":9272:9547   */\n    tag_51:\n        /* \"#utility.yul\":9404:9407   */\n      0x00\n        /* \"#utility.yul\":9426:9521   */\n      tag_224\n        /* \"#utility.yul\":9517:9520   */\n      dup3\n        /* \"#utility.yul\":9508:9514   */\n      dup5\n        /* \"#utility.yul\":9426:9521   */\n      tag_103\n      jump\t// in\n    tag_224:\n        /* \"#utility.yul\":9419:9521   */\n      swap2\n      pop\n        /* \"#utility.yul\":9538:9541   */\n      dup2\n        /* \"#utility.yul\":9531:9541   */\n      swap1\n      pop\n        /* \"#utility.yul\":9272:9547   */\n      swap3\n      swap2\n      pop\n      pop\n      jump\t// out\n        /* \"#utility.yul\":9553:9733   */\n    tag_104:\n        /* \"#utility.yul\":9601:9678   */\n      0x4e487b7100000000000000000000000000000000000000000000000000000000\n        /* \"#utility.yul\":9598:9599   */\n      0x00\n        /* \"#utility.yul\":9591:9679   */\n      mstore\n        /* \"#utility.yul\":9698:9702   */\n      0x22\n        /* \"#utility.yul\":9695:9696   */\n      0x04\n        /* \"#utility.yul\":9688:9703   */\n      mstore\n        /* \"#utility.yul\":9722:9726   */\n      0x24\n        /* \"#utility.yul\":9719:9720   */\n      0x00\n        /* \"#utility.yul\":9712:9727   */\n      revert\n        /* \"#utility.yul\":9739:10059   */\n    tag_105:\n        /* \"#utility.yul\":9783:9789   */\n      0x00\n        /* \"#utility.yul\":9820:9821   */\n      0x02\n        /* \"#utility.yul\":9814:9818   */\n      dup3\n        /* \"#utility.yul\":9810:9822   */\n      div\n        /* \"#utility.yul\":9800:9822   */\n      swap1\n      pop\n        /* \"#utility.yul\":9867:9868   */\n      0x01\n        /* \"#utility.yul\":9861:9865   */\n      dup3\n        /* \"#utility.yul\":9857:9869   */\n      and\n        /* \"#utility.yul\":9888:9906   */\n      dup1\n        /* \"#utility.yul\":9878:9959   */\n      tag_227\n      jumpi\n        /* \"#utility.yul\":9944:9948   */\n      0x7f\n        /* \"#utility.yul\":9936:9942   */\n      dup3\n        /* \"#utility.yul\":9932:9949   */\n      and\n        /* \"#utility.yul\":9922:9949   */\n      swap2\n      pop\n        /* \"#utility.yul\":9878:9959   */\n    tag_227:\n        /* \"#utility.yul\":10006:10008   */\n      0x20\n        /* \"#utility.yul\":9998:10004   */\n      dup3\n        /* \"#utility.yul\":9995:10009   */\n      lt\n        /* \"#utility.yul\":9975:9993   */\n      dup2\n        /* \"#utility.yul\":9972:10010   */\n      sub\n        /* \"#utility.yul\":9969:10053   */\n      tag_228\n      jumpi\n        /* \"#utility.yul\":10025:10043   */\n      tag_229\n      tag_104\n      jump\t// in\n    tag_229:\n        /* \"#utility.yul\":9969:10053   */\n    tag_228:\n        /* \"#utility.yul\":9790:10059   */\n      pop\n        /* \"#utility.yul\":9739:10059   */\n      swap2\n      swap1\n      pop\n      jump\t// out\n        /* \"#utility.yul\":10065:10206   */\n    tag_106:\n        /* \"#utility.yul\":10114:10118   */\n      0x00\n        /* \"#utility.yul\":10137:10140   */\n      dup2\n        /* \"#utility.yul\":10129:10140   */\n      swap1\n      pop\n        /* \"#utility.yul\":10160:10163   */\n      dup2\n        /* \"#utility.yul\":10157:10158   */\n      0x00\n        /* \"#utility.yul\":10150:10164   */\n      mstore\n        /* \"#utility.yul\":10194:10198   */\n      0x20\n        /* \"#utility.yul\":10191:10192   */\n      0x00\n        /* \"#utility.yul\":10181:10199   */\n      keccak256\n        /* \"#utility.yul\":10173:10199   */\n      swap1\n      pop\n        /* \"#utility.yul\":10065:10206   */\n      swap2\n      swap1\n      pop\n      jump\t// out\n        /* \"#utility.yul\":10212:10305   */\n    tag_107:\n        /* \"#utility.yul\":10249:10255   */\n      0x00\n        /* \"#utility.yul\":10296:10298   */\n      0x20\n        /* \"#utility.yul\":10291:10293   */\n      0x1f\n        /* \"#utility.yul\":10284:10289   */\n      dup4\n        /* \"#utility.yul\":10280:10294   */\n      add\n        /* \"#utility.yul\":10276:10299   */\n      div\n        /* \"#utility.yul\":10266:10299   */\n      swap1\n      pop\n        /* \"#utility.yul\":10212:10305   */\n      swap2\n      swap1\n      pop\n      jump\t// out\n        /* \"#utility.yul\":10311:10418   */\n    tag_108:\n        /* \"#utility.yul\":10355:10363   */\n      0x00\n        /* \"#utility.yul\":10405:10410   */\n      dup3\n        /* \"#utility.yul\":10399:10403   */\n      dup3\n        /* \"#utility.yul\":10395:10411   */\n      shl\n        /* \"#utility.yul\":10374:10411   */\n      swap1\n      pop\n        /* \"#utility.yul\":10311:10418   */\n      swap3\n      swap2\n      pop\n      pop\n      jump\t// out\n        /* \"#utility.yul\":10424:10817   */\n    tag_109:\n        /* \"#utility.yul\":10493:10499   */\n      0x00\n        /* \"#utility.yul\":10543:10544   */\n      0x08\n        /* \"#utility.yul\":10531:10541   */\n      dup4\n        /* \"#utility.yul\":10527:10545   */\n      mul\n        /* \"#utility.yul\":10566:10663   */\n      tag_234\n        /* \"#utility.yul\":10596:10662   */\n      0xffffffffffffffffffffffffffffffffffffffffffffffffffffffffffffffff\n        /* \"#utility.yul\":10585:10594   */\n      dup3\n        /* \"#utility.yul\":10566:10663   */\n      tag_108\n      jump\t// in\n    tag_234:\n        /* \"#utility.yul\":10684:10723   */\n      tag_235\n        /* \"#utility.yul\":10714:10722   */\n      dup7\n        /* \"#utility.yul\":10703:10712   */\n      dup4\n        /* \"#utility.yul\":10684:10723   */\n      tag_108\n      jump\t// in\n    tag_235:\n        /* \"#utility.yul\":10672:10723   */\n      swap6\n      pop\n        /* \"#utility.yul\":10756:10760   */\n      dup1\n        /* \"#utility.yul\":10752:10761   */\n      not\n        /* \"#utility.yul\":10745:10750   */\n      dup5\n        /* \"#utility.yul\":10741:10762   */\n      and\n        /* \"#utility.yul\":10732:10762   */\n      swap4\n      pop\n        /* \"#utility.yul\":10805:10809   */\n      dup1\n        /* \"#utility.yul\":10795:10803   */\n      dup7\n        /* \"#utility.yul\":10791:10810   */\n      and\n        /* \"#utility.yul\":10784:10789   */\n      dup5\n        /* \"#utility.yul\":10781:10811   */\n      or\n        /* \"#utility.yul\":10771:10811   */\n      swap3\n      pop\n        /* \"#utility.yul\":10500:10817   */\n      pop\n      pop\n        /* \"#utility.yul\":10424:10817   */\n      swap4\n      swap3\n      pop\n      pop\n      pop\n      jump\t// out\n        /* \"#utility.yul\":10823:10883   */\n    tag_110:\n        /* \"#utility.yul\":10851:10854   */\n      0x00\n        /* \"#utility.yul\":10872:10877   */\n      dup2\n        /* \"#utility.yul\":10865:10877   */\n      swap1\n      pop\n        /* \"#utility.yul\":10823:10883   */\n      swap2\n      swap1\n      pop\n      jump\t// out\n        /* \"#utility.yul\":10889:11031   */\n    tag_111:\n        /* \"#utility.yul\":10939:10948   */\n      0x00\n        /* \"#utility.yul\":10972:11025   */\n      tag_238\n        /* \"#utility.yul\":10990:11024   */\n      tag_239\n        /* \"#utility.yul\":10999:11023   */\n      tag_240\n        /* \"#utility.yul\":11017:11022   */\n      dup5\n        /* \"#utility.yul\":10999:11023   */\n      tag_91\n      jump\t// in\n    tag_240:\n        /* \"#utility.yul\":10990:11024   */\n      tag_110\n      jump\t// in\n    tag_239:\n        /* \"#utility.yul\":10972:11025   */\n      tag_91\n      jump\t// in\n    tag_238:\n        /* \"#utility.yul\":10959:11025   */\n      swap1\n      pop\n        /* \"#utility.yul\":10889:11031   */\n      swap2\n      swap1\n      pop\n      jump\t// out\n        /* \"#utility.yul\":11037:11112   */\n    tag_112:\n        /* \"#utility.yul\":11080:11083   */\n      0x00\n        /* \"#utility.yul\":11101:11106   */\n      dup2\n        /* \"#utility.yul\":11094:11106   */\n      swap1\n      pop\n        /* \"#utility.yul\":11037:11112   */\n      swap2\n      swap1\n      pop\n      jump\t// out\n        /* \"#utility.yul\":11118:11387   */\n    tag_113:\n        /* \"#utility.yul\":11228:11267   */\n      tag_243\n        /* \"#utility.yul\":11259:11266   */\n      dup4\n        /* \"#utility.yul\":11228:11267   */\n      tag_111\n      jump\t// in\n    tag_243:\n        /* \"#utility.yul\":11289:11380   */\n      tag_244\n        /* \"#utility.yul\":11338:11379   */\n      tag_245\n        /* \"#utility.yul\":11362:11378   */\n      dup3\n        /* \"#utility.yul\":11338:11379   */\n      tag_112\n      jump\t// in\n    tag_245:\n        /* \"#utility.yul\":11330:11336   */\n      dup5\n        /* \"#utility.yul\":11323:11327   */\n      dup5\n        /* \"#utility.yul\":11317:11328   */\n      sload\n        /* \"#utility.yul\":11289:11380   */\n      tag_109\n      jump\t// in\n    tag_244:\n        /* \"#utility.yul\":11283:11287   */\n      dup3\n        /* \"#utility.yul\":11276:11381   */\n      sstore\n        /* \"#utility.yul\":11194:11387   */\n      pop\n        /* \"#utility.yul\":11118:11387   */\n      pop\n      pop\n      pop\n      jump\t// out\n        /* \"#utility.yul\":11393:11466   */\n    tag_114:\n        /* \"#utility.yul\":11438:11441   */\n      0x00\n        /* \"#utility.yul\":11393:11466   */\n      swap1\n      jump\t// out\n        /* \"#utility.yul\":11472:11661   */\n    tag_115:\n        /* \"#utility.yul\":11549:11581   */\n      tag_248\n      tag_114\n      jump\t// in\n    tag_248:\n        /* \"#utility.yul\":11590:11655   */\n      tag_249\n        /* \"#utility.yul\":11648:11654   */\n      dup2\n        /* \"#utility.yul\":11640:11646   */\n      dup5\n        /* \"#utility.yul\":11634:11638   */\n      dup5\n        /* \"#utility.yul\":11590:11655   */\n      tag_113\n      jump\t// in\n    tag_249:\n        /* \"#utility.yul\":11525:11661   */\n      pop\n        /* \"#utility.yul\":11472:11661   */\n      pop\n      pop\n      jump\t// out\n        /* \"#utility.yul\":11667:11853   */\n    tag_116:\n        /* \"#utility.yul\":11727:11847   */\n    tag_251:\n        /* \"#utility.yul\":11744:11747   */\n      dup2\n        /* \"#utility.yul\":11737:11742   */\n      dup2\n        /* \"#utility.yul\":11734:11748   */\n      lt\n        /* \"#utility.yul\":11727:11847   */\n      iszero\n      tag_253\n      jumpi\n        /* \"#utility.yul\":11798:11837   */\n      tag_254\n        /* \"#utility.yul\":11835:11836   */\n      0x00\n        /* \"#utility.yul\":11828:11833   */\n      dup3\n        /* \"#utility.yul\":11798:11837   */\n      tag_115\n      jump\t// in\n    tag_254:\n        /* \"#utility.yul\":11771:11772   */\n      0x01\n        /* \"#utility.yul\":11764:11769   */\n      dup2\n        /* \"#utility.yul\":11760:11773   */\n      add\n        /* \"#utility.yul\":11751:11773   */\n      swap1\n      pop\n        /* \"#utility.yul\":11727:11847   */\n      jump(tag_251)\n    tag_253:\n        /* \"#utility.yul\":11667:11853   */\n      pop\n      pop\n      jump\t// out\n        /* \"#utility.yul\":11859:12402   */\n    tag_117:\n        /* \"#utility.yul\":11960:11962   */\n      0x1f\n        /* \"#utility.yul\":11955:11958   */\n      dup3\n        /* \"#utility.yul\":11952:11963   */\n      gt\n        /* \"#utility.yul\":11949:12395   */\n      iszero\n      tag_256\n      jumpi\n        /* \"#utility.yul\":11994:12032   */\n      tag_257\n        /* \"#utility.yul\":12026:12031   */\n      dup2\n        /* \"#utility.yul\":11994:12032   */\n      tag_106\n      jump\t// in\n    tag_257:\n        /* \"#utility.yul\":12078:12107   */\n      tag_258\n        /* \"#utility.yul\":12096:12106   */\n      dup5\n        /* \"#utility.yul\":12078:12107   */\n      tag_107\n      jump\t// in\n    tag_258:\n        /* \"#utility.yul\":12068:12076   */\n      dup2\n        /* \"#utility.yul\":12064:12108   */\n      add\n        /* \"#utility.yul\":12261:12263   */\n      0x20\n        /* \"#utility.yul\":12249:12259   */\n      dup6\n        /* \"#utility.yul\":12246:12264   */\n      lt\n        /* \"#utility.yul\":12243:12292   */\n      iszero\n      tag_259\n      jumpi\n        /* \"#utility.yul\":12282:12290   */\n      dup2\n        /* \"#utility.yul\":12267:12290   */\n      swap1\n      pop\n        /* \"#utility.yul\":12243:12292   */\n    tag_259:\n        /* \"#utility.yul\":12305:12385   */\n      tag_260\n        /* \"#utility.yul\":12361:12383   */\n      tag_261\n        /* \"#utility.yul\":12379:12382   */\n      dup6\n        /* \"#utility.yul\":12361:12383   */\n      tag_107\n      jump\t// in\n    tag_261:\n        /* \"#utility.yul\":12351:12359   */\n      dup4\n        /* \"#utility.yul\":12347:12384   */\n      add\n        /* \"#utility.yul\":12334:12345   */\n      dup3\n        /* \"#utility.yul\":12305:12385   */\n      tag_116\n      jump\t// in\n    tag_260:\n        /* \"#utility.yul\":11964:12395   */\n      pop\n      pop\n        /* \"#utility.yul\":11949:12395   */\n    tag_256:\n        /* \"#utility.yul\":11859:12402   */\n      pop\n      pop\n      pop\n      jump\t// out\n        /* \"#utility.yul\":12408:12525   */\n    tag_118:\n        /* \"#utility.yul\":12462:12470   */\n      0x00\n        /* \"#utility.yul\":12512:12517   */\n      dup3\n        /* \"#utility.yul\":12506:12510   */\n      dup3\n        /* \"#utility.yul\":12502:12518   */\n      shr\n        /* \"#utility.yul\":12481:12518   */\n      swap1\n      pop\n        /* \"#utility.yul\":12408:12525   */\n      swap3\n      swap2\n      pop\n      pop\n      jump\t// out\n        /* \"#utility.yul\":12531:12700   */\n    tag_119:\n        /* \"#utility.yul\":12575:12581   */\n      0x00\n        /* \"#utility.yul\":12608:12659   */\n      tag_264\n        /* \"#utility.yul\":12656:12657   */\n      0x00\n        /* \"#utility.yul\":12652:12658   */\n      not\n        /* \"#utility.yul\":12644:12649   */\n      dup5\n        /* \"#utility.yul\":12641:12642   */\n      0x08\n        /* \"#utility.yul\":12637:12650   */\n      mul\n        /* \"#utility.yul\":12608:12659   */\n      tag_118\n      jump\t// in\n    tag_264:\n        /* \"#utility.yul\":12604:12660   */\n      not\n        /* \"#utility.yul\":12689:12693   */\n      dup1\n        /* \"#utility.yul\":12683:12687   */\n      dup4\n        /* \"#utility.yul\":12679:12694   */\n      and\n        /* \"#utility.yul\":12669:12694   */\n      swap2\n      pop\n        /* \"#utility.yul\":12582:12700   */\n      pop\n        /* \"#utility.yul\":12531:12700   */\n      swap3\n      swap2\n      pop\n      pop\n      jump\t// out\n        /* \"#utility.yul\":12705:13000   */\n    tag_120:\n        /* \"#utility.yul\":12781:12785   */\n      0x00\n        /* \"#utility.yul\":12927:12956   */\n      tag_266\n        /* \"#utility.yul\":12952:12955   */\n      dup4\n        /* \"#utility.yul\":12946:12950   */\n      dup4\n        /* \"#utility.yul\":12927:12956   */\n      tag_119\n      jump\t// in\n    tag_266:\n        /* \"#utility.yul\":12919:12956   */\n      swap2\n      pop\n        /* \"#utility.yul\":12989:12992   */\n      dup3\n        /* \"#utility.yul\":12986:12987   */\n      0x02\n        /* \"#utility.yul\":12982:12993   */\n      mul\n        /* \"#utility.yul\":12976:12980   */\n      dup3\n        /* \"#utility.yul\":12973:12994   */\n      or\n        /* \"#utility.yul\":12965:12994   */\n      swap1\n      pop\n        /* \"#utility.yul\":12705:13000   */\n      swap3\n      swap2\n      pop\n      pop\n      jump\t// out\n        /* \"#utility.yul\":13005:14400   */\n    tag_73:\n        /* \"#utility.yul\":13122:13159   */\n      tag_268\n        /* \"#utility.yul\":13155:13158   */\n      dup3\n        /* \"#utility.yul\":13122:13159   */\n      tag_100\n      jump\t// in\n    tag_268:\n        /* \"#utility.yul\":13224:13242   */\n      0xffffffffffffffff\n        /* \"#utility.yul\":13216:13222   */\n      dup2\n        /* \"#utility.yul\":13213:13243   */\n      gt\n        /* \"#utility.yul\":13210:13266   */\n      iszero\n      tag_269\n      jumpi\n        /* \"#utility.yul\":13246:13264   */\n      tag_270\n      tag_84\n      jump\t// in\n    tag_270:\n        /* \"#utility.yul\":13210:13266   */\n    tag_269:\n        /* \"#utility.yul\":13290:13328   */\n      tag_271\n        /* \"#utility.yul\":13322:13326   */\n      dup3\n        /* \"#utility.yul\":13316:13327   */\n      sload\n        /* \"#utility.yul\":13290:13328   */\n      tag_105\n      jump\t// in\n    tag_271:\n        /* \"#utility.yul\":13375:13442   */\n      tag_272\n        /* \"#utility.yul\":13435:13441   */\n      dup3\n        /* \"#utility.yul\":13427:13433   */\n      dup3\n        /* \"#utility.yul\":13421:13425   */\n      dup6\n        /* \"#utility.yul\":13375:13442   */\n      tag_117\n      jump\t// in\n    tag_272:\n        /* \"#utility.yul\":13469:13470   */\n      0x00\n        /* \"#utility.yul\":13493:13497   */\n      0x20\n        /* \"#utility.yul\":13480:13497   */\n      swap1\n      pop\n        /* \"#utility.yul\":13525:13527   */\n      0x1f\n        /* \"#utility.yul\":13517:13523   */\n      dup4\n        /* \"#utility.yul\":13514:13528   */\n      gt\n        /* \"#utility.yul\":13542:13543   */\n      0x01\n        /* \"#utility.yul\":13537:14155   */\n      dup2\n      eq\n      tag_274\n      jumpi\n        /* \"#utility.yul\":14199:14200   */\n      0x00\n        /* \"#utility.yul\":14216:14222   */\n      dup5\n        /* \"#utility.yul\":14213:14290   */\n      iszero\n      tag_275\n      jumpi\n        /* \"#utility.yul\":14265:14274   */\n      dup3\n        /* \"#utility.yul\":14260:14263   */\n      dup8\n        /* \"#utility.yul\":14256:14275   */\n      add\n        /* \"#utility.yul\":14250:14276   */\n      mload\n        /* \"#utility.yul\":14241:14276   */\n      swap1\n      pop\n        /* \"#utility.yul\":14213:14290   */\n    tag_275:\n        /* \"#utility.yul\":14316:14383   */\n      tag_276\n        /* \"#utility.yul\":14376:14382   */\n      dup6\n        /* \"#utility.yul\":14369:14374   */\n      dup3\n        /* \"#utility.yul\":14316:14383   */\n      tag_120\n      jump\t// in\n    tag_276:\n        /* \"#utility.yul\":14310:14314   */\n      dup7\n        /* \"#utility.yul\":14303:14384   */\n      sstore\n        /* \"#utility.yul\":14172:14394   */\n      pop\n        /* \"#utility.yul\":13507:14394   */\n      jump(tag_273)\n        /* \"#utility.yul\":13537:14155   */\n    tag_274:\n        /* \"#utility.yul\":13589:13593   */\n      0x1f\n        /* \"#utility.yul\":13585:13594   */\n      not\n        /* \"#utility.yul\":13577:13583   */\n      dup5\n        /* \"#utility.yul\":13573:13595   */\n      and\n        /* \"#utility.yul\":13623:13660   */\n      tag_277\n        /* \"#utility.yul\":13655:13659   */\n      dup7\n        /* \"#utility.yul\":13623:13660   */\n      tag_106\n      jump\t// in\n    tag_277:\n        /* \"#utility.yul\":13682:13683   */\n      0x00\n        /* \"#utility.yul\":13696:13904   */\n    tag_278:\n        /* \"#utility.yul\":13710:13717   */\n      dup3\n        /* \"#utility.yul\":13707:13708   */\n      dup2\n        /* \"#utility.yul\":13704:13718   */\n      lt\n        /* \"#utility.yul\":13696:13904   */\n      iszero\n      tag_280\n      jumpi\n        /* \"#utility.yul\":13789:13798   */\n      dup5\n        /* \"#utility.yul\":13784:13787   */\n      dup10\n        /* \"#utility.yul\":13780:13799   */\n      add\n        /* \"#utility.yul\":13774:13800   */\n      mload\n        /* \"#utility.yul\":13766:13772   */\n      dup3\n        /* \"#utility.yul\":13759:13801   */\n      sstore\n        /* \"#utility.yul\":13840:13841   */\n      0x01\n        /* \"#utility.yul\":13832:13838   */\n      dup3\n        /* \"#utility.yul\":13828:13842   */\n      add\n        /* \"#utility.yul\":13818:13842   */\n      swap2\n      pop\n        /* \"#utility.yul\":13887:13889   */\n      0x20\n        /* \"#utility.yul\":13876:13885   */\n      dup6\n        /* \"#utility.yul\":13872:13890   */\n      add\n        /* \"#utility.yul\":13859:13890   */\n      swap5\n      pop\n        /* \"#utility.yul\":13733:13737   */\n      0x20\n        /* \"#utility.yul\":13730:13731   */\n      dup2\n        /* \"#utility.yul\":13726:13738   */\n      add\n        /* \"#utility.yul\":13721:13738   */\n      swap1\n      pop\n        /* \"#utility.yul\":13696:13904   */\n      jump(tag_278)\n    tag_280:\n        /* \"#utility.yul\":13932:13938   */\n      dup7\n        /* \"#utility.yul\":13923:13930   */\n      dup4\n        /* \"#utility.yul\":13920:13939   */\n      lt\n        /* \"#utility.yul\":13917:14096   */\n      iszero\n      tag_281\n      jumpi\n        /* \"#utility.yul\":13990:13999   */\n      dup5\n        /* \"#utility.yul\":13985:13988   */\n      dup10\n        /* \"#utility.yul\":13981:14000   */\n      add\n        /* \"#utility.yul\":13975:14001   */\n      mload\n        /* \"#utility.yul\":14033:14081   */\n      tag_282\n        /* \"#utility.yul\":14075:14079   */\n      0x1f\n        /* \"#utility.yul\":14067:14073   */\n      dup10\n        /* \"#utility.yul\":14063:14080   */\n      and\n        /* \"#utility.yul\":14052:14061   */\n      dup3\n        /* \"#utility.yul\":14033:14081   */\n      tag_119\n      jump\t// in\n    tag_282:\n        /* \"#utility.yul\":14025:14031   */\n      dup4\n        /* \"#utility.yul\":14018:14082   */\n      sstore\n        /* \"#utility.yul\":13940:14096   */\n      pop\n        /* \"#utility.yul\":13917:14096   */\n    tag_281:\n        /* \"#utility.yul\":14142:14143   */\n      0x01\n        /* \"#utility.yul\":14138:14139   */\n      0x02\n        /* \"#utility.yul\":14130:14136   */\n      dup9\n        /* \"#utility.yul\":14126:14140   */\n      mul\n        /* \"#utility.yul\":14122:14144   */\n      add\n        /* \"#utility.yul\":14116:14120   */\n      dup9\n        /* \"#utility.yul\":14109:14145   */\n      sstore\n        /* \"#utility.yul\":13544:14155   */\n      pop\n      pop\n      pop\n        /* \"#utility.yul\":13507:14394   */\n    tag_273:\n      pop\n        /* \"#utility.yul\":13097:14400   */\n      pop\n      pop\n      pop\n        /* \"#utility.yul\":13005:14400   */\n      pop\n      pop\n      jump\t// out\n\n    auxdata: 0xa2646970667358221220af539e6141af76ad49ba543e640765f70f6f4259d6cd891520afd2269306039064736f6c634300080f0033\n}\n",
				"bytecode": {
					"linkReferences": {},
					"object": "608060405234801561001057600080fd5b50336000806101000a81548173ffffffffffffffffffffffffffffffffffffffff021916908373ffffffffffffffffffffffffffffffffffffffff16021790555033600360006101000a81548173ffffffffffffffffffffffffffffffffffffffff021916908373ffffffffffffffffffffffffffffffffffffffff160217905550610df2806100a16000396000f3fe6080604052600436106100705760003560e01c80638f32d59b1161004e5780638f32d59b146100e3578063b2bdfa7b1461010e578063e935155814610139578063fe49048a1461016257610070565b806313af4035146100755780633f59c6571461009e578063704b6c02146100ba575b600080fd5b34801561008157600080fd5b5061009c60048036038101906100979190610653565b61018b565b005b6100b860048036038101906100b391906107fc565b610215565b005b3480156100c657600080fd5b506100e160048036038101906100dc9190610653565b61028f565b005b3480156100ef57600080fd5b506100f861031a565b60405161010591906108e6565b60405180910390f35b34801561011a57600080fd5b50610123610371565b6040516101309190610910565b60405180910390f35b34801561014557600080fd5b50610160600480360381019061015b919061092b565b610395565b005b34801561016e57600080fd5b5061018960048036038101906101849190610974565b610494565b005b61019361031a565b6101d2576040517f08c379a00000000000000000000000000000000000000000000000000000000081526004016101c990610a2d565b60405180910390fd5b806000806101000a81548173ffffffffffffffffffffffffffffffffffffffff021916908373ffffffffffffffffffffffffffffffffffffffff16021790555050565b600115156001826040516102299190610ac7565b908152602001604051809103902060009054906101000a900460ff1615151461025157600080fd5b60006001826040516102639190610ac7565b908152602001604051809103902060006101000a81548160ff0219169083151502179055505050505050565b61029761031a565b6102d6576040517f08c379a00000000000000000000000000000000000000000000000000000000081526004016102cd90610a2d565b60405180910390fd5b80600360006101000a81548173ffffffffffffffffffffffffffffffffffffffff021916908373ffffffffffffffffffffffffffffffffffffffff16021790555050565b60008060009054906101000a900473ffffffffffffffffffffffffffffffffffffffff1673ffffffffffffffffffffffffffffffffffffffff163373ffffffffffffffffffffffffffffffffffffffff1614905090565b60008054906101000a900473ffffffffffffffffffffffffffffffffffffffff1681565b600360009054906101000a900473ffffffffffffffffffffffffffffffffffffffff1673ffffffffffffffffffffffffffffffffffffffff163373ffffffffffffffffffffffffffffffffffffffff16146103ef57600080fd5b600180826040516104009190610ac7565b908152602001604051809103902060006101000a81548160ff0219169083151502179055506001816040516104359190610ac7565b908152602001604051809103902060009054906101000a900460ff1661045a57600080fd5b600160028260405161046c9190610ac7565b908152602001604051809103902060006101000a81548160ff02191690831515021790555050565b600360009054906101000a900473ffffffffffffffffffffffffffffffffffffffff1673ffffffffffffffffffffffffffffffffffffffff163373ffffffffffffffffffffffffffffffffffffffff16146104ee57600080fd5b600180836040516104ff9190610ac7565b908152602001604051809103902060006101000a81548160ff0219169083151502179055506001826040516105349190610ac7565b908152602001604051809103902060009054906101000a900460ff1661055957600080fd5b600160028360405161056b9190610ac7565b908152602001604051809103902060006101000a81548160ff02191690831515021790555081600460008373ffffffffffffffffffffffffffffffffffffffff1673ffffffffffffffffffffffffffffffffffffffff16815260200190815260200160002090816105dc9190610cea565b505050565b6000604051905090565b600080fd5b600080fd5b600073ffffffffffffffffffffffffffffffffffffffff82169050919050565b6000610620826105f5565b9050919050565b61063081610615565b811461063b57600080fd5b50565b60008135905061064d81610627565b92915050565b600060208284031215610669576106686105eb565b5b60006106778482850161063e565b91505092915050565b600080fd5b600080fd5b6000601f19601f8301169050919050565b7f4e487b7100000000000000000000000000000000000000000000000000000000600052604160045260246000fd5b6106d38261068a565b810181811067ffffffffffffffff821117156106f2576106f161069b565b5b80604052505050565b60006107056105e1565b905061071182826106ca565b919050565b600067ffffffffffffffff8211156107315761073061069b565b5b61073a8261068a565b9050602081019050919050565b82818337600083830152505050565b600061076961076484610716565b6106fb565b90508281526020810184848401111561078557610784610685565b5b610790848285610747565b509392505050565b600082601f8301126107ad576107ac610680565b5b81356107bd848260208601610756565b91505092915050565b6000819050919050565b6107d9816107c6565b81146107e457600080fd5b50565b6000813590506107f6816107d0565b92915050565b600080600080600060a08688031215610818576108176105eb565b5b600086013567ffffffffffffffff811115610836576108356105f0565b5b61084288828901610798565b955050602086013567ffffffffffffffff811115610863576108626105f0565b5b61086f88828901610798565b9450506040610880888289016107e7565b9350506060610891888289016107e7565b925050608086013567ffffffffffffffff8111156108b2576108b16105f0565b5b6108be88828901610798565b9150509295509295909350565b60008115159050919050565b6108e0816108cb565b82525050565b60006020820190506108fb60008301846108d7565b92915050565b61090a81610615565b82525050565b60006020820190506109256000830184610901565b92915050565b600060208284031215610941576109406105eb565b5b600082013567ffffffffffffffff81111561095f5761095e6105f0565b5b61096b84828501610798565b91505092915050565b6000806040838503121561098b5761098a6105eb565b5b600083013567ffffffffffffffff8111156109a9576109a86105f0565b5b6109b585828601610798565b92505060206109c68582860161063e565b9150509250929050565b600082825260208201905092915050565b7f4f776e61626c653a2063616c6c6572206973206e6f7420746865206f776e6572600082015250565b6000610a176020836109d0565b9150610a22826109e1565b602082019050919050565b60006020820190508181036000830152610a4681610a0a565b9050919050565b600081519050919050565b600081905092915050565b60005b83811015610a81578082015181840152602081019050610a66565b83811115610a90576000848401525b50505050565b6000610aa182610a4d565b610aab8185610a58565b9350610abb818560208601610a63565b80840191505092915050565b6000610ad38284610a96565b915081905092915050565b7f4e487b7100000000000000000000000000000000000000000000000000000000600052602260045260246000fd5b60006002820490506001821680610b2557607f821691505b602082108103610b3857610b37610ade565b5b50919050565b60008190508160005260206000209050919050565b60006020601f8301049050919050565b600082821b905092915050565b600060088302610ba07fffffffffffffffffffffffffffffffffffffffffffffffffffffffffffffffff82610b63565b610baa8683610b63565b95508019841693508086168417925050509392505050565b6000819050919050565b6000610be7610be2610bdd846107c6565b610bc2565b6107c6565b9050919050565b6000819050919050565b610c0183610bcc565b610c15610c0d82610bee565b848454610b70565b825550505050565b600090565b610c2a610c1d565b610c35818484610bf8565b505050565b5b81811015610c5957610c4e600082610c22565b600181019050610c3b565b5050565b601f821115610c9e57610c6f81610b3e565b610c7884610b53565b81016020851015610c87578190505b610c9b610c9385610b53565b830182610c3a565b50505b505050565b600082821c905092915050565b6000610cc160001984600802610ca3565b1980831691505092915050565b6000610cda8383610cb0565b9150826002028217905092915050565b610cf382610a4d565b67ffffffffffffffff811115610d0c57610d0b61069b565b5b610d168254610b0d565b610d21828285610c5d565b600060209050601f831160018114610d545760008415610d42578287015190505b610d4c8582610cce565b865550610db4565b601f198416610d6286610b3e565b60005b82811015610d8a57848901518255600182019150602085019450602081019050610d65565b86831015610da75784890151610da3601f891682610cb0565b8355505b6001600288020188555050505b50505050505056fea2646970667358221220af539e6141af76ad49ba543e640765f70f6f4259d6cd891520afd2269306039064736f6c634300080f0033",
					"opcodes": "PUSH1 0x80 PUSH1 0x40 MSTORE CALLVALUE DUP1 ISZERO PUSH2 0x10 JUMPI PUSH1 0x0 DUP1 REVERT JUMPDEST POP CALLER PUSH1 0x0 DUP1 PUSH2 0x100 EXP DUP2 SLOAD DUP2 PUSH20 0xFFFFFFFFFFFFFFFFFFFFFFFFFFFFFFFFFFFFFFFF MUL NOT AND SWAP1 DUP4 PUSH20 0xFFFFFFFFFFFFFFFFFFFFFFFFFFFFFFFFFFFFFFFF AND MUL OR SWAP1 SSTORE POP CALLER PUSH1 0x3 PUSH1 0x0 PUSH2 0x100 EXP DUP2 SLOAD DUP2 PUSH20 0xFFFFFFFFFFFFFFFFFFFFFFFFFFFFFFFFFFFFFFFF MUL NOT AND SWAP1 DUP4 PUSH20 0xFFFFFFFFFFFFFFFFFFFFFFFFFFFFFFFFFFFFFFFF AND MUL OR SWAP1 SSTORE POP PUSH2 0xDF2 DUP1 PUSH2 0xA1 PUSH1 0x0 CODECOPY PUSH1 0x0 RETURN INVALID PUSH1 0x80 PUSH1 0x40 MSTORE PUSH1 0x4 CALLDATASIZE LT PUSH2 0x70 JUMPI PUSH1 0x0 CALLDATALOAD PUSH1 0xE0 SHR DUP1 PUSH4 0x8F32D59B GT PUSH2 0x4E JUMPI DUP1 PUSH4 0x8F32D59B EQ PUSH2 0xE3 JUMPI DUP1 PUSH4 0xB2BDFA7B EQ PUSH2 0x10E JUMPI DUP1 PUSH4 0xE9351558 EQ PUSH2 0x139 JUMPI DUP1 PUSH4 0xFE49048A EQ PUSH2 0x162 JUMPI PUSH2 0x70 JUMP JUMPDEST DUP1 PUSH4 0x13AF4035 EQ PUSH2 0x75 JUMPI DUP1 PUSH4 0x3F59C657 EQ PUSH2 0x9E JUMPI DUP1 PUSH4 0x704B6C02 EQ PUSH2 0xBA JUMPI JUMPDEST PUSH1 0x0 DUP1 REVERT JUMPDEST CALLVALUE DUP1 ISZERO PUSH2 0x81 JUMPI PUSH1 0x0 DUP1 REVERT JUMPDEST POP PUSH2 0x9C PUSH1 0x4 DUP1 CALLDATASIZE SUB DUP2 ADD SWAP1 PUSH2 0x97 SWAP2 SWAP1 PUSH2 0x653 JUMP JUMPDEST PUSH2 0x18B JUMP JUMPDEST STOP JUMPDEST PUSH2 0xB8 PUSH1 0x4 DUP1 CALLDATASIZE SUB DUP2 ADD SWAP1 PUSH2 0xB3 SWAP2 SWAP1 PUSH2 0x7FC JUMP JUMPDEST PUSH2 0x215 JUMP JUMPDEST STOP JUMPDEST CALLVALUE DUP1 ISZERO PUSH2 0xC6 JUMPI PUSH1 0x0 DUP1 REVERT JUMPDEST POP PUSH2 0xE1 PUSH1 0x4 DUP1 CALLDATASIZE SUB DUP2 ADD SWAP1 PUSH2 0xDC SWAP2 SWAP1 PUSH2 0x653 JUMP JUMPDEST PUSH2 0x28F JUMP JUMPDEST STOP JUMPDEST CALLVALUE DUP1 ISZERO PUSH2 0xEF JUMPI PUSH1 0x0 DUP1 REVERT JUMPDEST POP PUSH2 0xF8 PUSH2 0x31A JUMP JUMPDEST PUSH1 0x40 MLOAD PUSH2 0x105 SWAP2 SWAP1 PUSH2 0x8E6 JUMP JUMPDEST PUSH1 0x40 MLOAD DUP1 SWAP2 SUB SWAP1 RETURN JUMPDEST CALLVALUE DUP1 ISZERO PUSH2 0x11A JUMPI PUSH1 0x0 DUP1 REVERT JUMPDEST POP PUSH2 0x123 PUSH2 0x371 JUMP JUMPDEST PUSH1 0x40 MLOAD PUSH2 0x130 SWAP2 SWAP1 PUSH2 0x910 JUMP JUMPDEST PUSH1 0x40 MLOAD DUP1 SWAP2 SUB SWAP1 RETURN JUMPDEST CALLVALUE DUP1 ISZERO PUSH2 0x145 JUMPI PUSH1 0x0 DUP1 REVERT JUMPDEST POP PUSH2 0x160 PUSH1 0x4 DUP1 CALLDATASIZE SUB DUP2 ADD SWAP1 PUSH2 0x15B SWAP2 SWAP1 PUSH2 0x92B JUMP JUMPDEST PUSH2 0x395 JUMP JUMPDEST STOP JUMPDEST CALLVALUE DUP1 ISZERO PUSH2 0x16E JUMPI PUSH1 0x0 DUP1 REVERT JUMPDEST POP PUSH2 0x189 PUSH1 0x4 DUP1 CALLDATASIZE SUB DUP2 ADD SWAP1 PUSH2 0x184 SWAP2 SWAP1 PUSH2 0x974 JUMP JUMPDEST PUSH2 0x494 JUMP JUMPDEST STOP JUMPDEST PUSH2 0x193 PUSH2 0x31A JUMP JUMPDEST PUSH2 0x1D2 JUMPI PUSH1 0x40 MLOAD PUSH32 0x8C379A000000000000000000000000000000000000000000000000000000000 DUP2 MSTORE PUSH1 0x4 ADD PUSH2 0x1C9 SWAP1 PUSH2 0xA2D JUMP JUMPDEST PUSH1 0x40 MLOAD DUP1 SWAP2 SUB SWAP1 REVERT JUMPDEST DUP1 PUSH1 0x0 DUP1 PUSH2 0x100 EXP DUP2 SLOAD DUP2 PUSH20 0xFFFFFFFFFFFFFFFFFFFFFFFFFFFFFFFFFFFFFFFF MUL NOT AND SWAP1 DUP4 PUSH20 0xFFFFFFFFFFFFFFFFFFFFFFFFFFFFFFFFFFFFFFFF AND MUL OR SWAP1 SSTORE POP POP JUMP JUMPDEST PUSH1 0x1 ISZERO ISZERO PUSH1 0x1 DUP3 PUSH1 0x40 MLOAD PUSH2 0x229 SWAP2 SWAP1 PUSH2 0xAC7 JUMP JUMPDEST SWAP1 DUP2 MSTORE PUSH1 0x20 ADD PUSH1 0x40 MLOAD DUP1 SWAP2 SUB SWAP1 KECCAK256 PUSH1 0x0 SWAP1 SLOAD SWAP1 PUSH2 0x100 EXP SWAP1 DIV PUSH1 0xFF AND ISZERO ISZERO EQ PUSH2 0x251 JUMPI PUSH1 0x0 DUP1 REVERT JUMPDEST PUSH1 0x0 PUSH1 0x1 DUP3 PUSH1 0x40 MLOAD PUSH2 0x263 SWAP2 SWAP1 PUSH2 0xAC7 JUMP JUMPDEST SWAP1 DUP2 MSTORE PUSH1 0x20 ADD PUSH1 0x40 MLOAD DUP1 SWAP2 SUB SWAP1 KECCAK256 PUSH1 0x0 PUSH2 0x100 EXP DUP2 SLOAD DUP2 PUSH1 0xFF MUL NOT AND SWAP1 DUP4 ISZERO ISZERO MUL OR SWAP1 SSTORE POP POP POP POP POP POP JUMP JUMPDEST PUSH2 0x297 PUSH2 0x31A JUMP JUMPDEST PUSH2 0x2D6 JUMPI PUSH1 0x40 MLOAD PUSH32 0x8C379A000000000000000000000000000000000000000000000000000000000 DUP2 MSTORE PUSH1 0x4 ADD PUSH2 0x2CD SWAP1 PUSH2 0xA2D JUMP JUMPDEST PUSH1 0x40 MLOAD DUP1 SWAP2 SUB SWAP1 REVERT JUMPDEST DUP1 PUSH1 0x3 PUSH1 0x0 PUSH2 0x100 EXP DUP2 SLOAD DUP2 PUSH20 0xFFFFFFFFFFFFFFFFFFFFFFFFFFFFFFFFFFFFFFFF MUL NOT AND SWAP1 DUP4 PUSH20 0xFFFFFFFFFFFFFFFFFFFFFFFFFFFFFFFFFFFFFFFF AND MUL OR SWAP1 SSTORE POP POP JUMP JUMPDEST PUSH1 0x0 DUP1 PUSH1 0x0 SWAP1 SLOAD SWAP1 PUSH2 0x100 EXP SWAP1 DIV PUSH20 0xFFFFFFFFFFFFFFFFFFFFFFFFFFFFFFFFFFFFFFFF AND PUSH20 0xFFFFFFFFFFFFFFFFFFFFFFFFFFFFFFFFFFFFFFFF AND CALLER PUSH20 0xFFFFFFFFFFFFFFFFFFFFFFFFFFFFFFFFFFFFFFFF AND EQ SWAP1 POP SWAP1 JUMP JUMPDEST PUSH1 0x0 DUP1 SLOAD SWAP1 PUSH2 0x100 EXP SWAP1 DIV PUSH20 0xFFFFFFFFFFFFFFFFFFFFFFFFFFFFFFFFFFFFFFFF AND DUP2 JUMP JUMPDEST PUSH1 0x3 PUSH1 0x0 SWAP1 SLOAD SWAP1 PUSH2 0x100 EXP SWAP1 DIV PUSH20 0xFFFFFFFFFFFFFFFFFFFFFFFFFFFFFFFFFFFFFFFF AND PUSH20 0xFFFFFFFFFFFFFFFFFFFFFFFFFFFFFFFFFFFFFFFF AND CALLER PUSH20 0xFFFFFFFFFFFFFFFFFFFFFFFFFFFFFFFFFFFFFFFF AND EQ PUSH2 0x3EF JUMPI PUSH1 0x0 DUP1 REVERT JUMPDEST PUSH1 0x1 DUP1 DUP3 PUSH1 0x40 MLOAD PUSH2 0x400 SWAP2 SWAP1 PUSH2 0xAC7 JUMP JUMPDEST SWAP1 DUP2 MSTORE PUSH1 0x20 ADD PUSH1 0x40 MLOAD DUP1 SWAP2 SUB SWAP1 KECCAK256 PUSH1 0x0 PUSH2 0x100 EXP DUP2 SLOAD DUP2 PUSH1 0xFF MUL NOT AND SWAP1 DUP4 ISZERO ISZERO MUL OR SWAP1 SSTORE POP PUSH1 0x1 DUP2 PUSH1 0x40 MLOAD PUSH2 0x435 SWAP2 SWAP1 PUSH2 0xAC7 JUMP JUMPDEST SWAP1 DUP2 MSTORE PUSH1 0x20 ADD PUSH1 0x40 MLOAD DUP1 SWAP2 SUB SWAP1 KECCAK256 PUSH1 0x0 SWAP1 SLOAD SWAP1 PUSH2 0x100 EXP SWAP1 DIV PUSH1 0xFF AND PUSH2 0x45A JUMPI PUSH1 0x0 DUP1 REVERT JUMPDEST PUSH1 0x1 PUSH1 0x2 DUP3 PUSH1 0x40 MLOAD PUSH2 0x46C SWAP2 SWAP1 PUSH2 0xAC7 JUMP JUMPDEST SWAP1 DUP2 MSTORE PUSH1 0x20 ADD PUSH1 0x40 MLOAD DUP1 SWAP2 SUB SWAP1 KECCAK256 PUSH1 0x0 PUSH2 0x100 EXP DUP2 SLOAD DUP2 PUSH1 0xFF MUL NOT AND SWAP1 DUP4 ISZERO ISZERO MUL OR SWAP1 SSTORE POP POP JUMP JUMPDEST PUSH1 0x3 PUSH1 0x0 SWAP1 SLOAD SWAP1 PUSH2 0x100 EXP SWAP1 DIV PUSH20 0xFFFFFFFFFFFFFFFFFFFFFFFFFFFFFFFFFFFFFFFF AND PUSH20 0xFFFFFFFFFFFFFFFFFFFFFFFFFFFFFFFFFFFFFFFF AND CALLER PUSH20 0xFFFFFFFFFFFFFFFFFFFFFFFFFFFFFFFFFFFFFFFF AND EQ PUSH2 0x4EE JUMPI PUSH1 0x0 DUP1 REVERT JUMPDEST PUSH1 0x1 DUP1 DUP4 PUSH1 0x40 MLOAD PUSH2 0x4FF SWAP2 SWAP1 PUSH2 0xAC7 JUMP JUMPDEST SWAP1 DUP2 MSTORE PUSH1 0x20 ADD PUSH1 0x40 MLOAD DUP1 SWAP2 SUB SWAP1 KECCAK256 PUSH1 0x0 PUSH2 0x100 EXP DUP2 SLOAD DUP2 PUSH1 0xFF MUL NOT AND SWAP1 DUP4 ISZERO ISZERO MUL OR SWAP1 SSTORE POP PUSH1 0x1 DUP3 PUSH1 0x40 MLOAD PUSH2 0x534 SWAP2 SWAP1 PUSH2 0xAC7 JUMP JUMPDEST SWAP1 DUP2 MSTORE PUSH1 0x20 ADD PUSH1 0x40 MLOAD DUP1 SWAP2 SUB SWAP1 KECCAK256 PUSH1 0x0 SWAP1 SLOAD SWAP1 PUSH2 0x100 EXP SWAP1 DIV PUSH1 0xFF AND PUSH2 0x559 JUMPI PUSH1 0x0 DUP1 REVERT JUMPDEST PUSH1 0x1 PUSH1 0x2 DUP4 PUSH1 0x40 MLOAD PUSH2 0x56B SWAP2 SWAP1 PUSH2 0xAC7 JUMP JUMPDEST SWAP1 DUP2 MSTORE PUSH1 0x20 ADD PUSH1 0x40 MLOAD DUP1 SWAP2 SUB SWAP1 KECCAK256 PUSH1 0x0 PUSH2 0x100 EXP DUP2 SLOAD DUP2 PUSH1 0xFF MUL NOT AND SWAP1 DUP4 ISZERO ISZERO MUL OR SWAP1 SSTORE POP DUP2 PUSH1 0x4 PUSH1 0x0 DUP4 PUSH20 0xFFFFFFFFFFFFFFFFFFFFFFFFFFFFFFFFFFFFFFFF AND PUSH20 0xFFFFFFFFFFFFFFFFFFFFFFFFFFFFFFFFFFFFFFFF AND DUP2 MSTORE PUSH1 0x20 ADD SWAP1 DUP2 MSTORE PUSH1 0x20 ADD PUSH1 0x0 KECCAK256 SWAP1 DUP2 PUSH2 0x5DC SWAP2 SWAP1 PUSH2 0xCEA JUMP JUMPDEST POP POP POP JUMP JUMPDEST PUSH1 0x0 PUSH1 0x40 MLOAD SWAP1 POP SWAP1 JUMP JUMPDEST PUSH1 0x0 DUP1 REVERT JUMPDEST PUSH1 0x0 DUP1 REVERT JUMPDEST PUSH1 0x0 PUSH20 0xFFFFFFFFFFFFFFFFFFFFFFFFFFFFFFFFFFFFFFFF DUP3 AND SWAP1 POP SWAP2 SWAP1 POP JUMP JUMPDEST PUSH1 0x0 PUSH2 0x620 DUP3 PUSH2 0x5F5 JUMP JUMPDEST SWAP1 POP SWAP2 SWAP1 POP JUMP JUMPDEST PUSH2 0x630 DUP2 PUSH2 0x615 JUMP JUMPDEST DUP2 EQ PUSH2 0x63B JUMPI PUSH1 0x0 DUP1 REVERT JUMPDEST POP JUMP JUMPDEST PUSH1 0x0 DUP2 CALLDATALOAD SWAP1 POP PUSH2 0x64D DUP2 PUSH2 0x627 JUMP JUMPDEST SWAP3 SWAP2 POP POP JUMP JUMPDEST PUSH1 0x0 PUSH1 0x20 DUP3 DUP5 SUB SLT ISZERO PUSH2 0x669 JUMPI PUSH2 0x668 PUSH2 0x5EB JUMP JUMPDEST JUMPDEST PUSH1 0x0 PUSH2 0x677 DUP5 DUP3 DUP6 ADD PUSH2 0x63E JUMP JUMPDEST SWAP2 POP POP SWAP3 SWAP2 POP POP JUMP JUMPDEST PUSH1 0x0 DUP1 REVERT JUMPDEST PUSH1 0x0 DUP1 REVERT JUMPDEST PUSH1 0x0 PUSH1 0x1F NOT PUSH1 0x1F DUP4 ADD AND SWAP1 POP SWAP2 SWAP1 POP JUMP JUMPDEST PUSH32 0x4E487B7100000000000000000000000000000000000000000000000000000000 PUSH1 0x0 MSTORE PUSH1 0x41 PUSH1 0x4 MSTORE PUSH1 0x24 PUSH1 0x0 REVERT JUMPDEST PUSH2 0x6D3 DUP3 PUSH2 0x68A JUMP JUMPDEST DUP2 ADD DUP2 DUP2 LT PUSH8 0xFFFFFFFFFFFFFFFF DUP3 GT OR ISZERO PUSH2 0x6F2 JUMPI PUSH2 0x6F1 PUSH2 0x69B JUMP JUMPDEST JUMPDEST DUP1 PUSH1 0x40 MSTORE POP POP POP JUMP JUMPDEST PUSH1 0x0 PUSH2 0x705 PUSH2 0x5E1 JUMP JUMPDEST SWAP1 POP PUSH2 0x711 DUP3 DUP3 PUSH2 0x6CA JUMP JUMPDEST SWAP2 SWAP1 POP JUMP JUMPDEST PUSH1 0x0 PUSH8 0xFFFFFFFFFFFFFFFF DUP3 GT ISZERO PUSH2 0x731 JUMPI PUSH2 0x730 PUSH2 0x69B JUMP JUMPDEST JUMPDEST PUSH2 0x73A DUP3 PUSH2 0x68A JUMP JUMPDEST SWAP1 POP PUSH1 0x20 DUP2 ADD SWAP1 POP SWAP2 SWAP1 POP JUMP JUMPDEST DUP3 DUP2 DUP4 CALLDATACOPY PUSH1 0x0 DUP4 DUP4 ADD MSTORE POP POP POP JUMP JUMPDEST PUSH1 0x0 PUSH2 0x769 PUSH2 0x764 DUP5 PUSH2 0x716 JUMP JUMPDEST PUSH2 0x6FB JUMP JUMPDEST SWAP1 POP DUP3 DUP2 MSTORE PUSH1 0x20 DUP2 ADD DUP5 DUP5 DUP5 ADD GT ISZERO PUSH2 0x785 JUMPI PUSH2 0x784 PUSH2 0x685 JUMP JUMPDEST JUMPDEST PUSH2 0x790 DUP5 DUP3 DUP6 PUSH2 0x747 JUMP JUMPDEST POP SWAP4 SWAP3 POP POP POP JUMP JUMPDEST PUSH1 0x0 DUP3 PUSH1 0x1F DUP4 ADD SLT PUSH2 0x7AD JUMPI PUSH2 0x7AC PUSH2 0x680 JUMP JUMPDEST JUMPDEST DUP2 CALLDATALOAD PUSH2 0x7BD DUP5 DUP3 PUSH1 0x20 DUP7 ADD PUSH2 0x756 JUMP JUMPDEST SWAP2 POP POP SWAP3 SWAP2 POP POP JUMP JUMPDEST PUSH1 0x0 DUP2 SWAP1 POP SWAP2 SWAP1 POP JUMP JUMPDEST PUSH2 0x7D9 DUP2 PUSH2 0x7C6 JUMP JUMPDEST DUP2 EQ PUSH2 0x7E4 JUMPI PUSH1 0x0 DUP1 REVERT JUMPDEST POP JUMP JUMPDEST PUSH1 0x0 DUP2 CALLDATALOAD SWAP1 POP PUSH2 0x7F6 DUP2 PUSH2 0x7D0 JUMP JUMPDEST SWAP3 SWAP2 POP POP JUMP JUMPDEST PUSH1 0x0 DUP1 PUSH1 0x0 DUP1 PUSH1 0x0 PUSH1 0xA0 DUP7 DUP9 SUB SLT ISZERO PUSH2 0x818 JUMPI PUSH2 0x817 PUSH2 0x5EB JUMP JUMPDEST JUMPDEST PUSH1 0x0 DUP7 ADD CALLDATALOAD PUSH8 0xFFFFFFFFFFFFFFFF DUP2 GT ISZERO PUSH2 0x836 JUMPI PUSH2 0x835 PUSH2 0x5F0 JUMP JUMPDEST JUMPDEST PUSH2 0x842 DUP9 DUP3 DUP10 ADD PUSH2 0x798 JUMP JUMPDEST SWAP6 POP POP PUSH1 0x20 DUP7 ADD CALLDATALOAD PUSH8 0xFFFFFFFFFFFFFFFF DUP2 GT ISZERO PUSH2 0x863 JUMPI PUSH2 0x862 PUSH2 0x5F0 JUMP JUMPDEST JUMPDEST PUSH2 0x86F DUP9 DUP3 DUP10 ADD PUSH2 0x798 JUMP JUMPDEST SWAP5 POP POP PUSH1 0x40 PUSH2 0x880 DUP9 DUP3 DUP10 ADD PUSH2 0x7E7 JUMP JUMPDEST SWAP4 POP POP PUSH1 0x60 PUSH2 0x891 DUP9 DUP3 DUP10 ADD PUSH2 0x7E7 JUMP JUMPDEST SWAP3 POP POP PUSH1 0x80 DUP7 ADD CALLDATALOAD PUSH8 0xFFFFFFFFFFFFFFFF DUP2 GT ISZERO PUSH2 0x8B2 JUMPI PUSH2 0x8B1 PUSH2 0x5F0 JUMP JUMPDEST JUMPDEST PUSH2 0x8BE DUP9 DUP3 DUP10 ADD PUSH2 0x798 JUMP JUMPDEST SWAP2 POP POP SWAP3 SWAP6 POP SWAP3 SWAP6 SWAP1 SWAP4 POP JUMP JUMPDEST PUSH1 0x0 DUP2 ISZERO ISZERO SWAP1 POP SWAP2 SWAP1 POP JUMP JUMPDEST PUSH2 0x8E0 DUP2 PUSH2 0x8CB JUMP JUMPDEST DUP3 MSTORE POP POP JUMP JUMPDEST PUSH1 0x0 PUSH1 0x20 DUP3 ADD SWAP1 POP PUSH2 0x8FB PUSH1 0x0 DUP4 ADD DUP5 PUSH2 0x8D7 JUMP JUMPDEST SWAP3 SWAP2 POP POP JUMP JUMPDEST PUSH2 0x90A DUP2 PUSH2 0x615 JUMP JUMPDEST DUP3 MSTORE POP POP JUMP JUMPDEST PUSH1 0x0 PUSH1 0x20 DUP3 ADD SWAP1 POP PUSH2 0x925 PUSH1 0x0 DUP4 ADD DUP5 PUSH2 0x901 JUMP JUMPDEST SWAP3 SWAP2 POP POP JUMP JUMPDEST PUSH1 0x0 PUSH1 0x20 DUP3 DUP5 SUB SLT ISZERO PUSH2 0x941 JUMPI PUSH2 0x940 PUSH2 0x5EB JUMP JUMPDEST JUMPDEST PUSH1 0x0 DUP3 ADD CALLDATALOAD PUSH8 0xFFFFFFFFFFFFFFFF DUP2 GT ISZERO PUSH2 0x95F JUMPI PUSH2 0x95E PUSH2 0x5F0 JUMP JUMPDEST JUMPDEST PUSH2 0x96B DUP5 DUP3 DUP6 ADD PUSH2 0x798 JUMP JUMPDEST SWAP2 POP POP SWAP3 SWAP2 POP POP JUMP JUMPDEST PUSH1 0x0 DUP1 PUSH1 0x40 DUP4 DUP6 SUB SLT ISZERO PUSH2 0x98B JUMPI PUSH2 0x98A PUSH2 0x5EB JUMP JUMPDEST JUMPDEST PUSH1 0x0 DUP4 ADD CALLDATALOAD PUSH8 0xFFFFFFFFFFFFFFFF DUP2 GT ISZERO PUSH2 0x9A9 JUMPI PUSH2 0x9A8 PUSH2 0x5F0 JUMP JUMPDEST JUMPDEST PUSH2 0x9B5 DUP6 DUP3 DUP7 ADD PUSH2 0x798 JUMP JUMPDEST SWAP3 POP POP PUSH1 0x20 PUSH2 0x9C6 DUP6 DUP3 DUP7 ADD PUSH2 0x63E JUMP JUMPDEST SWAP2 POP POP SWAP3 POP SWAP3 SWAP1 POP JUMP JUMPDEST PUSH1 0x0 DUP3 DUP3 MSTORE PUSH1 0x20 DUP3 ADD SWAP1 POP SWAP3 SWAP2 POP POP JUMP JUMPDEST PUSH32 0x4F776E61626C653A2063616C6C6572206973206E6F7420746865206F776E6572 PUSH1 0x0 DUP3 ADD MSTORE POP JUMP JUMPDEST PUSH1 0x0 PUSH2 0xA17 PUSH1 0x20 DUP4 PUSH2 0x9D0 JUMP JUMPDEST SWAP2 POP PUSH2 0xA22 DUP3 PUSH2 0x9E1 JUMP JUMPDEST PUSH1 0x20 DUP3 ADD SWAP1 POP SWAP2 SWAP1 POP JUMP JUMPDEST PUSH1 0x0 PUSH1 0x20 DUP3 ADD SWAP1 POP DUP2 DUP2 SUB PUSH1 0x0 DUP4 ADD MSTORE PUSH2 0xA46 DUP2 PUSH2 0xA0A JUMP JUMPDEST SWAP1 POP SWAP2 SWAP1 POP JUMP JUMPDEST PUSH1 0x0 DUP2 MLOAD SWAP1 POP SWAP2 SWAP1 POP JUMP JUMPDEST PUSH1 0x0 DUP2 SWAP1 POP SWAP3 SWAP2 POP POP JUMP JUMPDEST PUSH1 0x0 JUMPDEST DUP4 DUP2 LT ISZERO PUSH2 0xA81 JUMPI DUP1 DUP3 ADD MLOAD DUP2 DUP5 ADD MSTORE PUSH1 0x20 DUP2 ADD SWAP1 POP PUSH2 0xA66 JUMP JUMPDEST DUP4 DUP2 GT ISZERO PUSH2 0xA90 JUMPI PUSH1 0x0 DUP5 DUP5 ADD MSTORE JUMPDEST POP POP POP POP JUMP JUMPDEST PUSH1 0x0 PUSH2 0xAA1 DUP3 PUSH2 0xA4D JUMP JUMPDEST PUSH2 0xAAB DUP2 DUP6 PUSH2 0xA58 JUMP JUMPDEST SWAP4 POP PUSH2 0xABB DUP2 DUP6 PUSH1 0x20 DUP7 ADD PUSH2 0xA63 JUMP JUMPDEST DUP1 DUP5 ADD SWAP2 POP POP SWAP3 SWAP2 POP POP JUMP JUMPDEST PUSH1 0x0 PUSH2 0xAD3 DUP3 DUP5 PUSH2 0xA96 JUMP JUMPDEST SWAP2 POP DUP2 SWAP1 POP SWAP3 SWAP2 POP POP JUMP JUMPDEST PUSH32 0x4E487B7100000000000000000000000000000000000000000000000000000000 PUSH1 0x0 MSTORE PUSH1 0x22 PUSH1 0x4 MSTORE PUSH1 0x24 PUSH1 0x0 REVERT JUMPDEST PUSH1 0x0 PUSH1 0x2 DUP3 DIV SWAP1 POP PUSH1 0x1 DUP3 AND DUP1 PUSH2 0xB25 JUMPI PUSH1 0x7F DUP3 AND SWAP2 POP JUMPDEST PUSH1 0x20 DUP3 LT DUP2 SUB PUSH2 0xB38 JUMPI PUSH2 0xB37 PUSH2 0xADE JUMP JUMPDEST JUMPDEST POP SWAP2 SWAP1 POP JUMP JUMPDEST PUSH1 0x0 DUP2 SWAP1 POP DUP2 PUSH1 0x0 MSTORE PUSH1 0x20 PUSH1 0x0 KECCAK256 SWAP1 POP SWAP2 SWAP1 POP JUMP JUMPDEST PUSH1 0x0 PUSH1 0x20 PUSH1 0x1F DUP4 ADD DIV SWAP1 POP SWAP2 SWAP1 POP JUMP JUMPDEST PUSH1 0x0 DUP3 DUP3 SHL SWAP1 POP SWAP3 SWAP2 POP POP JUMP JUMPDEST PUSH1 0x0 PUSH1 0x8 DUP4 MUL PUSH2 0xBA0 PUSH32 0xFFFFFFFFFFFFFFFFFFFFFFFFFFFFFFFFFFFFFFFFFFFFFFFFFFFFFFFFFFFFFFFF DUP3 PUSH2 0xB63 JUMP JUMPDEST PUSH2 0xBAA DUP7 DUP4 PUSH2 0xB63 JUMP JUMPDEST SWAP6 POP DUP1 NOT DUP5 AND SWAP4 POP DUP1 DUP7 AND DUP5 OR SWAP3 POP POP POP SWAP4 SWAP3 POP POP POP JUMP JUMPDEST PUSH1 0x0 DUP2 SWAP1 POP SWAP2 SWAP1 POP JUMP JUMPDEST PUSH1 0x0 PUSH2 0xBE7 PUSH2 0xBE2 PUSH2 0xBDD DUP5 PUSH2 0x7C6 JUMP JUMPDEST PUSH2 0xBC2 JUMP JUMPDEST PUSH2 0x7C6 JUMP JUMPDEST SWAP1 POP SWAP2 SWAP1 POP JUMP JUMPDEST PUSH1 0x0 DUP2 SWAP1 POP SWAP2 SWAP1 POP JUMP JUMPDEST PUSH2 0xC01 DUP4 PUSH2 0xBCC JUMP JUMPDEST PUSH2 0xC15 PUSH2 0xC0D DUP3 PUSH2 0xBEE JUMP JUMPDEST DUP5 DUP5 SLOAD PUSH2 0xB70 JUMP JUMPDEST DUP3 SSTORE POP POP POP POP JUMP JUMPDEST PUSH1 0x0 SWAP1 JUMP JUMPDEST PUSH2 0xC2A PUSH2 0xC1D JUMP JUMPDEST PUSH2 0xC35 DUP2 DUP5 DUP5 PUSH2 0xBF8 JUMP JUMPDEST POP POP POP JUMP JUMPDEST JUMPDEST DUP2 DUP2 LT ISZERO PUSH2 0xC59 JUMPI PUSH2 0xC4E PUSH1 0x0 DUP3 PUSH2 0xC22 JUMP JUMPDEST PUSH1 0x1 DUP2 ADD SWAP1 POP PUSH2 0xC3B JUMP JUMPDEST POP POP JUMP JUMPDEST PUSH1 0x1F DUP3 GT ISZERO PUSH2 0xC9E JUMPI PUSH2 0xC6F DUP2 PUSH2 0xB3E JUMP JUMPDEST PUSH2 0xC78 DUP5 PUSH2 0xB53 JUMP JUMPDEST DUP2 ADD PUSH1 0x20 DUP6 LT ISZERO PUSH2 0xC87 JUMPI DUP2 SWAP1 POP JUMPDEST PUSH2 0xC9B PUSH2 0xC93 DUP6 PUSH2 0xB53 JUMP JUMPDEST DUP4 ADD DUP3 PUSH2 0xC3A JUMP JUMPDEST POP POP JUMPDEST POP POP POP JUMP JUMPDEST PUSH1 0x0 DUP3 DUP3 SHR SWAP1 POP SWAP3 SWAP2 POP POP JUMP JUMPDEST PUSH1 0x0 PUSH2 0xCC1 PUSH1 0x0 NOT DUP5 PUSH1 0x8 MUL PUSH2 0xCA3 JUMP JUMPDEST NOT DUP1 DUP4 AND SWAP2 POP POP SWAP3 SWAP2 POP POP JUMP JUMPDEST PUSH1 0x0 PUSH2 0xCDA DUP4 DUP4 PUSH2 0xCB0 JUMP JUMPDEST SWAP2 POP DUP3 PUSH1 0x2 MUL DUP3 OR SWAP1 POP SWAP3 SWAP2 POP POP JUMP JUMPDEST PUSH2 0xCF3 DUP3 PUSH2 0xA4D JUMP JUMPDEST PUSH8 0xFFFFFFFFFFFFFFFF DUP2 GT ISZERO PUSH2 0xD0C JUMPI PUSH2 0xD0B PUSH2 0x69B JUMP JUMPDEST JUMPDEST PUSH2 0xD16 DUP3 SLOAD PUSH2 0xB0D JUMP JUMPDEST PUSH2 0xD21 DUP3 DUP3 DUP6 PUSH2 0xC5D JUMP JUMPDEST PUSH1 0x0 PUSH1 0x20 SWAP1 POP PUSH1 0x1F DUP4 GT PUSH1 0x1 DUP2 EQ PUSH2 0xD54 JUMPI PUSH1 0x0 DUP5 ISZERO PUSH2 0xD42 JUMPI DUP3 DUP8 ADD MLOAD SWAP1 POP JUMPDEST PUSH2 0xD4C DUP6 DUP3 PUSH2 0xCCE JUMP JUMPDEST DUP7 SSTORE POP PUSH2 0xDB4 JUMP JUMPDEST PUSH1 0x1F NOT DUP5 AND PUSH2 0xD62 DUP7 PUSH2 0xB3E JUMP JUMPDEST PUSH1 0x0 JUMPDEST DUP3 DUP2 LT ISZERO PUSH2 0xD8A JUMPI DUP5 DUP10 ADD MLOAD DUP3 SSTORE PUSH1 0x1 DUP3 ADD SWAP2 POP PUSH1 0x20 DUP6 ADD SWAP5 POP PUSH1 0x20 DUP2 ADD SWAP1 POP PUSH2 0xD65 JUMP JUMPDEST DUP7 DUP4 LT ISZERO PUSH2 0xDA7 JUMPI DUP5 DUP10 ADD MLOAD PUSH2 0xDA3 PUSH1 0x1F DUP10 AND DUP3 PUSH2 0xCB0 JUMP JUMPDEST DUP4 SSTORE POP JUMPDEST PUSH1 0x1 PUSH1 0x2 DUP9 MUL ADD DUP9 SSTORE POP POP POP JUMPDEST POP POP POP POP POP POP JUMP INVALID LOG2 PUSH5 0x6970667358 0x22 SLT KECCAK256 0xAF MSTORE8 SWAP15 PUSH2 0x41AF PUSH23 0xAD49BA543E640765F70F6F4259D6CD891520AFD2269306 SUB SWAP1 PUSH5 0x736F6C6343 STOP ADDMOD 0xF STOP CALLER "
				},
				"gasEstimates": {
					"creation": {
						"codeDepositCost": "714000",
						"executionCost": "49279",
						"totalCost": "763279"
					},
					"external": {
						"_owner()": "2533",
						"isOwner()": "2496",
						"issueCertificate(string,string,uint256,uint256,string)": "infinite",
						"setAdmin(address)": "26972",
						"setOwner(address)": "26928",
						"updateCertificateRecipient(string)": "infinite",
						"updateCertificateRecipientForStaking(string,address)": "infinite"
					}
				},
				"methodIdentifiers": {
					"_owner()": "b2bdfa7b",
					"isOwner()": "8f32d59b",
					"issueCertificate(string,string,uint256,uint256,string)": "3f59c657",
					"setAdmin(address)": "704b6c02",
					"setOwner(address)": "13af4035",
					"updateCertificateRecipient(string)": "e9351558",
					"updateCertificateRecipientForStaking(string,address)": "fe49048a"
				}
			},
			"storageLayout": {
				"storage": [
					{
						"astId": 163,
						"contract": "certificateissuer.sol:CertificateIssuer",
						"label": "_owner",
						"offset": 0,
						"slot": "0",
						"type": "t_address"
					},
					{
						"astId": 18,
						"contract": "certificateissuer.sol:CertificateIssuer",
						"label": "cauthValid",
						"offset": 0,
						"slot": "1",
						"type": "t_mapping(t_string_memory_ptr,t_bool)"
					},
					{
						"astId": 22,
						"contract": "certificateissuer.sol:CertificateIssuer",
						"label": "cauthToCanStake",
						"offset": 0,
						"slot": "2",
						"type": "t_mapping(t_string_memory_ptr,t_bool)"
					},
					{
						"astId": 24,
						"contract": "certificateissuer.sol:CertificateIssuer",
						"label": "_admin",
						"offset": 0,
						"slot": "3",
						"type": "t_address"
					},
					{
						"astId": 28,
						"contract": "certificateissuer.sol:CertificateIssuer",
						"label": "adressToCauth",
						"offset": 0,
						"slot": "4",
						"type": "t_mapping(t_address,t_string_storage)"
					}
				],
				"types": {
					"t_address": {
						"encoding": "inplace",
						"label": "address",
						"numberOfBytes": "20"
					},
					"t_bool": {
						"encoding": "inplace",
						"label": "bool",
						"numberOfBytes": "1"
					},
					"t_mapping(t_address,t_string_storage)": {
						"encoding": "mapping",
						"key": "t_address",
						"label": "mapping(address => string)",
						"numberOfBytes": "32",
						"value": "t_string_storage"
					},
					"t_mapping(t_string_memory_ptr,t_bool)": {
						"encoding": "mapping",
						"key": "t_string_memory_ptr",
						"label": "mapping(string => bool)",
						"numberOfBytes": "32",
						"value": "t_bool"
					},
					"t_string_memory_ptr": {
						"encoding": "bytes",
						"label": "string",
						"numberOfBytes": "32"
					},
					"t_string_storage": {
						"encoding": "bytes",
						"label": "string",
						"numberOfBytes": "32"
					}
				}
			},
			"userdoc": {
				"kind": "user",
				"methods": {
					"constructor": {
						"notice": "create data type = struct named  certificate"
					}
				},
				"version": 1
			}
		}
	}
}