{
	"certificateissuer.sol": {
		"Staking": {
			"abi": [
				{
					"inputs": [],
					"name": "_owner",
					"outputs": [
						{
							"internalType": "address",
							"name": "",
							"type": "address"
						}
					],
					"stateMutability": "view",
					"type": "function"
				},
				{
					"inputs": [],
					"name": "isOwner",
					"outputs": [
						{
							"internalType": "bool",
							"name": "",
							"type": "bool"
						}
					],
					"stateMutability": "view",
					"type": "function"
				},
				{
					"inputs": [
						{
							"internalType": "string",
							"name": "_name",
							"type": "string"
						},
						{
							"internalType": "string",
							"name": "_courseTittle",
							"type": "string"
						},
						{
							"internalType": "uint256",
							"name": "_duration",
							"type": "uint256"
						},
						{
							"internalType": "uint256",
							"name": "institute",
							"type": "uint256"
						},
						{
							"internalType": "string",
							"name": "cauth",
							"type": "string"
						}
					],
					"name": "issueCertificate",
					"outputs": [],
					"stateMutability": "payable",
					"type": "function"
				},
				{
					"inputs": [
						{
							"internalType": "address",
							"name": "_adminParameter",
							"type": "address"
						}
					],
					"name": "setAdmin",
					"outputs": [],
					"stateMutability": "nonpayable",
					"type": "function"
				},
				{
					"inputs": [
						{
							"internalType": "address",
							"name": "_newOwner",
							"type": "address"
						}
					],
					"name": "setOwner",
					"outputs": [],
					"stateMutability": "nonpayable",
					"type": "function"
				},
				{
					"inputs": [
						{
							"internalType": "address",
							"name": "",
							"type": "address"
						}
					],
					"name": "stakedAmount",
					"outputs": [
						{
							"internalType": "uint256",
							"name": "",
							"type": "uint256"
						}
					],
					"stateMutability": "view",
					"type": "function"
				},
				{
					"inputs": [
						{
							"internalType": "string",
							"name": "cauth",
							"type": "string"
						}
					],
					"name": "updateCertificateRecipient",
					"outputs": [],
					"stateMutability": "nonpayable",
					"type": "function"
				},
				{
					"inputs": [
						{
							"internalType": "string",
							"name": "cauth",
							"type": "string"
						},
						{
							"internalType": "address",
							"name": "_staker",
							"type": "address"
						}
					],
					"name": "updateCertificateRecipientForStaking",
					"outputs": [],
					"stateMutability": "nonpayable",
					"type": "function"
				},
				{
					"stateMutability": "payable",
					"type": "receive"
				}
			],
			"devdoc": {
				"kind": "dev",
				"methods": {
					"isOwner()": {
						"details": "Returns true if the caller is the current owner."
					}
				},
				"version": 1
			},
			"evm": {
				"assembly": "    /* \"certificateissuer.sol\":3020:3264  contract Staking is CertificateIssuer {... */\n  mstore(0x40, 0x80)\n  callvalue\n  dup1\n  iszero\n  tag_1\n  jumpi\n  0x00\n  dup1\n  revert\ntag_1:\n  pop\n    /* \"ownable.sol\":150:160  msg.sender */\n  caller\n    /* \"ownable.sol\":141:147  _owner */\n  0x00\n  dup1\n    /* \"ownable.sol\":141:160  _owner = msg.sender */\n  0x0100\n  exp\n  dup2\n  sload\n  dup2\n  0xffffffffffffffffffffffffffffffffffffffff\n  mul\n  not\n  and\n  swap1\n  dup4\n  0xffffffffffffffffffffffffffffffffffffffff\n  and\n  mul\n  or\n  swap1\n  sstore\n  pop\n    /* \"certificateissuer.sol\":220:230  msg.sender */\n  caller\n    /* \"certificateissuer.sol\":211:217  _admin */\n  0x03\n  0x00\n    /* \"certificateissuer.sol\":211:230  _admin = msg.sender */\n  0x0100\n  exp\n  dup2\n  sload\n  dup2\n  0xffffffffffffffffffffffffffffffffffffffff\n  mul\n  not\n  and\n  swap1\n  dup4\n  0xffffffffffffffffffffffffffffffffffffffff\n  and\n  mul\n  or\n  swap1\n  sstore\n  pop\n    /* \"certificateissuer.sol\":3020:3264  contract Staking is CertificateIssuer {... */\n  dataSize(sub_0)\n  dup1\n  dataOffset(sub_0)\n  0x00\n  codecopy\n  0x00\n  return\nstop\n\nsub_0: assembly {\n        /* \"certificateissuer.sol\":3020:3264  contract Staking is CertificateIssuer {... */\n      mstore(0x40, 0x80)\n      jumpi(tag_1, lt(calldatasize, 0x04))\n      shr(0xe0, calldataload(0x00))\n      dup1\n      0xb2bdfa7b\n      gt\n      tag_11\n      jumpi\n      dup1\n      0xb2bdfa7b\n      eq\n      tag_7\n      jumpi\n      dup1\n      0xe9351558\n      eq\n      tag_8\n      jumpi\n      dup1\n      0xf9931855\n      eq\n      tag_9\n      jumpi\n      dup1\n      0xfe49048a\n      eq\n      tag_10\n      jumpi\n      jump(tag_2)\n    tag_11:\n      dup1\n      0x13af4035\n      eq\n      tag_3\n      jumpi\n      dup1\n      0x3f59c657\n      eq\n      tag_4\n      jumpi\n      dup1\n      0x704b6c02\n      eq\n      tag_5\n      jumpi\n      dup1\n      0x8f32d59b\n      eq\n      tag_6\n      jumpi\n      jump(tag_2)\n    tag_1:\n      jumpi(tag_2, calldatasize)\n        /* \"certificateissuer.sol\":3196:3211  cauthToCanStake */\n      0x02\n        /* \"certificateissuer.sol\":3212:3225  adressToCauth */\n      0x04\n        /* \"certificateissuer.sol\":3212:3237  adressToCauth[msg.sender] */\n      0x00\n        /* \"certificateissuer.sol\":3226:3236  msg.sender */\n      caller\n        /* \"certificateissuer.sol\":3212:3237  adressToCauth[msg.sender] */\n      0xffffffffffffffffffffffffffffffffffffffff\n      and\n      0xffffffffffffffffffffffffffffffffffffffff\n      and\n      dup2\n      mstore\n      0x20\n      add\n      swap1\n      dup2\n      mstore\n      0x20\n      add\n      0x00\n      keccak256\n        /* \"certificateissuer.sol\":3196:3238  cauthToCanStake[adressToCauth[msg.sender]] */\n      mload(0x40)\n      tag_14\n      swap2\n      swap1\n      tag_15\n      jump\t// in\n    tag_14:\n      swap1\n      dup2\n      mstore\n      0x20\n      add\n      mload(0x40)\n      dup1\n      swap2\n      sub\n      swap1\n      keccak256\n      0x00\n      swap1\n      sload\n      swap1\n      0x0100\n      exp\n      swap1\n      div\n      0xff\n      and\n        /* \"certificateissuer.sol\":3188:3239  require(cauthToCanStake[adressToCauth[msg.sender]]) */\n      tag_16\n      jumpi\n      0x00\n      dup1\n      revert\n    tag_16:\n        /* \"certificateissuer.sol\":3020:3264  contract Staking is CertificateIssuer {... */\n      stop\n    tag_2:\n      0x00\n      dup1\n      revert\n        /* \"ownable.sol\":551:643  function setOwner(address _newOwner) public onlyOwner {... */\n    tag_3:\n      callvalue\n      dup1\n      iszero\n      tag_17\n      jumpi\n      0x00\n      dup1\n      revert\n    tag_17:\n      pop\n      tag_18\n      0x04\n      dup1\n      calldatasize\n      sub\n      dup2\n      add\n      swap1\n      tag_19\n      swap2\n      swap1\n      tag_20\n      jump\t// in\n    tag_19:\n      tag_21\n      jump\t// in\n    tag_18:\n      stop\n        /* \"certificateissuer.sol\":2463:2831  function issueCertificate(string memory _name , string memory _courseTittle, uint _duration , uint institute,string memory cauth ) external payable {... */\n    tag_4:\n      tag_22\n      0x04\n      dup1\n      calldatasize\n      sub\n      dup2\n      add\n      swap1\n      tag_23\n      swap2\n      swap1\n      tag_24\n      jump\t// in\n    tag_23:\n      tag_25\n      jump\t// in\n    tag_22:\n      stop\n        /* \"certificateissuer.sol\":592:696  function setAdmin(address _adminParameter) public onlyOwner{... */\n    tag_5:\n      callvalue\n      dup1\n      iszero\n      tag_26\n      jumpi\n      0x00\n      dup1\n      revert\n    tag_26:\n      pop\n      tag_27\n      0x04\n      dup1\n      calldatasize\n      sub\n      dup2\n      add\n      swap1\n      tag_28\n      swap2\n      swap1\n      tag_20\n      jump\t// in\n    tag_28:\n      tag_29\n      jump\t// in\n    tag_27:\n      stop\n        /* \"ownable.sol\":451:545  function isOwner() public view returns (bool) {... */\n    tag_6:\n      callvalue\n      dup1\n      iszero\n      tag_30\n      jumpi\n      0x00\n      dup1\n      revert\n    tag_30:\n      pop\n      tag_31\n      tag_32\n      jump\t// in\n    tag_31:\n      mload(0x40)\n      tag_33\n      swap2\n      swap1\n      tag_34\n      jump\t// in\n    tag_33:\n      mload(0x40)\n      dup1\n      swap2\n      sub\n      swap1\n      return\n        /* \"ownable.sol\":85:106  address public _owner */\n    tag_7:\n      callvalue\n      dup1\n      iszero\n      tag_35\n      jumpi\n      0x00\n      dup1\n      revert\n    tag_35:\n      pop\n      tag_36\n      tag_37\n      jump\t// in\n    tag_36:\n      mload(0x40)\n      tag_38\n      swap2\n      swap1\n      tag_39\n      jump\t// in\n    tag_38:\n      mload(0x40)\n      dup1\n      swap2\n      sub\n      swap1\n      return\n        /* \"certificateissuer.sol\":1733:1966  function updateCertificateRecipient(string memory cauth) public  {... */\n    tag_8:\n      callvalue\n      dup1\n      iszero\n      tag_40\n      jumpi\n      0x00\n      dup1\n      revert\n    tag_40:\n      pop\n      tag_41\n      0x04\n      dup1\n      calldatasize\n      sub\n      dup2\n      add\n      swap1\n      tag_42\n      swap2\n      swap1\n      tag_43\n      jump\t// in\n    tag_42:\n      tag_44\n      jump\t// in\n    tag_41:\n      stop\n        /* \"certificateissuer.sol\":3086:3131  mapping(address =>  uint) public stakedAmount */\n    tag_9:\n      callvalue\n      dup1\n      iszero\n      tag_45\n      jumpi\n      0x00\n      dup1\n      revert\n    tag_45:\n      pop\n      tag_46\n      0x04\n      dup1\n      calldatasize\n      sub\n      dup2\n      add\n      swap1\n      tag_47\n      swap2\n      swap1\n      tag_20\n      jump\t// in\n    tag_47:\n      tag_48\n      jump\t// in\n    tag_46:\n      mload(0x40)\n      tag_49\n      swap2\n      swap1\n      tag_50\n      jump\t// in\n    tag_49:\n      mload(0x40)\n      dup1\n      swap2\n      sub\n      swap1\n      return\n        /* \"certificateissuer.sol\":2142:2455  function updateCertificateRecipientForStaking(string memory cauth,address _staker ) public   {... */\n    tag_10:\n      callvalue\n      dup1\n      iszero\n      tag_51\n      jumpi\n      0x00\n      dup1\n      revert\n    tag_51:\n      pop\n      tag_52\n      0x04\n      dup1\n      calldatasize\n      sub\n      dup2\n      add\n      swap1\n      tag_53\n      swap2\n      swap1\n      tag_54\n      jump\t// in\n    tag_53:\n      tag_55\n      jump\t// in\n    tag_52:\n      stop\n        /* \"ownable.sol\":551:643  function setOwner(address _newOwner) public onlyOwner {... */\n    tag_21:\n        /* \"ownable.sol\":299:308  isOwner() */\n      tag_57\n        /* \"ownable.sol\":299:306  isOwner */\n      tag_32\n        /* \"ownable.sol\":299:308  isOwner() */\n      jump\t// in\n    tag_57:\n        /* \"ownable.sol\":291:345  require(isOwner(), \"Ownable: caller is not the owner\") */\n      tag_58\n      jumpi\n      mload(0x40)\n      0x08c379a000000000000000000000000000000000000000000000000000000000\n      dup2\n      mstore\n      0x04\n      add\n      tag_59\n      swap1\n      tag_60\n      jump\t// in\n    tag_59:\n      mload(0x40)\n      dup1\n      swap2\n      sub\n      swap1\n      revert\n    tag_58:\n        /* \"ownable.sol\":625:634  _newOwner */\n      dup1\n        /* \"ownable.sol\":616:622  _owner */\n      0x00\n      dup1\n        /* \"ownable.sol\":616:634  _owner = _newOwner */\n      0x0100\n      exp\n      dup2\n      sload\n      dup2\n      0xffffffffffffffffffffffffffffffffffffffff\n      mul\n      not\n      and\n      swap1\n      dup4\n      0xffffffffffffffffffffffffffffffffffffffff\n      and\n      mul\n      or\n      swap1\n      sstore\n      pop\n        /* \"ownable.sol\":551:643  function setOwner(address _newOwner) public onlyOwner {... */\n      pop\n      jump\t// out\n        /* \"certificateissuer.sol\":2463:2831  function issueCertificate(string memory _name , string memory _courseTittle, uint _duration , uint institute,string memory cauth ) external payable {... */\n    tag_25:\n        /* \"certificateissuer.sol\":2705:2709  true */\n      0x01\n        /* \"certificateissuer.sol\":2684:2709  cauthValid[cauth] == true */\n      iszero\n      iszero\n        /* \"certificateissuer.sol\":2684:2694  cauthValid */\n      0x01\n        /* \"certificateissuer.sol\":2695:2700  cauth */\n      dup3\n        /* \"certificateissuer.sol\":2684:2701  cauthValid[cauth] */\n      mload(0x40)\n      tag_63\n      swap2\n      swap1\n      tag_64\n      jump\t// in\n    tag_63:\n      swap1\n      dup2\n      mstore\n      0x20\n      add\n      mload(0x40)\n      dup1\n      swap2\n      sub\n      swap1\n      keccak256\n      0x00\n      swap1\n      sload\n      swap1\n      0x0100\n      exp\n      swap1\n      div\n      0xff\n      and\n        /* \"certificateissuer.sol\":2684:2709  cauthValid[cauth] == true */\n      iszero\n      iszero\n      eq\n        /* \"certificateissuer.sol\":2676:2710  require(cauthValid[cauth] == true) */\n      tag_65\n      jumpi\n      0x00\n      dup1\n      revert\n    tag_65:\n        /* \"certificateissuer.sol\":2816:2821  false */\n      0x00\n        /* \"certificateissuer.sol\":2796:2806  cauthValid */\n      0x01\n        /* \"certificateissuer.sol\":2807:2812  cauth */\n      dup3\n        /* \"certificateissuer.sol\":2796:2813  cauthValid[cauth] */\n      mload(0x40)\n      tag_66\n      swap2\n      swap1\n      tag_64\n      jump\t// in\n    tag_66:\n      swap1\n      dup2\n      mstore\n      0x20\n      add\n      mload(0x40)\n      dup1\n      swap2\n      sub\n      swap1\n      keccak256\n      0x00\n        /* \"certificateissuer.sol\":2796:2821  cauthValid[cauth] = false */\n      0x0100\n      exp\n      dup2\n      sload\n      dup2\n      0xff\n      mul\n      not\n      and\n      swap1\n      dup4\n      iszero\n      iszero\n      mul\n      or\n      swap1\n      sstore\n      pop\n        /* \"certificateissuer.sol\":2463:2831  function issueCertificate(string memory _name , string memory _courseTittle, uint _duration , uint institute,string memory cauth ) external payable {... */\n      pop\n      pop\n      pop\n      pop\n      pop\n      jump\t// out\n        /* \"certificateissuer.sol\":592:696  function setAdmin(address _adminParameter) public onlyOwner{... */\n    tag_29:\n        /* \"ownable.sol\":299:308  isOwner() */\n      tag_68\n        /* \"ownable.sol\":299:306  isOwner */\n      tag_32\n        /* \"ownable.sol\":299:308  isOwner() */\n      jump\t// in\n    tag_68:\n        /* \"ownable.sol\":291:345  require(isOwner(), \"Ownable: caller is not the owner\") */\n      tag_69\n      jumpi\n      mload(0x40)\n      0x08c379a000000000000000000000000000000000000000000000000000000000\n      dup2\n      mstore\n      0x04\n      add\n      tag_70\n      swap1\n      tag_60\n      jump\t// in\n    tag_70:\n      mload(0x40)\n      dup1\n      swap2\n      sub\n      swap1\n      revert\n    tag_69:\n        /* \"certificateissuer.sol\":671:686  _adminParameter */\n      dup1\n        /* \"certificateissuer.sol\":662:668  _admin */\n      0x03\n      0x00\n        /* \"certificateissuer.sol\":662:686  _admin = _adminParameter */\n      0x0100\n      exp\n      dup2\n      sload\n      dup2\n      0xffffffffffffffffffffffffffffffffffffffff\n      mul\n      not\n      and\n      swap1\n      dup4\n      0xffffffffffffffffffffffffffffffffffffffff\n      and\n      mul\n      or\n      swap1\n      sstore\n      pop\n        /* \"certificateissuer.sol\":592:696  function setAdmin(address _adminParameter) public onlyOwner{... */\n      pop\n      jump\t// out\n        /* \"ownable.sol\":451:545  function isOwner() public view returns (bool) {... */\n    tag_32:\n        /* \"ownable.sol\":491:495  bool */\n      0x00\n        /* \"ownable.sol\":530:536  _owner */\n      dup1\n      0x00\n      swap1\n      sload\n      swap1\n      0x0100\n      exp\n      swap1\n      div\n      0xffffffffffffffffffffffffffffffffffffffff\n      and\n        /* \"ownable.sol\":516:536  msg.sender == _owner */\n      0xffffffffffffffffffffffffffffffffffffffff\n      and\n        /* \"ownable.sol\":516:526  msg.sender */\n      caller\n        /* \"ownable.sol\":516:536  msg.sender == _owner */\n      0xffffffffffffffffffffffffffffffffffffffff\n      and\n      eq\n        /* \"ownable.sol\":508:537  return (msg.sender == _owner) */\n      swap1\n      pop\n        /* \"ownable.sol\":451:545  function isOwner() public view returns (bool) {... */\n      swap1\n      jump\t// out\n        /* \"ownable.sol\":85:106  address public _owner */\n    tag_37:\n      0x00\n      dup1\n      sload\n      swap1\n      0x0100\n      exp\n      swap1\n      div\n      0xffffffffffffffffffffffffffffffffffffffff\n      and\n      dup2\n      jump\t// out\n        /* \"certificateissuer.sol\":1733:1966  function updateCertificateRecipient(string memory cauth) public  {... */\n    tag_44:\n        /* \"certificateissuer.sol\":1831:1837  _admin */\n      0x03\n      0x00\n      swap1\n      sload\n      swap1\n      0x0100\n      exp\n      swap1\n      div\n      0xffffffffffffffffffffffffffffffffffffffff\n      and\n        /* \"certificateissuer.sol\":1817:1837  msg.sender == _admin */\n      0xffffffffffffffffffffffffffffffffffffffff\n      and\n        /* \"certificateissuer.sol\":1817:1827  msg.sender */\n      caller\n        /* \"certificateissuer.sol\":1817:1837  msg.sender == _admin */\n      0xffffffffffffffffffffffffffffffffffffffff\n      and\n      eq\n        /* \"certificateissuer.sol\":1809:1838  require(msg.sender == _admin) */\n      tag_74\n      jumpi\n      0x00\n      dup1\n      revert\n    tag_74:\n        /* \"certificateissuer.sol\":1870:1874  true */\n      0x01\n        /* \"certificateissuer.sol\":1850:1860  cauthValid */\n      dup1\n        /* \"certificateissuer.sol\":1861:1866  cauth */\n      dup3\n        /* \"certificateissuer.sol\":1850:1867  cauthValid[cauth] */\n      mload(0x40)\n      tag_75\n      swap2\n      swap1\n      tag_64\n      jump\t// in\n    tag_75:\n      swap1\n      dup2\n      mstore\n      0x20\n      add\n      mload(0x40)\n      dup1\n      swap2\n      sub\n      swap1\n      keccak256\n      0x00\n        /* \"certificateissuer.sol\":1850:1874  cauthValid[cauth] = true */\n      0x0100\n      exp\n      dup2\n      sload\n      dup2\n      0xff\n      mul\n      not\n      and\n      swap1\n      dup4\n      iszero\n      iszero\n      mul\n      or\n      swap1\n      sstore\n      pop\n        /* \"certificateissuer.sol\":1896:1906  cauthValid */\n      0x01\n        /* \"certificateissuer.sol\":1907:1912  cauth */\n      dup2\n        /* \"certificateissuer.sol\":1896:1913  cauthValid[cauth] */\n      mload(0x40)\n      tag_76\n      swap2\n      swap1\n      tag_64\n      jump\t// in\n    tag_76:\n      swap1\n      dup2\n      mstore\n      0x20\n      add\n      mload(0x40)\n      dup1\n      swap2\n      sub\n      swap1\n      keccak256\n      0x00\n      swap1\n      sload\n      swap1\n      0x0100\n      exp\n      swap1\n      div\n      0xff\n      and\n        /* \"certificateissuer.sol\":1888:1914  require(cauthValid[cauth]) */\n      tag_77\n      jumpi\n      0x00\n      dup1\n      revert\n    tag_77:\n        /* \"certificateissuer.sol\":1952:1956  true */\n      0x01\n        /* \"certificateissuer.sol\":1927:1942  cauthToCanStake */\n      0x02\n        /* \"certificateissuer.sol\":1943:1948  cauth */\n      dup3\n        /* \"certificateissuer.sol\":1927:1949  cauthToCanStake[cauth] */\n      mload(0x40)\n      tag_78\n      swap2\n      swap1\n      tag_64\n      jump\t// in\n    tag_78:\n      swap1\n      dup2\n      mstore\n      0x20\n      add\n      mload(0x40)\n      dup1\n      swap2\n      sub\n      swap1\n      keccak256\n      0x00\n        /* \"certificateissuer.sol\":1927:1956  cauthToCanStake[cauth] = true */\n      0x0100\n      exp\n      dup2\n      sload\n      dup2\n      0xff\n      mul\n      not\n      and\n      swap1\n      dup4\n      iszero\n      iszero\n      mul\n      or\n      swap1\n      sstore\n      pop\n        /* \"certificateissuer.sol\":1733:1966  function updateCertificateRecipient(string memory cauth) public  {... */\n      pop\n      jump\t// out\n        /* \"certificateissuer.sol\":3086:3131  mapping(address =>  uint) public stakedAmount */\n    tag_48:\n      mstore(0x20, 0x05)\n      dup1\n      0x00\n      mstore\n      keccak256(0x00, 0x40)\n      0x00\n      swap2\n      pop\n      swap1\n      pop\n      sload\n      dup2\n      jump\t// out\n        /* \"certificateissuer.sol\":2142:2455  function updateCertificateRecipientForStaking(string memory cauth,address _staker ) public   {... */\n    tag_55:\n        /* \"certificateissuer.sol\":2268:2274  _admin */\n      0x03\n      0x00\n      swap1\n      sload\n      swap1\n      0x0100\n      exp\n      swap1\n      div\n      0xffffffffffffffffffffffffffffffffffffffff\n      and\n        /* \"certificateissuer.sol\":2254:2274  msg.sender == _admin */\n      0xffffffffffffffffffffffffffffffffffffffff\n      and\n        /* \"certificateissuer.sol\":2254:2264  msg.sender */\n      caller\n        /* \"certificateissuer.sol\":2254:2274  msg.sender == _admin */\n      0xffffffffffffffffffffffffffffffffffffffff\n      and\n      eq\n        /* \"certificateissuer.sol\":2246:2275  require(msg.sender == _admin) */\n      tag_80\n      jumpi\n      0x00\n      dup1\n      revert\n    tag_80:\n        /* \"certificateissuer.sol\":2307:2311  true */\n      0x01\n        /* \"certificateissuer.sol\":2287:2297  cauthValid */\n      dup1\n        /* \"certificateissuer.sol\":2298:2303  cauth */\n      dup4\n        /* \"certificateissuer.sol\":2287:2304  cauthValid[cauth] */\n      mload(0x40)\n      tag_81\n      swap2\n      swap1\n      tag_64\n      jump\t// in\n    tag_81:\n      swap1\n      dup2\n      mstore\n      0x20\n      add\n      mload(0x40)\n      dup1\n      swap2\n      sub\n      swap1\n      keccak256\n      0x00\n        /* \"certificateissuer.sol\":2287:2311  cauthValid[cauth] = true */\n      0x0100\n      exp\n      dup2\n      sload\n      dup2\n      0xff\n      mul\n      not\n      and\n      swap1\n      dup4\n      iszero\n      iszero\n      mul\n      or\n      swap1\n      sstore\n      pop\n        /* \"certificateissuer.sol\":2333:2343  cauthValid */\n      0x01\n        /* \"certificateissuer.sol\":2344:2349  cauth */\n      dup3\n        /* \"certificateissuer.sol\":2333:2350  cauthValid[cauth] */\n      mload(0x40)\n      tag_82\n      swap2\n      swap1\n      tag_64\n      jump\t// in\n    tag_82:\n      swap1\n      dup2\n      mstore\n      0x20\n      add\n      mload(0x40)\n      dup1\n      swap2\n      sub\n      swap1\n      keccak256\n      0x00\n      swap1\n      sload\n      swap1\n      0x0100\n      exp\n      swap1\n      div\n      0xff\n      and\n        /* \"certificateissuer.sol\":2325:2351  require(cauthValid[cauth]) */\n      tag_83\n      jumpi\n      0x00\n      dup1\n      revert\n    tag_83:\n        /* \"certificateissuer.sol\":2389:2393  true */\n      0x01\n        /* \"certificateissuer.sol\":2364:2379  cauthToCanStake */\n      0x02\n        /* \"certificateissuer.sol\":2380:2385  cauth */\n      dup4\n        /* \"certificateissuer.sol\":2364:2386  cauthToCanStake[cauth] */\n      mload(0x40)\n      tag_84\n      swap2\n      swap1\n      tag_64\n      jump\t// in\n    tag_84:\n      swap1\n      dup2\n      mstore\n      0x20\n      add\n      mload(0x40)\n      dup1\n      swap2\n      sub\n      swap1\n      keccak256\n      0x00\n        /* \"certificateissuer.sol\":2364:2393  cauthToCanStake[cauth] = true */\n      0x0100\n      exp\n      dup2\n      sload\n      dup2\n      0xff\n      mul\n      not\n      and\n      swap1\n      dup4\n      iszero\n      iszero\n      mul\n      or\n      swap1\n      sstore\n      pop\n        /* \"certificateissuer.sol\":2431:2436  cauth */\n      dup2\n        /* \"certificateissuer.sol\":2406:2419  adressToCauth */\n      0x04\n        /* \"certificateissuer.sol\":2406:2428  adressToCauth[_staker] */\n      0x00\n        /* \"certificateissuer.sol\":2420:2427  _staker */\n      dup4\n        /* \"certificateissuer.sol\":2406:2428  adressToCauth[_staker] */\n      0xffffffffffffffffffffffffffffffffffffffff\n      and\n      0xffffffffffffffffffffffffffffffffffffffff\n      and\n      dup2\n      mstore\n      0x20\n      add\n      swap1\n      dup2\n      mstore\n      0x20\n      add\n      0x00\n      keccak256\n        /* \"certificateissuer.sol\":2406:2436  adressToCauth[_staker] = cauth */\n      swap1\n      dup2\n      tag_85\n      swap2\n      swap1\n      tag_86\n      jump\t// in\n    tag_85:\n      pop\n        /* \"certificateissuer.sol\":2142:2455  function updateCertificateRecipientForStaking(string memory cauth,address _staker ) public   {... */\n      pop\n      pop\n      jump\t// out\n        /* \"#utility.yul\":7:187   */\n    tag_87:\n        /* \"#utility.yul\":55:132   */\n      0x4e487b7100000000000000000000000000000000000000000000000000000000\n        /* \"#utility.yul\":52:53   */\n      0x00\n        /* \"#utility.yul\":45:133   */\n      mstore\n        /* \"#utility.yul\":152:156   */\n      0x22\n        /* \"#utility.yul\":149:150   */\n      0x04\n        /* \"#utility.yul\":142:157   */\n      mstore\n        /* \"#utility.yul\":176:180   */\n      0x24\n        /* \"#utility.yul\":173:174   */\n      0x00\n        /* \"#utility.yul\":166:181   */\n      revert\n        /* \"#utility.yul\":193:513   */\n    tag_88:\n        /* \"#utility.yul\":237:243   */\n      0x00\n        /* \"#utility.yul\":274:275   */\n      0x02\n        /* \"#utility.yul\":268:272   */\n      dup3\n        /* \"#utility.yul\":264:276   */\n      div\n        /* \"#utility.yul\":254:276   */\n      swap1\n      pop\n        /* \"#utility.yul\":321:322   */\n      0x01\n        /* \"#utility.yul\":315:319   */\n      dup3\n        /* \"#utility.yul\":311:323   */\n      and\n        /* \"#utility.yul\":342:360   */\n      dup1\n        /* \"#utility.yul\":332:413   */\n      tag_139\n      jumpi\n        /* \"#utility.yul\":398:402   */\n      0x7f\n        /* \"#utility.yul\":390:396   */\n      dup3\n        /* \"#utility.yul\":386:403   */\n      and\n        /* \"#utility.yul\":376:403   */\n      swap2\n      pop\n        /* \"#utility.yul\":332:413   */\n    tag_139:\n        /* \"#utility.yul\":460:462   */\n      0x20\n        /* \"#utility.yul\":452:458   */\n      dup3\n        /* \"#utility.yul\":449:463   */\n      lt\n        /* \"#utility.yul\":429:447   */\n      dup2\n        /* \"#utility.yul\":426:464   */\n      sub\n        /* \"#utility.yul\":423:507   */\n      tag_140\n      jumpi\n        /* \"#utility.yul\":479:497   */\n      tag_141\n      tag_87\n      jump\t// in\n    tag_141:\n        /* \"#utility.yul\":423:507   */\n    tag_140:\n        /* \"#utility.yul\":244:513   */\n      pop\n        /* \"#utility.yul\":193:513   */\n      swap2\n      swap1\n      pop\n      jump\t// out\n        /* \"#utility.yul\":519:667   */\n    tag_89:\n        /* \"#utility.yul\":621:632   */\n      0x00\n        /* \"#utility.yul\":658:661   */\n      dup2\n        /* \"#utility.yul\":643:661   */\n      swap1\n      pop\n        /* \"#utility.yul\":519:667   */\n      swap3\n      swap2\n      pop\n      pop\n      jump\t// out\n        /* \"#utility.yul\":673:814   */\n    tag_90:\n        /* \"#utility.yul\":722:726   */\n      0x00\n        /* \"#utility.yul\":745:748   */\n      dup2\n        /* \"#utility.yul\":737:748   */\n      swap1\n      pop\n        /* \"#utility.yul\":768:771   */\n      dup2\n        /* \"#utility.yul\":765:766   */\n      0x00\n        /* \"#utility.yul\":758:772   */\n      mstore\n        /* \"#utility.yul\":802:806   */\n      0x20\n        /* \"#utility.yul\":799:800   */\n      0x00\n        /* \"#utility.yul\":789:807   */\n      keccak256\n        /* \"#utility.yul\":781:807   */\n      swap1\n      pop\n        /* \"#utility.yul\":673:814   */\n      swap2\n      swap1\n      pop\n      jump\t// out\n        /* \"#utility.yul\":844:1718   */\n    tag_91:\n        /* \"#utility.yul\":947:950   */\n      0x00\n        /* \"#utility.yul\":984:989   */\n      dup2\n        /* \"#utility.yul\":978:990   */\n      sload\n        /* \"#utility.yul\":1013:1049   */\n      tag_145\n        /* \"#utility.yul\":1039:1048   */\n      dup2\n        /* \"#utility.yul\":1013:1049   */\n      tag_88\n      jump\t// in\n    tag_145:\n        /* \"#utility.yul\":1065:1154   */\n      tag_146\n        /* \"#utility.yul\":1147:1153   */\n      dup2\n        /* \"#utility.yul\":1142:1145   */\n      dup7\n        /* \"#utility.yul\":1065:1154   */\n      tag_89\n      jump\t// in\n    tag_146:\n        /* \"#utility.yul\":1058:1154   */\n      swap5\n      pop\n        /* \"#utility.yul\":1185:1186   */\n      0x01\n        /* \"#utility.yul\":1174:1183   */\n      dup3\n        /* \"#utility.yul\":1170:1187   */\n      and\n        /* \"#utility.yul\":1201:1202   */\n      0x00\n        /* \"#utility.yul\":1196:1362   */\n      dup2\n      eq\n      tag_148\n      jumpi\n        /* \"#utility.yul\":1376:1377   */\n      0x01\n        /* \"#utility.yul\":1371:1712   */\n      dup2\n      eq\n      tag_149\n      jumpi\n        /* \"#utility.yul\":1163:1712   */\n      jump(tag_147)\n        /* \"#utility.yul\":1196:1362   */\n    tag_148:\n        /* \"#utility.yul\":1280:1284   */\n      0xff\n        /* \"#utility.yul\":1276:1285   */\n      not\n        /* \"#utility.yul\":1265:1274   */\n      dup4\n        /* \"#utility.yul\":1261:1286   */\n      and\n        /* \"#utility.yul\":1256:1259   */\n      dup7\n        /* \"#utility.yul\":1249:1287   */\n      mstore\n        /* \"#utility.yul\":1342:1348   */\n      dup2\n        /* \"#utility.yul\":1335:1349   */\n      iszero\n        /* \"#utility.yul\":1328:1350   */\n      iszero\n        /* \"#utility.yul\":1320:1326   */\n      dup3\n        /* \"#utility.yul\":1316:1351   */\n      mul\n        /* \"#utility.yul\":1311:1314   */\n      dup7\n        /* \"#utility.yul\":1307:1352   */\n      add\n        /* \"#utility.yul\":1300:1352   */\n      swap4\n      pop\n        /* \"#utility.yul\":1196:1362   */\n      jump(tag_147)\n        /* \"#utility.yul\":1371:1712   */\n    tag_149:\n        /* \"#utility.yul\":1438:1476   */\n      tag_150\n        /* \"#utility.yul\":1470:1475   */\n      dup6\n        /* \"#utility.yul\":1438:1476   */\n      tag_90\n      jump\t// in\n    tag_150:\n        /* \"#utility.yul\":1498:1499   */\n      0x00\n        /* \"#utility.yul\":1512:1666   */\n    tag_151:\n        /* \"#utility.yul\":1526:1532   */\n      dup4\n        /* \"#utility.yul\":1523:1524   */\n      dup2\n        /* \"#utility.yul\":1520:1533   */\n      lt\n        /* \"#utility.yul\":1512:1666   */\n      iszero\n      tag_153\n      jumpi\n        /* \"#utility.yul\":1600:1607   */\n      dup2\n        /* \"#utility.yul\":1594:1608   */\n      sload\n        /* \"#utility.yul\":1590:1591   */\n      dup2\n        /* \"#utility.yul\":1585:1588   */\n      dup10\n        /* \"#utility.yul\":1581:1592   */\n      add\n        /* \"#utility.yul\":1574:1609   */\n      mstore\n        /* \"#utility.yul\":1650:1651   */\n      0x01\n        /* \"#utility.yul\":1641:1648   */\n      dup3\n        /* \"#utility.yul\":1637:1652   */\n      add\n        /* \"#utility.yul\":1626:1652   */\n      swap2\n      pop\n        /* \"#utility.yul\":1548:1552   */\n      0x20\n        /* \"#utility.yul\":1545:1546   */\n      dup2\n        /* \"#utility.yul\":1541:1553   */\n      add\n        /* \"#utility.yul\":1536:1553   */\n      swap1\n      pop\n        /* \"#utility.yul\":1512:1666   */\n      jump(tag_151)\n    tag_153:\n        /* \"#utility.yul\":1695:1701   */\n      dup4\n        /* \"#utility.yul\":1690:1693   */\n      dup9\n        /* \"#utility.yul\":1686:1702   */\n      add\n        /* \"#utility.yul\":1679:1702   */\n      swap6\n      pop\n        /* \"#utility.yul\":1378:1712   */\n      pop\n      pop\n        /* \"#utility.yul\":1163:1712   */\n    tag_147:\n      pop\n        /* \"#utility.yul\":951:1718   */\n      pop\n      pop\n        /* \"#utility.yul\":844:1718   */\n      swap3\n      swap2\n      pop\n      pop\n      jump\t// out\n        /* \"#utility.yul\":1724:1993   */\n    tag_15:\n        /* \"#utility.yul\":1853:1856   */\n      0x00\n        /* \"#utility.yul\":1875:1967   */\n      tag_155\n        /* \"#utility.yul\":1963:1966   */\n      dup3\n        /* \"#utility.yul\":1954:1960   */\n      dup5\n        /* \"#utility.yul\":1875:1967   */\n      tag_91\n      jump\t// in\n    tag_155:\n        /* \"#utility.yul\":1868:1967   */\n      swap2\n      pop\n        /* \"#utility.yul\":1984:1987   */\n      dup2\n        /* \"#utility.yul\":1977:1987   */\n      swap1\n      pop\n        /* \"#utility.yul\":1724:1993   */\n      swap3\n      swap2\n      pop\n      pop\n      jump\t// out\n        /* \"#utility.yul\":1999:2074   */\n    tag_92:\n        /* \"#utility.yul\":2032:2038   */\n      0x00\n        /* \"#utility.yul\":2065:2067   */\n      0x40\n        /* \"#utility.yul\":2059:2068   */\n      mload\n        /* \"#utility.yul\":2049:2068   */\n      swap1\n      pop\n        /* \"#utility.yul\":1999:2074   */\n      swap1\n      jump\t// out\n        /* \"#utility.yul\":2080:2197   */\n    tag_93:\n        /* \"#utility.yul\":2189:2190   */\n      0x00\n        /* \"#utility.yul\":2186:2187   */\n      dup1\n        /* \"#utility.yul\":2179:2191   */\n      revert\n        /* \"#utility.yul\":2203:2320   */\n    tag_94:\n        /* \"#utility.yul\":2312:2313   */\n      0x00\n        /* \"#utility.yul\":2309:2310   */\n      dup1\n        /* \"#utility.yul\":2302:2314   */\n      revert\n        /* \"#utility.yul\":2326:2452   */\n    tag_95:\n        /* \"#utility.yul\":2363:2370   */\n      0x00\n        /* \"#utility.yul\":2403:2445   */\n      0xffffffffffffffffffffffffffffffffffffffff\n        /* \"#utility.yul\":2396:2401   */\n      dup3\n        /* \"#utility.yul\":2392:2446   */\n      and\n        /* \"#utility.yul\":2381:2446   */\n      swap1\n      pop\n        /* \"#utility.yul\":2326:2452   */\n      swap2\n      swap1\n      pop\n      jump\t// out\n        /* \"#utility.yul\":2458:2554   */\n    tag_96:\n        /* \"#utility.yul\":2495:2502   */\n      0x00\n        /* \"#utility.yul\":2524:2548   */\n      tag_161\n        /* \"#utility.yul\":2542:2547   */\n      dup3\n        /* \"#utility.yul\":2524:2548   */\n      tag_95\n      jump\t// in\n    tag_161:\n        /* \"#utility.yul\":2513:2548   */\n      swap1\n      pop\n        /* \"#utility.yul\":2458:2554   */\n      swap2\n      swap1\n      pop\n      jump\t// out\n        /* \"#utility.yul\":2560:2682   */\n    tag_97:\n        /* \"#utility.yul\":2633:2657   */\n      tag_163\n        /* \"#utility.yul\":2651:2656   */\n      dup2\n        /* \"#utility.yul\":2633:2657   */\n      tag_96\n      jump\t// in\n    tag_163:\n        /* \"#utility.yul\":2626:2631   */\n      dup2\n        /* \"#utility.yul\":2623:2658   */\n      eq\n        /* \"#utility.yul\":2613:2676   */\n      tag_164\n      jumpi\n        /* \"#utility.yul\":2672:2673   */\n      0x00\n        /* \"#utility.yul\":2669:2670   */\n      dup1\n        /* \"#utility.yul\":2662:2674   */\n      revert\n        /* \"#utility.yul\":2613:2676   */\n    tag_164:\n        /* \"#utility.yul\":2560:2682   */\n      pop\n      jump\t// out\n        /* \"#utility.yul\":2688:2827   */\n    tag_98:\n        /* \"#utility.yul\":2734:2739   */\n      0x00\n        /* \"#utility.yul\":2772:2778   */\n      dup2\n        /* \"#utility.yul\":2759:2779   */\n      calldataload\n        /* \"#utility.yul\":2750:2779   */\n      swap1\n      pop\n        /* \"#utility.yul\":2788:2821   */\n      tag_166\n        /* \"#utility.yul\":2815:2820   */\n      dup2\n        /* \"#utility.yul\":2788:2821   */\n      tag_97\n      jump\t// in\n    tag_166:\n        /* \"#utility.yul\":2688:2827   */\n      swap3\n      swap2\n      pop\n      pop\n      jump\t// out\n        /* \"#utility.yul\":2833:3162   */\n    tag_20:\n        /* \"#utility.yul\":2892:2898   */\n      0x00\n        /* \"#utility.yul\":2941:2943   */\n      0x20\n        /* \"#utility.yul\":2929:2938   */\n      dup3\n        /* \"#utility.yul\":2920:2927   */\n      dup5\n        /* \"#utility.yul\":2916:2939   */\n      sub\n        /* \"#utility.yul\":2912:2944   */\n      slt\n        /* \"#utility.yul\":2909:3028   */\n      iszero\n      tag_168\n      jumpi\n        /* \"#utility.yul\":2947:3026   */\n      tag_169\n      tag_93\n      jump\t// in\n    tag_169:\n        /* \"#utility.yul\":2909:3028   */\n    tag_168:\n        /* \"#utility.yul\":3067:3068   */\n      0x00\n        /* \"#utility.yul\":3092:3145   */\n      tag_170\n        /* \"#utility.yul\":3137:3144   */\n      dup5\n        /* \"#utility.yul\":3128:3134   */\n      dup3\n        /* \"#utility.yul\":3117:3126   */\n      dup6\n        /* \"#utility.yul\":3113:3135   */\n      add\n        /* \"#utility.yul\":3092:3145   */\n      tag_98\n      jump\t// in\n    tag_170:\n        /* \"#utility.yul\":3082:3145   */\n      swap2\n      pop\n        /* \"#utility.yul\":3038:3155   */\n      pop\n        /* \"#utility.yul\":2833:3162   */\n      swap3\n      swap2\n      pop\n      pop\n      jump\t// out\n        /* \"#utility.yul\":3168:3285   */\n    tag_99:\n        /* \"#utility.yul\":3277:3278   */\n      0x00\n        /* \"#utility.yul\":3274:3275   */\n      dup1\n        /* \"#utility.yul\":3267:3279   */\n      revert\n        /* \"#utility.yul\":3291:3408   */\n    tag_100:\n        /* \"#utility.yul\":3400:3401   */\n      0x00\n        /* \"#utility.yul\":3397:3398   */\n      dup1\n        /* \"#utility.yul\":3390:3402   */\n      revert\n        /* \"#utility.yul\":3414:3516   */\n    tag_101:\n        /* \"#utility.yul\":3455:3461   */\n      0x00\n        /* \"#utility.yul\":3506:3508   */\n      0x1f\n        /* \"#utility.yul\":3502:3509   */\n      not\n        /* \"#utility.yul\":3497:3499   */\n      0x1f\n        /* \"#utility.yul\":3490:3495   */\n      dup4\n        /* \"#utility.yul\":3486:3500   */\n      add\n        /* \"#utility.yul\":3482:3510   */\n      and\n        /* \"#utility.yul\":3472:3510   */\n      swap1\n      pop\n        /* \"#utility.yul\":3414:3516   */\n      swap2\n      swap1\n      pop\n      jump\t// out\n        /* \"#utility.yul\":3522:3702   */\n    tag_102:\n        /* \"#utility.yul\":3570:3647   */\n      0x4e487b7100000000000000000000000000000000000000000000000000000000\n        /* \"#utility.yul\":3567:3568   */\n      0x00\n        /* \"#utility.yul\":3560:3648   */\n      mstore\n        /* \"#utility.yul\":3667:3671   */\n      0x41\n        /* \"#utility.yul\":3664:3665   */\n      0x04\n        /* \"#utility.yul\":3657:3672   */\n      mstore\n        /* \"#utility.yul\":3691:3695   */\n      0x24\n        /* \"#utility.yul\":3688:3689   */\n      0x00\n        /* \"#utility.yul\":3681:3696   */\n      revert\n        /* \"#utility.yul\":3708:3989   */\n    tag_103:\n        /* \"#utility.yul\":3791:3818   */\n      tag_176\n        /* \"#utility.yul\":3813:3817   */\n      dup3\n        /* \"#utility.yul\":3791:3818   */\n      tag_101\n      jump\t// in\n    tag_176:\n        /* \"#utility.yul\":3783:3789   */\n      dup2\n        /* \"#utility.yul\":3779:3819   */\n      add\n        /* \"#utility.yul\":3921:3927   */\n      dup2\n        /* \"#utility.yul\":3909:3919   */\n      dup2\n        /* \"#utility.yul\":3906:3928   */\n      lt\n        /* \"#utility.yul\":3885:3903   */\n      0xffffffffffffffff\n        /* \"#utility.yul\":3873:3883   */\n      dup3\n        /* \"#utility.yul\":3870:3904   */\n      gt\n        /* \"#utility.yul\":3867:3929   */\n      or\n        /* \"#utility.yul\":3864:3952   */\n      iszero\n      tag_177\n      jumpi\n        /* \"#utility.yul\":3932:3950   */\n      tag_178\n      tag_102\n      jump\t// in\n    tag_178:\n        /* \"#utility.yul\":3864:3952   */\n    tag_177:\n        /* \"#utility.yul\":3972:3982   */\n      dup1\n        /* \"#utility.yul\":3968:3970   */\n      0x40\n        /* \"#utility.yul\":3961:3983   */\n      mstore\n        /* \"#utility.yul\":3751:3989   */\n      pop\n        /* \"#utility.yul\":3708:3989   */\n      pop\n      pop\n      jump\t// out\n        /* \"#utility.yul\":3995:4124   */\n    tag_104:\n        /* \"#utility.yul\":4029:4035   */\n      0x00\n        /* \"#utility.yul\":4056:4076   */\n      tag_180\n      tag_92\n      jump\t// in\n    tag_180:\n        /* \"#utility.yul\":4046:4076   */\n      swap1\n      pop\n        /* \"#utility.yul\":4085:4118   */\n      tag_181\n        /* \"#utility.yul\":4113:4117   */\n      dup3\n        /* \"#utility.yul\":4105:4111   */\n      dup3\n        /* \"#utility.yul\":4085:4118   */\n      tag_103\n      jump\t// in\n    tag_181:\n        /* \"#utility.yul\":3995:4124   */\n      swap2\n      swap1\n      pop\n      jump\t// out\n        /* \"#utility.yul\":4130:4438   */\n    tag_105:\n        /* \"#utility.yul\":4192:4196   */\n      0x00\n        /* \"#utility.yul\":4282:4300   */\n      0xffffffffffffffff\n        /* \"#utility.yul\":4274:4280   */\n      dup3\n        /* \"#utility.yul\":4271:4301   */\n      gt\n        /* \"#utility.yul\":4268:4324   */\n      iszero\n      tag_183\n      jumpi\n        /* \"#utility.yul\":4304:4322   */\n      tag_184\n      tag_102\n      jump\t// in\n    tag_184:\n        /* \"#utility.yul\":4268:4324   */\n    tag_183:\n        /* \"#utility.yul\":4342:4371   */\n      tag_185\n        /* \"#utility.yul\":4364:4370   */\n      dup3\n        /* \"#utility.yul\":4342:4371   */\n      tag_101\n      jump\t// in\n    tag_185:\n        /* \"#utility.yul\":4334:4371   */\n      swap1\n      pop\n        /* \"#utility.yul\":4426:4430   */\n      0x20\n        /* \"#utility.yul\":4420:4424   */\n      dup2\n        /* \"#utility.yul\":4416:4431   */\n      add\n        /* \"#utility.yul\":4408:4431   */\n      swap1\n      pop\n        /* \"#utility.yul\":4130:4438   */\n      swap2\n      swap1\n      pop\n      jump\t// out\n        /* \"#utility.yul\":4444:4598   */\n    tag_106:\n        /* \"#utility.yul\":4528:4534   */\n      dup3\n        /* \"#utility.yul\":4523:4526   */\n      dup2\n        /* \"#utility.yul\":4518:4521   */\n      dup4\n        /* \"#utility.yul\":4505:4535   */\n      calldatacopy\n        /* \"#utility.yul\":4590:4591   */\n      0x00\n        /* \"#utility.yul\":4581:4587   */\n      dup4\n        /* \"#utility.yul\":4576:4579   */\n      dup4\n        /* \"#utility.yul\":4572:4588   */\n      add\n        /* \"#utility.yul\":4565:4592   */\n      mstore\n        /* \"#utility.yul\":4444:4598   */\n      pop\n      pop\n      pop\n      jump\t// out\n        /* \"#utility.yul\":4604:5016   */\n    tag_107:\n        /* \"#utility.yul\":4682:4687   */\n      0x00\n        /* \"#utility.yul\":4707:4773   */\n      tag_188\n        /* \"#utility.yul\":4723:4772   */\n      tag_189\n        /* \"#utility.yul\":4765:4771   */\n      dup5\n        /* \"#utility.yul\":4723:4772   */\n      tag_105\n      jump\t// in\n    tag_189:\n        /* \"#utility.yul\":4707:4773   */\n      tag_104\n      jump\t// in\n    tag_188:\n        /* \"#utility.yul\":4698:4773   */\n      swap1\n      pop\n        /* \"#utility.yul\":4796:4802   */\n      dup3\n        /* \"#utility.yul\":4789:4794   */\n      dup2\n        /* \"#utility.yul\":4782:4803   */\n      mstore\n        /* \"#utility.yul\":4834:4838   */\n      0x20\n        /* \"#utility.yul\":4827:4832   */\n      dup2\n        /* \"#utility.yul\":4823:4839   */\n      add\n        /* \"#utility.yul\":4872:4875   */\n      dup5\n        /* \"#utility.yul\":4863:4869   */\n      dup5\n        /* \"#utility.yul\":4858:4861   */\n      dup5\n        /* \"#utility.yul\":4854:4870   */\n      add\n        /* \"#utility.yul\":4851:4876   */\n      gt\n        /* \"#utility.yul\":4848:4960   */\n      iszero\n      tag_190\n      jumpi\n        /* \"#utility.yul\":4879:4958   */\n      tag_191\n      tag_100\n      jump\t// in\n    tag_191:\n        /* \"#utility.yul\":4848:4960   */\n    tag_190:\n        /* \"#utility.yul\":4969:5010   */\n      tag_192\n        /* \"#utility.yul\":5003:5009   */\n      dup5\n        /* \"#utility.yul\":4998:5001   */\n      dup3\n        /* \"#utility.yul\":4993:4996   */\n      dup6\n        /* \"#utility.yul\":4969:5010   */\n      tag_106\n      jump\t// in\n    tag_192:\n        /* \"#utility.yul\":4688:5016   */\n      pop\n        /* \"#utility.yul\":4604:5016   */\n      swap4\n      swap3\n      pop\n      pop\n      pop\n      jump\t// out\n        /* \"#utility.yul\":5036:5376   */\n    tag_108:\n        /* \"#utility.yul\":5092:5097   */\n      0x00\n        /* \"#utility.yul\":5141:5144   */\n      dup3\n        /* \"#utility.yul\":5134:5138   */\n      0x1f\n        /* \"#utility.yul\":5126:5132   */\n      dup4\n        /* \"#utility.yul\":5122:5139   */\n      add\n        /* \"#utility.yul\":5118:5145   */\n      slt\n        /* \"#utility.yul\":5108:5230   */\n      tag_194\n      jumpi\n        /* \"#utility.yul\":5149:5228   */\n      tag_195\n      tag_99\n      jump\t// in\n    tag_195:\n        /* \"#utility.yul\":5108:5230   */\n    tag_194:\n        /* \"#utility.yul\":5266:5272   */\n      dup2\n        /* \"#utility.yul\":5253:5273   */\n      calldataload\n        /* \"#utility.yul\":5291:5370   */\n      tag_196\n        /* \"#utility.yul\":5366:5369   */\n      dup5\n        /* \"#utility.yul\":5358:5364   */\n      dup3\n        /* \"#utility.yul\":5351:5355   */\n      0x20\n        /* \"#utility.yul\":5343:5349   */\n      dup7\n        /* \"#utility.yul\":5339:5356   */\n      add\n        /* \"#utility.yul\":5291:5370   */\n      tag_107\n      jump\t// in\n    tag_196:\n        /* \"#utility.yul\":5282:5370   */\n      swap2\n      pop\n        /* \"#utility.yul\":5098:5376   */\n      pop\n        /* \"#utility.yul\":5036:5376   */\n      swap3\n      swap2\n      pop\n      pop\n      jump\t// out\n        /* \"#utility.yul\":5382:5459   */\n    tag_109:\n        /* \"#utility.yul\":5419:5426   */\n      0x00\n        /* \"#utility.yul\":5448:5453   */\n      dup2\n        /* \"#utility.yul\":5437:5453   */\n      swap1\n      pop\n        /* \"#utility.yul\":5382:5459   */\n      swap2\n      swap1\n      pop\n      jump\t// out\n        /* \"#utility.yul\":5465:5587   */\n    tag_110:\n        /* \"#utility.yul\":5538:5562   */\n      tag_199\n        /* \"#utility.yul\":5556:5561   */\n      dup2\n        /* \"#utility.yul\":5538:5562   */\n      tag_109\n      jump\t// in\n    tag_199:\n        /* \"#utility.yul\":5531:5536   */\n      dup2\n        /* \"#utility.yul\":5528:5563   */\n      eq\n        /* \"#utility.yul\":5518:5581   */\n      tag_200\n      jumpi\n        /* \"#utility.yul\":5577:5578   */\n      0x00\n        /* \"#utility.yul\":5574:5575   */\n      dup1\n        /* \"#utility.yul\":5567:5579   */\n      revert\n        /* \"#utility.yul\":5518:5581   */\n    tag_200:\n        /* \"#utility.yul\":5465:5587   */\n      pop\n      jump\t// out\n        /* \"#utility.yul\":5593:5732   */\n    tag_111:\n        /* \"#utility.yul\":5639:5644   */\n      0x00\n        /* \"#utility.yul\":5677:5683   */\n      dup2\n        /* \"#utility.yul\":5664:5684   */\n      calldataload\n        /* \"#utility.yul\":5655:5684   */\n      swap1\n      pop\n        /* \"#utility.yul\":5693:5726   */\n      tag_202\n        /* \"#utility.yul\":5720:5725   */\n      dup2\n        /* \"#utility.yul\":5693:5726   */\n      tag_110\n      jump\t// in\n    tag_202:\n        /* \"#utility.yul\":5593:5732   */\n      swap3\n      swap2\n      pop\n      pop\n      jump\t// out\n        /* \"#utility.yul\":5738:7189   */\n    tag_24:\n        /* \"#utility.yul\":5863:5869   */\n      0x00\n        /* \"#utility.yul\":5871:5877   */\n      dup1\n        /* \"#utility.yul\":5879:5885   */\n      0x00\n        /* \"#utility.yul\":5887:5893   */\n      dup1\n        /* \"#utility.yul\":5895:5901   */\n      0x00\n        /* \"#utility.yul\":5944:5947   */\n      0xa0\n        /* \"#utility.yul\":5932:5941   */\n      dup7\n        /* \"#utility.yul\":5923:5930   */\n      dup9\n        /* \"#utility.yul\":5919:5942   */\n      sub\n        /* \"#utility.yul\":5915:5948   */\n      slt\n        /* \"#utility.yul\":5912:6032   */\n      iszero\n      tag_204\n      jumpi\n        /* \"#utility.yul\":5951:6030   */\n      tag_205\n      tag_93\n      jump\t// in\n    tag_205:\n        /* \"#utility.yul\":5912:6032   */\n    tag_204:\n        /* \"#utility.yul\":6099:6100   */\n      0x00\n        /* \"#utility.yul\":6088:6097   */\n      dup7\n        /* \"#utility.yul\":6084:6101   */\n      add\n        /* \"#utility.yul\":6071:6102   */\n      calldataload\n        /* \"#utility.yul\":6129:6147   */\n      0xffffffffffffffff\n        /* \"#utility.yul\":6121:6127   */\n      dup2\n        /* \"#utility.yul\":6118:6148   */\n      gt\n        /* \"#utility.yul\":6115:6232   */\n      iszero\n      tag_206\n      jumpi\n        /* \"#utility.yul\":6151:6230   */\n      tag_207\n      tag_94\n      jump\t// in\n    tag_207:\n        /* \"#utility.yul\":6115:6232   */\n    tag_206:\n        /* \"#utility.yul\":6256:6319   */\n      tag_208\n        /* \"#utility.yul\":6311:6318   */\n      dup9\n        /* \"#utility.yul\":6302:6308   */\n      dup3\n        /* \"#utility.yul\":6291:6300   */\n      dup10\n        /* \"#utility.yul\":6287:6309   */\n      add\n        /* \"#utility.yul\":6256:6319   */\n      tag_108\n      jump\t// in\n    tag_208:\n        /* \"#utility.yul\":6246:6319   */\n      swap6\n      pop\n        /* \"#utility.yul\":6042:6329   */\n      pop\n        /* \"#utility.yul\":6396:6398   */\n      0x20\n        /* \"#utility.yul\":6385:6394   */\n      dup7\n        /* \"#utility.yul\":6381:6399   */\n      add\n        /* \"#utility.yul\":6368:6400   */\n      calldataload\n        /* \"#utility.yul\":6427:6445   */\n      0xffffffffffffffff\n        /* \"#utility.yul\":6419:6425   */\n      dup2\n        /* \"#utility.yul\":6416:6446   */\n      gt\n        /* \"#utility.yul\":6413:6530   */\n      iszero\n      tag_209\n      jumpi\n        /* \"#utility.yul\":6449:6528   */\n      tag_210\n      tag_94\n      jump\t// in\n    tag_210:\n        /* \"#utility.yul\":6413:6530   */\n    tag_209:\n        /* \"#utility.yul\":6554:6617   */\n      tag_211\n        /* \"#utility.yul\":6609:6616   */\n      dup9\n        /* \"#utility.yul\":6600:6606   */\n      dup3\n        /* \"#utility.yul\":6589:6598   */\n      dup10\n        /* \"#utility.yul\":6585:6607   */\n      add\n        /* \"#utility.yul\":6554:6617   */\n      tag_108\n      jump\t// in\n    tag_211:\n        /* \"#utility.yul\":6544:6617   */\n      swap5\n      pop\n        /* \"#utility.yul\":6339:6627   */\n      pop\n        /* \"#utility.yul\":6666:6668   */\n      0x40\n        /* \"#utility.yul\":6692:6745   */\n      tag_212\n        /* \"#utility.yul\":6737:6744   */\n      dup9\n        /* \"#utility.yul\":6728:6734   */\n      dup3\n        /* \"#utility.yul\":6717:6726   */\n      dup10\n        /* \"#utility.yul\":6713:6735   */\n      add\n        /* \"#utility.yul\":6692:6745   */\n      tag_111\n      jump\t// in\n    tag_212:\n        /* \"#utility.yul\":6682:6745   */\n      swap4\n      pop\n        /* \"#utility.yul\":6637:6755   */\n      pop\n        /* \"#utility.yul\":6794:6796   */\n      0x60\n        /* \"#utility.yul\":6820:6873   */\n      tag_213\n        /* \"#utility.yul\":6865:6872   */\n      dup9\n        /* \"#utility.yul\":6856:6862   */\n      dup3\n        /* \"#utility.yul\":6845:6854   */\n      dup10\n        /* \"#utility.yul\":6841:6863   */\n      add\n        /* \"#utility.yul\":6820:6873   */\n      tag_111\n      jump\t// in\n    tag_213:\n        /* \"#utility.yul\":6810:6873   */\n      swap3\n      pop\n        /* \"#utility.yul\":6765:6883   */\n      pop\n        /* \"#utility.yul\":6950:6953   */\n      0x80\n        /* \"#utility.yul\":6939:6948   */\n      dup7\n        /* \"#utility.yul\":6935:6954   */\n      add\n        /* \"#utility.yul\":6922:6955   */\n      calldataload\n        /* \"#utility.yul\":6982:7000   */\n      0xffffffffffffffff\n        /* \"#utility.yul\":6974:6980   */\n      dup2\n        /* \"#utility.yul\":6971:7001   */\n      gt\n        /* \"#utility.yul\":6968:7085   */\n      iszero\n      tag_214\n      jumpi\n        /* \"#utility.yul\":7004:7083   */\n      tag_215\n      tag_94\n      jump\t// in\n    tag_215:\n        /* \"#utility.yul\":6968:7085   */\n    tag_214:\n        /* \"#utility.yul\":7109:7172   */\n      tag_216\n        /* \"#utility.yul\":7164:7171   */\n      dup9\n        /* \"#utility.yul\":7155:7161   */\n      dup3\n        /* \"#utility.yul\":7144:7153   */\n      dup10\n        /* \"#utility.yul\":7140:7162   */\n      add\n        /* \"#utility.yul\":7109:7172   */\n      tag_108\n      jump\t// in\n    tag_216:\n        /* \"#utility.yul\":7099:7172   */\n      swap2\n      pop\n        /* \"#utility.yul\":6893:7182   */\n      pop\n        /* \"#utility.yul\":5738:7189   */\n      swap3\n      swap6\n      pop\n      swap3\n      swap6\n      swap1\n      swap4\n      pop\n      jump\t// out\n        /* \"#utility.yul\":7195:7285   */\n    tag_112:\n        /* \"#utility.yul\":7229:7236   */\n      0x00\n        /* \"#utility.yul\":7272:7277   */\n      dup2\n        /* \"#utility.yul\":7265:7278   */\n      iszero\n        /* \"#utility.yul\":7258:7279   */\n      iszero\n        /* \"#utility.yul\":7247:7279   */\n      swap1\n      pop\n        /* \"#utility.yul\":7195:7285   */\n      swap2\n      swap1\n      pop\n      jump\t// out\n        /* \"#utility.yul\":7291:7400   */\n    tag_113:\n        /* \"#utility.yul\":7372:7393   */\n      tag_219\n        /* \"#utility.yul\":7387:7392   */\n      dup2\n        /* \"#utility.yul\":7372:7393   */\n      tag_112\n      jump\t// in\n    tag_219:\n        /* \"#utility.yul\":7367:7370   */\n      dup3\n        /* \"#utility.yul\":7360:7394   */\n      mstore\n        /* \"#utility.yul\":7291:7400   */\n      pop\n      pop\n      jump\t// out\n        /* \"#utility.yul\":7406:7616   */\n    tag_34:\n        /* \"#utility.yul\":7493:7497   */\n      0x00\n        /* \"#utility.yul\":7531:7533   */\n      0x20\n        /* \"#utility.yul\":7520:7529   */\n      dup3\n        /* \"#utility.yul\":7516:7534   */\n      add\n        /* \"#utility.yul\":7508:7534   */\n      swap1\n      pop\n        /* \"#utility.yul\":7544:7609   */\n      tag_221\n        /* \"#utility.yul\":7606:7607   */\n      0x00\n        /* \"#utility.yul\":7595:7604   */\n      dup4\n        /* \"#utility.yul\":7591:7608   */\n      add\n        /* \"#utility.yul\":7582:7588   */\n      dup5\n        /* \"#utility.yul\":7544:7609   */\n      tag_113\n      jump\t// in\n    tag_221:\n        /* \"#utility.yul\":7406:7616   */\n      swap3\n      swap2\n      pop\n      pop\n      jump\t// out\n        /* \"#utility.yul\":7622:7740   */\n    tag_114:\n        /* \"#utility.yul\":7709:7733   */\n      tag_223\n        /* \"#utility.yul\":7727:7732   */\n      dup2\n        /* \"#utility.yul\":7709:7733   */\n      tag_96\n      jump\t// in\n    tag_223:\n        /* \"#utility.yul\":7704:7707   */\n      dup3\n        /* \"#utility.yul\":7697:7734   */\n      mstore\n        /* \"#utility.yul\":7622:7740   */\n      pop\n      pop\n      jump\t// out\n        /* \"#utility.yul\":7746:7968   */\n    tag_39:\n        /* \"#utility.yul\":7839:7843   */\n      0x00\n        /* \"#utility.yul\":7877:7879   */\n      0x20\n        /* \"#utility.yul\":7866:7875   */\n      dup3\n        /* \"#utility.yul\":7862:7880   */\n      add\n        /* \"#utility.yul\":7854:7880   */\n      swap1\n      pop\n        /* \"#utility.yul\":7890:7961   */\n      tag_225\n        /* \"#utility.yul\":7958:7959   */\n      0x00\n        /* \"#utility.yul\":7947:7956   */\n      dup4\n        /* \"#utility.yul\":7943:7960   */\n      add\n        /* \"#utility.yul\":7934:7940   */\n      dup5\n        /* \"#utility.yul\":7890:7961   */\n      tag_114\n      jump\t// in\n    tag_225:\n        /* \"#utility.yul\":7746:7968   */\n      swap3\n      swap2\n      pop\n      pop\n      jump\t// out\n        /* \"#utility.yul\":7974:8483   */\n    tag_43:\n        /* \"#utility.yul\":8043:8049   */\n      0x00\n        /* \"#utility.yul\":8092:8094   */\n      0x20\n        /* \"#utility.yul\":8080:8089   */\n      dup3\n        /* \"#utility.yul\":8071:8078   */\n      dup5\n        /* \"#utility.yul\":8067:8090   */\n      sub\n        /* \"#utility.yul\":8063:8095   */\n      slt\n        /* \"#utility.yul\":8060:8179   */\n      iszero\n      tag_227\n      jumpi\n        /* \"#utility.yul\":8098:8177   */\n      tag_228\n      tag_93\n      jump\t// in\n    tag_228:\n        /* \"#utility.yul\":8060:8179   */\n    tag_227:\n        /* \"#utility.yul\":8246:8247   */\n      0x00\n        /* \"#utility.yul\":8235:8244   */\n      dup3\n        /* \"#utility.yul\":8231:8248   */\n      add\n        /* \"#utility.yul\":8218:8249   */\n      calldataload\n        /* \"#utility.yul\":8276:8294   */\n      0xffffffffffffffff\n        /* \"#utility.yul\":8268:8274   */\n      dup2\n        /* \"#utility.yul\":8265:8295   */\n      gt\n        /* \"#utility.yul\":8262:8379   */\n      iszero\n      tag_229\n      jumpi\n        /* \"#utility.yul\":8298:8377   */\n      tag_230\n      tag_94\n      jump\t// in\n    tag_230:\n        /* \"#utility.yul\":8262:8379   */\n    tag_229:\n        /* \"#utility.yul\":8403:8466   */\n      tag_231\n        /* \"#utility.yul\":8458:8465   */\n      dup5\n        /* \"#utility.yul\":8449:8455   */\n      dup3\n        /* \"#utility.yul\":8438:8447   */\n      dup6\n        /* \"#utility.yul\":8434:8456   */\n      add\n        /* \"#utility.yul\":8403:8466   */\n      tag_108\n      jump\t// in\n    tag_231:\n        /* \"#utility.yul\":8393:8466   */\n      swap2\n      pop\n        /* \"#utility.yul\":8189:8476   */\n      pop\n        /* \"#utility.yul\":7974:8483   */\n      swap3\n      swap2\n      pop\n      pop\n      jump\t// out\n        /* \"#utility.yul\":8489:8607   */\n    tag_115:\n        /* \"#utility.yul\":8576:8600   */\n      tag_233\n        /* \"#utility.yul\":8594:8599   */\n      dup2\n        /* \"#utility.yul\":8576:8600   */\n      tag_109\n      jump\t// in\n    tag_233:\n        /* \"#utility.yul\":8571:8574   */\n      dup3\n        /* \"#utility.yul\":8564:8601   */\n      mstore\n        /* \"#utility.yul\":8489:8607   */\n      pop\n      pop\n      jump\t// out\n        /* \"#utility.yul\":8613:8835   */\n    tag_50:\n        /* \"#utility.yul\":8706:8710   */\n      0x00\n        /* \"#utility.yul\":8744:8746   */\n      0x20\n        /* \"#utility.yul\":8733:8742   */\n      dup3\n        /* \"#utility.yul\":8729:8747   */\n      add\n        /* \"#utility.yul\":8721:8747   */\n      swap1\n      pop\n        /* \"#utility.yul\":8757:8828   */\n      tag_235\n        /* \"#utility.yul\":8825:8826   */\n      0x00\n        /* \"#utility.yul\":8814:8823   */\n      dup4\n        /* \"#utility.yul\":8810:8827   */\n      add\n        /* \"#utility.yul\":8801:8807   */\n      dup5\n        /* \"#utility.yul\":8757:8828   */\n      tag_115\n      jump\t// in\n    tag_235:\n        /* \"#utility.yul\":8613:8835   */\n      swap3\n      swap2\n      pop\n      pop\n      jump\t// out\n        /* \"#utility.yul\":8841:9495   */\n    tag_54:\n        /* \"#utility.yul\":8919:8925   */\n      0x00\n        /* \"#utility.yul\":8927:8933   */\n      dup1\n        /* \"#utility.yul\":8976:8978   */\n      0x40\n        /* \"#utility.yul\":8964:8973   */\n      dup4\n        /* \"#utility.yul\":8955:8962   */\n      dup6\n        /* \"#utility.yul\":8951:8974   */\n      sub\n        /* \"#utility.yul\":8947:8979   */\n      slt\n        /* \"#utility.yul\":8944:9063   */\n      iszero\n      tag_237\n      jumpi\n        /* \"#utility.yul\":8982:9061   */\n      tag_238\n      tag_93\n      jump\t// in\n    tag_238:\n        /* \"#utility.yul\":8944:9063   */\n    tag_237:\n        /* \"#utility.yul\":9130:9131   */\n      0x00\n        /* \"#utility.yul\":9119:9128   */\n      dup4\n        /* \"#utility.yul\":9115:9132   */\n      add\n        /* \"#utility.yul\":9102:9133   */\n      calldataload\n        /* \"#utility.yul\":9160:9178   */\n      0xffffffffffffffff\n        /* \"#utility.yul\":9152:9158   */\n      dup2\n        /* \"#utility.yul\":9149:9179   */\n      gt\n        /* \"#utility.yul\":9146:9263   */\n      iszero\n      tag_239\n      jumpi\n        /* \"#utility.yul\":9182:9261   */\n      tag_240\n      tag_94\n      jump\t// in\n    tag_240:\n        /* \"#utility.yul\":9146:9263   */\n    tag_239:\n        /* \"#utility.yul\":9287:9350   */\n      tag_241\n        /* \"#utility.yul\":9342:9349   */\n      dup6\n        /* \"#utility.yul\":9333:9339   */\n      dup3\n        /* \"#utility.yul\":9322:9331   */\n      dup7\n        /* \"#utility.yul\":9318:9340   */\n      add\n        /* \"#utility.yul\":9287:9350   */\n      tag_108\n      jump\t// in\n    tag_241:\n        /* \"#utility.yul\":9277:9350   */\n      swap3\n      pop\n        /* \"#utility.yul\":9073:9360   */\n      pop\n        /* \"#utility.yul\":9399:9401   */\n      0x20\n        /* \"#utility.yul\":9425:9478   */\n      tag_242\n        /* \"#utility.yul\":9470:9477   */\n      dup6\n        /* \"#utility.yul\":9461:9467   */\n      dup3\n        /* \"#utility.yul\":9450:9459   */\n      dup7\n        /* \"#utility.yul\":9446:9468   */\n      add\n        /* \"#utility.yul\":9425:9478   */\n      tag_98\n      jump\t// in\n    tag_242:\n        /* \"#utility.yul\":9415:9478   */\n      swap2\n      pop\n        /* \"#utility.yul\":9370:9488   */\n      pop\n        /* \"#utility.yul\":8841:9495   */\n      swap3\n      pop\n      swap3\n      swap1\n      pop\n      jump\t// out\n        /* \"#utility.yul\":9501:9670   */\n    tag_116:\n        /* \"#utility.yul\":9585:9596   */\n      0x00\n        /* \"#utility.yul\":9619:9625   */\n      dup3\n        /* \"#utility.yul\":9614:9617   */\n      dup3\n        /* \"#utility.yul\":9607:9626   */\n      mstore\n        /* \"#utility.yul\":9659:9663   */\n      0x20\n        /* \"#utility.yul\":9654:9657   */\n      dup3\n        /* \"#utility.yul\":9650:9664   */\n      add\n        /* \"#utility.yul\":9635:9664   */\n      swap1\n      pop\n        /* \"#utility.yul\":9501:9670   */\n      swap3\n      swap2\n      pop\n      pop\n      jump\t// out\n        /* \"#utility.yul\":9676:9858   */\n    tag_117:\n        /* \"#utility.yul\":9816:9850   */\n      0x4f776e61626c653a2063616c6c6572206973206e6f7420746865206f776e6572\n        /* \"#utility.yul\":9812:9813   */\n      0x00\n        /* \"#utility.yul\":9804:9810   */\n      dup3\n        /* \"#utility.yul\":9800:9814   */\n      add\n        /* \"#utility.yul\":9793:9851   */\n      mstore\n        /* \"#utility.yul\":9676:9858   */\n      pop\n      jump\t// out\n        /* \"#utility.yul\":9864:10230   */\n    tag_118:\n        /* \"#utility.yul\":10006:10009   */\n      0x00\n        /* \"#utility.yul\":10027:10094   */\n      tag_246\n        /* \"#utility.yul\":10091:10093   */\n      0x20\n        /* \"#utility.yul\":10086:10089   */\n      dup4\n        /* \"#utility.yul\":10027:10094   */\n      tag_116\n      jump\t// in\n    tag_246:\n        /* \"#utility.yul\":10020:10094   */\n      swap2\n      pop\n        /* \"#utility.yul\":10103:10196   */\n      tag_247\n        /* \"#utility.yul\":10192:10195   */\n      dup3\n        /* \"#utility.yul\":10103:10196   */\n      tag_117\n      jump\t// in\n    tag_247:\n        /* \"#utility.yul\":10221:10223   */\n      0x20\n        /* \"#utility.yul\":10216:10219   */\n      dup3\n        /* \"#utility.yul\":10212:10224   */\n      add\n        /* \"#utility.yul\":10205:10224   */\n      swap1\n      pop\n        /* \"#utility.yul\":9864:10230   */\n      swap2\n      swap1\n      pop\n      jump\t// out\n        /* \"#utility.yul\":10236:10655   */\n    tag_60:\n        /* \"#utility.yul\":10402:10406   */\n      0x00\n        /* \"#utility.yul\":10440:10442   */\n      0x20\n        /* \"#utility.yul\":10429:10438   */\n      dup3\n        /* \"#utility.yul\":10425:10443   */\n      add\n        /* \"#utility.yul\":10417:10443   */\n      swap1\n      pop\n        /* \"#utility.yul\":10489:10498   */\n      dup2\n        /* \"#utility.yul\":10483:10487   */\n      dup2\n        /* \"#utility.yul\":10479:10499   */\n      sub\n        /* \"#utility.yul\":10475:10476   */\n      0x00\n        /* \"#utility.yul\":10464:10473   */\n      dup4\n        /* \"#utility.yul\":10460:10477   */\n      add\n        /* \"#utility.yul\":10453:10500   */\n      mstore\n        /* \"#utility.yul\":10517:10648   */\n      tag_249\n        /* \"#utility.yul\":10643:10647   */\n      dup2\n        /* \"#utility.yul\":10517:10648   */\n      tag_118\n      jump\t// in\n    tag_249:\n        /* \"#utility.yul\":10509:10648   */\n      swap1\n      pop\n        /* \"#utility.yul\":10236:10655   */\n      swap2\n      swap1\n      pop\n      jump\t// out\n        /* \"#utility.yul\":10661:10760   */\n    tag_119:\n        /* \"#utility.yul\":10713:10719   */\n      0x00\n        /* \"#utility.yul\":10747:10752   */\n      dup2\n        /* \"#utility.yul\":10741:10753   */\n      mload\n        /* \"#utility.yul\":10731:10753   */\n      swap1\n      pop\n        /* \"#utility.yul\":10661:10760   */\n      swap2\n      swap1\n      pop\n      jump\t// out\n        /* \"#utility.yul\":10766:11073   */\n    tag_120:\n        /* \"#utility.yul\":10834:10835   */\n      0x00\n        /* \"#utility.yul\":10844:10957   */\n    tag_252:\n        /* \"#utility.yul\":10858:10864   */\n      dup4\n        /* \"#utility.yul\":10855:10856   */\n      dup2\n        /* \"#utility.yul\":10852:10865   */\n      lt\n        /* \"#utility.yul\":10844:10957   */\n      iszero\n      tag_254\n      jumpi\n        /* \"#utility.yul\":10943:10944   */\n      dup1\n        /* \"#utility.yul\":10938:10941   */\n      dup3\n        /* \"#utility.yul\":10934:10945   */\n      add\n        /* \"#utility.yul\":10928:10946   */\n      mload\n        /* \"#utility.yul\":10924:10925   */\n      dup2\n        /* \"#utility.yul\":10919:10922   */\n      dup5\n        /* \"#utility.yul\":10915:10926   */\n      add\n        /* \"#utility.yul\":10908:10947   */\n      mstore\n        /* \"#utility.yul\":10880:10882   */\n      0x20\n        /* \"#utility.yul\":10877:10878   */\n      dup2\n        /* \"#utility.yul\":10873:10883   */\n      add\n        /* \"#utility.yul\":10868:10883   */\n      swap1\n      pop\n        /* \"#utility.yul\":10844:10957   */\n      jump(tag_252)\n    tag_254:\n        /* \"#utility.yul\":10975:10981   */\n      dup4\n        /* \"#utility.yul\":10972:10973   */\n      dup2\n        /* \"#utility.yul\":10969:10982   */\n      gt\n        /* \"#utility.yul\":10966:11067   */\n      iszero\n      tag_255\n      jumpi\n        /* \"#utility.yul\":11055:11056   */\n      0x00\n        /* \"#utility.yul\":11046:11052   */\n      dup5\n        /* \"#utility.yul\":11041:11044   */\n      dup5\n        /* \"#utility.yul\":11037:11053   */\n      add\n        /* \"#utility.yul\":11030:11057   */\n      mstore\n        /* \"#utility.yul\":10966:11067   */\n    tag_255:\n        /* \"#utility.yul\":10815:11073   */\n      pop\n        /* \"#utility.yul\":10766:11073   */\n      pop\n      pop\n      pop\n      jump\t// out\n        /* \"#utility.yul\":11079:11456   */\n    tag_121:\n        /* \"#utility.yul\":11185:11188   */\n      0x00\n        /* \"#utility.yul\":11213:11252   */\n      tag_257\n        /* \"#utility.yul\":11246:11251   */\n      dup3\n        /* \"#utility.yul\":11213:11252   */\n      tag_119\n      jump\t// in\n    tag_257:\n        /* \"#utility.yul\":11268:11357   */\n      tag_258\n        /* \"#utility.yul\":11350:11356   */\n      dup2\n        /* \"#utility.yul\":11345:11348   */\n      dup6\n        /* \"#utility.yul\":11268:11357   */\n      tag_89\n      jump\t// in\n    tag_258:\n        /* \"#utility.yul\":11261:11357   */\n      swap4\n      pop\n        /* \"#utility.yul\":11366:11418   */\n      tag_259\n        /* \"#utility.yul\":11411:11417   */\n      dup2\n        /* \"#utility.yul\":11406:11409   */\n      dup6\n        /* \"#utility.yul\":11399:11403   */\n      0x20\n        /* \"#utility.yul\":11392:11397   */\n      dup7\n        /* \"#utility.yul\":11388:11404   */\n      add\n        /* \"#utility.yul\":11366:11418   */\n      tag_120\n      jump\t// in\n    tag_259:\n        /* \"#utility.yul\":11443:11449   */\n      dup1\n        /* \"#utility.yul\":11438:11441   */\n      dup5\n        /* \"#utility.yul\":11434:11450   */\n      add\n        /* \"#utility.yul\":11427:11450   */\n      swap2\n      pop\n        /* \"#utility.yul\":11189:11456   */\n      pop\n        /* \"#utility.yul\":11079:11456   */\n      swap3\n      swap2\n      pop\n      pop\n      jump\t// out\n        /* \"#utility.yul\":11462:11737   */\n    tag_64:\n        /* \"#utility.yul\":11594:11597   */\n      0x00\n        /* \"#utility.yul\":11616:11711   */\n      tag_261\n        /* \"#utility.yul\":11707:11710   */\n      dup3\n        /* \"#utility.yul\":11698:11704   */\n      dup5\n        /* \"#utility.yul\":11616:11711   */\n      tag_121\n      jump\t// in\n    tag_261:\n        /* \"#utility.yul\":11609:11711   */\n      swap2\n      pop\n        /* \"#utility.yul\":11728:11731   */\n      dup2\n        /* \"#utility.yul\":11721:11731   */\n      swap1\n      pop\n        /* \"#utility.yul\":11462:11737   */\n      swap3\n      swap2\n      pop\n      pop\n      jump\t// out\n        /* \"#utility.yul\":11743:11836   */\n    tag_122:\n        /* \"#utility.yul\":11780:11786   */\n      0x00\n        /* \"#utility.yul\":11827:11829   */\n      0x20\n        /* \"#utility.yul\":11822:11824   */\n      0x1f\n        /* \"#utility.yul\":11815:11820   */\n      dup4\n        /* \"#utility.yul\":11811:11825   */\n      add\n        /* \"#utility.yul\":11807:11830   */\n      div\n        /* \"#utility.yul\":11797:11830   */\n      swap1\n      pop\n        /* \"#utility.yul\":11743:11836   */\n      swap2\n      swap1\n      pop\n      jump\t// out\n        /* \"#utility.yul\":11842:11949   */\n    tag_123:\n        /* \"#utility.yul\":11886:11894   */\n      0x00\n        /* \"#utility.yul\":11936:11941   */\n      dup3\n        /* \"#utility.yul\":11930:11934   */\n      dup3\n        /* \"#utility.yul\":11926:11942   */\n      shl\n        /* \"#utility.yul\":11905:11942   */\n      swap1\n      pop\n        /* \"#utility.yul\":11842:11949   */\n      swap3\n      swap2\n      pop\n      pop\n      jump\t// out\n        /* \"#utility.yul\":11955:12348   */\n    tag_124:\n        /* \"#utility.yul\":12024:12030   */\n      0x00\n        /* \"#utility.yul\":12074:12075   */\n      0x08\n        /* \"#utility.yul\":12062:12072   */\n      dup4\n        /* \"#utility.yul\":12058:12076   */\n      mul\n        /* \"#utility.yul\":12097:12194   */\n      tag_265\n        /* \"#utility.yul\":12127:12193   */\n      0xffffffffffffffffffffffffffffffffffffffffffffffffffffffffffffffff\n        /* \"#utility.yul\":12116:12125   */\n      dup3\n        /* \"#utility.yul\":12097:12194   */\n      tag_123\n      jump\t// in\n    tag_265:\n        /* \"#utility.yul\":12215:12254   */\n      tag_266\n        /* \"#utility.yul\":12245:12253   */\n      dup7\n        /* \"#utility.yul\":12234:12243   */\n      dup4\n        /* \"#utility.yul\":12215:12254   */\n      tag_123\n      jump\t// in\n    tag_266:\n        /* \"#utility.yul\":12203:12254   */\n      swap6\n      pop\n        /* \"#utility.yul\":12287:12291   */\n      dup1\n        /* \"#utility.yul\":12283:12292   */\n      not\n        /* \"#utility.yul\":12276:12281   */\n      dup5\n        /* \"#utility.yul\":12272:12293   */\n      and\n        /* \"#utility.yul\":12263:12293   */\n      swap4\n      pop\n        /* \"#utility.yul\":12336:12340   */\n      dup1\n        /* \"#utility.yul\":12326:12334   */\n      dup7\n        /* \"#utility.yul\":12322:12341   */\n      and\n        /* \"#utility.yul\":12315:12320   */\n      dup5\n        /* \"#utility.yul\":12312:12342   */\n      or\n        /* \"#utility.yul\":12302:12342   */\n      swap3\n      pop\n        /* \"#utility.yul\":12031:12348   */\n      pop\n      pop\n        /* \"#utility.yul\":11955:12348   */\n      swap4\n      swap3\n      pop\n      pop\n      pop\n      jump\t// out\n        /* \"#utility.yul\":12354:12414   */\n    tag_125:\n        /* \"#utility.yul\":12382:12385   */\n      0x00\n        /* \"#utility.yul\":12403:12408   */\n      dup2\n        /* \"#utility.yul\":12396:12408   */\n      swap1\n      pop\n        /* \"#utility.yul\":12354:12414   */\n      swap2\n      swap1\n      pop\n      jump\t// out\n        /* \"#utility.yul\":12420:12562   */\n    tag_126:\n        /* \"#utility.yul\":12470:12479   */\n      0x00\n        /* \"#utility.yul\":12503:12556   */\n      tag_269\n        /* \"#utility.yul\":12521:12555   */\n      tag_270\n        /* \"#utility.yul\":12530:12554   */\n      tag_271\n        /* \"#utility.yul\":12548:12553   */\n      dup5\n        /* \"#utility.yul\":12530:12554   */\n      tag_109\n      jump\t// in\n    tag_271:\n        /* \"#utility.yul\":12521:12555   */\n      tag_125\n      jump\t// in\n    tag_270:\n        /* \"#utility.yul\":12503:12556   */\n      tag_109\n      jump\t// in\n    tag_269:\n        /* \"#utility.yul\":12490:12556   */\n      swap1\n      pop\n        /* \"#utility.yul\":12420:12562   */\n      swap2\n      swap1\n      pop\n      jump\t// out\n        /* \"#utility.yul\":12568:12643   */\n    tag_127:\n        /* \"#utility.yul\":12611:12614   */\n      0x00\n        /* \"#utility.yul\":12632:12637   */\n      dup2\n        /* \"#utility.yul\":12625:12637   */\n      swap1\n      pop\n        /* \"#utility.yul\":12568:12643   */\n      swap2\n      swap1\n      pop\n      jump\t// out\n        /* \"#utility.yul\":12649:12918   */\n    tag_128:\n        /* \"#utility.yul\":12759:12798   */\n      tag_274\n        /* \"#utility.yul\":12790:12797   */\n      dup4\n        /* \"#utility.yul\":12759:12798   */\n      tag_126\n      jump\t// in\n    tag_274:\n        /* \"#utility.yul\":12820:12911   */\n      tag_275\n        /* \"#utility.yul\":12869:12910   */\n      tag_276\n        /* \"#utility.yul\":12893:12909   */\n      dup3\n        /* \"#utility.yul\":12869:12910   */\n      tag_127\n      jump\t// in\n    tag_276:\n        /* \"#utility.yul\":12861:12867   */\n      dup5\n        /* \"#utility.yul\":12854:12858   */\n      dup5\n        /* \"#utility.yul\":12848:12859   */\n      sload\n        /* \"#utility.yul\":12820:12911   */\n      tag_124\n      jump\t// in\n    tag_275:\n        /* \"#utility.yul\":12814:12818   */\n      dup3\n        /* \"#utility.yul\":12807:12912   */\n      sstore\n        /* \"#utility.yul\":12725:12918   */\n      pop\n        /* \"#utility.yul\":12649:12918   */\n      pop\n      pop\n      pop\n      jump\t// out\n        /* \"#utility.yul\":12924:12997   */\n    tag_129:\n        /* \"#utility.yul\":12969:12972   */\n      0x00\n        /* \"#utility.yul\":12924:12997   */\n      swap1\n      jump\t// out\n        /* \"#utility.yul\":13003:13192   */\n    tag_130:\n        /* \"#utility.yul\":13080:13112   */\n      tag_279\n      tag_129\n      jump\t// in\n    tag_279:\n        /* \"#utility.yul\":13121:13186   */\n      tag_280\n        /* \"#utility.yul\":13179:13185   */\n      dup2\n        /* \"#utility.yul\":13171:13177   */\n      dup5\n        /* \"#utility.yul\":13165:13169   */\n      dup5\n        /* \"#utility.yul\":13121:13186   */\n      tag_128\n      jump\t// in\n    tag_280:\n        /* \"#utility.yul\":13056:13192   */\n      pop\n        /* \"#utility.yul\":13003:13192   */\n      pop\n      pop\n      jump\t// out\n        /* \"#utility.yul\":13198:13384   */\n    tag_131:\n        /* \"#utility.yul\":13258:13378   */\n    tag_282:\n        /* \"#utility.yul\":13275:13278   */\n      dup2\n        /* \"#utility.yul\":13268:13273   */\n      dup2\n        /* \"#utility.yul\":13265:13279   */\n      lt\n        /* \"#utility.yul\":13258:13378   */\n      iszero\n      tag_284\n      jumpi\n        /* \"#utility.yul\":13329:13368   */\n      tag_285\n        /* \"#utility.yul\":13366:13367   */\n      0x00\n        /* \"#utility.yul\":13359:13364   */\n      dup3\n        /* \"#utility.yul\":13329:13368   */\n      tag_130\n      jump\t// in\n    tag_285:\n        /* \"#utility.yul\":13302:13303   */\n      0x01\n        /* \"#utility.yul\":13295:13300   */\n      dup2\n        /* \"#utility.yul\":13291:13304   */\n      add\n        /* \"#utility.yul\":13282:13304   */\n      swap1\n      pop\n        /* \"#utility.yul\":13258:13378   */\n      jump(tag_282)\n    tag_284:\n        /* \"#utility.yul\":13198:13384   */\n      pop\n      pop\n      jump\t// out\n        /* \"#utility.yul\":13390:13933   */\n    tag_132:\n        /* \"#utility.yul\":13491:13493   */\n      0x1f\n        /* \"#utility.yul\":13486:13489   */\n      dup3\n        /* \"#utility.yul\":13483:13494   */\n      gt\n        /* \"#utility.yul\":13480:13926   */\n      iszero\n      tag_287\n      jumpi\n        /* \"#utility.yul\":13525:13563   */\n      tag_288\n        /* \"#utility.yul\":13557:13562   */\n      dup2\n        /* \"#utility.yul\":13525:13563   */\n      tag_90\n      jump\t// in\n    tag_288:\n        /* \"#utility.yul\":13609:13638   */\n      tag_289\n        /* \"#utility.yul\":13627:13637   */\n      dup5\n        /* \"#utility.yul\":13609:13638   */\n      tag_122\n      jump\t// in\n    tag_289:\n        /* \"#utility.yul\":13599:13607   */\n      dup2\n        /* \"#utility.yul\":13595:13639   */\n      add\n        /* \"#utility.yul\":13792:13794   */\n      0x20\n        /* \"#utility.yul\":13780:13790   */\n      dup6\n        /* \"#utility.yul\":13777:13795   */\n      lt\n        /* \"#utility.yul\":13774:13823   */\n      iszero\n      tag_290\n      jumpi\n        /* \"#utility.yul\":13813:13821   */\n      dup2\n        /* \"#utility.yul\":13798:13821   */\n      swap1\n      pop\n        /* \"#utility.yul\":13774:13823   */\n    tag_290:\n        /* \"#utility.yul\":13836:13916   */\n      tag_291\n        /* \"#utility.yul\":13892:13914   */\n      tag_292\n        /* \"#utility.yul\":13910:13913   */\n      dup6\n        /* \"#utility.yul\":13892:13914   */\n      tag_122\n      jump\t// in\n    tag_292:\n        /* \"#utility.yul\":13882:13890   */\n      dup4\n        /* \"#utility.yul\":13878:13915   */\n      add\n        /* \"#utility.yul\":13865:13876   */\n      dup3\n        /* \"#utility.yul\":13836:13916   */\n      tag_131\n      jump\t// in\n    tag_291:\n        /* \"#utility.yul\":13495:13926   */\n      pop\n      pop\n        /* \"#utility.yul\":13480:13926   */\n    tag_287:\n        /* \"#utility.yul\":13390:13933   */\n      pop\n      pop\n      pop\n      jump\t// out\n        /* \"#utility.yul\":13939:14056   */\n    tag_133:\n        /* \"#utility.yul\":13993:14001   */\n      0x00\n        /* \"#utility.yul\":14043:14048   */\n      dup3\n        /* \"#utility.yul\":14037:14041   */\n      dup3\n        /* \"#utility.yul\":14033:14049   */\n      shr\n        /* \"#utility.yul\":14012:14049   */\n      swap1\n      pop\n        /* \"#utility.yul\":13939:14056   */\n      swap3\n      swap2\n      pop\n      pop\n      jump\t// out\n        /* \"#utility.yul\":14062:14231   */\n    tag_134:\n        /* \"#utility.yul\":14106:14112   */\n      0x00\n        /* \"#utility.yul\":14139:14190   */\n      tag_295\n        /* \"#utility.yul\":14187:14188   */\n      0x00\n        /* \"#utility.yul\":14183:14189   */\n      not\n        /* \"#utility.yul\":14175:14180   */\n      dup5\n        /* \"#utility.yul\":14172:14173   */\n      0x08\n        /* \"#utility.yul\":14168:14181   */\n      mul\n        /* \"#utility.yul\":14139:14190   */\n      tag_133\n      jump\t// in\n    tag_295:\n        /* \"#utility.yul\":14135:14191   */\n      not\n        /* \"#utility.yul\":14220:14224   */\n      dup1\n        /* \"#utility.yul\":14214:14218   */\n      dup4\n        /* \"#utility.yul\":14210:14225   */\n      and\n        /* \"#utility.yul\":14200:14225   */\n      swap2\n      pop\n        /* \"#utility.yul\":14113:14231   */\n      pop\n        /* \"#utility.yul\":14062:14231   */\n      swap3\n      swap2\n      pop\n      pop\n      jump\t// out\n        /* \"#utility.yul\":14236:14531   */\n    tag_135:\n        /* \"#utility.yul\":14312:14316   */\n      0x00\n        /* \"#utility.yul\":14458:14487   */\n      tag_297\n        /* \"#utility.yul\":14483:14486   */\n      dup4\n        /* \"#utility.yul\":14477:14481   */\n      dup4\n        /* \"#utility.yul\":14458:14487   */\n      tag_134\n      jump\t// in\n    tag_297:\n        /* \"#utility.yul\":14450:14487   */\n      swap2\n      pop\n        /* \"#utility.yul\":14520:14523   */\n      dup3\n        /* \"#utility.yul\":14517:14518   */\n      0x02\n        /* \"#utility.yul\":14513:14524   */\n      mul\n        /* \"#utility.yul\":14507:14511   */\n      dup3\n        /* \"#utility.yul\":14504:14525   */\n      or\n        /* \"#utility.yul\":14496:14525   */\n      swap1\n      pop\n        /* \"#utility.yul\":14236:14531   */\n      swap3\n      swap2\n      pop\n      pop\n      jump\t// out\n        /* \"#utility.yul\":14536:15931   */\n    tag_86:\n        /* \"#utility.yul\":14653:14690   */\n      tag_299\n        /* \"#utility.yul\":14686:14689   */\n      dup3\n        /* \"#utility.yul\":14653:14690   */\n      tag_119\n      jump\t// in\n    tag_299:\n        /* \"#utility.yul\":14755:14773   */\n      0xffffffffffffffff\n        /* \"#utility.yul\":14747:14753   */\n      dup2\n        /* \"#utility.yul\":14744:14774   */\n      gt\n        /* \"#utility.yul\":14741:14797   */\n      iszero\n      tag_300\n      jumpi\n        /* \"#utility.yul\":14777:14795   */\n      tag_301\n      tag_102\n      jump\t// in\n    tag_301:\n        /* \"#utility.yul\":14741:14797   */\n    tag_300:\n        /* \"#utility.yul\":14821:14859   */\n      tag_302\n        /* \"#utility.yul\":14853:14857   */\n      dup3\n        /* \"#utility.yul\":14847:14858   */\n      sload\n        /* \"#utility.yul\":14821:14859   */\n      tag_88\n      jump\t// in\n    tag_302:\n        /* \"#utility.yul\":14906:14973   */\n      tag_303\n        /* \"#utility.yul\":14966:14972   */\n      dup3\n        /* \"#utility.yul\":14958:14964   */\n      dup3\n        /* \"#utility.yul\":14952:14956   */\n      dup6\n        /* \"#utility.yul\":14906:14973   */\n      tag_132\n      jump\t// in\n    tag_303:\n        /* \"#utility.yul\":15000:15001   */\n      0x00\n        /* \"#utility.yul\":15024:15028   */\n      0x20\n        /* \"#utility.yul\":15011:15028   */\n      swap1\n      pop\n        /* \"#utility.yul\":15056:15058   */\n      0x1f\n        /* \"#utility.yul\":15048:15054   */\n      dup4\n        /* \"#utility.yul\":15045:15059   */\n      gt\n        /* \"#utility.yul\":15073:15074   */\n      0x01\n        /* \"#utility.yul\":15068:15686   */\n      dup2\n      eq\n      tag_305\n      jumpi\n        /* \"#utility.yul\":15730:15731   */\n      0x00\n        /* \"#utility.yul\":15747:15753   */\n      dup5\n        /* \"#utility.yul\":15744:15821   */\n      iszero\n      tag_306\n      jumpi\n        /* \"#utility.yul\":15796:15805   */\n      dup3\n        /* \"#utility.yul\":15791:15794   */\n      dup8\n        /* \"#utility.yul\":15787:15806   */\n      add\n        /* \"#utility.yul\":15781:15807   */\n      mload\n        /* \"#utility.yul\":15772:15807   */\n      swap1\n      pop\n        /* \"#utility.yul\":15744:15821   */\n    tag_306:\n        /* \"#utility.yul\":15847:15914   */\n      tag_307\n        /* \"#utility.yul\":15907:15913   */\n      dup6\n        /* \"#utility.yul\":15900:15905   */\n      dup3\n        /* \"#utility.yul\":15847:15914   */\n      tag_135\n      jump\t// in\n    tag_307:\n        /* \"#utility.yul\":15841:15845   */\n      dup7\n        /* \"#utility.yul\":15834:15915   */\n      sstore\n        /* \"#utility.yul\":15703:15925   */\n      pop\n        /* \"#utility.yul\":15038:15925   */\n      jump(tag_304)\n        /* \"#utility.yul\":15068:15686   */\n    tag_305:\n        /* \"#utility.yul\":15120:15124   */\n      0x1f\n        /* \"#utility.yul\":15116:15125   */\n      not\n        /* \"#utility.yul\":15108:15114   */\n      dup5\n        /* \"#utility.yul\":15104:15126   */\n      and\n        /* \"#utility.yul\":15154:15191   */\n      tag_308\n        /* \"#utility.yul\":15186:15190   */\n      dup7\n        /* \"#utility.yul\":15154:15191   */\n      tag_90\n      jump\t// in\n    tag_308:\n        /* \"#utility.yul\":15213:15214   */\n      0x00\n        /* \"#utility.yul\":15227:15435   */\n    tag_309:\n        /* \"#utility.yul\":15241:15248   */\n      dup3\n        /* \"#utility.yul\":15238:15239   */\n      dup2\n        /* \"#utility.yul\":15235:15249   */\n      lt\n        /* \"#utility.yul\":15227:15435   */\n      iszero\n      tag_311\n      jumpi\n        /* \"#utility.yul\":15320:15329   */\n      dup5\n        /* \"#utility.yul\":15315:15318   */\n      dup10\n        /* \"#utility.yul\":15311:15330   */\n      add\n        /* \"#utility.yul\":15305:15331   */\n      mload\n        /* \"#utility.yul\":15297:15303   */\n      dup3\n        /* \"#utility.yul\":15290:15332   */\n      sstore\n        /* \"#utility.yul\":15371:15372   */\n      0x01\n        /* \"#utility.yul\":15363:15369   */\n      dup3\n        /* \"#utility.yul\":15359:15373   */\n      add\n        /* \"#utility.yul\":15349:15373   */\n      swap2\n      pop\n        /* \"#utility.yul\":15418:15420   */\n      0x20\n        /* \"#utility.yul\":15407:15416   */\n      dup6\n        /* \"#utility.yul\":15403:15421   */\n      add\n        /* \"#utility.yul\":15390:15421   */\n      swap5\n      pop\n        /* \"#utility.yul\":15264:15268   */\n      0x20\n        /* \"#utility.yul\":15261:15262   */\n      dup2\n        /* \"#utility.yul\":15257:15269   */\n      add\n        /* \"#utility.yul\":15252:15269   */\n      swap1\n      pop\n        /* \"#utility.yul\":15227:15435   */\n      jump(tag_309)\n    tag_311:\n        /* \"#utility.yul\":15463:15469   */\n      dup7\n        /* \"#utility.yul\":15454:15461   */\n      dup4\n        /* \"#utility.yul\":15451:15470   */\n      lt\n        /* \"#utility.yul\":15448:15627   */\n      iszero\n      tag_312\n      jumpi\n        /* \"#utility.yul\":15521:15530   */\n      dup5\n        /* \"#utility.yul\":15516:15519   */\n      dup10\n        /* \"#utility.yul\":15512:15531   */\n      add\n        /* \"#utility.yul\":15506:15532   */\n      mload\n        /* \"#utility.yul\":15564:15612   */\n      tag_313\n        /* \"#utility.yul\":15606:15610   */\n      0x1f\n        /* \"#utility.yul\":15598:15604   */\n      dup10\n        /* \"#utility.yul\":15594:15611   */\n      and\n        /* \"#utility.yul\":15583:15592   */\n      dup3\n        /* \"#utility.yul\":15564:15612   */\n      tag_134\n      jump\t// in\n    tag_313:\n        /* \"#utility.yul\":15556:15562   */\n      dup4\n        /* \"#utility.yul\":15549:15613   */\n      sstore\n        /* \"#utility.yul\":15471:15627   */\n      pop\n        /* \"#utility.yul\":15448:15627   */\n    tag_312:\n        /* \"#utility.yul\":15673:15674   */\n      0x01\n        /* \"#utility.yul\":15669:15670   */\n      0x02\n        /* \"#utility.yul\":15661:15667   */\n      dup9\n        /* \"#utility.yul\":15657:15671   */\n      mul\n        /* \"#utility.yul\":15653:15675   */\n      add\n        /* \"#utility.yul\":15647:15651   */\n      dup9\n        /* \"#utility.yul\":15640:15676   */\n      sstore\n        /* \"#utility.yul\":15075:15686   */\n      pop\n      pop\n      pop\n        /* \"#utility.yul\":15038:15925   */\n    tag_304:\n      pop\n        /* \"#utility.yul\":14628:15931   */\n      pop\n      pop\n      pop\n        /* \"#utility.yul\":14536:15931   */\n      pop\n      pop\n      jump\t// out\n\n    auxdata: 0xa26469706673582212200892efa795e6ce9ad40be8fb3522f71255adabb46802dd1aacc6fe8ef7771b6464736f6c634300080f0033\n}\n",
				"bytecode": {
					"linkReferences": {},
					"object": "608060405234801561001057600080fd5b50336000806101000a81548173ffffffffffffffffffffffffffffffffffffffff021916908373ffffffffffffffffffffffffffffffffffffffff16021790555033600360006101000a81548173ffffffffffffffffffffffffffffffffffffffff021916908373ffffffffffffffffffffffffffffffffffffffff160217905550610f94806100a16000396000f3fe60806040526004361061007f5760003560e01c8063b2bdfa7b1161004e578063b2bdfa7b14610197578063e9351558146101c2578063f9931855146101eb578063fe49048a14610228576100f9565b806313af4035146100fe5780633f59c65714610127578063704b6c02146101435780638f32d59b1461016c576100f9565b366100f9576002600460003373ffffffffffffffffffffffffffffffffffffffff1673ffffffffffffffffffffffffffffffffffffffff1681526020019081526020016000206040516100d291906107c2565b908152602001604051809103902060009054906101000a900460ff166100f757600080fd5b005b600080fd5b34801561010a57600080fd5b506101256004803603810190610120919061084b565b610251565b005b610141600480360381019061013c91906109f4565b6102db565b005b34801561014f57600080fd5b5061016a6004803603810190610165919061084b565b610355565b005b34801561017857600080fd5b506101816103e0565b60405161018e9190610ade565b60405180910390f35b3480156101a357600080fd5b506101ac610437565b6040516101b99190610b08565b60405180910390f35b3480156101ce57600080fd5b506101e960048036038101906101e49190610b23565b61045b565b005b3480156101f757600080fd5b50610212600480360381019061020d919061084b565b61055a565b60405161021f9190610b7b565b60405180910390f35b34801561023457600080fd5b5061024f600480360381019061024a9190610b96565b610572565b005b6102596103e0565b610298576040517f08c379a000000000000000000000000000000000000000000000000000000000815260040161028f90610c4f565b60405180910390fd5b806000806101000a81548173ffffffffffffffffffffffffffffffffffffffff021916908373ffffffffffffffffffffffffffffffffffffffff16021790555050565b600115156001826040516102ef9190610cde565b908152602001604051809103902060009054906101000a900460ff1615151461031757600080fd5b60006001826040516103299190610cde565b908152602001604051809103902060006101000a81548160ff0219169083151502179055505050505050565b61035d6103e0565b61039c576040517f08c379a000000000000000000000000000000000000000000000000000000000815260040161039390610c4f565b60405180910390fd5b80600360006101000a81548173ffffffffffffffffffffffffffffffffffffffff021916908373ffffffffffffffffffffffffffffffffffffffff16021790555050565b60008060009054906101000a900473ffffffffffffffffffffffffffffffffffffffff1673ffffffffffffffffffffffffffffffffffffffff163373ffffffffffffffffffffffffffffffffffffffff1614905090565b60008054906101000a900473ffffffffffffffffffffffffffffffffffffffff1681565b600360009054906101000a900473ffffffffffffffffffffffffffffffffffffffff1673ffffffffffffffffffffffffffffffffffffffff163373ffffffffffffffffffffffffffffffffffffffff16146104b557600080fd5b600180826040516104c69190610cde565b908152602001604051809103902060006101000a81548160ff0219169083151502179055506001816040516104fb9190610cde565b908152602001604051809103902060009054906101000a900460ff1661052057600080fd5b60016002826040516105329190610cde565b908152602001604051809103902060006101000a81548160ff02191690831515021790555050565b60056020528060005260406000206000915090505481565b600360009054906101000a900473ffffffffffffffffffffffffffffffffffffffff1673ffffffffffffffffffffffffffffffffffffffff163373ffffffffffffffffffffffffffffffffffffffff16146105cc57600080fd5b600180836040516105dd9190610cde565b908152602001604051809103902060006101000a81548160ff0219169083151502179055506001826040516106129190610cde565b908152602001604051809103902060009054906101000a900460ff1661063757600080fd5b60016002836040516106499190610cde565b908152602001604051809103902060006101000a81548160ff02191690831515021790555081600460008373ffffffffffffffffffffffffffffffffffffffff1673ffffffffffffffffffffffffffffffffffffffff16815260200190815260200160002090816106ba9190610e8c565b505050565b7f4e487b7100000000000000000000000000000000000000000000000000000000600052602260045260246000fd5b6000600282049050600182168061070657607f821691505b602082108103610719576107186106bf565b5b50919050565b600081905092915050565b60008190508160005260206000209050919050565b6000815461074c816106ee565b610756818661071f565b945060018216600081146107715760018114610786576107b9565b60ff19831686528115158202860193506107b9565b61078f8561072a565b60005b838110156107b157815481890152600182019150602081019050610792565b838801955050505b50505092915050565b60006107ce828461073f565b915081905092915050565b6000604051905090565b600080fd5b600080fd5b600073ffffffffffffffffffffffffffffffffffffffff82169050919050565b6000610818826107ed565b9050919050565b6108288161080d565b811461083357600080fd5b50565b6000813590506108458161081f565b92915050565b600060208284031215610861576108606107e3565b5b600061086f84828501610836565b91505092915050565b600080fd5b600080fd5b6000601f19601f8301169050919050565b7f4e487b7100000000000000000000000000000000000000000000000000000000600052604160045260246000fd5b6108cb82610882565b810181811067ffffffffffffffff821117156108ea576108e9610893565b5b80604052505050565b60006108fd6107d9565b905061090982826108c2565b919050565b600067ffffffffffffffff82111561092957610928610893565b5b61093282610882565b9050602081019050919050565b82818337600083830152505050565b600061096161095c8461090e565b6108f3565b90508281526020810184848401111561097d5761097c61087d565b5b61098884828561093f565b509392505050565b600082601f8301126109a5576109a4610878565b5b81356109b584826020860161094e565b91505092915050565b6000819050919050565b6109d1816109be565b81146109dc57600080fd5b50565b6000813590506109ee816109c8565b92915050565b600080600080600060a08688031215610a1057610a0f6107e3565b5b600086013567ffffffffffffffff811115610a2e57610a2d6107e8565b5b610a3a88828901610990565b955050602086013567ffffffffffffffff811115610a5b57610a5a6107e8565b5b610a6788828901610990565b9450506040610a78888289016109df565b9350506060610a89888289016109df565b925050608086013567ffffffffffffffff811115610aaa57610aa96107e8565b5b610ab688828901610990565b9150509295509295909350565b60008115159050919050565b610ad881610ac3565b82525050565b6000602082019050610af36000830184610acf565b92915050565b610b028161080d565b82525050565b6000602082019050610b1d6000830184610af9565b92915050565b600060208284031215610b3957610b386107e3565b5b600082013567ffffffffffffffff811115610b5757610b566107e8565b5b610b6384828501610990565b91505092915050565b610b75816109be565b82525050565b6000602082019050610b906000830184610b6c565b92915050565b60008060408385031215610bad57610bac6107e3565b5b600083013567ffffffffffffffff811115610bcb57610bca6107e8565b5b610bd785828601610990565b9250506020610be885828601610836565b9150509250929050565b600082825260208201905092915050565b7f4f776e61626c653a2063616c6c6572206973206e6f7420746865206f776e6572600082015250565b6000610c39602083610bf2565b9150610c4482610c03565b602082019050919050565b60006020820190508181036000830152610c6881610c2c565b9050919050565b600081519050919050565b60005b83811015610c98578082015181840152602081019050610c7d565b83811115610ca7576000848401525b50505050565b6000610cb882610c6f565b610cc2818561071f565b9350610cd2818560208601610c7a565b80840191505092915050565b6000610cea8284610cad565b915081905092915050565b60006020601f8301049050919050565b600082821b905092915050565b600060088302610d427fffffffffffffffffffffffffffffffffffffffffffffffffffffffffffffffff82610d05565b610d4c8683610d05565b95508019841693508086168417925050509392505050565b6000819050919050565b6000610d89610d84610d7f846109be565b610d64565b6109be565b9050919050565b6000819050919050565b610da383610d6e565b610db7610daf82610d90565b848454610d12565b825550505050565b600090565b610dcc610dbf565b610dd7818484610d9a565b505050565b5b81811015610dfb57610df0600082610dc4565b600181019050610ddd565b5050565b601f821115610e4057610e118161072a565b610e1a84610cf5565b81016020851015610e29578190505b610e3d610e3585610cf5565b830182610ddc565b50505b505050565b600082821c905092915050565b6000610e6360001984600802610e45565b1980831691505092915050565b6000610e7c8383610e52565b9150826002028217905092915050565b610e9582610c6f565b67ffffffffffffffff811115610eae57610ead610893565b5b610eb882546106ee565b610ec3828285610dff565b600060209050601f831160018114610ef65760008415610ee4578287015190505b610eee8582610e70565b865550610f56565b601f198416610f048661072a565b60005b82811015610f2c57848901518255600182019150602085019450602081019050610f07565b86831015610f495784890151610f45601f891682610e52565b8355505b6001600288020188555050505b50505050505056fea26469706673582212200892efa795e6ce9ad40be8fb3522f71255adabb46802dd1aacc6fe8ef7771b6464736f6c634300080f0033",
					"opcodes": "PUSH1 0x80 PUSH1 0x40 MSTORE CALLVALUE DUP1 ISZERO PUSH2 0x10 JUMPI PUSH1 0x0 DUP1 REVERT JUMPDEST POP CALLER PUSH1 0x0 DUP1 PUSH2 0x100 EXP DUP2 SLOAD DUP2 PUSH20 0xFFFFFFFFFFFFFFFFFFFFFFFFFFFFFFFFFFFFFFFF MUL NOT AND SWAP1 DUP4 PUSH20 0xFFFFFFFFFFFFFFFFFFFFFFFFFFFFFFFFFFFFFFFF AND MUL OR SWAP1 SSTORE POP CALLER PUSH1 0x3 PUSH1 0x0 PUSH2 0x100 EXP DUP2 SLOAD DUP2 PUSH20 0xFFFFFFFFFFFFFFFFFFFFFFFFFFFFFFFFFFFFFFFF MUL NOT AND SWAP1 DUP4 PUSH20 0xFFFFFFFFFFFFFFFFFFFFFFFFFFFFFFFFFFFFFFFF AND MUL OR SWAP1 SSTORE POP PUSH2 0xF94 DUP1 PUSH2 0xA1 PUSH1 0x0 CODECOPY PUSH1 0x0 RETURN INVALID PUSH1 0x80 PUSH1 0x40 MSTORE PUSH1 0x4 CALLDATASIZE LT PUSH2 0x7F JUMPI PUSH1 0x0 CALLDATALOAD PUSH1 0xE0 SHR DUP1 PUSH4 0xB2BDFA7B GT PUSH2 0x4E JUMPI DUP1 PUSH4 0xB2BDFA7B EQ PUSH2 0x197 JUMPI DUP1 PUSH4 0xE9351558 EQ PUSH2 0x1C2 JUMPI DUP1 PUSH4 0xF9931855 EQ PUSH2 0x1EB JUMPI DUP1 PUSH4 0xFE49048A EQ PUSH2 0x228 JUMPI PUSH2 0xF9 JUMP JUMPDEST DUP1 PUSH4 0x13AF4035 EQ PUSH2 0xFE JUMPI DUP1 PUSH4 0x3F59C657 EQ PUSH2 0x127 JUMPI DUP1 PUSH4 0x704B6C02 EQ PUSH2 0x143 JUMPI DUP1 PUSH4 0x8F32D59B EQ PUSH2 0x16C JUMPI PUSH2 0xF9 JUMP JUMPDEST CALLDATASIZE PUSH2 0xF9 JUMPI PUSH1 0x2 PUSH1 0x4 PUSH1 0x0 CALLER PUSH20 0xFFFFFFFFFFFFFFFFFFFFFFFFFFFFFFFFFFFFFFFF AND PUSH20 0xFFFFFFFFFFFFFFFFFFFFFFFFFFFFFFFFFFFFFFFF AND DUP2 MSTORE PUSH1 0x20 ADD SWAP1 DUP2 MSTORE PUSH1 0x20 ADD PUSH1 0x0 KECCAK256 PUSH1 0x40 MLOAD PUSH2 0xD2 SWAP2 SWAP1 PUSH2 0x7C2 JUMP JUMPDEST SWAP1 DUP2 MSTORE PUSH1 0x20 ADD PUSH1 0x40 MLOAD DUP1 SWAP2 SUB SWAP1 KECCAK256 PUSH1 0x0 SWAP1 SLOAD SWAP1 PUSH2 0x100 EXP SWAP1 DIV PUSH1 0xFF AND PUSH2 0xF7 JUMPI PUSH1 0x0 DUP1 REVERT JUMPDEST STOP JUMPDEST PUSH1 0x0 DUP1 REVERT JUMPDEST CALLVALUE DUP1 ISZERO PUSH2 0x10A JUMPI PUSH1 0x0 DUP1 REVERT JUMPDEST POP PUSH2 0x125 PUSH1 0x4 DUP1 CALLDATASIZE SUB DUP2 ADD SWAP1 PUSH2 0x120 SWAP2 SWAP1 PUSH2 0x84B JUMP JUMPDEST PUSH2 0x251 JUMP JUMPDEST STOP JUMPDEST PUSH2 0x141 PUSH1 0x4 DUP1 CALLDATASIZE SUB DUP2 ADD SWAP1 PUSH2 0x13C SWAP2 SWAP1 PUSH2 0x9F4 JUMP JUMPDEST PUSH2 0x2DB JUMP JUMPDEST STOP JUMPDEST CALLVALUE DUP1 ISZERO PUSH2 0x14F JUMPI PUSH1 0x0 DUP1 REVERT JUMPDEST POP PUSH2 0x16A PUSH1 0x4 DUP1 CALLDATASIZE SUB DUP2 ADD SWAP1 PUSH2 0x165 SWAP2 SWAP1 PUSH2 0x84B JUMP JUMPDEST PUSH2 0x355 JUMP JUMPDEST STOP JUMPDEST CALLVALUE DUP1 ISZERO PUSH2 0x178 JUMPI PUSH1 0x0 DUP1 REVERT JUMPDEST POP PUSH2 0x181 PUSH2 0x3E0 JUMP JUMPDEST PUSH1 0x40 MLOAD PUSH2 0x18E SWAP2 SWAP1 PUSH2 0xADE JUMP JUMPDEST PUSH1 0x40 MLOAD DUP1 SWAP2 SUB SWAP1 RETURN JUMPDEST CALLVALUE DUP1 ISZERO PUSH2 0x1A3 JUMPI PUSH1 0x0 DUP1 REVERT JUMPDEST POP PUSH2 0x1AC PUSH2 0x437 JUMP JUMPDEST PUSH1 0x40 MLOAD PUSH2 0x1B9 SWAP2 SWAP1 PUSH2 0xB08 JUMP JUMPDEST PUSH1 0x40 MLOAD DUP1 SWAP2 SUB SWAP1 RETURN JUMPDEST CALLVALUE DUP1 ISZERO PUSH2 0x1CE JUMPI PUSH1 0x0 DUP1 REVERT JUMPDEST POP PUSH2 0x1E9 PUSH1 0x4 DUP1 CALLDATASIZE SUB DUP2 ADD SWAP1 PUSH2 0x1E4 SWAP2 SWAP1 PUSH2 0xB23 JUMP JUMPDEST PUSH2 0x45B JUMP JUMPDEST STOP JUMPDEST CALLVALUE DUP1 ISZERO PUSH2 0x1F7 JUMPI PUSH1 0x0 DUP1 REVERT JUMPDEST POP PUSH2 0x212 PUSH1 0x4 DUP1 CALLDATASIZE SUB DUP2 ADD SWAP1 PUSH2 0x20D SWAP2 SWAP1 PUSH2 0x84B JUMP JUMPDEST PUSH2 0x55A JUMP JUMPDEST PUSH1 0x40 MLOAD PUSH2 0x21F SWAP2 SWAP1 PUSH2 0xB7B JUMP JUMPDEST PUSH1 0x40 MLOAD DUP1 SWAP2 SUB SWAP1 RETURN JUMPDEST CALLVALUE DUP1 ISZERO PUSH2 0x234 JUMPI PUSH1 0x0 DUP1 REVERT JUMPDEST POP PUSH2 0x24F PUSH1 0x4 DUP1 CALLDATASIZE SUB DUP2 ADD SWAP1 PUSH2 0x24A SWAP2 SWAP1 PUSH2 0xB96 JUMP JUMPDEST PUSH2 0x572 JUMP JUMPDEST STOP JUMPDEST PUSH2 0x259 PUSH2 0x3E0 JUMP JUMPDEST PUSH2 0x298 JUMPI PUSH1 0x40 MLOAD PUSH32 0x8C379A000000000000000000000000000000000000000000000000000000000 DUP2 MSTORE PUSH1 0x4 ADD PUSH2 0x28F SWAP1 PUSH2 0xC4F JUMP JUMPDEST PUSH1 0x40 MLOAD DUP1 SWAP2 SUB SWAP1 REVERT JUMPDEST DUP1 PUSH1 0x0 DUP1 PUSH2 0x100 EXP DUP2 SLOAD DUP2 PUSH20 0xFFFFFFFFFFFFFFFFFFFFFFFFFFFFFFFFFFFFFFFF MUL NOT AND SWAP1 DUP4 PUSH20 0xFFFFFFFFFFFFFFFFFFFFFFFFFFFFFFFFFFFFFFFF AND MUL OR SWAP1 SSTORE POP POP JUMP JUMPDEST PUSH1 0x1 ISZERO ISZERO PUSH1 0x1 DUP3 PUSH1 0x40 MLOAD PUSH2 0x2EF SWAP2 SWAP1 PUSH2 0xCDE JUMP JUMPDEST SWAP1 DUP2 MSTORE PUSH1 0x20 ADD PUSH1 0x40 MLOAD DUP1 SWAP2 SUB SWAP1 KECCAK256 PUSH1 0x0 SWAP1 SLOAD SWAP1 PUSH2 0x100 EXP SWAP1 DIV PUSH1 0xFF AND ISZERO ISZERO EQ PUSH2 0x317 JUMPI PUSH1 0x0 DUP1 REVERT JUMPDEST PUSH1 0x0 PUSH1 0x1 DUP3 PUSH1 0x40 MLOAD PUSH2 0x329 SWAP2 SWAP1 PUSH2 0xCDE JUMP JUMPDEST SWAP1 DUP2 MSTORE PUSH1 0x20 ADD PUSH1 0x40 MLOAD DUP1 SWAP2 SUB SWAP1 KECCAK256 PUSH1 0x0 PUSH2 0x100 EXP DUP2 SLOAD DUP2 PUSH1 0xFF MUL NOT AND SWAP1 DUP4 ISZERO ISZERO MUL OR SWAP1 SSTORE POP POP POP POP POP POP JUMP JUMPDEST PUSH2 0x35D PUSH2 0x3E0 JUMP JUMPDEST PUSH2 0x39C JUMPI PUSH1 0x40 MLOAD PUSH32 0x8C379A000000000000000000000000000000000000000000000000000000000 DUP2 MSTORE PUSH1 0x4 ADD PUSH2 0x393 SWAP1 PUSH2 0xC4F JUMP JUMPDEST PUSH1 0x40 MLOAD DUP1 SWAP2 SUB SWAP1 REVERT JUMPDEST DUP1 PUSH1 0x3 PUSH1 0x0 PUSH2 0x100 EXP DUP2 SLOAD DUP2 PUSH20 0xFFFFFFFFFFFFFFFFFFFFFFFFFFFFFFFFFFFFFFFF MUL NOT AND SWAP1 DUP4 PUSH20 0xFFFFFFFFFFFFFFFFFFFFFFFFFFFFFFFFFFFFFFFF AND MUL OR SWAP1 SSTORE POP POP JUMP JUMPDEST PUSH1 0x0 DUP1 PUSH1 0x0 SWAP1 SLOAD SWAP1 PUSH2 0x100 EXP SWAP1 DIV PUSH20 0xFFFFFFFFFFFFFFFFFFFFFFFFFFFFFFFFFFFFFFFF AND PUSH20 0xFFFFFFFFFFFFFFFFFFFFFFFFFFFFFFFFFFFFFFFF AND CALLER PUSH20 0xFFFFFFFFFFFFFFFFFFFFFFFFFFFFFFFFFFFFFFFF AND EQ SWAP1 POP SWAP1 JUMP JUMPDEST PUSH1 0x0 DUP1 SLOAD SWAP1 PUSH2 0x100 EXP SWAP1 DIV PUSH20 0xFFFFFFFFFFFFFFFFFFFFFFFFFFFFFFFFFFFFFFFF AND DUP2 JUMP JUMPDEST PUSH1 0x3 PUSH1 0x0 SWAP1 SLOAD SWAP1 PUSH2 0x100 EXP SWAP1 DIV PUSH20 0xFFFFFFFFFFFFFFFFFFFFFFFFFFFFFFFFFFFFFFFF AND PUSH20 0xFFFFFFFFFFFFFFFFFFFFFFFFFFFFFFFFFFFFFFFF AND CALLER PUSH20 0xFFFFFFFFFFFFFFFFFFFFFFFFFFFFFFFFFFFFFFFF AND EQ PUSH2 0x4B5 JUMPI PUSH1 0x0 DUP1 REVERT JUMPDEST PUSH1 0x1 DUP1 DUP3 PUSH1 0x40 MLOAD PUSH2 0x4C6 SWAP2 SWAP1 PUSH2 0xCDE JUMP JUMPDEST SWAP1 DUP2 MSTORE PUSH1 0x20 ADD PUSH1 0x40 MLOAD DUP1 SWAP2 SUB SWAP1 KECCAK256 PUSH1 0x0 PUSH2 0x100 EXP DUP2 SLOAD DUP2 PUSH1 0xFF MUL NOT AND SWAP1 DUP4 ISZERO ISZERO MUL OR SWAP1 SSTORE POP PUSH1 0x1 DUP2 PUSH1 0x40 MLOAD PUSH2 0x4FB SWAP2 SWAP1 PUSH2 0xCDE JUMP JUMPDEST SWAP1 DUP2 MSTORE PUSH1 0x20 ADD PUSH1 0x40 MLOAD DUP1 SWAP2 SUB SWAP1 KECCAK256 PUSH1 0x0 SWAP1 SLOAD SWAP1 PUSH2 0x100 EXP SWAP1 DIV PUSH1 0xFF AND PUSH2 0x520 JUMPI PUSH1 0x0 DUP1 REVERT JUMPDEST PUSH1 0x1 PUSH1 0x2 DUP3 PUSH1 0x40 MLOAD PUSH2 0x532 SWAP2 SWAP1 PUSH2 0xCDE JUMP JUMPDEST SWAP1 DUP2 MSTORE PUSH1 0x20 ADD PUSH1 0x40 MLOAD DUP1 SWAP2 SUB SWAP1 KECCAK256 PUSH1 0x0 PUSH2 0x100 EXP DUP2 SLOAD DUP2 PUSH1 0xFF MUL NOT AND SWAP1 DUP4 ISZERO ISZERO MUL OR SWAP1 SSTORE POP POP JUMP JUMPDEST PUSH1 0x5 PUSH1 0x20 MSTORE DUP1 PUSH1 0x0 MSTORE PUSH1 0x40 PUSH1 0x0 KECCAK256 PUSH1 0x0 SWAP2 POP SWAP1 POP SLOAD DUP2 JUMP JUMPDEST PUSH1 0x3 PUSH1 0x0 SWAP1 SLOAD SWAP1 PUSH2 0x100 EXP SWAP1 DIV PUSH20 0xFFFFFFFFFFFFFFFFFFFFFFFFFFFFFFFFFFFFFFFF AND PUSH20 0xFFFFFFFFFFFFFFFFFFFFFFFFFFFFFFFFFFFFFFFF AND CALLER PUSH20 0xFFFFFFFFFFFFFFFFFFFFFFFFFFFFFFFFFFFFFFFF AND EQ PUSH2 0x5CC JUMPI PUSH1 0x0 DUP1 REVERT JUMPDEST PUSH1 0x1 DUP1 DUP4 PUSH1 0x40 MLOAD PUSH2 0x5DD SWAP2 SWAP1 PUSH2 0xCDE JUMP JUMPDEST SWAP1 DUP2 MSTORE PUSH1 0x20 ADD PUSH1 0x40 MLOAD DUP1 SWAP2 SUB SWAP1 KECCAK256 PUSH1 0x0 PUSH2 0x100 EXP DUP2 SLOAD DUP2 PUSH1 0xFF MUL NOT AND SWAP1 DUP4 ISZERO ISZERO MUL OR SWAP1 SSTORE POP PUSH1 0x1 DUP3 PUSH1 0x40 MLOAD PUSH2 0x612 SWAP2 SWAP1 PUSH2 0xCDE JUMP JUMPDEST SWAP1 DUP2 MSTORE PUSH1 0x20 ADD PUSH1 0x40 MLOAD DUP1 SWAP2 SUB SWAP1 KECCAK256 PUSH1 0x0 SWAP1 SLOAD SWAP1 PUSH2 0x100 EXP SWAP1 DIV PUSH1 0xFF AND PUSH2 0x637 JUMPI PUSH1 0x0 DUP1 REVERT JUMPDEST PUSH1 0x1 PUSH1 0x2 DUP4 PUSH1 0x40 MLOAD PUSH2 0x649 SWAP2 SWAP1 PUSH2 0xCDE JUMP JUMPDEST SWAP1 DUP2 MSTORE PUSH1 0x20 ADD PUSH1 0x40 MLOAD DUP1 SWAP2 SUB SWAP1 KECCAK256 PUSH1 0x0 PUSH2 0x100 EXP DUP2 SLOAD DUP2 PUSH1 0xFF MUL NOT AND SWAP1 DUP4 ISZERO ISZERO MUL OR SWAP1 SSTORE POP DUP2 PUSH1 0x4 PUSH1 0x0 DUP4 PUSH20 0xFFFFFFFFFFFFFFFFFFFFFFFFFFFFFFFFFFFFFFFF AND PUSH20 0xFFFFFFFFFFFFFFFFFFFFFFFFFFFFFFFFFFFFFFFF AND DUP2 MSTORE PUSH1 0x20 ADD SWAP1 DUP2 MSTORE PUSH1 0x20 ADD PUSH1 0x0 KECCAK256 SWAP1 DUP2 PUSH2 0x6BA SWAP2 SWAP1 PUSH2 0xE8C JUMP JUMPDEST POP POP POP JUMP JUMPDEST PUSH32 0x4E487B7100000000000000000000000000000000000000000000000000000000 PUSH1 0x0 MSTORE PUSH1 0x22 PUSH1 0x4 MSTORE PUSH1 0x24 PUSH1 0x0 REVERT JUMPDEST PUSH1 0x0 PUSH1 0x2 DUP3 DIV SWAP1 POP PUSH1 0x1 DUP3 AND DUP1 PUSH2 0x706 JUMPI PUSH1 0x7F DUP3 AND SWAP2 POP JUMPDEST PUSH1 0x20 DUP3 LT DUP2 SUB PUSH2 0x719 JUMPI PUSH2 0x718 PUSH2 0x6BF JUMP JUMPDEST JUMPDEST POP SWAP2 SWAP1 POP JUMP JUMPDEST PUSH1 0x0 DUP2 SWAP1 POP SWAP3 SWAP2 POP POP JUMP JUMPDEST PUSH1 0x0 DUP2 SWAP1 POP DUP2 PUSH1 0x0 MSTORE PUSH1 0x20 PUSH1 0x0 KECCAK256 SWAP1 POP SWAP2 SWAP1 POP JUMP JUMPDEST PUSH1 0x0 DUP2 SLOAD PUSH2 0x74C DUP2 PUSH2 0x6EE JUMP JUMPDEST PUSH2 0x756 DUP2 DUP7 PUSH2 0x71F JUMP JUMPDEST SWAP5 POP PUSH1 0x1 DUP3 AND PUSH1 0x0 DUP2 EQ PUSH2 0x771 JUMPI PUSH1 0x1 DUP2 EQ PUSH2 0x786 JUMPI PUSH2 0x7B9 JUMP JUMPDEST PUSH1 0xFF NOT DUP4 AND DUP7 MSTORE DUP2 ISZERO ISZERO DUP3 MUL DUP7 ADD SWAP4 POP PUSH2 0x7B9 JUMP JUMPDEST PUSH2 0x78F DUP6 PUSH2 0x72A JUMP JUMPDEST PUSH1 0x0 JUMPDEST DUP4 DUP2 LT ISZERO PUSH2 0x7B1 JUMPI DUP2 SLOAD DUP2 DUP10 ADD MSTORE PUSH1 0x1 DUP3 ADD SWAP2 POP PUSH1 0x20 DUP2 ADD SWAP1 POP PUSH2 0x792 JUMP JUMPDEST DUP4 DUP9 ADD SWAP6 POP POP POP JUMPDEST POP POP POP SWAP3 SWAP2 POP POP JUMP JUMPDEST PUSH1 0x0 PUSH2 0x7CE DUP3 DUP5 PUSH2 0x73F JUMP JUMPDEST SWAP2 POP DUP2 SWAP1 POP SWAP3 SWAP2 POP POP JUMP JUMPDEST PUSH1 0x0 PUSH1 0x40 MLOAD SWAP1 POP SWAP1 JUMP JUMPDEST PUSH1 0x0 DUP1 REVERT JUMPDEST PUSH1 0x0 DUP1 REVERT JUMPDEST PUSH1 0x0 PUSH20 0xFFFFFFFFFFFFFFFFFFFFFFFFFFFFFFFFFFFFFFFF DUP3 AND SWAP1 POP SWAP2 SWAP1 POP JUMP JUMPDEST PUSH1 0x0 PUSH2 0x818 DUP3 PUSH2 0x7ED JUMP JUMPDEST SWAP1 POP SWAP2 SWAP1 POP JUMP JUMPDEST PUSH2 0x828 DUP2 PUSH2 0x80D JUMP JUMPDEST DUP2 EQ PUSH2 0x833 JUMPI PUSH1 0x0 DUP1 REVERT JUMPDEST POP JUMP JUMPDEST PUSH1 0x0 DUP2 CALLDATALOAD SWAP1 POP PUSH2 0x845 DUP2 PUSH2 0x81F JUMP JUMPDEST SWAP3 SWAP2 POP POP JUMP JUMPDEST PUSH1 0x0 PUSH1 0x20 DUP3 DUP5 SUB SLT ISZERO PUSH2 0x861 JUMPI PUSH2 0x860 PUSH2 0x7E3 JUMP JUMPDEST JUMPDEST PUSH1 0x0 PUSH2 0x86F DUP5 DUP3 DUP6 ADD PUSH2 0x836 JUMP JUMPDEST SWAP2 POP POP SWAP3 SWAP2 POP POP JUMP JUMPDEST PUSH1 0x0 DUP1 REVERT JUMPDEST PUSH1 0x0 DUP1 REVERT JUMPDEST PUSH1 0x0 PUSH1 0x1F NOT PUSH1 0x1F DUP4 ADD AND SWAP1 POP SWAP2 SWAP1 POP JUMP JUMPDEST PUSH32 0x4E487B7100000000000000000000000000000000000000000000000000000000 PUSH1 0x0 MSTORE PUSH1 0x41 PUSH1 0x4 MSTORE PUSH1 0x24 PUSH1 0x0 REVERT JUMPDEST PUSH2 0x8CB DUP3 PUSH2 0x882 JUMP JUMPDEST DUP2 ADD DUP2 DUP2 LT PUSH8 0xFFFFFFFFFFFFFFFF DUP3 GT OR ISZERO PUSH2 0x8EA JUMPI PUSH2 0x8E9 PUSH2 0x893 JUMP JUMPDEST JUMPDEST DUP1 PUSH1 0x40 MSTORE POP POP POP JUMP JUMPDEST PUSH1 0x0 PUSH2 0x8FD PUSH2 0x7D9 JUMP JUMPDEST SWAP1 POP PUSH2 0x909 DUP3 DUP3 PUSH2 0x8C2 JUMP JUMPDEST SWAP2 SWAP1 POP JUMP JUMPDEST PUSH1 0x0 PUSH8 0xFFFFFFFFFFFFFFFF DUP3 GT ISZERO PUSH2 0x929 JUMPI PUSH2 0x928 PUSH2 0x893 JUMP JUMPDEST JUMPDEST PUSH2 0x932 DUP3 PUSH2 0x882 JUMP JUMPDEST SWAP1 POP PUSH1 0x20 DUP2 ADD SWAP1 POP SWAP2 SWAP1 POP JUMP JUMPDEST DUP3 DUP2 DUP4 CALLDATACOPY PUSH1 0x0 DUP4 DUP4 ADD MSTORE POP POP POP JUMP JUMPDEST PUSH1 0x0 PUSH2 0x961 PUSH2 0x95C DUP5 PUSH2 0x90E JUMP JUMPDEST PUSH2 0x8F3 JUMP JUMPDEST SWAP1 POP DUP3 DUP2 MSTORE PUSH1 0x20 DUP2 ADD DUP5 DUP5 DUP5 ADD GT ISZERO PUSH2 0x97D JUMPI PUSH2 0x97C PUSH2 0x87D JUMP JUMPDEST JUMPDEST PUSH2 0x988 DUP5 DUP3 DUP6 PUSH2 0x93F JUMP JUMPDEST POP SWAP4 SWAP3 POP POP POP JUMP JUMPDEST PUSH1 0x0 DUP3 PUSH1 0x1F DUP4 ADD SLT PUSH2 0x9A5 JUMPI PUSH2 0x9A4 PUSH2 0x878 JUMP JUMPDEST JUMPDEST DUP2 CALLDATALOAD PUSH2 0x9B5 DUP5 DUP3 PUSH1 0x20 DUP7 ADD PUSH2 0x94E JUMP JUMPDEST SWAP2 POP POP SWAP3 SWAP2 POP POP JUMP JUMPDEST PUSH1 0x0 DUP2 SWAP1 POP SWAP2 SWAP1 POP JUMP JUMPDEST PUSH2 0x9D1 DUP2 PUSH2 0x9BE JUMP JUMPDEST DUP2 EQ PUSH2 0x9DC JUMPI PUSH1 0x0 DUP1 REVERT JUMPDEST POP JUMP JUMPDEST PUSH1 0x0 DUP2 CALLDATALOAD SWAP1 POP PUSH2 0x9EE DUP2 PUSH2 0x9C8 JUMP JUMPDEST SWAP3 SWAP2 POP POP JUMP JUMPDEST PUSH1 0x0 DUP1 PUSH1 0x0 DUP1 PUSH1 0x0 PUSH1 0xA0 DUP7 DUP9 SUB SLT ISZERO PUSH2 0xA10 JUMPI PUSH2 0xA0F PUSH2 0x7E3 JUMP JUMPDEST JUMPDEST PUSH1 0x0 DUP7 ADD CALLDATALOAD PUSH8 0xFFFFFFFFFFFFFFFF DUP2 GT ISZERO PUSH2 0xA2E JUMPI PUSH2 0xA2D PUSH2 0x7E8 JUMP JUMPDEST JUMPDEST PUSH2 0xA3A DUP9 DUP3 DUP10 ADD PUSH2 0x990 JUMP JUMPDEST SWAP6 POP POP PUSH1 0x20 DUP7 ADD CALLDATALOAD PUSH8 0xFFFFFFFFFFFFFFFF DUP2 GT ISZERO PUSH2 0xA5B JUMPI PUSH2 0xA5A PUSH2 0x7E8 JUMP JUMPDEST JUMPDEST PUSH2 0xA67 DUP9 DUP3 DUP10 ADD PUSH2 0x990 JUMP JUMPDEST SWAP5 POP POP PUSH1 0x40 PUSH2 0xA78 DUP9 DUP3 DUP10 ADD PUSH2 0x9DF JUMP JUMPDEST SWAP4 POP POP PUSH1 0x60 PUSH2 0xA89 DUP9 DUP3 DUP10 ADD PUSH2 0x9DF JUMP JUMPDEST SWAP3 POP POP PUSH1 0x80 DUP7 ADD CALLDATALOAD PUSH8 0xFFFFFFFFFFFFFFFF DUP2 GT ISZERO PUSH2 0xAAA JUMPI PUSH2 0xAA9 PUSH2 0x7E8 JUMP JUMPDEST JUMPDEST PUSH2 0xAB6 DUP9 DUP3 DUP10 ADD PUSH2 0x990 JUMP JUMPDEST SWAP2 POP POP SWAP3 SWAP6 POP SWAP3 SWAP6 SWAP1 SWAP4 POP JUMP JUMPDEST PUSH1 0x0 DUP2 ISZERO ISZERO SWAP1 POP SWAP2 SWAP1 POP JUMP JUMPDEST PUSH2 0xAD8 DUP2 PUSH2 0xAC3 JUMP JUMPDEST DUP3 MSTORE POP POP JUMP JUMPDEST PUSH1 0x0 PUSH1 0x20 DUP3 ADD SWAP1 POP PUSH2 0xAF3 PUSH1 0x0 DUP4 ADD DUP5 PUSH2 0xACF JUMP JUMPDEST SWAP3 SWAP2 POP POP JUMP JUMPDEST PUSH2 0xB02 DUP2 PUSH2 0x80D JUMP JUMPDEST DUP3 MSTORE POP POP JUMP JUMPDEST PUSH1 0x0 PUSH1 0x20 DUP3 ADD SWAP1 POP PUSH2 0xB1D PUSH1 0x0 DUP4 ADD DUP5 PUSH2 0xAF9 JUMP JUMPDEST SWAP3 SWAP2 POP POP JUMP JUMPDEST PUSH1 0x0 PUSH1 0x20 DUP3 DUP5 SUB SLT ISZERO PUSH2 0xB39 JUMPI PUSH2 0xB38 PUSH2 0x7E3 JUMP JUMPDEST JUMPDEST PUSH1 0x0 DUP3 ADD CALLDATALOAD PUSH8 0xFFFFFFFFFFFFFFFF DUP2 GT ISZERO PUSH2 0xB57 JUMPI PUSH2 0xB56 PUSH2 0x7E8 JUMP JUMPDEST JUMPDEST PUSH2 0xB63 DUP5 DUP3 DUP6 ADD PUSH2 0x990 JUMP JUMPDEST SWAP2 POP POP SWAP3 SWAP2 POP POP JUMP JUMPDEST PUSH2 0xB75 DUP2 PUSH2 0x9BE JUMP JUMPDEST DUP3 MSTORE POP POP JUMP JUMPDEST PUSH1 0x0 PUSH1 0x20 DUP3 ADD SWAP1 POP PUSH2 0xB90 PUSH1 0x0 DUP4 ADD DUP5 PUSH2 0xB6C JUMP JUMPDEST SWAP3 SWAP2 POP POP JUMP JUMPDEST PUSH1 0x0 DUP1 PUSH1 0x40 DUP4 DUP6 SUB SLT ISZERO PUSH2 0xBAD JUMPI PUSH2 0xBAC PUSH2 0x7E3 JUMP JUMPDEST JUMPDEST PUSH1 0x0 DUP4 ADD CALLDATALOAD PUSH8 0xFFFFFFFFFFFFFFFF DUP2 GT ISZERO PUSH2 0xBCB JUMPI PUSH2 0xBCA PUSH2 0x7E8 JUMP JUMPDEST JUMPDEST PUSH2 0xBD7 DUP6 DUP3 DUP7 ADD PUSH2 0x990 JUMP JUMPDEST SWAP3 POP POP PUSH1 0x20 PUSH2 0xBE8 DUP6 DUP3 DUP7 ADD PUSH2 0x836 JUMP JUMPDEST SWAP2 POP POP SWAP3 POP SWAP3 SWAP1 POP JUMP JUMPDEST PUSH1 0x0 DUP3 DUP3 MSTORE PUSH1 0x20 DUP3 ADD SWAP1 POP SWAP3 SWAP2 POP POP JUMP JUMPDEST PUSH32 0x4F776E61626C653A2063616C6C6572206973206E6F7420746865206F776E6572 PUSH1 0x0 DUP3 ADD MSTORE POP JUMP JUMPDEST PUSH1 0x0 PUSH2 0xC39 PUSH1 0x20 DUP4 PUSH2 0xBF2 JUMP JUMPDEST SWAP2 POP PUSH2 0xC44 DUP3 PUSH2 0xC03 JUMP JUMPDEST PUSH1 0x20 DUP3 ADD SWAP1 POP SWAP2 SWAP1 POP JUMP JUMPDEST PUSH1 0x0 PUSH1 0x20 DUP3 ADD SWAP1 POP DUP2 DUP2 SUB PUSH1 0x0 DUP4 ADD MSTORE PUSH2 0xC68 DUP2 PUSH2 0xC2C JUMP JUMPDEST SWAP1 POP SWAP2 SWAP1 POP JUMP JUMPDEST PUSH1 0x0 DUP2 MLOAD SWAP1 POP SWAP2 SWAP1 POP JUMP JUMPDEST PUSH1 0x0 JUMPDEST DUP4 DUP2 LT ISZERO PUSH2 0xC98 JUMPI DUP1 DUP3 ADD MLOAD DUP2 DUP5 ADD MSTORE PUSH1 0x20 DUP2 ADD SWAP1 POP PUSH2 0xC7D JUMP JUMPDEST DUP4 DUP2 GT ISZERO PUSH2 0xCA7 JUMPI PUSH1 0x0 DUP5 DUP5 ADD MSTORE JUMPDEST POP POP POP POP JUMP JUMPDEST PUSH1 0x0 PUSH2 0xCB8 DUP3 PUSH2 0xC6F JUMP JUMPDEST PUSH2 0xCC2 DUP2 DUP6 PUSH2 0x71F JUMP JUMPDEST SWAP4 POP PUSH2 0xCD2 DUP2 DUP6 PUSH1 0x20 DUP7 ADD PUSH2 0xC7A JUMP JUMPDEST DUP1 DUP5 ADD SWAP2 POP POP SWAP3 SWAP2 POP POP JUMP JUMPDEST PUSH1 0x0 PUSH2 0xCEA DUP3 DUP5 PUSH2 0xCAD JUMP JUMPDEST SWAP2 POP DUP2 SWAP1 POP SWAP3 SWAP2 POP POP JUMP JUMPDEST PUSH1 0x0 PUSH1 0x20 PUSH1 0x1F DUP4 ADD DIV SWAP1 POP SWAP2 SWAP1 POP JUMP JUMPDEST PUSH1 0x0 DUP3 DUP3 SHL SWAP1 POP SWAP3 SWAP2 POP POP JUMP JUMPDEST PUSH1 0x0 PUSH1 0x8 DUP4 MUL PUSH2 0xD42 PUSH32 0xFFFFFFFFFFFFFFFFFFFFFFFFFFFFFFFFFFFFFFFFFFFFFFFFFFFFFFFFFFFFFFFF DUP3 PUSH2 0xD05 JUMP JUMPDEST PUSH2 0xD4C DUP7 DUP4 PUSH2 0xD05 JUMP JUMPDEST SWAP6 POP DUP1 NOT DUP5 AND SWAP4 POP DUP1 DUP7 AND DUP5 OR SWAP3 POP POP POP SWAP4 SWAP3 POP POP POP JUMP JUMPDEST PUSH1 0x0 DUP2 SWAP1 POP SWAP2 SWAP1 POP JUMP JUMPDEST PUSH1 0x0 PUSH2 0xD89 PUSH2 0xD84 PUSH2 0xD7F DUP5 PUSH2 0x9BE JUMP JUMPDEST PUSH2 0xD64 JUMP JUMPDEST PUSH2 0x9BE JUMP JUMPDEST SWAP1 POP SWAP2 SWAP1 POP JUMP JUMPDEST PUSH1 0x0 DUP2 SWAP1 POP SWAP2 SWAP1 POP JUMP JUMPDEST PUSH2 0xDA3 DUP4 PUSH2 0xD6E JUMP JUMPDEST PUSH2 0xDB7 PUSH2 0xDAF DUP3 PUSH2 0xD90 JUMP JUMPDEST DUP5 DUP5 SLOAD PUSH2 0xD12 JUMP JUMPDEST DUP3 SSTORE POP POP POP POP JUMP JUMPDEST PUSH1 0x0 SWAP1 JUMP JUMPDEST PUSH2 0xDCC PUSH2 0xDBF JUMP JUMPDEST PUSH2 0xDD7 DUP2 DUP5 DUP5 PUSH2 0xD9A JUMP JUMPDEST POP POP POP JUMP JUMPDEST JUMPDEST DUP2 DUP2 LT ISZERO PUSH2 0xDFB JUMPI PUSH2 0xDF0 PUSH1 0x0 DUP3 PUSH2 0xDC4 JUMP JUMPDEST PUSH1 0x1 DUP2 ADD SWAP1 POP PUSH2 0xDDD JUMP JUMPDEST POP POP JUMP JUMPDEST PUSH1 0x1F DUP3 GT ISZERO PUSH2 0xE40 JUMPI PUSH2 0xE11 DUP2 PUSH2 0x72A JUMP JUMPDEST PUSH2 0xE1A DUP5 PUSH2 0xCF5 JUMP JUMPDEST DUP2 ADD PUSH1 0x20 DUP6 LT ISZERO PUSH2 0xE29 JUMPI DUP2 SWAP1 POP JUMPDEST PUSH2 0xE3D PUSH2 0xE35 DUP6 PUSH2 0xCF5 JUMP JUMPDEST DUP4 ADD DUP3 PUSH2 0xDDC JUMP JUMPDEST POP POP JUMPDEST POP POP POP JUMP JUMPDEST PUSH1 0x0 DUP3 DUP3 SHR SWAP1 POP SWAP3 SWAP2 POP POP JUMP JUMPDEST PUSH1 0x0 PUSH2 0xE63 PUSH1 0x0 NOT DUP5 PUSH1 0x8 MUL PUSH2 0xE45 JUMP JUMPDEST NOT DUP1 DUP4 AND SWAP2 POP POP SWAP3 SWAP2 POP POP JUMP JUMPDEST PUSH1 0x0 PUSH2 0xE7C DUP4 DUP4 PUSH2 0xE52 JUMP JUMPDEST SWAP2 POP DUP3 PUSH1 0x2 MUL DUP3 OR SWAP1 POP SWAP3 SWAP2 POP POP JUMP JUMPDEST PUSH2 0xE95 DUP3 PUSH2 0xC6F JUMP JUMPDEST PUSH8 0xFFFFFFFFFFFFFFFF DUP2 GT ISZERO PUSH2 0xEAE JUMPI PUSH2 0xEAD PUSH2 0x893 JUMP JUMPDEST JUMPDEST PUSH2 0xEB8 DUP3 SLOAD PUSH2 0x6EE JUMP JUMPDEST PUSH2 0xEC3 DUP3 DUP3 DUP6 PUSH2 0xDFF JUMP JUMPDEST PUSH1 0x0 PUSH1 0x20 SWAP1 POP PUSH1 0x1F DUP4 GT PUSH1 0x1 DUP2 EQ PUSH2 0xEF6 JUMPI PUSH1 0x0 DUP5 ISZERO PUSH2 0xEE4 JUMPI DUP3 DUP8 ADD MLOAD SWAP1 POP JUMPDEST PUSH2 0xEEE DUP6 DUP3 PUSH2 0xE70 JUMP JUMPDEST DUP7 SSTORE POP PUSH2 0xF56 JUMP JUMPDEST PUSH1 0x1F NOT DUP5 AND PUSH2 0xF04 DUP7 PUSH2 0x72A JUMP JUMPDEST PUSH1 0x0 JUMPDEST DUP3 DUP2 LT ISZERO PUSH2 0xF2C JUMPI DUP5 DUP10 ADD MLOAD DUP3 SSTORE PUSH1 0x1 DUP3 ADD SWAP2 POP PUSH1 0x20 DUP6 ADD SWAP5 POP PUSH1 0x20 DUP2 ADD SWAP1 POP PUSH2 0xF07 JUMP JUMPDEST DUP7 DUP4 LT ISZERO PUSH2 0xF49 JUMPI DUP5 DUP10 ADD MLOAD PUSH2 0xF45 PUSH1 0x1F DUP10 AND DUP3 PUSH2 0xE52 JUMP JUMPDEST DUP4 SSTORE POP JUMPDEST PUSH1 0x1 PUSH1 0x2 DUP9 MUL ADD DUP9 SSTORE POP POP POP JUMPDEST POP POP POP POP POP POP JUMP INVALID LOG2 PUSH5 0x6970667358 0x22 SLT KECCAK256 ADDMOD SWAP3 0xEF 0xA7 SWAP6 0xE6 0xCE SWAP11 0xD4 SIGNEXTEND 0xE8 0xFB CALLDATALOAD 0x22 0xF7 SLT SSTORE 0xAD 0xAB 0xB4 PUSH9 0x2DD1AACC6FE8EF777 SHL PUSH5 0x64736F6C63 NUMBER STOP ADDMOD 0xF STOP CALLER "
				},
				"gasEstimates": {
					"creation": {
						"codeDepositCost": "797600",
						"executionCost": "49363",
						"totalCost": "846963"
					},
					"external": {
						"_owner()": "2511",
						"isOwner()": "2563",
						"issueCertificate(string,string,uint256,uint256,string)": "infinite",
						"setAdmin(address)": "26972",
						"setOwner(address)": "26928",
						"stakedAmount(address)": "2858",
						"updateCertificateRecipient(string)": "infinite",
						"updateCertificateRecipientForStaking(string,address)": "infinite"
					}
				},
				"methodIdentifiers": {
					"_owner()": "b2bdfa7b",
					"isOwner()": "8f32d59b",
					"issueCertificate(string,string,uint256,uint256,string)": "3f59c657",
					"setAdmin(address)": "704b6c02",
					"setOwner(address)": "13af4035",
					"stakedAmount(address)": "f9931855",
					"updateCertificateRecipient(string)": "e9351558",
					"updateCertificateRecipientForStaking(string,address)": "fe49048a"
				}
			},
			"storageLayout": {
				"storage": [
					{
						"astId": 163,
						"contract": "certificateissuer.sol:Staking",
						"label": "_owner",
						"offset": 0,
						"slot": "0",
						"type": "t_address"
					},
					{
						"astId": 18,
						"contract": "certificateissuer.sol:Staking",
						"label": "cauthValid",
						"offset": 0,
						"slot": "1",
						"type": "t_mapping(t_string_memory_ptr,t_bool)"
					},
					{
						"astId": 22,
						"contract": "certificateissuer.sol:Staking",
						"label": "cauthToCanStake",
						"offset": 0,
						"slot": "2",
						"type": "t_mapping(t_string_memory_ptr,t_bool)"
					},
					{
						"astId": 24,
						"contract": "certificateissuer.sol:Staking",
						"label": "_admin",
						"offset": 0,
						"slot": "3",
						"type": "t_address"
					},
					{
						"astId": 28,
						"contract": "certificateissuer.sol:Staking",
						"label": "adressToCauth",
						"offset": 0,
						"slot": "4",
						"type": "t_mapping(t_address,t_string_storage)"
					},
					{
						"astId": 145,
						"contract": "certificateissuer.sol:Staking",
						"label": "stakedAmount",
						"offset": 0,
						"slot": "5",
						"type": "t_mapping(t_address,t_uint256)"
					}
				],
				"types": {
					"t_address": {
						"encoding": "inplace",
						"label": "address",
						"numberOfBytes": "20"
					},
					"t_bool": {
						"encoding": "inplace",
						"label": "bool",
						"numberOfBytes": "1"
					},
					"t_mapping(t_address,t_string_storage)": {
						"encoding": "mapping",
						"key": "t_address",
						"label": "mapping(address => string)",
						"numberOfBytes": "32",
						"value": "t_string_storage"
					},
					"t_mapping(t_address,t_uint256)": {
						"encoding": "mapping",
						"key": "t_address",
						"label": "mapping(address => uint256)",
						"numberOfBytes": "32",
						"value": "t_uint256"
					},
					"t_mapping(t_string_memory_ptr,t_bool)": {
						"encoding": "mapping",
						"key": "t_string_memory_ptr",
						"label": "mapping(string => bool)",
						"numberOfBytes": "32",
						"value": "t_bool"
					},
					"t_string_memory_ptr": {
						"encoding": "bytes",
						"label": "string",
						"numberOfBytes": "32"
					},
					"t_string_storage": {
						"encoding": "bytes",
						"label": "string",
						"numberOfBytes": "32"
					},
					"t_uint256": {
						"encoding": "inplace",
						"label": "uint256",
						"numberOfBytes": "32"
					}
				}
			},
			"userdoc": {
				"kind": "user",
				"methods": {},
				"version": 1
			}
		}
	}
}