{
	"certificateissuer.sol": {
		"CertificateIssuer": {
			"abi": [
				{
					"inputs": [],
					"stateMutability": "nonpayable",
					"type": "constructor"
				},
				{
					"anonymous": false,
					"inputs": [
						{
							"indexed": false,
							"internalType": "string",
							"name": "_name",
							"type": "string"
						},
						{
							"indexed": false,
							"internalType": "string",
							"name": "_courseTittle",
							"type": "string"
						},
						{
							"indexed": false,
							"internalType": "uint256",
							"name": "_duration",
							"type": "uint256"
						},
						{
							"indexed": false,
							"internalType": "uint256",
							"name": "institute",
							"type": "uint256"
						},
						{
							"indexed": false,
							"internalType": "string",
							"name": "cauth",
							"type": "string"
						}
					],
					"name": "certificateIssued",
					"type": "event"
				},
				{
					"anonymous": false,
					"inputs": [
						{
							"indexed": false,
							"internalType": "address",
							"name": "_studentAddress",
							"type": "address"
						},
						{
							"indexed": false,
							"internalType": "uint256",
							"name": "_amount",
							"type": "uint256"
						}
					],
					"name": "stakeReturned",
					"type": "event"
				},
				{
					"inputs": [],
					"name": "_owner",
					"outputs": [
						{
							"internalType": "address",
							"name": "",
							"type": "address"
						}
					],
					"stateMutability": "view",
					"type": "function"
				},
				{
					"inputs": [],
					"name": "isOwner",
					"outputs": [
						{
							"internalType": "bool",
							"name": "",
							"type": "bool"
						}
					],
					"stateMutability": "view",
					"type": "function"
				},
				{
					"inputs": [
						{
							"internalType": "string",
							"name": "_name",
							"type": "string"
						},
						{
							"internalType": "string",
							"name": "_courseTittle",
							"type": "string"
						},
						{
							"internalType": "uint256",
							"name": "_duration",
							"type": "uint256"
						},
						{
							"internalType": "uint256",
							"name": "institute",
							"type": "uint256"
						},
						{
							"internalType": "string",
							"name": "cauth",
							"type": "string"
						},
						{
							"internalType": "bool",
							"name": "_Expirable",
							"type": "bool"
						}
					],
					"name": "issueCertificate",
					"outputs": [],
					"stateMutability": "payable",
					"type": "function"
				},
				{
					"inputs": [
						{
							"internalType": "address",
							"name": "_studentAddress",
							"type": "address"
						}
					],
					"name": "returnStakedEther",
					"outputs": [],
					"stateMutability": "payable",
					"type": "function"
				},
				{
					"inputs": [
						{
							"internalType": "address",
							"name": "_adminParameter",
							"type": "address"
						}
					],
					"name": "setAdmin",
					"outputs": [],
					"stateMutability": "nonpayable",
					"type": "function"
				},
				{
					"inputs": [
						{
							"internalType": "address",
							"name": "_newOwner",
							"type": "address"
						}
					],
					"name": "setOwner",
					"outputs": [],
					"stateMutability": "nonpayable",
					"type": "function"
				},
				{
					"inputs": [
						{
							"internalType": "address",
							"name": "",
							"type": "address"
						}
					],
					"name": "stakedAmount",
					"outputs": [
						{
							"internalType": "uint256",
							"name": "",
							"type": "uint256"
						}
					],
					"stateMutability": "view",
					"type": "function"
				},
				{
					"inputs": [
						{
							"internalType": "string",
							"name": "cauth",
							"type": "string"
						}
					],
					"name": "updateCertificateRecipient",
					"outputs": [],
					"stateMutability": "nonpayable",
					"type": "function"
				},
				{
					"inputs": [
						{
							"internalType": "string",
							"name": "cauth",
							"type": "string"
						},
						{
							"internalType": "address",
							"name": "_staker",
							"type": "address"
						}
					],
					"name": "updateCertificateRecipientForStaking",
					"outputs": [],
					"stateMutability": "nonpayable",
					"type": "function"
				},
				{
					"stateMutability": "payable",
					"type": "receive"
				}
			],
			"devdoc": {
				"kind": "dev",
				"methods": {
					"isOwner()": {
						"details": "Returns true if the caller is the current owner."
					}
				},
				"version": 1
			},
			"evm": {
				"assembly": "    /* \"certificateissuer.sol\":89:3689  contract CertificateIssuer is Ownable{... */\n  mstore(0x40, 0x80)\n    /* \"certificateissuer.sol\":133:187  constructor (){... */\n  callvalue\n  dup1\n  iszero\n  tag_1\n  jumpi\n  0x00\n  dup1\n  revert\ntag_1:\n  pop\n    /* \"ownable.sol\":150:160  msg.sender */\n  caller\n    /* \"ownable.sol\":141:147  _owner */\n  0x00\n  dup1\n    /* \"ownable.sol\":141:160  _owner = msg.sender */\n  0x0100\n  exp\n  dup2\n  sload\n  dup2\n  0xffffffffffffffffffffffffffffffffffffffff\n  mul\n  not\n  and\n  swap1\n  dup4\n  0xffffffffffffffffffffffffffffffffffffffff\n  and\n  mul\n  or\n  swap1\n  sstore\n  pop\n    /* \"certificateissuer.sol\":167:177  msg.sender */\n  caller\n    /* \"certificateissuer.sol\":158:164  _admin */\n  0x04\n  0x00\n    /* \"certificateissuer.sol\":158:177  _admin = msg.sender */\n  0x0100\n  exp\n  dup2\n  sload\n  dup2\n  0xffffffffffffffffffffffffffffffffffffffff\n  mul\n  not\n  and\n  swap1\n  dup4\n  0xffffffffffffffffffffffffffffffffffffffff\n  and\n  mul\n  or\n  swap1\n  sstore\n  pop\n    /* \"certificateissuer.sol\":89:3689  contract CertificateIssuer is Ownable{... */\n  dataSize(sub_0)\n  dup1\n  dataOffset(sub_0)\n  0x00\n  codecopy\n  0x00\n  return\nstop\n\nsub_0: assembly {\n        /* \"certificateissuer.sol\":89:3689  contract CertificateIssuer is Ownable{... */\n      mstore(0x40, 0x80)\n      jumpi(tag_1, lt(calldatasize, 0x04))\n      shr(0xe0, calldataload(0x00))\n      dup1\n      0xb2bdfa7b\n      gt\n      tag_12\n      jumpi\n      dup1\n      0xb2bdfa7b\n      eq\n      tag_7\n      jumpi\n      dup1\n      0xe9351558\n      eq\n      tag_8\n      jumpi\n      dup1\n      0xe9e65331\n      eq\n      tag_9\n      jumpi\n      dup1\n      0xf9931855\n      eq\n      tag_10\n      jumpi\n      dup1\n      0xfe49048a\n      eq\n      tag_11\n      jumpi\n      jump(tag_2)\n    tag_12:\n      dup1\n      0x13af4035\n      eq\n      tag_3\n      jumpi\n      dup1\n      0x53368b1b\n      eq\n      tag_4\n      jumpi\n      dup1\n      0x704b6c02\n      eq\n      tag_5\n      jumpi\n      dup1\n      0x8f32d59b\n      eq\n      tag_6\n      jumpi\n      jump(tag_2)\n    tag_1:\n      jumpi(tag_2, calldatasize)\n        /* \"certificateissuer.sol\":3579:3594  cauthToCanStake */\n      0x02\n        /* \"certificateissuer.sol\":3595:3608  adressToCauth */\n      0x05\n        /* \"certificateissuer.sol\":3595:3620  adressToCauth[msg.sender] */\n      0x00\n        /* \"certificateissuer.sol\":3609:3619  msg.sender */\n      caller\n        /* \"certificateissuer.sol\":3595:3620  adressToCauth[msg.sender] */\n      0xffffffffffffffffffffffffffffffffffffffff\n      and\n      0xffffffffffffffffffffffffffffffffffffffff\n      and\n      dup2\n      mstore\n      0x20\n      add\n      swap1\n      dup2\n      mstore\n      0x20\n      add\n      0x00\n      keccak256\n        /* \"certificateissuer.sol\":3579:3621  cauthToCanStake[adressToCauth[msg.sender]] */\n      mload(0x40)\n      tag_15\n      swap2\n      swap1\n      tag_16\n      jump\t// in\n    tag_15:\n      swap1\n      dup2\n      mstore\n      0x20\n      add\n      mload(0x40)\n      dup1\n      swap2\n      sub\n      swap1\n      keccak256\n      0x00\n      swap1\n      sload\n      swap1\n      0x0100\n      exp\n      swap1\n      div\n      0xff\n      and\n        /* \"certificateissuer.sol\":3571:3622  require(cauthToCanStake[adressToCauth[msg.sender]]) */\n      tag_17\n      jumpi\n      0x00\n      dup1\n      revert\n    tag_17:\n        /* \"certificateissuer.sol\":3662:3671  msg.value */\n      callvalue\n        /* \"certificateissuer.sol\":3635:3647  stakedAmount */\n      0x06\n        /* \"certificateissuer.sol\":3635:3659  stakedAmount[msg.sender] */\n      0x00\n        /* \"certificateissuer.sol\":3648:3658  msg.sender */\n      caller\n        /* \"certificateissuer.sol\":3635:3659  stakedAmount[msg.sender] */\n      0xffffffffffffffffffffffffffffffffffffffff\n      and\n      0xffffffffffffffffffffffffffffffffffffffff\n      and\n      dup2\n      mstore\n      0x20\n      add\n      swap1\n      dup2\n      mstore\n      0x20\n      add\n      0x00\n      keccak256\n        /* \"certificateissuer.sol\":3635:3671  stakedAmount[msg.sender] = msg.value */\n      dup2\n      swap1\n      sstore\n      stop\n        /* \"certificateissuer.sol\":89:3689  contract CertificateIssuer is Ownable{... */\n    tag_2:\n      0x00\n      dup1\n      revert\n        /* \"ownable.sol\":551:643  function setOwner(address _newOwner) public onlyOwner {... */\n    tag_3:\n      callvalue\n      dup1\n      iszero\n      tag_18\n      jumpi\n      0x00\n      dup1\n      revert\n    tag_18:\n      pop\n      tag_19\n      0x04\n      dup1\n      calldatasize\n      sub\n      dup2\n      add\n      swap1\n      tag_20\n      swap2\n      swap1\n      tag_21\n      jump\t// in\n    tag_20:\n      tag_22\n      jump\t// in\n    tag_19:\n      stop\n        /* \"certificateissuer.sol\":2702:3429  function issueCertificate(string memory _name , string memory _courseTittle, uint _duration , uint institute,string memory cauth, bool _Expirable ) external payable  {... */\n    tag_4:\n      tag_23\n      0x04\n      dup1\n      calldatasize\n      sub\n      dup2\n      add\n      swap1\n      tag_24\n      swap2\n      swap1\n      tag_25\n      jump\t// in\n    tag_24:\n      tag_26\n      jump\t// in\n    tag_23:\n      stop\n        /* \"certificateissuer.sol\":799:903  function setAdmin(address _adminParameter) public onlyOwner{... */\n    tag_5:\n      callvalue\n      dup1\n      iszero\n      tag_27\n      jumpi\n      0x00\n      dup1\n      revert\n    tag_27:\n      pop\n      tag_28\n      0x04\n      dup1\n      calldatasize\n      sub\n      dup2\n      add\n      swap1\n      tag_29\n      swap2\n      swap1\n      tag_21\n      jump\t// in\n    tag_29:\n      tag_30\n      jump\t// in\n    tag_28:\n      stop\n        /* \"ownable.sol\":451:545  function isOwner() public view returns (bool) {... */\n    tag_6:\n      callvalue\n      dup1\n      iszero\n      tag_31\n      jumpi\n      0x00\n      dup1\n      revert\n    tag_31:\n      pop\n      tag_32\n      tag_33\n      jump\t// in\n    tag_32:\n      mload(0x40)\n      tag_34\n      swap2\n      swap1\n      tag_35\n      jump\t// in\n    tag_34:\n      mload(0x40)\n      dup1\n      swap2\n      sub\n      swap1\n      return\n        /* \"ownable.sol\":85:106  address public _owner */\n    tag_7:\n      callvalue\n      dup1\n      iszero\n      tag_36\n      jumpi\n      0x00\n      dup1\n      revert\n    tag_36:\n      pop\n      tag_37\n      tag_38\n      jump\t// in\n    tag_37:\n      mload(0x40)\n      tag_39\n      swap2\n      swap1\n      tag_40\n      jump\t// in\n    tag_39:\n      mload(0x40)\n      dup1\n      swap2\n      sub\n      swap1\n      return\n        /* \"certificateissuer.sol\":1940:2173  function updateCertificateRecipient(string memory cauth) public  {... */\n    tag_8:\n      callvalue\n      dup1\n      iszero\n      tag_41\n      jumpi\n      0x00\n      dup1\n      revert\n    tag_41:\n      pop\n      tag_42\n      0x04\n      dup1\n      calldatasize\n      sub\n      dup2\n      add\n      swap1\n      tag_43\n      swap2\n      swap1\n      tag_44\n      jump\t// in\n    tag_43:\n      tag_45\n      jump\t// in\n    tag_42:\n      stop\n        /* \"certificateissuer.sol\":3437:3521  function returnStakedEther(address _studentAddress) public payable{... */\n    tag_9:\n      tag_46\n      0x04\n      dup1\n      calldatasize\n      sub\n      dup2\n      add\n      swap1\n      tag_47\n      swap2\n      swap1\n      tag_21\n      jump\t// in\n    tag_47:\n      tag_48\n      jump\t// in\n    tag_46:\n      stop\n        /* \"certificateissuer.sol\":551:596  mapping(address =>  uint) public stakedAmount */\n    tag_10:\n      callvalue\n      dup1\n      iszero\n      tag_49\n      jumpi\n      0x00\n      dup1\n      revert\n    tag_49:\n      pop\n      tag_50\n      0x04\n      dup1\n      calldatasize\n      sub\n      dup2\n      add\n      swap1\n      tag_51\n      swap2\n      swap1\n      tag_21\n      jump\t// in\n    tag_51:\n      tag_52\n      jump\t// in\n    tag_50:\n      mload(0x40)\n      tag_53\n      swap2\n      swap1\n      tag_54\n      jump\t// in\n    tag_53:\n      mload(0x40)\n      dup1\n      swap2\n      sub\n      swap1\n      return\n        /* \"certificateissuer.sol\":2349:2694  function updateCertificateRecipientForStaking(string memory cauth,address _staker ) public   {... */\n    tag_11:\n      callvalue\n      dup1\n      iszero\n      tag_55\n      jumpi\n      0x00\n      dup1\n      revert\n    tag_55:\n      pop\n      tag_56\n      0x04\n      dup1\n      calldatasize\n      sub\n      dup2\n      add\n      swap1\n      tag_57\n      swap2\n      swap1\n      tag_58\n      jump\t// in\n    tag_57:\n      tag_59\n      jump\t// in\n    tag_56:\n      stop\n        /* \"ownable.sol\":551:643  function setOwner(address _newOwner) public onlyOwner {... */\n    tag_22:\n        /* \"ownable.sol\":299:308  isOwner() */\n      tag_61\n        /* \"ownable.sol\":299:306  isOwner */\n      tag_33\n        /* \"ownable.sol\":299:308  isOwner() */\n      jump\t// in\n    tag_61:\n        /* \"ownable.sol\":291:345  require(isOwner(), \"Ownable: caller is not the owner\") */\n      tag_62\n      jumpi\n      mload(0x40)\n      0x08c379a000000000000000000000000000000000000000000000000000000000\n      dup2\n      mstore\n      0x04\n      add\n      tag_63\n      swap1\n      tag_64\n      jump\t// in\n    tag_63:\n      mload(0x40)\n      dup1\n      swap2\n      sub\n      swap1\n      revert\n    tag_62:\n        /* \"ownable.sol\":625:634  _newOwner */\n      dup1\n        /* \"ownable.sol\":616:622  _owner */\n      0x00\n      dup1\n        /* \"ownable.sol\":616:634  _owner = _newOwner */\n      0x0100\n      exp\n      dup2\n      sload\n      dup2\n      0xffffffffffffffffffffffffffffffffffffffff\n      mul\n      not\n      and\n      swap1\n      dup4\n      0xffffffffffffffffffffffffffffffffffffffff\n      and\n      mul\n      or\n      swap1\n      sstore\n      pop\n        /* \"ownable.sol\":551:643  function setOwner(address _newOwner) public onlyOwner {... */\n      pop\n      jump\t// out\n        /* \"certificateissuer.sol\":2702:3429  function issueCertificate(string memory _name , string memory _courseTittle, uint _duration , uint institute,string memory cauth, bool _Expirable ) external payable  {... */\n    tag_26:\n        /* \"certificateissuer.sol\":2962:2966  true */\n      0x01\n        /* \"certificateissuer.sol\":2941:2966  cauthValid[cauth] == true */\n      iszero\n      iszero\n        /* \"certificateissuer.sol\":2941:2951  cauthValid */\n      0x01\n        /* \"certificateissuer.sol\":2952:2957  cauth */\n      dup4\n        /* \"certificateissuer.sol\":2941:2958  cauthValid[cauth] */\n      mload(0x40)\n      tag_67\n      swap2\n      swap1\n      tag_68\n      jump\t// in\n    tag_67:\n      swap1\n      dup2\n      mstore\n      0x20\n      add\n      mload(0x40)\n      dup1\n      swap2\n      sub\n      swap1\n      keccak256\n      0x00\n      swap1\n      sload\n      swap1\n      0x0100\n      exp\n      swap1\n      div\n      0xff\n      and\n        /* \"certificateissuer.sol\":2941:2966  cauthValid[cauth] == true */\n      iszero\n      iszero\n      eq\n        /* \"certificateissuer.sol\":2933:2967  require(cauthValid[cauth] == true) */\n      tag_69\n      jumpi\n      0x00\n      dup1\n      revert\n    tag_69:\n        /* \"certificateissuer.sol\":3031:3037  _admin */\n      0x04\n      0x00\n      swap1\n      sload\n      swap1\n      0x0100\n      exp\n      swap1\n      div\n      0xffffffffffffffffffffffffffffffffffffffff\n      and\n        /* \"certificateissuer.sol\":3017:3037  msg.sender == _admin */\n      0xffffffffffffffffffffffffffffffffffffffff\n      and\n        /* \"certificateissuer.sol\":3017:3027  msg.sender */\n      caller\n        /* \"certificateissuer.sol\":3017:3037  msg.sender == _admin */\n      0xffffffffffffffffffffffffffffffffffffffff\n      and\n      eq\n        /* \"certificateissuer.sol\":3009:3038  require(msg.sender == _admin) */\n      tag_70\n      jumpi\n      0x00\n      dup1\n      revert\n    tag_70:\n        /* \"certificateissuer.sol\":3083:3147  certificateIssued(_name,_courseTittle,_duration,institute,cauth) */\n      0x2ee35da94d6494eb515fd8f6fffdecd1d417dbae7e370cb1f77d709473e01d59\n        /* \"certificateissuer.sol\":3101:3106  _name */\n      dup7\n        /* \"certificateissuer.sol\":3107:3120  _courseTittle */\n      dup7\n        /* \"certificateissuer.sol\":3121:3130  _duration */\n      dup7\n        /* \"certificateissuer.sol\":3131:3140  institute */\n      dup7\n        /* \"certificateissuer.sol\":3141:3146  cauth */\n      dup7\n        /* \"certificateissuer.sol\":3083:3147  certificateIssued(_name,_courseTittle,_duration,institute,cauth) */\n      mload(0x40)\n      tag_71\n      swap6\n      swap5\n      swap4\n      swap3\n      swap2\n      swap1\n      tag_72\n      jump\t// in\n    tag_71:\n      mload(0x40)\n      dup1\n      swap2\n      sub\n      swap1\n      log1\n        /* \"certificateissuer.sol\":3216:3221  false */\n      0x00\n        /* \"certificateissuer.sol\":3196:3206  cauthValid */\n      0x01\n        /* \"certificateissuer.sol\":3207:3212  cauth */\n      dup4\n        /* \"certificateissuer.sol\":3196:3213  cauthValid[cauth] */\n      mload(0x40)\n      tag_73\n      swap2\n      swap1\n      tag_68\n      jump\t// in\n    tag_73:\n      swap1\n      dup2\n      mstore\n      0x20\n      add\n      mload(0x40)\n      dup1\n      swap2\n      sub\n      swap1\n      keccak256\n      0x00\n        /* \"certificateissuer.sol\":3196:3221  cauthValid[cauth] = false */\n      0x0100\n      exp\n      dup2\n      sload\n      dup2\n      0xff\n      mul\n      not\n      and\n      swap1\n      dup4\n      iszero\n      iszero\n      mul\n      or\n      swap1\n      sstore\n      pop\n        /* \"certificateissuer.sol\":3239:3254  cauthToCanStake */\n      0x02\n        /* \"certificateissuer.sol\":3255:3260  cauth */\n      dup3\n        /* \"certificateissuer.sol\":3239:3261  cauthToCanStake[cauth] */\n      mload(0x40)\n      tag_74\n      swap2\n      swap1\n      tag_68\n      jump\t// in\n    tag_74:\n      swap1\n      dup2\n      mstore\n      0x20\n      add\n      mload(0x40)\n      dup1\n      swap2\n      sub\n      swap1\n      keccak256\n      0x00\n      swap1\n      sload\n      swap1\n      0x0100\n      exp\n      swap1\n      div\n      0xff\n      and\n        /* \"certificateissuer.sol\":3236:3422  if(cauthToCanStake[cauth]){... */\n      iszero\n      tag_75\n      jumpi\n        /* \"certificateissuer.sol\":3277:3317  returnStakedEther(cauthToAddress[cauth]) */\n      tag_76\n        /* \"certificateissuer.sol\":3295:3309  cauthToAddress */\n      0x03\n        /* \"certificateissuer.sol\":3310:3315  cauth */\n      dup4\n        /* \"certificateissuer.sol\":3295:3316  cauthToAddress[cauth] */\n      mload(0x40)\n      tag_77\n      swap2\n      swap1\n      tag_68\n      jump\t// in\n    tag_77:\n      swap1\n      dup2\n      mstore\n      0x20\n      add\n      mload(0x40)\n      dup1\n      swap2\n      sub\n      swap1\n      keccak256\n      0x00\n      swap1\n      sload\n      swap1\n      0x0100\n      exp\n      swap1\n      div\n      0xffffffffffffffffffffffffffffffffffffffff\n      and\n        /* \"certificateissuer.sol\":3277:3294  returnStakedEther */\n      tag_48\n        /* \"certificateissuer.sol\":3277:3317  returnStakedEther(cauthToAddress[cauth]) */\n      jump\t// in\n    tag_76:\n        /* \"certificateissuer.sol\":3337:3409  stakeReturned(cauthToAddress[cauth],stakedAmount[cauthToAddress[cauth]]) */\n      0x4e5bfbe05270402fc09cd413235062e684a8396be0a33385106e3b5c34302e60\n        /* \"certificateissuer.sol\":3351:3365  cauthToAddress */\n      0x03\n        /* \"certificateissuer.sol\":3366:3371  cauth */\n      dup4\n        /* \"certificateissuer.sol\":3351:3372  cauthToAddress[cauth] */\n      mload(0x40)\n      tag_78\n      swap2\n      swap1\n      tag_68\n      jump\t// in\n    tag_78:\n      swap1\n      dup2\n      mstore\n      0x20\n      add\n      mload(0x40)\n      dup1\n      swap2\n      sub\n      swap1\n      keccak256\n      0x00\n      swap1\n      sload\n      swap1\n      0x0100\n      exp\n      swap1\n      div\n      0xffffffffffffffffffffffffffffffffffffffff\n      and\n        /* \"certificateissuer.sol\":3373:3385  stakedAmount */\n      0x06\n        /* \"certificateissuer.sol\":3373:3408  stakedAmount[cauthToAddress[cauth]] */\n      0x00\n        /* \"certificateissuer.sol\":3386:3400  cauthToAddress */\n      0x03\n        /* \"certificateissuer.sol\":3401:3406  cauth */\n      dup7\n        /* \"certificateissuer.sol\":3386:3407  cauthToAddress[cauth] */\n      mload(0x40)\n      tag_79\n      swap2\n      swap1\n      tag_68\n      jump\t// in\n    tag_79:\n      swap1\n      dup2\n      mstore\n      0x20\n      add\n      mload(0x40)\n      dup1\n      swap2\n      sub\n      swap1\n      keccak256\n      0x00\n      swap1\n      sload\n      swap1\n      0x0100\n      exp\n      swap1\n      div\n      0xffffffffffffffffffffffffffffffffffffffff\n      and\n        /* \"certificateissuer.sol\":3373:3408  stakedAmount[cauthToAddress[cauth]] */\n      0xffffffffffffffffffffffffffffffffffffffff\n      and\n      0xffffffffffffffffffffffffffffffffffffffff\n      and\n      dup2\n      mstore\n      0x20\n      add\n      swap1\n      dup2\n      mstore\n      0x20\n      add\n      0x00\n      keccak256\n      sload\n        /* \"certificateissuer.sol\":3337:3409  stakeReturned(cauthToAddress[cauth],stakedAmount[cauthToAddress[cauth]]) */\n      mload(0x40)\n      tag_80\n      swap3\n      swap2\n      swap1\n      tag_81\n      jump\t// in\n    tag_80:\n      mload(0x40)\n      dup1\n      swap2\n      sub\n      swap1\n      log1\n        /* \"certificateissuer.sol\":3236:3422  if(cauthToCanStake[cauth]){... */\n    tag_75:\n        /* \"certificateissuer.sol\":2702:3429  function issueCertificate(string memory _name , string memory _courseTittle, uint _duration , uint institute,string memory cauth, bool _Expirable ) external payable  {... */\n      pop\n      pop\n      pop\n      pop\n      pop\n      pop\n      jump\t// out\n        /* \"certificateissuer.sol\":799:903  function setAdmin(address _adminParameter) public onlyOwner{... */\n    tag_30:\n        /* \"ownable.sol\":299:308  isOwner() */\n      tag_83\n        /* \"ownable.sol\":299:306  isOwner */\n      tag_33\n        /* \"ownable.sol\":299:308  isOwner() */\n      jump\t// in\n    tag_83:\n        /* \"ownable.sol\":291:345  require(isOwner(), \"Ownable: caller is not the owner\") */\n      tag_84\n      jumpi\n      mload(0x40)\n      0x08c379a000000000000000000000000000000000000000000000000000000000\n      dup2\n      mstore\n      0x04\n      add\n      tag_85\n      swap1\n      tag_64\n      jump\t// in\n    tag_85:\n      mload(0x40)\n      dup1\n      swap2\n      sub\n      swap1\n      revert\n    tag_84:\n        /* \"certificateissuer.sol\":878:893  _adminParameter */\n      dup1\n        /* \"certificateissuer.sol\":869:875  _admin */\n      0x04\n      0x00\n        /* \"certificateissuer.sol\":869:893  _admin = _adminParameter */\n      0x0100\n      exp\n      dup2\n      sload\n      dup2\n      0xffffffffffffffffffffffffffffffffffffffff\n      mul\n      not\n      and\n      swap1\n      dup4\n      0xffffffffffffffffffffffffffffffffffffffff\n      and\n      mul\n      or\n      swap1\n      sstore\n      pop\n        /* \"certificateissuer.sol\":799:903  function setAdmin(address _adminParameter) public onlyOwner{... */\n      pop\n      jump\t// out\n        /* \"ownable.sol\":451:545  function isOwner() public view returns (bool) {... */\n    tag_33:\n        /* \"ownable.sol\":491:495  bool */\n      0x00\n        /* \"ownable.sol\":530:536  _owner */\n      dup1\n      0x00\n      swap1\n      sload\n      swap1\n      0x0100\n      exp\n      swap1\n      div\n      0xffffffffffffffffffffffffffffffffffffffff\n      and\n        /* \"ownable.sol\":516:536  msg.sender == _owner */\n      0xffffffffffffffffffffffffffffffffffffffff\n      and\n        /* \"ownable.sol\":516:526  msg.sender */\n      caller\n        /* \"ownable.sol\":516:536  msg.sender == _owner */\n      0xffffffffffffffffffffffffffffffffffffffff\n      and\n      eq\n        /* \"ownable.sol\":508:537  return (msg.sender == _owner) */\n      swap1\n      pop\n        /* \"ownable.sol\":451:545  function isOwner() public view returns (bool) {... */\n      swap1\n      jump\t// out\n        /* \"ownable.sol\":85:106  address public _owner */\n    tag_38:\n      0x00\n      dup1\n      sload\n      swap1\n      0x0100\n      exp\n      swap1\n      div\n      0xffffffffffffffffffffffffffffffffffffffff\n      and\n      dup2\n      jump\t// out\n        /* \"certificateissuer.sol\":1940:2173  function updateCertificateRecipient(string memory cauth) public  {... */\n    tag_45:\n        /* \"certificateissuer.sol\":2038:2044  _admin */\n      0x04\n      0x00\n      swap1\n      sload\n      swap1\n      0x0100\n      exp\n      swap1\n      div\n      0xffffffffffffffffffffffffffffffffffffffff\n      and\n        /* \"certificateissuer.sol\":2024:2044  msg.sender == _admin */\n      0xffffffffffffffffffffffffffffffffffffffff\n      and\n        /* \"certificateissuer.sol\":2024:2034  msg.sender */\n      caller\n        /* \"certificateissuer.sol\":2024:2044  msg.sender == _admin */\n      0xffffffffffffffffffffffffffffffffffffffff\n      and\n      eq\n        /* \"certificateissuer.sol\":2016:2045  require(msg.sender == _admin) */\n      tag_89\n      jumpi\n      0x00\n      dup1\n      revert\n    tag_89:\n        /* \"certificateissuer.sol\":2077:2081  true */\n      0x01\n        /* \"certificateissuer.sol\":2057:2067  cauthValid */\n      dup1\n        /* \"certificateissuer.sol\":2068:2073  cauth */\n      dup3\n        /* \"certificateissuer.sol\":2057:2074  cauthValid[cauth] */\n      mload(0x40)\n      tag_90\n      swap2\n      swap1\n      tag_68\n      jump\t// in\n    tag_90:\n      swap1\n      dup2\n      mstore\n      0x20\n      add\n      mload(0x40)\n      dup1\n      swap2\n      sub\n      swap1\n      keccak256\n      0x00\n        /* \"certificateissuer.sol\":2057:2081  cauthValid[cauth] = true */\n      0x0100\n      exp\n      dup2\n      sload\n      dup2\n      0xff\n      mul\n      not\n      and\n      swap1\n      dup4\n      iszero\n      iszero\n      mul\n      or\n      swap1\n      sstore\n      pop\n        /* \"certificateissuer.sol\":2103:2113  cauthValid */\n      0x01\n        /* \"certificateissuer.sol\":2114:2119  cauth */\n      dup2\n        /* \"certificateissuer.sol\":2103:2120  cauthValid[cauth] */\n      mload(0x40)\n      tag_91\n      swap2\n      swap1\n      tag_68\n      jump\t// in\n    tag_91:\n      swap1\n      dup2\n      mstore\n      0x20\n      add\n      mload(0x40)\n      dup1\n      swap2\n      sub\n      swap1\n      keccak256\n      0x00\n      swap1\n      sload\n      swap1\n      0x0100\n      exp\n      swap1\n      div\n      0xff\n      and\n        /* \"certificateissuer.sol\":2095:2121  require(cauthValid[cauth]) */\n      tag_92\n      jumpi\n      0x00\n      dup1\n      revert\n    tag_92:\n        /* \"certificateissuer.sol\":2159:2163  true */\n      0x01\n        /* \"certificateissuer.sol\":2134:2149  cauthToCanStake */\n      0x02\n        /* \"certificateissuer.sol\":2150:2155  cauth */\n      dup3\n        /* \"certificateissuer.sol\":2134:2156  cauthToCanStake[cauth] */\n      mload(0x40)\n      tag_93\n      swap2\n      swap1\n      tag_68\n      jump\t// in\n    tag_93:\n      swap1\n      dup2\n      mstore\n      0x20\n      add\n      mload(0x40)\n      dup1\n      swap2\n      sub\n      swap1\n      keccak256\n      0x00\n        /* \"certificateissuer.sol\":2134:2163  cauthToCanStake[cauth] = true */\n      0x0100\n      exp\n      dup2\n      sload\n      dup2\n      0xff\n      mul\n      not\n      and\n      swap1\n      dup4\n      iszero\n      iszero\n      mul\n      or\n      swap1\n      sstore\n      pop\n        /* \"certificateissuer.sol\":1940:2173  function updateCertificateRecipient(string memory cauth) public  {... */\n      pop\n      jump\t// out\n        /* \"certificateissuer.sol\":3437:3521  function returnStakedEther(address _studentAddress) public payable{... */\n    tag_48:\n      pop\n      jump\t// out\n        /* \"certificateissuer.sol\":551:596  mapping(address =>  uint) public stakedAmount */\n    tag_52:\n      mstore(0x20, 0x06)\n      dup1\n      0x00\n      mstore\n      keccak256(0x00, 0x40)\n      0x00\n      swap2\n      pop\n      swap1\n      pop\n      sload\n      dup2\n      jump\t// out\n        /* \"certificateissuer.sol\":2349:2694  function updateCertificateRecipientForStaking(string memory cauth,address _staker ) public   {... */\n    tag_59:\n        /* \"certificateissuer.sol\":2475:2481  _admin */\n      0x04\n      0x00\n      swap1\n      sload\n      swap1\n      0x0100\n      exp\n      swap1\n      div\n      0xffffffffffffffffffffffffffffffffffffffff\n      and\n        /* \"certificateissuer.sol\":2461:2481  msg.sender == _admin */\n      0xffffffffffffffffffffffffffffffffffffffff\n      and\n        /* \"certificateissuer.sol\":2461:2471  msg.sender */\n      caller\n        /* \"certificateissuer.sol\":2461:2481  msg.sender == _admin */\n      0xffffffffffffffffffffffffffffffffffffffff\n      and\n      eq\n        /* \"certificateissuer.sol\":2453:2482  require(msg.sender == _admin) */\n      tag_96\n      jumpi\n      0x00\n      dup1\n      revert\n    tag_96:\n        /* \"certificateissuer.sol\":2514:2518  true */\n      0x01\n        /* \"certificateissuer.sol\":2494:2504  cauthValid */\n      dup1\n        /* \"certificateissuer.sol\":2505:2510  cauth */\n      dup4\n        /* \"certificateissuer.sol\":2494:2511  cauthValid[cauth] */\n      mload(0x40)\n      tag_97\n      swap2\n      swap1\n      tag_68\n      jump\t// in\n    tag_97:\n      swap1\n      dup2\n      mstore\n      0x20\n      add\n      mload(0x40)\n      dup1\n      swap2\n      sub\n      swap1\n      keccak256\n      0x00\n        /* \"certificateissuer.sol\":2494:2518  cauthValid[cauth] = true */\n      0x0100\n      exp\n      dup2\n      sload\n      dup2\n      0xff\n      mul\n      not\n      and\n      swap1\n      dup4\n      iszero\n      iszero\n      mul\n      or\n      swap1\n      sstore\n      pop\n        /* \"certificateissuer.sol\":2540:2550  cauthValid */\n      0x01\n        /* \"certificateissuer.sol\":2551:2556  cauth */\n      dup3\n        /* \"certificateissuer.sol\":2540:2557  cauthValid[cauth] */\n      mload(0x40)\n      tag_98\n      swap2\n      swap1\n      tag_68\n      jump\t// in\n    tag_98:\n      swap1\n      dup2\n      mstore\n      0x20\n      add\n      mload(0x40)\n      dup1\n      swap2\n      sub\n      swap1\n      keccak256\n      0x00\n      swap1\n      sload\n      swap1\n      0x0100\n      exp\n      swap1\n      div\n      0xff\n      and\n        /* \"certificateissuer.sol\":2532:2558  require(cauthValid[cauth]) */\n      tag_99\n      jumpi\n      0x00\n      dup1\n      revert\n    tag_99:\n        /* \"certificateissuer.sol\":2596:2600  true */\n      0x01\n        /* \"certificateissuer.sol\":2571:2586  cauthToCanStake */\n      0x02\n        /* \"certificateissuer.sol\":2587:2592  cauth */\n      dup4\n        /* \"certificateissuer.sol\":2571:2593  cauthToCanStake[cauth] */\n      mload(0x40)\n      tag_100\n      swap2\n      swap1\n      tag_68\n      jump\t// in\n    tag_100:\n      swap1\n      dup2\n      mstore\n      0x20\n      add\n      mload(0x40)\n      dup1\n      swap2\n      sub\n      swap1\n      keccak256\n      0x00\n        /* \"certificateissuer.sol\":2571:2600  cauthToCanStake[cauth] = true */\n      0x0100\n      exp\n      dup2\n      sload\n      dup2\n      0xff\n      mul\n      not\n      and\n      swap1\n      dup4\n      iszero\n      iszero\n      mul\n      or\n      swap1\n      sstore\n      pop\n        /* \"certificateissuer.sol\":2638:2643  cauth */\n      dup2\n        /* \"certificateissuer.sol\":2613:2626  adressToCauth */\n      0x05\n        /* \"certificateissuer.sol\":2613:2635  adressToCauth[_staker] */\n      0x00\n        /* \"certificateissuer.sol\":2627:2634  _staker */\n      dup4\n        /* \"certificateissuer.sol\":2613:2635  adressToCauth[_staker] */\n      0xffffffffffffffffffffffffffffffffffffffff\n      and\n      0xffffffffffffffffffffffffffffffffffffffff\n      and\n      dup2\n      mstore\n      0x20\n      add\n      swap1\n      dup2\n      mstore\n      0x20\n      add\n      0x00\n      keccak256\n        /* \"certificateissuer.sol\":2613:2643  adressToCauth[_staker] = cauth */\n      swap1\n      dup2\n      tag_101\n      swap2\n      swap1\n      tag_102\n      jump\t// in\n    tag_101:\n      pop\n        /* \"certificateissuer.sol\":2678:2685  _staker */\n      dup1\n        /* \"certificateissuer.sol\":2655:2669  cauthToAddress */\n      0x03\n        /* \"certificateissuer.sol\":2670:2675  cauth */\n      dup4\n        /* \"certificateissuer.sol\":2655:2676  cauthToAddress[cauth] */\n      mload(0x40)\n      tag_103\n      swap2\n      swap1\n      tag_68\n      jump\t// in\n    tag_103:\n      swap1\n      dup2\n      mstore\n      0x20\n      add\n      mload(0x40)\n      dup1\n      swap2\n      sub\n      swap1\n      keccak256\n      0x00\n        /* \"certificateissuer.sol\":2655:2685  cauthToAddress[cauth] =_staker */\n      0x0100\n      exp\n      dup2\n      sload\n      dup2\n      0xffffffffffffffffffffffffffffffffffffffff\n      mul\n      not\n      and\n      swap1\n      dup4\n      0xffffffffffffffffffffffffffffffffffffffff\n      and\n      mul\n      or\n      swap1\n      sstore\n      pop\n        /* \"certificateissuer.sol\":2349:2694  function updateCertificateRecipientForStaking(string memory cauth,address _staker ) public   {... */\n      pop\n      pop\n      jump\t// out\n        /* \"#utility.yul\":7:187   */\n    tag_104:\n        /* \"#utility.yul\":55:132   */\n      0x4e487b7100000000000000000000000000000000000000000000000000000000\n        /* \"#utility.yul\":52:53   */\n      0x00\n        /* \"#utility.yul\":45:133   */\n      mstore\n        /* \"#utility.yul\":152:156   */\n      0x22\n        /* \"#utility.yul\":149:150   */\n      0x04\n        /* \"#utility.yul\":142:157   */\n      mstore\n        /* \"#utility.yul\":176:180   */\n      0x24\n        /* \"#utility.yul\":173:174   */\n      0x00\n        /* \"#utility.yul\":166:181   */\n      revert\n        /* \"#utility.yul\":193:513   */\n    tag_105:\n        /* \"#utility.yul\":237:243   */\n      0x00\n        /* \"#utility.yul\":274:275   */\n      0x02\n        /* \"#utility.yul\":268:272   */\n      dup3\n        /* \"#utility.yul\":264:276   */\n      div\n        /* \"#utility.yul\":254:276   */\n      swap1\n      pop\n        /* \"#utility.yul\":321:322   */\n      0x01\n        /* \"#utility.yul\":315:319   */\n      dup3\n        /* \"#utility.yul\":311:323   */\n      and\n        /* \"#utility.yul\":342:360   */\n      dup1\n        /* \"#utility.yul\":332:413   */\n      tag_159\n      jumpi\n        /* \"#utility.yul\":398:402   */\n      0x7f\n        /* \"#utility.yul\":390:396   */\n      dup3\n        /* \"#utility.yul\":386:403   */\n      and\n        /* \"#utility.yul\":376:403   */\n      swap2\n      pop\n        /* \"#utility.yul\":332:413   */\n    tag_159:\n        /* \"#utility.yul\":460:462   */\n      0x20\n        /* \"#utility.yul\":452:458   */\n      dup3\n        /* \"#utility.yul\":449:463   */\n      lt\n        /* \"#utility.yul\":429:447   */\n      dup2\n        /* \"#utility.yul\":426:464   */\n      sub\n        /* \"#utility.yul\":423:507   */\n      tag_160\n      jumpi\n        /* \"#utility.yul\":479:497   */\n      tag_161\n      tag_104\n      jump\t// in\n    tag_161:\n        /* \"#utility.yul\":423:507   */\n    tag_160:\n        /* \"#utility.yul\":244:513   */\n      pop\n        /* \"#utility.yul\":193:513   */\n      swap2\n      swap1\n      pop\n      jump\t// out\n        /* \"#utility.yul\":519:667   */\n    tag_106:\n        /* \"#utility.yul\":621:632   */\n      0x00\n        /* \"#utility.yul\":658:661   */\n      dup2\n        /* \"#utility.yul\":643:661   */\n      swap1\n      pop\n        /* \"#utility.yul\":519:667   */\n      swap3\n      swap2\n      pop\n      pop\n      jump\t// out\n        /* \"#utility.yul\":673:814   */\n    tag_107:\n        /* \"#utility.yul\":722:726   */\n      0x00\n        /* \"#utility.yul\":745:748   */\n      dup2\n        /* \"#utility.yul\":737:748   */\n      swap1\n      pop\n        /* \"#utility.yul\":768:771   */\n      dup2\n        /* \"#utility.yul\":765:766   */\n      0x00\n        /* \"#utility.yul\":758:772   */\n      mstore\n        /* \"#utility.yul\":802:806   */\n      0x20\n        /* \"#utility.yul\":799:800   */\n      0x00\n        /* \"#utility.yul\":789:807   */\n      keccak256\n        /* \"#utility.yul\":781:807   */\n      swap1\n      pop\n        /* \"#utility.yul\":673:814   */\n      swap2\n      swap1\n      pop\n      jump\t// out\n        /* \"#utility.yul\":844:1718   */\n    tag_108:\n        /* \"#utility.yul\":947:950   */\n      0x00\n        /* \"#utility.yul\":984:989   */\n      dup2\n        /* \"#utility.yul\":978:990   */\n      sload\n        /* \"#utility.yul\":1013:1049   */\n      tag_165\n        /* \"#utility.yul\":1039:1048   */\n      dup2\n        /* \"#utility.yul\":1013:1049   */\n      tag_105\n      jump\t// in\n    tag_165:\n        /* \"#utility.yul\":1065:1154   */\n      tag_166\n        /* \"#utility.yul\":1147:1153   */\n      dup2\n        /* \"#utility.yul\":1142:1145   */\n      dup7\n        /* \"#utility.yul\":1065:1154   */\n      tag_106\n      jump\t// in\n    tag_166:\n        /* \"#utility.yul\":1058:1154   */\n      swap5\n      pop\n        /* \"#utility.yul\":1185:1186   */\n      0x01\n        /* \"#utility.yul\":1174:1183   */\n      dup3\n        /* \"#utility.yul\":1170:1187   */\n      and\n        /* \"#utility.yul\":1201:1202   */\n      0x00\n        /* \"#utility.yul\":1196:1362   */\n      dup2\n      eq\n      tag_168\n      jumpi\n        /* \"#utility.yul\":1376:1377   */\n      0x01\n        /* \"#utility.yul\":1371:1712   */\n      dup2\n      eq\n      tag_169\n      jumpi\n        /* \"#utility.yul\":1163:1712   */\n      jump(tag_167)\n        /* \"#utility.yul\":1196:1362   */\n    tag_168:\n        /* \"#utility.yul\":1280:1284   */\n      0xff\n        /* \"#utility.yul\":1276:1285   */\n      not\n        /* \"#utility.yul\":1265:1274   */\n      dup4\n        /* \"#utility.yul\":1261:1286   */\n      and\n        /* \"#utility.yul\":1256:1259   */\n      dup7\n        /* \"#utility.yul\":1249:1287   */\n      mstore\n        /* \"#utility.yul\":1342:1348   */\n      dup2\n        /* \"#utility.yul\":1335:1349   */\n      iszero\n        /* \"#utility.yul\":1328:1350   */\n      iszero\n        /* \"#utility.yul\":1320:1326   */\n      dup3\n        /* \"#utility.yul\":1316:1351   */\n      mul\n        /* \"#utility.yul\":1311:1314   */\n      dup7\n        /* \"#utility.yul\":1307:1352   */\n      add\n        /* \"#utility.yul\":1300:1352   */\n      swap4\n      pop\n        /* \"#utility.yul\":1196:1362   */\n      jump(tag_167)\n        /* \"#utility.yul\":1371:1712   */\n    tag_169:\n        /* \"#utility.yul\":1438:1476   */\n      tag_170\n        /* \"#utility.yul\":1470:1475   */\n      dup6\n        /* \"#utility.yul\":1438:1476   */\n      tag_107\n      jump\t// in\n    tag_170:\n        /* \"#utility.yul\":1498:1499   */\n      0x00\n        /* \"#utility.yul\":1512:1666   */\n    tag_171:\n        /* \"#utility.yul\":1526:1532   */\n      dup4\n        /* \"#utility.yul\":1523:1524   */\n      dup2\n        /* \"#utility.yul\":1520:1533   */\n      lt\n        /* \"#utility.yul\":1512:1666   */\n      iszero\n      tag_173\n      jumpi\n        /* \"#utility.yul\":1600:1607   */\n      dup2\n        /* \"#utility.yul\":1594:1608   */\n      sload\n        /* \"#utility.yul\":1590:1591   */\n      dup2\n        /* \"#utility.yul\":1585:1588   */\n      dup10\n        /* \"#utility.yul\":1581:1592   */\n      add\n        /* \"#utility.yul\":1574:1609   */\n      mstore\n        /* \"#utility.yul\":1650:1651   */\n      0x01\n        /* \"#utility.yul\":1641:1648   */\n      dup3\n        /* \"#utility.yul\":1637:1652   */\n      add\n        /* \"#utility.yul\":1626:1652   */\n      swap2\n      pop\n        /* \"#utility.yul\":1548:1552   */\n      0x20\n        /* \"#utility.yul\":1545:1546   */\n      dup2\n        /* \"#utility.yul\":1541:1553   */\n      add\n        /* \"#utility.yul\":1536:1553   */\n      swap1\n      pop\n        /* \"#utility.yul\":1512:1666   */\n      jump(tag_171)\n    tag_173:\n        /* \"#utility.yul\":1695:1701   */\n      dup4\n        /* \"#utility.yul\":1690:1693   */\n      dup9\n        /* \"#utility.yul\":1686:1702   */\n      add\n        /* \"#utility.yul\":1679:1702   */\n      swap6\n      pop\n        /* \"#utility.yul\":1378:1712   */\n      pop\n      pop\n        /* \"#utility.yul\":1163:1712   */\n    tag_167:\n      pop\n        /* \"#utility.yul\":951:1718   */\n      pop\n      pop\n        /* \"#utility.yul\":844:1718   */\n      swap3\n      swap2\n      pop\n      pop\n      jump\t// out\n        /* \"#utility.yul\":1724:1993   */\n    tag_16:\n        /* \"#utility.yul\":1853:1856   */\n      0x00\n        /* \"#utility.yul\":1875:1967   */\n      tag_175\n        /* \"#utility.yul\":1963:1966   */\n      dup3\n        /* \"#utility.yul\":1954:1960   */\n      dup5\n        /* \"#utility.yul\":1875:1967   */\n      tag_108\n      jump\t// in\n    tag_175:\n        /* \"#utility.yul\":1868:1967   */\n      swap2\n      pop\n        /* \"#utility.yul\":1984:1987   */\n      dup2\n        /* \"#utility.yul\":1977:1987   */\n      swap1\n      pop\n        /* \"#utility.yul\":1724:1993   */\n      swap3\n      swap2\n      pop\n      pop\n      jump\t// out\n        /* \"#utility.yul\":1999:2074   */\n    tag_109:\n        /* \"#utility.yul\":2032:2038   */\n      0x00\n        /* \"#utility.yul\":2065:2067   */\n      0x40\n        /* \"#utility.yul\":2059:2068   */\n      mload\n        /* \"#utility.yul\":2049:2068   */\n      swap1\n      pop\n        /* \"#utility.yul\":1999:2074   */\n      swap1\n      jump\t// out\n        /* \"#utility.yul\":2080:2197   */\n    tag_110:\n        /* \"#utility.yul\":2189:2190   */\n      0x00\n        /* \"#utility.yul\":2186:2187   */\n      dup1\n        /* \"#utility.yul\":2179:2191   */\n      revert\n        /* \"#utility.yul\":2203:2320   */\n    tag_111:\n        /* \"#utility.yul\":2312:2313   */\n      0x00\n        /* \"#utility.yul\":2309:2310   */\n      dup1\n        /* \"#utility.yul\":2302:2314   */\n      revert\n        /* \"#utility.yul\":2326:2452   */\n    tag_112:\n        /* \"#utility.yul\":2363:2370   */\n      0x00\n        /* \"#utility.yul\":2403:2445   */\n      0xffffffffffffffffffffffffffffffffffffffff\n        /* \"#utility.yul\":2396:2401   */\n      dup3\n        /* \"#utility.yul\":2392:2446   */\n      and\n        /* \"#utility.yul\":2381:2446   */\n      swap1\n      pop\n        /* \"#utility.yul\":2326:2452   */\n      swap2\n      swap1\n      pop\n      jump\t// out\n        /* \"#utility.yul\":2458:2554   */\n    tag_113:\n        /* \"#utility.yul\":2495:2502   */\n      0x00\n        /* \"#utility.yul\":2524:2548   */\n      tag_181\n        /* \"#utility.yul\":2542:2547   */\n      dup3\n        /* \"#utility.yul\":2524:2548   */\n      tag_112\n      jump\t// in\n    tag_181:\n        /* \"#utility.yul\":2513:2548   */\n      swap1\n      pop\n        /* \"#utility.yul\":2458:2554   */\n      swap2\n      swap1\n      pop\n      jump\t// out\n        /* \"#utility.yul\":2560:2682   */\n    tag_114:\n        /* \"#utility.yul\":2633:2657   */\n      tag_183\n        /* \"#utility.yul\":2651:2656   */\n      dup2\n        /* \"#utility.yul\":2633:2657   */\n      tag_113\n      jump\t// in\n    tag_183:\n        /* \"#utility.yul\":2626:2631   */\n      dup2\n        /* \"#utility.yul\":2623:2658   */\n      eq\n        /* \"#utility.yul\":2613:2676   */\n      tag_184\n      jumpi\n        /* \"#utility.yul\":2672:2673   */\n      0x00\n        /* \"#utility.yul\":2669:2670   */\n      dup1\n        /* \"#utility.yul\":2662:2674   */\n      revert\n        /* \"#utility.yul\":2613:2676   */\n    tag_184:\n        /* \"#utility.yul\":2560:2682   */\n      pop\n      jump\t// out\n        /* \"#utility.yul\":2688:2827   */\n    tag_115:\n        /* \"#utility.yul\":2734:2739   */\n      0x00\n        /* \"#utility.yul\":2772:2778   */\n      dup2\n        /* \"#utility.yul\":2759:2779   */\n      calldataload\n        /* \"#utility.yul\":2750:2779   */\n      swap1\n      pop\n        /* \"#utility.yul\":2788:2821   */\n      tag_186\n        /* \"#utility.yul\":2815:2820   */\n      dup2\n        /* \"#utility.yul\":2788:2821   */\n      tag_114\n      jump\t// in\n    tag_186:\n        /* \"#utility.yul\":2688:2827   */\n      swap3\n      swap2\n      pop\n      pop\n      jump\t// out\n        /* \"#utility.yul\":2833:3162   */\n    tag_21:\n        /* \"#utility.yul\":2892:2898   */\n      0x00\n        /* \"#utility.yul\":2941:2943   */\n      0x20\n        /* \"#utility.yul\":2929:2938   */\n      dup3\n        /* \"#utility.yul\":2920:2927   */\n      dup5\n        /* \"#utility.yul\":2916:2939   */\n      sub\n        /* \"#utility.yul\":2912:2944   */\n      slt\n        /* \"#utility.yul\":2909:3028   */\n      iszero\n      tag_188\n      jumpi\n        /* \"#utility.yul\":2947:3026   */\n      tag_189\n      tag_110\n      jump\t// in\n    tag_189:\n        /* \"#utility.yul\":2909:3028   */\n    tag_188:\n        /* \"#utility.yul\":3067:3068   */\n      0x00\n        /* \"#utility.yul\":3092:3145   */\n      tag_190\n        /* \"#utility.yul\":3137:3144   */\n      dup5\n        /* \"#utility.yul\":3128:3134   */\n      dup3\n        /* \"#utility.yul\":3117:3126   */\n      dup6\n        /* \"#utility.yul\":3113:3135   */\n      add\n        /* \"#utility.yul\":3092:3145   */\n      tag_115\n      jump\t// in\n    tag_190:\n        /* \"#utility.yul\":3082:3145   */\n      swap2\n      pop\n        /* \"#utility.yul\":3038:3155   */\n      pop\n        /* \"#utility.yul\":2833:3162   */\n      swap3\n      swap2\n      pop\n      pop\n      jump\t// out\n        /* \"#utility.yul\":3168:3285   */\n    tag_116:\n        /* \"#utility.yul\":3277:3278   */\n      0x00\n        /* \"#utility.yul\":3274:3275   */\n      dup1\n        /* \"#utility.yul\":3267:3279   */\n      revert\n        /* \"#utility.yul\":3291:3408   */\n    tag_117:\n        /* \"#utility.yul\":3400:3401   */\n      0x00\n        /* \"#utility.yul\":3397:3398   */\n      dup1\n        /* \"#utility.yul\":3390:3402   */\n      revert\n        /* \"#utility.yul\":3414:3516   */\n    tag_118:\n        /* \"#utility.yul\":3455:3461   */\n      0x00\n        /* \"#utility.yul\":3506:3508   */\n      0x1f\n        /* \"#utility.yul\":3502:3509   */\n      not\n        /* \"#utility.yul\":3497:3499   */\n      0x1f\n        /* \"#utility.yul\":3490:3495   */\n      dup4\n        /* \"#utility.yul\":3486:3500   */\n      add\n        /* \"#utility.yul\":3482:3510   */\n      and\n        /* \"#utility.yul\":3472:3510   */\n      swap1\n      pop\n        /* \"#utility.yul\":3414:3516   */\n      swap2\n      swap1\n      pop\n      jump\t// out\n        /* \"#utility.yul\":3522:3702   */\n    tag_119:\n        /* \"#utility.yul\":3570:3647   */\n      0x4e487b7100000000000000000000000000000000000000000000000000000000\n        /* \"#utility.yul\":3567:3568   */\n      0x00\n        /* \"#utility.yul\":3560:3648   */\n      mstore\n        /* \"#utility.yul\":3667:3671   */\n      0x41\n        /* \"#utility.yul\":3664:3665   */\n      0x04\n        /* \"#utility.yul\":3657:3672   */\n      mstore\n        /* \"#utility.yul\":3691:3695   */\n      0x24\n        /* \"#utility.yul\":3688:3689   */\n      0x00\n        /* \"#utility.yul\":3681:3696   */\n      revert\n        /* \"#utility.yul\":3708:3989   */\n    tag_120:\n        /* \"#utility.yul\":3791:3818   */\n      tag_196\n        /* \"#utility.yul\":3813:3817   */\n      dup3\n        /* \"#utility.yul\":3791:3818   */\n      tag_118\n      jump\t// in\n    tag_196:\n        /* \"#utility.yul\":3783:3789   */\n      dup2\n        /* \"#utility.yul\":3779:3819   */\n      add\n        /* \"#utility.yul\":3921:3927   */\n      dup2\n        /* \"#utility.yul\":3909:3919   */\n      dup2\n        /* \"#utility.yul\":3906:3928   */\n      lt\n        /* \"#utility.yul\":3885:3903   */\n      0xffffffffffffffff\n        /* \"#utility.yul\":3873:3883   */\n      dup3\n        /* \"#utility.yul\":3870:3904   */\n      gt\n        /* \"#utility.yul\":3867:3929   */\n      or\n        /* \"#utility.yul\":3864:3952   */\n      iszero\n      tag_197\n      jumpi\n        /* \"#utility.yul\":3932:3950   */\n      tag_198\n      tag_119\n      jump\t// in\n    tag_198:\n        /* \"#utility.yul\":3864:3952   */\n    tag_197:\n        /* \"#utility.yul\":3972:3982   */\n      dup1\n        /* \"#utility.yul\":3968:3970   */\n      0x40\n        /* \"#utility.yul\":3961:3983   */\n      mstore\n        /* \"#utility.yul\":3751:3989   */\n      pop\n        /* \"#utility.yul\":3708:3989   */\n      pop\n      pop\n      jump\t// out\n        /* \"#utility.yul\":3995:4124   */\n    tag_121:\n        /* \"#utility.yul\":4029:4035   */\n      0x00\n        /* \"#utility.yul\":4056:4076   */\n      tag_200\n      tag_109\n      jump\t// in\n    tag_200:\n        /* \"#utility.yul\":4046:4076   */\n      swap1\n      pop\n        /* \"#utility.yul\":4085:4118   */\n      tag_201\n        /* \"#utility.yul\":4113:4117   */\n      dup3\n        /* \"#utility.yul\":4105:4111   */\n      dup3\n        /* \"#utility.yul\":4085:4118   */\n      tag_120\n      jump\t// in\n    tag_201:\n        /* \"#utility.yul\":3995:4124   */\n      swap2\n      swap1\n      pop\n      jump\t// out\n        /* \"#utility.yul\":4130:4438   */\n    tag_122:\n        /* \"#utility.yul\":4192:4196   */\n      0x00\n        /* \"#utility.yul\":4282:4300   */\n      0xffffffffffffffff\n        /* \"#utility.yul\":4274:4280   */\n      dup3\n        /* \"#utility.yul\":4271:4301   */\n      gt\n        /* \"#utility.yul\":4268:4324   */\n      iszero\n      tag_203\n      jumpi\n        /* \"#utility.yul\":4304:4322   */\n      tag_204\n      tag_119\n      jump\t// in\n    tag_204:\n        /* \"#utility.yul\":4268:4324   */\n    tag_203:\n        /* \"#utility.yul\":4342:4371   */\n      tag_205\n        /* \"#utility.yul\":4364:4370   */\n      dup3\n        /* \"#utility.yul\":4342:4371   */\n      tag_118\n      jump\t// in\n    tag_205:\n        /* \"#utility.yul\":4334:4371   */\n      swap1\n      pop\n        /* \"#utility.yul\":4426:4430   */\n      0x20\n        /* \"#utility.yul\":4420:4424   */\n      dup2\n        /* \"#utility.yul\":4416:4431   */\n      add\n        /* \"#utility.yul\":4408:4431   */\n      swap1\n      pop\n        /* \"#utility.yul\":4130:4438   */\n      swap2\n      swap1\n      pop\n      jump\t// out\n        /* \"#utility.yul\":4444:4598   */\n    tag_123:\n        /* \"#utility.yul\":4528:4534   */\n      dup3\n        /* \"#utility.yul\":4523:4526   */\n      dup2\n        /* \"#utility.yul\":4518:4521   */\n      dup4\n        /* \"#utility.yul\":4505:4535   */\n      calldatacopy\n        /* \"#utility.yul\":4590:4591   */\n      0x00\n        /* \"#utility.yul\":4581:4587   */\n      dup4\n        /* \"#utility.yul\":4576:4579   */\n      dup4\n        /* \"#utility.yul\":4572:4588   */\n      add\n        /* \"#utility.yul\":4565:4592   */\n      mstore\n        /* \"#utility.yul\":4444:4598   */\n      pop\n      pop\n      pop\n      jump\t// out\n        /* \"#utility.yul\":4604:5016   */\n    tag_124:\n        /* \"#utility.yul\":4682:4687   */\n      0x00\n        /* \"#utility.yul\":4707:4773   */\n      tag_208\n        /* \"#utility.yul\":4723:4772   */\n      tag_209\n        /* \"#utility.yul\":4765:4771   */\n      dup5\n        /* \"#utility.yul\":4723:4772   */\n      tag_122\n      jump\t// in\n    tag_209:\n        /* \"#utility.yul\":4707:4773   */\n      tag_121\n      jump\t// in\n    tag_208:\n        /* \"#utility.yul\":4698:4773   */\n      swap1\n      pop\n        /* \"#utility.yul\":4796:4802   */\n      dup3\n        /* \"#utility.yul\":4789:4794   */\n      dup2\n        /* \"#utility.yul\":4782:4803   */\n      mstore\n        /* \"#utility.yul\":4834:4838   */\n      0x20\n        /* \"#utility.yul\":4827:4832   */\n      dup2\n        /* \"#utility.yul\":4823:4839   */\n      add\n        /* \"#utility.yul\":4872:4875   */\n      dup5\n        /* \"#utility.yul\":4863:4869   */\n      dup5\n        /* \"#utility.yul\":4858:4861   */\n      dup5\n        /* \"#utility.yul\":4854:4870   */\n      add\n        /* \"#utility.yul\":4851:4876   */\n      gt\n        /* \"#utility.yul\":4848:4960   */\n      iszero\n      tag_210\n      jumpi\n        /* \"#utility.yul\":4879:4958   */\n      tag_211\n      tag_117\n      jump\t// in\n    tag_211:\n        /* \"#utility.yul\":4848:4960   */\n    tag_210:\n        /* \"#utility.yul\":4969:5010   */\n      tag_212\n        /* \"#utility.yul\":5003:5009   */\n      dup5\n        /* \"#utility.yul\":4998:5001   */\n      dup3\n        /* \"#utility.yul\":4993:4996   */\n      dup6\n        /* \"#utility.yul\":4969:5010   */\n      tag_123\n      jump\t// in\n    tag_212:\n        /* \"#utility.yul\":4688:5016   */\n      pop\n        /* \"#utility.yul\":4604:5016   */\n      swap4\n      swap3\n      pop\n      pop\n      pop\n      jump\t// out\n        /* \"#utility.yul\":5036:5376   */\n    tag_125:\n        /* \"#utility.yul\":5092:5097   */\n      0x00\n        /* \"#utility.yul\":5141:5144   */\n      dup3\n        /* \"#utility.yul\":5134:5138   */\n      0x1f\n        /* \"#utility.yul\":5126:5132   */\n      dup4\n        /* \"#utility.yul\":5122:5139   */\n      add\n        /* \"#utility.yul\":5118:5145   */\n      slt\n        /* \"#utility.yul\":5108:5230   */\n      tag_214\n      jumpi\n        /* \"#utility.yul\":5149:5228   */\n      tag_215\n      tag_116\n      jump\t// in\n    tag_215:\n        /* \"#utility.yul\":5108:5230   */\n    tag_214:\n        /* \"#utility.yul\":5266:5272   */\n      dup2\n        /* \"#utility.yul\":5253:5273   */\n      calldataload\n        /* \"#utility.yul\":5291:5370   */\n      tag_216\n        /* \"#utility.yul\":5366:5369   */\n      dup5\n        /* \"#utility.yul\":5358:5364   */\n      dup3\n        /* \"#utility.yul\":5351:5355   */\n      0x20\n        /* \"#utility.yul\":5343:5349   */\n      dup7\n        /* \"#utility.yul\":5339:5356   */\n      add\n        /* \"#utility.yul\":5291:5370   */\n      tag_124\n      jump\t// in\n    tag_216:\n        /* \"#utility.yul\":5282:5370   */\n      swap2\n      pop\n        /* \"#utility.yul\":5098:5376   */\n      pop\n        /* \"#utility.yul\":5036:5376   */\n      swap3\n      swap2\n      pop\n      pop\n      jump\t// out\n        /* \"#utility.yul\":5382:5459   */\n    tag_126:\n        /* \"#utility.yul\":5419:5426   */\n      0x00\n        /* \"#utility.yul\":5448:5453   */\n      dup2\n        /* \"#utility.yul\":5437:5453   */\n      swap1\n      pop\n        /* \"#utility.yul\":5382:5459   */\n      swap2\n      swap1\n      pop\n      jump\t// out\n        /* \"#utility.yul\":5465:5587   */\n    tag_127:\n        /* \"#utility.yul\":5538:5562   */\n      tag_219\n        /* \"#utility.yul\":5556:5561   */\n      dup2\n        /* \"#utility.yul\":5538:5562   */\n      tag_126\n      jump\t// in\n    tag_219:\n        /* \"#utility.yul\":5531:5536   */\n      dup2\n        /* \"#utility.yul\":5528:5563   */\n      eq\n        /* \"#utility.yul\":5518:5581   */\n      tag_220\n      jumpi\n        /* \"#utility.yul\":5577:5578   */\n      0x00\n        /* \"#utility.yul\":5574:5575   */\n      dup1\n        /* \"#utility.yul\":5567:5579   */\n      revert\n        /* \"#utility.yul\":5518:5581   */\n    tag_220:\n        /* \"#utility.yul\":5465:5587   */\n      pop\n      jump\t// out\n        /* \"#utility.yul\":5593:5732   */\n    tag_128:\n        /* \"#utility.yul\":5639:5644   */\n      0x00\n        /* \"#utility.yul\":5677:5683   */\n      dup2\n        /* \"#utility.yul\":5664:5684   */\n      calldataload\n        /* \"#utility.yul\":5655:5684   */\n      swap1\n      pop\n        /* \"#utility.yul\":5693:5726   */\n      tag_222\n        /* \"#utility.yul\":5720:5725   */\n      dup2\n        /* \"#utility.yul\":5693:5726   */\n      tag_127\n      jump\t// in\n    tag_222:\n        /* \"#utility.yul\":5593:5732   */\n      swap3\n      swap2\n      pop\n      pop\n      jump\t// out\n        /* \"#utility.yul\":5738:5828   */\n    tag_129:\n        /* \"#utility.yul\":5772:5779   */\n      0x00\n        /* \"#utility.yul\":5815:5820   */\n      dup2\n        /* \"#utility.yul\":5808:5821   */\n      iszero\n        /* \"#utility.yul\":5801:5822   */\n      iszero\n        /* \"#utility.yul\":5790:5822   */\n      swap1\n      pop\n        /* \"#utility.yul\":5738:5828   */\n      swap2\n      swap1\n      pop\n      jump\t// out\n        /* \"#utility.yul\":5834:5950   */\n    tag_130:\n        /* \"#utility.yul\":5904:5925   */\n      tag_225\n        /* \"#utility.yul\":5919:5924   */\n      dup2\n        /* \"#utility.yul\":5904:5925   */\n      tag_129\n      jump\t// in\n    tag_225:\n        /* \"#utility.yul\":5897:5902   */\n      dup2\n        /* \"#utility.yul\":5894:5926   */\n      eq\n        /* \"#utility.yul\":5884:5944   */\n      tag_226\n      jumpi\n        /* \"#utility.yul\":5940:5941   */\n      0x00\n        /* \"#utility.yul\":5937:5938   */\n      dup1\n        /* \"#utility.yul\":5930:5942   */\n      revert\n        /* \"#utility.yul\":5884:5944   */\n    tag_226:\n        /* \"#utility.yul\":5834:5950   */\n      pop\n      jump\t// out\n        /* \"#utility.yul\":5956:6089   */\n    tag_131:\n        /* \"#utility.yul\":5999:6004   */\n      0x00\n        /* \"#utility.yul\":6037:6043   */\n      dup2\n        /* \"#utility.yul\":6024:6044   */\n      calldataload\n        /* \"#utility.yul\":6015:6044   */\n      swap1\n      pop\n        /* \"#utility.yul\":6053:6083   */\n      tag_228\n        /* \"#utility.yul\":6077:6082   */\n      dup2\n        /* \"#utility.yul\":6053:6083   */\n      tag_130\n      jump\t// in\n    tag_228:\n        /* \"#utility.yul\":5956:6089   */\n      swap3\n      swap2\n      pop\n      pop\n      jump\t// out\n        /* \"#utility.yul\":6095:7686   */\n    tag_25:\n        /* \"#utility.yul\":6226:6232   */\n      0x00\n        /* \"#utility.yul\":6234:6240   */\n      dup1\n        /* \"#utility.yul\":6242:6248   */\n      0x00\n        /* \"#utility.yul\":6250:6256   */\n      dup1\n        /* \"#utility.yul\":6258:6264   */\n      0x00\n        /* \"#utility.yul\":6266:6272   */\n      dup1\n        /* \"#utility.yul\":6315:6318   */\n      0xc0\n        /* \"#utility.yul\":6303:6312   */\n      dup8\n        /* \"#utility.yul\":6294:6301   */\n      dup10\n        /* \"#utility.yul\":6290:6313   */\n      sub\n        /* \"#utility.yul\":6286:6319   */\n      slt\n        /* \"#utility.yul\":6283:6403   */\n      iszero\n      tag_230\n      jumpi\n        /* \"#utility.yul\":6322:6401   */\n      tag_231\n      tag_110\n      jump\t// in\n    tag_231:\n        /* \"#utility.yul\":6283:6403   */\n    tag_230:\n        /* \"#utility.yul\":6470:6471   */\n      0x00\n        /* \"#utility.yul\":6459:6468   */\n      dup8\n        /* \"#utility.yul\":6455:6472   */\n      add\n        /* \"#utility.yul\":6442:6473   */\n      calldataload\n        /* \"#utility.yul\":6500:6518   */\n      0xffffffffffffffff\n        /* \"#utility.yul\":6492:6498   */\n      dup2\n        /* \"#utility.yul\":6489:6519   */\n      gt\n        /* \"#utility.yul\":6486:6603   */\n      iszero\n      tag_232\n      jumpi\n        /* \"#utility.yul\":6522:6601   */\n      tag_233\n      tag_111\n      jump\t// in\n    tag_233:\n        /* \"#utility.yul\":6486:6603   */\n    tag_232:\n        /* \"#utility.yul\":6627:6690   */\n      tag_234\n        /* \"#utility.yul\":6682:6689   */\n      dup10\n        /* \"#utility.yul\":6673:6679   */\n      dup3\n        /* \"#utility.yul\":6662:6671   */\n      dup11\n        /* \"#utility.yul\":6658:6680   */\n      add\n        /* \"#utility.yul\":6627:6690   */\n      tag_125\n      jump\t// in\n    tag_234:\n        /* \"#utility.yul\":6617:6690   */\n      swap7\n      pop\n        /* \"#utility.yul\":6413:6700   */\n      pop\n        /* \"#utility.yul\":6767:6769   */\n      0x20\n        /* \"#utility.yul\":6756:6765   */\n      dup8\n        /* \"#utility.yul\":6752:6770   */\n      add\n        /* \"#utility.yul\":6739:6771   */\n      calldataload\n        /* \"#utility.yul\":6798:6816   */\n      0xffffffffffffffff\n        /* \"#utility.yul\":6790:6796   */\n      dup2\n        /* \"#utility.yul\":6787:6817   */\n      gt\n        /* \"#utility.yul\":6784:6901   */\n      iszero\n      tag_235\n      jumpi\n        /* \"#utility.yul\":6820:6899   */\n      tag_236\n      tag_111\n      jump\t// in\n    tag_236:\n        /* \"#utility.yul\":6784:6901   */\n    tag_235:\n        /* \"#utility.yul\":6925:6988   */\n      tag_237\n        /* \"#utility.yul\":6980:6987   */\n      dup10\n        /* \"#utility.yul\":6971:6977   */\n      dup3\n        /* \"#utility.yul\":6960:6969   */\n      dup11\n        /* \"#utility.yul\":6956:6978   */\n      add\n        /* \"#utility.yul\":6925:6988   */\n      tag_125\n      jump\t// in\n    tag_237:\n        /* \"#utility.yul\":6915:6988   */\n      swap6\n      pop\n        /* \"#utility.yul\":6710:6998   */\n      pop\n        /* \"#utility.yul\":7037:7039   */\n      0x40\n        /* \"#utility.yul\":7063:7116   */\n      tag_238\n        /* \"#utility.yul\":7108:7115   */\n      dup10\n        /* \"#utility.yul\":7099:7105   */\n      dup3\n        /* \"#utility.yul\":7088:7097   */\n      dup11\n        /* \"#utility.yul\":7084:7106   */\n      add\n        /* \"#utility.yul\":7063:7116   */\n      tag_128\n      jump\t// in\n    tag_238:\n        /* \"#utility.yul\":7053:7116   */\n      swap5\n      pop\n        /* \"#utility.yul\":7008:7126   */\n      pop\n        /* \"#utility.yul\":7165:7167   */\n      0x60\n        /* \"#utility.yul\":7191:7244   */\n      tag_239\n        /* \"#utility.yul\":7236:7243   */\n      dup10\n        /* \"#utility.yul\":7227:7233   */\n      dup3\n        /* \"#utility.yul\":7216:7225   */\n      dup11\n        /* \"#utility.yul\":7212:7234   */\n      add\n        /* \"#utility.yul\":7191:7244   */\n      tag_128\n      jump\t// in\n    tag_239:\n        /* \"#utility.yul\":7181:7244   */\n      swap4\n      pop\n        /* \"#utility.yul\":7136:7254   */\n      pop\n        /* \"#utility.yul\":7321:7324   */\n      0x80\n        /* \"#utility.yul\":7310:7319   */\n      dup8\n        /* \"#utility.yul\":7306:7325   */\n      add\n        /* \"#utility.yul\":7293:7326   */\n      calldataload\n        /* \"#utility.yul\":7353:7371   */\n      0xffffffffffffffff\n        /* \"#utility.yul\":7345:7351   */\n      dup2\n        /* \"#utility.yul\":7342:7372   */\n      gt\n        /* \"#utility.yul\":7339:7456   */\n      iszero\n      tag_240\n      jumpi\n        /* \"#utility.yul\":7375:7454   */\n      tag_241\n      tag_111\n      jump\t// in\n    tag_241:\n        /* \"#utility.yul\":7339:7456   */\n    tag_240:\n        /* \"#utility.yul\":7480:7543   */\n      tag_242\n        /* \"#utility.yul\":7535:7542   */\n      dup10\n        /* \"#utility.yul\":7526:7532   */\n      dup3\n        /* \"#utility.yul\":7515:7524   */\n      dup11\n        /* \"#utility.yul\":7511:7533   */\n      add\n        /* \"#utility.yul\":7480:7543   */\n      tag_125\n      jump\t// in\n    tag_242:\n        /* \"#utility.yul\":7470:7543   */\n      swap3\n      pop\n        /* \"#utility.yul\":7264:7553   */\n      pop\n        /* \"#utility.yul\":7592:7595   */\n      0xa0\n        /* \"#utility.yul\":7619:7669   */\n      tag_243\n        /* \"#utility.yul\":7661:7668   */\n      dup10\n        /* \"#utility.yul\":7652:7658   */\n      dup3\n        /* \"#utility.yul\":7641:7650   */\n      dup11\n        /* \"#utility.yul\":7637:7659   */\n      add\n        /* \"#utility.yul\":7619:7669   */\n      tag_131\n      jump\t// in\n    tag_243:\n        /* \"#utility.yul\":7609:7669   */\n      swap2\n      pop\n        /* \"#utility.yul\":7563:7679   */\n      pop\n        /* \"#utility.yul\":6095:7686   */\n      swap3\n      swap6\n      pop\n      swap3\n      swap6\n      pop\n      swap3\n      swap6\n      jump\t// out\n        /* \"#utility.yul\":7692:7801   */\n    tag_132:\n        /* \"#utility.yul\":7773:7794   */\n      tag_245\n        /* \"#utility.yul\":7788:7793   */\n      dup2\n        /* \"#utility.yul\":7773:7794   */\n      tag_129\n      jump\t// in\n    tag_245:\n        /* \"#utility.yul\":7768:7771   */\n      dup3\n        /* \"#utility.yul\":7761:7795   */\n      mstore\n        /* \"#utility.yul\":7692:7801   */\n      pop\n      pop\n      jump\t// out\n        /* \"#utility.yul\":7807:8017   */\n    tag_35:\n        /* \"#utility.yul\":7894:7898   */\n      0x00\n        /* \"#utility.yul\":7932:7934   */\n      0x20\n        /* \"#utility.yul\":7921:7930   */\n      dup3\n        /* \"#utility.yul\":7917:7935   */\n      add\n        /* \"#utility.yul\":7909:7935   */\n      swap1\n      pop\n        /* \"#utility.yul\":7945:8010   */\n      tag_247\n        /* \"#utility.yul\":8007:8008   */\n      0x00\n        /* \"#utility.yul\":7996:8005   */\n      dup4\n        /* \"#utility.yul\":7992:8009   */\n      add\n        /* \"#utility.yul\":7983:7989   */\n      dup5\n        /* \"#utility.yul\":7945:8010   */\n      tag_132\n      jump\t// in\n    tag_247:\n        /* \"#utility.yul\":7807:8017   */\n      swap3\n      swap2\n      pop\n      pop\n      jump\t// out\n        /* \"#utility.yul\":8023:8141   */\n    tag_133:\n        /* \"#utility.yul\":8110:8134   */\n      tag_249\n        /* \"#utility.yul\":8128:8133   */\n      dup2\n        /* \"#utility.yul\":8110:8134   */\n      tag_113\n      jump\t// in\n    tag_249:\n        /* \"#utility.yul\":8105:8108   */\n      dup3\n        /* \"#utility.yul\":8098:8135   */\n      mstore\n        /* \"#utility.yul\":8023:8141   */\n      pop\n      pop\n      jump\t// out\n        /* \"#utility.yul\":8147:8369   */\n    tag_40:\n        /* \"#utility.yul\":8240:8244   */\n      0x00\n        /* \"#utility.yul\":8278:8280   */\n      0x20\n        /* \"#utility.yul\":8267:8276   */\n      dup3\n        /* \"#utility.yul\":8263:8281   */\n      add\n        /* \"#utility.yul\":8255:8281   */\n      swap1\n      pop\n        /* \"#utility.yul\":8291:8362   */\n      tag_251\n        /* \"#utility.yul\":8359:8360   */\n      0x00\n        /* \"#utility.yul\":8348:8357   */\n      dup4\n        /* \"#utility.yul\":8344:8361   */\n      add\n        /* \"#utility.yul\":8335:8341   */\n      dup5\n        /* \"#utility.yul\":8291:8362   */\n      tag_133\n      jump\t// in\n    tag_251:\n        /* \"#utility.yul\":8147:8369   */\n      swap3\n      swap2\n      pop\n      pop\n      jump\t// out\n        /* \"#utility.yul\":8375:8884   */\n    tag_44:\n        /* \"#utility.yul\":8444:8450   */\n      0x00\n        /* \"#utility.yul\":8493:8495   */\n      0x20\n        /* \"#utility.yul\":8481:8490   */\n      dup3\n        /* \"#utility.yul\":8472:8479   */\n      dup5\n        /* \"#utility.yul\":8468:8491   */\n      sub\n        /* \"#utility.yul\":8464:8496   */\n      slt\n        /* \"#utility.yul\":8461:8580   */\n      iszero\n      tag_253\n      jumpi\n        /* \"#utility.yul\":8499:8578   */\n      tag_254\n      tag_110\n      jump\t// in\n    tag_254:\n        /* \"#utility.yul\":8461:8580   */\n    tag_253:\n        /* \"#utility.yul\":8647:8648   */\n      0x00\n        /* \"#utility.yul\":8636:8645   */\n      dup3\n        /* \"#utility.yul\":8632:8649   */\n      add\n        /* \"#utility.yul\":8619:8650   */\n      calldataload\n        /* \"#utility.yul\":8677:8695   */\n      0xffffffffffffffff\n        /* \"#utility.yul\":8669:8675   */\n      dup2\n        /* \"#utility.yul\":8666:8696   */\n      gt\n        /* \"#utility.yul\":8663:8780   */\n      iszero\n      tag_255\n      jumpi\n        /* \"#utility.yul\":8699:8778   */\n      tag_256\n      tag_111\n      jump\t// in\n    tag_256:\n        /* \"#utility.yul\":8663:8780   */\n    tag_255:\n        /* \"#utility.yul\":8804:8867   */\n      tag_257\n        /* \"#utility.yul\":8859:8866   */\n      dup5\n        /* \"#utility.yul\":8850:8856   */\n      dup3\n        /* \"#utility.yul\":8839:8848   */\n      dup6\n        /* \"#utility.yul\":8835:8857   */\n      add\n        /* \"#utility.yul\":8804:8867   */\n      tag_125\n      jump\t// in\n    tag_257:\n        /* \"#utility.yul\":8794:8867   */\n      swap2\n      pop\n        /* \"#utility.yul\":8590:8877   */\n      pop\n        /* \"#utility.yul\":8375:8884   */\n      swap3\n      swap2\n      pop\n      pop\n      jump\t// out\n        /* \"#utility.yul\":8890:9008   */\n    tag_134:\n        /* \"#utility.yul\":8977:9001   */\n      tag_259\n        /* \"#utility.yul\":8995:9000   */\n      dup2\n        /* \"#utility.yul\":8977:9001   */\n      tag_126\n      jump\t// in\n    tag_259:\n        /* \"#utility.yul\":8972:8975   */\n      dup3\n        /* \"#utility.yul\":8965:9002   */\n      mstore\n        /* \"#utility.yul\":8890:9008   */\n      pop\n      pop\n      jump\t// out\n        /* \"#utility.yul\":9014:9236   */\n    tag_54:\n        /* \"#utility.yul\":9107:9111   */\n      0x00\n        /* \"#utility.yul\":9145:9147   */\n      0x20\n        /* \"#utility.yul\":9134:9143   */\n      dup3\n        /* \"#utility.yul\":9130:9148   */\n      add\n        /* \"#utility.yul\":9122:9148   */\n      swap1\n      pop\n        /* \"#utility.yul\":9158:9229   */\n      tag_261\n        /* \"#utility.yul\":9226:9227   */\n      0x00\n        /* \"#utility.yul\":9215:9224   */\n      dup4\n        /* \"#utility.yul\":9211:9228   */\n      add\n        /* \"#utility.yul\":9202:9208   */\n      dup5\n        /* \"#utility.yul\":9158:9229   */\n      tag_134\n      jump\t// in\n    tag_261:\n        /* \"#utility.yul\":9014:9236   */\n      swap3\n      swap2\n      pop\n      pop\n      jump\t// out\n        /* \"#utility.yul\":9242:9896   */\n    tag_58:\n        /* \"#utility.yul\":9320:9326   */\n      0x00\n        /* \"#utility.yul\":9328:9334   */\n      dup1\n        /* \"#utility.yul\":9377:9379   */\n      0x40\n        /* \"#utility.yul\":9365:9374   */\n      dup4\n        /* \"#utility.yul\":9356:9363   */\n      dup6\n        /* \"#utility.yul\":9352:9375   */\n      sub\n        /* \"#utility.yul\":9348:9380   */\n      slt\n        /* \"#utility.yul\":9345:9464   */\n      iszero\n      tag_263\n      jumpi\n        /* \"#utility.yul\":9383:9462   */\n      tag_264\n      tag_110\n      jump\t// in\n    tag_264:\n        /* \"#utility.yul\":9345:9464   */\n    tag_263:\n        /* \"#utility.yul\":9531:9532   */\n      0x00\n        /* \"#utility.yul\":9520:9529   */\n      dup4\n        /* \"#utility.yul\":9516:9533   */\n      add\n        /* \"#utility.yul\":9503:9534   */\n      calldataload\n        /* \"#utility.yul\":9561:9579   */\n      0xffffffffffffffff\n        /* \"#utility.yul\":9553:9559   */\n      dup2\n        /* \"#utility.yul\":9550:9580   */\n      gt\n        /* \"#utility.yul\":9547:9664   */\n      iszero\n      tag_265\n      jumpi\n        /* \"#utility.yul\":9583:9662   */\n      tag_266\n      tag_111\n      jump\t// in\n    tag_266:\n        /* \"#utility.yul\":9547:9664   */\n    tag_265:\n        /* \"#utility.yul\":9688:9751   */\n      tag_267\n        /* \"#utility.yul\":9743:9750   */\n      dup6\n        /* \"#utility.yul\":9734:9740   */\n      dup3\n        /* \"#utility.yul\":9723:9732   */\n      dup7\n        /* \"#utility.yul\":9719:9741   */\n      add\n        /* \"#utility.yul\":9688:9751   */\n      tag_125\n      jump\t// in\n    tag_267:\n        /* \"#utility.yul\":9678:9751   */\n      swap3\n      pop\n        /* \"#utility.yul\":9474:9761   */\n      pop\n        /* \"#utility.yul\":9800:9802   */\n      0x20\n        /* \"#utility.yul\":9826:9879   */\n      tag_268\n        /* \"#utility.yul\":9871:9878   */\n      dup6\n        /* \"#utility.yul\":9862:9868   */\n      dup3\n        /* \"#utility.yul\":9851:9860   */\n      dup7\n        /* \"#utility.yul\":9847:9869   */\n      add\n        /* \"#utility.yul\":9826:9879   */\n      tag_115\n      jump\t// in\n    tag_268:\n        /* \"#utility.yul\":9816:9879   */\n      swap2\n      pop\n        /* \"#utility.yul\":9771:9889   */\n      pop\n        /* \"#utility.yul\":9242:9896   */\n      swap3\n      pop\n      swap3\n      swap1\n      pop\n      jump\t// out\n        /* \"#utility.yul\":9902:10071   */\n    tag_135:\n        /* \"#utility.yul\":9986:9997   */\n      0x00\n        /* \"#utility.yul\":10020:10026   */\n      dup3\n        /* \"#utility.yul\":10015:10018   */\n      dup3\n        /* \"#utility.yul\":10008:10027   */\n      mstore\n        /* \"#utility.yul\":10060:10064   */\n      0x20\n        /* \"#utility.yul\":10055:10058   */\n      dup3\n        /* \"#utility.yul\":10051:10065   */\n      add\n        /* \"#utility.yul\":10036:10065   */\n      swap1\n      pop\n        /* \"#utility.yul\":9902:10071   */\n      swap3\n      swap2\n      pop\n      pop\n      jump\t// out\n        /* \"#utility.yul\":10077:10259   */\n    tag_136:\n        /* \"#utility.yul\":10217:10251   */\n      0x4f776e61626c653a2063616c6c6572206973206e6f7420746865206f776e6572\n        /* \"#utility.yul\":10213:10214   */\n      0x00\n        /* \"#utility.yul\":10205:10211   */\n      dup3\n        /* \"#utility.yul\":10201:10215   */\n      add\n        /* \"#utility.yul\":10194:10252   */\n      mstore\n        /* \"#utility.yul\":10077:10259   */\n      pop\n      jump\t// out\n        /* \"#utility.yul\":10265:10631   */\n    tag_137:\n        /* \"#utility.yul\":10407:10410   */\n      0x00\n        /* \"#utility.yul\":10428:10495   */\n      tag_272\n        /* \"#utility.yul\":10492:10494   */\n      0x20\n        /* \"#utility.yul\":10487:10490   */\n      dup4\n        /* \"#utility.yul\":10428:10495   */\n      tag_135\n      jump\t// in\n    tag_272:\n        /* \"#utility.yul\":10421:10495   */\n      swap2\n      pop\n        /* \"#utility.yul\":10504:10597   */\n      tag_273\n        /* \"#utility.yul\":10593:10596   */\n      dup3\n        /* \"#utility.yul\":10504:10597   */\n      tag_136\n      jump\t// in\n    tag_273:\n        /* \"#utility.yul\":10622:10624   */\n      0x20\n        /* \"#utility.yul\":10617:10620   */\n      dup3\n        /* \"#utility.yul\":10613:10625   */\n      add\n        /* \"#utility.yul\":10606:10625   */\n      swap1\n      pop\n        /* \"#utility.yul\":10265:10631   */\n      swap2\n      swap1\n      pop\n      jump\t// out\n        /* \"#utility.yul\":10637:11056   */\n    tag_64:\n        /* \"#utility.yul\":10803:10807   */\n      0x00\n        /* \"#utility.yul\":10841:10843   */\n      0x20\n        /* \"#utility.yul\":10830:10839   */\n      dup3\n        /* \"#utility.yul\":10826:10844   */\n      add\n        /* \"#utility.yul\":10818:10844   */\n      swap1\n      pop\n        /* \"#utility.yul\":10890:10899   */\n      dup2\n        /* \"#utility.yul\":10884:10888   */\n      dup2\n        /* \"#utility.yul\":10880:10900   */\n      sub\n        /* \"#utility.yul\":10876:10877   */\n      0x00\n        /* \"#utility.yul\":10865:10874   */\n      dup4\n        /* \"#utility.yul\":10861:10878   */\n      add\n        /* \"#utility.yul\":10854:10901   */\n      mstore\n        /* \"#utility.yul\":10918:11049   */\n      tag_275\n        /* \"#utility.yul\":11044:11048   */\n      dup2\n        /* \"#utility.yul\":10918:11049   */\n      tag_137\n      jump\t// in\n    tag_275:\n        /* \"#utility.yul\":10910:11049   */\n      swap1\n      pop\n        /* \"#utility.yul\":10637:11056   */\n      swap2\n      swap1\n      pop\n      jump\t// out\n        /* \"#utility.yul\":11062:11161   */\n    tag_138:\n        /* \"#utility.yul\":11114:11120   */\n      0x00\n        /* \"#utility.yul\":11148:11153   */\n      dup2\n        /* \"#utility.yul\":11142:11154   */\n      mload\n        /* \"#utility.yul\":11132:11154   */\n      swap1\n      pop\n        /* \"#utility.yul\":11062:11161   */\n      swap2\n      swap1\n      pop\n      jump\t// out\n        /* \"#utility.yul\":11167:11474   */\n    tag_139:\n        /* \"#utility.yul\":11235:11236   */\n      0x00\n        /* \"#utility.yul\":11245:11358   */\n    tag_278:\n        /* \"#utility.yul\":11259:11265   */\n      dup4\n        /* \"#utility.yul\":11256:11257   */\n      dup2\n        /* \"#utility.yul\":11253:11266   */\n      lt\n        /* \"#utility.yul\":11245:11358   */\n      iszero\n      tag_280\n      jumpi\n        /* \"#utility.yul\":11344:11345   */\n      dup1\n        /* \"#utility.yul\":11339:11342   */\n      dup3\n        /* \"#utility.yul\":11335:11346   */\n      add\n        /* \"#utility.yul\":11329:11347   */\n      mload\n        /* \"#utility.yul\":11325:11326   */\n      dup2\n        /* \"#utility.yul\":11320:11323   */\n      dup5\n        /* \"#utility.yul\":11316:11327   */\n      add\n        /* \"#utility.yul\":11309:11348   */\n      mstore\n        /* \"#utility.yul\":11281:11283   */\n      0x20\n        /* \"#utility.yul\":11278:11279   */\n      dup2\n        /* \"#utility.yul\":11274:11284   */\n      add\n        /* \"#utility.yul\":11269:11284   */\n      swap1\n      pop\n        /* \"#utility.yul\":11245:11358   */\n      jump(tag_278)\n    tag_280:\n        /* \"#utility.yul\":11376:11382   */\n      dup4\n        /* \"#utility.yul\":11373:11374   */\n      dup2\n        /* \"#utility.yul\":11370:11383   */\n      gt\n        /* \"#utility.yul\":11367:11468   */\n      iszero\n      tag_281\n      jumpi\n        /* \"#utility.yul\":11456:11457   */\n      0x00\n        /* \"#utility.yul\":11447:11453   */\n      dup5\n        /* \"#utility.yul\":11442:11445   */\n      dup5\n        /* \"#utility.yul\":11438:11454   */\n      add\n        /* \"#utility.yul\":11431:11458   */\n      mstore\n        /* \"#utility.yul\":11367:11468   */\n    tag_281:\n        /* \"#utility.yul\":11216:11474   */\n      pop\n        /* \"#utility.yul\":11167:11474   */\n      pop\n      pop\n      pop\n      jump\t// out\n        /* \"#utility.yul\":11480:11857   */\n    tag_140:\n        /* \"#utility.yul\":11586:11589   */\n      0x00\n        /* \"#utility.yul\":11614:11653   */\n      tag_283\n        /* \"#utility.yul\":11647:11652   */\n      dup3\n        /* \"#utility.yul\":11614:11653   */\n      tag_138\n      jump\t// in\n    tag_283:\n        /* \"#utility.yul\":11669:11758   */\n      tag_284\n        /* \"#utility.yul\":11751:11757   */\n      dup2\n        /* \"#utility.yul\":11746:11749   */\n      dup6\n        /* \"#utility.yul\":11669:11758   */\n      tag_106\n      jump\t// in\n    tag_284:\n        /* \"#utility.yul\":11662:11758   */\n      swap4\n      pop\n        /* \"#utility.yul\":11767:11819   */\n      tag_285\n        /* \"#utility.yul\":11812:11818   */\n      dup2\n        /* \"#utility.yul\":11807:11810   */\n      dup6\n        /* \"#utility.yul\":11800:11804   */\n      0x20\n        /* \"#utility.yul\":11793:11798   */\n      dup7\n        /* \"#utility.yul\":11789:11805   */\n      add\n        /* \"#utility.yul\":11767:11819   */\n      tag_139\n      jump\t// in\n    tag_285:\n        /* \"#utility.yul\":11844:11850   */\n      dup1\n        /* \"#utility.yul\":11839:11842   */\n      dup5\n        /* \"#utility.yul\":11835:11851   */\n      add\n        /* \"#utility.yul\":11828:11851   */\n      swap2\n      pop\n        /* \"#utility.yul\":11590:11857   */\n      pop\n        /* \"#utility.yul\":11480:11857   */\n      swap3\n      swap2\n      pop\n      pop\n      jump\t// out\n        /* \"#utility.yul\":11863:12138   */\n    tag_68:\n        /* \"#utility.yul\":11995:11998   */\n      0x00\n        /* \"#utility.yul\":12017:12112   */\n      tag_287\n        /* \"#utility.yul\":12108:12111   */\n      dup3\n        /* \"#utility.yul\":12099:12105   */\n      dup5\n        /* \"#utility.yul\":12017:12112   */\n      tag_140\n      jump\t// in\n    tag_287:\n        /* \"#utility.yul\":12010:12112   */\n      swap2\n      pop\n        /* \"#utility.yul\":12129:12132   */\n      dup2\n        /* \"#utility.yul\":12122:12132   */\n      swap1\n      pop\n        /* \"#utility.yul\":11863:12138   */\n      swap3\n      swap2\n      pop\n      pop\n      jump\t// out\n        /* \"#utility.yul\":12144:12508   */\n    tag_141:\n        /* \"#utility.yul\":12232:12235   */\n      0x00\n        /* \"#utility.yul\":12260:12299   */\n      tag_289\n        /* \"#utility.yul\":12293:12298   */\n      dup3\n        /* \"#utility.yul\":12260:12299   */\n      tag_138\n      jump\t// in\n    tag_289:\n        /* \"#utility.yul\":12315:12386   */\n      tag_290\n        /* \"#utility.yul\":12379:12385   */\n      dup2\n        /* \"#utility.yul\":12374:12377   */\n      dup6\n        /* \"#utility.yul\":12315:12386   */\n      tag_135\n      jump\t// in\n    tag_290:\n        /* \"#utility.yul\":12308:12386   */\n      swap4\n      pop\n        /* \"#utility.yul\":12395:12447   */\n      tag_291\n        /* \"#utility.yul\":12440:12446   */\n      dup2\n        /* \"#utility.yul\":12435:12438   */\n      dup6\n        /* \"#utility.yul\":12428:12432   */\n      0x20\n        /* \"#utility.yul\":12421:12426   */\n      dup7\n        /* \"#utility.yul\":12417:12433   */\n      add\n        /* \"#utility.yul\":12395:12447   */\n      tag_139\n      jump\t// in\n    tag_291:\n        /* \"#utility.yul\":12472:12501   */\n      tag_292\n        /* \"#utility.yul\":12494:12500   */\n      dup2\n        /* \"#utility.yul\":12472:12501   */\n      tag_118\n      jump\t// in\n    tag_292:\n        /* \"#utility.yul\":12467:12470   */\n      dup5\n        /* \"#utility.yul\":12463:12502   */\n      add\n        /* \"#utility.yul\":12456:12502   */\n      swap2\n      pop\n        /* \"#utility.yul\":12236:12508   */\n      pop\n        /* \"#utility.yul\":12144:12508   */\n      swap3\n      swap2\n      pop\n      pop\n      jump\t// out\n        /* \"#utility.yul\":12514:13451   */\n    tag_72:\n        /* \"#utility.yul\":12779:12783   */\n      0x00\n        /* \"#utility.yul\":12817:12820   */\n      0xa0\n        /* \"#utility.yul\":12806:12815   */\n      dup3\n        /* \"#utility.yul\":12802:12821   */\n      add\n        /* \"#utility.yul\":12794:12821   */\n      swap1\n      pop\n        /* \"#utility.yul\":12867:12876   */\n      dup2\n        /* \"#utility.yul\":12861:12865   */\n      dup2\n        /* \"#utility.yul\":12857:12877   */\n      sub\n        /* \"#utility.yul\":12853:12854   */\n      0x00\n        /* \"#utility.yul\":12842:12851   */\n      dup4\n        /* \"#utility.yul\":12838:12855   */\n      add\n        /* \"#utility.yul\":12831:12878   */\n      mstore\n        /* \"#utility.yul\":12895:12973   */\n      tag_294\n        /* \"#utility.yul\":12968:12972   */\n      dup2\n        /* \"#utility.yul\":12959:12965   */\n      dup9\n        /* \"#utility.yul\":12895:12973   */\n      tag_141\n      jump\t// in\n    tag_294:\n        /* \"#utility.yul\":12887:12973   */\n      swap1\n      pop\n        /* \"#utility.yul\":13020:13029   */\n      dup2\n        /* \"#utility.yul\":13014:13018   */\n      dup2\n        /* \"#utility.yul\":13010:13030   */\n      sub\n        /* \"#utility.yul\":13005:13007   */\n      0x20\n        /* \"#utility.yul\":12994:13003   */\n      dup4\n        /* \"#utility.yul\":12990:13008   */\n      add\n        /* \"#utility.yul\":12983:13031   */\n      mstore\n        /* \"#utility.yul\":13048:13126   */\n      tag_295\n        /* \"#utility.yul\":13121:13125   */\n      dup2\n        /* \"#utility.yul\":13112:13118   */\n      dup8\n        /* \"#utility.yul\":13048:13126   */\n      tag_141\n      jump\t// in\n    tag_295:\n        /* \"#utility.yul\":13040:13126   */\n      swap1\n      pop\n        /* \"#utility.yul\":13136:13208   */\n      tag_296\n        /* \"#utility.yul\":13204:13206   */\n      0x40\n        /* \"#utility.yul\":13193:13202   */\n      dup4\n        /* \"#utility.yul\":13189:13207   */\n      add\n        /* \"#utility.yul\":13180:13186   */\n      dup7\n        /* \"#utility.yul\":13136:13208   */\n      tag_134\n      jump\t// in\n    tag_296:\n        /* \"#utility.yul\":13218:13290   */\n      tag_297\n        /* \"#utility.yul\":13286:13288   */\n      0x60\n        /* \"#utility.yul\":13275:13284   */\n      dup4\n        /* \"#utility.yul\":13271:13289   */\n      add\n        /* \"#utility.yul\":13262:13268   */\n      dup6\n        /* \"#utility.yul\":13218:13290   */\n      tag_134\n      jump\t// in\n    tag_297:\n        /* \"#utility.yul\":13338:13347   */\n      dup2\n        /* \"#utility.yul\":13332:13336   */\n      dup2\n        /* \"#utility.yul\":13328:13348   */\n      sub\n        /* \"#utility.yul\":13322:13325   */\n      0x80\n        /* \"#utility.yul\":13311:13320   */\n      dup4\n        /* \"#utility.yul\":13307:13326   */\n      add\n        /* \"#utility.yul\":13300:13349   */\n      mstore\n        /* \"#utility.yul\":13366:13444   */\n      tag_298\n        /* \"#utility.yul\":13439:13443   */\n      dup2\n        /* \"#utility.yul\":13430:13436   */\n      dup5\n        /* \"#utility.yul\":13366:13444   */\n      tag_141\n      jump\t// in\n    tag_298:\n        /* \"#utility.yul\":13358:13444   */\n      swap1\n      pop\n        /* \"#utility.yul\":12514:13451   */\n      swap7\n      swap6\n      pop\n      pop\n      pop\n      pop\n      pop\n      pop\n      jump\t// out\n        /* \"#utility.yul\":13457:13789   */\n    tag_81:\n        /* \"#utility.yul\":13578:13582   */\n      0x00\n        /* \"#utility.yul\":13616:13618   */\n      0x40\n        /* \"#utility.yul\":13605:13614   */\n      dup3\n        /* \"#utility.yul\":13601:13619   */\n      add\n        /* \"#utility.yul\":13593:13619   */\n      swap1\n      pop\n        /* \"#utility.yul\":13629:13700   */\n      tag_300\n        /* \"#utility.yul\":13697:13698   */\n      0x00\n        /* \"#utility.yul\":13686:13695   */\n      dup4\n        /* \"#utility.yul\":13682:13699   */\n      add\n        /* \"#utility.yul\":13673:13679   */\n      dup6\n        /* \"#utility.yul\":13629:13700   */\n      tag_133\n      jump\t// in\n    tag_300:\n        /* \"#utility.yul\":13710:13782   */\n      tag_301\n        /* \"#utility.yul\":13778:13780   */\n      0x20\n        /* \"#utility.yul\":13767:13776   */\n      dup4\n        /* \"#utility.yul\":13763:13781   */\n      add\n        /* \"#utility.yul\":13754:13760   */\n      dup5\n        /* \"#utility.yul\":13710:13782   */\n      tag_134\n      jump\t// in\n    tag_301:\n        /* \"#utility.yul\":13457:13789   */\n      swap4\n      swap3\n      pop\n      pop\n      pop\n      jump\t// out\n        /* \"#utility.yul\":13795:13888   */\n    tag_142:\n        /* \"#utility.yul\":13832:13838   */\n      0x00\n        /* \"#utility.yul\":13879:13881   */\n      0x20\n        /* \"#utility.yul\":13874:13876   */\n      0x1f\n        /* \"#utility.yul\":13867:13872   */\n      dup4\n        /* \"#utility.yul\":13863:13877   */\n      add\n        /* \"#utility.yul\":13859:13882   */\n      div\n        /* \"#utility.yul\":13849:13882   */\n      swap1\n      pop\n        /* \"#utility.yul\":13795:13888   */\n      swap2\n      swap1\n      pop\n      jump\t// out\n        /* \"#utility.yul\":13894:14001   */\n    tag_143:\n        /* \"#utility.yul\":13938:13946   */\n      0x00\n        /* \"#utility.yul\":13988:13993   */\n      dup3\n        /* \"#utility.yul\":13982:13986   */\n      dup3\n        /* \"#utility.yul\":13978:13994   */\n      shl\n        /* \"#utility.yul\":13957:13994   */\n      swap1\n      pop\n        /* \"#utility.yul\":13894:14001   */\n      swap3\n      swap2\n      pop\n      pop\n      jump\t// out\n        /* \"#utility.yul\":14007:14400   */\n    tag_144:\n        /* \"#utility.yul\":14076:14082   */\n      0x00\n        /* \"#utility.yul\":14126:14127   */\n      0x08\n        /* \"#utility.yul\":14114:14124   */\n      dup4\n        /* \"#utility.yul\":14110:14128   */\n      mul\n        /* \"#utility.yul\":14149:14246   */\n      tag_305\n        /* \"#utility.yul\":14179:14245   */\n      0xffffffffffffffffffffffffffffffffffffffffffffffffffffffffffffffff\n        /* \"#utility.yul\":14168:14177   */\n      dup3\n        /* \"#utility.yul\":14149:14246   */\n      tag_143\n      jump\t// in\n    tag_305:\n        /* \"#utility.yul\":14267:14306   */\n      tag_306\n        /* \"#utility.yul\":14297:14305   */\n      dup7\n        /* \"#utility.yul\":14286:14295   */\n      dup4\n        /* \"#utility.yul\":14267:14306   */\n      tag_143\n      jump\t// in\n    tag_306:\n        /* \"#utility.yul\":14255:14306   */\n      swap6\n      pop\n        /* \"#utility.yul\":14339:14343   */\n      dup1\n        /* \"#utility.yul\":14335:14344   */\n      not\n        /* \"#utility.yul\":14328:14333   */\n      dup5\n        /* \"#utility.yul\":14324:14345   */\n      and\n        /* \"#utility.yul\":14315:14345   */\n      swap4\n      pop\n        /* \"#utility.yul\":14388:14392   */\n      dup1\n        /* \"#utility.yul\":14378:14386   */\n      dup7\n        /* \"#utility.yul\":14374:14393   */\n      and\n        /* \"#utility.yul\":14367:14372   */\n      dup5\n        /* \"#utility.yul\":14364:14394   */\n      or\n        /* \"#utility.yul\":14354:14394   */\n      swap3\n      pop\n        /* \"#utility.yul\":14083:14400   */\n      pop\n      pop\n        /* \"#utility.yul\":14007:14400   */\n      swap4\n      swap3\n      pop\n      pop\n      pop\n      jump\t// out\n        /* \"#utility.yul\":14406:14466   */\n    tag_145:\n        /* \"#utility.yul\":14434:14437   */\n      0x00\n        /* \"#utility.yul\":14455:14460   */\n      dup2\n        /* \"#utility.yul\":14448:14460   */\n      swap1\n      pop\n        /* \"#utility.yul\":14406:14466   */\n      swap2\n      swap1\n      pop\n      jump\t// out\n        /* \"#utility.yul\":14472:14614   */\n    tag_146:\n        /* \"#utility.yul\":14522:14531   */\n      0x00\n        /* \"#utility.yul\":14555:14608   */\n      tag_309\n        /* \"#utility.yul\":14573:14607   */\n      tag_310\n        /* \"#utility.yul\":14582:14606   */\n      tag_311\n        /* \"#utility.yul\":14600:14605   */\n      dup5\n        /* \"#utility.yul\":14582:14606   */\n      tag_126\n      jump\t// in\n    tag_311:\n        /* \"#utility.yul\":14573:14607   */\n      tag_145\n      jump\t// in\n    tag_310:\n        /* \"#utility.yul\":14555:14608   */\n      tag_126\n      jump\t// in\n    tag_309:\n        /* \"#utility.yul\":14542:14608   */\n      swap1\n      pop\n        /* \"#utility.yul\":14472:14614   */\n      swap2\n      swap1\n      pop\n      jump\t// out\n        /* \"#utility.yul\":14620:14695   */\n    tag_147:\n        /* \"#utility.yul\":14663:14666   */\n      0x00\n        /* \"#utility.yul\":14684:14689   */\n      dup2\n        /* \"#utility.yul\":14677:14689   */\n      swap1\n      pop\n        /* \"#utility.yul\":14620:14695   */\n      swap2\n      swap1\n      pop\n      jump\t// out\n        /* \"#utility.yul\":14701:14970   */\n    tag_148:\n        /* \"#utility.yul\":14811:14850   */\n      tag_314\n        /* \"#utility.yul\":14842:14849   */\n      dup4\n        /* \"#utility.yul\":14811:14850   */\n      tag_146\n      jump\t// in\n    tag_314:\n        /* \"#utility.yul\":14872:14963   */\n      tag_315\n        /* \"#utility.yul\":14921:14962   */\n      tag_316\n        /* \"#utility.yul\":14945:14961   */\n      dup3\n        /* \"#utility.yul\":14921:14962   */\n      tag_147\n      jump\t// in\n    tag_316:\n        /* \"#utility.yul\":14913:14919   */\n      dup5\n        /* \"#utility.yul\":14906:14910   */\n      dup5\n        /* \"#utility.yul\":14900:14911   */\n      sload\n        /* \"#utility.yul\":14872:14963   */\n      tag_144\n      jump\t// in\n    tag_315:\n        /* \"#utility.yul\":14866:14870   */\n      dup3\n        /* \"#utility.yul\":14859:14964   */\n      sstore\n        /* \"#utility.yul\":14777:14970   */\n      pop\n        /* \"#utility.yul\":14701:14970   */\n      pop\n      pop\n      pop\n      jump\t// out\n        /* \"#utility.yul\":14976:15049   */\n    tag_149:\n        /* \"#utility.yul\":15021:15024   */\n      0x00\n        /* \"#utility.yul\":14976:15049   */\n      swap1\n      jump\t// out\n        /* \"#utility.yul\":15055:15244   */\n    tag_150:\n        /* \"#utility.yul\":15132:15164   */\n      tag_319\n      tag_149\n      jump\t// in\n    tag_319:\n        /* \"#utility.yul\":15173:15238   */\n      tag_320\n        /* \"#utility.yul\":15231:15237   */\n      dup2\n        /* \"#utility.yul\":15223:15229   */\n      dup5\n        /* \"#utility.yul\":15217:15221   */\n      dup5\n        /* \"#utility.yul\":15173:15238   */\n      tag_148\n      jump\t// in\n    tag_320:\n        /* \"#utility.yul\":15108:15244   */\n      pop\n        /* \"#utility.yul\":15055:15244   */\n      pop\n      pop\n      jump\t// out\n        /* \"#utility.yul\":15250:15436   */\n    tag_151:\n        /* \"#utility.yul\":15310:15430   */\n    tag_322:\n        /* \"#utility.yul\":15327:15330   */\n      dup2\n        /* \"#utility.yul\":15320:15325   */\n      dup2\n        /* \"#utility.yul\":15317:15331   */\n      lt\n        /* \"#utility.yul\":15310:15430   */\n      iszero\n      tag_324\n      jumpi\n        /* \"#utility.yul\":15381:15420   */\n      tag_325\n        /* \"#utility.yul\":15418:15419   */\n      0x00\n        /* \"#utility.yul\":15411:15416   */\n      dup3\n        /* \"#utility.yul\":15381:15420   */\n      tag_150\n      jump\t// in\n    tag_325:\n        /* \"#utility.yul\":15354:15355   */\n      0x01\n        /* \"#utility.yul\":15347:15352   */\n      dup2\n        /* \"#utility.yul\":15343:15356   */\n      add\n        /* \"#utility.yul\":15334:15356   */\n      swap1\n      pop\n        /* \"#utility.yul\":15310:15430   */\n      jump(tag_322)\n    tag_324:\n        /* \"#utility.yul\":15250:15436   */\n      pop\n      pop\n      jump\t// out\n        /* \"#utility.yul\":15442:15985   */\n    tag_152:\n        /* \"#utility.yul\":15543:15545   */\n      0x1f\n        /* \"#utility.yul\":15538:15541   */\n      dup3\n        /* \"#utility.yul\":15535:15546   */\n      gt\n        /* \"#utility.yul\":15532:15978   */\n      iszero\n      tag_327\n      jumpi\n        /* \"#utility.yul\":15577:15615   */\n      tag_328\n        /* \"#utility.yul\":15609:15614   */\n      dup2\n        /* \"#utility.yul\":15577:15615   */\n      tag_107\n      jump\t// in\n    tag_328:\n        /* \"#utility.yul\":15661:15690   */\n      tag_329\n        /* \"#utility.yul\":15679:15689   */\n      dup5\n        /* \"#utility.yul\":15661:15690   */\n      tag_142\n      jump\t// in\n    tag_329:\n        /* \"#utility.yul\":15651:15659   */\n      dup2\n        /* \"#utility.yul\":15647:15691   */\n      add\n        /* \"#utility.yul\":15844:15846   */\n      0x20\n        /* \"#utility.yul\":15832:15842   */\n      dup6\n        /* \"#utility.yul\":15829:15847   */\n      lt\n        /* \"#utility.yul\":15826:15875   */\n      iszero\n      tag_330\n      jumpi\n        /* \"#utility.yul\":15865:15873   */\n      dup2\n        /* \"#utility.yul\":15850:15873   */\n      swap1\n      pop\n        /* \"#utility.yul\":15826:15875   */\n    tag_330:\n        /* \"#utility.yul\":15888:15968   */\n      tag_331\n        /* \"#utility.yul\":15944:15966   */\n      tag_332\n        /* \"#utility.yul\":15962:15965   */\n      dup6\n        /* \"#utility.yul\":15944:15966   */\n      tag_142\n      jump\t// in\n    tag_332:\n        /* \"#utility.yul\":15934:15942   */\n      dup4\n        /* \"#utility.yul\":15930:15967   */\n      add\n        /* \"#utility.yul\":15917:15928   */\n      dup3\n        /* \"#utility.yul\":15888:15968   */\n      tag_151\n      jump\t// in\n    tag_331:\n        /* \"#utility.yul\":15547:15978   */\n      pop\n      pop\n        /* \"#utility.yul\":15532:15978   */\n    tag_327:\n        /* \"#utility.yul\":15442:15985   */\n      pop\n      pop\n      pop\n      jump\t// out\n        /* \"#utility.yul\":15991:16108   */\n    tag_153:\n        /* \"#utility.yul\":16045:16053   */\n      0x00\n        /* \"#utility.yul\":16095:16100   */\n      dup3\n        /* \"#utility.yul\":16089:16093   */\n      dup3\n        /* \"#utility.yul\":16085:16101   */\n      shr\n        /* \"#utility.yul\":16064:16101   */\n      swap1\n      pop\n        /* \"#utility.yul\":15991:16108   */\n      swap3\n      swap2\n      pop\n      pop\n      jump\t// out\n        /* \"#utility.yul\":16114:16283   */\n    tag_154:\n        /* \"#utility.yul\":16158:16164   */\n      0x00\n        /* \"#utility.yul\":16191:16242   */\n      tag_335\n        /* \"#utility.yul\":16239:16240   */\n      0x00\n        /* \"#utility.yul\":16235:16241   */\n      not\n        /* \"#utility.yul\":16227:16232   */\n      dup5\n        /* \"#utility.yul\":16224:16225   */\n      0x08\n        /* \"#utility.yul\":16220:16233   */\n      mul\n        /* \"#utility.yul\":16191:16242   */\n      tag_153\n      jump\t// in\n    tag_335:\n        /* \"#utility.yul\":16187:16243   */\n      not\n        /* \"#utility.yul\":16272:16276   */\n      dup1\n        /* \"#utility.yul\":16266:16270   */\n      dup4\n        /* \"#utility.yul\":16262:16277   */\n      and\n        /* \"#utility.yul\":16252:16277   */\n      swap2\n      pop\n        /* \"#utility.yul\":16165:16283   */\n      pop\n        /* \"#utility.yul\":16114:16283   */\n      swap3\n      swap2\n      pop\n      pop\n      jump\t// out\n        /* \"#utility.yul\":16288:16583   */\n    tag_155:\n        /* \"#utility.yul\":16364:16368   */\n      0x00\n        /* \"#utility.yul\":16510:16539   */\n      tag_337\n        /* \"#utility.yul\":16535:16538   */\n      dup4\n        /* \"#utility.yul\":16529:16533   */\n      dup4\n        /* \"#utility.yul\":16510:16539   */\n      tag_154\n      jump\t// in\n    tag_337:\n        /* \"#utility.yul\":16502:16539   */\n      swap2\n      pop\n        /* \"#utility.yul\":16572:16575   */\n      dup3\n        /* \"#utility.yul\":16569:16570   */\n      0x02\n        /* \"#utility.yul\":16565:16576   */\n      mul\n        /* \"#utility.yul\":16559:16563   */\n      dup3\n        /* \"#utility.yul\":16556:16577   */\n      or\n        /* \"#utility.yul\":16548:16577   */\n      swap1\n      pop\n        /* \"#utility.yul\":16288:16583   */\n      swap3\n      swap2\n      pop\n      pop\n      jump\t// out\n        /* \"#utility.yul\":16588:17983   */\n    tag_102:\n        /* \"#utility.yul\":16705:16742   */\n      tag_339\n        /* \"#utility.yul\":16738:16741   */\n      dup3\n        /* \"#utility.yul\":16705:16742   */\n      tag_138\n      jump\t// in\n    tag_339:\n        /* \"#utility.yul\":16807:16825   */\n      0xffffffffffffffff\n        /* \"#utility.yul\":16799:16805   */\n      dup2\n        /* \"#utility.yul\":16796:16826   */\n      gt\n        /* \"#utility.yul\":16793:16849   */\n      iszero\n      tag_340\n      jumpi\n        /* \"#utility.yul\":16829:16847   */\n      tag_341\n      tag_119\n      jump\t// in\n    tag_341:\n        /* \"#utility.yul\":16793:16849   */\n    tag_340:\n        /* \"#utility.yul\":16873:16911   */\n      tag_342\n        /* \"#utility.yul\":16905:16909   */\n      dup3\n        /* \"#utility.yul\":16899:16910   */\n      sload\n        /* \"#utility.yul\":16873:16911   */\n      tag_105\n      jump\t// in\n    tag_342:\n        /* \"#utility.yul\":16958:17025   */\n      tag_343\n        /* \"#utility.yul\":17018:17024   */\n      dup3\n        /* \"#utility.yul\":17010:17016   */\n      dup3\n        /* \"#utility.yul\":17004:17008   */\n      dup6\n        /* \"#utility.yul\":16958:17025   */\n      tag_152\n      jump\t// in\n    tag_343:\n        /* \"#utility.yul\":17052:17053   */\n      0x00\n        /* \"#utility.yul\":17076:17080   */\n      0x20\n        /* \"#utility.yul\":17063:17080   */\n      swap1\n      pop\n        /* \"#utility.yul\":17108:17110   */\n      0x1f\n        /* \"#utility.yul\":17100:17106   */\n      dup4\n        /* \"#utility.yul\":17097:17111   */\n      gt\n        /* \"#utility.yul\":17125:17126   */\n      0x01\n        /* \"#utility.yul\":17120:17738   */\n      dup2\n      eq\n      tag_345\n      jumpi\n        /* \"#utility.yul\":17782:17783   */\n      0x00\n        /* \"#utility.yul\":17799:17805   */\n      dup5\n        /* \"#utility.yul\":17796:17873   */\n      iszero\n      tag_346\n      jumpi\n        /* \"#utility.yul\":17848:17857   */\n      dup3\n        /* \"#utility.yul\":17843:17846   */\n      dup8\n        /* \"#utility.yul\":17839:17858   */\n      add\n        /* \"#utility.yul\":17833:17859   */\n      mload\n        /* \"#utility.yul\":17824:17859   */\n      swap1\n      pop\n        /* \"#utility.yul\":17796:17873   */\n    tag_346:\n        /* \"#utility.yul\":17899:17966   */\n      tag_347\n        /* \"#utility.yul\":17959:17965   */\n      dup6\n        /* \"#utility.yul\":17952:17957   */\n      dup3\n        /* \"#utility.yul\":17899:17966   */\n      tag_155\n      jump\t// in\n    tag_347:\n        /* \"#utility.yul\":17893:17897   */\n      dup7\n        /* \"#utility.yul\":17886:17967   */\n      sstore\n        /* \"#utility.yul\":17755:17977   */\n      pop\n        /* \"#utility.yul\":17090:17977   */\n      jump(tag_344)\n        /* \"#utility.yul\":17120:17738   */\n    tag_345:\n        /* \"#utility.yul\":17172:17176   */\n      0x1f\n        /* \"#utility.yul\":17168:17177   */\n      not\n        /* \"#utility.yul\":17160:17166   */\n      dup5\n        /* \"#utility.yul\":17156:17178   */\n      and\n        /* \"#utility.yul\":17206:17243   */\n      tag_348\n        /* \"#utility.yul\":17238:17242   */\n      dup7\n        /* \"#utility.yul\":17206:17243   */\n      tag_107\n      jump\t// in\n    tag_348:\n        /* \"#utility.yul\":17265:17266   */\n      0x00\n        /* \"#utility.yul\":17279:17487   */\n    tag_349:\n        /* \"#utility.yul\":17293:17300   */\n      dup3\n        /* \"#utility.yul\":17290:17291   */\n      dup2\n        /* \"#utility.yul\":17287:17301   */\n      lt\n        /* \"#utility.yul\":17279:17487   */\n      iszero\n      tag_351\n      jumpi\n        /* \"#utility.yul\":17372:17381   */\n      dup5\n        /* \"#utility.yul\":17367:17370   */\n      dup10\n        /* \"#utility.yul\":17363:17382   */\n      add\n        /* \"#utility.yul\":17357:17383   */\n      mload\n        /* \"#utility.yul\":17349:17355   */\n      dup3\n        /* \"#utility.yul\":17342:17384   */\n      sstore\n        /* \"#utility.yul\":17423:17424   */\n      0x01\n        /* \"#utility.yul\":17415:17421   */\n      dup3\n        /* \"#utility.yul\":17411:17425   */\n      add\n        /* \"#utility.yul\":17401:17425   */\n      swap2\n      pop\n        /* \"#utility.yul\":17470:17472   */\n      0x20\n        /* \"#utility.yul\":17459:17468   */\n      dup6\n        /* \"#utility.yul\":17455:17473   */\n      add\n        /* \"#utility.yul\":17442:17473   */\n      swap5\n      pop\n        /* \"#utility.yul\":17316:17320   */\n      0x20\n        /* \"#utility.yul\":17313:17314   */\n      dup2\n        /* \"#utility.yul\":17309:17321   */\n      add\n        /* \"#utility.yul\":17304:17321   */\n      swap1\n      pop\n        /* \"#utility.yul\":17279:17487   */\n      jump(tag_349)\n    tag_351:\n        /* \"#utility.yul\":17515:17521   */\n      dup7\n        /* \"#utility.yul\":17506:17513   */\n      dup4\n        /* \"#utility.yul\":17503:17522   */\n      lt\n        /* \"#utility.yul\":17500:17679   */\n      iszero\n      tag_352\n      jumpi\n        /* \"#utility.yul\":17573:17582   */\n      dup5\n        /* \"#utility.yul\":17568:17571   */\n      dup10\n        /* \"#utility.yul\":17564:17583   */\n      add\n        /* \"#utility.yul\":17558:17584   */\n      mload\n        /* \"#utility.yul\":17616:17664   */\n      tag_353\n        /* \"#utility.yul\":17658:17662   */\n      0x1f\n        /* \"#utility.yul\":17650:17656   */\n      dup10\n        /* \"#utility.yul\":17646:17663   */\n      and\n        /* \"#utility.yul\":17635:17644   */\n      dup3\n        /* \"#utility.yul\":17616:17664   */\n      tag_154\n      jump\t// in\n    tag_353:\n        /* \"#utility.yul\":17608:17614   */\n      dup4\n        /* \"#utility.yul\":17601:17665   */\n      sstore\n        /* \"#utility.yul\":17523:17679   */\n      pop\n        /* \"#utility.yul\":17500:17679   */\n    tag_352:\n        /* \"#utility.yul\":17725:17726   */\n      0x01\n        /* \"#utility.yul\":17721:17722   */\n      0x02\n        /* \"#utility.yul\":17713:17719   */\n      dup9\n        /* \"#utility.yul\":17709:17723   */\n      mul\n        /* \"#utility.yul\":17705:17727   */\n      add\n        /* \"#utility.yul\":17699:17703   */\n      dup9\n        /* \"#utility.yul\":17692:17728   */\n      sstore\n        /* \"#utility.yul\":17127:17738   */\n      pop\n      pop\n      pop\n        /* \"#utility.yul\":17090:17977   */\n    tag_344:\n      pop\n        /* \"#utility.yul\":16680:17983   */\n      pop\n      pop\n      pop\n        /* \"#utility.yul\":16588:17983   */\n      pop\n      pop\n      jump\t// out\n\n    auxdata: 0xa2646970667358221220efe71785e8e3880e3d40f25de552f8ac74dd7681d640a696b671ae0e84830b6864736f6c634300080f0033\n}\n",
				"bytecode": {
					"linkReferences": {},
					"object": "608060405234801561001057600080fd5b50336000806101000a81548173ffffffffffffffffffffffffffffffffffffffff021916908373ffffffffffffffffffffffffffffffffffffffff16021790555033600460006101000a81548173ffffffffffffffffffffffffffffffffffffffff021916908373ffffffffffffffffffffffffffffffffffffffff16021790555061136d806100a16000396000f3fe60806040526004361061008a5760003560e01c8063b2bdfa7b11610059578063b2bdfa7b146101e5578063e935155814610210578063e9e6533114610239578063f993185514610255578063fe49048a1461029257610147565b806313af40351461014c57806353368b1b14610175578063704b6c02146101915780638f32d59b146101ba57610147565b36610147576002600560003373ffffffffffffffffffffffffffffffffffffffff1673ffffffffffffffffffffffffffffffffffffffff1681526020019081526020016000206040516100dd9190610a93565b908152602001604051809103902060009054906101000a900460ff1661010257600080fd5b34600660003373ffffffffffffffffffffffffffffffffffffffff1673ffffffffffffffffffffffffffffffffffffffff168152602001908152602001600020819055005b600080fd5b34801561015857600080fd5b50610173600480360381019061016e9190610b1c565b6102bb565b005b61018f600480360381019061018a9190610cfd565b610345565b005b34801561019d57600080fd5b506101b860048036038101906101b39190610b1c565b6105c6565b005b3480156101c657600080fd5b506101cf610651565b6040516101dc9190610ded565b60405180910390f35b3480156101f157600080fd5b506101fa6106a8565b6040516102079190610e17565b60405180910390f35b34801561021c57600080fd5b5061023760048036038101906102329190610e32565b6106cc565b005b610253600480360381019061024e9190610b1c565b6107cb565b005b34801561026157600080fd5b5061027c60048036038101906102779190610b1c565b6107ce565b6040516102899190610e8a565b60405180910390f35b34801561029e57600080fd5b506102b960048036038101906102b49190610ea5565b6107e6565b005b6102c3610651565b610302576040517f08c379a00000000000000000000000000000000000000000000000000000000081526004016102f990610f5e565b60405180910390fd5b806000806101000a81548173ffffffffffffffffffffffffffffffffffffffff021916908373ffffffffffffffffffffffffffffffffffffffff16021790555050565b600115156001836040516103599190610fed565b908152602001604051809103902060009054906101000a900460ff1615151461038157600080fd5b600460009054906101000a900473ffffffffffffffffffffffffffffffffffffffff1673ffffffffffffffffffffffffffffffffffffffff163373ffffffffffffffffffffffffffffffffffffffff16146103db57600080fd5b7f2ee35da94d6494eb515fd8f6fffdecd1d417dbae7e370cb1f77d709473e01d59868686868660405161041295949392919061103d565b60405180910390a1600060018360405161042c9190610fed565b908152602001604051809103902060006101000a81548160ff0219169083151502179055506002826040516104619190610fed565b908152602001604051809103902060009054906101000a900460ff16156105be576104c96003836040516104959190610fed565b908152602001604051809103902060009054906101000a900473ffffffffffffffffffffffffffffffffffffffff166107cb565b7f4e5bfbe05270402fc09cd413235062e684a8396be0a33385106e3b5c34302e606003836040516104fa9190610fed565b908152602001604051809103902060009054906101000a900473ffffffffffffffffffffffffffffffffffffffff166006600060038660405161053d9190610fed565b908152602001604051809103902060009054906101000a900473ffffffffffffffffffffffffffffffffffffffff1673ffffffffffffffffffffffffffffffffffffffff1673ffffffffffffffffffffffffffffffffffffffff168152602001908152602001600020546040516105b59291906110a5565b60405180910390a15b505050505050565b6105ce610651565b61060d576040517f08c379a000000000000000000000000000000000000000000000000000000000815260040161060490610f5e565b60405180910390fd5b80600460006101000a81548173ffffffffffffffffffffffffffffffffffffffff021916908373ffffffffffffffffffffffffffffffffffffffff16021790555050565b60008060009054906101000a900473ffffffffffffffffffffffffffffffffffffffff1673ffffffffffffffffffffffffffffffffffffffff163373ffffffffffffffffffffffffffffffffffffffff1614905090565b60008054906101000a900473ffffffffffffffffffffffffffffffffffffffff1681565b600460009054906101000a900473ffffffffffffffffffffffffffffffffffffffff1673ffffffffffffffffffffffffffffffffffffffff163373ffffffffffffffffffffffffffffffffffffffff161461072657600080fd5b600180826040516107379190610fed565b908152602001604051809103902060006101000a81548160ff02191690831515021790555060018160405161076c9190610fed565b908152602001604051809103902060009054906101000a900460ff1661079157600080fd5b60016002826040516107a39190610fed565b908152602001604051809103902060006101000a81548160ff02191690831515021790555050565b50565b60066020528060005260406000206000915090505481565b600460009054906101000a900473ffffffffffffffffffffffffffffffffffffffff1673ffffffffffffffffffffffffffffffffffffffff163373ffffffffffffffffffffffffffffffffffffffff161461084057600080fd5b600180836040516108519190610fed565b908152602001604051809103902060006101000a81548160ff0219169083151502179055506001826040516108869190610fed565b908152602001604051809103902060009054906101000a900460ff166108ab57600080fd5b60016002836040516108bd9190610fed565b908152602001604051809103902060006101000a81548160ff02191690831515021790555081600560008373ffffffffffffffffffffffffffffffffffffffff1673ffffffffffffffffffffffffffffffffffffffff168152602001908152602001600020908161092e9190611265565b50806003836040516109409190610fed565b908152602001604051809103902060006101000a81548173ffffffffffffffffffffffffffffffffffffffff021916908373ffffffffffffffffffffffffffffffffffffffff1602179055505050565b7f4e487b7100000000000000000000000000000000000000000000000000000000600052602260045260246000fd5b600060028204905060018216806109d757607f821691505b6020821081036109ea576109e9610990565b5b50919050565b600081905092915050565b60008190508160005260206000209050919050565b60008154610a1d816109bf565b610a2781866109f0565b94506001821660008114610a425760018114610a5757610a8a565b60ff1983168652811515820286019350610a8a565b610a60856109fb565b60005b83811015610a8257815481890152600182019150602081019050610a63565b838801955050505b50505092915050565b6000610a9f8284610a10565b915081905092915050565b6000604051905090565b600080fd5b600080fd5b600073ffffffffffffffffffffffffffffffffffffffff82169050919050565b6000610ae982610abe565b9050919050565b610af981610ade565b8114610b0457600080fd5b50565b600081359050610b1681610af0565b92915050565b600060208284031215610b3257610b31610ab4565b5b6000610b4084828501610b07565b91505092915050565b600080fd5b600080fd5b6000601f19601f8301169050919050565b7f4e487b7100000000000000000000000000000000000000000000000000000000600052604160045260246000fd5b610b9c82610b53565b810181811067ffffffffffffffff82111715610bbb57610bba610b64565b5b80604052505050565b6000610bce610aaa565b9050610bda8282610b93565b919050565b600067ffffffffffffffff821115610bfa57610bf9610b64565b5b610c0382610b53565b9050602081019050919050565b82818337600083830152505050565b6000610c32610c2d84610bdf565b610bc4565b905082815260208101848484011115610c4e57610c4d610b4e565b5b610c59848285610c10565b509392505050565b600082601f830112610c7657610c75610b49565b5b8135610c86848260208601610c1f565b91505092915050565b6000819050919050565b610ca281610c8f565b8114610cad57600080fd5b50565b600081359050610cbf81610c99565b92915050565b60008115159050919050565b610cda81610cc5565b8114610ce557600080fd5b50565b600081359050610cf781610cd1565b92915050565b60008060008060008060c08789031215610d1a57610d19610ab4565b5b600087013567ffffffffffffffff811115610d3857610d37610ab9565b5b610d4489828a01610c61565b965050602087013567ffffffffffffffff811115610d6557610d64610ab9565b5b610d7189828a01610c61565b9550506040610d8289828a01610cb0565b9450506060610d9389828a01610cb0565b935050608087013567ffffffffffffffff811115610db457610db3610ab9565b5b610dc089828a01610c61565b92505060a0610dd189828a01610ce8565b9150509295509295509295565b610de781610cc5565b82525050565b6000602082019050610e026000830184610dde565b92915050565b610e1181610ade565b82525050565b6000602082019050610e2c6000830184610e08565b92915050565b600060208284031215610e4857610e47610ab4565b5b600082013567ffffffffffffffff811115610e6657610e65610ab9565b5b610e7284828501610c61565b91505092915050565b610e8481610c8f565b82525050565b6000602082019050610e9f6000830184610e7b565b92915050565b60008060408385031215610ebc57610ebb610ab4565b5b600083013567ffffffffffffffff811115610eda57610ed9610ab9565b5b610ee685828601610c61565b9250506020610ef785828601610b07565b9150509250929050565b600082825260208201905092915050565b7f4f776e61626c653a2063616c6c6572206973206e6f7420746865206f776e6572600082015250565b6000610f48602083610f01565b9150610f5382610f12565b602082019050919050565b60006020820190508181036000830152610f7781610f3b565b9050919050565b600081519050919050565b60005b83811015610fa7578082015181840152602081019050610f8c565b83811115610fb6576000848401525b50505050565b6000610fc782610f7e565b610fd181856109f0565b9350610fe1818560208601610f89565b80840191505092915050565b6000610ff98284610fbc565b915081905092915050565b600061100f82610f7e565b6110198185610f01565b9350611029818560208601610f89565b61103281610b53565b840191505092915050565b600060a08201905081810360008301526110578188611004565b9050818103602083015261106b8187611004565b905061107a6040830186610e7b565b6110876060830185610e7b565b81810360808301526110998184611004565b90509695505050505050565b60006040820190506110ba6000830185610e08565b6110c76020830184610e7b565b9392505050565b60006020601f8301049050919050565b600082821b905092915050565b60006008830261111b7fffffffffffffffffffffffffffffffffffffffffffffffffffffffffffffffff826110de565b61112586836110de565b95508019841693508086168417925050509392505050565b6000819050919050565b600061116261115d61115884610c8f565b61113d565b610c8f565b9050919050565b6000819050919050565b61117c83611147565b61119061118882611169565b8484546110eb565b825550505050565b600090565b6111a5611198565b6111b0818484611173565b505050565b5b818110156111d4576111c960008261119d565b6001810190506111b6565b5050565b601f821115611219576111ea816109fb565b6111f3846110ce565b81016020851015611202578190505b61121661120e856110ce565b8301826111b5565b50505b505050565b600082821c905092915050565b600061123c6000198460080261121e565b1980831691505092915050565b6000611255838361122b565b9150826002028217905092915050565b61126e82610f7e565b67ffffffffffffffff81111561128757611286610b64565b5b61129182546109bf565b61129c8282856111d8565b600060209050601f8311600181146112cf57600084156112bd578287015190505b6112c78582611249565b86555061132f565b601f1984166112dd866109fb565b60005b82811015611305578489015182556001820191506020850194506020810190506112e0565b86831015611322578489015161131e601f89168261122b565b8355505b6001600288020188555050505b50505050505056fea2646970667358221220efe71785e8e3880e3d40f25de552f8ac74dd7681d640a696b671ae0e84830b6864736f6c634300080f0033",
					"opcodes": "PUSH1 0x80 PUSH1 0x40 MSTORE CALLVALUE DUP1 ISZERO PUSH2 0x10 JUMPI PUSH1 0x0 DUP1 REVERT JUMPDEST POP CALLER PUSH1 0x0 DUP1 PUSH2 0x100 EXP DUP2 SLOAD DUP2 PUSH20 0xFFFFFFFFFFFFFFFFFFFFFFFFFFFFFFFFFFFFFFFF MUL NOT AND SWAP1 DUP4 PUSH20 0xFFFFFFFFFFFFFFFFFFFFFFFFFFFFFFFFFFFFFFFF AND MUL OR SWAP1 SSTORE POP CALLER PUSH1 0x4 PUSH1 0x0 PUSH2 0x100 EXP DUP2 SLOAD DUP2 PUSH20 0xFFFFFFFFFFFFFFFFFFFFFFFFFFFFFFFFFFFFFFFF MUL NOT AND SWAP1 DUP4 PUSH20 0xFFFFFFFFFFFFFFFFFFFFFFFFFFFFFFFFFFFFFFFF AND MUL OR SWAP1 SSTORE POP PUSH2 0x136D DUP1 PUSH2 0xA1 PUSH1 0x0 CODECOPY PUSH1 0x0 RETURN INVALID PUSH1 0x80 PUSH1 0x40 MSTORE PUSH1 0x4 CALLDATASIZE LT PUSH2 0x8A JUMPI PUSH1 0x0 CALLDATALOAD PUSH1 0xE0 SHR DUP1 PUSH4 0xB2BDFA7B GT PUSH2 0x59 JUMPI DUP1 PUSH4 0xB2BDFA7B EQ PUSH2 0x1E5 JUMPI DUP1 PUSH4 0xE9351558 EQ PUSH2 0x210 JUMPI DUP1 PUSH4 0xE9E65331 EQ PUSH2 0x239 JUMPI DUP1 PUSH4 0xF9931855 EQ PUSH2 0x255 JUMPI DUP1 PUSH4 0xFE49048A EQ PUSH2 0x292 JUMPI PUSH2 0x147 JUMP JUMPDEST DUP1 PUSH4 0x13AF4035 EQ PUSH2 0x14C JUMPI DUP1 PUSH4 0x53368B1B EQ PUSH2 0x175 JUMPI DUP1 PUSH4 0x704B6C02 EQ PUSH2 0x191 JUMPI DUP1 PUSH4 0x8F32D59B EQ PUSH2 0x1BA JUMPI PUSH2 0x147 JUMP JUMPDEST CALLDATASIZE PUSH2 0x147 JUMPI PUSH1 0x2 PUSH1 0x5 PUSH1 0x0 CALLER PUSH20 0xFFFFFFFFFFFFFFFFFFFFFFFFFFFFFFFFFFFFFFFF AND PUSH20 0xFFFFFFFFFFFFFFFFFFFFFFFFFFFFFFFFFFFFFFFF AND DUP2 MSTORE PUSH1 0x20 ADD SWAP1 DUP2 MSTORE PUSH1 0x20 ADD PUSH1 0x0 KECCAK256 PUSH1 0x40 MLOAD PUSH2 0xDD SWAP2 SWAP1 PUSH2 0xA93 JUMP JUMPDEST SWAP1 DUP2 MSTORE PUSH1 0x20 ADD PUSH1 0x40 MLOAD DUP1 SWAP2 SUB SWAP1 KECCAK256 PUSH1 0x0 SWAP1 SLOAD SWAP1 PUSH2 0x100 EXP SWAP1 DIV PUSH1 0xFF AND PUSH2 0x102 JUMPI PUSH1 0x0 DUP1 REVERT JUMPDEST CALLVALUE PUSH1 0x6 PUSH1 0x0 CALLER PUSH20 0xFFFFFFFFFFFFFFFFFFFFFFFFFFFFFFFFFFFFFFFF AND PUSH20 0xFFFFFFFFFFFFFFFFFFFFFFFFFFFFFFFFFFFFFFFF AND DUP2 MSTORE PUSH1 0x20 ADD SWAP1 DUP2 MSTORE PUSH1 0x20 ADD PUSH1 0x0 KECCAK256 DUP2 SWAP1 SSTORE STOP JUMPDEST PUSH1 0x0 DUP1 REVERT JUMPDEST CALLVALUE DUP1 ISZERO PUSH2 0x158 JUMPI PUSH1 0x0 DUP1 REVERT JUMPDEST POP PUSH2 0x173 PUSH1 0x4 DUP1 CALLDATASIZE SUB DUP2 ADD SWAP1 PUSH2 0x16E SWAP2 SWAP1 PUSH2 0xB1C JUMP JUMPDEST PUSH2 0x2BB JUMP JUMPDEST STOP JUMPDEST PUSH2 0x18F PUSH1 0x4 DUP1 CALLDATASIZE SUB DUP2 ADD SWAP1 PUSH2 0x18A SWAP2 SWAP1 PUSH2 0xCFD JUMP JUMPDEST PUSH2 0x345 JUMP JUMPDEST STOP JUMPDEST CALLVALUE DUP1 ISZERO PUSH2 0x19D JUMPI PUSH1 0x0 DUP1 REVERT JUMPDEST POP PUSH2 0x1B8 PUSH1 0x4 DUP1 CALLDATASIZE SUB DUP2 ADD SWAP1 PUSH2 0x1B3 SWAP2 SWAP1 PUSH2 0xB1C JUMP JUMPDEST PUSH2 0x5C6 JUMP JUMPDEST STOP JUMPDEST CALLVALUE DUP1 ISZERO PUSH2 0x1C6 JUMPI PUSH1 0x0 DUP1 REVERT JUMPDEST POP PUSH2 0x1CF PUSH2 0x651 JUMP JUMPDEST PUSH1 0x40 MLOAD PUSH2 0x1DC SWAP2 SWAP1 PUSH2 0xDED JUMP JUMPDEST PUSH1 0x40 MLOAD DUP1 SWAP2 SUB SWAP1 RETURN JUMPDEST CALLVALUE DUP1 ISZERO PUSH2 0x1F1 JUMPI PUSH1 0x0 DUP1 REVERT JUMPDEST POP PUSH2 0x1FA PUSH2 0x6A8 JUMP JUMPDEST PUSH1 0x40 MLOAD PUSH2 0x207 SWAP2 SWAP1 PUSH2 0xE17 JUMP JUMPDEST PUSH1 0x40 MLOAD DUP1 SWAP2 SUB SWAP1 RETURN JUMPDEST CALLVALUE DUP1 ISZERO PUSH2 0x21C JUMPI PUSH1 0x0 DUP1 REVERT JUMPDEST POP PUSH2 0x237 PUSH1 0x4 DUP1 CALLDATASIZE SUB DUP2 ADD SWAP1 PUSH2 0x232 SWAP2 SWAP1 PUSH2 0xE32 JUMP JUMPDEST PUSH2 0x6CC JUMP JUMPDEST STOP JUMPDEST PUSH2 0x253 PUSH1 0x4 DUP1 CALLDATASIZE SUB DUP2 ADD SWAP1 PUSH2 0x24E SWAP2 SWAP1 PUSH2 0xB1C JUMP JUMPDEST PUSH2 0x7CB JUMP JUMPDEST STOP JUMPDEST CALLVALUE DUP1 ISZERO PUSH2 0x261 JUMPI PUSH1 0x0 DUP1 REVERT JUMPDEST POP PUSH2 0x27C PUSH1 0x4 DUP1 CALLDATASIZE SUB DUP2 ADD SWAP1 PUSH2 0x277 SWAP2 SWAP1 PUSH2 0xB1C JUMP JUMPDEST PUSH2 0x7CE JUMP JUMPDEST PUSH1 0x40 MLOAD PUSH2 0x289 SWAP2 SWAP1 PUSH2 0xE8A JUMP JUMPDEST PUSH1 0x40 MLOAD DUP1 SWAP2 SUB SWAP1 RETURN JUMPDEST CALLVALUE DUP1 ISZERO PUSH2 0x29E JUMPI PUSH1 0x0 DUP1 REVERT JUMPDEST POP PUSH2 0x2B9 PUSH1 0x4 DUP1 CALLDATASIZE SUB DUP2 ADD SWAP1 PUSH2 0x2B4 SWAP2 SWAP1 PUSH2 0xEA5 JUMP JUMPDEST PUSH2 0x7E6 JUMP JUMPDEST STOP JUMPDEST PUSH2 0x2C3 PUSH2 0x651 JUMP JUMPDEST PUSH2 0x302 JUMPI PUSH1 0x40 MLOAD PUSH32 0x8C379A000000000000000000000000000000000000000000000000000000000 DUP2 MSTORE PUSH1 0x4 ADD PUSH2 0x2F9 SWAP1 PUSH2 0xF5E JUMP JUMPDEST PUSH1 0x40 MLOAD DUP1 SWAP2 SUB SWAP1 REVERT JUMPDEST DUP1 PUSH1 0x0 DUP1 PUSH2 0x100 EXP DUP2 SLOAD DUP2 PUSH20 0xFFFFFFFFFFFFFFFFFFFFFFFFFFFFFFFFFFFFFFFF MUL NOT AND SWAP1 DUP4 PUSH20 0xFFFFFFFFFFFFFFFFFFFFFFFFFFFFFFFFFFFFFFFF AND MUL OR SWAP1 SSTORE POP POP JUMP JUMPDEST PUSH1 0x1 ISZERO ISZERO PUSH1 0x1 DUP4 PUSH1 0x40 MLOAD PUSH2 0x359 SWAP2 SWAP1 PUSH2 0xFED JUMP JUMPDEST SWAP1 DUP2 MSTORE PUSH1 0x20 ADD PUSH1 0x40 MLOAD DUP1 SWAP2 SUB SWAP1 KECCAK256 PUSH1 0x0 SWAP1 SLOAD SWAP1 PUSH2 0x100 EXP SWAP1 DIV PUSH1 0xFF AND ISZERO ISZERO EQ PUSH2 0x381 JUMPI PUSH1 0x0 DUP1 REVERT JUMPDEST PUSH1 0x4 PUSH1 0x0 SWAP1 SLOAD SWAP1 PUSH2 0x100 EXP SWAP1 DIV PUSH20 0xFFFFFFFFFFFFFFFFFFFFFFFFFFFFFFFFFFFFFFFF AND PUSH20 0xFFFFFFFFFFFFFFFFFFFFFFFFFFFFFFFFFFFFFFFF AND CALLER PUSH20 0xFFFFFFFFFFFFFFFFFFFFFFFFFFFFFFFFFFFFFFFF AND EQ PUSH2 0x3DB JUMPI PUSH1 0x0 DUP1 REVERT JUMPDEST PUSH32 0x2EE35DA94D6494EB515FD8F6FFFDECD1D417DBAE7E370CB1F77D709473E01D59 DUP7 DUP7 DUP7 DUP7 DUP7 PUSH1 0x40 MLOAD PUSH2 0x412 SWAP6 SWAP5 SWAP4 SWAP3 SWAP2 SWAP1 PUSH2 0x103D JUMP JUMPDEST PUSH1 0x40 MLOAD DUP1 SWAP2 SUB SWAP1 LOG1 PUSH1 0x0 PUSH1 0x1 DUP4 PUSH1 0x40 MLOAD PUSH2 0x42C SWAP2 SWAP1 PUSH2 0xFED JUMP JUMPDEST SWAP1 DUP2 MSTORE PUSH1 0x20 ADD PUSH1 0x40 MLOAD DUP1 SWAP2 SUB SWAP1 KECCAK256 PUSH1 0x0 PUSH2 0x100 EXP DUP2 SLOAD DUP2 PUSH1 0xFF MUL NOT AND SWAP1 DUP4 ISZERO ISZERO MUL OR SWAP1 SSTORE POP PUSH1 0x2 DUP3 PUSH1 0x40 MLOAD PUSH2 0x461 SWAP2 SWAP1 PUSH2 0xFED JUMP JUMPDEST SWAP1 DUP2 MSTORE PUSH1 0x20 ADD PUSH1 0x40 MLOAD DUP1 SWAP2 SUB SWAP1 KECCAK256 PUSH1 0x0 SWAP1 SLOAD SWAP1 PUSH2 0x100 EXP SWAP1 DIV PUSH1 0xFF AND ISZERO PUSH2 0x5BE JUMPI PUSH2 0x4C9 PUSH1 0x3 DUP4 PUSH1 0x40 MLOAD PUSH2 0x495 SWAP2 SWAP1 PUSH2 0xFED JUMP JUMPDEST SWAP1 DUP2 MSTORE PUSH1 0x20 ADD PUSH1 0x40 MLOAD DUP1 SWAP2 SUB SWAP1 KECCAK256 PUSH1 0x0 SWAP1 SLOAD SWAP1 PUSH2 0x100 EXP SWAP1 DIV PUSH20 0xFFFFFFFFFFFFFFFFFFFFFFFFFFFFFFFFFFFFFFFF AND PUSH2 0x7CB JUMP JUMPDEST PUSH32 0x4E5BFBE05270402FC09CD413235062E684A8396BE0A33385106E3B5C34302E60 PUSH1 0x3 DUP4 PUSH1 0x40 MLOAD PUSH2 0x4FA SWAP2 SWAP1 PUSH2 0xFED JUMP JUMPDEST SWAP1 DUP2 MSTORE PUSH1 0x20 ADD PUSH1 0x40 MLOAD DUP1 SWAP2 SUB SWAP1 KECCAK256 PUSH1 0x0 SWAP1 SLOAD SWAP1 PUSH2 0x100 EXP SWAP1 DIV PUSH20 0xFFFFFFFFFFFFFFFFFFFFFFFFFFFFFFFFFFFFFFFF AND PUSH1 0x6 PUSH1 0x0 PUSH1 0x3 DUP7 PUSH1 0x40 MLOAD PUSH2 0x53D SWAP2 SWAP1 PUSH2 0xFED JUMP JUMPDEST SWAP1 DUP2 MSTORE PUSH1 0x20 ADD PUSH1 0x40 MLOAD DUP1 SWAP2 SUB SWAP1 KECCAK256 PUSH1 0x0 SWAP1 SLOAD SWAP1 PUSH2 0x100 EXP SWAP1 DIV PUSH20 0xFFFFFFFFFFFFFFFFFFFFFFFFFFFFFFFFFFFFFFFF AND PUSH20 0xFFFFFFFFFFFFFFFFFFFFFFFFFFFFFFFFFFFFFFFF AND PUSH20 0xFFFFFFFFFFFFFFFFFFFFFFFFFFFFFFFFFFFFFFFF AND DUP2 MSTORE PUSH1 0x20 ADD SWAP1 DUP2 MSTORE PUSH1 0x20 ADD PUSH1 0x0 KECCAK256 SLOAD PUSH1 0x40 MLOAD PUSH2 0x5B5 SWAP3 SWAP2 SWAP1 PUSH2 0x10A5 JUMP JUMPDEST PUSH1 0x40 MLOAD DUP1 SWAP2 SUB SWAP1 LOG1 JUMPDEST POP POP POP POP POP POP JUMP JUMPDEST PUSH2 0x5CE PUSH2 0x651 JUMP JUMPDEST PUSH2 0x60D JUMPI PUSH1 0x40 MLOAD PUSH32 0x8C379A000000000000000000000000000000000000000000000000000000000 DUP2 MSTORE PUSH1 0x4 ADD PUSH2 0x604 SWAP1 PUSH2 0xF5E JUMP JUMPDEST PUSH1 0x40 MLOAD DUP1 SWAP2 SUB SWAP1 REVERT JUMPDEST DUP1 PUSH1 0x4 PUSH1 0x0 PUSH2 0x100 EXP DUP2 SLOAD DUP2 PUSH20 0xFFFFFFFFFFFFFFFFFFFFFFFFFFFFFFFFFFFFFFFF MUL NOT AND SWAP1 DUP4 PUSH20 0xFFFFFFFFFFFFFFFFFFFFFFFFFFFFFFFFFFFFFFFF AND MUL OR SWAP1 SSTORE POP POP JUMP JUMPDEST PUSH1 0x0 DUP1 PUSH1 0x0 SWAP1 SLOAD SWAP1 PUSH2 0x100 EXP SWAP1 DIV PUSH20 0xFFFFFFFFFFFFFFFFFFFFFFFFFFFFFFFFFFFFFFFF AND PUSH20 0xFFFFFFFFFFFFFFFFFFFFFFFFFFFFFFFFFFFFFFFF AND CALLER PUSH20 0xFFFFFFFFFFFFFFFFFFFFFFFFFFFFFFFFFFFFFFFF AND EQ SWAP1 POP SWAP1 JUMP JUMPDEST PUSH1 0x0 DUP1 SLOAD SWAP1 PUSH2 0x100 EXP SWAP1 DIV PUSH20 0xFFFFFFFFFFFFFFFFFFFFFFFFFFFFFFFFFFFFFFFF AND DUP2 JUMP JUMPDEST PUSH1 0x4 PUSH1 0x0 SWAP1 SLOAD SWAP1 PUSH2 0x100 EXP SWAP1 DIV PUSH20 0xFFFFFFFFFFFFFFFFFFFFFFFFFFFFFFFFFFFFFFFF AND PUSH20 0xFFFFFFFFFFFFFFFFFFFFFFFFFFFFFFFFFFFFFFFF AND CALLER PUSH20 0xFFFFFFFFFFFFFFFFFFFFFFFFFFFFFFFFFFFFFFFF AND EQ PUSH2 0x726 JUMPI PUSH1 0x0 DUP1 REVERT JUMPDEST PUSH1 0x1 DUP1 DUP3 PUSH1 0x40 MLOAD PUSH2 0x737 SWAP2 SWAP1 PUSH2 0xFED JUMP JUMPDEST SWAP1 DUP2 MSTORE PUSH1 0x20 ADD PUSH1 0x40 MLOAD DUP1 SWAP2 SUB SWAP1 KECCAK256 PUSH1 0x0 PUSH2 0x100 EXP DUP2 SLOAD DUP2 PUSH1 0xFF MUL NOT AND SWAP1 DUP4 ISZERO ISZERO MUL OR SWAP1 SSTORE POP PUSH1 0x1 DUP2 PUSH1 0x40 MLOAD PUSH2 0x76C SWAP2 SWAP1 PUSH2 0xFED JUMP JUMPDEST SWAP1 DUP2 MSTORE PUSH1 0x20 ADD PUSH1 0x40 MLOAD DUP1 SWAP2 SUB SWAP1 KECCAK256 PUSH1 0x0 SWAP1 SLOAD SWAP1 PUSH2 0x100 EXP SWAP1 DIV PUSH1 0xFF AND PUSH2 0x791 JUMPI PUSH1 0x0 DUP1 REVERT JUMPDEST PUSH1 0x1 PUSH1 0x2 DUP3 PUSH1 0x40 MLOAD PUSH2 0x7A3 SWAP2 SWAP1 PUSH2 0xFED JUMP JUMPDEST SWAP1 DUP2 MSTORE PUSH1 0x20 ADD PUSH1 0x40 MLOAD DUP1 SWAP2 SUB SWAP1 KECCAK256 PUSH1 0x0 PUSH2 0x100 EXP DUP2 SLOAD DUP2 PUSH1 0xFF MUL NOT AND SWAP1 DUP4 ISZERO ISZERO MUL OR SWAP1 SSTORE POP POP JUMP JUMPDEST POP JUMP JUMPDEST PUSH1 0x6 PUSH1 0x20 MSTORE DUP1 PUSH1 0x0 MSTORE PUSH1 0x40 PUSH1 0x0 KECCAK256 PUSH1 0x0 SWAP2 POP SWAP1 POP SLOAD DUP2 JUMP JUMPDEST PUSH1 0x4 PUSH1 0x0 SWAP1 SLOAD SWAP1 PUSH2 0x100 EXP SWAP1 DIV PUSH20 0xFFFFFFFFFFFFFFFFFFFFFFFFFFFFFFFFFFFFFFFF AND PUSH20 0xFFFFFFFFFFFFFFFFFFFFFFFFFFFFFFFFFFFFFFFF AND CALLER PUSH20 0xFFFFFFFFFFFFFFFFFFFFFFFFFFFFFFFFFFFFFFFF AND EQ PUSH2 0x840 JUMPI PUSH1 0x0 DUP1 REVERT JUMPDEST PUSH1 0x1 DUP1 DUP4 PUSH1 0x40 MLOAD PUSH2 0x851 SWAP2 SWAP1 PUSH2 0xFED JUMP JUMPDEST SWAP1 DUP2 MSTORE PUSH1 0x20 ADD PUSH1 0x40 MLOAD DUP1 SWAP2 SUB SWAP1 KECCAK256 PUSH1 0x0 PUSH2 0x100 EXP DUP2 SLOAD DUP2 PUSH1 0xFF MUL NOT AND SWAP1 DUP4 ISZERO ISZERO MUL OR SWAP1 SSTORE POP PUSH1 0x1 DUP3 PUSH1 0x40 MLOAD PUSH2 0x886 SWAP2 SWAP1 PUSH2 0xFED JUMP JUMPDEST SWAP1 DUP2 MSTORE PUSH1 0x20 ADD PUSH1 0x40 MLOAD DUP1 SWAP2 SUB SWAP1 KECCAK256 PUSH1 0x0 SWAP1 SLOAD SWAP1 PUSH2 0x100 EXP SWAP1 DIV PUSH1 0xFF AND PUSH2 0x8AB JUMPI PUSH1 0x0 DUP1 REVERT JUMPDEST PUSH1 0x1 PUSH1 0x2 DUP4 PUSH1 0x40 MLOAD PUSH2 0x8BD SWAP2 SWAP1 PUSH2 0xFED JUMP JUMPDEST SWAP1 DUP2 MSTORE PUSH1 0x20 ADD PUSH1 0x40 MLOAD DUP1 SWAP2 SUB SWAP1 KECCAK256 PUSH1 0x0 PUSH2 0x100 EXP DUP2 SLOAD DUP2 PUSH1 0xFF MUL NOT AND SWAP1 DUP4 ISZERO ISZERO MUL OR SWAP1 SSTORE POP DUP2 PUSH1 0x5 PUSH1 0x0 DUP4 PUSH20 0xFFFFFFFFFFFFFFFFFFFFFFFFFFFFFFFFFFFFFFFF AND PUSH20 0xFFFFFFFFFFFFFFFFFFFFFFFFFFFFFFFFFFFFFFFF AND DUP2 MSTORE PUSH1 0x20 ADD SWAP1 DUP2 MSTORE PUSH1 0x20 ADD PUSH1 0x0 KECCAK256 SWAP1 DUP2 PUSH2 0x92E SWAP2 SWAP1 PUSH2 0x1265 JUMP JUMPDEST POP DUP1 PUSH1 0x3 DUP4 PUSH1 0x40 MLOAD PUSH2 0x940 SWAP2 SWAP1 PUSH2 0xFED JUMP JUMPDEST SWAP1 DUP2 MSTORE PUSH1 0x20 ADD PUSH1 0x40 MLOAD DUP1 SWAP2 SUB SWAP1 KECCAK256 PUSH1 0x0 PUSH2 0x100 EXP DUP2 SLOAD DUP2 PUSH20 0xFFFFFFFFFFFFFFFFFFFFFFFFFFFFFFFFFFFFFFFF MUL NOT AND SWAP1 DUP4 PUSH20 0xFFFFFFFFFFFFFFFFFFFFFFFFFFFFFFFFFFFFFFFF AND MUL OR SWAP1 SSTORE POP POP POP JUMP JUMPDEST PUSH32 0x4E487B7100000000000000000000000000000000000000000000000000000000 PUSH1 0x0 MSTORE PUSH1 0x22 PUSH1 0x4 MSTORE PUSH1 0x24 PUSH1 0x0 REVERT JUMPDEST PUSH1 0x0 PUSH1 0x2 DUP3 DIV SWAP1 POP PUSH1 0x1 DUP3 AND DUP1 PUSH2 0x9D7 JUMPI PUSH1 0x7F DUP3 AND SWAP2 POP JUMPDEST PUSH1 0x20 DUP3 LT DUP2 SUB PUSH2 0x9EA JUMPI PUSH2 0x9E9 PUSH2 0x990 JUMP JUMPDEST JUMPDEST POP SWAP2 SWAP1 POP JUMP JUMPDEST PUSH1 0x0 DUP2 SWAP1 POP SWAP3 SWAP2 POP POP JUMP JUMPDEST PUSH1 0x0 DUP2 SWAP1 POP DUP2 PUSH1 0x0 MSTORE PUSH1 0x20 PUSH1 0x0 KECCAK256 SWAP1 POP SWAP2 SWAP1 POP JUMP JUMPDEST PUSH1 0x0 DUP2 SLOAD PUSH2 0xA1D DUP2 PUSH2 0x9BF JUMP JUMPDEST PUSH2 0xA27 DUP2 DUP7 PUSH2 0x9F0 JUMP JUMPDEST SWAP5 POP PUSH1 0x1 DUP3 AND PUSH1 0x0 DUP2 EQ PUSH2 0xA42 JUMPI PUSH1 0x1 DUP2 EQ PUSH2 0xA57 JUMPI PUSH2 0xA8A JUMP JUMPDEST PUSH1 0xFF NOT DUP4 AND DUP7 MSTORE DUP2 ISZERO ISZERO DUP3 MUL DUP7 ADD SWAP4 POP PUSH2 0xA8A JUMP JUMPDEST PUSH2 0xA60 DUP6 PUSH2 0x9FB JUMP JUMPDEST PUSH1 0x0 JUMPDEST DUP4 DUP2 LT ISZERO PUSH2 0xA82 JUMPI DUP2 SLOAD DUP2 DUP10 ADD MSTORE PUSH1 0x1 DUP3 ADD SWAP2 POP PUSH1 0x20 DUP2 ADD SWAP1 POP PUSH2 0xA63 JUMP JUMPDEST DUP4 DUP9 ADD SWAP6 POP POP POP JUMPDEST POP POP POP SWAP3 SWAP2 POP POP JUMP JUMPDEST PUSH1 0x0 PUSH2 0xA9F DUP3 DUP5 PUSH2 0xA10 JUMP JUMPDEST SWAP2 POP DUP2 SWAP1 POP SWAP3 SWAP2 POP POP JUMP JUMPDEST PUSH1 0x0 PUSH1 0x40 MLOAD SWAP1 POP SWAP1 JUMP JUMPDEST PUSH1 0x0 DUP1 REVERT JUMPDEST PUSH1 0x0 DUP1 REVERT JUMPDEST PUSH1 0x0 PUSH20 0xFFFFFFFFFFFFFFFFFFFFFFFFFFFFFFFFFFFFFFFF DUP3 AND SWAP1 POP SWAP2 SWAP1 POP JUMP JUMPDEST PUSH1 0x0 PUSH2 0xAE9 DUP3 PUSH2 0xABE JUMP JUMPDEST SWAP1 POP SWAP2 SWAP1 POP JUMP JUMPDEST PUSH2 0xAF9 DUP2 PUSH2 0xADE JUMP JUMPDEST DUP2 EQ PUSH2 0xB04 JUMPI PUSH1 0x0 DUP1 REVERT JUMPDEST POP JUMP JUMPDEST PUSH1 0x0 DUP2 CALLDATALOAD SWAP1 POP PUSH2 0xB16 DUP2 PUSH2 0xAF0 JUMP JUMPDEST SWAP3 SWAP2 POP POP JUMP JUMPDEST PUSH1 0x0 PUSH1 0x20 DUP3 DUP5 SUB SLT ISZERO PUSH2 0xB32 JUMPI PUSH2 0xB31 PUSH2 0xAB4 JUMP JUMPDEST JUMPDEST PUSH1 0x0 PUSH2 0xB40 DUP5 DUP3 DUP6 ADD PUSH2 0xB07 JUMP JUMPDEST SWAP2 POP POP SWAP3 SWAP2 POP POP JUMP JUMPDEST PUSH1 0x0 DUP1 REVERT JUMPDEST PUSH1 0x0 DUP1 REVERT JUMPDEST PUSH1 0x0 PUSH1 0x1F NOT PUSH1 0x1F DUP4 ADD AND SWAP1 POP SWAP2 SWAP1 POP JUMP JUMPDEST PUSH32 0x4E487B7100000000000000000000000000000000000000000000000000000000 PUSH1 0x0 MSTORE PUSH1 0x41 PUSH1 0x4 MSTORE PUSH1 0x24 PUSH1 0x0 REVERT JUMPDEST PUSH2 0xB9C DUP3 PUSH2 0xB53 JUMP JUMPDEST DUP2 ADD DUP2 DUP2 LT PUSH8 0xFFFFFFFFFFFFFFFF DUP3 GT OR ISZERO PUSH2 0xBBB JUMPI PUSH2 0xBBA PUSH2 0xB64 JUMP JUMPDEST JUMPDEST DUP1 PUSH1 0x40 MSTORE POP POP POP JUMP JUMPDEST PUSH1 0x0 PUSH2 0xBCE PUSH2 0xAAA JUMP JUMPDEST SWAP1 POP PUSH2 0xBDA DUP3 DUP3 PUSH2 0xB93 JUMP JUMPDEST SWAP2 SWAP1 POP JUMP JUMPDEST PUSH1 0x0 PUSH8 0xFFFFFFFFFFFFFFFF DUP3 GT ISZERO PUSH2 0xBFA JUMPI PUSH2 0xBF9 PUSH2 0xB64 JUMP JUMPDEST JUMPDEST PUSH2 0xC03 DUP3 PUSH2 0xB53 JUMP JUMPDEST SWAP1 POP PUSH1 0x20 DUP2 ADD SWAP1 POP SWAP2 SWAP1 POP JUMP JUMPDEST DUP3 DUP2 DUP4 CALLDATACOPY PUSH1 0x0 DUP4 DUP4 ADD MSTORE POP POP POP JUMP JUMPDEST PUSH1 0x0 PUSH2 0xC32 PUSH2 0xC2D DUP5 PUSH2 0xBDF JUMP JUMPDEST PUSH2 0xBC4 JUMP JUMPDEST SWAP1 POP DUP3 DUP2 MSTORE PUSH1 0x20 DUP2 ADD DUP5 DUP5 DUP5 ADD GT ISZERO PUSH2 0xC4E JUMPI PUSH2 0xC4D PUSH2 0xB4E JUMP JUMPDEST JUMPDEST PUSH2 0xC59 DUP5 DUP3 DUP6 PUSH2 0xC10 JUMP JUMPDEST POP SWAP4 SWAP3 POP POP POP JUMP JUMPDEST PUSH1 0x0 DUP3 PUSH1 0x1F DUP4 ADD SLT PUSH2 0xC76 JUMPI PUSH2 0xC75 PUSH2 0xB49 JUMP JUMPDEST JUMPDEST DUP2 CALLDATALOAD PUSH2 0xC86 DUP5 DUP3 PUSH1 0x20 DUP7 ADD PUSH2 0xC1F JUMP JUMPDEST SWAP2 POP POP SWAP3 SWAP2 POP POP JUMP JUMPDEST PUSH1 0x0 DUP2 SWAP1 POP SWAP2 SWAP1 POP JUMP JUMPDEST PUSH2 0xCA2 DUP2 PUSH2 0xC8F JUMP JUMPDEST DUP2 EQ PUSH2 0xCAD JUMPI PUSH1 0x0 DUP1 REVERT JUMPDEST POP JUMP JUMPDEST PUSH1 0x0 DUP2 CALLDATALOAD SWAP1 POP PUSH2 0xCBF DUP2 PUSH2 0xC99 JUMP JUMPDEST SWAP3 SWAP2 POP POP JUMP JUMPDEST PUSH1 0x0 DUP2 ISZERO ISZERO SWAP1 POP SWAP2 SWAP1 POP JUMP JUMPDEST PUSH2 0xCDA DUP2 PUSH2 0xCC5 JUMP JUMPDEST DUP2 EQ PUSH2 0xCE5 JUMPI PUSH1 0x0 DUP1 REVERT JUMPDEST POP JUMP JUMPDEST PUSH1 0x0 DUP2 CALLDATALOAD SWAP1 POP PUSH2 0xCF7 DUP2 PUSH2 0xCD1 JUMP JUMPDEST SWAP3 SWAP2 POP POP JUMP JUMPDEST PUSH1 0x0 DUP1 PUSH1 0x0 DUP1 PUSH1 0x0 DUP1 PUSH1 0xC0 DUP8 DUP10 SUB SLT ISZERO PUSH2 0xD1A JUMPI PUSH2 0xD19 PUSH2 0xAB4 JUMP JUMPDEST JUMPDEST PUSH1 0x0 DUP8 ADD CALLDATALOAD PUSH8 0xFFFFFFFFFFFFFFFF DUP2 GT ISZERO PUSH2 0xD38 JUMPI PUSH2 0xD37 PUSH2 0xAB9 JUMP JUMPDEST JUMPDEST PUSH2 0xD44 DUP10 DUP3 DUP11 ADD PUSH2 0xC61 JUMP JUMPDEST SWAP7 POP POP PUSH1 0x20 DUP8 ADD CALLDATALOAD PUSH8 0xFFFFFFFFFFFFFFFF DUP2 GT ISZERO PUSH2 0xD65 JUMPI PUSH2 0xD64 PUSH2 0xAB9 JUMP JUMPDEST JUMPDEST PUSH2 0xD71 DUP10 DUP3 DUP11 ADD PUSH2 0xC61 JUMP JUMPDEST SWAP6 POP POP PUSH1 0x40 PUSH2 0xD82 DUP10 DUP3 DUP11 ADD PUSH2 0xCB0 JUMP JUMPDEST SWAP5 POP POP PUSH1 0x60 PUSH2 0xD93 DUP10 DUP3 DUP11 ADD PUSH2 0xCB0 JUMP JUMPDEST SWAP4 POP POP PUSH1 0x80 DUP8 ADD CALLDATALOAD PUSH8 0xFFFFFFFFFFFFFFFF DUP2 GT ISZERO PUSH2 0xDB4 JUMPI PUSH2 0xDB3 PUSH2 0xAB9 JUMP JUMPDEST JUMPDEST PUSH2 0xDC0 DUP10 DUP3 DUP11 ADD PUSH2 0xC61 JUMP JUMPDEST SWAP3 POP POP PUSH1 0xA0 PUSH2 0xDD1 DUP10 DUP3 DUP11 ADD PUSH2 0xCE8 JUMP JUMPDEST SWAP2 POP POP SWAP3 SWAP6 POP SWAP3 SWAP6 POP SWAP3 SWAP6 JUMP JUMPDEST PUSH2 0xDE7 DUP2 PUSH2 0xCC5 JUMP JUMPDEST DUP3 MSTORE POP POP JUMP JUMPDEST PUSH1 0x0 PUSH1 0x20 DUP3 ADD SWAP1 POP PUSH2 0xE02 PUSH1 0x0 DUP4 ADD DUP5 PUSH2 0xDDE JUMP JUMPDEST SWAP3 SWAP2 POP POP JUMP JUMPDEST PUSH2 0xE11 DUP2 PUSH2 0xADE JUMP JUMPDEST DUP3 MSTORE POP POP JUMP JUMPDEST PUSH1 0x0 PUSH1 0x20 DUP3 ADD SWAP1 POP PUSH2 0xE2C PUSH1 0x0 DUP4 ADD DUP5 PUSH2 0xE08 JUMP JUMPDEST SWAP3 SWAP2 POP POP JUMP JUMPDEST PUSH1 0x0 PUSH1 0x20 DUP3 DUP5 SUB SLT ISZERO PUSH2 0xE48 JUMPI PUSH2 0xE47 PUSH2 0xAB4 JUMP JUMPDEST JUMPDEST PUSH1 0x0 DUP3 ADD CALLDATALOAD PUSH8 0xFFFFFFFFFFFFFFFF DUP2 GT ISZERO PUSH2 0xE66 JUMPI PUSH2 0xE65 PUSH2 0xAB9 JUMP JUMPDEST JUMPDEST PUSH2 0xE72 DUP5 DUP3 DUP6 ADD PUSH2 0xC61 JUMP JUMPDEST SWAP2 POP POP SWAP3 SWAP2 POP POP JUMP JUMPDEST PUSH2 0xE84 DUP2 PUSH2 0xC8F JUMP JUMPDEST DUP3 MSTORE POP POP JUMP JUMPDEST PUSH1 0x0 PUSH1 0x20 DUP3 ADD SWAP1 POP PUSH2 0xE9F PUSH1 0x0 DUP4 ADD DUP5 PUSH2 0xE7B JUMP JUMPDEST SWAP3 SWAP2 POP POP JUMP JUMPDEST PUSH1 0x0 DUP1 PUSH1 0x40 DUP4 DUP6 SUB SLT ISZERO PUSH2 0xEBC JUMPI PUSH2 0xEBB PUSH2 0xAB4 JUMP JUMPDEST JUMPDEST PUSH1 0x0 DUP4 ADD CALLDATALOAD PUSH8 0xFFFFFFFFFFFFFFFF DUP2 GT ISZERO PUSH2 0xEDA JUMPI PUSH2 0xED9 PUSH2 0xAB9 JUMP JUMPDEST JUMPDEST PUSH2 0xEE6 DUP6 DUP3 DUP7 ADD PUSH2 0xC61 JUMP JUMPDEST SWAP3 POP POP PUSH1 0x20 PUSH2 0xEF7 DUP6 DUP3 DUP7 ADD PUSH2 0xB07 JUMP JUMPDEST SWAP2 POP POP SWAP3 POP SWAP3 SWAP1 POP JUMP JUMPDEST PUSH1 0x0 DUP3 DUP3 MSTORE PUSH1 0x20 DUP3 ADD SWAP1 POP SWAP3 SWAP2 POP POP JUMP JUMPDEST PUSH32 0x4F776E61626C653A2063616C6C6572206973206E6F7420746865206F776E6572 PUSH1 0x0 DUP3 ADD MSTORE POP JUMP JUMPDEST PUSH1 0x0 PUSH2 0xF48 PUSH1 0x20 DUP4 PUSH2 0xF01 JUMP JUMPDEST SWAP2 POP PUSH2 0xF53 DUP3 PUSH2 0xF12 JUMP JUMPDEST PUSH1 0x20 DUP3 ADD SWAP1 POP SWAP2 SWAP1 POP JUMP JUMPDEST PUSH1 0x0 PUSH1 0x20 DUP3 ADD SWAP1 POP DUP2 DUP2 SUB PUSH1 0x0 DUP4 ADD MSTORE PUSH2 0xF77 DUP2 PUSH2 0xF3B JUMP JUMPDEST SWAP1 POP SWAP2 SWAP1 POP JUMP JUMPDEST PUSH1 0x0 DUP2 MLOAD SWAP1 POP SWAP2 SWAP1 POP JUMP JUMPDEST PUSH1 0x0 JUMPDEST DUP4 DUP2 LT ISZERO PUSH2 0xFA7 JUMPI DUP1 DUP3 ADD MLOAD DUP2 DUP5 ADD MSTORE PUSH1 0x20 DUP2 ADD SWAP1 POP PUSH2 0xF8C JUMP JUMPDEST DUP4 DUP2 GT ISZERO PUSH2 0xFB6 JUMPI PUSH1 0x0 DUP5 DUP5 ADD MSTORE JUMPDEST POP POP POP POP JUMP JUMPDEST PUSH1 0x0 PUSH2 0xFC7 DUP3 PUSH2 0xF7E JUMP JUMPDEST PUSH2 0xFD1 DUP2 DUP6 PUSH2 0x9F0 JUMP JUMPDEST SWAP4 POP PUSH2 0xFE1 DUP2 DUP6 PUSH1 0x20 DUP7 ADD PUSH2 0xF89 JUMP JUMPDEST DUP1 DUP5 ADD SWAP2 POP POP SWAP3 SWAP2 POP POP JUMP JUMPDEST PUSH1 0x0 PUSH2 0xFF9 DUP3 DUP5 PUSH2 0xFBC JUMP JUMPDEST SWAP2 POP DUP2 SWAP1 POP SWAP3 SWAP2 POP POP JUMP JUMPDEST PUSH1 0x0 PUSH2 0x100F DUP3 PUSH2 0xF7E JUMP JUMPDEST PUSH2 0x1019 DUP2 DUP6 PUSH2 0xF01 JUMP JUMPDEST SWAP4 POP PUSH2 0x1029 DUP2 DUP6 PUSH1 0x20 DUP7 ADD PUSH2 0xF89 JUMP JUMPDEST PUSH2 0x1032 DUP2 PUSH2 0xB53 JUMP JUMPDEST DUP5 ADD SWAP2 POP POP SWAP3 SWAP2 POP POP JUMP JUMPDEST PUSH1 0x0 PUSH1 0xA0 DUP3 ADD SWAP1 POP DUP2 DUP2 SUB PUSH1 0x0 DUP4 ADD MSTORE PUSH2 0x1057 DUP2 DUP9 PUSH2 0x1004 JUMP JUMPDEST SWAP1 POP DUP2 DUP2 SUB PUSH1 0x20 DUP4 ADD MSTORE PUSH2 0x106B DUP2 DUP8 PUSH2 0x1004 JUMP JUMPDEST SWAP1 POP PUSH2 0x107A PUSH1 0x40 DUP4 ADD DUP7 PUSH2 0xE7B JUMP JUMPDEST PUSH2 0x1087 PUSH1 0x60 DUP4 ADD DUP6 PUSH2 0xE7B JUMP JUMPDEST DUP2 DUP2 SUB PUSH1 0x80 DUP4 ADD MSTORE PUSH2 0x1099 DUP2 DUP5 PUSH2 0x1004 JUMP JUMPDEST SWAP1 POP SWAP7 SWAP6 POP POP POP POP POP POP JUMP JUMPDEST PUSH1 0x0 PUSH1 0x40 DUP3 ADD SWAP1 POP PUSH2 0x10BA PUSH1 0x0 DUP4 ADD DUP6 PUSH2 0xE08 JUMP JUMPDEST PUSH2 0x10C7 PUSH1 0x20 DUP4 ADD DUP5 PUSH2 0xE7B JUMP JUMPDEST SWAP4 SWAP3 POP POP POP JUMP JUMPDEST PUSH1 0x0 PUSH1 0x20 PUSH1 0x1F DUP4 ADD DIV SWAP1 POP SWAP2 SWAP1 POP JUMP JUMPDEST PUSH1 0x0 DUP3 DUP3 SHL SWAP1 POP SWAP3 SWAP2 POP POP JUMP JUMPDEST PUSH1 0x0 PUSH1 0x8 DUP4 MUL PUSH2 0x111B PUSH32 0xFFFFFFFFFFFFFFFFFFFFFFFFFFFFFFFFFFFFFFFFFFFFFFFFFFFFFFFFFFFFFFFF DUP3 PUSH2 0x10DE JUMP JUMPDEST PUSH2 0x1125 DUP7 DUP4 PUSH2 0x10DE JUMP JUMPDEST SWAP6 POP DUP1 NOT DUP5 AND SWAP4 POP DUP1 DUP7 AND DUP5 OR SWAP3 POP POP POP SWAP4 SWAP3 POP POP POP JUMP JUMPDEST PUSH1 0x0 DUP2 SWAP1 POP SWAP2 SWAP1 POP JUMP JUMPDEST PUSH1 0x0 PUSH2 0x1162 PUSH2 0x115D PUSH2 0x1158 DUP5 PUSH2 0xC8F JUMP JUMPDEST PUSH2 0x113D JUMP JUMPDEST PUSH2 0xC8F JUMP JUMPDEST SWAP1 POP SWAP2 SWAP1 POP JUMP JUMPDEST PUSH1 0x0 DUP2 SWAP1 POP SWAP2 SWAP1 POP JUMP JUMPDEST PUSH2 0x117C DUP4 PUSH2 0x1147 JUMP JUMPDEST PUSH2 0x1190 PUSH2 0x1188 DUP3 PUSH2 0x1169 JUMP JUMPDEST DUP5 DUP5 SLOAD PUSH2 0x10EB JUMP JUMPDEST DUP3 SSTORE POP POP POP POP JUMP JUMPDEST PUSH1 0x0 SWAP1 JUMP JUMPDEST PUSH2 0x11A5 PUSH2 0x1198 JUMP JUMPDEST PUSH2 0x11B0 DUP2 DUP5 DUP5 PUSH2 0x1173 JUMP JUMPDEST POP POP POP JUMP JUMPDEST JUMPDEST DUP2 DUP2 LT ISZERO PUSH2 0x11D4 JUMPI PUSH2 0x11C9 PUSH1 0x0 DUP3 PUSH2 0x119D JUMP JUMPDEST PUSH1 0x1 DUP2 ADD SWAP1 POP PUSH2 0x11B6 JUMP JUMPDEST POP POP JUMP JUMPDEST PUSH1 0x1F DUP3 GT ISZERO PUSH2 0x1219 JUMPI PUSH2 0x11EA DUP2 PUSH2 0x9FB JUMP JUMPDEST PUSH2 0x11F3 DUP5 PUSH2 0x10CE JUMP JUMPDEST DUP2 ADD PUSH1 0x20 DUP6 LT ISZERO PUSH2 0x1202 JUMPI DUP2 SWAP1 POP JUMPDEST PUSH2 0x1216 PUSH2 0x120E DUP6 PUSH2 0x10CE JUMP JUMPDEST DUP4 ADD DUP3 PUSH2 0x11B5 JUMP JUMPDEST POP POP JUMPDEST POP POP POP JUMP JUMPDEST PUSH1 0x0 DUP3 DUP3 SHR SWAP1 POP SWAP3 SWAP2 POP POP JUMP JUMPDEST PUSH1 0x0 PUSH2 0x123C PUSH1 0x0 NOT DUP5 PUSH1 0x8 MUL PUSH2 0x121E JUMP JUMPDEST NOT DUP1 DUP4 AND SWAP2 POP POP SWAP3 SWAP2 POP POP JUMP JUMPDEST PUSH1 0x0 PUSH2 0x1255 DUP4 DUP4 PUSH2 0x122B JUMP JUMPDEST SWAP2 POP DUP3 PUSH1 0x2 MUL DUP3 OR SWAP1 POP SWAP3 SWAP2 POP POP JUMP JUMPDEST PUSH2 0x126E DUP3 PUSH2 0xF7E JUMP JUMPDEST PUSH8 0xFFFFFFFFFFFFFFFF DUP2 GT ISZERO PUSH2 0x1287 JUMPI PUSH2 0x1286 PUSH2 0xB64 JUMP JUMPDEST JUMPDEST PUSH2 0x1291 DUP3 SLOAD PUSH2 0x9BF JUMP JUMPDEST PUSH2 0x129C DUP3 DUP3 DUP6 PUSH2 0x11D8 JUMP JUMPDEST PUSH1 0x0 PUSH1 0x20 SWAP1 POP PUSH1 0x1F DUP4 GT PUSH1 0x1 DUP2 EQ PUSH2 0x12CF JUMPI PUSH1 0x0 DUP5 ISZERO PUSH2 0x12BD JUMPI DUP3 DUP8 ADD MLOAD SWAP1 POP JUMPDEST PUSH2 0x12C7 DUP6 DUP3 PUSH2 0x1249 JUMP JUMPDEST DUP7 SSTORE POP PUSH2 0x132F JUMP JUMPDEST PUSH1 0x1F NOT DUP5 AND PUSH2 0x12DD DUP7 PUSH2 0x9FB JUMP JUMPDEST PUSH1 0x0 JUMPDEST DUP3 DUP2 LT ISZERO PUSH2 0x1305 JUMPI DUP5 DUP10 ADD MLOAD DUP3 SSTORE PUSH1 0x1 DUP3 ADD SWAP2 POP PUSH1 0x20 DUP6 ADD SWAP5 POP PUSH1 0x20 DUP2 ADD SWAP1 POP PUSH2 0x12E0 JUMP JUMPDEST DUP7 DUP4 LT ISZERO PUSH2 0x1322 JUMPI DUP5 DUP10 ADD MLOAD PUSH2 0x131E PUSH1 0x1F DUP10 AND DUP3 PUSH2 0x122B JUMP JUMPDEST DUP4 SSTORE POP JUMPDEST PUSH1 0x1 PUSH1 0x2 DUP9 MUL ADD DUP9 SSTORE POP POP POP JUMPDEST POP POP POP POP POP POP JUMP INVALID LOG2 PUSH5 0x6970667358 0x22 SLT KECCAK256 0xEF 0xE7 OR DUP6 0xE8 0xE3 DUP9 0xE RETURNDATASIZE BLOCKHASH CALLCODE 0x5D 0xE5 MSTORE 0xF8 0xAC PUSH21 0xDD7681D640A696B671AE0E84830B6864736F6C6343 STOP ADDMOD 0xF STOP CALLER "
				},
				"gasEstimates": {
					"creation": {
						"codeDepositCost": "994600",
						"executionCost": "49566",
						"totalCost": "1044166"
					},
					"external": {
						"_owner()": "2511",
						"isOwner()": "2563",
						"issueCertificate(string,string,uint256,uint256,string,bool)": "infinite",
						"returnStakedEther(address)": "475",
						"setAdmin(address)": "26972",
						"setOwner(address)": "26928",
						"stakedAmount(address)": "2880",
						"updateCertificateRecipient(string)": "infinite",
						"updateCertificateRecipientForStaking(string,address)": "infinite"
					}
				},
				"methodIdentifiers": {
					"_owner()": "b2bdfa7b",
					"isOwner()": "8f32d59b",
					"issueCertificate(string,string,uint256,uint256,string,bool)": "53368b1b",
					"returnStakedEther(address)": "e9e65331",
					"setAdmin(address)": "704b6c02",
					"setOwner(address)": "13af4035",
					"stakedAmount(address)": "f9931855",
					"updateCertificateRecipient(string)": "e9351558",
					"updateCertificateRecipientForStaking(string,address)": "fe49048a"
				}
			},
			"storageLayout": {
				"storage": [
					{
						"astId": 240,
						"contract": "certificateissuer.sol:CertificateIssuer",
						"label": "_owner",
						"offset": 0,
						"slot": "0",
						"type": "t_address"
					},
					{
						"astId": 17,
						"contract": "certificateissuer.sol:CertificateIssuer",
						"label": "cauthValid",
						"offset": 0,
						"slot": "1",
						"type": "t_mapping(t_string_memory_ptr,t_bool)"
					},
					{
						"astId": 21,
						"contract": "certificateissuer.sol:CertificateIssuer",
						"label": "cauthToCanStake",
						"offset": 0,
						"slot": "2",
						"type": "t_mapping(t_string_memory_ptr,t_bool)"
					},
					{
						"astId": 25,
						"contract": "certificateissuer.sol:CertificateIssuer",
						"label": "cauthToAddress",
						"offset": 0,
						"slot": "3",
						"type": "t_mapping(t_string_memory_ptr,t_address)"
					},
					{
						"astId": 27,
						"contract": "certificateissuer.sol:CertificateIssuer",
						"label": "_admin",
						"offset": 0,
						"slot": "4",
						"type": "t_address"
					},
					{
						"astId": 31,
						"contract": "certificateissuer.sol:CertificateIssuer",
						"label": "adressToCauth",
						"offset": 0,
						"slot": "5",
						"type": "t_mapping(t_address,t_string_storage)"
					},
					{
						"astId": 35,
						"contract": "certificateissuer.sol:CertificateIssuer",
						"label": "stakedAmount",
						"offset": 0,
						"slot": "6",
						"type": "t_mapping(t_address,t_uint256)"
					}
				],
				"types": {
					"t_address": {
						"encoding": "inplace",
						"label": "address",
						"numberOfBytes": "20"
					},
					"t_bool": {
						"encoding": "inplace",
						"label": "bool",
						"numberOfBytes": "1"
					},
					"t_mapping(t_address,t_string_storage)": {
						"encoding": "mapping",
						"key": "t_address",
						"label": "mapping(address => string)",
						"numberOfBytes": "32",
						"value": "t_string_storage"
					},
					"t_mapping(t_address,t_uint256)": {
						"encoding": "mapping",
						"key": "t_address",
						"label": "mapping(address => uint256)",
						"numberOfBytes": "32",
						"value": "t_uint256"
					},
					"t_mapping(t_string_memory_ptr,t_address)": {
						"encoding": "mapping",
						"key": "t_string_memory_ptr",
						"label": "mapping(string => address)",
						"numberOfBytes": "32",
						"value": "t_address"
					},
					"t_mapping(t_string_memory_ptr,t_bool)": {
						"encoding": "mapping",
						"key": "t_string_memory_ptr",
						"label": "mapping(string => bool)",
						"numberOfBytes": "32",
						"value": "t_bool"
					},
					"t_string_memory_ptr": {
						"encoding": "bytes",
						"label": "string",
						"numberOfBytes": "32"
					},
					"t_string_storage": {
						"encoding": "bytes",
						"label": "string",
						"numberOfBytes": "32"
					},
					"t_uint256": {
						"encoding": "inplace",
						"label": "uint256",
						"numberOfBytes": "32"
					}
				}
			},
			"userdoc": {
				"kind": "user",
				"methods": {},
				"version": 1
			}
		}
	}
}