{
	"certificateissuer.sol": {
		"CertificateIssuer": {
			"abi": [
				{
					"inputs": [],
					"stateMutability": "nonpayable",
					"type": "constructor"
				},
				{
					"inputs": [],
					"name": "_owner",
					"outputs": [
						{
							"internalType": "address",
							"name": "",
							"type": "address"
						}
					],
					"stateMutability": "view",
					"type": "function"
				},
				{
					"inputs": [],
					"name": "isOwner",
					"outputs": [
						{
							"internalType": "bool",
							"name": "",
							"type": "bool"
						}
					],
					"stateMutability": "view",
					"type": "function"
				},
				{
					"inputs": [
						{
							"internalType": "string",
							"name": "_name",
							"type": "string"
						},
						{
							"internalType": "string",
							"name": "_nation",
							"type": "string"
						},
						{
							"internalType": "uint256",
							"name": "_nid",
							"type": "uint256"
						},
						{
							"internalType": "uint256",
							"name": "institute",
							"type": "uint256"
						},
						{
							"internalType": "string",
							"name": "cauth",
							"type": "string"
						}
					],
					"name": "issueCertificate",
					"outputs": [],
					"stateMutability": "payable",
					"type": "function"
				},
				{
					"inputs": [
						{
							"internalType": "address",
							"name": "_adminParameter",
							"type": "address"
						}
					],
					"name": "setAdmin",
					"outputs": [],
					"stateMutability": "nonpayable",
					"type": "function"
				},
				{
					"inputs": [
						{
							"internalType": "address",
							"name": "_newOwner",
							"type": "address"
						}
					],
					"name": "setOwner",
					"outputs": [],
					"stateMutability": "nonpayable",
					"type": "function"
				},
				{
					"inputs": [
						{
							"internalType": "string",
							"name": "cauth",
							"type": "string"
						}
					],
					"name": "updateCertificateRecipient",
					"outputs": [],
					"stateMutability": "nonpayable",
					"type": "function"
				}
			],
			"devdoc": {
				"kind": "dev",
				"methods": {
					"isOwner()": {
						"details": "Returns true if the caller is the current owner."
					}
				},
				"version": 1
			},
			"evm": {
				"assembly": "    /* \"certificateissuer.sol\":89:2319  contract CertificateIssuer is Ownable{... */\n  mstore(0x40, 0x80)\n    /* \"certificateissuer.sol\":186:240  constructor (){... */\n  callvalue\n  dup1\n  iszero\n  tag_1\n  jumpi\n  0x00\n  dup1\n  revert\ntag_1:\n  pop\n    /* \"ownable.sol\":150:160  msg.sender */\n  caller\n    /* \"ownable.sol\":141:147  _owner */\n  0x00\n  dup1\n    /* \"ownable.sol\":141:160  _owner = msg.sender */\n  0x0100\n  exp\n  dup2\n  sload\n  dup2\n  0xffffffffffffffffffffffffffffffffffffffff\n  mul\n  not\n  and\n  swap1\n  dup4\n  0xffffffffffffffffffffffffffffffffffffffff\n  and\n  mul\n  or\n  swap1\n  sstore\n  pop\n    /* \"certificateissuer.sol\":220:230  msg.sender */\n  caller\n    /* \"certificateissuer.sol\":211:217  _admin */\n  0x02\n  0x00\n    /* \"certificateissuer.sol\":211:230  _admin = msg.sender */\n  0x0100\n  exp\n  dup2\n  sload\n  dup2\n  0xffffffffffffffffffffffffffffffffffffffff\n  mul\n  not\n  and\n  swap1\n  dup4\n  0xffffffffffffffffffffffffffffffffffffffff\n  and\n  mul\n  or\n  swap1\n  sstore\n  pop\n    /* \"certificateissuer.sol\":89:2319  contract CertificateIssuer is Ownable{... */\n  dataSize(sub_0)\n  dup1\n  dataOffset(sub_0)\n  0x00\n  codecopy\n  0x00\n  return\nstop\n\nsub_0: assembly {\n        /* \"certificateissuer.sol\":89:2319  contract CertificateIssuer is Ownable{... */\n      mstore(0x40, 0x80)\n      jumpi(tag_1, lt(calldatasize, 0x04))\n      shr(0xe0, calldataload(0x00))\n      dup1\n      0x13af4035\n      eq\n      tag_2\n      jumpi\n      dup1\n      0x3f59c657\n      eq\n      tag_3\n      jumpi\n      dup1\n      0x704b6c02\n      eq\n      tag_4\n      jumpi\n      dup1\n      0x8f32d59b\n      eq\n      tag_5\n      jumpi\n      dup1\n      0xb2bdfa7b\n      eq\n      tag_6\n      jumpi\n      dup1\n      0xe9351558\n      eq\n      tag_7\n      jumpi\n    tag_1:\n      0x00\n      dup1\n      revert\n        /* \"ownable.sol\":551:643  function setOwner(address _newOwner) public onlyOwner {... */\n    tag_2:\n      callvalue\n      dup1\n      iszero\n      tag_8\n      jumpi\n      0x00\n      dup1\n      revert\n    tag_8:\n      pop\n      tag_9\n      0x04\n      dup1\n      calldatasize\n      sub\n      dup2\n      add\n      swap1\n      tag_10\n      swap2\n      swap1\n      tag_11\n      jump\t// in\n    tag_10:\n      tag_12\n      jump\t// in\n    tag_9:\n      stop\n        /* \"certificateissuer.sol\":1780:2134  function issueCertificate(string memory _name , string memory _nation, uint _nid , uint institute,string memory cauth ) external payable {... */\n    tag_3:\n      tag_13\n      0x04\n      dup1\n      calldatasize\n      sub\n      dup2\n      add\n      swap1\n      tag_14\n      swap2\n      swap1\n      tag_15\n      jump\t// in\n    tag_14:\n      tag_16\n      jump\t// in\n    tag_13:\n      stop\n        /* \"certificateissuer.sol\":483:587  function setAdmin(address _adminParameter) public onlyOwner{... */\n    tag_4:\n      callvalue\n      dup1\n      iszero\n      tag_17\n      jumpi\n      0x00\n      dup1\n      revert\n    tag_17:\n      pop\n      tag_18\n      0x04\n      dup1\n      calldatasize\n      sub\n      dup2\n      add\n      swap1\n      tag_19\n      swap2\n      swap1\n      tag_11\n      jump\t// in\n    tag_19:\n      tag_20\n      jump\t// in\n    tag_18:\n      stop\n        /* \"ownable.sol\":451:545  function isOwner() public view returns (bool) {... */\n    tag_5:\n      callvalue\n      dup1\n      iszero\n      tag_21\n      jumpi\n      0x00\n      dup1\n      revert\n    tag_21:\n      pop\n      tag_22\n      tag_23\n      jump\t// in\n    tag_22:\n      mload(0x40)\n      tag_24\n      swap2\n      swap1\n      tag_25\n      jump\t// in\n    tag_24:\n      mload(0x40)\n      dup1\n      swap2\n      sub\n      swap1\n      return\n        /* \"ownable.sol\":85:106  address public _owner */\n    tag_6:\n      callvalue\n      dup1\n      iszero\n      tag_26\n      jumpi\n      0x00\n      dup1\n      revert\n    tag_26:\n      pop\n      tag_27\n      tag_28\n      jump\t// in\n    tag_27:\n      mload(0x40)\n      tag_29\n      swap2\n      swap1\n      tag_30\n      jump\t// in\n    tag_29:\n      mload(0x40)\n      dup1\n      swap2\n      sub\n      swap1\n      return\n        /* \"certificateissuer.sol\":1618:1772  function updateCertificateRecipient(string memory cauth) public  {... */\n    tag_7:\n      callvalue\n      dup1\n      iszero\n      tag_31\n      jumpi\n      0x00\n      dup1\n      revert\n    tag_31:\n      pop\n      tag_32\n      0x04\n      dup1\n      calldatasize\n      sub\n      dup2\n      add\n      swap1\n      tag_33\n      swap2\n      swap1\n      tag_34\n      jump\t// in\n    tag_33:\n      tag_35\n      jump\t// in\n    tag_32:\n      stop\n        /* \"ownable.sol\":551:643  function setOwner(address _newOwner) public onlyOwner {... */\n    tag_12:\n        /* \"ownable.sol\":299:308  isOwner() */\n      tag_37\n        /* \"ownable.sol\":299:306  isOwner */\n      tag_23\n        /* \"ownable.sol\":299:308  isOwner() */\n      jump\t// in\n    tag_37:\n        /* \"ownable.sol\":291:345  require(isOwner(), \"Ownable: caller is not the owner\") */\n      tag_38\n      jumpi\n      mload(0x40)\n      0x08c379a000000000000000000000000000000000000000000000000000000000\n      dup2\n      mstore\n      0x04\n      add\n      tag_39\n      swap1\n      tag_40\n      jump\t// in\n    tag_39:\n      mload(0x40)\n      dup1\n      swap2\n      sub\n      swap1\n      revert\n    tag_38:\n        /* \"ownable.sol\":625:634  _newOwner */\n      dup1\n        /* \"ownable.sol\":616:622  _owner */\n      0x00\n      dup1\n        /* \"ownable.sol\":616:634  _owner = _newOwner */\n      0x0100\n      exp\n      dup2\n      sload\n      dup2\n      0xffffffffffffffffffffffffffffffffffffffff\n      mul\n      not\n      and\n      swap1\n      dup4\n      0xffffffffffffffffffffffffffffffffffffffff\n      and\n      mul\n      or\n      swap1\n      sstore\n      pop\n        /* \"ownable.sol\":551:643  function setOwner(address _newOwner) public onlyOwner {... */\n      pop\n      jump\t// out\n        /* \"certificateissuer.sol\":1780:2134  function issueCertificate(string memory _name , string memory _nation, uint _nid , uint institute,string memory cauth ) external payable {... */\n    tag_16:\n        /* \"certificateissuer.sol\":2011:2015  true */\n      0x01\n        /* \"certificateissuer.sol\":1990:2015  cauthValid[cauth] == true */\n      iszero\n      iszero\n        /* \"certificateissuer.sol\":1990:2000  cauthValid */\n      0x01\n        /* \"certificateissuer.sol\":2001:2006  cauth */\n      dup3\n        /* \"certificateissuer.sol\":1990:2007  cauthValid[cauth] */\n      mload(0x40)\n      tag_43\n      swap2\n      swap1\n      tag_44\n      jump\t// in\n    tag_43:\n      swap1\n      dup2\n      mstore\n      0x20\n      add\n      mload(0x40)\n      dup1\n      swap2\n      sub\n      swap1\n      keccak256\n      0x00\n      swap1\n      sload\n      swap1\n      0x0100\n      exp\n      swap1\n      div\n      0xff\n      and\n        /* \"certificateissuer.sol\":1990:2015  cauthValid[cauth] == true */\n      iszero\n      iszero\n      eq\n        /* \"certificateissuer.sol\":1982:2016  require(cauthValid[cauth] == true) */\n      tag_45\n      jumpi\n      0x00\n      dup1\n      revert\n    tag_45:\n        /* \"certificateissuer.sol\":2119:2124  false */\n      0x00\n        /* \"certificateissuer.sol\":2099:2109  cauthValid */\n      0x01\n        /* \"certificateissuer.sol\":2110:2115  cauth */\n      dup3\n        /* \"certificateissuer.sol\":2099:2116  cauthValid[cauth] */\n      mload(0x40)\n      tag_46\n      swap2\n      swap1\n      tag_44\n      jump\t// in\n    tag_46:\n      swap1\n      dup2\n      mstore\n      0x20\n      add\n      mload(0x40)\n      dup1\n      swap2\n      sub\n      swap1\n      keccak256\n      0x00\n        /* \"certificateissuer.sol\":2099:2124  cauthValid[cauth] = false */\n      0x0100\n      exp\n      dup2\n      sload\n      dup2\n      0xff\n      mul\n      not\n      and\n      swap1\n      dup4\n      iszero\n      iszero\n      mul\n      or\n      swap1\n      sstore\n      pop\n        /* \"certificateissuer.sol\":1780:2134  function issueCertificate(string memory _name , string memory _nation, uint _nid , uint institute,string memory cauth ) external payable {... */\n      pop\n      pop\n      pop\n      pop\n      pop\n      jump\t// out\n        /* \"certificateissuer.sol\":483:587  function setAdmin(address _adminParameter) public onlyOwner{... */\n    tag_20:\n        /* \"ownable.sol\":299:308  isOwner() */\n      tag_48\n        /* \"ownable.sol\":299:306  isOwner */\n      tag_23\n        /* \"ownable.sol\":299:308  isOwner() */\n      jump\t// in\n    tag_48:\n        /* \"ownable.sol\":291:345  require(isOwner(), \"Ownable: caller is not the owner\") */\n      tag_49\n      jumpi\n      mload(0x40)\n      0x08c379a000000000000000000000000000000000000000000000000000000000\n      dup2\n      mstore\n      0x04\n      add\n      tag_50\n      swap1\n      tag_40\n      jump\t// in\n    tag_50:\n      mload(0x40)\n      dup1\n      swap2\n      sub\n      swap1\n      revert\n    tag_49:\n        /* \"certificateissuer.sol\":562:577  _adminParameter */\n      dup1\n        /* \"certificateissuer.sol\":553:559  _admin */\n      0x02\n      0x00\n        /* \"certificateissuer.sol\":553:577  _admin = _adminParameter */\n      0x0100\n      exp\n      dup2\n      sload\n      dup2\n      0xffffffffffffffffffffffffffffffffffffffff\n      mul\n      not\n      and\n      swap1\n      dup4\n      0xffffffffffffffffffffffffffffffffffffffff\n      and\n      mul\n      or\n      swap1\n      sstore\n      pop\n        /* \"certificateissuer.sol\":483:587  function setAdmin(address _adminParameter) public onlyOwner{... */\n      pop\n      jump\t// out\n        /* \"ownable.sol\":451:545  function isOwner() public view returns (bool) {... */\n    tag_23:\n        /* \"ownable.sol\":491:495  bool */\n      0x00\n        /* \"ownable.sol\":530:536  _owner */\n      dup1\n      0x00\n      swap1\n      sload\n      swap1\n      0x0100\n      exp\n      swap1\n      div\n      0xffffffffffffffffffffffffffffffffffffffff\n      and\n        /* \"ownable.sol\":516:536  msg.sender == _owner */\n      0xffffffffffffffffffffffffffffffffffffffff\n      and\n        /* \"ownable.sol\":516:526  msg.sender */\n      caller\n        /* \"ownable.sol\":516:536  msg.sender == _owner */\n      0xffffffffffffffffffffffffffffffffffffffff\n      and\n      eq\n        /* \"ownable.sol\":508:537  return (msg.sender == _owner) */\n      swap1\n      pop\n        /* \"ownable.sol\":451:545  function isOwner() public view returns (bool) {... */\n      swap1\n      jump\t// out\n        /* \"ownable.sol\":85:106  address public _owner */\n    tag_28:\n      0x00\n      dup1\n      sload\n      swap1\n      0x0100\n      exp\n      swap1\n      div\n      0xffffffffffffffffffffffffffffffffffffffff\n      and\n      dup2\n      jump\t// out\n        /* \"certificateissuer.sol\":1618:1772  function updateCertificateRecipient(string memory cauth) public  {... */\n    tag_35:\n        /* \"certificateissuer.sol\":1716:1722  _admin */\n      0x02\n      0x00\n      swap1\n      sload\n      swap1\n      0x0100\n      exp\n      swap1\n      div\n      0xffffffffffffffffffffffffffffffffffffffff\n      and\n        /* \"certificateissuer.sol\":1702:1722  msg.sender == _admin */\n      0xffffffffffffffffffffffffffffffffffffffff\n      and\n        /* \"certificateissuer.sol\":1702:1712  msg.sender */\n      caller\n        /* \"certificateissuer.sol\":1702:1722  msg.sender == _admin */\n      0xffffffffffffffffffffffffffffffffffffffff\n      and\n      eq\n        /* \"certificateissuer.sol\":1694:1723  require(msg.sender == _admin) */\n      tag_54\n      jumpi\n      0x00\n      dup1\n      revert\n    tag_54:\n        /* \"certificateissuer.sol\":1755:1759  true */\n      0x01\n        /* \"certificateissuer.sol\":1735:1745  cauthValid */\n      dup1\n        /* \"certificateissuer.sol\":1746:1751  cauth */\n      dup3\n        /* \"certificateissuer.sol\":1735:1752  cauthValid[cauth] */\n      mload(0x40)\n      tag_55\n      swap2\n      swap1\n      tag_44\n      jump\t// in\n    tag_55:\n      swap1\n      dup2\n      mstore\n      0x20\n      add\n      mload(0x40)\n      dup1\n      swap2\n      sub\n      swap1\n      keccak256\n      0x00\n        /* \"certificateissuer.sol\":1735:1759  cauthValid[cauth] = true */\n      0x0100\n      exp\n      dup2\n      sload\n      dup2\n      0xff\n      mul\n      not\n      and\n      swap1\n      dup4\n      iszero\n      iszero\n      mul\n      or\n      swap1\n      sstore\n      pop\n        /* \"certificateissuer.sol\":1618:1772  function updateCertificateRecipient(string memory cauth) public  {... */\n      pop\n      jump\t// out\n        /* \"#utility.yul\":7:82   */\n    tag_56:\n        /* \"#utility.yul\":40:46   */\n      0x00\n        /* \"#utility.yul\":73:75   */\n      0x40\n        /* \"#utility.yul\":67:76   */\n      mload\n        /* \"#utility.yul\":57:76   */\n      swap1\n      pop\n        /* \"#utility.yul\":7:82   */\n      swap1\n      jump\t// out\n        /* \"#utility.yul\":88:205   */\n    tag_57:\n        /* \"#utility.yul\":197:198   */\n      0x00\n        /* \"#utility.yul\":194:195   */\n      dup1\n        /* \"#utility.yul\":187:199   */\n      revert\n        /* \"#utility.yul\":211:328   */\n    tag_58:\n        /* \"#utility.yul\":320:321   */\n      0x00\n        /* \"#utility.yul\":317:318   */\n      dup1\n        /* \"#utility.yul\":310:322   */\n      revert\n        /* \"#utility.yul\":334:460   */\n    tag_59:\n        /* \"#utility.yul\":371:378   */\n      0x00\n        /* \"#utility.yul\":411:453   */\n      0xffffffffffffffffffffffffffffffffffffffff\n        /* \"#utility.yul\":404:409   */\n      dup3\n        /* \"#utility.yul\":400:454   */\n      and\n        /* \"#utility.yul\":389:454   */\n      swap1\n      pop\n        /* \"#utility.yul\":334:460   */\n      swap2\n      swap1\n      pop\n      jump\t// out\n        /* \"#utility.yul\":466:562   */\n    tag_60:\n        /* \"#utility.yul\":503:510   */\n      0x00\n        /* \"#utility.yul\":532:556   */\n      tag_92\n        /* \"#utility.yul\":550:555   */\n      dup3\n        /* \"#utility.yul\":532:556   */\n      tag_59\n      jump\t// in\n    tag_92:\n        /* \"#utility.yul\":521:556   */\n      swap1\n      pop\n        /* \"#utility.yul\":466:562   */\n      swap2\n      swap1\n      pop\n      jump\t// out\n        /* \"#utility.yul\":568:690   */\n    tag_61:\n        /* \"#utility.yul\":641:665   */\n      tag_94\n        /* \"#utility.yul\":659:664   */\n      dup2\n        /* \"#utility.yul\":641:665   */\n      tag_60\n      jump\t// in\n    tag_94:\n        /* \"#utility.yul\":634:639   */\n      dup2\n        /* \"#utility.yul\":631:666   */\n      eq\n        /* \"#utility.yul\":621:684   */\n      tag_95\n      jumpi\n        /* \"#utility.yul\":680:681   */\n      0x00\n        /* \"#utility.yul\":677:678   */\n      dup1\n        /* \"#utility.yul\":670:682   */\n      revert\n        /* \"#utility.yul\":621:684   */\n    tag_95:\n        /* \"#utility.yul\":568:690   */\n      pop\n      jump\t// out\n        /* \"#utility.yul\":696:835   */\n    tag_62:\n        /* \"#utility.yul\":742:747   */\n      0x00\n        /* \"#utility.yul\":780:786   */\n      dup2\n        /* \"#utility.yul\":767:787   */\n      calldataload\n        /* \"#utility.yul\":758:787   */\n      swap1\n      pop\n        /* \"#utility.yul\":796:829   */\n      tag_97\n        /* \"#utility.yul\":823:828   */\n      dup2\n        /* \"#utility.yul\":796:829   */\n      tag_61\n      jump\t// in\n    tag_97:\n        /* \"#utility.yul\":696:835   */\n      swap3\n      swap2\n      pop\n      pop\n      jump\t// out\n        /* \"#utility.yul\":841:1170   */\n    tag_11:\n        /* \"#utility.yul\":900:906   */\n      0x00\n        /* \"#utility.yul\":949:951   */\n      0x20\n        /* \"#utility.yul\":937:946   */\n      dup3\n        /* \"#utility.yul\":928:935   */\n      dup5\n        /* \"#utility.yul\":924:947   */\n      sub\n        /* \"#utility.yul\":920:952   */\n      slt\n        /* \"#utility.yul\":917:1036   */\n      iszero\n      tag_99\n      jumpi\n        /* \"#utility.yul\":955:1034   */\n      tag_100\n      tag_57\n      jump\t// in\n    tag_100:\n        /* \"#utility.yul\":917:1036   */\n    tag_99:\n        /* \"#utility.yul\":1075:1076   */\n      0x00\n        /* \"#utility.yul\":1100:1153   */\n      tag_101\n        /* \"#utility.yul\":1145:1152   */\n      dup5\n        /* \"#utility.yul\":1136:1142   */\n      dup3\n        /* \"#utility.yul\":1125:1134   */\n      dup6\n        /* \"#utility.yul\":1121:1143   */\n      add\n        /* \"#utility.yul\":1100:1153   */\n      tag_62\n      jump\t// in\n    tag_101:\n        /* \"#utility.yul\":1090:1153   */\n      swap2\n      pop\n        /* \"#utility.yul\":1046:1163   */\n      pop\n        /* \"#utility.yul\":841:1170   */\n      swap3\n      swap2\n      pop\n      pop\n      jump\t// out\n        /* \"#utility.yul\":1176:1293   */\n    tag_63:\n        /* \"#utility.yul\":1285:1286   */\n      0x00\n        /* \"#utility.yul\":1282:1283   */\n      dup1\n        /* \"#utility.yul\":1275:1287   */\n      revert\n        /* \"#utility.yul\":1299:1416   */\n    tag_64:\n        /* \"#utility.yul\":1408:1409   */\n      0x00\n        /* \"#utility.yul\":1405:1406   */\n      dup1\n        /* \"#utility.yul\":1398:1410   */\n      revert\n        /* \"#utility.yul\":1422:1524   */\n    tag_65:\n        /* \"#utility.yul\":1463:1469   */\n      0x00\n        /* \"#utility.yul\":1514:1516   */\n      0x1f\n        /* \"#utility.yul\":1510:1517   */\n      not\n        /* \"#utility.yul\":1505:1507   */\n      0x1f\n        /* \"#utility.yul\":1498:1503   */\n      dup4\n        /* \"#utility.yul\":1494:1508   */\n      add\n        /* \"#utility.yul\":1490:1518   */\n      and\n        /* \"#utility.yul\":1480:1518   */\n      swap1\n      pop\n        /* \"#utility.yul\":1422:1524   */\n      swap2\n      swap1\n      pop\n      jump\t// out\n        /* \"#utility.yul\":1530:1710   */\n    tag_66:\n        /* \"#utility.yul\":1578:1655   */\n      0x4e487b7100000000000000000000000000000000000000000000000000000000\n        /* \"#utility.yul\":1575:1576   */\n      0x00\n        /* \"#utility.yul\":1568:1656   */\n      mstore\n        /* \"#utility.yul\":1675:1679   */\n      0x41\n        /* \"#utility.yul\":1672:1673   */\n      0x04\n        /* \"#utility.yul\":1665:1680   */\n      mstore\n        /* \"#utility.yul\":1699:1703   */\n      0x24\n        /* \"#utility.yul\":1696:1697   */\n      0x00\n        /* \"#utility.yul\":1689:1704   */\n      revert\n        /* \"#utility.yul\":1716:1997   */\n    tag_67:\n        /* \"#utility.yul\":1799:1826   */\n      tag_107\n        /* \"#utility.yul\":1821:1825   */\n      dup3\n        /* \"#utility.yul\":1799:1826   */\n      tag_65\n      jump\t// in\n    tag_107:\n        /* \"#utility.yul\":1791:1797   */\n      dup2\n        /* \"#utility.yul\":1787:1827   */\n      add\n        /* \"#utility.yul\":1929:1935   */\n      dup2\n        /* \"#utility.yul\":1917:1927   */\n      dup2\n        /* \"#utility.yul\":1914:1936   */\n      lt\n        /* \"#utility.yul\":1893:1911   */\n      0xffffffffffffffff\n        /* \"#utility.yul\":1881:1891   */\n      dup3\n        /* \"#utility.yul\":1878:1912   */\n      gt\n        /* \"#utility.yul\":1875:1937   */\n      or\n        /* \"#utility.yul\":1872:1960   */\n      iszero\n      tag_108\n      jumpi\n        /* \"#utility.yul\":1940:1958   */\n      tag_109\n      tag_66\n      jump\t// in\n    tag_109:\n        /* \"#utility.yul\":1872:1960   */\n    tag_108:\n        /* \"#utility.yul\":1980:1990   */\n      dup1\n        /* \"#utility.yul\":1976:1978   */\n      0x40\n        /* \"#utility.yul\":1969:1991   */\n      mstore\n        /* \"#utility.yul\":1759:1997   */\n      pop\n        /* \"#utility.yul\":1716:1997   */\n      pop\n      pop\n      jump\t// out\n        /* \"#utility.yul\":2003:2132   */\n    tag_68:\n        /* \"#utility.yul\":2037:2043   */\n      0x00\n        /* \"#utility.yul\":2064:2084   */\n      tag_111\n      tag_56\n      jump\t// in\n    tag_111:\n        /* \"#utility.yul\":2054:2084   */\n      swap1\n      pop\n        /* \"#utility.yul\":2093:2126   */\n      tag_112\n        /* \"#utility.yul\":2121:2125   */\n      dup3\n        /* \"#utility.yul\":2113:2119   */\n      dup3\n        /* \"#utility.yul\":2093:2126   */\n      tag_67\n      jump\t// in\n    tag_112:\n        /* \"#utility.yul\":2003:2132   */\n      swap2\n      swap1\n      pop\n      jump\t// out\n        /* \"#utility.yul\":2138:2446   */\n    tag_69:\n        /* \"#utility.yul\":2200:2204   */\n      0x00\n        /* \"#utility.yul\":2290:2308   */\n      0xffffffffffffffff\n        /* \"#utility.yul\":2282:2288   */\n      dup3\n        /* \"#utility.yul\":2279:2309   */\n      gt\n        /* \"#utility.yul\":2276:2332   */\n      iszero\n      tag_114\n      jumpi\n        /* \"#utility.yul\":2312:2330   */\n      tag_115\n      tag_66\n      jump\t// in\n    tag_115:\n        /* \"#utility.yul\":2276:2332   */\n    tag_114:\n        /* \"#utility.yul\":2350:2379   */\n      tag_116\n        /* \"#utility.yul\":2372:2378   */\n      dup3\n        /* \"#utility.yul\":2350:2379   */\n      tag_65\n      jump\t// in\n    tag_116:\n        /* \"#utility.yul\":2342:2379   */\n      swap1\n      pop\n        /* \"#utility.yul\":2434:2438   */\n      0x20\n        /* \"#utility.yul\":2428:2432   */\n      dup2\n        /* \"#utility.yul\":2424:2439   */\n      add\n        /* \"#utility.yul\":2416:2439   */\n      swap1\n      pop\n        /* \"#utility.yul\":2138:2446   */\n      swap2\n      swap1\n      pop\n      jump\t// out\n        /* \"#utility.yul\":2452:2606   */\n    tag_70:\n        /* \"#utility.yul\":2536:2542   */\n      dup3\n        /* \"#utility.yul\":2531:2534   */\n      dup2\n        /* \"#utility.yul\":2526:2529   */\n      dup4\n        /* \"#utility.yul\":2513:2543   */\n      calldatacopy\n        /* \"#utility.yul\":2598:2599   */\n      0x00\n        /* \"#utility.yul\":2589:2595   */\n      dup4\n        /* \"#utility.yul\":2584:2587   */\n      dup4\n        /* \"#utility.yul\":2580:2596   */\n      add\n        /* \"#utility.yul\":2573:2600   */\n      mstore\n        /* \"#utility.yul\":2452:2606   */\n      pop\n      pop\n      pop\n      jump\t// out\n        /* \"#utility.yul\":2612:3024   */\n    tag_71:\n        /* \"#utility.yul\":2690:2695   */\n      0x00\n        /* \"#utility.yul\":2715:2781   */\n      tag_119\n        /* \"#utility.yul\":2731:2780   */\n      tag_120\n        /* \"#utility.yul\":2773:2779   */\n      dup5\n        /* \"#utility.yul\":2731:2780   */\n      tag_69\n      jump\t// in\n    tag_120:\n        /* \"#utility.yul\":2715:2781   */\n      tag_68\n      jump\t// in\n    tag_119:\n        /* \"#utility.yul\":2706:2781   */\n      swap1\n      pop\n        /* \"#utility.yul\":2804:2810   */\n      dup3\n        /* \"#utility.yul\":2797:2802   */\n      dup2\n        /* \"#utility.yul\":2790:2811   */\n      mstore\n        /* \"#utility.yul\":2842:2846   */\n      0x20\n        /* \"#utility.yul\":2835:2840   */\n      dup2\n        /* \"#utility.yul\":2831:2847   */\n      add\n        /* \"#utility.yul\":2880:2883   */\n      dup5\n        /* \"#utility.yul\":2871:2877   */\n      dup5\n        /* \"#utility.yul\":2866:2869   */\n      dup5\n        /* \"#utility.yul\":2862:2878   */\n      add\n        /* \"#utility.yul\":2859:2884   */\n      gt\n        /* \"#utility.yul\":2856:2968   */\n      iszero\n      tag_121\n      jumpi\n        /* \"#utility.yul\":2887:2966   */\n      tag_122\n      tag_64\n      jump\t// in\n    tag_122:\n        /* \"#utility.yul\":2856:2968   */\n    tag_121:\n        /* \"#utility.yul\":2977:3018   */\n      tag_123\n        /* \"#utility.yul\":3011:3017   */\n      dup5\n        /* \"#utility.yul\":3006:3009   */\n      dup3\n        /* \"#utility.yul\":3001:3004   */\n      dup6\n        /* \"#utility.yul\":2977:3018   */\n      tag_70\n      jump\t// in\n    tag_123:\n        /* \"#utility.yul\":2696:3024   */\n      pop\n        /* \"#utility.yul\":2612:3024   */\n      swap4\n      swap3\n      pop\n      pop\n      pop\n      jump\t// out\n        /* \"#utility.yul\":3044:3384   */\n    tag_72:\n        /* \"#utility.yul\":3100:3105   */\n      0x00\n        /* \"#utility.yul\":3149:3152   */\n      dup3\n        /* \"#utility.yul\":3142:3146   */\n      0x1f\n        /* \"#utility.yul\":3134:3140   */\n      dup4\n        /* \"#utility.yul\":3130:3147   */\n      add\n        /* \"#utility.yul\":3126:3153   */\n      slt\n        /* \"#utility.yul\":3116:3238   */\n      tag_125\n      jumpi\n        /* \"#utility.yul\":3157:3236   */\n      tag_126\n      tag_63\n      jump\t// in\n    tag_126:\n        /* \"#utility.yul\":3116:3238   */\n    tag_125:\n        /* \"#utility.yul\":3274:3280   */\n      dup2\n        /* \"#utility.yul\":3261:3281   */\n      calldataload\n        /* \"#utility.yul\":3299:3378   */\n      tag_127\n        /* \"#utility.yul\":3374:3377   */\n      dup5\n        /* \"#utility.yul\":3366:3372   */\n      dup3\n        /* \"#utility.yul\":3359:3363   */\n      0x20\n        /* \"#utility.yul\":3351:3357   */\n      dup7\n        /* \"#utility.yul\":3347:3364   */\n      add\n        /* \"#utility.yul\":3299:3378   */\n      tag_71\n      jump\t// in\n    tag_127:\n        /* \"#utility.yul\":3290:3378   */\n      swap2\n      pop\n        /* \"#utility.yul\":3106:3384   */\n      pop\n        /* \"#utility.yul\":3044:3384   */\n      swap3\n      swap2\n      pop\n      pop\n      jump\t// out\n        /* \"#utility.yul\":3390:3467   */\n    tag_73:\n        /* \"#utility.yul\":3427:3434   */\n      0x00\n        /* \"#utility.yul\":3456:3461   */\n      dup2\n        /* \"#utility.yul\":3445:3461   */\n      swap1\n      pop\n        /* \"#utility.yul\":3390:3467   */\n      swap2\n      swap1\n      pop\n      jump\t// out\n        /* \"#utility.yul\":3473:3595   */\n    tag_74:\n        /* \"#utility.yul\":3546:3570   */\n      tag_130\n        /* \"#utility.yul\":3564:3569   */\n      dup2\n        /* \"#utility.yul\":3546:3570   */\n      tag_73\n      jump\t// in\n    tag_130:\n        /* \"#utility.yul\":3539:3544   */\n      dup2\n        /* \"#utility.yul\":3536:3571   */\n      eq\n        /* \"#utility.yul\":3526:3589   */\n      tag_131\n      jumpi\n        /* \"#utility.yul\":3585:3586   */\n      0x00\n        /* \"#utility.yul\":3582:3583   */\n      dup1\n        /* \"#utility.yul\":3575:3587   */\n      revert\n        /* \"#utility.yul\":3526:3589   */\n    tag_131:\n        /* \"#utility.yul\":3473:3595   */\n      pop\n      jump\t// out\n        /* \"#utility.yul\":3601:3740   */\n    tag_75:\n        /* \"#utility.yul\":3647:3652   */\n      0x00\n        /* \"#utility.yul\":3685:3691   */\n      dup2\n        /* \"#utility.yul\":3672:3692   */\n      calldataload\n        /* \"#utility.yul\":3663:3692   */\n      swap1\n      pop\n        /* \"#utility.yul\":3701:3734   */\n      tag_133\n        /* \"#utility.yul\":3728:3733   */\n      dup2\n        /* \"#utility.yul\":3701:3734   */\n      tag_74\n      jump\t// in\n    tag_133:\n        /* \"#utility.yul\":3601:3740   */\n      swap3\n      swap2\n      pop\n      pop\n      jump\t// out\n        /* \"#utility.yul\":3746:5197   */\n    tag_15:\n        /* \"#utility.yul\":3871:3877   */\n      0x00\n        /* \"#utility.yul\":3879:3885   */\n      dup1\n        /* \"#utility.yul\":3887:3893   */\n      0x00\n        /* \"#utility.yul\":3895:3901   */\n      dup1\n        /* \"#utility.yul\":3903:3909   */\n      0x00\n        /* \"#utility.yul\":3952:3955   */\n      0xa0\n        /* \"#utility.yul\":3940:3949   */\n      dup7\n        /* \"#utility.yul\":3931:3938   */\n      dup9\n        /* \"#utility.yul\":3927:3950   */\n      sub\n        /* \"#utility.yul\":3923:3956   */\n      slt\n        /* \"#utility.yul\":3920:4040   */\n      iszero\n      tag_135\n      jumpi\n        /* \"#utility.yul\":3959:4038   */\n      tag_136\n      tag_57\n      jump\t// in\n    tag_136:\n        /* \"#utility.yul\":3920:4040   */\n    tag_135:\n        /* \"#utility.yul\":4107:4108   */\n      0x00\n        /* \"#utility.yul\":4096:4105   */\n      dup7\n        /* \"#utility.yul\":4092:4109   */\n      add\n        /* \"#utility.yul\":4079:4110   */\n      calldataload\n        /* \"#utility.yul\":4137:4155   */\n      0xffffffffffffffff\n        /* \"#utility.yul\":4129:4135   */\n      dup2\n        /* \"#utility.yul\":4126:4156   */\n      gt\n        /* \"#utility.yul\":4123:4240   */\n      iszero\n      tag_137\n      jumpi\n        /* \"#utility.yul\":4159:4238   */\n      tag_138\n      tag_58\n      jump\t// in\n    tag_138:\n        /* \"#utility.yul\":4123:4240   */\n    tag_137:\n        /* \"#utility.yul\":4264:4327   */\n      tag_139\n        /* \"#utility.yul\":4319:4326   */\n      dup9\n        /* \"#utility.yul\":4310:4316   */\n      dup3\n        /* \"#utility.yul\":4299:4308   */\n      dup10\n        /* \"#utility.yul\":4295:4317   */\n      add\n        /* \"#utility.yul\":4264:4327   */\n      tag_72\n      jump\t// in\n    tag_139:\n        /* \"#utility.yul\":4254:4327   */\n      swap6\n      pop\n        /* \"#utility.yul\":4050:4337   */\n      pop\n        /* \"#utility.yul\":4404:4406   */\n      0x20\n        /* \"#utility.yul\":4393:4402   */\n      dup7\n        /* \"#utility.yul\":4389:4407   */\n      add\n        /* \"#utility.yul\":4376:4408   */\n      calldataload\n        /* \"#utility.yul\":4435:4453   */\n      0xffffffffffffffff\n        /* \"#utility.yul\":4427:4433   */\n      dup2\n        /* \"#utility.yul\":4424:4454   */\n      gt\n        /* \"#utility.yul\":4421:4538   */\n      iszero\n      tag_140\n      jumpi\n        /* \"#utility.yul\":4457:4536   */\n      tag_141\n      tag_58\n      jump\t// in\n    tag_141:\n        /* \"#utility.yul\":4421:4538   */\n    tag_140:\n        /* \"#utility.yul\":4562:4625   */\n      tag_142\n        /* \"#utility.yul\":4617:4624   */\n      dup9\n        /* \"#utility.yul\":4608:4614   */\n      dup3\n        /* \"#utility.yul\":4597:4606   */\n      dup10\n        /* \"#utility.yul\":4593:4615   */\n      add\n        /* \"#utility.yul\":4562:4625   */\n      tag_72\n      jump\t// in\n    tag_142:\n        /* \"#utility.yul\":4552:4625   */\n      swap5\n      pop\n        /* \"#utility.yul\":4347:4635   */\n      pop\n        /* \"#utility.yul\":4674:4676   */\n      0x40\n        /* \"#utility.yul\":4700:4753   */\n      tag_143\n        /* \"#utility.yul\":4745:4752   */\n      dup9\n        /* \"#utility.yul\":4736:4742   */\n      dup3\n        /* \"#utility.yul\":4725:4734   */\n      dup10\n        /* \"#utility.yul\":4721:4743   */\n      add\n        /* \"#utility.yul\":4700:4753   */\n      tag_75\n      jump\t// in\n    tag_143:\n        /* \"#utility.yul\":4690:4753   */\n      swap4\n      pop\n        /* \"#utility.yul\":4645:4763   */\n      pop\n        /* \"#utility.yul\":4802:4804   */\n      0x60\n        /* \"#utility.yul\":4828:4881   */\n      tag_144\n        /* \"#utility.yul\":4873:4880   */\n      dup9\n        /* \"#utility.yul\":4864:4870   */\n      dup3\n        /* \"#utility.yul\":4853:4862   */\n      dup10\n        /* \"#utility.yul\":4849:4871   */\n      add\n        /* \"#utility.yul\":4828:4881   */\n      tag_75\n      jump\t// in\n    tag_144:\n        /* \"#utility.yul\":4818:4881   */\n      swap3\n      pop\n        /* \"#utility.yul\":4773:4891   */\n      pop\n        /* \"#utility.yul\":4958:4961   */\n      0x80\n        /* \"#utility.yul\":4947:4956   */\n      dup7\n        /* \"#utility.yul\":4943:4962   */\n      add\n        /* \"#utility.yul\":4930:4963   */\n      calldataload\n        /* \"#utility.yul\":4990:5008   */\n      0xffffffffffffffff\n        /* \"#utility.yul\":4982:4988   */\n      dup2\n        /* \"#utility.yul\":4979:5009   */\n      gt\n        /* \"#utility.yul\":4976:5093   */\n      iszero\n      tag_145\n      jumpi\n        /* \"#utility.yul\":5012:5091   */\n      tag_146\n      tag_58\n      jump\t// in\n    tag_146:\n        /* \"#utility.yul\":4976:5093   */\n    tag_145:\n        /* \"#utility.yul\":5117:5180   */\n      tag_147\n        /* \"#utility.yul\":5172:5179   */\n      dup9\n        /* \"#utility.yul\":5163:5169   */\n      dup3\n        /* \"#utility.yul\":5152:5161   */\n      dup10\n        /* \"#utility.yul\":5148:5170   */\n      add\n        /* \"#utility.yul\":5117:5180   */\n      tag_72\n      jump\t// in\n    tag_147:\n        /* \"#utility.yul\":5107:5180   */\n      swap2\n      pop\n        /* \"#utility.yul\":4901:5190   */\n      pop\n        /* \"#utility.yul\":3746:5197   */\n      swap3\n      swap6\n      pop\n      swap3\n      swap6\n      swap1\n      swap4\n      pop\n      jump\t// out\n        /* \"#utility.yul\":5203:5293   */\n    tag_76:\n        /* \"#utility.yul\":5237:5244   */\n      0x00\n        /* \"#utility.yul\":5280:5285   */\n      dup2\n        /* \"#utility.yul\":5273:5286   */\n      iszero\n        /* \"#utility.yul\":5266:5287   */\n      iszero\n        /* \"#utility.yul\":5255:5287   */\n      swap1\n      pop\n        /* \"#utility.yul\":5203:5293   */\n      swap2\n      swap1\n      pop\n      jump\t// out\n        /* \"#utility.yul\":5299:5408   */\n    tag_77:\n        /* \"#utility.yul\":5380:5401   */\n      tag_150\n        /* \"#utility.yul\":5395:5400   */\n      dup2\n        /* \"#utility.yul\":5380:5401   */\n      tag_76\n      jump\t// in\n    tag_150:\n        /* \"#utility.yul\":5375:5378   */\n      dup3\n        /* \"#utility.yul\":5368:5402   */\n      mstore\n        /* \"#utility.yul\":5299:5408   */\n      pop\n      pop\n      jump\t// out\n        /* \"#utility.yul\":5414:5624   */\n    tag_25:\n        /* \"#utility.yul\":5501:5505   */\n      0x00\n        /* \"#utility.yul\":5539:5541   */\n      0x20\n        /* \"#utility.yul\":5528:5537   */\n      dup3\n        /* \"#utility.yul\":5524:5542   */\n      add\n        /* \"#utility.yul\":5516:5542   */\n      swap1\n      pop\n        /* \"#utility.yul\":5552:5617   */\n      tag_152\n        /* \"#utility.yul\":5614:5615   */\n      0x00\n        /* \"#utility.yul\":5603:5612   */\n      dup4\n        /* \"#utility.yul\":5599:5616   */\n      add\n        /* \"#utility.yul\":5590:5596   */\n      dup5\n        /* \"#utility.yul\":5552:5617   */\n      tag_77\n      jump\t// in\n    tag_152:\n        /* \"#utility.yul\":5414:5624   */\n      swap3\n      swap2\n      pop\n      pop\n      jump\t// out\n        /* \"#utility.yul\":5630:5748   */\n    tag_78:\n        /* \"#utility.yul\":5717:5741   */\n      tag_154\n        /* \"#utility.yul\":5735:5740   */\n      dup2\n        /* \"#utility.yul\":5717:5741   */\n      tag_60\n      jump\t// in\n    tag_154:\n        /* \"#utility.yul\":5712:5715   */\n      dup3\n        /* \"#utility.yul\":5705:5742   */\n      mstore\n        /* \"#utility.yul\":5630:5748   */\n      pop\n      pop\n      jump\t// out\n        /* \"#utility.yul\":5754:5976   */\n    tag_30:\n        /* \"#utility.yul\":5847:5851   */\n      0x00\n        /* \"#utility.yul\":5885:5887   */\n      0x20\n        /* \"#utility.yul\":5874:5883   */\n      dup3\n        /* \"#utility.yul\":5870:5888   */\n      add\n        /* \"#utility.yul\":5862:5888   */\n      swap1\n      pop\n        /* \"#utility.yul\":5898:5969   */\n      tag_156\n        /* \"#utility.yul\":5966:5967   */\n      0x00\n        /* \"#utility.yul\":5955:5964   */\n      dup4\n        /* \"#utility.yul\":5951:5968   */\n      add\n        /* \"#utility.yul\":5942:5948   */\n      dup5\n        /* \"#utility.yul\":5898:5969   */\n      tag_78\n      jump\t// in\n    tag_156:\n        /* \"#utility.yul\":5754:5976   */\n      swap3\n      swap2\n      pop\n      pop\n      jump\t// out\n        /* \"#utility.yul\":5982:6491   */\n    tag_34:\n        /* \"#utility.yul\":6051:6057   */\n      0x00\n        /* \"#utility.yul\":6100:6102   */\n      0x20\n        /* \"#utility.yul\":6088:6097   */\n      dup3\n        /* \"#utility.yul\":6079:6086   */\n      dup5\n        /* \"#utility.yul\":6075:6098   */\n      sub\n        /* \"#utility.yul\":6071:6103   */\n      slt\n        /* \"#utility.yul\":6068:6187   */\n      iszero\n      tag_158\n      jumpi\n        /* \"#utility.yul\":6106:6185   */\n      tag_159\n      tag_57\n      jump\t// in\n    tag_159:\n        /* \"#utility.yul\":6068:6187   */\n    tag_158:\n        /* \"#utility.yul\":6254:6255   */\n      0x00\n        /* \"#utility.yul\":6243:6252   */\n      dup3\n        /* \"#utility.yul\":6239:6256   */\n      add\n        /* \"#utility.yul\":6226:6257   */\n      calldataload\n        /* \"#utility.yul\":6284:6302   */\n      0xffffffffffffffff\n        /* \"#utility.yul\":6276:6282   */\n      dup2\n        /* \"#utility.yul\":6273:6303   */\n      gt\n        /* \"#utility.yul\":6270:6387   */\n      iszero\n      tag_160\n      jumpi\n        /* \"#utility.yul\":6306:6385   */\n      tag_161\n      tag_58\n      jump\t// in\n    tag_161:\n        /* \"#utility.yul\":6270:6387   */\n    tag_160:\n        /* \"#utility.yul\":6411:6474   */\n      tag_162\n        /* \"#utility.yul\":6466:6473   */\n      dup5\n        /* \"#utility.yul\":6457:6463   */\n      dup3\n        /* \"#utility.yul\":6446:6455   */\n      dup6\n        /* \"#utility.yul\":6442:6464   */\n      add\n        /* \"#utility.yul\":6411:6474   */\n      tag_72\n      jump\t// in\n    tag_162:\n        /* \"#utility.yul\":6401:6474   */\n      swap2\n      pop\n        /* \"#utility.yul\":6197:6484   */\n      pop\n        /* \"#utility.yul\":5982:6491   */\n      swap3\n      swap2\n      pop\n      pop\n      jump\t// out\n        /* \"#utility.yul\":6497:6666   */\n    tag_79:\n        /* \"#utility.yul\":6581:6592   */\n      0x00\n        /* \"#utility.yul\":6615:6621   */\n      dup3\n        /* \"#utility.yul\":6610:6613   */\n      dup3\n        /* \"#utility.yul\":6603:6622   */\n      mstore\n        /* \"#utility.yul\":6655:6659   */\n      0x20\n        /* \"#utility.yul\":6650:6653   */\n      dup3\n        /* \"#utility.yul\":6646:6660   */\n      add\n        /* \"#utility.yul\":6631:6660   */\n      swap1\n      pop\n        /* \"#utility.yul\":6497:6666   */\n      swap3\n      swap2\n      pop\n      pop\n      jump\t// out\n        /* \"#utility.yul\":6672:6854   */\n    tag_80:\n        /* \"#utility.yul\":6812:6846   */\n      0x4f776e61626c653a2063616c6c6572206973206e6f7420746865206f776e6572\n        /* \"#utility.yul\":6808:6809   */\n      0x00\n        /* \"#utility.yul\":6800:6806   */\n      dup3\n        /* \"#utility.yul\":6796:6810   */\n      add\n        /* \"#utility.yul\":6789:6847   */\n      mstore\n        /* \"#utility.yul\":6672:6854   */\n      pop\n      jump\t// out\n        /* \"#utility.yul\":6860:7226   */\n    tag_81:\n        /* \"#utility.yul\":7002:7005   */\n      0x00\n        /* \"#utility.yul\":7023:7090   */\n      tag_166\n        /* \"#utility.yul\":7087:7089   */\n      0x20\n        /* \"#utility.yul\":7082:7085   */\n      dup4\n        /* \"#utility.yul\":7023:7090   */\n      tag_79\n      jump\t// in\n    tag_166:\n        /* \"#utility.yul\":7016:7090   */\n      swap2\n      pop\n        /* \"#utility.yul\":7099:7192   */\n      tag_167\n        /* \"#utility.yul\":7188:7191   */\n      dup3\n        /* \"#utility.yul\":7099:7192   */\n      tag_80\n      jump\t// in\n    tag_167:\n        /* \"#utility.yul\":7217:7219   */\n      0x20\n        /* \"#utility.yul\":7212:7215   */\n      dup3\n        /* \"#utility.yul\":7208:7220   */\n      add\n        /* \"#utility.yul\":7201:7220   */\n      swap1\n      pop\n        /* \"#utility.yul\":6860:7226   */\n      swap2\n      swap1\n      pop\n      jump\t// out\n        /* \"#utility.yul\":7232:7651   */\n    tag_40:\n        /* \"#utility.yul\":7398:7402   */\n      0x00\n        /* \"#utility.yul\":7436:7438   */\n      0x20\n        /* \"#utility.yul\":7425:7434   */\n      dup3\n        /* \"#utility.yul\":7421:7439   */\n      add\n        /* \"#utility.yul\":7413:7439   */\n      swap1\n      pop\n        /* \"#utility.yul\":7485:7494   */\n      dup2\n        /* \"#utility.yul\":7479:7483   */\n      dup2\n        /* \"#utility.yul\":7475:7495   */\n      sub\n        /* \"#utility.yul\":7471:7472   */\n      0x00\n        /* \"#utility.yul\":7460:7469   */\n      dup4\n        /* \"#utility.yul\":7456:7473   */\n      add\n        /* \"#utility.yul\":7449:7496   */\n      mstore\n        /* \"#utility.yul\":7513:7644   */\n      tag_169\n        /* \"#utility.yul\":7639:7643   */\n      dup2\n        /* \"#utility.yul\":7513:7644   */\n      tag_81\n      jump\t// in\n    tag_169:\n        /* \"#utility.yul\":7505:7644   */\n      swap1\n      pop\n        /* \"#utility.yul\":7232:7651   */\n      swap2\n      swap1\n      pop\n      jump\t// out\n        /* \"#utility.yul\":7657:7756   */\n    tag_82:\n        /* \"#utility.yul\":7709:7715   */\n      0x00\n        /* \"#utility.yul\":7743:7748   */\n      dup2\n        /* \"#utility.yul\":7737:7749   */\n      mload\n        /* \"#utility.yul\":7727:7749   */\n      swap1\n      pop\n        /* \"#utility.yul\":7657:7756   */\n      swap2\n      swap1\n      pop\n      jump\t// out\n        /* \"#utility.yul\":7762:7910   */\n    tag_83:\n        /* \"#utility.yul\":7864:7875   */\n      0x00\n        /* \"#utility.yul\":7901:7904   */\n      dup2\n        /* \"#utility.yul\":7886:7904   */\n      swap1\n      pop\n        /* \"#utility.yul\":7762:7910   */\n      swap3\n      swap2\n      pop\n      pop\n      jump\t// out\n        /* \"#utility.yul\":7916:8223   */\n    tag_84:\n        /* \"#utility.yul\":7984:7985   */\n      0x00\n        /* \"#utility.yul\":7994:8107   */\n    tag_173:\n        /* \"#utility.yul\":8008:8014   */\n      dup4\n        /* \"#utility.yul\":8005:8006   */\n      dup2\n        /* \"#utility.yul\":8002:8015   */\n      lt\n        /* \"#utility.yul\":7994:8107   */\n      iszero\n      tag_175\n      jumpi\n        /* \"#utility.yul\":8093:8094   */\n      dup1\n        /* \"#utility.yul\":8088:8091   */\n      dup3\n        /* \"#utility.yul\":8084:8095   */\n      add\n        /* \"#utility.yul\":8078:8096   */\n      mload\n        /* \"#utility.yul\":8074:8075   */\n      dup2\n        /* \"#utility.yul\":8069:8072   */\n      dup5\n        /* \"#utility.yul\":8065:8076   */\n      add\n        /* \"#utility.yul\":8058:8097   */\n      mstore\n        /* \"#utility.yul\":8030:8032   */\n      0x20\n        /* \"#utility.yul\":8027:8028   */\n      dup2\n        /* \"#utility.yul\":8023:8033   */\n      add\n        /* \"#utility.yul\":8018:8033   */\n      swap1\n      pop\n        /* \"#utility.yul\":7994:8107   */\n      jump(tag_173)\n    tag_175:\n        /* \"#utility.yul\":8125:8131   */\n      dup4\n        /* \"#utility.yul\":8122:8123   */\n      dup2\n        /* \"#utility.yul\":8119:8132   */\n      gt\n        /* \"#utility.yul\":8116:8217   */\n      iszero\n      tag_176\n      jumpi\n        /* \"#utility.yul\":8205:8206   */\n      0x00\n        /* \"#utility.yul\":8196:8202   */\n      dup5\n        /* \"#utility.yul\":8191:8194   */\n      dup5\n        /* \"#utility.yul\":8187:8203   */\n      add\n        /* \"#utility.yul\":8180:8207   */\n      mstore\n        /* \"#utility.yul\":8116:8217   */\n    tag_176:\n        /* \"#utility.yul\":7965:8223   */\n      pop\n        /* \"#utility.yul\":7916:8223   */\n      pop\n      pop\n      pop\n      jump\t// out\n        /* \"#utility.yul\":8229:8606   */\n    tag_85:\n        /* \"#utility.yul\":8335:8338   */\n      0x00\n        /* \"#utility.yul\":8363:8402   */\n      tag_178\n        /* \"#utility.yul\":8396:8401   */\n      dup3\n        /* \"#utility.yul\":8363:8402   */\n      tag_82\n      jump\t// in\n    tag_178:\n        /* \"#utility.yul\":8418:8507   */\n      tag_179\n        /* \"#utility.yul\":8500:8506   */\n      dup2\n        /* \"#utility.yul\":8495:8498   */\n      dup6\n        /* \"#utility.yul\":8418:8507   */\n      tag_83\n      jump\t// in\n    tag_179:\n        /* \"#utility.yul\":8411:8507   */\n      swap4\n      pop\n        /* \"#utility.yul\":8516:8568   */\n      tag_180\n        /* \"#utility.yul\":8561:8567   */\n      dup2\n        /* \"#utility.yul\":8556:8559   */\n      dup6\n        /* \"#utility.yul\":8549:8553   */\n      0x20\n        /* \"#utility.yul\":8542:8547   */\n      dup7\n        /* \"#utility.yul\":8538:8554   */\n      add\n        /* \"#utility.yul\":8516:8568   */\n      tag_84\n      jump\t// in\n    tag_180:\n        /* \"#utility.yul\":8593:8599   */\n      dup1\n        /* \"#utility.yul\":8588:8591   */\n      dup5\n        /* \"#utility.yul\":8584:8600   */\n      add\n        /* \"#utility.yul\":8577:8600   */\n      swap2\n      pop\n        /* \"#utility.yul\":8339:8606   */\n      pop\n        /* \"#utility.yul\":8229:8606   */\n      swap3\n      swap2\n      pop\n      pop\n      jump\t// out\n        /* \"#utility.yul\":8612:8887   */\n    tag_44:\n        /* \"#utility.yul\":8744:8747   */\n      0x00\n        /* \"#utility.yul\":8766:8861   */\n      tag_182\n        /* \"#utility.yul\":8857:8860   */\n      dup3\n        /* \"#utility.yul\":8848:8854   */\n      dup5\n        /* \"#utility.yul\":8766:8861   */\n      tag_85\n      jump\t// in\n    tag_182:\n        /* \"#utility.yul\":8759:8861   */\n      swap2\n      pop\n        /* \"#utility.yul\":8878:8881   */\n      dup2\n        /* \"#utility.yul\":8871:8881   */\n      swap1\n      pop\n        /* \"#utility.yul\":8612:8887   */\n      swap3\n      swap2\n      pop\n      pop\n      jump\t// out\n\n    auxdata: 0xa264697066735822122064e53b10e35a0ae9c54715345a3af3f844d69dd604046aba94a29aab290491e264736f6c634300080f0033\n}\n",
				"bytecode": {
					"linkReferences": {},
					"object": "608060405234801561001057600080fd5b50336000806101000a81548173ffffffffffffffffffffffffffffffffffffffff021916908373ffffffffffffffffffffffffffffffffffffffff16021790555033600260006101000a81548173ffffffffffffffffffffffffffffffffffffffff021916908373ffffffffffffffffffffffffffffffffffffffff1602179055506108bb806100a16000396000f3fe6080604052600436106100555760003560e01c806313af40351461005a5780633f59c65714610083578063704b6c021461009f5780638f32d59b146100c8578063b2bdfa7b146100f3578063e93515581461011e575b600080fd5b34801561006657600080fd5b50610081600480360381019061007c9190610456565b610147565b005b61009d600480360381019061009891906105ff565b6101d1565b005b3480156100ab57600080fd5b506100c660048036038101906100c19190610456565b61024b565b005b3480156100d457600080fd5b506100dd6102d6565b6040516100ea91906106e9565b60405180910390f35b3480156100ff57600080fd5b5061010861032d565b6040516101159190610713565b60405180910390f35b34801561012a57600080fd5b506101456004803603810190610140919061072e565b610351565b005b61014f6102d6565b61018e576040517f08c379a0000000000000000000000000000000000000000000000000000000008152600401610185906107d4565b60405180910390fd5b806000806101000a81548173ffffffffffffffffffffffffffffffffffffffff021916908373ffffffffffffffffffffffffffffffffffffffff16021790555050565b600115156001826040516101e5919061086e565b908152602001604051809103902060009054906101000a900460ff1615151461020d57600080fd5b600060018260405161021f919061086e565b908152602001604051809103902060006101000a81548160ff0219169083151502179055505050505050565b6102536102d6565b610292576040517f08c379a0000000000000000000000000000000000000000000000000000000008152600401610289906107d4565b60405180910390fd5b80600260006101000a81548173ffffffffffffffffffffffffffffffffffffffff021916908373ffffffffffffffffffffffffffffffffffffffff16021790555050565b60008060009054906101000a900473ffffffffffffffffffffffffffffffffffffffff1673ffffffffffffffffffffffffffffffffffffffff163373ffffffffffffffffffffffffffffffffffffffff1614905090565b60008054906101000a900473ffffffffffffffffffffffffffffffffffffffff1681565b600260009054906101000a900473ffffffffffffffffffffffffffffffffffffffff1673ffffffffffffffffffffffffffffffffffffffff163373ffffffffffffffffffffffffffffffffffffffff16146103ab57600080fd5b600180826040516103bc919061086e565b908152602001604051809103902060006101000a81548160ff02191690831515021790555050565b6000604051905090565b600080fd5b600080fd5b600073ffffffffffffffffffffffffffffffffffffffff82169050919050565b6000610423826103f8565b9050919050565b61043381610418565b811461043e57600080fd5b50565b6000813590506104508161042a565b92915050565b60006020828403121561046c5761046b6103ee565b5b600061047a84828501610441565b91505092915050565b600080fd5b600080fd5b6000601f19601f8301169050919050565b7f4e487b7100000000000000000000000000000000000000000000000000000000600052604160045260246000fd5b6104d68261048d565b810181811067ffffffffffffffff821117156104f5576104f461049e565b5b80604052505050565b60006105086103e4565b905061051482826104cd565b919050565b600067ffffffffffffffff8211156105345761053361049e565b5b61053d8261048d565b9050602081019050919050565b82818337600083830152505050565b600061056c61056784610519565b6104fe565b90508281526020810184848401111561058857610587610488565b5b61059384828561054a565b509392505050565b600082601f8301126105b0576105af610483565b5b81356105c0848260208601610559565b91505092915050565b6000819050919050565b6105dc816105c9565b81146105e757600080fd5b50565b6000813590506105f9816105d3565b92915050565b600080600080600060a0868803121561061b5761061a6103ee565b5b600086013567ffffffffffffffff811115610639576106386103f3565b5b6106458882890161059b565b955050602086013567ffffffffffffffff811115610666576106656103f3565b5b6106728882890161059b565b9450506040610683888289016105ea565b9350506060610694888289016105ea565b925050608086013567ffffffffffffffff8111156106b5576106b46103f3565b5b6106c18882890161059b565b9150509295509295909350565b60008115159050919050565b6106e3816106ce565b82525050565b60006020820190506106fe60008301846106da565b92915050565b61070d81610418565b82525050565b60006020820190506107286000830184610704565b92915050565b600060208284031215610744576107436103ee565b5b600082013567ffffffffffffffff811115610762576107616103f3565b5b61076e8482850161059b565b91505092915050565b600082825260208201905092915050565b7f4f776e61626c653a2063616c6c6572206973206e6f7420746865206f776e6572600082015250565b60006107be602083610777565b91506107c982610788565b602082019050919050565b600060208201905081810360008301526107ed816107b1565b9050919050565b600081519050919050565b600081905092915050565b60005b8381101561082857808201518184015260208101905061080d565b83811115610837576000848401525b50505050565b6000610848826107f4565b61085281856107ff565b935061086281856020860161080a565b80840191505092915050565b600061087a828461083d565b91508190509291505056fea264697066735822122064e53b10e35a0ae9c54715345a3af3f844d69dd604046aba94a29aab290491e264736f6c634300080f0033",
					"opcodes": "PUSH1 0x80 PUSH1 0x40 MSTORE CALLVALUE DUP1 ISZERO PUSH2 0x10 JUMPI PUSH1 0x0 DUP1 REVERT JUMPDEST POP CALLER PUSH1 0x0 DUP1 PUSH2 0x100 EXP DUP2 SLOAD DUP2 PUSH20 0xFFFFFFFFFFFFFFFFFFFFFFFFFFFFFFFFFFFFFFFF MUL NOT AND SWAP1 DUP4 PUSH20 0xFFFFFFFFFFFFFFFFFFFFFFFFFFFFFFFFFFFFFFFF AND MUL OR SWAP1 SSTORE POP CALLER PUSH1 0x2 PUSH1 0x0 PUSH2 0x100 EXP DUP2 SLOAD DUP2 PUSH20 0xFFFFFFFFFFFFFFFFFFFFFFFFFFFFFFFFFFFFFFFF MUL NOT AND SWAP1 DUP4 PUSH20 0xFFFFFFFFFFFFFFFFFFFFFFFFFFFFFFFFFFFFFFFF AND MUL OR SWAP1 SSTORE POP PUSH2 0x8BB DUP1 PUSH2 0xA1 PUSH1 0x0 CODECOPY PUSH1 0x0 RETURN INVALID PUSH1 0x80 PUSH1 0x40 MSTORE PUSH1 0x4 CALLDATASIZE LT PUSH2 0x55 JUMPI PUSH1 0x0 CALLDATALOAD PUSH1 0xE0 SHR DUP1 PUSH4 0x13AF4035 EQ PUSH2 0x5A JUMPI DUP1 PUSH4 0x3F59C657 EQ PUSH2 0x83 JUMPI DUP1 PUSH4 0x704B6C02 EQ PUSH2 0x9F JUMPI DUP1 PUSH4 0x8F32D59B EQ PUSH2 0xC8 JUMPI DUP1 PUSH4 0xB2BDFA7B EQ PUSH2 0xF3 JUMPI DUP1 PUSH4 0xE9351558 EQ PUSH2 0x11E JUMPI JUMPDEST PUSH1 0x0 DUP1 REVERT JUMPDEST CALLVALUE DUP1 ISZERO PUSH2 0x66 JUMPI PUSH1 0x0 DUP1 REVERT JUMPDEST POP PUSH2 0x81 PUSH1 0x4 DUP1 CALLDATASIZE SUB DUP2 ADD SWAP1 PUSH2 0x7C SWAP2 SWAP1 PUSH2 0x456 JUMP JUMPDEST PUSH2 0x147 JUMP JUMPDEST STOP JUMPDEST PUSH2 0x9D PUSH1 0x4 DUP1 CALLDATASIZE SUB DUP2 ADD SWAP1 PUSH2 0x98 SWAP2 SWAP1 PUSH2 0x5FF JUMP JUMPDEST PUSH2 0x1D1 JUMP JUMPDEST STOP JUMPDEST CALLVALUE DUP1 ISZERO PUSH2 0xAB JUMPI PUSH1 0x0 DUP1 REVERT JUMPDEST POP PUSH2 0xC6 PUSH1 0x4 DUP1 CALLDATASIZE SUB DUP2 ADD SWAP1 PUSH2 0xC1 SWAP2 SWAP1 PUSH2 0x456 JUMP JUMPDEST PUSH2 0x24B JUMP JUMPDEST STOP JUMPDEST CALLVALUE DUP1 ISZERO PUSH2 0xD4 JUMPI PUSH1 0x0 DUP1 REVERT JUMPDEST POP PUSH2 0xDD PUSH2 0x2D6 JUMP JUMPDEST PUSH1 0x40 MLOAD PUSH2 0xEA SWAP2 SWAP1 PUSH2 0x6E9 JUMP JUMPDEST PUSH1 0x40 MLOAD DUP1 SWAP2 SUB SWAP1 RETURN JUMPDEST CALLVALUE DUP1 ISZERO PUSH2 0xFF JUMPI PUSH1 0x0 DUP1 REVERT JUMPDEST POP PUSH2 0x108 PUSH2 0x32D JUMP JUMPDEST PUSH1 0x40 MLOAD PUSH2 0x115 SWAP2 SWAP1 PUSH2 0x713 JUMP JUMPDEST PUSH1 0x40 MLOAD DUP1 SWAP2 SUB SWAP1 RETURN JUMPDEST CALLVALUE DUP1 ISZERO PUSH2 0x12A JUMPI PUSH1 0x0 DUP1 REVERT JUMPDEST POP PUSH2 0x145 PUSH1 0x4 DUP1 CALLDATASIZE SUB DUP2 ADD SWAP1 PUSH2 0x140 SWAP2 SWAP1 PUSH2 0x72E JUMP JUMPDEST PUSH2 0x351 JUMP JUMPDEST STOP JUMPDEST PUSH2 0x14F PUSH2 0x2D6 JUMP JUMPDEST PUSH2 0x18E JUMPI PUSH1 0x40 MLOAD PUSH32 0x8C379A000000000000000000000000000000000000000000000000000000000 DUP2 MSTORE PUSH1 0x4 ADD PUSH2 0x185 SWAP1 PUSH2 0x7D4 JUMP JUMPDEST PUSH1 0x40 MLOAD DUP1 SWAP2 SUB SWAP1 REVERT JUMPDEST DUP1 PUSH1 0x0 DUP1 PUSH2 0x100 EXP DUP2 SLOAD DUP2 PUSH20 0xFFFFFFFFFFFFFFFFFFFFFFFFFFFFFFFFFFFFFFFF MUL NOT AND SWAP1 DUP4 PUSH20 0xFFFFFFFFFFFFFFFFFFFFFFFFFFFFFFFFFFFFFFFF AND MUL OR SWAP1 SSTORE POP POP JUMP JUMPDEST PUSH1 0x1 ISZERO ISZERO PUSH1 0x1 DUP3 PUSH1 0x40 MLOAD PUSH2 0x1E5 SWAP2 SWAP1 PUSH2 0x86E JUMP JUMPDEST SWAP1 DUP2 MSTORE PUSH1 0x20 ADD PUSH1 0x40 MLOAD DUP1 SWAP2 SUB SWAP1 KECCAK256 PUSH1 0x0 SWAP1 SLOAD SWAP1 PUSH2 0x100 EXP SWAP1 DIV PUSH1 0xFF AND ISZERO ISZERO EQ PUSH2 0x20D JUMPI PUSH1 0x0 DUP1 REVERT JUMPDEST PUSH1 0x0 PUSH1 0x1 DUP3 PUSH1 0x40 MLOAD PUSH2 0x21F SWAP2 SWAP1 PUSH2 0x86E JUMP JUMPDEST SWAP1 DUP2 MSTORE PUSH1 0x20 ADD PUSH1 0x40 MLOAD DUP1 SWAP2 SUB SWAP1 KECCAK256 PUSH1 0x0 PUSH2 0x100 EXP DUP2 SLOAD DUP2 PUSH1 0xFF MUL NOT AND SWAP1 DUP4 ISZERO ISZERO MUL OR SWAP1 SSTORE POP POP POP POP POP POP JUMP JUMPDEST PUSH2 0x253 PUSH2 0x2D6 JUMP JUMPDEST PUSH2 0x292 JUMPI PUSH1 0x40 MLOAD PUSH32 0x8C379A000000000000000000000000000000000000000000000000000000000 DUP2 MSTORE PUSH1 0x4 ADD PUSH2 0x289 SWAP1 PUSH2 0x7D4 JUMP JUMPDEST PUSH1 0x40 MLOAD DUP1 SWAP2 SUB SWAP1 REVERT JUMPDEST DUP1 PUSH1 0x2 PUSH1 0x0 PUSH2 0x100 EXP DUP2 SLOAD DUP2 PUSH20 0xFFFFFFFFFFFFFFFFFFFFFFFFFFFFFFFFFFFFFFFF MUL NOT AND SWAP1 DUP4 PUSH20 0xFFFFFFFFFFFFFFFFFFFFFFFFFFFFFFFFFFFFFFFF AND MUL OR SWAP1 SSTORE POP POP JUMP JUMPDEST PUSH1 0x0 DUP1 PUSH1 0x0 SWAP1 SLOAD SWAP1 PUSH2 0x100 EXP SWAP1 DIV PUSH20 0xFFFFFFFFFFFFFFFFFFFFFFFFFFFFFFFFFFFFFFFF AND PUSH20 0xFFFFFFFFFFFFFFFFFFFFFFFFFFFFFFFFFFFFFFFF AND CALLER PUSH20 0xFFFFFFFFFFFFFFFFFFFFFFFFFFFFFFFFFFFFFFFF AND EQ SWAP1 POP SWAP1 JUMP JUMPDEST PUSH1 0x0 DUP1 SLOAD SWAP1 PUSH2 0x100 EXP SWAP1 DIV PUSH20 0xFFFFFFFFFFFFFFFFFFFFFFFFFFFFFFFFFFFFFFFF AND DUP2 JUMP JUMPDEST PUSH1 0x2 PUSH1 0x0 SWAP1 SLOAD SWAP1 PUSH2 0x100 EXP SWAP1 DIV PUSH20 0xFFFFFFFFFFFFFFFFFFFFFFFFFFFFFFFFFFFFFFFF AND PUSH20 0xFFFFFFFFFFFFFFFFFFFFFFFFFFFFFFFFFFFFFFFF AND CALLER PUSH20 0xFFFFFFFFFFFFFFFFFFFFFFFFFFFFFFFFFFFFFFFF AND EQ PUSH2 0x3AB JUMPI PUSH1 0x0 DUP1 REVERT JUMPDEST PUSH1 0x1 DUP1 DUP3 PUSH1 0x40 MLOAD PUSH2 0x3BC SWAP2 SWAP1 PUSH2 0x86E JUMP JUMPDEST SWAP1 DUP2 MSTORE PUSH1 0x20 ADD PUSH1 0x40 MLOAD DUP1 SWAP2 SUB SWAP1 KECCAK256 PUSH1 0x0 PUSH2 0x100 EXP DUP2 SLOAD DUP2 PUSH1 0xFF MUL NOT AND SWAP1 DUP4 ISZERO ISZERO MUL OR SWAP1 SSTORE POP POP JUMP JUMPDEST PUSH1 0x0 PUSH1 0x40 MLOAD SWAP1 POP SWAP1 JUMP JUMPDEST PUSH1 0x0 DUP1 REVERT JUMPDEST PUSH1 0x0 DUP1 REVERT JUMPDEST PUSH1 0x0 PUSH20 0xFFFFFFFFFFFFFFFFFFFFFFFFFFFFFFFFFFFFFFFF DUP3 AND SWAP1 POP SWAP2 SWAP1 POP JUMP JUMPDEST PUSH1 0x0 PUSH2 0x423 DUP3 PUSH2 0x3F8 JUMP JUMPDEST SWAP1 POP SWAP2 SWAP1 POP JUMP JUMPDEST PUSH2 0x433 DUP2 PUSH2 0x418 JUMP JUMPDEST DUP2 EQ PUSH2 0x43E JUMPI PUSH1 0x0 DUP1 REVERT JUMPDEST POP JUMP JUMPDEST PUSH1 0x0 DUP2 CALLDATALOAD SWAP1 POP PUSH2 0x450 DUP2 PUSH2 0x42A JUMP JUMPDEST SWAP3 SWAP2 POP POP JUMP JUMPDEST PUSH1 0x0 PUSH1 0x20 DUP3 DUP5 SUB SLT ISZERO PUSH2 0x46C JUMPI PUSH2 0x46B PUSH2 0x3EE JUMP JUMPDEST JUMPDEST PUSH1 0x0 PUSH2 0x47A DUP5 DUP3 DUP6 ADD PUSH2 0x441 JUMP JUMPDEST SWAP2 POP POP SWAP3 SWAP2 POP POP JUMP JUMPDEST PUSH1 0x0 DUP1 REVERT JUMPDEST PUSH1 0x0 DUP1 REVERT JUMPDEST PUSH1 0x0 PUSH1 0x1F NOT PUSH1 0x1F DUP4 ADD AND SWAP1 POP SWAP2 SWAP1 POP JUMP JUMPDEST PUSH32 0x4E487B7100000000000000000000000000000000000000000000000000000000 PUSH1 0x0 MSTORE PUSH1 0x41 PUSH1 0x4 MSTORE PUSH1 0x24 PUSH1 0x0 REVERT JUMPDEST PUSH2 0x4D6 DUP3 PUSH2 0x48D JUMP JUMPDEST DUP2 ADD DUP2 DUP2 LT PUSH8 0xFFFFFFFFFFFFFFFF DUP3 GT OR ISZERO PUSH2 0x4F5 JUMPI PUSH2 0x4F4 PUSH2 0x49E JUMP JUMPDEST JUMPDEST DUP1 PUSH1 0x40 MSTORE POP POP POP JUMP JUMPDEST PUSH1 0x0 PUSH2 0x508 PUSH2 0x3E4 JUMP JUMPDEST SWAP1 POP PUSH2 0x514 DUP3 DUP3 PUSH2 0x4CD JUMP JUMPDEST SWAP2 SWAP1 POP JUMP JUMPDEST PUSH1 0x0 PUSH8 0xFFFFFFFFFFFFFFFF DUP3 GT ISZERO PUSH2 0x534 JUMPI PUSH2 0x533 PUSH2 0x49E JUMP JUMPDEST JUMPDEST PUSH2 0x53D DUP3 PUSH2 0x48D JUMP JUMPDEST SWAP1 POP PUSH1 0x20 DUP2 ADD SWAP1 POP SWAP2 SWAP1 POP JUMP JUMPDEST DUP3 DUP2 DUP4 CALLDATACOPY PUSH1 0x0 DUP4 DUP4 ADD MSTORE POP POP POP JUMP JUMPDEST PUSH1 0x0 PUSH2 0x56C PUSH2 0x567 DUP5 PUSH2 0x519 JUMP JUMPDEST PUSH2 0x4FE JUMP JUMPDEST SWAP1 POP DUP3 DUP2 MSTORE PUSH1 0x20 DUP2 ADD DUP5 DUP5 DUP5 ADD GT ISZERO PUSH2 0x588 JUMPI PUSH2 0x587 PUSH2 0x488 JUMP JUMPDEST JUMPDEST PUSH2 0x593 DUP5 DUP3 DUP6 PUSH2 0x54A JUMP JUMPDEST POP SWAP4 SWAP3 POP POP POP JUMP JUMPDEST PUSH1 0x0 DUP3 PUSH1 0x1F DUP4 ADD SLT PUSH2 0x5B0 JUMPI PUSH2 0x5AF PUSH2 0x483 JUMP JUMPDEST JUMPDEST DUP2 CALLDATALOAD PUSH2 0x5C0 DUP5 DUP3 PUSH1 0x20 DUP7 ADD PUSH2 0x559 JUMP JUMPDEST SWAP2 POP POP SWAP3 SWAP2 POP POP JUMP JUMPDEST PUSH1 0x0 DUP2 SWAP1 POP SWAP2 SWAP1 POP JUMP JUMPDEST PUSH2 0x5DC DUP2 PUSH2 0x5C9 JUMP JUMPDEST DUP2 EQ PUSH2 0x5E7 JUMPI PUSH1 0x0 DUP1 REVERT JUMPDEST POP JUMP JUMPDEST PUSH1 0x0 DUP2 CALLDATALOAD SWAP1 POP PUSH2 0x5F9 DUP2 PUSH2 0x5D3 JUMP JUMPDEST SWAP3 SWAP2 POP POP JUMP JUMPDEST PUSH1 0x0 DUP1 PUSH1 0x0 DUP1 PUSH1 0x0 PUSH1 0xA0 DUP7 DUP9 SUB SLT ISZERO PUSH2 0x61B JUMPI PUSH2 0x61A PUSH2 0x3EE JUMP JUMPDEST JUMPDEST PUSH1 0x0 DUP7 ADD CALLDATALOAD PUSH8 0xFFFFFFFFFFFFFFFF DUP2 GT ISZERO PUSH2 0x639 JUMPI PUSH2 0x638 PUSH2 0x3F3 JUMP JUMPDEST JUMPDEST PUSH2 0x645 DUP9 DUP3 DUP10 ADD PUSH2 0x59B JUMP JUMPDEST SWAP6 POP POP PUSH1 0x20 DUP7 ADD CALLDATALOAD PUSH8 0xFFFFFFFFFFFFFFFF DUP2 GT ISZERO PUSH2 0x666 JUMPI PUSH2 0x665 PUSH2 0x3F3 JUMP JUMPDEST JUMPDEST PUSH2 0x672 DUP9 DUP3 DUP10 ADD PUSH2 0x59B JUMP JUMPDEST SWAP5 POP POP PUSH1 0x40 PUSH2 0x683 DUP9 DUP3 DUP10 ADD PUSH2 0x5EA JUMP JUMPDEST SWAP4 POP POP PUSH1 0x60 PUSH2 0x694 DUP9 DUP3 DUP10 ADD PUSH2 0x5EA JUMP JUMPDEST SWAP3 POP POP PUSH1 0x80 DUP7 ADD CALLDATALOAD PUSH8 0xFFFFFFFFFFFFFFFF DUP2 GT ISZERO PUSH2 0x6B5 JUMPI PUSH2 0x6B4 PUSH2 0x3F3 JUMP JUMPDEST JUMPDEST PUSH2 0x6C1 DUP9 DUP3 DUP10 ADD PUSH2 0x59B JUMP JUMPDEST SWAP2 POP POP SWAP3 SWAP6 POP SWAP3 SWAP6 SWAP1 SWAP4 POP JUMP JUMPDEST PUSH1 0x0 DUP2 ISZERO ISZERO SWAP1 POP SWAP2 SWAP1 POP JUMP JUMPDEST PUSH2 0x6E3 DUP2 PUSH2 0x6CE JUMP JUMPDEST DUP3 MSTORE POP POP JUMP JUMPDEST PUSH1 0x0 PUSH1 0x20 DUP3 ADD SWAP1 POP PUSH2 0x6FE PUSH1 0x0 DUP4 ADD DUP5 PUSH2 0x6DA JUMP JUMPDEST SWAP3 SWAP2 POP POP JUMP JUMPDEST PUSH2 0x70D DUP2 PUSH2 0x418 JUMP JUMPDEST DUP3 MSTORE POP POP JUMP JUMPDEST PUSH1 0x0 PUSH1 0x20 DUP3 ADD SWAP1 POP PUSH2 0x728 PUSH1 0x0 DUP4 ADD DUP5 PUSH2 0x704 JUMP JUMPDEST SWAP3 SWAP2 POP POP JUMP JUMPDEST PUSH1 0x0 PUSH1 0x20 DUP3 DUP5 SUB SLT ISZERO PUSH2 0x744 JUMPI PUSH2 0x743 PUSH2 0x3EE JUMP JUMPDEST JUMPDEST PUSH1 0x0 DUP3 ADD CALLDATALOAD PUSH8 0xFFFFFFFFFFFFFFFF DUP2 GT ISZERO PUSH2 0x762 JUMPI PUSH2 0x761 PUSH2 0x3F3 JUMP JUMPDEST JUMPDEST PUSH2 0x76E DUP5 DUP3 DUP6 ADD PUSH2 0x59B JUMP JUMPDEST SWAP2 POP POP SWAP3 SWAP2 POP POP JUMP JUMPDEST PUSH1 0x0 DUP3 DUP3 MSTORE PUSH1 0x20 DUP3 ADD SWAP1 POP SWAP3 SWAP2 POP POP JUMP JUMPDEST PUSH32 0x4F776E61626C653A2063616C6C6572206973206E6F7420746865206F776E6572 PUSH1 0x0 DUP3 ADD MSTORE POP JUMP JUMPDEST PUSH1 0x0 PUSH2 0x7BE PUSH1 0x20 DUP4 PUSH2 0x777 JUMP JUMPDEST SWAP2 POP PUSH2 0x7C9 DUP3 PUSH2 0x788 JUMP JUMPDEST PUSH1 0x20 DUP3 ADD SWAP1 POP SWAP2 SWAP1 POP JUMP JUMPDEST PUSH1 0x0 PUSH1 0x20 DUP3 ADD SWAP1 POP DUP2 DUP2 SUB PUSH1 0x0 DUP4 ADD MSTORE PUSH2 0x7ED DUP2 PUSH2 0x7B1 JUMP JUMPDEST SWAP1 POP SWAP2 SWAP1 POP JUMP JUMPDEST PUSH1 0x0 DUP2 MLOAD SWAP1 POP SWAP2 SWAP1 POP JUMP JUMPDEST PUSH1 0x0 DUP2 SWAP1 POP SWAP3 SWAP2 POP POP JUMP JUMPDEST PUSH1 0x0 JUMPDEST DUP4 DUP2 LT ISZERO PUSH2 0x828 JUMPI DUP1 DUP3 ADD MLOAD DUP2 DUP5 ADD MSTORE PUSH1 0x20 DUP2 ADD SWAP1 POP PUSH2 0x80D JUMP JUMPDEST DUP4 DUP2 GT ISZERO PUSH2 0x837 JUMPI PUSH1 0x0 DUP5 DUP5 ADD MSTORE JUMPDEST POP POP POP POP JUMP JUMPDEST PUSH1 0x0 PUSH2 0x848 DUP3 PUSH2 0x7F4 JUMP JUMPDEST PUSH2 0x852 DUP2 DUP6 PUSH2 0x7FF JUMP JUMPDEST SWAP4 POP PUSH2 0x862 DUP2 DUP6 PUSH1 0x20 DUP7 ADD PUSH2 0x80A JUMP JUMPDEST DUP1 DUP5 ADD SWAP2 POP POP SWAP3 SWAP2 POP POP JUMP JUMPDEST PUSH1 0x0 PUSH2 0x87A DUP3 DUP5 PUSH2 0x83D JUMP JUMPDEST SWAP2 POP DUP2 SWAP1 POP SWAP3 SWAP2 POP POP JUMP INVALID LOG2 PUSH5 0x6970667358 0x22 SLT KECCAK256 PUSH5 0xE53B10E35A EXP 0xE9 0xC5 SELFBALANCE ISZERO CALLVALUE GAS GASPRICE RETURN 0xF8 DIFFICULTY 0xD6 SWAP14 0xD6 DIV DIV PUSH11 0xBA94A29AAB290491E26473 PUSH16 0x6C634300080F00330000000000000000 "
				},
				"gasEstimates": {
					"creation": {
						"codeDepositCost": "447000",
						"executionCost": "49012",
						"totalCost": "496012"
					},
					"external": {
						"_owner()": "2577",
						"isOwner()": "2540",
						"issueCertificate(string,string,uint256,uint256,string)": "infinite",
						"setAdmin(address)": "26949",
						"setOwner(address)": "26905",
						"updateCertificateRecipient(string)": "infinite"
					}
				},
				"methodIdentifiers": {
					"_owner()": "b2bdfa7b",
					"isOwner()": "8f32d59b",
					"issueCertificate(string,string,uint256,uint256,string)": "3f59c657",
					"setAdmin(address)": "704b6c02",
					"setOwner(address)": "13af4035",
					"updateCertificateRecipient(string)": "e9351558"
				}
			},
			"storageLayout": {
				"storage": [
					{
						"astId": 85,
						"contract": "certificateissuer.sol:CertificateIssuer",
						"label": "_owner",
						"offset": 0,
						"slot": "0",
						"type": "t_address"
					},
					{
						"astId": 18,
						"contract": "certificateissuer.sol:CertificateIssuer",
						"label": "cauthValid",
						"offset": 0,
						"slot": "1",
						"type": "t_mapping(t_string_memory_ptr,t_bool)"
					},
					{
						"astId": 20,
						"contract": "certificateissuer.sol:CertificateIssuer",
						"label": "_admin",
						"offset": 0,
						"slot": "2",
						"type": "t_address"
					}
				],
				"types": {
					"t_address": {
						"encoding": "inplace",
						"label": "address",
						"numberOfBytes": "20"
					},
					"t_bool": {
						"encoding": "inplace",
						"label": "bool",
						"numberOfBytes": "1"
					},
					"t_mapping(t_string_memory_ptr,t_bool)": {
						"encoding": "mapping",
						"key": "t_string_memory_ptr",
						"label": "mapping(string => bool)",
						"numberOfBytes": "32",
						"value": "t_bool"
					},
					"t_string_memory_ptr": {
						"encoding": "bytes",
						"label": "string",
						"numberOfBytes": "32"
					}
				}
			},
			"userdoc": {
				"kind": "user",
				"methods": {
					"constructor": {
						"notice": "create data type = struct named  certificate"
					}
				},
				"version": 1
			}
		}
	}
}