{
	"certificateissuer.sol": {
		"Staking": {
			"abi": [
				{
					"inputs": [],
					"name": "_owner",
					"outputs": [
						{
							"internalType": "address",
							"name": "",
							"type": "address"
						}
					],
					"stateMutability": "view",
					"type": "function"
				},
				{
					"inputs": [],
					"name": "isOwner",
					"outputs": [
						{
							"internalType": "bool",
							"name": "",
							"type": "bool"
						}
					],
					"stateMutability": "view",
					"type": "function"
				},
				{
					"inputs": [
						{
							"internalType": "string",
							"name": "_name",
							"type": "string"
						},
						{
							"internalType": "string",
							"name": "_courseTittle",
							"type": "string"
						},
						{
							"internalType": "uint256",
							"name": "_duration",
							"type": "uint256"
						},
						{
							"internalType": "uint256",
							"name": "institute",
							"type": "uint256"
						},
						{
							"internalType": "string",
							"name": "cauth",
							"type": "string"
						}
					],
					"name": "issueCertificate",
					"outputs": [],
					"stateMutability": "payable",
					"type": "function"
				},
				{
					"inputs": [
						{
							"internalType": "address",
							"name": "_adminParameter",
							"type": "address"
						}
					],
					"name": "setAdmin",
					"outputs": [],
					"stateMutability": "nonpayable",
					"type": "function"
				},
				{
					"inputs": [
						{
							"internalType": "address",
							"name": "_newOwner",
							"type": "address"
						}
					],
					"name": "setOwner",
					"outputs": [],
					"stateMutability": "nonpayable",
					"type": "function"
				},
				{
					"inputs": [
						{
							"internalType": "string",
							"name": "_cauth",
							"type": "string"
						}
					],
					"name": "stakeToken",
					"outputs": [],
					"stateMutability": "payable",
					"type": "function"
				},
				{
					"inputs": [
						{
							"internalType": "string",
							"name": "cauth",
							"type": "string"
						}
					],
					"name": "updateCertificateRecipient",
					"outputs": [],
					"stateMutability": "nonpayable",
					"type": "function"
				}
			],
			"devdoc": {
				"kind": "dev",
				"methods": {
					"isOwner()": {
						"details": "Returns true if the caller is the current owner."
					}
				},
				"version": 1
			},
			"evm": {
				"assembly": "    /* \"certificateissuer.sol\":2462:2623  contract Staking is CertificateIssuer {... */\n  mstore(0x40, 0x80)\n  callvalue\n  dup1\n  iszero\n  tag_1\n  jumpi\n  0x00\n  dup1\n  revert\ntag_1:\n  pop\n    /* \"ownable.sol\":150:160  msg.sender */\n  caller\n    /* \"ownable.sol\":141:147  _owner */\n  0x00\n  dup1\n    /* \"ownable.sol\":141:160  _owner = msg.sender */\n  0x0100\n  exp\n  dup2\n  sload\n  dup2\n  0xffffffffffffffffffffffffffffffffffffffff\n  mul\n  not\n  and\n  swap1\n  dup4\n  0xffffffffffffffffffffffffffffffffffffffff\n  and\n  mul\n  or\n  swap1\n  sstore\n  pop\n    /* \"certificateissuer.sol\":220:230  msg.sender */\n  caller\n    /* \"certificateissuer.sol\":211:217  _admin */\n  0x03\n  0x00\n    /* \"certificateissuer.sol\":211:230  _admin = msg.sender */\n  0x0100\n  exp\n  dup2\n  sload\n  dup2\n  0xffffffffffffffffffffffffffffffffffffffff\n  mul\n  not\n  and\n  swap1\n  dup4\n  0xffffffffffffffffffffffffffffffffffffffff\n  and\n  mul\n  or\n  swap1\n  sstore\n  pop\n    /* \"certificateissuer.sol\":2462:2623  contract Staking is CertificateIssuer {... */\n  dataSize(sub_0)\n  dup1\n  dataOffset(sub_0)\n  0x00\n  codecopy\n  0x00\n  return\nstop\n\nsub_0: assembly {\n        /* \"certificateissuer.sol\":2462:2623  contract Staking is CertificateIssuer {... */\n      mstore(0x40, 0x80)\n      jumpi(tag_1, lt(calldatasize, 0x04))\n      shr(0xe0, calldataload(0x00))\n      dup1\n      0x704b6c02\n      gt\n      tag_9\n      jumpi\n      dup1\n      0x704b6c02\n      eq\n      tag_5\n      jumpi\n      dup1\n      0x8f32d59b\n      eq\n      tag_6\n      jumpi\n      dup1\n      0xb2bdfa7b\n      eq\n      tag_7\n      jumpi\n      dup1\n      0xe9351558\n      eq\n      tag_8\n      jumpi\n      jump(tag_1)\n    tag_9:\n      dup1\n      0x328fda\n      eq\n      tag_2\n      jumpi\n      dup1\n      0x13af4035\n      eq\n      tag_3\n      jumpi\n      dup1\n      0x3f59c657\n      eq\n      tag_4\n      jumpi\n    tag_1:\n      0x00\n      dup1\n      revert\n        /* \"certificateissuer.sol\":2507:2620  function stakeToken (string memory _cauth) external payable{... */\n    tag_2:\n      tag_10\n      0x04\n      dup1\n      calldatasize\n      sub\n      dup2\n      add\n      swap1\n      tag_11\n      swap2\n      swap1\n      tag_12\n      jump\t// in\n    tag_11:\n      tag_13\n      jump\t// in\n    tag_10:\n      stop\n        /* \"ownable.sol\":551:643  function setOwner(address _newOwner) public onlyOwner {... */\n    tag_3:\n      callvalue\n      dup1\n      iszero\n      tag_14\n      jumpi\n      0x00\n      dup1\n      revert\n    tag_14:\n      pop\n      tag_15\n      0x04\n      dup1\n      calldatasize\n      sub\n      dup2\n      add\n      swap1\n      tag_16\n      swap2\n      swap1\n      tag_17\n      jump\t// in\n    tag_16:\n      tag_18\n      jump\t// in\n    tag_15:\n      stop\n        /* \"certificateissuer.sol\":1908:2273  function issueCertificate(string memory _name , string memory _courseTittle, uint _duration , uint institute,string memory cauth ) external payable {... */\n    tag_4:\n      tag_19\n      0x04\n      dup1\n      calldatasize\n      sub\n      dup2\n      add\n      swap1\n      tag_20\n      swap2\n      swap1\n      tag_21\n      jump\t// in\n    tag_20:\n      tag_22\n      jump\t// in\n    tag_19:\n      stop\n        /* \"certificateissuer.sol\":530:634  function setAdmin(address _adminParameter) public onlyOwner{... */\n    tag_5:\n      callvalue\n      dup1\n      iszero\n      tag_23\n      jumpi\n      0x00\n      dup1\n      revert\n    tag_23:\n      pop\n      tag_24\n      0x04\n      dup1\n      calldatasize\n      sub\n      dup2\n      add\n      swap1\n      tag_25\n      swap2\n      swap1\n      tag_17\n      jump\t// in\n    tag_25:\n      tag_26\n      jump\t// in\n    tag_24:\n      stop\n        /* \"ownable.sol\":451:545  function isOwner() public view returns (bool) {... */\n    tag_6:\n      callvalue\n      dup1\n      iszero\n      tag_27\n      jumpi\n      0x00\n      dup1\n      revert\n    tag_27:\n      pop\n      tag_28\n      tag_29\n      jump\t// in\n    tag_28:\n      mload(0x40)\n      tag_30\n      swap2\n      swap1\n      tag_31\n      jump\t// in\n    tag_30:\n      mload(0x40)\n      dup1\n      swap2\n      sub\n      swap1\n      return\n        /* \"ownable.sol\":85:106  address public _owner */\n    tag_7:\n      callvalue\n      dup1\n      iszero\n      tag_32\n      jumpi\n      0x00\n      dup1\n      revert\n    tag_32:\n      pop\n      tag_33\n      tag_34\n      jump\t// in\n    tag_33:\n      mload(0x40)\n      tag_35\n      swap2\n      swap1\n      tag_36\n      jump\t// in\n    tag_35:\n      mload(0x40)\n      dup1\n      swap2\n      sub\n      swap1\n      return\n        /* \"certificateissuer.sol\":1665:1900  function updateCertificateRecipient(string memory cauth) public  {... */\n    tag_8:\n      callvalue\n      dup1\n      iszero\n      tag_37\n      jumpi\n      0x00\n      dup1\n      revert\n    tag_37:\n      pop\n      tag_38\n      0x04\n      dup1\n      calldatasize\n      sub\n      dup2\n      add\n      swap1\n      tag_39\n      swap2\n      swap1\n      tag_12\n      jump\t// in\n    tag_39:\n      tag_40\n      jump\t// in\n    tag_38:\n      stop\n        /* \"certificateissuer.sol\":2507:2620  function stakeToken (string memory _cauth) external payable{... */\n    tag_13:\n        /* \"certificateissuer.sol\":2585:2600  cauthToCanStake */\n      0x02\n        /* \"certificateissuer.sol\":2601:2607  _cauth */\n      dup2\n        /* \"certificateissuer.sol\":2585:2608  cauthToCanStake[_cauth] */\n      mload(0x40)\n      tag_42\n      swap2\n      swap1\n      tag_43\n      jump\t// in\n    tag_42:\n      swap1\n      dup2\n      mstore\n      0x20\n      add\n      mload(0x40)\n      dup1\n      swap2\n      sub\n      swap1\n      keccak256\n      0x00\n      swap1\n      sload\n      swap1\n      0x0100\n      exp\n      swap1\n      div\n      0xff\n      and\n        /* \"certificateissuer.sol\":2577:2609  require(cauthToCanStake[_cauth]) */\n      tag_44\n      jumpi\n      0x00\n      dup1\n      revert\n    tag_44:\n        /* \"certificateissuer.sol\":2507:2620  function stakeToken (string memory _cauth) external payable{... */\n      pop\n      jump\t// out\n        /* \"ownable.sol\":551:643  function setOwner(address _newOwner) public onlyOwner {... */\n    tag_18:\n        /* \"ownable.sol\":299:308  isOwner() */\n      tag_46\n        /* \"ownable.sol\":299:306  isOwner */\n      tag_29\n        /* \"ownable.sol\":299:308  isOwner() */\n      jump\t// in\n    tag_46:\n        /* \"ownable.sol\":291:345  require(isOwner(), \"Ownable: caller is not the owner\") */\n      tag_47\n      jumpi\n      mload(0x40)\n      0x08c379a000000000000000000000000000000000000000000000000000000000\n      dup2\n      mstore\n      0x04\n      add\n      tag_48\n      swap1\n      tag_49\n      jump\t// in\n    tag_48:\n      mload(0x40)\n      dup1\n      swap2\n      sub\n      swap1\n      revert\n    tag_47:\n        /* \"ownable.sol\":625:634  _newOwner */\n      dup1\n        /* \"ownable.sol\":616:622  _owner */\n      0x00\n      dup1\n        /* \"ownable.sol\":616:634  _owner = _newOwner */\n      0x0100\n      exp\n      dup2\n      sload\n      dup2\n      0xffffffffffffffffffffffffffffffffffffffff\n      mul\n      not\n      and\n      swap1\n      dup4\n      0xffffffffffffffffffffffffffffffffffffffff\n      and\n      mul\n      or\n      swap1\n      sstore\n      pop\n        /* \"ownable.sol\":551:643  function setOwner(address _newOwner) public onlyOwner {... */\n      pop\n      jump\t// out\n        /* \"certificateissuer.sol\":1908:2273  function issueCertificate(string memory _name , string memory _courseTittle, uint _duration , uint institute,string memory cauth ) external payable {... */\n    tag_22:\n        /* \"certificateissuer.sol\":2150:2154  true */\n      0x01\n        /* \"certificateissuer.sol\":2129:2154  cauthValid[cauth] == true */\n      iszero\n      iszero\n        /* \"certificateissuer.sol\":2129:2139  cauthValid */\n      0x01\n        /* \"certificateissuer.sol\":2140:2145  cauth */\n      dup3\n        /* \"certificateissuer.sol\":2129:2146  cauthValid[cauth] */\n      mload(0x40)\n      tag_52\n      swap2\n      swap1\n      tag_43\n      jump\t// in\n    tag_52:\n      swap1\n      dup2\n      mstore\n      0x20\n      add\n      mload(0x40)\n      dup1\n      swap2\n      sub\n      swap1\n      keccak256\n      0x00\n      swap1\n      sload\n      swap1\n      0x0100\n      exp\n      swap1\n      div\n      0xff\n      and\n        /* \"certificateissuer.sol\":2129:2154  cauthValid[cauth] == true */\n      iszero\n      iszero\n      eq\n        /* \"certificateissuer.sol\":2121:2155  require(cauthValid[cauth] == true) */\n      tag_53\n      jumpi\n      0x00\n      dup1\n      revert\n    tag_53:\n        /* \"certificateissuer.sol\":2258:2263  false */\n      0x00\n        /* \"certificateissuer.sol\":2238:2248  cauthValid */\n      0x01\n        /* \"certificateissuer.sol\":2249:2254  cauth */\n      dup3\n        /* \"certificateissuer.sol\":2238:2255  cauthValid[cauth] */\n      mload(0x40)\n      tag_54\n      swap2\n      swap1\n      tag_43\n      jump\t// in\n    tag_54:\n      swap1\n      dup2\n      mstore\n      0x20\n      add\n      mload(0x40)\n      dup1\n      swap2\n      sub\n      swap1\n      keccak256\n      0x00\n        /* \"certificateissuer.sol\":2238:2263  cauthValid[cauth] = false */\n      0x0100\n      exp\n      dup2\n      sload\n      dup2\n      0xff\n      mul\n      not\n      and\n      swap1\n      dup4\n      iszero\n      iszero\n      mul\n      or\n      swap1\n      sstore\n      pop\n        /* \"certificateissuer.sol\":1908:2273  function issueCertificate(string memory _name , string memory _courseTittle, uint _duration , uint institute,string memory cauth ) external payable {... */\n      pop\n      pop\n      pop\n      pop\n      pop\n      jump\t// out\n        /* \"certificateissuer.sol\":530:634  function setAdmin(address _adminParameter) public onlyOwner{... */\n    tag_26:\n        /* \"ownable.sol\":299:308  isOwner() */\n      tag_56\n        /* \"ownable.sol\":299:306  isOwner */\n      tag_29\n        /* \"ownable.sol\":299:308  isOwner() */\n      jump\t// in\n    tag_56:\n        /* \"ownable.sol\":291:345  require(isOwner(), \"Ownable: caller is not the owner\") */\n      tag_57\n      jumpi\n      mload(0x40)\n      0x08c379a000000000000000000000000000000000000000000000000000000000\n      dup2\n      mstore\n      0x04\n      add\n      tag_58\n      swap1\n      tag_49\n      jump\t// in\n    tag_58:\n      mload(0x40)\n      dup1\n      swap2\n      sub\n      swap1\n      revert\n    tag_57:\n        /* \"certificateissuer.sol\":609:624  _adminParameter */\n      dup1\n        /* \"certificateissuer.sol\":600:606  _admin */\n      0x03\n      0x00\n        /* \"certificateissuer.sol\":600:624  _admin = _adminParameter */\n      0x0100\n      exp\n      dup2\n      sload\n      dup2\n      0xffffffffffffffffffffffffffffffffffffffff\n      mul\n      not\n      and\n      swap1\n      dup4\n      0xffffffffffffffffffffffffffffffffffffffff\n      and\n      mul\n      or\n      swap1\n      sstore\n      pop\n        /* \"certificateissuer.sol\":530:634  function setAdmin(address _adminParameter) public onlyOwner{... */\n      pop\n      jump\t// out\n        /* \"ownable.sol\":451:545  function isOwner() public view returns (bool) {... */\n    tag_29:\n        /* \"ownable.sol\":491:495  bool */\n      0x00\n        /* \"ownable.sol\":530:536  _owner */\n      dup1\n      0x00\n      swap1\n      sload\n      swap1\n      0x0100\n      exp\n      swap1\n      div\n      0xffffffffffffffffffffffffffffffffffffffff\n      and\n        /* \"ownable.sol\":516:536  msg.sender == _owner */\n      0xffffffffffffffffffffffffffffffffffffffff\n      and\n        /* \"ownable.sol\":516:526  msg.sender */\n      caller\n        /* \"ownable.sol\":516:536  msg.sender == _owner */\n      0xffffffffffffffffffffffffffffffffffffffff\n      and\n      eq\n        /* \"ownable.sol\":508:537  return (msg.sender == _owner) */\n      swap1\n      pop\n        /* \"ownable.sol\":451:545  function isOwner() public view returns (bool) {... */\n      swap1\n      jump\t// out\n        /* \"ownable.sol\":85:106  address public _owner */\n    tag_34:\n      0x00\n      dup1\n      sload\n      swap1\n      0x0100\n      exp\n      swap1\n      div\n      0xffffffffffffffffffffffffffffffffffffffff\n      and\n      dup2\n      jump\t// out\n        /* \"certificateissuer.sol\":1665:1900  function updateCertificateRecipient(string memory cauth) public  {... */\n    tag_40:\n        /* \"certificateissuer.sol\":1763:1769  _admin */\n      0x03\n      0x00\n      swap1\n      sload\n      swap1\n      0x0100\n      exp\n      swap1\n      div\n      0xffffffffffffffffffffffffffffffffffffffff\n      and\n        /* \"certificateissuer.sol\":1749:1769  msg.sender == _admin */\n      0xffffffffffffffffffffffffffffffffffffffff\n      and\n        /* \"certificateissuer.sol\":1749:1759  msg.sender */\n      caller\n        /* \"certificateissuer.sol\":1749:1769  msg.sender == _admin */\n      0xffffffffffffffffffffffffffffffffffffffff\n      and\n      eq\n        /* \"certificateissuer.sol\":1741:1770  require(msg.sender == _admin) */\n      tag_62\n      jumpi\n      0x00\n      dup1\n      revert\n    tag_62:\n        /* \"certificateissuer.sol\":1802:1806  true */\n      0x01\n        /* \"certificateissuer.sol\":1782:1792  cauthValid */\n      dup1\n        /* \"certificateissuer.sol\":1793:1798  cauth */\n      dup3\n        /* \"certificateissuer.sol\":1782:1799  cauthValid[cauth] */\n      mload(0x40)\n      tag_63\n      swap2\n      swap1\n      tag_43\n      jump\t// in\n    tag_63:\n      swap1\n      dup2\n      mstore\n      0x20\n      add\n      mload(0x40)\n      dup1\n      swap2\n      sub\n      swap1\n      keccak256\n      0x00\n        /* \"certificateissuer.sol\":1782:1806  cauthValid[cauth] = true */\n      0x0100\n      exp\n      dup2\n      sload\n      dup2\n      0xff\n      mul\n      not\n      and\n      swap1\n      dup4\n      iszero\n      iszero\n      mul\n      or\n      swap1\n      sstore\n      pop\n        /* \"certificateissuer.sol\":1828:1838  cauthValid */\n      0x01\n        /* \"certificateissuer.sol\":1839:1844  cauth */\n      dup2\n        /* \"certificateissuer.sol\":1828:1845  cauthValid[cauth] */\n      mload(0x40)\n      tag_64\n      swap2\n      swap1\n      tag_43\n      jump\t// in\n    tag_64:\n      swap1\n      dup2\n      mstore\n      0x20\n      add\n      mload(0x40)\n      dup1\n      swap2\n      sub\n      swap1\n      keccak256\n      0x00\n      swap1\n      sload\n      swap1\n      0x0100\n      exp\n      swap1\n      div\n      0xff\n      and\n        /* \"certificateissuer.sol\":1820:1846  require(cauthValid[cauth]) */\n      tag_65\n      jumpi\n      0x00\n      dup1\n      revert\n    tag_65:\n        /* \"certificateissuer.sol\":1884:1888  true */\n      0x01\n        /* \"certificateissuer.sol\":1859:1874  cauthToCanStake */\n      0x02\n        /* \"certificateissuer.sol\":1875:1880  cauth */\n      dup3\n        /* \"certificateissuer.sol\":1859:1881  cauthToCanStake[cauth] */\n      mload(0x40)\n      tag_66\n      swap2\n      swap1\n      tag_43\n      jump\t// in\n    tag_66:\n      swap1\n      dup2\n      mstore\n      0x20\n      add\n      mload(0x40)\n      dup1\n      swap2\n      sub\n      swap1\n      keccak256\n      0x00\n        /* \"certificateissuer.sol\":1859:1888  cauthToCanStake[cauth] = true */\n      0x0100\n      exp\n      dup2\n      sload\n      dup2\n      0xff\n      mul\n      not\n      and\n      swap1\n      dup4\n      iszero\n      iszero\n      mul\n      or\n      swap1\n      sstore\n      pop\n        /* \"certificateissuer.sol\":1665:1900  function updateCertificateRecipient(string memory cauth) public  {... */\n      pop\n      jump\t// out\n        /* \"#utility.yul\":7:82   */\n    tag_67:\n        /* \"#utility.yul\":40:46   */\n      0x00\n        /* \"#utility.yul\":73:75   */\n      0x40\n        /* \"#utility.yul\":67:76   */\n      mload\n        /* \"#utility.yul\":57:76   */\n      swap1\n      pop\n        /* \"#utility.yul\":7:82   */\n      swap1\n      jump\t// out\n        /* \"#utility.yul\":88:205   */\n    tag_68:\n        /* \"#utility.yul\":197:198   */\n      0x00\n        /* \"#utility.yul\":194:195   */\n      dup1\n        /* \"#utility.yul\":187:199   */\n      revert\n        /* \"#utility.yul\":211:328   */\n    tag_69:\n        /* \"#utility.yul\":320:321   */\n      0x00\n        /* \"#utility.yul\":317:318   */\n      dup1\n        /* \"#utility.yul\":310:322   */\n      revert\n        /* \"#utility.yul\":334:451   */\n    tag_70:\n        /* \"#utility.yul\":443:444   */\n      0x00\n        /* \"#utility.yul\":440:441   */\n      dup1\n        /* \"#utility.yul\":433:445   */\n      revert\n        /* \"#utility.yul\":457:574   */\n    tag_71:\n        /* \"#utility.yul\":566:567   */\n      0x00\n        /* \"#utility.yul\":563:564   */\n      dup1\n        /* \"#utility.yul\":556:568   */\n      revert\n        /* \"#utility.yul\":580:682   */\n    tag_72:\n        /* \"#utility.yul\":621:627   */\n      0x00\n        /* \"#utility.yul\":672:674   */\n      0x1f\n        /* \"#utility.yul\":668:675   */\n      not\n        /* \"#utility.yul\":663:665   */\n      0x1f\n        /* \"#utility.yul\":656:661   */\n      dup4\n        /* \"#utility.yul\":652:666   */\n      add\n        /* \"#utility.yul\":648:676   */\n      and\n        /* \"#utility.yul\":638:676   */\n      swap1\n      pop\n        /* \"#utility.yul\":580:682   */\n      swap2\n      swap1\n      pop\n      jump\t// out\n        /* \"#utility.yul\":688:868   */\n    tag_73:\n        /* \"#utility.yul\":736:813   */\n      0x4e487b7100000000000000000000000000000000000000000000000000000000\n        /* \"#utility.yul\":733:734   */\n      0x00\n        /* \"#utility.yul\":726:814   */\n      mstore\n        /* \"#utility.yul\":833:837   */\n      0x41\n        /* \"#utility.yul\":830:831   */\n      0x04\n        /* \"#utility.yul\":823:838   */\n      mstore\n        /* \"#utility.yul\":857:861   */\n      0x24\n        /* \"#utility.yul\":854:855   */\n      0x00\n        /* \"#utility.yul\":847:862   */\n      revert\n        /* \"#utility.yul\":874:1155   */\n    tag_74:\n        /* \"#utility.yul\":957:984   */\n      tag_106\n        /* \"#utility.yul\":979:983   */\n      dup3\n        /* \"#utility.yul\":957:984   */\n      tag_72\n      jump\t// in\n    tag_106:\n        /* \"#utility.yul\":949:955   */\n      dup2\n        /* \"#utility.yul\":945:985   */\n      add\n        /* \"#utility.yul\":1087:1093   */\n      dup2\n        /* \"#utility.yul\":1075:1085   */\n      dup2\n        /* \"#utility.yul\":1072:1094   */\n      lt\n        /* \"#utility.yul\":1051:1069   */\n      0xffffffffffffffff\n        /* \"#utility.yul\":1039:1049   */\n      dup3\n        /* \"#utility.yul\":1036:1070   */\n      gt\n        /* \"#utility.yul\":1033:1095   */\n      or\n        /* \"#utility.yul\":1030:1118   */\n      iszero\n      tag_107\n      jumpi\n        /* \"#utility.yul\":1098:1116   */\n      tag_108\n      tag_73\n      jump\t// in\n    tag_108:\n        /* \"#utility.yul\":1030:1118   */\n    tag_107:\n        /* \"#utility.yul\":1138:1148   */\n      dup1\n        /* \"#utility.yul\":1134:1136   */\n      0x40\n        /* \"#utility.yul\":1127:1149   */\n      mstore\n        /* \"#utility.yul\":917:1155   */\n      pop\n        /* \"#utility.yul\":874:1155   */\n      pop\n      pop\n      jump\t// out\n        /* \"#utility.yul\":1161:1290   */\n    tag_75:\n        /* \"#utility.yul\":1195:1201   */\n      0x00\n        /* \"#utility.yul\":1222:1242   */\n      tag_110\n      tag_67\n      jump\t// in\n    tag_110:\n        /* \"#utility.yul\":1212:1242   */\n      swap1\n      pop\n        /* \"#utility.yul\":1251:1284   */\n      tag_111\n        /* \"#utility.yul\":1279:1283   */\n      dup3\n        /* \"#utility.yul\":1271:1277   */\n      dup3\n        /* \"#utility.yul\":1251:1284   */\n      tag_74\n      jump\t// in\n    tag_111:\n        /* \"#utility.yul\":1161:1290   */\n      swap2\n      swap1\n      pop\n      jump\t// out\n        /* \"#utility.yul\":1296:1604   */\n    tag_76:\n        /* \"#utility.yul\":1358:1362   */\n      0x00\n        /* \"#utility.yul\":1448:1466   */\n      0xffffffffffffffff\n        /* \"#utility.yul\":1440:1446   */\n      dup3\n        /* \"#utility.yul\":1437:1467   */\n      gt\n        /* \"#utility.yul\":1434:1490   */\n      iszero\n      tag_113\n      jumpi\n        /* \"#utility.yul\":1470:1488   */\n      tag_114\n      tag_73\n      jump\t// in\n    tag_114:\n        /* \"#utility.yul\":1434:1490   */\n    tag_113:\n        /* \"#utility.yul\":1508:1537   */\n      tag_115\n        /* \"#utility.yul\":1530:1536   */\n      dup3\n        /* \"#utility.yul\":1508:1537   */\n      tag_72\n      jump\t// in\n    tag_115:\n        /* \"#utility.yul\":1500:1537   */\n      swap1\n      pop\n        /* \"#utility.yul\":1592:1596   */\n      0x20\n        /* \"#utility.yul\":1586:1590   */\n      dup2\n        /* \"#utility.yul\":1582:1597   */\n      add\n        /* \"#utility.yul\":1574:1597   */\n      swap1\n      pop\n        /* \"#utility.yul\":1296:1604   */\n      swap2\n      swap1\n      pop\n      jump\t// out\n        /* \"#utility.yul\":1610:1764   */\n    tag_77:\n        /* \"#utility.yul\":1694:1700   */\n      dup3\n        /* \"#utility.yul\":1689:1692   */\n      dup2\n        /* \"#utility.yul\":1684:1687   */\n      dup4\n        /* \"#utility.yul\":1671:1701   */\n      calldatacopy\n        /* \"#utility.yul\":1756:1757   */\n      0x00\n        /* \"#utility.yul\":1747:1753   */\n      dup4\n        /* \"#utility.yul\":1742:1745   */\n      dup4\n        /* \"#utility.yul\":1738:1754   */\n      add\n        /* \"#utility.yul\":1731:1758   */\n      mstore\n        /* \"#utility.yul\":1610:1764   */\n      pop\n      pop\n      pop\n      jump\t// out\n        /* \"#utility.yul\":1770:2182   */\n    tag_78:\n        /* \"#utility.yul\":1848:1853   */\n      0x00\n        /* \"#utility.yul\":1873:1939   */\n      tag_118\n        /* \"#utility.yul\":1889:1938   */\n      tag_119\n        /* \"#utility.yul\":1931:1937   */\n      dup5\n        /* \"#utility.yul\":1889:1938   */\n      tag_76\n      jump\t// in\n    tag_119:\n        /* \"#utility.yul\":1873:1939   */\n      tag_75\n      jump\t// in\n    tag_118:\n        /* \"#utility.yul\":1864:1939   */\n      swap1\n      pop\n        /* \"#utility.yul\":1962:1968   */\n      dup3\n        /* \"#utility.yul\":1955:1960   */\n      dup2\n        /* \"#utility.yul\":1948:1969   */\n      mstore\n        /* \"#utility.yul\":2000:2004   */\n      0x20\n        /* \"#utility.yul\":1993:1998   */\n      dup2\n        /* \"#utility.yul\":1989:2005   */\n      add\n        /* \"#utility.yul\":2038:2041   */\n      dup5\n        /* \"#utility.yul\":2029:2035   */\n      dup5\n        /* \"#utility.yul\":2024:2027   */\n      dup5\n        /* \"#utility.yul\":2020:2036   */\n      add\n        /* \"#utility.yul\":2017:2042   */\n      gt\n        /* \"#utility.yul\":2014:2126   */\n      iszero\n      tag_120\n      jumpi\n        /* \"#utility.yul\":2045:2124   */\n      tag_121\n      tag_71\n      jump\t// in\n    tag_121:\n        /* \"#utility.yul\":2014:2126   */\n    tag_120:\n        /* \"#utility.yul\":2135:2176   */\n      tag_122\n        /* \"#utility.yul\":2169:2175   */\n      dup5\n        /* \"#utility.yul\":2164:2167   */\n      dup3\n        /* \"#utility.yul\":2159:2162   */\n      dup6\n        /* \"#utility.yul\":2135:2176   */\n      tag_77\n      jump\t// in\n    tag_122:\n        /* \"#utility.yul\":1854:2182   */\n      pop\n        /* \"#utility.yul\":1770:2182   */\n      swap4\n      swap3\n      pop\n      pop\n      pop\n      jump\t// out\n        /* \"#utility.yul\":2202:2542   */\n    tag_79:\n        /* \"#utility.yul\":2258:2263   */\n      0x00\n        /* \"#utility.yul\":2307:2310   */\n      dup3\n        /* \"#utility.yul\":2300:2304   */\n      0x1f\n        /* \"#utility.yul\":2292:2298   */\n      dup4\n        /* \"#utility.yul\":2288:2305   */\n      add\n        /* \"#utility.yul\":2284:2311   */\n      slt\n        /* \"#utility.yul\":2274:2396   */\n      tag_124\n      jumpi\n        /* \"#utility.yul\":2315:2394   */\n      tag_125\n      tag_70\n      jump\t// in\n    tag_125:\n        /* \"#utility.yul\":2274:2396   */\n    tag_124:\n        /* \"#utility.yul\":2432:2438   */\n      dup2\n        /* \"#utility.yul\":2419:2439   */\n      calldataload\n        /* \"#utility.yul\":2457:2536   */\n      tag_126\n        /* \"#utility.yul\":2532:2535   */\n      dup5\n        /* \"#utility.yul\":2524:2530   */\n      dup3\n        /* \"#utility.yul\":2517:2521   */\n      0x20\n        /* \"#utility.yul\":2509:2515   */\n      dup7\n        /* \"#utility.yul\":2505:2522   */\n      add\n        /* \"#utility.yul\":2457:2536   */\n      tag_78\n      jump\t// in\n    tag_126:\n        /* \"#utility.yul\":2448:2536   */\n      swap2\n      pop\n        /* \"#utility.yul\":2264:2542   */\n      pop\n        /* \"#utility.yul\":2202:2542   */\n      swap3\n      swap2\n      pop\n      pop\n      jump\t// out\n        /* \"#utility.yul\":2548:3057   */\n    tag_12:\n        /* \"#utility.yul\":2617:2623   */\n      0x00\n        /* \"#utility.yul\":2666:2668   */\n      0x20\n        /* \"#utility.yul\":2654:2663   */\n      dup3\n        /* \"#utility.yul\":2645:2652   */\n      dup5\n        /* \"#utility.yul\":2641:2664   */\n      sub\n        /* \"#utility.yul\":2637:2669   */\n      slt\n        /* \"#utility.yul\":2634:2753   */\n      iszero\n      tag_128\n      jumpi\n        /* \"#utility.yul\":2672:2751   */\n      tag_129\n      tag_68\n      jump\t// in\n    tag_129:\n        /* \"#utility.yul\":2634:2753   */\n    tag_128:\n        /* \"#utility.yul\":2820:2821   */\n      0x00\n        /* \"#utility.yul\":2809:2818   */\n      dup3\n        /* \"#utility.yul\":2805:2822   */\n      add\n        /* \"#utility.yul\":2792:2823   */\n      calldataload\n        /* \"#utility.yul\":2850:2868   */\n      0xffffffffffffffff\n        /* \"#utility.yul\":2842:2848   */\n      dup2\n        /* \"#utility.yul\":2839:2869   */\n      gt\n        /* \"#utility.yul\":2836:2953   */\n      iszero\n      tag_130\n      jumpi\n        /* \"#utility.yul\":2872:2951   */\n      tag_131\n      tag_69\n      jump\t// in\n    tag_131:\n        /* \"#utility.yul\":2836:2953   */\n    tag_130:\n        /* \"#utility.yul\":2977:3040   */\n      tag_132\n        /* \"#utility.yul\":3032:3039   */\n      dup5\n        /* \"#utility.yul\":3023:3029   */\n      dup3\n        /* \"#utility.yul\":3012:3021   */\n      dup6\n        /* \"#utility.yul\":3008:3030   */\n      add\n        /* \"#utility.yul\":2977:3040   */\n      tag_79\n      jump\t// in\n    tag_132:\n        /* \"#utility.yul\":2967:3040   */\n      swap2\n      pop\n        /* \"#utility.yul\":2763:3050   */\n      pop\n        /* \"#utility.yul\":2548:3057   */\n      swap3\n      swap2\n      pop\n      pop\n      jump\t// out\n        /* \"#utility.yul\":3063:3189   */\n    tag_80:\n        /* \"#utility.yul\":3100:3107   */\n      0x00\n        /* \"#utility.yul\":3140:3182   */\n      0xffffffffffffffffffffffffffffffffffffffff\n        /* \"#utility.yul\":3133:3138   */\n      dup3\n        /* \"#utility.yul\":3129:3183   */\n      and\n        /* \"#utility.yul\":3118:3183   */\n      swap1\n      pop\n        /* \"#utility.yul\":3063:3189   */\n      swap2\n      swap1\n      pop\n      jump\t// out\n        /* \"#utility.yul\":3195:3291   */\n    tag_81:\n        /* \"#utility.yul\":3232:3239   */\n      0x00\n        /* \"#utility.yul\":3261:3285   */\n      tag_135\n        /* \"#utility.yul\":3279:3284   */\n      dup3\n        /* \"#utility.yul\":3261:3285   */\n      tag_80\n      jump\t// in\n    tag_135:\n        /* \"#utility.yul\":3250:3285   */\n      swap1\n      pop\n        /* \"#utility.yul\":3195:3291   */\n      swap2\n      swap1\n      pop\n      jump\t// out\n        /* \"#utility.yul\":3297:3419   */\n    tag_82:\n        /* \"#utility.yul\":3370:3394   */\n      tag_137\n        /* \"#utility.yul\":3388:3393   */\n      dup2\n        /* \"#utility.yul\":3370:3394   */\n      tag_81\n      jump\t// in\n    tag_137:\n        /* \"#utility.yul\":3363:3368   */\n      dup2\n        /* \"#utility.yul\":3360:3395   */\n      eq\n        /* \"#utility.yul\":3350:3413   */\n      tag_138\n      jumpi\n        /* \"#utility.yul\":3409:3410   */\n      0x00\n        /* \"#utility.yul\":3406:3407   */\n      dup1\n        /* \"#utility.yul\":3399:3411   */\n      revert\n        /* \"#utility.yul\":3350:3413   */\n    tag_138:\n        /* \"#utility.yul\":3297:3419   */\n      pop\n      jump\t// out\n        /* \"#utility.yul\":3425:3564   */\n    tag_83:\n        /* \"#utility.yul\":3471:3476   */\n      0x00\n        /* \"#utility.yul\":3509:3515   */\n      dup2\n        /* \"#utility.yul\":3496:3516   */\n      calldataload\n        /* \"#utility.yul\":3487:3516   */\n      swap1\n      pop\n        /* \"#utility.yul\":3525:3558   */\n      tag_140\n        /* \"#utility.yul\":3552:3557   */\n      dup2\n        /* \"#utility.yul\":3525:3558   */\n      tag_82\n      jump\t// in\n    tag_140:\n        /* \"#utility.yul\":3425:3564   */\n      swap3\n      swap2\n      pop\n      pop\n      jump\t// out\n        /* \"#utility.yul\":3570:3899   */\n    tag_17:\n        /* \"#utility.yul\":3629:3635   */\n      0x00\n        /* \"#utility.yul\":3678:3680   */\n      0x20\n        /* \"#utility.yul\":3666:3675   */\n      dup3\n        /* \"#utility.yul\":3657:3664   */\n      dup5\n        /* \"#utility.yul\":3653:3676   */\n      sub\n        /* \"#utility.yul\":3649:3681   */\n      slt\n        /* \"#utility.yul\":3646:3765   */\n      iszero\n      tag_142\n      jumpi\n        /* \"#utility.yul\":3684:3763   */\n      tag_143\n      tag_68\n      jump\t// in\n    tag_143:\n        /* \"#utility.yul\":3646:3765   */\n    tag_142:\n        /* \"#utility.yul\":3804:3805   */\n      0x00\n        /* \"#utility.yul\":3829:3882   */\n      tag_144\n        /* \"#utility.yul\":3874:3881   */\n      dup5\n        /* \"#utility.yul\":3865:3871   */\n      dup3\n        /* \"#utility.yul\":3854:3863   */\n      dup6\n        /* \"#utility.yul\":3850:3872   */\n      add\n        /* \"#utility.yul\":3829:3882   */\n      tag_83\n      jump\t// in\n    tag_144:\n        /* \"#utility.yul\":3819:3882   */\n      swap2\n      pop\n        /* \"#utility.yul\":3775:3892   */\n      pop\n        /* \"#utility.yul\":3570:3899   */\n      swap3\n      swap2\n      pop\n      pop\n      jump\t// out\n        /* \"#utility.yul\":3905:3982   */\n    tag_84:\n        /* \"#utility.yul\":3942:3949   */\n      0x00\n        /* \"#utility.yul\":3971:3976   */\n      dup2\n        /* \"#utility.yul\":3960:3976   */\n      swap1\n      pop\n        /* \"#utility.yul\":3905:3982   */\n      swap2\n      swap1\n      pop\n      jump\t// out\n        /* \"#utility.yul\":3988:4110   */\n    tag_85:\n        /* \"#utility.yul\":4061:4085   */\n      tag_147\n        /* \"#utility.yul\":4079:4084   */\n      dup2\n        /* \"#utility.yul\":4061:4085   */\n      tag_84\n      jump\t// in\n    tag_147:\n        /* \"#utility.yul\":4054:4059   */\n      dup2\n        /* \"#utility.yul\":4051:4086   */\n      eq\n        /* \"#utility.yul\":4041:4104   */\n      tag_148\n      jumpi\n        /* \"#utility.yul\":4100:4101   */\n      0x00\n        /* \"#utility.yul\":4097:4098   */\n      dup1\n        /* \"#utility.yul\":4090:4102   */\n      revert\n        /* \"#utility.yul\":4041:4104   */\n    tag_148:\n        /* \"#utility.yul\":3988:4110   */\n      pop\n      jump\t// out\n        /* \"#utility.yul\":4116:4255   */\n    tag_86:\n        /* \"#utility.yul\":4162:4167   */\n      0x00\n        /* \"#utility.yul\":4200:4206   */\n      dup2\n        /* \"#utility.yul\":4187:4207   */\n      calldataload\n        /* \"#utility.yul\":4178:4207   */\n      swap1\n      pop\n        /* \"#utility.yul\":4216:4249   */\n      tag_150\n        /* \"#utility.yul\":4243:4248   */\n      dup2\n        /* \"#utility.yul\":4216:4249   */\n      tag_85\n      jump\t// in\n    tag_150:\n        /* \"#utility.yul\":4116:4255   */\n      swap3\n      swap2\n      pop\n      pop\n      jump\t// out\n        /* \"#utility.yul\":4261:5712   */\n    tag_21:\n        /* \"#utility.yul\":4386:4392   */\n      0x00\n        /* \"#utility.yul\":4394:4400   */\n      dup1\n        /* \"#utility.yul\":4402:4408   */\n      0x00\n        /* \"#utility.yul\":4410:4416   */\n      dup1\n        /* \"#utility.yul\":4418:4424   */\n      0x00\n        /* \"#utility.yul\":4467:4470   */\n      0xa0\n        /* \"#utility.yul\":4455:4464   */\n      dup7\n        /* \"#utility.yul\":4446:4453   */\n      dup9\n        /* \"#utility.yul\":4442:4465   */\n      sub\n        /* \"#utility.yul\":4438:4471   */\n      slt\n        /* \"#utility.yul\":4435:4555   */\n      iszero\n      tag_152\n      jumpi\n        /* \"#utility.yul\":4474:4553   */\n      tag_153\n      tag_68\n      jump\t// in\n    tag_153:\n        /* \"#utility.yul\":4435:4555   */\n    tag_152:\n        /* \"#utility.yul\":4622:4623   */\n      0x00\n        /* \"#utility.yul\":4611:4620   */\n      dup7\n        /* \"#utility.yul\":4607:4624   */\n      add\n        /* \"#utility.yul\":4594:4625   */\n      calldataload\n        /* \"#utility.yul\":4652:4670   */\n      0xffffffffffffffff\n        /* \"#utility.yul\":4644:4650   */\n      dup2\n        /* \"#utility.yul\":4641:4671   */\n      gt\n        /* \"#utility.yul\":4638:4755   */\n      iszero\n      tag_154\n      jumpi\n        /* \"#utility.yul\":4674:4753   */\n      tag_155\n      tag_69\n      jump\t// in\n    tag_155:\n        /* \"#utility.yul\":4638:4755   */\n    tag_154:\n        /* \"#utility.yul\":4779:4842   */\n      tag_156\n        /* \"#utility.yul\":4834:4841   */\n      dup9\n        /* \"#utility.yul\":4825:4831   */\n      dup3\n        /* \"#utility.yul\":4814:4823   */\n      dup10\n        /* \"#utility.yul\":4810:4832   */\n      add\n        /* \"#utility.yul\":4779:4842   */\n      tag_79\n      jump\t// in\n    tag_156:\n        /* \"#utility.yul\":4769:4842   */\n      swap6\n      pop\n        /* \"#utility.yul\":4565:4852   */\n      pop\n        /* \"#utility.yul\":4919:4921   */\n      0x20\n        /* \"#utility.yul\":4908:4917   */\n      dup7\n        /* \"#utility.yul\":4904:4922   */\n      add\n        /* \"#utility.yul\":4891:4923   */\n      calldataload\n        /* \"#utility.yul\":4950:4968   */\n      0xffffffffffffffff\n        /* \"#utility.yul\":4942:4948   */\n      dup2\n        /* \"#utility.yul\":4939:4969   */\n      gt\n        /* \"#utility.yul\":4936:5053   */\n      iszero\n      tag_157\n      jumpi\n        /* \"#utility.yul\":4972:5051   */\n      tag_158\n      tag_69\n      jump\t// in\n    tag_158:\n        /* \"#utility.yul\":4936:5053   */\n    tag_157:\n        /* \"#utility.yul\":5077:5140   */\n      tag_159\n        /* \"#utility.yul\":5132:5139   */\n      dup9\n        /* \"#utility.yul\":5123:5129   */\n      dup3\n        /* \"#utility.yul\":5112:5121   */\n      dup10\n        /* \"#utility.yul\":5108:5130   */\n      add\n        /* \"#utility.yul\":5077:5140   */\n      tag_79\n      jump\t// in\n    tag_159:\n        /* \"#utility.yul\":5067:5140   */\n      swap5\n      pop\n        /* \"#utility.yul\":4862:5150   */\n      pop\n        /* \"#utility.yul\":5189:5191   */\n      0x40\n        /* \"#utility.yul\":5215:5268   */\n      tag_160\n        /* \"#utility.yul\":5260:5267   */\n      dup9\n        /* \"#utility.yul\":5251:5257   */\n      dup3\n        /* \"#utility.yul\":5240:5249   */\n      dup10\n        /* \"#utility.yul\":5236:5258   */\n      add\n        /* \"#utility.yul\":5215:5268   */\n      tag_86\n      jump\t// in\n    tag_160:\n        /* \"#utility.yul\":5205:5268   */\n      swap4\n      pop\n        /* \"#utility.yul\":5160:5278   */\n      pop\n        /* \"#utility.yul\":5317:5319   */\n      0x60\n        /* \"#utility.yul\":5343:5396   */\n      tag_161\n        /* \"#utility.yul\":5388:5395   */\n      dup9\n        /* \"#utility.yul\":5379:5385   */\n      dup3\n        /* \"#utility.yul\":5368:5377   */\n      dup10\n        /* \"#utility.yul\":5364:5386   */\n      add\n        /* \"#utility.yul\":5343:5396   */\n      tag_86\n      jump\t// in\n    tag_161:\n        /* \"#utility.yul\":5333:5396   */\n      swap3\n      pop\n        /* \"#utility.yul\":5288:5406   */\n      pop\n        /* \"#utility.yul\":5473:5476   */\n      0x80\n        /* \"#utility.yul\":5462:5471   */\n      dup7\n        /* \"#utility.yul\":5458:5477   */\n      add\n        /* \"#utility.yul\":5445:5478   */\n      calldataload\n        /* \"#utility.yul\":5505:5523   */\n      0xffffffffffffffff\n        /* \"#utility.yul\":5497:5503   */\n      dup2\n        /* \"#utility.yul\":5494:5524   */\n      gt\n        /* \"#utility.yul\":5491:5608   */\n      iszero\n      tag_162\n      jumpi\n        /* \"#utility.yul\":5527:5606   */\n      tag_163\n      tag_69\n      jump\t// in\n    tag_163:\n        /* \"#utility.yul\":5491:5608   */\n    tag_162:\n        /* \"#utility.yul\":5632:5695   */\n      tag_164\n        /* \"#utility.yul\":5687:5694   */\n      dup9\n        /* \"#utility.yul\":5678:5684   */\n      dup3\n        /* \"#utility.yul\":5667:5676   */\n      dup10\n        /* \"#utility.yul\":5663:5685   */\n      add\n        /* \"#utility.yul\":5632:5695   */\n      tag_79\n      jump\t// in\n    tag_164:\n        /* \"#utility.yul\":5622:5695   */\n      swap2\n      pop\n        /* \"#utility.yul\":5416:5705   */\n      pop\n        /* \"#utility.yul\":4261:5712   */\n      swap3\n      swap6\n      pop\n      swap3\n      swap6\n      swap1\n      swap4\n      pop\n      jump\t// out\n        /* \"#utility.yul\":5718:5808   */\n    tag_87:\n        /* \"#utility.yul\":5752:5759   */\n      0x00\n        /* \"#utility.yul\":5795:5800   */\n      dup2\n        /* \"#utility.yul\":5788:5801   */\n      iszero\n        /* \"#utility.yul\":5781:5802   */\n      iszero\n        /* \"#utility.yul\":5770:5802   */\n      swap1\n      pop\n        /* \"#utility.yul\":5718:5808   */\n      swap2\n      swap1\n      pop\n      jump\t// out\n        /* \"#utility.yul\":5814:5923   */\n    tag_88:\n        /* \"#utility.yul\":5895:5916   */\n      tag_167\n        /* \"#utility.yul\":5910:5915   */\n      dup2\n        /* \"#utility.yul\":5895:5916   */\n      tag_87\n      jump\t// in\n    tag_167:\n        /* \"#utility.yul\":5890:5893   */\n      dup3\n        /* \"#utility.yul\":5883:5917   */\n      mstore\n        /* \"#utility.yul\":5814:5923   */\n      pop\n      pop\n      jump\t// out\n        /* \"#utility.yul\":5929:6139   */\n    tag_31:\n        /* \"#utility.yul\":6016:6020   */\n      0x00\n        /* \"#utility.yul\":6054:6056   */\n      0x20\n        /* \"#utility.yul\":6043:6052   */\n      dup3\n        /* \"#utility.yul\":6039:6057   */\n      add\n        /* \"#utility.yul\":6031:6057   */\n      swap1\n      pop\n        /* \"#utility.yul\":6067:6132   */\n      tag_169\n        /* \"#utility.yul\":6129:6130   */\n      0x00\n        /* \"#utility.yul\":6118:6127   */\n      dup4\n        /* \"#utility.yul\":6114:6131   */\n      add\n        /* \"#utility.yul\":6105:6111   */\n      dup5\n        /* \"#utility.yul\":6067:6132   */\n      tag_88\n      jump\t// in\n    tag_169:\n        /* \"#utility.yul\":5929:6139   */\n      swap3\n      swap2\n      pop\n      pop\n      jump\t// out\n        /* \"#utility.yul\":6145:6263   */\n    tag_89:\n        /* \"#utility.yul\":6232:6256   */\n      tag_171\n        /* \"#utility.yul\":6250:6255   */\n      dup2\n        /* \"#utility.yul\":6232:6256   */\n      tag_81\n      jump\t// in\n    tag_171:\n        /* \"#utility.yul\":6227:6230   */\n      dup3\n        /* \"#utility.yul\":6220:6257   */\n      mstore\n        /* \"#utility.yul\":6145:6263   */\n      pop\n      pop\n      jump\t// out\n        /* \"#utility.yul\":6269:6491   */\n    tag_36:\n        /* \"#utility.yul\":6362:6366   */\n      0x00\n        /* \"#utility.yul\":6400:6402   */\n      0x20\n        /* \"#utility.yul\":6389:6398   */\n      dup3\n        /* \"#utility.yul\":6385:6403   */\n      add\n        /* \"#utility.yul\":6377:6403   */\n      swap1\n      pop\n        /* \"#utility.yul\":6413:6484   */\n      tag_173\n        /* \"#utility.yul\":6481:6482   */\n      0x00\n        /* \"#utility.yul\":6470:6479   */\n      dup4\n        /* \"#utility.yul\":6466:6483   */\n      add\n        /* \"#utility.yul\":6457:6463   */\n      dup5\n        /* \"#utility.yul\":6413:6484   */\n      tag_89\n      jump\t// in\n    tag_173:\n        /* \"#utility.yul\":6269:6491   */\n      swap3\n      swap2\n      pop\n      pop\n      jump\t// out\n        /* \"#utility.yul\":6497:6596   */\n    tag_90:\n        /* \"#utility.yul\":6549:6555   */\n      0x00\n        /* \"#utility.yul\":6583:6588   */\n      dup2\n        /* \"#utility.yul\":6577:6589   */\n      mload\n        /* \"#utility.yul\":6567:6589   */\n      swap1\n      pop\n        /* \"#utility.yul\":6497:6596   */\n      swap2\n      swap1\n      pop\n      jump\t// out\n        /* \"#utility.yul\":6602:6750   */\n    tag_91:\n        /* \"#utility.yul\":6704:6715   */\n      0x00\n        /* \"#utility.yul\":6741:6744   */\n      dup2\n        /* \"#utility.yul\":6726:6744   */\n      swap1\n      pop\n        /* \"#utility.yul\":6602:6750   */\n      swap3\n      swap2\n      pop\n      pop\n      jump\t// out\n        /* \"#utility.yul\":6756:7063   */\n    tag_92:\n        /* \"#utility.yul\":6824:6825   */\n      0x00\n        /* \"#utility.yul\":6834:6947   */\n    tag_177:\n        /* \"#utility.yul\":6848:6854   */\n      dup4\n        /* \"#utility.yul\":6845:6846   */\n      dup2\n        /* \"#utility.yul\":6842:6855   */\n      lt\n        /* \"#utility.yul\":6834:6947   */\n      iszero\n      tag_179\n      jumpi\n        /* \"#utility.yul\":6933:6934   */\n      dup1\n        /* \"#utility.yul\":6928:6931   */\n      dup3\n        /* \"#utility.yul\":6924:6935   */\n      add\n        /* \"#utility.yul\":6918:6936   */\n      mload\n        /* \"#utility.yul\":6914:6915   */\n      dup2\n        /* \"#utility.yul\":6909:6912   */\n      dup5\n        /* \"#utility.yul\":6905:6916   */\n      add\n        /* \"#utility.yul\":6898:6937   */\n      mstore\n        /* \"#utility.yul\":6870:6872   */\n      0x20\n        /* \"#utility.yul\":6867:6868   */\n      dup2\n        /* \"#utility.yul\":6863:6873   */\n      add\n        /* \"#utility.yul\":6858:6873   */\n      swap1\n      pop\n        /* \"#utility.yul\":6834:6947   */\n      jump(tag_177)\n    tag_179:\n        /* \"#utility.yul\":6965:6971   */\n      dup4\n        /* \"#utility.yul\":6962:6963   */\n      dup2\n        /* \"#utility.yul\":6959:6972   */\n      gt\n        /* \"#utility.yul\":6956:7057   */\n      iszero\n      tag_180\n      jumpi\n        /* \"#utility.yul\":7045:7046   */\n      0x00\n        /* \"#utility.yul\":7036:7042   */\n      dup5\n        /* \"#utility.yul\":7031:7034   */\n      dup5\n        /* \"#utility.yul\":7027:7043   */\n      add\n        /* \"#utility.yul\":7020:7047   */\n      mstore\n        /* \"#utility.yul\":6956:7057   */\n    tag_180:\n        /* \"#utility.yul\":6805:7063   */\n      pop\n        /* \"#utility.yul\":6756:7063   */\n      pop\n      pop\n      pop\n      jump\t// out\n        /* \"#utility.yul\":7069:7446   */\n    tag_93:\n        /* \"#utility.yul\":7175:7178   */\n      0x00\n        /* \"#utility.yul\":7203:7242   */\n      tag_182\n        /* \"#utility.yul\":7236:7241   */\n      dup3\n        /* \"#utility.yul\":7203:7242   */\n      tag_90\n      jump\t// in\n    tag_182:\n        /* \"#utility.yul\":7258:7347   */\n      tag_183\n        /* \"#utility.yul\":7340:7346   */\n      dup2\n        /* \"#utility.yul\":7335:7338   */\n      dup6\n        /* \"#utility.yul\":7258:7347   */\n      tag_91\n      jump\t// in\n    tag_183:\n        /* \"#utility.yul\":7251:7347   */\n      swap4\n      pop\n        /* \"#utility.yul\":7356:7408   */\n      tag_184\n        /* \"#utility.yul\":7401:7407   */\n      dup2\n        /* \"#utility.yul\":7396:7399   */\n      dup6\n        /* \"#utility.yul\":7389:7393   */\n      0x20\n        /* \"#utility.yul\":7382:7387   */\n      dup7\n        /* \"#utility.yul\":7378:7394   */\n      add\n        /* \"#utility.yul\":7356:7408   */\n      tag_92\n      jump\t// in\n    tag_184:\n        /* \"#utility.yul\":7433:7439   */\n      dup1\n        /* \"#utility.yul\":7428:7431   */\n      dup5\n        /* \"#utility.yul\":7424:7440   */\n      add\n        /* \"#utility.yul\":7417:7440   */\n      swap2\n      pop\n        /* \"#utility.yul\":7179:7446   */\n      pop\n        /* \"#utility.yul\":7069:7446   */\n      swap3\n      swap2\n      pop\n      pop\n      jump\t// out\n        /* \"#utility.yul\":7452:7727   */\n    tag_43:\n        /* \"#utility.yul\":7584:7587   */\n      0x00\n        /* \"#utility.yul\":7606:7701   */\n      tag_186\n        /* \"#utility.yul\":7697:7700   */\n      dup3\n        /* \"#utility.yul\":7688:7694   */\n      dup5\n        /* \"#utility.yul\":7606:7701   */\n      tag_93\n      jump\t// in\n    tag_186:\n        /* \"#utility.yul\":7599:7701   */\n      swap2\n      pop\n        /* \"#utility.yul\":7718:7721   */\n      dup2\n        /* \"#utility.yul\":7711:7721   */\n      swap1\n      pop\n        /* \"#utility.yul\":7452:7727   */\n      swap3\n      swap2\n      pop\n      pop\n      jump\t// out\n        /* \"#utility.yul\":7733:7902   */\n    tag_94:\n        /* \"#utility.yul\":7817:7828   */\n      0x00\n        /* \"#utility.yul\":7851:7857   */\n      dup3\n        /* \"#utility.yul\":7846:7849   */\n      dup3\n        /* \"#utility.yul\":7839:7858   */\n      mstore\n        /* \"#utility.yul\":7891:7895   */\n      0x20\n        /* \"#utility.yul\":7886:7889   */\n      dup3\n        /* \"#utility.yul\":7882:7896   */\n      add\n        /* \"#utility.yul\":7867:7896   */\n      swap1\n      pop\n        /* \"#utility.yul\":7733:7902   */\n      swap3\n      swap2\n      pop\n      pop\n      jump\t// out\n        /* \"#utility.yul\":7908:8090   */\n    tag_95:\n        /* \"#utility.yul\":8048:8082   */\n      0x4f776e61626c653a2063616c6c6572206973206e6f7420746865206f776e6572\n        /* \"#utility.yul\":8044:8045   */\n      0x00\n        /* \"#utility.yul\":8036:8042   */\n      dup3\n        /* \"#utility.yul\":8032:8046   */\n      add\n        /* \"#utility.yul\":8025:8083   */\n      mstore\n        /* \"#utility.yul\":7908:8090   */\n      pop\n      jump\t// out\n        /* \"#utility.yul\":8096:8462   */\n    tag_96:\n        /* \"#utility.yul\":8238:8241   */\n      0x00\n        /* \"#utility.yul\":8259:8326   */\n      tag_190\n        /* \"#utility.yul\":8323:8325   */\n      0x20\n        /* \"#utility.yul\":8318:8321   */\n      dup4\n        /* \"#utility.yul\":8259:8326   */\n      tag_94\n      jump\t// in\n    tag_190:\n        /* \"#utility.yul\":8252:8326   */\n      swap2\n      pop\n        /* \"#utility.yul\":8335:8428   */\n      tag_191\n        /* \"#utility.yul\":8424:8427   */\n      dup3\n        /* \"#utility.yul\":8335:8428   */\n      tag_95\n      jump\t// in\n    tag_191:\n        /* \"#utility.yul\":8453:8455   */\n      0x20\n        /* \"#utility.yul\":8448:8451   */\n      dup3\n        /* \"#utility.yul\":8444:8456   */\n      add\n        /* \"#utility.yul\":8437:8456   */\n      swap1\n      pop\n        /* \"#utility.yul\":8096:8462   */\n      swap2\n      swap1\n      pop\n      jump\t// out\n        /* \"#utility.yul\":8468:8887   */\n    tag_49:\n        /* \"#utility.yul\":8634:8638   */\n      0x00\n        /* \"#utility.yul\":8672:8674   */\n      0x20\n        /* \"#utility.yul\":8661:8670   */\n      dup3\n        /* \"#utility.yul\":8657:8675   */\n      add\n        /* \"#utility.yul\":8649:8675   */\n      swap1\n      pop\n        /* \"#utility.yul\":8721:8730   */\n      dup2\n        /* \"#utility.yul\":8715:8719   */\n      dup2\n        /* \"#utility.yul\":8711:8731   */\n      sub\n        /* \"#utility.yul\":8707:8708   */\n      0x00\n        /* \"#utility.yul\":8696:8705   */\n      dup4\n        /* \"#utility.yul\":8692:8709   */\n      add\n        /* \"#utility.yul\":8685:8732   */\n      mstore\n        /* \"#utility.yul\":8749:8880   */\n      tag_193\n        /* \"#utility.yul\":8875:8879   */\n      dup2\n        /* \"#utility.yul\":8749:8880   */\n      tag_96\n      jump\t// in\n    tag_193:\n        /* \"#utility.yul\":8741:8880   */\n      swap1\n      pop\n        /* \"#utility.yul\":8468:8887   */\n      swap2\n      swap1\n      pop\n      jump\t// out\n\n    auxdata: 0xa2646970667358221220217f557411c371b103f6d19a6c4f3c0a45d42ad5b52e64c07d20bbd1a15e559064736f6c634300080f0033\n}\n",
				"bytecode": {
					"linkReferences": {},
					"object": "608060405234801561001057600080fd5b50336000806101000a81548173ffffffffffffffffffffffffffffffffffffffff021916908373ffffffffffffffffffffffffffffffffffffffff16021790555033600360006101000a81548173ffffffffffffffffffffffffffffffffffffffff021916908373ffffffffffffffffffffffffffffffffffffffff160217905550610995806100a16000396000f3fe60806040526004361061006f5760003560e01c8063704b6c021161004e578063704b6c02146100d55780638f32d59b146100fe578063b2bdfa7b14610129578063e9351558146101545761006f565b8062328fda1461007457806313af4035146100905780633f59c657146100b9575b600080fd5b61008e60048036038101906100899190610618565b61017d565b005b34801561009c57600080fd5b506100b760048036038101906100b291906106bf565b6101b5565b005b6100d360048036038101906100ce9190610722565b61023f565b005b3480156100e157600080fd5b506100fc60048036038101906100f791906106bf565b6102b9565b005b34801561010a57600080fd5b50610113610344565b604051610120919061080c565b60405180910390f35b34801561013557600080fd5b5061013e61039b565b60405161014b9190610836565b60405180910390f35b34801561016057600080fd5b5061017b60048036038101906101769190610618565b6103bf565b005b60028160405161018d91906108cb565b908152602001604051809103902060009054906101000a900460ff166101b257600080fd5b50565b6101bd610344565b6101fc576040517f08c379a00000000000000000000000000000000000000000000000000000000081526004016101f39061093f565b60405180910390fd5b806000806101000a81548173ffffffffffffffffffffffffffffffffffffffff021916908373ffffffffffffffffffffffffffffffffffffffff16021790555050565b6001151560018260405161025391906108cb565b908152602001604051809103902060009054906101000a900460ff1615151461027b57600080fd5b600060018260405161028d91906108cb565b908152602001604051809103902060006101000a81548160ff0219169083151502179055505050505050565b6102c1610344565b610300576040517f08c379a00000000000000000000000000000000000000000000000000000000081526004016102f79061093f565b60405180910390fd5b80600360006101000a81548173ffffffffffffffffffffffffffffffffffffffff021916908373ffffffffffffffffffffffffffffffffffffffff16021790555050565b60008060009054906101000a900473ffffffffffffffffffffffffffffffffffffffff1673ffffffffffffffffffffffffffffffffffffffff163373ffffffffffffffffffffffffffffffffffffffff1614905090565b60008054906101000a900473ffffffffffffffffffffffffffffffffffffffff1681565b600360009054906101000a900473ffffffffffffffffffffffffffffffffffffffff1673ffffffffffffffffffffffffffffffffffffffff163373ffffffffffffffffffffffffffffffffffffffff161461041957600080fd5b6001808260405161042a91906108cb565b908152602001604051809103902060006101000a81548160ff02191690831515021790555060018160405161045f91906108cb565b908152602001604051809103902060009054906101000a900460ff1661048457600080fd5b600160028260405161049691906108cb565b908152602001604051809103902060006101000a81548160ff02191690831515021790555050565b6000604051905090565b600080fd5b600080fd5b600080fd5b600080fd5b6000601f19601f8301169050919050565b7f4e487b7100000000000000000000000000000000000000000000000000000000600052604160045260246000fd5b610525826104dc565b810181811067ffffffffffffffff82111715610544576105436104ed565b5b80604052505050565b60006105576104be565b9050610563828261051c565b919050565b600067ffffffffffffffff821115610583576105826104ed565b5b61058c826104dc565b9050602081019050919050565b82818337600083830152505050565b60006105bb6105b684610568565b61054d565b9050828152602081018484840111156105d7576105d66104d7565b5b6105e2848285610599565b509392505050565b600082601f8301126105ff576105fe6104d2565b5b813561060f8482602086016105a8565b91505092915050565b60006020828403121561062e5761062d6104c8565b5b600082013567ffffffffffffffff81111561064c5761064b6104cd565b5b610658848285016105ea565b91505092915050565b600073ffffffffffffffffffffffffffffffffffffffff82169050919050565b600061068c82610661565b9050919050565b61069c81610681565b81146106a757600080fd5b50565b6000813590506106b981610693565b92915050565b6000602082840312156106d5576106d46104c8565b5b60006106e3848285016106aa565b91505092915050565b6000819050919050565b6106ff816106ec565b811461070a57600080fd5b50565b60008135905061071c816106f6565b92915050565b600080600080600060a0868803121561073e5761073d6104c8565b5b600086013567ffffffffffffffff81111561075c5761075b6104cd565b5b610768888289016105ea565b955050602086013567ffffffffffffffff811115610789576107886104cd565b5b610795888289016105ea565b94505060406107a68882890161070d565b93505060606107b78882890161070d565b925050608086013567ffffffffffffffff8111156107d8576107d76104cd565b5b6107e4888289016105ea565b9150509295509295909350565b60008115159050919050565b610806816107f1565b82525050565b600060208201905061082160008301846107fd565b92915050565b61083081610681565b82525050565b600060208201905061084b6000830184610827565b92915050565b600081519050919050565b600081905092915050565b60005b8381101561088557808201518184015260208101905061086a565b83811115610894576000848401525b50505050565b60006108a582610851565b6108af818561085c565b93506108bf818560208601610867565b80840191505092915050565b60006108d7828461089a565b915081905092915050565b600082825260208201905092915050565b7f4f776e61626c653a2063616c6c6572206973206e6f7420746865206f776e6572600082015250565b60006109296020836108e2565b9150610934826108f3565b602082019050919050565b600060208201905081810360008301526109588161091c565b905091905056fea2646970667358221220217f557411c371b103f6d19a6c4f3c0a45d42ad5b52e64c07d20bbd1a15e559064736f6c634300080f0033",
					"opcodes": "PUSH1 0x80 PUSH1 0x40 MSTORE CALLVALUE DUP1 ISZERO PUSH2 0x10 JUMPI PUSH1 0x0 DUP1 REVERT JUMPDEST POP CALLER PUSH1 0x0 DUP1 PUSH2 0x100 EXP DUP2 SLOAD DUP2 PUSH20 0xFFFFFFFFFFFFFFFFFFFFFFFFFFFFFFFFFFFFFFFF MUL NOT AND SWAP1 DUP4 PUSH20 0xFFFFFFFFFFFFFFFFFFFFFFFFFFFFFFFFFFFFFFFF AND MUL OR SWAP1 SSTORE POP CALLER PUSH1 0x3 PUSH1 0x0 PUSH2 0x100 EXP DUP2 SLOAD DUP2 PUSH20 0xFFFFFFFFFFFFFFFFFFFFFFFFFFFFFFFFFFFFFFFF MUL NOT AND SWAP1 DUP4 PUSH20 0xFFFFFFFFFFFFFFFFFFFFFFFFFFFFFFFFFFFFFFFF AND MUL OR SWAP1 SSTORE POP PUSH2 0x995 DUP1 PUSH2 0xA1 PUSH1 0x0 CODECOPY PUSH1 0x0 RETURN INVALID PUSH1 0x80 PUSH1 0x40 MSTORE PUSH1 0x4 CALLDATASIZE LT PUSH2 0x6F JUMPI PUSH1 0x0 CALLDATALOAD PUSH1 0xE0 SHR DUP1 PUSH4 0x704B6C02 GT PUSH2 0x4E JUMPI DUP1 PUSH4 0x704B6C02 EQ PUSH2 0xD5 JUMPI DUP1 PUSH4 0x8F32D59B EQ PUSH2 0xFE JUMPI DUP1 PUSH4 0xB2BDFA7B EQ PUSH2 0x129 JUMPI DUP1 PUSH4 0xE9351558 EQ PUSH2 0x154 JUMPI PUSH2 0x6F JUMP JUMPDEST DUP1 PUSH3 0x328FDA EQ PUSH2 0x74 JUMPI DUP1 PUSH4 0x13AF4035 EQ PUSH2 0x90 JUMPI DUP1 PUSH4 0x3F59C657 EQ PUSH2 0xB9 JUMPI JUMPDEST PUSH1 0x0 DUP1 REVERT JUMPDEST PUSH2 0x8E PUSH1 0x4 DUP1 CALLDATASIZE SUB DUP2 ADD SWAP1 PUSH2 0x89 SWAP2 SWAP1 PUSH2 0x618 JUMP JUMPDEST PUSH2 0x17D JUMP JUMPDEST STOP JUMPDEST CALLVALUE DUP1 ISZERO PUSH2 0x9C JUMPI PUSH1 0x0 DUP1 REVERT JUMPDEST POP PUSH2 0xB7 PUSH1 0x4 DUP1 CALLDATASIZE SUB DUP2 ADD SWAP1 PUSH2 0xB2 SWAP2 SWAP1 PUSH2 0x6BF JUMP JUMPDEST PUSH2 0x1B5 JUMP JUMPDEST STOP JUMPDEST PUSH2 0xD3 PUSH1 0x4 DUP1 CALLDATASIZE SUB DUP2 ADD SWAP1 PUSH2 0xCE SWAP2 SWAP1 PUSH2 0x722 JUMP JUMPDEST PUSH2 0x23F JUMP JUMPDEST STOP JUMPDEST CALLVALUE DUP1 ISZERO PUSH2 0xE1 JUMPI PUSH1 0x0 DUP1 REVERT JUMPDEST POP PUSH2 0xFC PUSH1 0x4 DUP1 CALLDATASIZE SUB DUP2 ADD SWAP1 PUSH2 0xF7 SWAP2 SWAP1 PUSH2 0x6BF JUMP JUMPDEST PUSH2 0x2B9 JUMP JUMPDEST STOP JUMPDEST CALLVALUE DUP1 ISZERO PUSH2 0x10A JUMPI PUSH1 0x0 DUP1 REVERT JUMPDEST POP PUSH2 0x113 PUSH2 0x344 JUMP JUMPDEST PUSH1 0x40 MLOAD PUSH2 0x120 SWAP2 SWAP1 PUSH2 0x80C JUMP JUMPDEST PUSH1 0x40 MLOAD DUP1 SWAP2 SUB SWAP1 RETURN JUMPDEST CALLVALUE DUP1 ISZERO PUSH2 0x135 JUMPI PUSH1 0x0 DUP1 REVERT JUMPDEST POP PUSH2 0x13E PUSH2 0x39B JUMP JUMPDEST PUSH1 0x40 MLOAD PUSH2 0x14B SWAP2 SWAP1 PUSH2 0x836 JUMP JUMPDEST PUSH1 0x40 MLOAD DUP1 SWAP2 SUB SWAP1 RETURN JUMPDEST CALLVALUE DUP1 ISZERO PUSH2 0x160 JUMPI PUSH1 0x0 DUP1 REVERT JUMPDEST POP PUSH2 0x17B PUSH1 0x4 DUP1 CALLDATASIZE SUB DUP2 ADD SWAP1 PUSH2 0x176 SWAP2 SWAP1 PUSH2 0x618 JUMP JUMPDEST PUSH2 0x3BF JUMP JUMPDEST STOP JUMPDEST PUSH1 0x2 DUP2 PUSH1 0x40 MLOAD PUSH2 0x18D SWAP2 SWAP1 PUSH2 0x8CB JUMP JUMPDEST SWAP1 DUP2 MSTORE PUSH1 0x20 ADD PUSH1 0x40 MLOAD DUP1 SWAP2 SUB SWAP1 KECCAK256 PUSH1 0x0 SWAP1 SLOAD SWAP1 PUSH2 0x100 EXP SWAP1 DIV PUSH1 0xFF AND PUSH2 0x1B2 JUMPI PUSH1 0x0 DUP1 REVERT JUMPDEST POP JUMP JUMPDEST PUSH2 0x1BD PUSH2 0x344 JUMP JUMPDEST PUSH2 0x1FC JUMPI PUSH1 0x40 MLOAD PUSH32 0x8C379A000000000000000000000000000000000000000000000000000000000 DUP2 MSTORE PUSH1 0x4 ADD PUSH2 0x1F3 SWAP1 PUSH2 0x93F JUMP JUMPDEST PUSH1 0x40 MLOAD DUP1 SWAP2 SUB SWAP1 REVERT JUMPDEST DUP1 PUSH1 0x0 DUP1 PUSH2 0x100 EXP DUP2 SLOAD DUP2 PUSH20 0xFFFFFFFFFFFFFFFFFFFFFFFFFFFFFFFFFFFFFFFF MUL NOT AND SWAP1 DUP4 PUSH20 0xFFFFFFFFFFFFFFFFFFFFFFFFFFFFFFFFFFFFFFFF AND MUL OR SWAP1 SSTORE POP POP JUMP JUMPDEST PUSH1 0x1 ISZERO ISZERO PUSH1 0x1 DUP3 PUSH1 0x40 MLOAD PUSH2 0x253 SWAP2 SWAP1 PUSH2 0x8CB JUMP JUMPDEST SWAP1 DUP2 MSTORE PUSH1 0x20 ADD PUSH1 0x40 MLOAD DUP1 SWAP2 SUB SWAP1 KECCAK256 PUSH1 0x0 SWAP1 SLOAD SWAP1 PUSH2 0x100 EXP SWAP1 DIV PUSH1 0xFF AND ISZERO ISZERO EQ PUSH2 0x27B JUMPI PUSH1 0x0 DUP1 REVERT JUMPDEST PUSH1 0x0 PUSH1 0x1 DUP3 PUSH1 0x40 MLOAD PUSH2 0x28D SWAP2 SWAP1 PUSH2 0x8CB JUMP JUMPDEST SWAP1 DUP2 MSTORE PUSH1 0x20 ADD PUSH1 0x40 MLOAD DUP1 SWAP2 SUB SWAP1 KECCAK256 PUSH1 0x0 PUSH2 0x100 EXP DUP2 SLOAD DUP2 PUSH1 0xFF MUL NOT AND SWAP1 DUP4 ISZERO ISZERO MUL OR SWAP1 SSTORE POP POP POP POP POP POP JUMP JUMPDEST PUSH2 0x2C1 PUSH2 0x344 JUMP JUMPDEST PUSH2 0x300 JUMPI PUSH1 0x40 MLOAD PUSH32 0x8C379A000000000000000000000000000000000000000000000000000000000 DUP2 MSTORE PUSH1 0x4 ADD PUSH2 0x2F7 SWAP1 PUSH2 0x93F JUMP JUMPDEST PUSH1 0x40 MLOAD DUP1 SWAP2 SUB SWAP1 REVERT JUMPDEST DUP1 PUSH1 0x3 PUSH1 0x0 PUSH2 0x100 EXP DUP2 SLOAD DUP2 PUSH20 0xFFFFFFFFFFFFFFFFFFFFFFFFFFFFFFFFFFFFFFFF MUL NOT AND SWAP1 DUP4 PUSH20 0xFFFFFFFFFFFFFFFFFFFFFFFFFFFFFFFFFFFFFFFF AND MUL OR SWAP1 SSTORE POP POP JUMP JUMPDEST PUSH1 0x0 DUP1 PUSH1 0x0 SWAP1 SLOAD SWAP1 PUSH2 0x100 EXP SWAP1 DIV PUSH20 0xFFFFFFFFFFFFFFFFFFFFFFFFFFFFFFFFFFFFFFFF AND PUSH20 0xFFFFFFFFFFFFFFFFFFFFFFFFFFFFFFFFFFFFFFFF AND CALLER PUSH20 0xFFFFFFFFFFFFFFFFFFFFFFFFFFFFFFFFFFFFFFFF AND EQ SWAP1 POP SWAP1 JUMP JUMPDEST PUSH1 0x0 DUP1 SLOAD SWAP1 PUSH2 0x100 EXP SWAP1 DIV PUSH20 0xFFFFFFFFFFFFFFFFFFFFFFFFFFFFFFFFFFFFFFFF AND DUP2 JUMP JUMPDEST PUSH1 0x3 PUSH1 0x0 SWAP1 SLOAD SWAP1 PUSH2 0x100 EXP SWAP1 DIV PUSH20 0xFFFFFFFFFFFFFFFFFFFFFFFFFFFFFFFFFFFFFFFF AND PUSH20 0xFFFFFFFFFFFFFFFFFFFFFFFFFFFFFFFFFFFFFFFF AND CALLER PUSH20 0xFFFFFFFFFFFFFFFFFFFFFFFFFFFFFFFFFFFFFFFF AND EQ PUSH2 0x419 JUMPI PUSH1 0x0 DUP1 REVERT JUMPDEST PUSH1 0x1 DUP1 DUP3 PUSH1 0x40 MLOAD PUSH2 0x42A SWAP2 SWAP1 PUSH2 0x8CB JUMP JUMPDEST SWAP1 DUP2 MSTORE PUSH1 0x20 ADD PUSH1 0x40 MLOAD DUP1 SWAP2 SUB SWAP1 KECCAK256 PUSH1 0x0 PUSH2 0x100 EXP DUP2 SLOAD DUP2 PUSH1 0xFF MUL NOT AND SWAP1 DUP4 ISZERO ISZERO MUL OR SWAP1 SSTORE POP PUSH1 0x1 DUP2 PUSH1 0x40 MLOAD PUSH2 0x45F SWAP2 SWAP1 PUSH2 0x8CB JUMP JUMPDEST SWAP1 DUP2 MSTORE PUSH1 0x20 ADD PUSH1 0x40 MLOAD DUP1 SWAP2 SUB SWAP1 KECCAK256 PUSH1 0x0 SWAP1 SLOAD SWAP1 PUSH2 0x100 EXP SWAP1 DIV PUSH1 0xFF AND PUSH2 0x484 JUMPI PUSH1 0x0 DUP1 REVERT JUMPDEST PUSH1 0x1 PUSH1 0x2 DUP3 PUSH1 0x40 MLOAD PUSH2 0x496 SWAP2 SWAP1 PUSH2 0x8CB JUMP JUMPDEST SWAP1 DUP2 MSTORE PUSH1 0x20 ADD PUSH1 0x40 MLOAD DUP1 SWAP2 SUB SWAP1 KECCAK256 PUSH1 0x0 PUSH2 0x100 EXP DUP2 SLOAD DUP2 PUSH1 0xFF MUL NOT AND SWAP1 DUP4 ISZERO ISZERO MUL OR SWAP1 SSTORE POP POP JUMP JUMPDEST PUSH1 0x0 PUSH1 0x40 MLOAD SWAP1 POP SWAP1 JUMP JUMPDEST PUSH1 0x0 DUP1 REVERT JUMPDEST PUSH1 0x0 DUP1 REVERT JUMPDEST PUSH1 0x0 DUP1 REVERT JUMPDEST PUSH1 0x0 DUP1 REVERT JUMPDEST PUSH1 0x0 PUSH1 0x1F NOT PUSH1 0x1F DUP4 ADD AND SWAP1 POP SWAP2 SWAP1 POP JUMP JUMPDEST PUSH32 0x4E487B7100000000000000000000000000000000000000000000000000000000 PUSH1 0x0 MSTORE PUSH1 0x41 PUSH1 0x4 MSTORE PUSH1 0x24 PUSH1 0x0 REVERT JUMPDEST PUSH2 0x525 DUP3 PUSH2 0x4DC JUMP JUMPDEST DUP2 ADD DUP2 DUP2 LT PUSH8 0xFFFFFFFFFFFFFFFF DUP3 GT OR ISZERO PUSH2 0x544 JUMPI PUSH2 0x543 PUSH2 0x4ED JUMP JUMPDEST JUMPDEST DUP1 PUSH1 0x40 MSTORE POP POP POP JUMP JUMPDEST PUSH1 0x0 PUSH2 0x557 PUSH2 0x4BE JUMP JUMPDEST SWAP1 POP PUSH2 0x563 DUP3 DUP3 PUSH2 0x51C JUMP JUMPDEST SWAP2 SWAP1 POP JUMP JUMPDEST PUSH1 0x0 PUSH8 0xFFFFFFFFFFFFFFFF DUP3 GT ISZERO PUSH2 0x583 JUMPI PUSH2 0x582 PUSH2 0x4ED JUMP JUMPDEST JUMPDEST PUSH2 0x58C DUP3 PUSH2 0x4DC JUMP JUMPDEST SWAP1 POP PUSH1 0x20 DUP2 ADD SWAP1 POP SWAP2 SWAP1 POP JUMP JUMPDEST DUP3 DUP2 DUP4 CALLDATACOPY PUSH1 0x0 DUP4 DUP4 ADD MSTORE POP POP POP JUMP JUMPDEST PUSH1 0x0 PUSH2 0x5BB PUSH2 0x5B6 DUP5 PUSH2 0x568 JUMP JUMPDEST PUSH2 0x54D JUMP JUMPDEST SWAP1 POP DUP3 DUP2 MSTORE PUSH1 0x20 DUP2 ADD DUP5 DUP5 DUP5 ADD GT ISZERO PUSH2 0x5D7 JUMPI PUSH2 0x5D6 PUSH2 0x4D7 JUMP JUMPDEST JUMPDEST PUSH2 0x5E2 DUP5 DUP3 DUP6 PUSH2 0x599 JUMP JUMPDEST POP SWAP4 SWAP3 POP POP POP JUMP JUMPDEST PUSH1 0x0 DUP3 PUSH1 0x1F DUP4 ADD SLT PUSH2 0x5FF JUMPI PUSH2 0x5FE PUSH2 0x4D2 JUMP JUMPDEST JUMPDEST DUP2 CALLDATALOAD PUSH2 0x60F DUP5 DUP3 PUSH1 0x20 DUP7 ADD PUSH2 0x5A8 JUMP JUMPDEST SWAP2 POP POP SWAP3 SWAP2 POP POP JUMP JUMPDEST PUSH1 0x0 PUSH1 0x20 DUP3 DUP5 SUB SLT ISZERO PUSH2 0x62E JUMPI PUSH2 0x62D PUSH2 0x4C8 JUMP JUMPDEST JUMPDEST PUSH1 0x0 DUP3 ADD CALLDATALOAD PUSH8 0xFFFFFFFFFFFFFFFF DUP2 GT ISZERO PUSH2 0x64C JUMPI PUSH2 0x64B PUSH2 0x4CD JUMP JUMPDEST JUMPDEST PUSH2 0x658 DUP5 DUP3 DUP6 ADD PUSH2 0x5EA JUMP JUMPDEST SWAP2 POP POP SWAP3 SWAP2 POP POP JUMP JUMPDEST PUSH1 0x0 PUSH20 0xFFFFFFFFFFFFFFFFFFFFFFFFFFFFFFFFFFFFFFFF DUP3 AND SWAP1 POP SWAP2 SWAP1 POP JUMP JUMPDEST PUSH1 0x0 PUSH2 0x68C DUP3 PUSH2 0x661 JUMP JUMPDEST SWAP1 POP SWAP2 SWAP1 POP JUMP JUMPDEST PUSH2 0x69C DUP2 PUSH2 0x681 JUMP JUMPDEST DUP2 EQ PUSH2 0x6A7 JUMPI PUSH1 0x0 DUP1 REVERT JUMPDEST POP JUMP JUMPDEST PUSH1 0x0 DUP2 CALLDATALOAD SWAP1 POP PUSH2 0x6B9 DUP2 PUSH2 0x693 JUMP JUMPDEST SWAP3 SWAP2 POP POP JUMP JUMPDEST PUSH1 0x0 PUSH1 0x20 DUP3 DUP5 SUB SLT ISZERO PUSH2 0x6D5 JUMPI PUSH2 0x6D4 PUSH2 0x4C8 JUMP JUMPDEST JUMPDEST PUSH1 0x0 PUSH2 0x6E3 DUP5 DUP3 DUP6 ADD PUSH2 0x6AA JUMP JUMPDEST SWAP2 POP POP SWAP3 SWAP2 POP POP JUMP JUMPDEST PUSH1 0x0 DUP2 SWAP1 POP SWAP2 SWAP1 POP JUMP JUMPDEST PUSH2 0x6FF DUP2 PUSH2 0x6EC JUMP JUMPDEST DUP2 EQ PUSH2 0x70A JUMPI PUSH1 0x0 DUP1 REVERT JUMPDEST POP JUMP JUMPDEST PUSH1 0x0 DUP2 CALLDATALOAD SWAP1 POP PUSH2 0x71C DUP2 PUSH2 0x6F6 JUMP JUMPDEST SWAP3 SWAP2 POP POP JUMP JUMPDEST PUSH1 0x0 DUP1 PUSH1 0x0 DUP1 PUSH1 0x0 PUSH1 0xA0 DUP7 DUP9 SUB SLT ISZERO PUSH2 0x73E JUMPI PUSH2 0x73D PUSH2 0x4C8 JUMP JUMPDEST JUMPDEST PUSH1 0x0 DUP7 ADD CALLDATALOAD PUSH8 0xFFFFFFFFFFFFFFFF DUP2 GT ISZERO PUSH2 0x75C JUMPI PUSH2 0x75B PUSH2 0x4CD JUMP JUMPDEST JUMPDEST PUSH2 0x768 DUP9 DUP3 DUP10 ADD PUSH2 0x5EA JUMP JUMPDEST SWAP6 POP POP PUSH1 0x20 DUP7 ADD CALLDATALOAD PUSH8 0xFFFFFFFFFFFFFFFF DUP2 GT ISZERO PUSH2 0x789 JUMPI PUSH2 0x788 PUSH2 0x4CD JUMP JUMPDEST JUMPDEST PUSH2 0x795 DUP9 DUP3 DUP10 ADD PUSH2 0x5EA JUMP JUMPDEST SWAP5 POP POP PUSH1 0x40 PUSH2 0x7A6 DUP9 DUP3 DUP10 ADD PUSH2 0x70D JUMP JUMPDEST SWAP4 POP POP PUSH1 0x60 PUSH2 0x7B7 DUP9 DUP3 DUP10 ADD PUSH2 0x70D JUMP JUMPDEST SWAP3 POP POP PUSH1 0x80 DUP7 ADD CALLDATALOAD PUSH8 0xFFFFFFFFFFFFFFFF DUP2 GT ISZERO PUSH2 0x7D8 JUMPI PUSH2 0x7D7 PUSH2 0x4CD JUMP JUMPDEST JUMPDEST PUSH2 0x7E4 DUP9 DUP3 DUP10 ADD PUSH2 0x5EA JUMP JUMPDEST SWAP2 POP POP SWAP3 SWAP6 POP SWAP3 SWAP6 SWAP1 SWAP4 POP JUMP JUMPDEST PUSH1 0x0 DUP2 ISZERO ISZERO SWAP1 POP SWAP2 SWAP1 POP JUMP JUMPDEST PUSH2 0x806 DUP2 PUSH2 0x7F1 JUMP JUMPDEST DUP3 MSTORE POP POP JUMP JUMPDEST PUSH1 0x0 PUSH1 0x20 DUP3 ADD SWAP1 POP PUSH2 0x821 PUSH1 0x0 DUP4 ADD DUP5 PUSH2 0x7FD JUMP JUMPDEST SWAP3 SWAP2 POP POP JUMP JUMPDEST PUSH2 0x830 DUP2 PUSH2 0x681 JUMP JUMPDEST DUP3 MSTORE POP POP JUMP JUMPDEST PUSH1 0x0 PUSH1 0x20 DUP3 ADD SWAP1 POP PUSH2 0x84B PUSH1 0x0 DUP4 ADD DUP5 PUSH2 0x827 JUMP JUMPDEST SWAP3 SWAP2 POP POP JUMP JUMPDEST PUSH1 0x0 DUP2 MLOAD SWAP1 POP SWAP2 SWAP1 POP JUMP JUMPDEST PUSH1 0x0 DUP2 SWAP1 POP SWAP3 SWAP2 POP POP JUMP JUMPDEST PUSH1 0x0 JUMPDEST DUP4 DUP2 LT ISZERO PUSH2 0x885 JUMPI DUP1 DUP3 ADD MLOAD DUP2 DUP5 ADD MSTORE PUSH1 0x20 DUP2 ADD SWAP1 POP PUSH2 0x86A JUMP JUMPDEST DUP4 DUP2 GT ISZERO PUSH2 0x894 JUMPI PUSH1 0x0 DUP5 DUP5 ADD MSTORE JUMPDEST POP POP POP POP JUMP JUMPDEST PUSH1 0x0 PUSH2 0x8A5 DUP3 PUSH2 0x851 JUMP JUMPDEST PUSH2 0x8AF DUP2 DUP6 PUSH2 0x85C JUMP JUMPDEST SWAP4 POP PUSH2 0x8BF DUP2 DUP6 PUSH1 0x20 DUP7 ADD PUSH2 0x867 JUMP JUMPDEST DUP1 DUP5 ADD SWAP2 POP POP SWAP3 SWAP2 POP POP JUMP JUMPDEST PUSH1 0x0 PUSH2 0x8D7 DUP3 DUP5 PUSH2 0x89A JUMP JUMPDEST SWAP2 POP DUP2 SWAP1 POP SWAP3 SWAP2 POP POP JUMP JUMPDEST PUSH1 0x0 DUP3 DUP3 MSTORE PUSH1 0x20 DUP3 ADD SWAP1 POP SWAP3 SWAP2 POP POP JUMP JUMPDEST PUSH32 0x4F776E61626C653A2063616C6C6572206973206E6F7420746865206F776E6572 PUSH1 0x0 DUP3 ADD MSTORE POP JUMP JUMPDEST PUSH1 0x0 PUSH2 0x929 PUSH1 0x20 DUP4 PUSH2 0x8E2 JUMP JUMPDEST SWAP2 POP PUSH2 0x934 DUP3 PUSH2 0x8F3 JUMP JUMPDEST PUSH1 0x20 DUP3 ADD SWAP1 POP SWAP2 SWAP1 POP JUMP JUMPDEST PUSH1 0x0 PUSH1 0x20 DUP3 ADD SWAP1 POP DUP2 DUP2 SUB PUSH1 0x0 DUP4 ADD MSTORE PUSH2 0x958 DUP2 PUSH2 0x91C JUMP JUMPDEST SWAP1 POP SWAP2 SWAP1 POP JUMP INVALID LOG2 PUSH5 0x6970667358 0x22 SLT KECCAK256 0x21 PUSH32 0x557411C371B103F6D19A6C4F3C0A45D42AD5B52E64C07D20BBD1A15E55906473 PUSH16 0x6C634300080F00330000000000000000 "
				},
				"gasEstimates": {
					"creation": {
						"codeDepositCost": "490600",
						"executionCost": "49056",
						"totalCost": "539656"
					},
					"external": {
						"_owner()": "2555",
						"isOwner()": "2518",
						"issueCertificate(string,string,uint256,uint256,string)": "infinite",
						"setAdmin(address)": "26927",
						"setOwner(address)": "26950",
						"stakeToken(string)": "infinite",
						"updateCertificateRecipient(string)": "infinite"
					}
				},
				"methodIdentifiers": {
					"_owner()": "b2bdfa7b",
					"isOwner()": "8f32d59b",
					"issueCertificate(string,string,uint256,uint256,string)": "3f59c657",
					"setAdmin(address)": "704b6c02",
					"setOwner(address)": "13af4035",
					"stakeToken(string)": "00328fda",
					"updateCertificateRecipient(string)": "e9351558"
				}
			},
			"storageLayout": {
				"storage": [
					{
						"astId": 115,
						"contract": "certificateissuer.sol:Staking",
						"label": "_owner",
						"offset": 0,
						"slot": "0",
						"type": "t_address"
					},
					{
						"astId": 18,
						"contract": "certificateissuer.sol:Staking",
						"label": "cauthValid",
						"offset": 0,
						"slot": "1",
						"type": "t_mapping(t_string_memory_ptr,t_bool)"
					},
					{
						"astId": 22,
						"contract": "certificateissuer.sol:Staking",
						"label": "cauthToCanStake",
						"offset": 0,
						"slot": "2",
						"type": "t_mapping(t_string_memory_ptr,t_bool)"
					},
					{
						"astId": 24,
						"contract": "certificateissuer.sol:Staking",
						"label": "_admin",
						"offset": 0,
						"slot": "3",
						"type": "t_address"
					}
				],
				"types": {
					"t_address": {
						"encoding": "inplace",
						"label": "address",
						"numberOfBytes": "20"
					},
					"t_bool": {
						"encoding": "inplace",
						"label": "bool",
						"numberOfBytes": "1"
					},
					"t_mapping(t_string_memory_ptr,t_bool)": {
						"encoding": "mapping",
						"key": "t_string_memory_ptr",
						"label": "mapping(string => bool)",
						"numberOfBytes": "32",
						"value": "t_bool"
					},
					"t_string_memory_ptr": {
						"encoding": "bytes",
						"label": "string",
						"numberOfBytes": "32"
					}
				}
			},
			"userdoc": {
				"kind": "user",
				"methods": {},
				"version": 1
			}
		}
	}
}