{
	"certificateissuer.sol": {
		"CertificateIssuer": {
			"abi": [
				{
					"inputs": [],
					"stateMutability": "nonpayable",
					"type": "constructor"
				},
				{
					"anonymous": false,
					"inputs": [
						{
							"indexed": false,
							"internalType": "string",
							"name": "_name",
							"type": "string"
						},
						{
							"indexed": false,
							"internalType": "string",
							"name": "_courseTittle",
							"type": "string"
						},
						{
							"indexed": false,
							"internalType": "uint256",
							"name": "_duration",
							"type": "uint256"
						},
						{
							"indexed": false,
							"internalType": "string",
							"name": "institute",
							"type": "string"
						},
						{
							"indexed": false,
							"internalType": "string",
							"name": "cauth",
							"type": "string"
						}
					],
					"name": "certificateIssued",
					"type": "event"
				},
				{
					"anonymous": false,
					"inputs": [
						{
							"indexed": false,
							"internalType": "address",
							"name": "_studentAddress",
							"type": "address"
						},
						{
							"indexed": false,
							"internalType": "uint256",
							"name": "_amount",
							"type": "uint256"
						}
					],
					"name": "stakeReturned",
					"type": "event"
				},
				{
					"inputs": [],
					"name": "_owner",
					"outputs": [
						{
							"internalType": "address",
							"name": "",
							"type": "address"
						}
					],
					"stateMutability": "view",
					"type": "function"
				},
				{
					"inputs": [],
					"name": "isOwner",
					"outputs": [
						{
							"internalType": "bool",
							"name": "",
							"type": "bool"
						}
					],
					"stateMutability": "view",
					"type": "function"
				},
				{
					"inputs": [
						{
							"internalType": "string",
							"name": "_name",
							"type": "string"
						},
						{
							"internalType": "string",
							"name": "_courseTittle",
							"type": "string"
						},
						{
							"internalType": "uint256",
							"name": "_duration",
							"type": "uint256"
						},
						{
							"internalType": "string",
							"name": "institute",
							"type": "string"
						},
						{
							"internalType": "string",
							"name": "cauth",
							"type": "string"
						}
					],
					"name": "issueCertificate",
					"outputs": [],
					"stateMutability": "payable",
					"type": "function"
				},
				{
					"inputs": [
						{
							"internalType": "address",
							"name": "_studentAddress",
							"type": "address"
						}
					],
					"name": "returnStakedEther",
					"outputs": [],
					"stateMutability": "payable",
					"type": "function"
				},
				{
					"inputs": [
						{
							"internalType": "address",
							"name": "_adminParameter",
							"type": "address"
						}
					],
					"name": "setAdmin",
					"outputs": [],
					"stateMutability": "nonpayable",
					"type": "function"
				},
				{
					"inputs": [
						{
							"internalType": "address",
							"name": "_newOwner",
							"type": "address"
						}
					],
					"name": "setOwner",
					"outputs": [],
					"stateMutability": "nonpayable",
					"type": "function"
				},
				{
					"inputs": [
						{
							"internalType": "address",
							"name": "",
							"type": "address"
						}
					],
					"name": "stakedAmount",
					"outputs": [
						{
							"internalType": "uint256",
							"name": "",
							"type": "uint256"
						}
					],
					"stateMutability": "view",
					"type": "function"
				},
				{
					"inputs": [
						{
							"internalType": "string",
							"name": "cauth",
							"type": "string"
						}
					],
					"name": "updateCertificateRecipient",
					"outputs": [],
					"stateMutability": "nonpayable",
					"type": "function"
				},
				{
					"inputs": [
						{
							"internalType": "string",
							"name": "cauth",
							"type": "string"
						},
						{
							"internalType": "address",
							"name": "_staker",
							"type": "address"
						}
					],
					"name": "updateCertificateRecipientForStaking",
					"outputs": [],
					"stateMutability": "nonpayable",
					"type": "function"
				},
				{
					"stateMutability": "payable",
					"type": "receive"
				}
			],
			"devdoc": {
				"kind": "dev",
				"methods": {
					"isOwner()": {
						"details": "Returns true if the caller is the current owner."
					}
				},
				"version": 1
			},
			"evm": {
				"assembly": "    /* \"certificateissuer.sol\":89:3665  contract CertificateIssuer is Ownable{... */\n  mstore(0x40, 0x80)\n    /* \"certificateissuer.sol\":193:247  constructor (){... */\n  callvalue\n  dup1\n  iszero\n  tag_1\n  jumpi\n  0x00\n  dup1\n  revert\ntag_1:\n  pop\n    /* \"ownable.sol\":150:160  msg.sender */\n  caller\n    /* \"ownable.sol\":141:147  _owner */\n  0x00\n  dup1\n    /* \"ownable.sol\":141:160  _owner = msg.sender */\n  0x0100\n  exp\n  dup2\n  sload\n  dup2\n  0xffffffffffffffffffffffffffffffffffffffff\n  mul\n  not\n  and\n  swap1\n  dup4\n  0xffffffffffffffffffffffffffffffffffffffff\n  and\n  mul\n  or\n  swap1\n  sstore\n  pop\n    /* \"certificateissuer.sol\":227:237  msg.sender */\n  caller\n    /* \"certificateissuer.sol\":218:224  _admin */\n  0x04\n  0x00\n    /* \"certificateissuer.sol\":218:237  _admin = msg.sender */\n  0x0100\n  exp\n  dup2\n  sload\n  dup2\n  0xffffffffffffffffffffffffffffffffffffffff\n  mul\n  not\n  and\n  swap1\n  dup4\n  0xffffffffffffffffffffffffffffffffffffffff\n  and\n  mul\n  or\n  swap1\n  sstore\n  pop\n    /* \"certificateissuer.sol\":89:3665  contract CertificateIssuer is Ownable{... */\n  dataSize(sub_0)\n  dup1\n  dataOffset(sub_0)\n  0x00\n  codecopy\n  0x00\n  return\nstop\n\nsub_0: assembly {\n        /* \"certificateissuer.sol\":89:3665  contract CertificateIssuer is Ownable{... */\n      mstore(0x40, 0x80)\n      jumpi(tag_1, lt(calldatasize, 0x04))\n      shr(0xe0, calldataload(0x00))\n      dup1\n      0xb2bdfa7b\n      gt\n      tag_12\n      jumpi\n      dup1\n      0xb2bdfa7b\n      eq\n      tag_7\n      jumpi\n      dup1\n      0xe9351558\n      eq\n      tag_8\n      jumpi\n      dup1\n      0xe9e65331\n      eq\n      tag_9\n      jumpi\n      dup1\n      0xf9931855\n      eq\n      tag_10\n      jumpi\n      dup1\n      0xfe49048a\n      eq\n      tag_11\n      jumpi\n      jump(tag_2)\n    tag_12:\n      dup1\n      0x13af4035\n      eq\n      tag_3\n      jumpi\n      dup1\n      0x5bbe4ac3\n      eq\n      tag_4\n      jumpi\n      dup1\n      0x704b6c02\n      eq\n      tag_5\n      jumpi\n      dup1\n      0x8f32d59b\n      eq\n      tag_6\n      jumpi\n      jump(tag_2)\n    tag_1:\n      jumpi(tag_2, calldatasize)\n        /* \"certificateissuer.sol\":3555:3570  cauthToCanStake */\n      0x02\n        /* \"certificateissuer.sol\":3571:3584  adressToCauth */\n      0x05\n        /* \"certificateissuer.sol\":3571:3596  adressToCauth[msg.sender] */\n      0x00\n        /* \"certificateissuer.sol\":3585:3595  msg.sender */\n      caller\n        /* \"certificateissuer.sol\":3571:3596  adressToCauth[msg.sender] */\n      0xffffffffffffffffffffffffffffffffffffffff\n      and\n      0xffffffffffffffffffffffffffffffffffffffff\n      and\n      dup2\n      mstore\n      0x20\n      add\n      swap1\n      dup2\n      mstore\n      0x20\n      add\n      0x00\n      keccak256\n        /* \"certificateissuer.sol\":3555:3597  cauthToCanStake[adressToCauth[msg.sender]] */\n      mload(0x40)\n      tag_15\n      swap2\n      swap1\n      tag_16\n      jump\t// in\n    tag_15:\n      swap1\n      dup2\n      mstore\n      0x20\n      add\n      mload(0x40)\n      dup1\n      swap2\n      sub\n      swap1\n      keccak256\n      0x00\n      swap1\n      sload\n      swap1\n      0x0100\n      exp\n      swap1\n      div\n      0xff\n      and\n        /* \"certificateissuer.sol\":3547:3598  require(cauthToCanStake[adressToCauth[msg.sender]]) */\n      tag_17\n      jumpi\n      0x00\n      dup1\n      revert\n    tag_17:\n        /* \"certificateissuer.sol\":3638:3647  msg.value */\n      callvalue\n        /* \"certificateissuer.sol\":3611:3623  stakedAmount */\n      0x06\n        /* \"certificateissuer.sol\":3611:3635  stakedAmount[msg.sender] */\n      0x00\n        /* \"certificateissuer.sol\":3624:3634  msg.sender */\n      caller\n        /* \"certificateissuer.sol\":3611:3635  stakedAmount[msg.sender] */\n      0xffffffffffffffffffffffffffffffffffffffff\n      and\n      0xffffffffffffffffffffffffffffffffffffffff\n      and\n      dup2\n      mstore\n      0x20\n      add\n      swap1\n      dup2\n      mstore\n      0x20\n      add\n      0x00\n      keccak256\n        /* \"certificateissuer.sol\":3611:3647  stakedAmount[msg.sender] = msg.value */\n      dup2\n      swap1\n      sstore\n      stop\n        /* \"certificateissuer.sol\":89:3665  contract CertificateIssuer is Ownable{... */\n    tag_2:\n      0x00\n      dup1\n      revert\n        /* \"ownable.sol\":551:643  function setOwner(address _newOwner) public onlyOwner {... */\n    tag_3:\n      callvalue\n      dup1\n      iszero\n      tag_18\n      jumpi\n      0x00\n      dup1\n      revert\n    tag_18:\n      pop\n      tag_19\n      0x04\n      dup1\n      calldatasize\n      sub\n      dup2\n      add\n      swap1\n      tag_20\n      swap2\n      swap1\n      tag_21\n      jump\t// in\n    tag_20:\n      tag_22\n      jump\t// in\n    tag_19:\n      stop\n        /* \"certificateissuer.sol\":2690:3405  function issueCertificate(string memory _name , string memory _courseTittle, uint _duration , string memory institute,string memory cauth ) external payable  {... */\n    tag_4:\n      tag_23\n      0x04\n      dup1\n      calldatasize\n      sub\n      dup2\n      add\n      swap1\n      tag_24\n      swap2\n      swap1\n      tag_25\n      jump\t// in\n    tag_24:\n      tag_26\n      jump\t// in\n    tag_23:\n      stop\n        /* \"certificateissuer.sol\":302:406  function setAdmin(address _adminParameter) public onlyOwner{... */\n    tag_5:\n      callvalue\n      dup1\n      iszero\n      tag_27\n      jumpi\n      0x00\n      dup1\n      revert\n    tag_27:\n      pop\n      tag_28\n      0x04\n      dup1\n      calldatasize\n      sub\n      dup2\n      add\n      swap1\n      tag_29\n      swap2\n      swap1\n      tag_21\n      jump\t// in\n    tag_29:\n      tag_30\n      jump\t// in\n    tag_28:\n      stop\n        /* \"ownable.sol\":451:545  function isOwner() public view returns (bool) {... */\n    tag_6:\n      callvalue\n      dup1\n      iszero\n      tag_31\n      jumpi\n      0x00\n      dup1\n      revert\n    tag_31:\n      pop\n      tag_32\n      tag_33\n      jump\t// in\n    tag_32:\n      mload(0x40)\n      tag_34\n      swap2\n      swap1\n      tag_35\n      jump\t// in\n    tag_34:\n      mload(0x40)\n      dup1\n      swap2\n      sub\n      swap1\n      return\n        /* \"ownable.sol\":85:106  address public _owner */\n    tag_7:\n      callvalue\n      dup1\n      iszero\n      tag_36\n      jumpi\n      0x00\n      dup1\n      revert\n    tag_36:\n      pop\n      tag_37\n      tag_38\n      jump\t// in\n    tag_37:\n      mload(0x40)\n      tag_39\n      swap2\n      swap1\n      tag_40\n      jump\t// in\n    tag_39:\n      mload(0x40)\n      dup1\n      swap2\n      sub\n      swap1\n      return\n        /* \"certificateissuer.sol\":1928:2161  function updateCertificateRecipient(string memory cauth) public  {... */\n    tag_8:\n      callvalue\n      dup1\n      iszero\n      tag_41\n      jumpi\n      0x00\n      dup1\n      revert\n    tag_41:\n      pop\n      tag_42\n      0x04\n      dup1\n      calldatasize\n      sub\n      dup2\n      add\n      swap1\n      tag_43\n      swap2\n      swap1\n      tag_44\n      jump\t// in\n    tag_43:\n      tag_45\n      jump\t// in\n    tag_42:\n      stop\n        /* \"certificateissuer.sol\":3413:3497  function returnStakedEther(address _studentAddress) public payable{... */\n    tag_9:\n      tag_46\n      0x04\n      dup1\n      calldatasize\n      sub\n      dup2\n      add\n      swap1\n      tag_47\n      swap2\n      swap1\n      tag_21\n      jump\t// in\n    tag_47:\n      tag_48\n      jump\t// in\n    tag_46:\n      stop\n        /* \"certificateissuer.sol\":712:757  mapping(address =>  uint) public stakedAmount */\n    tag_10:\n      callvalue\n      dup1\n      iszero\n      tag_49\n      jumpi\n      0x00\n      dup1\n      revert\n    tag_49:\n      pop\n      tag_50\n      0x04\n      dup1\n      calldatasize\n      sub\n      dup2\n      add\n      swap1\n      tag_51\n      swap2\n      swap1\n      tag_21\n      jump\t// in\n    tag_51:\n      tag_52\n      jump\t// in\n    tag_50:\n      mload(0x40)\n      tag_53\n      swap2\n      swap1\n      tag_54\n      jump\t// in\n    tag_53:\n      mload(0x40)\n      dup1\n      swap2\n      sub\n      swap1\n      return\n        /* \"certificateissuer.sol\":2337:2682  function updateCertificateRecipientForStaking(string memory cauth,address _staker ) public   {... */\n    tag_11:\n      callvalue\n      dup1\n      iszero\n      tag_55\n      jumpi\n      0x00\n      dup1\n      revert\n    tag_55:\n      pop\n      tag_56\n      0x04\n      dup1\n      calldatasize\n      sub\n      dup2\n      add\n      swap1\n      tag_57\n      swap2\n      swap1\n      tag_58\n      jump\t// in\n    tag_57:\n      tag_59\n      jump\t// in\n    tag_56:\n      stop\n        /* \"ownable.sol\":551:643  function setOwner(address _newOwner) public onlyOwner {... */\n    tag_22:\n        /* \"ownable.sol\":299:308  isOwner() */\n      tag_61\n        /* \"ownable.sol\":299:306  isOwner */\n      tag_33\n        /* \"ownable.sol\":299:308  isOwner() */\n      jump\t// in\n    tag_61:\n        /* \"ownable.sol\":291:345  require(isOwner(), \"Ownable: caller is not the owner\") */\n      tag_62\n      jumpi\n      mload(0x40)\n      0x08c379a000000000000000000000000000000000000000000000000000000000\n      dup2\n      mstore\n      0x04\n      add\n      tag_63\n      swap1\n      tag_64\n      jump\t// in\n    tag_63:\n      mload(0x40)\n      dup1\n      swap2\n      sub\n      swap1\n      revert\n    tag_62:\n        /* \"ownable.sol\":625:634  _newOwner */\n      dup1\n        /* \"ownable.sol\":616:622  _owner */\n      0x00\n      dup1\n        /* \"ownable.sol\":616:634  _owner = _newOwner */\n      0x0100\n      exp\n      dup2\n      sload\n      dup2\n      0xffffffffffffffffffffffffffffffffffffffff\n      mul\n      not\n      and\n      swap1\n      dup4\n      0xffffffffffffffffffffffffffffffffffffffff\n      and\n      mul\n      or\n      swap1\n      sstore\n      pop\n        /* \"ownable.sol\":551:643  function setOwner(address _newOwner) public onlyOwner {... */\n      pop\n      jump\t// out\n        /* \"certificateissuer.sol\":2690:3405  function issueCertificate(string memory _name , string memory _courseTittle, uint _duration , string memory institute,string memory cauth ) external payable  {... */\n    tag_26:\n        /* \"certificateissuer.sol\":2921:2927  _admin */\n      0x04\n      0x00\n      swap1\n      sload\n      swap1\n      0x0100\n      exp\n      swap1\n      div\n      0xffffffffffffffffffffffffffffffffffffffff\n      and\n        /* \"certificateissuer.sol\":2907:2927  msg.sender == _admin */\n      0xffffffffffffffffffffffffffffffffffffffff\n      and\n        /* \"certificateissuer.sol\":2907:2917  msg.sender */\n      caller\n        /* \"certificateissuer.sol\":2907:2927  msg.sender == _admin */\n      0xffffffffffffffffffffffffffffffffffffffff\n      and\n      eq\n        /* \"certificateissuer.sol\":2899:2928  require(msg.sender == _admin) */\n      tag_67\n      jumpi\n      0x00\n      dup1\n      revert\n    tag_67:\n        /* \"certificateissuer.sol\":3009:3013  true */\n      0x01\n        /* \"certificateissuer.sol\":2988:3013  cauthValid[cauth] == true */\n      iszero\n      iszero\n        /* \"certificateissuer.sol\":2988:2998  cauthValid */\n      0x01\n        /* \"certificateissuer.sol\":2999:3004  cauth */\n      dup3\n        /* \"certificateissuer.sol\":2988:3005  cauthValid[cauth] */\n      mload(0x40)\n      tag_68\n      swap2\n      swap1\n      tag_69\n      jump\t// in\n    tag_68:\n      swap1\n      dup2\n      mstore\n      0x20\n      add\n      mload(0x40)\n      dup1\n      swap2\n      sub\n      swap1\n      keccak256\n      0x00\n      swap1\n      sload\n      swap1\n      0x0100\n      exp\n      swap1\n      pop\n      pop\n        /* \"certificateissuer.sol\":2988:3013  cauthValid[cauth] == true */\n      pop\n        /* \"certificateissuer.sol\":3057:3121  certificateIssued(_name,_courseTittle,_duration,institute,cauth) */\n      0xe10b63ae15af33dfb6fd11bdb907fba25fdd8cdbb63d7c46d530e30901d62107\n        /* \"certificateissuer.sol\":3075:3080  _name */\n      dup6\n        /* \"certificateissuer.sol\":3081:3094  _courseTittle */\n      dup6\n        /* \"certificateissuer.sol\":3095:3104  _duration */\n      dup6\n        /* \"certificateissuer.sol\":3105:3114  institute */\n      dup6\n        /* \"certificateissuer.sol\":3115:3120  cauth */\n      dup6\n        /* \"certificateissuer.sol\":3057:3121  certificateIssued(_name,_courseTittle,_duration,institute,cauth) */\n      mload(0x40)\n      tag_70\n      swap6\n      swap5\n      swap4\n      swap3\n      swap2\n      swap1\n      tag_71\n      jump\t// in\n    tag_70:\n      mload(0x40)\n      dup1\n      swap2\n      sub\n      swap1\n      log1\n        /* \"certificateissuer.sol\":3175:3190  cauthToCanStake */\n      0x02\n        /* \"certificateissuer.sol\":3191:3196  cauth */\n      dup2\n        /* \"certificateissuer.sol\":3175:3197  cauthToCanStake[cauth] */\n      mload(0x40)\n      tag_72\n      swap2\n      swap1\n      tag_69\n      jump\t// in\n    tag_72:\n      swap1\n      dup2\n      mstore\n      0x20\n      add\n      mload(0x40)\n      dup1\n      swap2\n      sub\n      swap1\n      keccak256\n      0x00\n      swap1\n      sload\n      swap1\n      0x0100\n      exp\n      swap1\n      div\n      0xff\n      and\n        /* \"certificateissuer.sol\":3172:3358  if(cauthToCanStake[cauth]){... */\n      iszero\n      tag_73\n      jumpi\n        /* \"certificateissuer.sol\":3213:3253  returnStakedEther(cauthToAddress[cauth]) */\n      tag_74\n        /* \"certificateissuer.sol\":3231:3245  cauthToAddress */\n      0x03\n        /* \"certificateissuer.sol\":3246:3251  cauth */\n      dup3\n        /* \"certificateissuer.sol\":3231:3252  cauthToAddress[cauth] */\n      mload(0x40)\n      tag_75\n      swap2\n      swap1\n      tag_69\n      jump\t// in\n    tag_75:\n      swap1\n      dup2\n      mstore\n      0x20\n      add\n      mload(0x40)\n      dup1\n      swap2\n      sub\n      swap1\n      keccak256\n      0x00\n      swap1\n      sload\n      swap1\n      0x0100\n      exp\n      swap1\n      div\n      0xffffffffffffffffffffffffffffffffffffffff\n      and\n        /* \"certificateissuer.sol\":3213:3230  returnStakedEther */\n      tag_48\n        /* \"certificateissuer.sol\":3213:3253  returnStakedEther(cauthToAddress[cauth]) */\n      jump\t// in\n    tag_74:\n        /* \"certificateissuer.sol\":3273:3345  stakeReturned(cauthToAddress[cauth],stakedAmount[cauthToAddress[cauth]]) */\n      0x4e5bfbe05270402fc09cd413235062e684a8396be0a33385106e3b5c34302e60\n        /* \"certificateissuer.sol\":3287:3301  cauthToAddress */\n      0x03\n        /* \"certificateissuer.sol\":3302:3307  cauth */\n      dup3\n        /* \"certificateissuer.sol\":3287:3308  cauthToAddress[cauth] */\n      mload(0x40)\n      tag_76\n      swap2\n      swap1\n      tag_69\n      jump\t// in\n    tag_76:\n      swap1\n      dup2\n      mstore\n      0x20\n      add\n      mload(0x40)\n      dup1\n      swap2\n      sub\n      swap1\n      keccak256\n      0x00\n      swap1\n      sload\n      swap1\n      0x0100\n      exp\n      swap1\n      div\n      0xffffffffffffffffffffffffffffffffffffffff\n      and\n        /* \"certificateissuer.sol\":3309:3321  stakedAmount */\n      0x06\n        /* \"certificateissuer.sol\":3309:3344  stakedAmount[cauthToAddress[cauth]] */\n      0x00\n        /* \"certificateissuer.sol\":3322:3336  cauthToAddress */\n      0x03\n        /* \"certificateissuer.sol\":3337:3342  cauth */\n      dup6\n        /* \"certificateissuer.sol\":3322:3343  cauthToAddress[cauth] */\n      mload(0x40)\n      tag_77\n      swap2\n      swap1\n      tag_69\n      jump\t// in\n    tag_77:\n      swap1\n      dup2\n      mstore\n      0x20\n      add\n      mload(0x40)\n      dup1\n      swap2\n      sub\n      swap1\n      keccak256\n      0x00\n      swap1\n      sload\n      swap1\n      0x0100\n      exp\n      swap1\n      div\n      0xffffffffffffffffffffffffffffffffffffffff\n      and\n        /* \"certificateissuer.sol\":3309:3344  stakedAmount[cauthToAddress[cauth]] */\n      0xffffffffffffffffffffffffffffffffffffffff\n      and\n      0xffffffffffffffffffffffffffffffffffffffff\n      and\n      dup2\n      mstore\n      0x20\n      add\n      swap1\n      dup2\n      mstore\n      0x20\n      add\n      0x00\n      keccak256\n      sload\n        /* \"certificateissuer.sol\":3273:3345  stakeReturned(cauthToAddress[cauth],stakedAmount[cauthToAddress[cauth]]) */\n      mload(0x40)\n      tag_78\n      swap3\n      swap2\n      swap1\n      tag_79\n      jump\t// in\n    tag_78:\n      mload(0x40)\n      dup1\n      swap2\n      sub\n      swap1\n      log1\n        /* \"certificateissuer.sol\":3172:3358  if(cauthToCanStake[cauth]){... */\n    tag_73:\n        /* \"certificateissuer.sol\":3388:3393  false */\n      0x00\n        /* \"certificateissuer.sol\":3368:3378  cauthValid */\n      0x01\n        /* \"certificateissuer.sol\":3379:3384  cauth */\n      dup3\n        /* \"certificateissuer.sol\":3368:3385  cauthValid[cauth] */\n      mload(0x40)\n      tag_80\n      swap2\n      swap1\n      tag_69\n      jump\t// in\n    tag_80:\n      swap1\n      dup2\n      mstore\n      0x20\n      add\n      mload(0x40)\n      dup1\n      swap2\n      sub\n      swap1\n      keccak256\n      0x00\n        /* \"certificateissuer.sol\":3368:3393  cauthValid[cauth] = false */\n      0x0100\n      exp\n      dup2\n      sload\n      dup2\n      0xff\n      mul\n      not\n      and\n      swap1\n      dup4\n      iszero\n      iszero\n      mul\n      or\n      swap1\n      sstore\n      pop\n        /* \"certificateissuer.sol\":2690:3405  function issueCertificate(string memory _name , string memory _courseTittle, uint _duration , string memory institute,string memory cauth ) external payable  {... */\n      pop\n      pop\n      pop\n      pop\n      pop\n      jump\t// out\n        /* \"certificateissuer.sol\":302:406  function setAdmin(address _adminParameter) public onlyOwner{... */\n    tag_30:\n        /* \"ownable.sol\":299:308  isOwner() */\n      tag_82\n        /* \"ownable.sol\":299:306  isOwner */\n      tag_33\n        /* \"ownable.sol\":299:308  isOwner() */\n      jump\t// in\n    tag_82:\n        /* \"ownable.sol\":291:345  require(isOwner(), \"Ownable: caller is not the owner\") */\n      tag_83\n      jumpi\n      mload(0x40)\n      0x08c379a000000000000000000000000000000000000000000000000000000000\n      dup2\n      mstore\n      0x04\n      add\n      tag_84\n      swap1\n      tag_64\n      jump\t// in\n    tag_84:\n      mload(0x40)\n      dup1\n      swap2\n      sub\n      swap1\n      revert\n    tag_83:\n        /* \"certificateissuer.sol\":381:396  _adminParameter */\n      dup1\n        /* \"certificateissuer.sol\":372:378  _admin */\n      0x04\n      0x00\n        /* \"certificateissuer.sol\":372:396  _admin = _adminParameter */\n      0x0100\n      exp\n      dup2\n      sload\n      dup2\n      0xffffffffffffffffffffffffffffffffffffffff\n      mul\n      not\n      and\n      swap1\n      dup4\n      0xffffffffffffffffffffffffffffffffffffffff\n      and\n      mul\n      or\n      swap1\n      sstore\n      pop\n        /* \"certificateissuer.sol\":302:406  function setAdmin(address _adminParameter) public onlyOwner{... */\n      pop\n      jump\t// out\n        /* \"ownable.sol\":451:545  function isOwner() public view returns (bool) {... */\n    tag_33:\n        /* \"ownable.sol\":491:495  bool */\n      0x00\n        /* \"ownable.sol\":530:536  _owner */\n      dup1\n      0x00\n      swap1\n      sload\n      swap1\n      0x0100\n      exp\n      swap1\n      div\n      0xffffffffffffffffffffffffffffffffffffffff\n      and\n        /* \"ownable.sol\":516:536  msg.sender == _owner */\n      0xffffffffffffffffffffffffffffffffffffffff\n      and\n        /* \"ownable.sol\":516:526  msg.sender */\n      caller\n        /* \"ownable.sol\":516:536  msg.sender == _owner */\n      0xffffffffffffffffffffffffffffffffffffffff\n      and\n      eq\n        /* \"ownable.sol\":508:537  return (msg.sender == _owner) */\n      swap1\n      pop\n        /* \"ownable.sol\":451:545  function isOwner() public view returns (bool) {... */\n      swap1\n      jump\t// out\n        /* \"ownable.sol\":85:106  address public _owner */\n    tag_38:\n      0x00\n      dup1\n      sload\n      swap1\n      0x0100\n      exp\n      swap1\n      div\n      0xffffffffffffffffffffffffffffffffffffffff\n      and\n      dup2\n      jump\t// out\n        /* \"certificateissuer.sol\":1928:2161  function updateCertificateRecipient(string memory cauth) public  {... */\n    tag_45:\n        /* \"certificateissuer.sol\":2026:2032  _admin */\n      0x04\n      0x00\n      swap1\n      sload\n      swap1\n      0x0100\n      exp\n      swap1\n      div\n      0xffffffffffffffffffffffffffffffffffffffff\n      and\n        /* \"certificateissuer.sol\":2012:2032  msg.sender == _admin */\n      0xffffffffffffffffffffffffffffffffffffffff\n      and\n        /* \"certificateissuer.sol\":2012:2022  msg.sender */\n      caller\n        /* \"certificateissuer.sol\":2012:2032  msg.sender == _admin */\n      0xffffffffffffffffffffffffffffffffffffffff\n      and\n      eq\n        /* \"certificateissuer.sol\":2004:2033  require(msg.sender == _admin) */\n      tag_88\n      jumpi\n      0x00\n      dup1\n      revert\n    tag_88:\n        /* \"certificateissuer.sol\":2065:2069  true */\n      0x01\n        /* \"certificateissuer.sol\":2045:2055  cauthValid */\n      dup1\n        /* \"certificateissuer.sol\":2056:2061  cauth */\n      dup3\n        /* \"certificateissuer.sol\":2045:2062  cauthValid[cauth] */\n      mload(0x40)\n      tag_89\n      swap2\n      swap1\n      tag_69\n      jump\t// in\n    tag_89:\n      swap1\n      dup2\n      mstore\n      0x20\n      add\n      mload(0x40)\n      dup1\n      swap2\n      sub\n      swap1\n      keccak256\n      0x00\n        /* \"certificateissuer.sol\":2045:2069  cauthValid[cauth] = true */\n      0x0100\n      exp\n      dup2\n      sload\n      dup2\n      0xff\n      mul\n      not\n      and\n      swap1\n      dup4\n      iszero\n      iszero\n      mul\n      or\n      swap1\n      sstore\n      pop\n        /* \"certificateissuer.sol\":2091:2101  cauthValid */\n      0x01\n        /* \"certificateissuer.sol\":2102:2107  cauth */\n      dup2\n        /* \"certificateissuer.sol\":2091:2108  cauthValid[cauth] */\n      mload(0x40)\n      tag_90\n      swap2\n      swap1\n      tag_69\n      jump\t// in\n    tag_90:\n      swap1\n      dup2\n      mstore\n      0x20\n      add\n      mload(0x40)\n      dup1\n      swap2\n      sub\n      swap1\n      keccak256\n      0x00\n      swap1\n      sload\n      swap1\n      0x0100\n      exp\n      swap1\n      div\n      0xff\n      and\n        /* \"certificateissuer.sol\":2083:2109  require(cauthValid[cauth]) */\n      tag_91\n      jumpi\n      0x00\n      dup1\n      revert\n    tag_91:\n        /* \"certificateissuer.sol\":2147:2151  true */\n      0x01\n        /* \"certificateissuer.sol\":2122:2137  cauthToCanStake */\n      0x02\n        /* \"certificateissuer.sol\":2138:2143  cauth */\n      dup3\n        /* \"certificateissuer.sol\":2122:2144  cauthToCanStake[cauth] */\n      mload(0x40)\n      tag_92\n      swap2\n      swap1\n      tag_69\n      jump\t// in\n    tag_92:\n      swap1\n      dup2\n      mstore\n      0x20\n      add\n      mload(0x40)\n      dup1\n      swap2\n      sub\n      swap1\n      keccak256\n      0x00\n        /* \"certificateissuer.sol\":2122:2151  cauthToCanStake[cauth] = true */\n      0x0100\n      exp\n      dup2\n      sload\n      dup2\n      0xff\n      mul\n      not\n      and\n      swap1\n      dup4\n      iszero\n      iszero\n      mul\n      or\n      swap1\n      sstore\n      pop\n        /* \"certificateissuer.sol\":1928:2161  function updateCertificateRecipient(string memory cauth) public  {... */\n      pop\n      jump\t// out\n        /* \"certificateissuer.sol\":3413:3497  function returnStakedEther(address _studentAddress) public payable{... */\n    tag_48:\n      pop\n      jump\t// out\n        /* \"certificateissuer.sol\":712:757  mapping(address =>  uint) public stakedAmount */\n    tag_52:\n      mstore(0x20, 0x06)\n      dup1\n      0x00\n      mstore\n      keccak256(0x00, 0x40)\n      0x00\n      swap2\n      pop\n      swap1\n      pop\n      sload\n      dup2\n      jump\t// out\n        /* \"certificateissuer.sol\":2337:2682  function updateCertificateRecipientForStaking(string memory cauth,address _staker ) public   {... */\n    tag_59:\n        /* \"certificateissuer.sol\":2463:2469  _admin */\n      0x04\n      0x00\n      swap1\n      sload\n      swap1\n      0x0100\n      exp\n      swap1\n      div\n      0xffffffffffffffffffffffffffffffffffffffff\n      and\n        /* \"certificateissuer.sol\":2449:2469  msg.sender == _admin */\n      0xffffffffffffffffffffffffffffffffffffffff\n      and\n        /* \"certificateissuer.sol\":2449:2459  msg.sender */\n      caller\n        /* \"certificateissuer.sol\":2449:2469  msg.sender == _admin */\n      0xffffffffffffffffffffffffffffffffffffffff\n      and\n      eq\n        /* \"certificateissuer.sol\":2441:2470  require(msg.sender == _admin) */\n      tag_95\n      jumpi\n      0x00\n      dup1\n      revert\n    tag_95:\n        /* \"certificateissuer.sol\":2502:2506  true */\n      0x01\n        /* \"certificateissuer.sol\":2482:2492  cauthValid */\n      dup1\n        /* \"certificateissuer.sol\":2493:2498  cauth */\n      dup4\n        /* \"certificateissuer.sol\":2482:2499  cauthValid[cauth] */\n      mload(0x40)\n      tag_96\n      swap2\n      swap1\n      tag_69\n      jump\t// in\n    tag_96:\n      swap1\n      dup2\n      mstore\n      0x20\n      add\n      mload(0x40)\n      dup1\n      swap2\n      sub\n      swap1\n      keccak256\n      0x00\n        /* \"certificateissuer.sol\":2482:2506  cauthValid[cauth] = true */\n      0x0100\n      exp\n      dup2\n      sload\n      dup2\n      0xff\n      mul\n      not\n      and\n      swap1\n      dup4\n      iszero\n      iszero\n      mul\n      or\n      swap1\n      sstore\n      pop\n        /* \"certificateissuer.sol\":2528:2538  cauthValid */\n      0x01\n        /* \"certificateissuer.sol\":2539:2544  cauth */\n      dup3\n        /* \"certificateissuer.sol\":2528:2545  cauthValid[cauth] */\n      mload(0x40)\n      tag_97\n      swap2\n      swap1\n      tag_69\n      jump\t// in\n    tag_97:\n      swap1\n      dup2\n      mstore\n      0x20\n      add\n      mload(0x40)\n      dup1\n      swap2\n      sub\n      swap1\n      keccak256\n      0x00\n      swap1\n      sload\n      swap1\n      0x0100\n      exp\n      swap1\n      div\n      0xff\n      and\n        /* \"certificateissuer.sol\":2520:2546  require(cauthValid[cauth]) */\n      tag_98\n      jumpi\n      0x00\n      dup1\n      revert\n    tag_98:\n        /* \"certificateissuer.sol\":2584:2588  true */\n      0x01\n        /* \"certificateissuer.sol\":2559:2574  cauthToCanStake */\n      0x02\n        /* \"certificateissuer.sol\":2575:2580  cauth */\n      dup4\n        /* \"certificateissuer.sol\":2559:2581  cauthToCanStake[cauth] */\n      mload(0x40)\n      tag_99\n      swap2\n      swap1\n      tag_69\n      jump\t// in\n    tag_99:\n      swap1\n      dup2\n      mstore\n      0x20\n      add\n      mload(0x40)\n      dup1\n      swap2\n      sub\n      swap1\n      keccak256\n      0x00\n        /* \"certificateissuer.sol\":2559:2588  cauthToCanStake[cauth] = true */\n      0x0100\n      exp\n      dup2\n      sload\n      dup2\n      0xff\n      mul\n      not\n      and\n      swap1\n      dup4\n      iszero\n      iszero\n      mul\n      or\n      swap1\n      sstore\n      pop\n        /* \"certificateissuer.sol\":2626:2631  cauth */\n      dup2\n        /* \"certificateissuer.sol\":2601:2614  adressToCauth */\n      0x05\n        /* \"certificateissuer.sol\":2601:2623  adressToCauth[_staker] */\n      0x00\n        /* \"certificateissuer.sol\":2615:2622  _staker */\n      dup4\n        /* \"certificateissuer.sol\":2601:2623  adressToCauth[_staker] */\n      0xffffffffffffffffffffffffffffffffffffffff\n      and\n      0xffffffffffffffffffffffffffffffffffffffff\n      and\n      dup2\n      mstore\n      0x20\n      add\n      swap1\n      dup2\n      mstore\n      0x20\n      add\n      0x00\n      keccak256\n        /* \"certificateissuer.sol\":2601:2631  adressToCauth[_staker] = cauth */\n      swap1\n      dup2\n      tag_100\n      swap2\n      swap1\n      tag_101\n      jump\t// in\n    tag_100:\n      pop\n        /* \"certificateissuer.sol\":2666:2673  _staker */\n      dup1\n        /* \"certificateissuer.sol\":2643:2657  cauthToAddress */\n      0x03\n        /* \"certificateissuer.sol\":2658:2663  cauth */\n      dup4\n        /* \"certificateissuer.sol\":2643:2664  cauthToAddress[cauth] */\n      mload(0x40)\n      tag_102\n      swap2\n      swap1\n      tag_69\n      jump\t// in\n    tag_102:\n      swap1\n      dup2\n      mstore\n      0x20\n      add\n      mload(0x40)\n      dup1\n      swap2\n      sub\n      swap1\n      keccak256\n      0x00\n        /* \"certificateissuer.sol\":2643:2673  cauthToAddress[cauth] =_staker */\n      0x0100\n      exp\n      dup2\n      sload\n      dup2\n      0xffffffffffffffffffffffffffffffffffffffff\n      mul\n      not\n      and\n      swap1\n      dup4\n      0xffffffffffffffffffffffffffffffffffffffff\n      and\n      mul\n      or\n      swap1\n      sstore\n      pop\n        /* \"certificateissuer.sol\":2337:2682  function updateCertificateRecipientForStaking(string memory cauth,address _staker ) public   {... */\n      pop\n      pop\n      jump\t// out\n        /* \"#utility.yul\":7:187   */\n    tag_103:\n        /* \"#utility.yul\":55:132   */\n      0x4e487b7100000000000000000000000000000000000000000000000000000000\n        /* \"#utility.yul\":52:53   */\n      0x00\n        /* \"#utility.yul\":45:133   */\n      mstore\n        /* \"#utility.yul\":152:156   */\n      0x22\n        /* \"#utility.yul\":149:150   */\n      0x04\n        /* \"#utility.yul\":142:157   */\n      mstore\n        /* \"#utility.yul\":176:180   */\n      0x24\n        /* \"#utility.yul\":173:174   */\n      0x00\n        /* \"#utility.yul\":166:181   */\n      revert\n        /* \"#utility.yul\":193:513   */\n    tag_104:\n        /* \"#utility.yul\":237:243   */\n      0x00\n        /* \"#utility.yul\":274:275   */\n      0x02\n        /* \"#utility.yul\":268:272   */\n      dup3\n        /* \"#utility.yul\":264:276   */\n      div\n        /* \"#utility.yul\":254:276   */\n      swap1\n      pop\n        /* \"#utility.yul\":321:322   */\n      0x01\n        /* \"#utility.yul\":315:319   */\n      dup3\n        /* \"#utility.yul\":311:323   */\n      and\n        /* \"#utility.yul\":342:360   */\n      dup1\n        /* \"#utility.yul\":332:413   */\n      tag_156\n      jumpi\n        /* \"#utility.yul\":398:402   */\n      0x7f\n        /* \"#utility.yul\":390:396   */\n      dup3\n        /* \"#utility.yul\":386:403   */\n      and\n        /* \"#utility.yul\":376:403   */\n      swap2\n      pop\n        /* \"#utility.yul\":332:413   */\n    tag_156:\n        /* \"#utility.yul\":460:462   */\n      0x20\n        /* \"#utility.yul\":452:458   */\n      dup3\n        /* \"#utility.yul\":449:463   */\n      lt\n        /* \"#utility.yul\":429:447   */\n      dup2\n        /* \"#utility.yul\":426:464   */\n      sub\n        /* \"#utility.yul\":423:507   */\n      tag_157\n      jumpi\n        /* \"#utility.yul\":479:497   */\n      tag_158\n      tag_103\n      jump\t// in\n    tag_158:\n        /* \"#utility.yul\":423:507   */\n    tag_157:\n        /* \"#utility.yul\":244:513   */\n      pop\n        /* \"#utility.yul\":193:513   */\n      swap2\n      swap1\n      pop\n      jump\t// out\n        /* \"#utility.yul\":519:667   */\n    tag_105:\n        /* \"#utility.yul\":621:632   */\n      0x00\n        /* \"#utility.yul\":658:661   */\n      dup2\n        /* \"#utility.yul\":643:661   */\n      swap1\n      pop\n        /* \"#utility.yul\":519:667   */\n      swap3\n      swap2\n      pop\n      pop\n      jump\t// out\n        /* \"#utility.yul\":673:814   */\n    tag_106:\n        /* \"#utility.yul\":722:726   */\n      0x00\n        /* \"#utility.yul\":745:748   */\n      dup2\n        /* \"#utility.yul\":737:748   */\n      swap1\n      pop\n        /* \"#utility.yul\":768:771   */\n      dup2\n        /* \"#utility.yul\":765:766   */\n      0x00\n        /* \"#utility.yul\":758:772   */\n      mstore\n        /* \"#utility.yul\":802:806   */\n      0x20\n        /* \"#utility.yul\":799:800   */\n      0x00\n        /* \"#utility.yul\":789:807   */\n      keccak256\n        /* \"#utility.yul\":781:807   */\n      swap1\n      pop\n        /* \"#utility.yul\":673:814   */\n      swap2\n      swap1\n      pop\n      jump\t// out\n        /* \"#utility.yul\":844:1718   */\n    tag_107:\n        /* \"#utility.yul\":947:950   */\n      0x00\n        /* \"#utility.yul\":984:989   */\n      dup2\n        /* \"#utility.yul\":978:990   */\n      sload\n        /* \"#utility.yul\":1013:1049   */\n      tag_162\n        /* \"#utility.yul\":1039:1048   */\n      dup2\n        /* \"#utility.yul\":1013:1049   */\n      tag_104\n      jump\t// in\n    tag_162:\n        /* \"#utility.yul\":1065:1154   */\n      tag_163\n        /* \"#utility.yul\":1147:1153   */\n      dup2\n        /* \"#utility.yul\":1142:1145   */\n      dup7\n        /* \"#utility.yul\":1065:1154   */\n      tag_105\n      jump\t// in\n    tag_163:\n        /* \"#utility.yul\":1058:1154   */\n      swap5\n      pop\n        /* \"#utility.yul\":1185:1186   */\n      0x01\n        /* \"#utility.yul\":1174:1183   */\n      dup3\n        /* \"#utility.yul\":1170:1187   */\n      and\n        /* \"#utility.yul\":1201:1202   */\n      0x00\n        /* \"#utility.yul\":1196:1362   */\n      dup2\n      eq\n      tag_165\n      jumpi\n        /* \"#utility.yul\":1376:1377   */\n      0x01\n        /* \"#utility.yul\":1371:1712   */\n      dup2\n      eq\n      tag_166\n      jumpi\n        /* \"#utility.yul\":1163:1712   */\n      jump(tag_164)\n        /* \"#utility.yul\":1196:1362   */\n    tag_165:\n        /* \"#utility.yul\":1280:1284   */\n      0xff\n        /* \"#utility.yul\":1276:1285   */\n      not\n        /* \"#utility.yul\":1265:1274   */\n      dup4\n        /* \"#utility.yul\":1261:1286   */\n      and\n        /* \"#utility.yul\":1256:1259   */\n      dup7\n        /* \"#utility.yul\":1249:1287   */\n      mstore\n        /* \"#utility.yul\":1342:1348   */\n      dup2\n        /* \"#utility.yul\":1335:1349   */\n      iszero\n        /* \"#utility.yul\":1328:1350   */\n      iszero\n        /* \"#utility.yul\":1320:1326   */\n      dup3\n        /* \"#utility.yul\":1316:1351   */\n      mul\n        /* \"#utility.yul\":1311:1314   */\n      dup7\n        /* \"#utility.yul\":1307:1352   */\n      add\n        /* \"#utility.yul\":1300:1352   */\n      swap4\n      pop\n        /* \"#utility.yul\":1196:1362   */\n      jump(tag_164)\n        /* \"#utility.yul\":1371:1712   */\n    tag_166:\n        /* \"#utility.yul\":1438:1476   */\n      tag_167\n        /* \"#utility.yul\":1470:1475   */\n      dup6\n        /* \"#utility.yul\":1438:1476   */\n      tag_106\n      jump\t// in\n    tag_167:\n        /* \"#utility.yul\":1498:1499   */\n      0x00\n        /* \"#utility.yul\":1512:1666   */\n    tag_168:\n        /* \"#utility.yul\":1526:1532   */\n      dup4\n        /* \"#utility.yul\":1523:1524   */\n      dup2\n        /* \"#utility.yul\":1520:1533   */\n      lt\n        /* \"#utility.yul\":1512:1666   */\n      iszero\n      tag_170\n      jumpi\n        /* \"#utility.yul\":1600:1607   */\n      dup2\n        /* \"#utility.yul\":1594:1608   */\n      sload\n        /* \"#utility.yul\":1590:1591   */\n      dup2\n        /* \"#utility.yul\":1585:1588   */\n      dup10\n        /* \"#utility.yul\":1581:1592   */\n      add\n        /* \"#utility.yul\":1574:1609   */\n      mstore\n        /* \"#utility.yul\":1650:1651   */\n      0x01\n        /* \"#utility.yul\":1641:1648   */\n      dup3\n        /* \"#utility.yul\":1637:1652   */\n      add\n        /* \"#utility.yul\":1626:1652   */\n      swap2\n      pop\n        /* \"#utility.yul\":1548:1552   */\n      0x20\n        /* \"#utility.yul\":1545:1546   */\n      dup2\n        /* \"#utility.yul\":1541:1553   */\n      add\n        /* \"#utility.yul\":1536:1553   */\n      swap1\n      pop\n        /* \"#utility.yul\":1512:1666   */\n      jump(tag_168)\n    tag_170:\n        /* \"#utility.yul\":1695:1701   */\n      dup4\n        /* \"#utility.yul\":1690:1693   */\n      dup9\n        /* \"#utility.yul\":1686:1702   */\n      add\n        /* \"#utility.yul\":1679:1702   */\n      swap6\n      pop\n        /* \"#utility.yul\":1378:1712   */\n      pop\n      pop\n        /* \"#utility.yul\":1163:1712   */\n    tag_164:\n      pop\n        /* \"#utility.yul\":951:1718   */\n      pop\n      pop\n        /* \"#utility.yul\":844:1718   */\n      swap3\n      swap2\n      pop\n      pop\n      jump\t// out\n        /* \"#utility.yul\":1724:1993   */\n    tag_16:\n        /* \"#utility.yul\":1853:1856   */\n      0x00\n        /* \"#utility.yul\":1875:1967   */\n      tag_172\n        /* \"#utility.yul\":1963:1966   */\n      dup3\n        /* \"#utility.yul\":1954:1960   */\n      dup5\n        /* \"#utility.yul\":1875:1967   */\n      tag_107\n      jump\t// in\n    tag_172:\n        /* \"#utility.yul\":1868:1967   */\n      swap2\n      pop\n        /* \"#utility.yul\":1984:1987   */\n      dup2\n        /* \"#utility.yul\":1977:1987   */\n      swap1\n      pop\n        /* \"#utility.yul\":1724:1993   */\n      swap3\n      swap2\n      pop\n      pop\n      jump\t// out\n        /* \"#utility.yul\":1999:2074   */\n    tag_108:\n        /* \"#utility.yul\":2032:2038   */\n      0x00\n        /* \"#utility.yul\":2065:2067   */\n      0x40\n        /* \"#utility.yul\":2059:2068   */\n      mload\n        /* \"#utility.yul\":2049:2068   */\n      swap1\n      pop\n        /* \"#utility.yul\":1999:2074   */\n      swap1\n      jump\t// out\n        /* \"#utility.yul\":2080:2197   */\n    tag_109:\n        /* \"#utility.yul\":2189:2190   */\n      0x00\n        /* \"#utility.yul\":2186:2187   */\n      dup1\n        /* \"#utility.yul\":2179:2191   */\n      revert\n        /* \"#utility.yul\":2203:2320   */\n    tag_110:\n        /* \"#utility.yul\":2312:2313   */\n      0x00\n        /* \"#utility.yul\":2309:2310   */\n      dup1\n        /* \"#utility.yul\":2302:2314   */\n      revert\n        /* \"#utility.yul\":2326:2452   */\n    tag_111:\n        /* \"#utility.yul\":2363:2370   */\n      0x00\n        /* \"#utility.yul\":2403:2445   */\n      0xffffffffffffffffffffffffffffffffffffffff\n        /* \"#utility.yul\":2396:2401   */\n      dup3\n        /* \"#utility.yul\":2392:2446   */\n      and\n        /* \"#utility.yul\":2381:2446   */\n      swap1\n      pop\n        /* \"#utility.yul\":2326:2452   */\n      swap2\n      swap1\n      pop\n      jump\t// out\n        /* \"#utility.yul\":2458:2554   */\n    tag_112:\n        /* \"#utility.yul\":2495:2502   */\n      0x00\n        /* \"#utility.yul\":2524:2548   */\n      tag_178\n        /* \"#utility.yul\":2542:2547   */\n      dup3\n        /* \"#utility.yul\":2524:2548   */\n      tag_111\n      jump\t// in\n    tag_178:\n        /* \"#utility.yul\":2513:2548   */\n      swap1\n      pop\n        /* \"#utility.yul\":2458:2554   */\n      swap2\n      swap1\n      pop\n      jump\t// out\n        /* \"#utility.yul\":2560:2682   */\n    tag_113:\n        /* \"#utility.yul\":2633:2657   */\n      tag_180\n        /* \"#utility.yul\":2651:2656   */\n      dup2\n        /* \"#utility.yul\":2633:2657   */\n      tag_112\n      jump\t// in\n    tag_180:\n        /* \"#utility.yul\":2626:2631   */\n      dup2\n        /* \"#utility.yul\":2623:2658   */\n      eq\n        /* \"#utility.yul\":2613:2676   */\n      tag_181\n      jumpi\n        /* \"#utility.yul\":2672:2673   */\n      0x00\n        /* \"#utility.yul\":2669:2670   */\n      dup1\n        /* \"#utility.yul\":2662:2674   */\n      revert\n        /* \"#utility.yul\":2613:2676   */\n    tag_181:\n        /* \"#utility.yul\":2560:2682   */\n      pop\n      jump\t// out\n        /* \"#utility.yul\":2688:2827   */\n    tag_114:\n        /* \"#utility.yul\":2734:2739   */\n      0x00\n        /* \"#utility.yul\":2772:2778   */\n      dup2\n        /* \"#utility.yul\":2759:2779   */\n      calldataload\n        /* \"#utility.yul\":2750:2779   */\n      swap1\n      pop\n        /* \"#utility.yul\":2788:2821   */\n      tag_183\n        /* \"#utility.yul\":2815:2820   */\n      dup2\n        /* \"#utility.yul\":2788:2821   */\n      tag_113\n      jump\t// in\n    tag_183:\n        /* \"#utility.yul\":2688:2827   */\n      swap3\n      swap2\n      pop\n      pop\n      jump\t// out\n        /* \"#utility.yul\":2833:3162   */\n    tag_21:\n        /* \"#utility.yul\":2892:2898   */\n      0x00\n        /* \"#utility.yul\":2941:2943   */\n      0x20\n        /* \"#utility.yul\":2929:2938   */\n      dup3\n        /* \"#utility.yul\":2920:2927   */\n      dup5\n        /* \"#utility.yul\":2916:2939   */\n      sub\n        /* \"#utility.yul\":2912:2944   */\n      slt\n        /* \"#utility.yul\":2909:3028   */\n      iszero\n      tag_185\n      jumpi\n        /* \"#utility.yul\":2947:3026   */\n      tag_186\n      tag_109\n      jump\t// in\n    tag_186:\n        /* \"#utility.yul\":2909:3028   */\n    tag_185:\n        /* \"#utility.yul\":3067:3068   */\n      0x00\n        /* \"#utility.yul\":3092:3145   */\n      tag_187\n        /* \"#utility.yul\":3137:3144   */\n      dup5\n        /* \"#utility.yul\":3128:3134   */\n      dup3\n        /* \"#utility.yul\":3117:3126   */\n      dup6\n        /* \"#utility.yul\":3113:3135   */\n      add\n        /* \"#utility.yul\":3092:3145   */\n      tag_114\n      jump\t// in\n    tag_187:\n        /* \"#utility.yul\":3082:3145   */\n      swap2\n      pop\n        /* \"#utility.yul\":3038:3155   */\n      pop\n        /* \"#utility.yul\":2833:3162   */\n      swap3\n      swap2\n      pop\n      pop\n      jump\t// out\n        /* \"#utility.yul\":3168:3285   */\n    tag_115:\n        /* \"#utility.yul\":3277:3278   */\n      0x00\n        /* \"#utility.yul\":3274:3275   */\n      dup1\n        /* \"#utility.yul\":3267:3279   */\n      revert\n        /* \"#utility.yul\":3291:3408   */\n    tag_116:\n        /* \"#utility.yul\":3400:3401   */\n      0x00\n        /* \"#utility.yul\":3397:3398   */\n      dup1\n        /* \"#utility.yul\":3390:3402   */\n      revert\n        /* \"#utility.yul\":3414:3516   */\n    tag_117:\n        /* \"#utility.yul\":3455:3461   */\n      0x00\n        /* \"#utility.yul\":3506:3508   */\n      0x1f\n        /* \"#utility.yul\":3502:3509   */\n      not\n        /* \"#utility.yul\":3497:3499   */\n      0x1f\n        /* \"#utility.yul\":3490:3495   */\n      dup4\n        /* \"#utility.yul\":3486:3500   */\n      add\n        /* \"#utility.yul\":3482:3510   */\n      and\n        /* \"#utility.yul\":3472:3510   */\n      swap1\n      pop\n        /* \"#utility.yul\":3414:3516   */\n      swap2\n      swap1\n      pop\n      jump\t// out\n        /* \"#utility.yul\":3522:3702   */\n    tag_118:\n        /* \"#utility.yul\":3570:3647   */\n      0x4e487b7100000000000000000000000000000000000000000000000000000000\n        /* \"#utility.yul\":3567:3568   */\n      0x00\n        /* \"#utility.yul\":3560:3648   */\n      mstore\n        /* \"#utility.yul\":3667:3671   */\n      0x41\n        /* \"#utility.yul\":3664:3665   */\n      0x04\n        /* \"#utility.yul\":3657:3672   */\n      mstore\n        /* \"#utility.yul\":3691:3695   */\n      0x24\n        /* \"#utility.yul\":3688:3689   */\n      0x00\n        /* \"#utility.yul\":3681:3696   */\n      revert\n        /* \"#utility.yul\":3708:3989   */\n    tag_119:\n        /* \"#utility.yul\":3791:3818   */\n      tag_193\n        /* \"#utility.yul\":3813:3817   */\n      dup3\n        /* \"#utility.yul\":3791:3818   */\n      tag_117\n      jump\t// in\n    tag_193:\n        /* \"#utility.yul\":3783:3789   */\n      dup2\n        /* \"#utility.yul\":3779:3819   */\n      add\n        /* \"#utility.yul\":3921:3927   */\n      dup2\n        /* \"#utility.yul\":3909:3919   */\n      dup2\n        /* \"#utility.yul\":3906:3928   */\n      lt\n        /* \"#utility.yul\":3885:3903   */\n      0xffffffffffffffff\n        /* \"#utility.yul\":3873:3883   */\n      dup3\n        /* \"#utility.yul\":3870:3904   */\n      gt\n        /* \"#utility.yul\":3867:3929   */\n      or\n        /* \"#utility.yul\":3864:3952   */\n      iszero\n      tag_194\n      jumpi\n        /* \"#utility.yul\":3932:3950   */\n      tag_195\n      tag_118\n      jump\t// in\n    tag_195:\n        /* \"#utility.yul\":3864:3952   */\n    tag_194:\n        /* \"#utility.yul\":3972:3982   */\n      dup1\n        /* \"#utility.yul\":3968:3970   */\n      0x40\n        /* \"#utility.yul\":3961:3983   */\n      mstore\n        /* \"#utility.yul\":3751:3989   */\n      pop\n        /* \"#utility.yul\":3708:3989   */\n      pop\n      pop\n      jump\t// out\n        /* \"#utility.yul\":3995:4124   */\n    tag_120:\n        /* \"#utility.yul\":4029:4035   */\n      0x00\n        /* \"#utility.yul\":4056:4076   */\n      tag_197\n      tag_108\n      jump\t// in\n    tag_197:\n        /* \"#utility.yul\":4046:4076   */\n      swap1\n      pop\n        /* \"#utility.yul\":4085:4118   */\n      tag_198\n        /* \"#utility.yul\":4113:4117   */\n      dup3\n        /* \"#utility.yul\":4105:4111   */\n      dup3\n        /* \"#utility.yul\":4085:4118   */\n      tag_119\n      jump\t// in\n    tag_198:\n        /* \"#utility.yul\":3995:4124   */\n      swap2\n      swap1\n      pop\n      jump\t// out\n        /* \"#utility.yul\":4130:4438   */\n    tag_121:\n        /* \"#utility.yul\":4192:4196   */\n      0x00\n        /* \"#utility.yul\":4282:4300   */\n      0xffffffffffffffff\n        /* \"#utility.yul\":4274:4280   */\n      dup3\n        /* \"#utility.yul\":4271:4301   */\n      gt\n        /* \"#utility.yul\":4268:4324   */\n      iszero\n      tag_200\n      jumpi\n        /* \"#utility.yul\":4304:4322   */\n      tag_201\n      tag_118\n      jump\t// in\n    tag_201:\n        /* \"#utility.yul\":4268:4324   */\n    tag_200:\n        /* \"#utility.yul\":4342:4371   */\n      tag_202\n        /* \"#utility.yul\":4364:4370   */\n      dup3\n        /* \"#utility.yul\":4342:4371   */\n      tag_117\n      jump\t// in\n    tag_202:\n        /* \"#utility.yul\":4334:4371   */\n      swap1\n      pop\n        /* \"#utility.yul\":4426:4430   */\n      0x20\n        /* \"#utility.yul\":4420:4424   */\n      dup2\n        /* \"#utility.yul\":4416:4431   */\n      add\n        /* \"#utility.yul\":4408:4431   */\n      swap1\n      pop\n        /* \"#utility.yul\":4130:4438   */\n      swap2\n      swap1\n      pop\n      jump\t// out\n        /* \"#utility.yul\":4444:4598   */\n    tag_122:\n        /* \"#utility.yul\":4528:4534   */\n      dup3\n        /* \"#utility.yul\":4523:4526   */\n      dup2\n        /* \"#utility.yul\":4518:4521   */\n      dup4\n        /* \"#utility.yul\":4505:4535   */\n      calldatacopy\n        /* \"#utility.yul\":4590:4591   */\n      0x00\n        /* \"#utility.yul\":4581:4587   */\n      dup4\n        /* \"#utility.yul\":4576:4579   */\n      dup4\n        /* \"#utility.yul\":4572:4588   */\n      add\n        /* \"#utility.yul\":4565:4592   */\n      mstore\n        /* \"#utility.yul\":4444:4598   */\n      pop\n      pop\n      pop\n      jump\t// out\n        /* \"#utility.yul\":4604:5016   */\n    tag_123:\n        /* \"#utility.yul\":4682:4687   */\n      0x00\n        /* \"#utility.yul\":4707:4773   */\n      tag_205\n        /* \"#utility.yul\":4723:4772   */\n      tag_206\n        /* \"#utility.yul\":4765:4771   */\n      dup5\n        /* \"#utility.yul\":4723:4772   */\n      tag_121\n      jump\t// in\n    tag_206:\n        /* \"#utility.yul\":4707:4773   */\n      tag_120\n      jump\t// in\n    tag_205:\n        /* \"#utility.yul\":4698:4773   */\n      swap1\n      pop\n        /* \"#utility.yul\":4796:4802   */\n      dup3\n        /* \"#utility.yul\":4789:4794   */\n      dup2\n        /* \"#utility.yul\":4782:4803   */\n      mstore\n        /* \"#utility.yul\":4834:4838   */\n      0x20\n        /* \"#utility.yul\":4827:4832   */\n      dup2\n        /* \"#utility.yul\":4823:4839   */\n      add\n        /* \"#utility.yul\":4872:4875   */\n      dup5\n        /* \"#utility.yul\":4863:4869   */\n      dup5\n        /* \"#utility.yul\":4858:4861   */\n      dup5\n        /* \"#utility.yul\":4854:4870   */\n      add\n        /* \"#utility.yul\":4851:4876   */\n      gt\n        /* \"#utility.yul\":4848:4960   */\n      iszero\n      tag_207\n      jumpi\n        /* \"#utility.yul\":4879:4958   */\n      tag_208\n      tag_116\n      jump\t// in\n    tag_208:\n        /* \"#utility.yul\":4848:4960   */\n    tag_207:\n        /* \"#utility.yul\":4969:5010   */\n      tag_209\n        /* \"#utility.yul\":5003:5009   */\n      dup5\n        /* \"#utility.yul\":4998:5001   */\n      dup3\n        /* \"#utility.yul\":4993:4996   */\n      dup6\n        /* \"#utility.yul\":4969:5010   */\n      tag_122\n      jump\t// in\n    tag_209:\n        /* \"#utility.yul\":4688:5016   */\n      pop\n        /* \"#utility.yul\":4604:5016   */\n      swap4\n      swap3\n      pop\n      pop\n      pop\n      jump\t// out\n        /* \"#utility.yul\":5036:5376   */\n    tag_124:\n        /* \"#utility.yul\":5092:5097   */\n      0x00\n        /* \"#utility.yul\":5141:5144   */\n      dup3\n        /* \"#utility.yul\":5134:5138   */\n      0x1f\n        /* \"#utility.yul\":5126:5132   */\n      dup4\n        /* \"#utility.yul\":5122:5139   */\n      add\n        /* \"#utility.yul\":5118:5145   */\n      slt\n        /* \"#utility.yul\":5108:5230   */\n      tag_211\n      jumpi\n        /* \"#utility.yul\":5149:5228   */\n      tag_212\n      tag_115\n      jump\t// in\n    tag_212:\n        /* \"#utility.yul\":5108:5230   */\n    tag_211:\n        /* \"#utility.yul\":5266:5272   */\n      dup2\n        /* \"#utility.yul\":5253:5273   */\n      calldataload\n        /* \"#utility.yul\":5291:5370   */\n      tag_213\n        /* \"#utility.yul\":5366:5369   */\n      dup5\n        /* \"#utility.yul\":5358:5364   */\n      dup3\n        /* \"#utility.yul\":5351:5355   */\n      0x20\n        /* \"#utility.yul\":5343:5349   */\n      dup7\n        /* \"#utility.yul\":5339:5356   */\n      add\n        /* \"#utility.yul\":5291:5370   */\n      tag_123\n      jump\t// in\n    tag_213:\n        /* \"#utility.yul\":5282:5370   */\n      swap2\n      pop\n        /* \"#utility.yul\":5098:5376   */\n      pop\n        /* \"#utility.yul\":5036:5376   */\n      swap3\n      swap2\n      pop\n      pop\n      jump\t// out\n        /* \"#utility.yul\":5382:5459   */\n    tag_125:\n        /* \"#utility.yul\":5419:5426   */\n      0x00\n        /* \"#utility.yul\":5448:5453   */\n      dup2\n        /* \"#utility.yul\":5437:5453   */\n      swap1\n      pop\n        /* \"#utility.yul\":5382:5459   */\n      swap2\n      swap1\n      pop\n      jump\t// out\n        /* \"#utility.yul\":5465:5587   */\n    tag_126:\n        /* \"#utility.yul\":5538:5562   */\n      tag_216\n        /* \"#utility.yul\":5556:5561   */\n      dup2\n        /* \"#utility.yul\":5538:5562   */\n      tag_125\n      jump\t// in\n    tag_216:\n        /* \"#utility.yul\":5531:5536   */\n      dup2\n        /* \"#utility.yul\":5528:5563   */\n      eq\n        /* \"#utility.yul\":5518:5581   */\n      tag_217\n      jumpi\n        /* \"#utility.yul\":5577:5578   */\n      0x00\n        /* \"#utility.yul\":5574:5575   */\n      dup1\n        /* \"#utility.yul\":5567:5579   */\n      revert\n        /* \"#utility.yul\":5518:5581   */\n    tag_217:\n        /* \"#utility.yul\":5465:5587   */\n      pop\n      jump\t// out\n        /* \"#utility.yul\":5593:5732   */\n    tag_127:\n        /* \"#utility.yul\":5639:5644   */\n      0x00\n        /* \"#utility.yul\":5677:5683   */\n      dup2\n        /* \"#utility.yul\":5664:5684   */\n      calldataload\n        /* \"#utility.yul\":5655:5684   */\n      swap1\n      pop\n        /* \"#utility.yul\":5693:5726   */\n      tag_219\n        /* \"#utility.yul\":5720:5725   */\n      dup2\n        /* \"#utility.yul\":5693:5726   */\n      tag_126\n      jump\t// in\n    tag_219:\n        /* \"#utility.yul\":5593:5732   */\n      swap3\n      swap2\n      pop\n      pop\n      jump\t// out\n        /* \"#utility.yul\":5738:7369   */\n    tag_25:\n        /* \"#utility.yul\":5873:5879   */\n      0x00\n        /* \"#utility.yul\":5881:5887   */\n      dup1\n        /* \"#utility.yul\":5889:5895   */\n      0x00\n        /* \"#utility.yul\":5897:5903   */\n      dup1\n        /* \"#utility.yul\":5905:5911   */\n      0x00\n        /* \"#utility.yul\":5954:5957   */\n      0xa0\n        /* \"#utility.yul\":5942:5951   */\n      dup7\n        /* \"#utility.yul\":5933:5940   */\n      dup9\n        /* \"#utility.yul\":5929:5952   */\n      sub\n        /* \"#utility.yul\":5925:5958   */\n      slt\n        /* \"#utility.yul\":5922:6042   */\n      iszero\n      tag_221\n      jumpi\n        /* \"#utility.yul\":5961:6040   */\n      tag_222\n      tag_109\n      jump\t// in\n    tag_222:\n        /* \"#utility.yul\":5922:6042   */\n    tag_221:\n        /* \"#utility.yul\":6109:6110   */\n      0x00\n        /* \"#utility.yul\":6098:6107   */\n      dup7\n        /* \"#utility.yul\":6094:6111   */\n      add\n        /* \"#utility.yul\":6081:6112   */\n      calldataload\n        /* \"#utility.yul\":6139:6157   */\n      0xffffffffffffffff\n        /* \"#utility.yul\":6131:6137   */\n      dup2\n        /* \"#utility.yul\":6128:6158   */\n      gt\n        /* \"#utility.yul\":6125:6242   */\n      iszero\n      tag_223\n      jumpi\n        /* \"#utility.yul\":6161:6240   */\n      tag_224\n      tag_110\n      jump\t// in\n    tag_224:\n        /* \"#utility.yul\":6125:6242   */\n    tag_223:\n        /* \"#utility.yul\":6266:6329   */\n      tag_225\n        /* \"#utility.yul\":6321:6328   */\n      dup9\n        /* \"#utility.yul\":6312:6318   */\n      dup3\n        /* \"#utility.yul\":6301:6310   */\n      dup10\n        /* \"#utility.yul\":6297:6319   */\n      add\n        /* \"#utility.yul\":6266:6329   */\n      tag_124\n      jump\t// in\n    tag_225:\n        /* \"#utility.yul\":6256:6329   */\n      swap6\n      pop\n        /* \"#utility.yul\":6052:6339   */\n      pop\n        /* \"#utility.yul\":6406:6408   */\n      0x20\n        /* \"#utility.yul\":6395:6404   */\n      dup7\n        /* \"#utility.yul\":6391:6409   */\n      add\n        /* \"#utility.yul\":6378:6410   */\n      calldataload\n        /* \"#utility.yul\":6437:6455   */\n      0xffffffffffffffff\n        /* \"#utility.yul\":6429:6435   */\n      dup2\n        /* \"#utility.yul\":6426:6456   */\n      gt\n        /* \"#utility.yul\":6423:6540   */\n      iszero\n      tag_226\n      jumpi\n        /* \"#utility.yul\":6459:6538   */\n      tag_227\n      tag_110\n      jump\t// in\n    tag_227:\n        /* \"#utility.yul\":6423:6540   */\n    tag_226:\n        /* \"#utility.yul\":6564:6627   */\n      tag_228\n        /* \"#utility.yul\":6619:6626   */\n      dup9\n        /* \"#utility.yul\":6610:6616   */\n      dup3\n        /* \"#utility.yul\":6599:6608   */\n      dup10\n        /* \"#utility.yul\":6595:6617   */\n      add\n        /* \"#utility.yul\":6564:6627   */\n      tag_124\n      jump\t// in\n    tag_228:\n        /* \"#utility.yul\":6554:6627   */\n      swap5\n      pop\n        /* \"#utility.yul\":6349:6637   */\n      pop\n        /* \"#utility.yul\":6676:6678   */\n      0x40\n        /* \"#utility.yul\":6702:6755   */\n      tag_229\n        /* \"#utility.yul\":6747:6754   */\n      dup9\n        /* \"#utility.yul\":6738:6744   */\n      dup3\n        /* \"#utility.yul\":6727:6736   */\n      dup10\n        /* \"#utility.yul\":6723:6745   */\n      add\n        /* \"#utility.yul\":6702:6755   */\n      tag_127\n      jump\t// in\n    tag_229:\n        /* \"#utility.yul\":6692:6755   */\n      swap4\n      pop\n        /* \"#utility.yul\":6647:6765   */\n      pop\n        /* \"#utility.yul\":6832:6834   */\n      0x60\n        /* \"#utility.yul\":6821:6830   */\n      dup7\n        /* \"#utility.yul\":6817:6835   */\n      add\n        /* \"#utility.yul\":6804:6836   */\n      calldataload\n        /* \"#utility.yul\":6863:6881   */\n      0xffffffffffffffff\n        /* \"#utility.yul\":6855:6861   */\n      dup2\n        /* \"#utility.yul\":6852:6882   */\n      gt\n        /* \"#utility.yul\":6849:6966   */\n      iszero\n      tag_230\n      jumpi\n        /* \"#utility.yul\":6885:6964   */\n      tag_231\n      tag_110\n      jump\t// in\n    tag_231:\n        /* \"#utility.yul\":6849:6966   */\n    tag_230:\n        /* \"#utility.yul\":6990:7053   */\n      tag_232\n        /* \"#utility.yul\":7045:7052   */\n      dup9\n        /* \"#utility.yul\":7036:7042   */\n      dup3\n        /* \"#utility.yul\":7025:7034   */\n      dup10\n        /* \"#utility.yul\":7021:7043   */\n      add\n        /* \"#utility.yul\":6990:7053   */\n      tag_124\n      jump\t// in\n    tag_232:\n        /* \"#utility.yul\":6980:7053   */\n      swap3\n      pop\n        /* \"#utility.yul\":6775:7063   */\n      pop\n        /* \"#utility.yul\":7130:7133   */\n      0x80\n        /* \"#utility.yul\":7119:7128   */\n      dup7\n        /* \"#utility.yul\":7115:7134   */\n      add\n        /* \"#utility.yul\":7102:7135   */\n      calldataload\n        /* \"#utility.yul\":7162:7180   */\n      0xffffffffffffffff\n        /* \"#utility.yul\":7154:7160   */\n      dup2\n        /* \"#utility.yul\":7151:7181   */\n      gt\n        /* \"#utility.yul\":7148:7265   */\n      iszero\n      tag_233\n      jumpi\n        /* \"#utility.yul\":7184:7263   */\n      tag_234\n      tag_110\n      jump\t// in\n    tag_234:\n        /* \"#utility.yul\":7148:7265   */\n    tag_233:\n        /* \"#utility.yul\":7289:7352   */\n      tag_235\n        /* \"#utility.yul\":7344:7351   */\n      dup9\n        /* \"#utility.yul\":7335:7341   */\n      dup3\n        /* \"#utility.yul\":7324:7333   */\n      dup10\n        /* \"#utility.yul\":7320:7342   */\n      add\n        /* \"#utility.yul\":7289:7352   */\n      tag_124\n      jump\t// in\n    tag_235:\n        /* \"#utility.yul\":7279:7352   */\n      swap2\n      pop\n        /* \"#utility.yul\":7073:7362   */\n      pop\n        /* \"#utility.yul\":5738:7369   */\n      swap3\n      swap6\n      pop\n      swap3\n      swap6\n      swap1\n      swap4\n      pop\n      jump\t// out\n        /* \"#utility.yul\":7375:7465   */\n    tag_128:\n        /* \"#utility.yul\":7409:7416   */\n      0x00\n        /* \"#utility.yul\":7452:7457   */\n      dup2\n        /* \"#utility.yul\":7445:7458   */\n      iszero\n        /* \"#utility.yul\":7438:7459   */\n      iszero\n        /* \"#utility.yul\":7427:7459   */\n      swap1\n      pop\n        /* \"#utility.yul\":7375:7465   */\n      swap2\n      swap1\n      pop\n      jump\t// out\n        /* \"#utility.yul\":7471:7580   */\n    tag_129:\n        /* \"#utility.yul\":7552:7573   */\n      tag_238\n        /* \"#utility.yul\":7567:7572   */\n      dup2\n        /* \"#utility.yul\":7552:7573   */\n      tag_128\n      jump\t// in\n    tag_238:\n        /* \"#utility.yul\":7547:7550   */\n      dup3\n        /* \"#utility.yul\":7540:7574   */\n      mstore\n        /* \"#utility.yul\":7471:7580   */\n      pop\n      pop\n      jump\t// out\n        /* \"#utility.yul\":7586:7796   */\n    tag_35:\n        /* \"#utility.yul\":7673:7677   */\n      0x00\n        /* \"#utility.yul\":7711:7713   */\n      0x20\n        /* \"#utility.yul\":7700:7709   */\n      dup3\n        /* \"#utility.yul\":7696:7714   */\n      add\n        /* \"#utility.yul\":7688:7714   */\n      swap1\n      pop\n        /* \"#utility.yul\":7724:7789   */\n      tag_240\n        /* \"#utility.yul\":7786:7787   */\n      0x00\n        /* \"#utility.yul\":7775:7784   */\n      dup4\n        /* \"#utility.yul\":7771:7788   */\n      add\n        /* \"#utility.yul\":7762:7768   */\n      dup5\n        /* \"#utility.yul\":7724:7789   */\n      tag_129\n      jump\t// in\n    tag_240:\n        /* \"#utility.yul\":7586:7796   */\n      swap3\n      swap2\n      pop\n      pop\n      jump\t// out\n        /* \"#utility.yul\":7802:7920   */\n    tag_130:\n        /* \"#utility.yul\":7889:7913   */\n      tag_242\n        /* \"#utility.yul\":7907:7912   */\n      dup2\n        /* \"#utility.yul\":7889:7913   */\n      tag_112\n      jump\t// in\n    tag_242:\n        /* \"#utility.yul\":7884:7887   */\n      dup3\n        /* \"#utility.yul\":7877:7914   */\n      mstore\n        /* \"#utility.yul\":7802:7920   */\n      pop\n      pop\n      jump\t// out\n        /* \"#utility.yul\":7926:8148   */\n    tag_40:\n        /* \"#utility.yul\":8019:8023   */\n      0x00\n        /* \"#utility.yul\":8057:8059   */\n      0x20\n        /* \"#utility.yul\":8046:8055   */\n      dup3\n        /* \"#utility.yul\":8042:8060   */\n      add\n        /* \"#utility.yul\":8034:8060   */\n      swap1\n      pop\n        /* \"#utility.yul\":8070:8141   */\n      tag_244\n        /* \"#utility.yul\":8138:8139   */\n      0x00\n        /* \"#utility.yul\":8127:8136   */\n      dup4\n        /* \"#utility.yul\":8123:8140   */\n      add\n        /* \"#utility.yul\":8114:8120   */\n      dup5\n        /* \"#utility.yul\":8070:8141   */\n      tag_130\n      jump\t// in\n    tag_244:\n        /* \"#utility.yul\":7926:8148   */\n      swap3\n      swap2\n      pop\n      pop\n      jump\t// out\n        /* \"#utility.yul\":8154:8663   */\n    tag_44:\n        /* \"#utility.yul\":8223:8229   */\n      0x00\n        /* \"#utility.yul\":8272:8274   */\n      0x20\n        /* \"#utility.yul\":8260:8269   */\n      dup3\n        /* \"#utility.yul\":8251:8258   */\n      dup5\n        /* \"#utility.yul\":8247:8270   */\n      sub\n        /* \"#utility.yul\":8243:8275   */\n      slt\n        /* \"#utility.yul\":8240:8359   */\n      iszero\n      tag_246\n      jumpi\n        /* \"#utility.yul\":8278:8357   */\n      tag_247\n      tag_109\n      jump\t// in\n    tag_247:\n        /* \"#utility.yul\":8240:8359   */\n    tag_246:\n        /* \"#utility.yul\":8426:8427   */\n      0x00\n        /* \"#utility.yul\":8415:8424   */\n      dup3\n        /* \"#utility.yul\":8411:8428   */\n      add\n        /* \"#utility.yul\":8398:8429   */\n      calldataload\n        /* \"#utility.yul\":8456:8474   */\n      0xffffffffffffffff\n        /* \"#utility.yul\":8448:8454   */\n      dup2\n        /* \"#utility.yul\":8445:8475   */\n      gt\n        /* \"#utility.yul\":8442:8559   */\n      iszero\n      tag_248\n      jumpi\n        /* \"#utility.yul\":8478:8557   */\n      tag_249\n      tag_110\n      jump\t// in\n    tag_249:\n        /* \"#utility.yul\":8442:8559   */\n    tag_248:\n        /* \"#utility.yul\":8583:8646   */\n      tag_250\n        /* \"#utility.yul\":8638:8645   */\n      dup5\n        /* \"#utility.yul\":8629:8635   */\n      dup3\n        /* \"#utility.yul\":8618:8627   */\n      dup6\n        /* \"#utility.yul\":8614:8636   */\n      add\n        /* \"#utility.yul\":8583:8646   */\n      tag_124\n      jump\t// in\n    tag_250:\n        /* \"#utility.yul\":8573:8646   */\n      swap2\n      pop\n        /* \"#utility.yul\":8369:8656   */\n      pop\n        /* \"#utility.yul\":8154:8663   */\n      swap3\n      swap2\n      pop\n      pop\n      jump\t// out\n        /* \"#utility.yul\":8669:8787   */\n    tag_131:\n        /* \"#utility.yul\":8756:8780   */\n      tag_252\n        /* \"#utility.yul\":8774:8779   */\n      dup2\n        /* \"#utility.yul\":8756:8780   */\n      tag_125\n      jump\t// in\n    tag_252:\n        /* \"#utility.yul\":8751:8754   */\n      dup3\n        /* \"#utility.yul\":8744:8781   */\n      mstore\n        /* \"#utility.yul\":8669:8787   */\n      pop\n      pop\n      jump\t// out\n        /* \"#utility.yul\":8793:9015   */\n    tag_54:\n        /* \"#utility.yul\":8886:8890   */\n      0x00\n        /* \"#utility.yul\":8924:8926   */\n      0x20\n        /* \"#utility.yul\":8913:8922   */\n      dup3\n        /* \"#utility.yul\":8909:8927   */\n      add\n        /* \"#utility.yul\":8901:8927   */\n      swap1\n      pop\n        /* \"#utility.yul\":8937:9008   */\n      tag_254\n        /* \"#utility.yul\":9005:9006   */\n      0x00\n        /* \"#utility.yul\":8994:9003   */\n      dup4\n        /* \"#utility.yul\":8990:9007   */\n      add\n        /* \"#utility.yul\":8981:8987   */\n      dup5\n        /* \"#utility.yul\":8937:9008   */\n      tag_131\n      jump\t// in\n    tag_254:\n        /* \"#utility.yul\":8793:9015   */\n      swap3\n      swap2\n      pop\n      pop\n      jump\t// out\n        /* \"#utility.yul\":9021:9675   */\n    tag_58:\n        /* \"#utility.yul\":9099:9105   */\n      0x00\n        /* \"#utility.yul\":9107:9113   */\n      dup1\n        /* \"#utility.yul\":9156:9158   */\n      0x40\n        /* \"#utility.yul\":9144:9153   */\n      dup4\n        /* \"#utility.yul\":9135:9142   */\n      dup6\n        /* \"#utility.yul\":9131:9154   */\n      sub\n        /* \"#utility.yul\":9127:9159   */\n      slt\n        /* \"#utility.yul\":9124:9243   */\n      iszero\n      tag_256\n      jumpi\n        /* \"#utility.yul\":9162:9241   */\n      tag_257\n      tag_109\n      jump\t// in\n    tag_257:\n        /* \"#utility.yul\":9124:9243   */\n    tag_256:\n        /* \"#utility.yul\":9310:9311   */\n      0x00\n        /* \"#utility.yul\":9299:9308   */\n      dup4\n        /* \"#utility.yul\":9295:9312   */\n      add\n        /* \"#utility.yul\":9282:9313   */\n      calldataload\n        /* \"#utility.yul\":9340:9358   */\n      0xffffffffffffffff\n        /* \"#utility.yul\":9332:9338   */\n      dup2\n        /* \"#utility.yul\":9329:9359   */\n      gt\n        /* \"#utility.yul\":9326:9443   */\n      iszero\n      tag_258\n      jumpi\n        /* \"#utility.yul\":9362:9441   */\n      tag_259\n      tag_110\n      jump\t// in\n    tag_259:\n        /* \"#utility.yul\":9326:9443   */\n    tag_258:\n        /* \"#utility.yul\":9467:9530   */\n      tag_260\n        /* \"#utility.yul\":9522:9529   */\n      dup6\n        /* \"#utility.yul\":9513:9519   */\n      dup3\n        /* \"#utility.yul\":9502:9511   */\n      dup7\n        /* \"#utility.yul\":9498:9520   */\n      add\n        /* \"#utility.yul\":9467:9530   */\n      tag_124\n      jump\t// in\n    tag_260:\n        /* \"#utility.yul\":9457:9530   */\n      swap3\n      pop\n        /* \"#utility.yul\":9253:9540   */\n      pop\n        /* \"#utility.yul\":9579:9581   */\n      0x20\n        /* \"#utility.yul\":9605:9658   */\n      tag_261\n        /* \"#utility.yul\":9650:9657   */\n      dup6\n        /* \"#utility.yul\":9641:9647   */\n      dup3\n        /* \"#utility.yul\":9630:9639   */\n      dup7\n        /* \"#utility.yul\":9626:9648   */\n      add\n        /* \"#utility.yul\":9605:9658   */\n      tag_114\n      jump\t// in\n    tag_261:\n        /* \"#utility.yul\":9595:9658   */\n      swap2\n      pop\n        /* \"#utility.yul\":9550:9668   */\n      pop\n        /* \"#utility.yul\":9021:9675   */\n      swap3\n      pop\n      swap3\n      swap1\n      pop\n      jump\t// out\n        /* \"#utility.yul\":9681:9850   */\n    tag_132:\n        /* \"#utility.yul\":9765:9776   */\n      0x00\n        /* \"#utility.yul\":9799:9805   */\n      dup3\n        /* \"#utility.yul\":9794:9797   */\n      dup3\n        /* \"#utility.yul\":9787:9806   */\n      mstore\n        /* \"#utility.yul\":9839:9843   */\n      0x20\n        /* \"#utility.yul\":9834:9837   */\n      dup3\n        /* \"#utility.yul\":9830:9844   */\n      add\n        /* \"#utility.yul\":9815:9844   */\n      swap1\n      pop\n        /* \"#utility.yul\":9681:9850   */\n      swap3\n      swap2\n      pop\n      pop\n      jump\t// out\n        /* \"#utility.yul\":9856:10038   */\n    tag_133:\n        /* \"#utility.yul\":9996:10030   */\n      0x4f776e61626c653a2063616c6c6572206973206e6f7420746865206f776e6572\n        /* \"#utility.yul\":9992:9993   */\n      0x00\n        /* \"#utility.yul\":9984:9990   */\n      dup3\n        /* \"#utility.yul\":9980:9994   */\n      add\n        /* \"#utility.yul\":9973:10031   */\n      mstore\n        /* \"#utility.yul\":9856:10038   */\n      pop\n      jump\t// out\n        /* \"#utility.yul\":10044:10410   */\n    tag_134:\n        /* \"#utility.yul\":10186:10189   */\n      0x00\n        /* \"#utility.yul\":10207:10274   */\n      tag_265\n        /* \"#utility.yul\":10271:10273   */\n      0x20\n        /* \"#utility.yul\":10266:10269   */\n      dup4\n        /* \"#utility.yul\":10207:10274   */\n      tag_132\n      jump\t// in\n    tag_265:\n        /* \"#utility.yul\":10200:10274   */\n      swap2\n      pop\n        /* \"#utility.yul\":10283:10376   */\n      tag_266\n        /* \"#utility.yul\":10372:10375   */\n      dup3\n        /* \"#utility.yul\":10283:10376   */\n      tag_133\n      jump\t// in\n    tag_266:\n        /* \"#utility.yul\":10401:10403   */\n      0x20\n        /* \"#utility.yul\":10396:10399   */\n      dup3\n        /* \"#utility.yul\":10392:10404   */\n      add\n        /* \"#utility.yul\":10385:10404   */\n      swap1\n      pop\n        /* \"#utility.yul\":10044:10410   */\n      swap2\n      swap1\n      pop\n      jump\t// out\n        /* \"#utility.yul\":10416:10835   */\n    tag_64:\n        /* \"#utility.yul\":10582:10586   */\n      0x00\n        /* \"#utility.yul\":10620:10622   */\n      0x20\n        /* \"#utility.yul\":10609:10618   */\n      dup3\n        /* \"#utility.yul\":10605:10623   */\n      add\n        /* \"#utility.yul\":10597:10623   */\n      swap1\n      pop\n        /* \"#utility.yul\":10669:10678   */\n      dup2\n        /* \"#utility.yul\":10663:10667   */\n      dup2\n        /* \"#utility.yul\":10659:10679   */\n      sub\n        /* \"#utility.yul\":10655:10656   */\n      0x00\n        /* \"#utility.yul\":10644:10653   */\n      dup4\n        /* \"#utility.yul\":10640:10657   */\n      add\n        /* \"#utility.yul\":10633:10680   */\n      mstore\n        /* \"#utility.yul\":10697:10828   */\n      tag_268\n        /* \"#utility.yul\":10823:10827   */\n      dup2\n        /* \"#utility.yul\":10697:10828   */\n      tag_134\n      jump\t// in\n    tag_268:\n        /* \"#utility.yul\":10689:10828   */\n      swap1\n      pop\n        /* \"#utility.yul\":10416:10835   */\n      swap2\n      swap1\n      pop\n      jump\t// out\n        /* \"#utility.yul\":10841:10940   */\n    tag_135:\n        /* \"#utility.yul\":10893:10899   */\n      0x00\n        /* \"#utility.yul\":10927:10932   */\n      dup2\n        /* \"#utility.yul\":10921:10933   */\n      mload\n        /* \"#utility.yul\":10911:10933   */\n      swap1\n      pop\n        /* \"#utility.yul\":10841:10940   */\n      swap2\n      swap1\n      pop\n      jump\t// out\n        /* \"#utility.yul\":10946:11253   */\n    tag_136:\n        /* \"#utility.yul\":11014:11015   */\n      0x00\n        /* \"#utility.yul\":11024:11137   */\n    tag_271:\n        /* \"#utility.yul\":11038:11044   */\n      dup4\n        /* \"#utility.yul\":11035:11036   */\n      dup2\n        /* \"#utility.yul\":11032:11045   */\n      lt\n        /* \"#utility.yul\":11024:11137   */\n      iszero\n      tag_273\n      jumpi\n        /* \"#utility.yul\":11123:11124   */\n      dup1\n        /* \"#utility.yul\":11118:11121   */\n      dup3\n        /* \"#utility.yul\":11114:11125   */\n      add\n        /* \"#utility.yul\":11108:11126   */\n      mload\n        /* \"#utility.yul\":11104:11105   */\n      dup2\n        /* \"#utility.yul\":11099:11102   */\n      dup5\n        /* \"#utility.yul\":11095:11106   */\n      add\n        /* \"#utility.yul\":11088:11127   */\n      mstore\n        /* \"#utility.yul\":11060:11062   */\n      0x20\n        /* \"#utility.yul\":11057:11058   */\n      dup2\n        /* \"#utility.yul\":11053:11063   */\n      add\n        /* \"#utility.yul\":11048:11063   */\n      swap1\n      pop\n        /* \"#utility.yul\":11024:11137   */\n      jump(tag_271)\n    tag_273:\n        /* \"#utility.yul\":11155:11161   */\n      dup4\n        /* \"#utility.yul\":11152:11153   */\n      dup2\n        /* \"#utility.yul\":11149:11162   */\n      gt\n        /* \"#utility.yul\":11146:11247   */\n      iszero\n      tag_274\n      jumpi\n        /* \"#utility.yul\":11235:11236   */\n      0x00\n        /* \"#utility.yul\":11226:11232   */\n      dup5\n        /* \"#utility.yul\":11221:11224   */\n      dup5\n        /* \"#utility.yul\":11217:11233   */\n      add\n        /* \"#utility.yul\":11210:11237   */\n      mstore\n        /* \"#utility.yul\":11146:11247   */\n    tag_274:\n        /* \"#utility.yul\":10995:11253   */\n      pop\n        /* \"#utility.yul\":10946:11253   */\n      pop\n      pop\n      pop\n      jump\t// out\n        /* \"#utility.yul\":11259:11636   */\n    tag_137:\n        /* \"#utility.yul\":11365:11368   */\n      0x00\n        /* \"#utility.yul\":11393:11432   */\n      tag_276\n        /* \"#utility.yul\":11426:11431   */\n      dup3\n        /* \"#utility.yul\":11393:11432   */\n      tag_135\n      jump\t// in\n    tag_276:\n        /* \"#utility.yul\":11448:11537   */\n      tag_277\n        /* \"#utility.yul\":11530:11536   */\n      dup2\n        /* \"#utility.yul\":11525:11528   */\n      dup6\n        /* \"#utility.yul\":11448:11537   */\n      tag_105\n      jump\t// in\n    tag_277:\n        /* \"#utility.yul\":11441:11537   */\n      swap4\n      pop\n        /* \"#utility.yul\":11546:11598   */\n      tag_278\n        /* \"#utility.yul\":11591:11597   */\n      dup2\n        /* \"#utility.yul\":11586:11589   */\n      dup6\n        /* \"#utility.yul\":11579:11583   */\n      0x20\n        /* \"#utility.yul\":11572:11577   */\n      dup7\n        /* \"#utility.yul\":11568:11584   */\n      add\n        /* \"#utility.yul\":11546:11598   */\n      tag_136\n      jump\t// in\n    tag_278:\n        /* \"#utility.yul\":11623:11629   */\n      dup1\n        /* \"#utility.yul\":11618:11621   */\n      dup5\n        /* \"#utility.yul\":11614:11630   */\n      add\n        /* \"#utility.yul\":11607:11630   */\n      swap2\n      pop\n        /* \"#utility.yul\":11369:11636   */\n      pop\n        /* \"#utility.yul\":11259:11636   */\n      swap3\n      swap2\n      pop\n      pop\n      jump\t// out\n        /* \"#utility.yul\":11642:11917   */\n    tag_69:\n        /* \"#utility.yul\":11774:11777   */\n      0x00\n        /* \"#utility.yul\":11796:11891   */\n      tag_280\n        /* \"#utility.yul\":11887:11890   */\n      dup3\n        /* \"#utility.yul\":11878:11884   */\n      dup5\n        /* \"#utility.yul\":11796:11891   */\n      tag_137\n      jump\t// in\n    tag_280:\n        /* \"#utility.yul\":11789:11891   */\n      swap2\n      pop\n        /* \"#utility.yul\":11908:11911   */\n      dup2\n        /* \"#utility.yul\":11901:11911   */\n      swap1\n      pop\n        /* \"#utility.yul\":11642:11917   */\n      swap3\n      swap2\n      pop\n      pop\n      jump\t// out\n        /* \"#utility.yul\":11923:12287   */\n    tag_138:\n        /* \"#utility.yul\":12011:12014   */\n      0x00\n        /* \"#utility.yul\":12039:12078   */\n      tag_282\n        /* \"#utility.yul\":12072:12077   */\n      dup3\n        /* \"#utility.yul\":12039:12078   */\n      tag_135\n      jump\t// in\n    tag_282:\n        /* \"#utility.yul\":12094:12165   */\n      tag_283\n        /* \"#utility.yul\":12158:12164   */\n      dup2\n        /* \"#utility.yul\":12153:12156   */\n      dup6\n        /* \"#utility.yul\":12094:12165   */\n      tag_132\n      jump\t// in\n    tag_283:\n        /* \"#utility.yul\":12087:12165   */\n      swap4\n      pop\n        /* \"#utility.yul\":12174:12226   */\n      tag_284\n        /* \"#utility.yul\":12219:12225   */\n      dup2\n        /* \"#utility.yul\":12214:12217   */\n      dup6\n        /* \"#utility.yul\":12207:12211   */\n      0x20\n        /* \"#utility.yul\":12200:12205   */\n      dup7\n        /* \"#utility.yul\":12196:12212   */\n      add\n        /* \"#utility.yul\":12174:12226   */\n      tag_136\n      jump\t// in\n    tag_284:\n        /* \"#utility.yul\":12251:12280   */\n      tag_285\n        /* \"#utility.yul\":12273:12279   */\n      dup2\n        /* \"#utility.yul\":12251:12280   */\n      tag_117\n      jump\t// in\n    tag_285:\n        /* \"#utility.yul\":12246:12249   */\n      dup5\n        /* \"#utility.yul\":12242:12281   */\n      add\n        /* \"#utility.yul\":12235:12281   */\n      swap2\n      pop\n        /* \"#utility.yul\":12015:12287   */\n      pop\n        /* \"#utility.yul\":11923:12287   */\n      swap3\n      swap2\n      pop\n      pop\n      jump\t// out\n        /* \"#utility.yul\":12293:13321   */\n    tag_71:\n        /* \"#utility.yul\":12578:12582   */\n      0x00\n        /* \"#utility.yul\":12616:12619   */\n      0xa0\n        /* \"#utility.yul\":12605:12614   */\n      dup3\n        /* \"#utility.yul\":12601:12620   */\n      add\n        /* \"#utility.yul\":12593:12620   */\n      swap1\n      pop\n        /* \"#utility.yul\":12666:12675   */\n      dup2\n        /* \"#utility.yul\":12660:12664   */\n      dup2\n        /* \"#utility.yul\":12656:12676   */\n      sub\n        /* \"#utility.yul\":12652:12653   */\n      0x00\n        /* \"#utility.yul\":12641:12650   */\n      dup4\n        /* \"#utility.yul\":12637:12654   */\n      add\n        /* \"#utility.yul\":12630:12677   */\n      mstore\n        /* \"#utility.yul\":12694:12772   */\n      tag_287\n        /* \"#utility.yul\":12767:12771   */\n      dup2\n        /* \"#utility.yul\":12758:12764   */\n      dup9\n        /* \"#utility.yul\":12694:12772   */\n      tag_138\n      jump\t// in\n    tag_287:\n        /* \"#utility.yul\":12686:12772   */\n      swap1\n      pop\n        /* \"#utility.yul\":12819:12828   */\n      dup2\n        /* \"#utility.yul\":12813:12817   */\n      dup2\n        /* \"#utility.yul\":12809:12829   */\n      sub\n        /* \"#utility.yul\":12804:12806   */\n      0x20\n        /* \"#utility.yul\":12793:12802   */\n      dup4\n        /* \"#utility.yul\":12789:12807   */\n      add\n        /* \"#utility.yul\":12782:12830   */\n      mstore\n        /* \"#utility.yul\":12847:12925   */\n      tag_288\n        /* \"#utility.yul\":12920:12924   */\n      dup2\n        /* \"#utility.yul\":12911:12917   */\n      dup8\n        /* \"#utility.yul\":12847:12925   */\n      tag_138\n      jump\t// in\n    tag_288:\n        /* \"#utility.yul\":12839:12925   */\n      swap1\n      pop\n        /* \"#utility.yul\":12935:13007   */\n      tag_289\n        /* \"#utility.yul\":13003:13005   */\n      0x40\n        /* \"#utility.yul\":12992:13001   */\n      dup4\n        /* \"#utility.yul\":12988:13006   */\n      add\n        /* \"#utility.yul\":12979:12985   */\n      dup7\n        /* \"#utility.yul\":12935:13007   */\n      tag_131\n      jump\t// in\n    tag_289:\n        /* \"#utility.yul\":13054:13063   */\n      dup2\n        /* \"#utility.yul\":13048:13052   */\n      dup2\n        /* \"#utility.yul\":13044:13064   */\n      sub\n        /* \"#utility.yul\":13039:13041   */\n      0x60\n        /* \"#utility.yul\":13028:13037   */\n      dup4\n        /* \"#utility.yul\":13024:13042   */\n      add\n        /* \"#utility.yul\":13017:13065   */\n      mstore\n        /* \"#utility.yul\":13082:13160   */\n      tag_290\n        /* \"#utility.yul\":13155:13159   */\n      dup2\n        /* \"#utility.yul\":13146:13152   */\n      dup6\n        /* \"#utility.yul\":13082:13160   */\n      tag_138\n      jump\t// in\n    tag_290:\n        /* \"#utility.yul\":13074:13160   */\n      swap1\n      pop\n        /* \"#utility.yul\":13208:13217   */\n      dup2\n        /* \"#utility.yul\":13202:13206   */\n      dup2\n        /* \"#utility.yul\":13198:13218   */\n      sub\n        /* \"#utility.yul\":13192:13195   */\n      0x80\n        /* \"#utility.yul\":13181:13190   */\n      dup4\n        /* \"#utility.yul\":13177:13196   */\n      add\n        /* \"#utility.yul\":13170:13219   */\n      mstore\n        /* \"#utility.yul\":13236:13314   */\n      tag_291\n        /* \"#utility.yul\":13309:13313   */\n      dup2\n        /* \"#utility.yul\":13300:13306   */\n      dup5\n        /* \"#utility.yul\":13236:13314   */\n      tag_138\n      jump\t// in\n    tag_291:\n        /* \"#utility.yul\":13228:13314   */\n      swap1\n      pop\n        /* \"#utility.yul\":12293:13321   */\n      swap7\n      swap6\n      pop\n      pop\n      pop\n      pop\n      pop\n      pop\n      jump\t// out\n        /* \"#utility.yul\":13327:13659   */\n    tag_79:\n        /* \"#utility.yul\":13448:13452   */\n      0x00\n        /* \"#utility.yul\":13486:13488   */\n      0x40\n        /* \"#utility.yul\":13475:13484   */\n      dup3\n        /* \"#utility.yul\":13471:13489   */\n      add\n        /* \"#utility.yul\":13463:13489   */\n      swap1\n      pop\n        /* \"#utility.yul\":13499:13570   */\n      tag_293\n        /* \"#utility.yul\":13567:13568   */\n      0x00\n        /* \"#utility.yul\":13556:13565   */\n      dup4\n        /* \"#utility.yul\":13552:13569   */\n      add\n        /* \"#utility.yul\":13543:13549   */\n      dup6\n        /* \"#utility.yul\":13499:13570   */\n      tag_130\n      jump\t// in\n    tag_293:\n        /* \"#utility.yul\":13580:13652   */\n      tag_294\n        /* \"#utility.yul\":13648:13650   */\n      0x20\n        /* \"#utility.yul\":13637:13646   */\n      dup4\n        /* \"#utility.yul\":13633:13651   */\n      add\n        /* \"#utility.yul\":13624:13630   */\n      dup5\n        /* \"#utility.yul\":13580:13652   */\n      tag_131\n      jump\t// in\n    tag_294:\n        /* \"#utility.yul\":13327:13659   */\n      swap4\n      swap3\n      pop\n      pop\n      pop\n      jump\t// out\n        /* \"#utility.yul\":13665:13758   */\n    tag_139:\n        /* \"#utility.yul\":13702:13708   */\n      0x00\n        /* \"#utility.yul\":13749:13751   */\n      0x20\n        /* \"#utility.yul\":13744:13746   */\n      0x1f\n        /* \"#utility.yul\":13737:13742   */\n      dup4\n        /* \"#utility.yul\":13733:13747   */\n      add\n        /* \"#utility.yul\":13729:13752   */\n      div\n        /* \"#utility.yul\":13719:13752   */\n      swap1\n      pop\n        /* \"#utility.yul\":13665:13758   */\n      swap2\n      swap1\n      pop\n      jump\t// out\n        /* \"#utility.yul\":13764:13871   */\n    tag_140:\n        /* \"#utility.yul\":13808:13816   */\n      0x00\n        /* \"#utility.yul\":13858:13863   */\n      dup3\n        /* \"#utility.yul\":13852:13856   */\n      dup3\n        /* \"#utility.yul\":13848:13864   */\n      shl\n        /* \"#utility.yul\":13827:13864   */\n      swap1\n      pop\n        /* \"#utility.yul\":13764:13871   */\n      swap3\n      swap2\n      pop\n      pop\n      jump\t// out\n        /* \"#utility.yul\":13877:14270   */\n    tag_141:\n        /* \"#utility.yul\":13946:13952   */\n      0x00\n        /* \"#utility.yul\":13996:13997   */\n      0x08\n        /* \"#utility.yul\":13984:13994   */\n      dup4\n        /* \"#utility.yul\":13980:13998   */\n      mul\n        /* \"#utility.yul\":14019:14116   */\n      tag_298\n        /* \"#utility.yul\":14049:14115   */\n      0xffffffffffffffffffffffffffffffffffffffffffffffffffffffffffffffff\n        /* \"#utility.yul\":14038:14047   */\n      dup3\n        /* \"#utility.yul\":14019:14116   */\n      tag_140\n      jump\t// in\n    tag_298:\n        /* \"#utility.yul\":14137:14176   */\n      tag_299\n        /* \"#utility.yul\":14167:14175   */\n      dup7\n        /* \"#utility.yul\":14156:14165   */\n      dup4\n        /* \"#utility.yul\":14137:14176   */\n      tag_140\n      jump\t// in\n    tag_299:\n        /* \"#utility.yul\":14125:14176   */\n      swap6\n      pop\n        /* \"#utility.yul\":14209:14213   */\n      dup1\n        /* \"#utility.yul\":14205:14214   */\n      not\n        /* \"#utility.yul\":14198:14203   */\n      dup5\n        /* \"#utility.yul\":14194:14215   */\n      and\n        /* \"#utility.yul\":14185:14215   */\n      swap4\n      pop\n        /* \"#utility.yul\":14258:14262   */\n      dup1\n        /* \"#utility.yul\":14248:14256   */\n      dup7\n        /* \"#utility.yul\":14244:14263   */\n      and\n        /* \"#utility.yul\":14237:14242   */\n      dup5\n        /* \"#utility.yul\":14234:14264   */\n      or\n        /* \"#utility.yul\":14224:14264   */\n      swap3\n      pop\n        /* \"#utility.yul\":13953:14270   */\n      pop\n      pop\n        /* \"#utility.yul\":13877:14270   */\n      swap4\n      swap3\n      pop\n      pop\n      pop\n      jump\t// out\n        /* \"#utility.yul\":14276:14336   */\n    tag_142:\n        /* \"#utility.yul\":14304:14307   */\n      0x00\n        /* \"#utility.yul\":14325:14330   */\n      dup2\n        /* \"#utility.yul\":14318:14330   */\n      swap1\n      pop\n        /* \"#utility.yul\":14276:14336   */\n      swap2\n      swap1\n      pop\n      jump\t// out\n        /* \"#utility.yul\":14342:14484   */\n    tag_143:\n        /* \"#utility.yul\":14392:14401   */\n      0x00\n        /* \"#utility.yul\":14425:14478   */\n      tag_302\n        /* \"#utility.yul\":14443:14477   */\n      tag_303\n        /* \"#utility.yul\":14452:14476   */\n      tag_304\n        /* \"#utility.yul\":14470:14475   */\n      dup5\n        /* \"#utility.yul\":14452:14476   */\n      tag_125\n      jump\t// in\n    tag_304:\n        /* \"#utility.yul\":14443:14477   */\n      tag_142\n      jump\t// in\n    tag_303:\n        /* \"#utility.yul\":14425:14478   */\n      tag_125\n      jump\t// in\n    tag_302:\n        /* \"#utility.yul\":14412:14478   */\n      swap1\n      pop\n        /* \"#utility.yul\":14342:14484   */\n      swap2\n      swap1\n      pop\n      jump\t// out\n        /* \"#utility.yul\":14490:14565   */\n    tag_144:\n        /* \"#utility.yul\":14533:14536   */\n      0x00\n        /* \"#utility.yul\":14554:14559   */\n      dup2\n        /* \"#utility.yul\":14547:14559   */\n      swap1\n      pop\n        /* \"#utility.yul\":14490:14565   */\n      swap2\n      swap1\n      pop\n      jump\t// out\n        /* \"#utility.yul\":14571:14840   */\n    tag_145:\n        /* \"#utility.yul\":14681:14720   */\n      tag_307\n        /* \"#utility.yul\":14712:14719   */\n      dup4\n        /* \"#utility.yul\":14681:14720   */\n      tag_143\n      jump\t// in\n    tag_307:\n        /* \"#utility.yul\":14742:14833   */\n      tag_308\n        /* \"#utility.yul\":14791:14832   */\n      tag_309\n        /* \"#utility.yul\":14815:14831   */\n      dup3\n        /* \"#utility.yul\":14791:14832   */\n      tag_144\n      jump\t// in\n    tag_309:\n        /* \"#utility.yul\":14783:14789   */\n      dup5\n        /* \"#utility.yul\":14776:14780   */\n      dup5\n        /* \"#utility.yul\":14770:14781   */\n      sload\n        /* \"#utility.yul\":14742:14833   */\n      tag_141\n      jump\t// in\n    tag_308:\n        /* \"#utility.yul\":14736:14740   */\n      dup3\n        /* \"#utility.yul\":14729:14834   */\n      sstore\n        /* \"#utility.yul\":14647:14840   */\n      pop\n        /* \"#utility.yul\":14571:14840   */\n      pop\n      pop\n      pop\n      jump\t// out\n        /* \"#utility.yul\":14846:14919   */\n    tag_146:\n        /* \"#utility.yul\":14891:14894   */\n      0x00\n        /* \"#utility.yul\":14846:14919   */\n      swap1\n      jump\t// out\n        /* \"#utility.yul\":14925:15114   */\n    tag_147:\n        /* \"#utility.yul\":15002:15034   */\n      tag_312\n      tag_146\n      jump\t// in\n    tag_312:\n        /* \"#utility.yul\":15043:15108   */\n      tag_313\n        /* \"#utility.yul\":15101:15107   */\n      dup2\n        /* \"#utility.yul\":15093:15099   */\n      dup5\n        /* \"#utility.yul\":15087:15091   */\n      dup5\n        /* \"#utility.yul\":15043:15108   */\n      tag_145\n      jump\t// in\n    tag_313:\n        /* \"#utility.yul\":14978:15114   */\n      pop\n        /* \"#utility.yul\":14925:15114   */\n      pop\n      pop\n      jump\t// out\n        /* \"#utility.yul\":15120:15306   */\n    tag_148:\n        /* \"#utility.yul\":15180:15300   */\n    tag_315:\n        /* \"#utility.yul\":15197:15200   */\n      dup2\n        /* \"#utility.yul\":15190:15195   */\n      dup2\n        /* \"#utility.yul\":15187:15201   */\n      lt\n        /* \"#utility.yul\":15180:15300   */\n      iszero\n      tag_317\n      jumpi\n        /* \"#utility.yul\":15251:15290   */\n      tag_318\n        /* \"#utility.yul\":15288:15289   */\n      0x00\n        /* \"#utility.yul\":15281:15286   */\n      dup3\n        /* \"#utility.yul\":15251:15290   */\n      tag_147\n      jump\t// in\n    tag_318:\n        /* \"#utility.yul\":15224:15225   */\n      0x01\n        /* \"#utility.yul\":15217:15222   */\n      dup2\n        /* \"#utility.yul\":15213:15226   */\n      add\n        /* \"#utility.yul\":15204:15226   */\n      swap1\n      pop\n        /* \"#utility.yul\":15180:15300   */\n      jump(tag_315)\n    tag_317:\n        /* \"#utility.yul\":15120:15306   */\n      pop\n      pop\n      jump\t// out\n        /* \"#utility.yul\":15312:15855   */\n    tag_149:\n        /* \"#utility.yul\":15413:15415   */\n      0x1f\n        /* \"#utility.yul\":15408:15411   */\n      dup3\n        /* \"#utility.yul\":15405:15416   */\n      gt\n        /* \"#utility.yul\":15402:15848   */\n      iszero\n      tag_320\n      jumpi\n        /* \"#utility.yul\":15447:15485   */\n      tag_321\n        /* \"#utility.yul\":15479:15484   */\n      dup2\n        /* \"#utility.yul\":15447:15485   */\n      tag_106\n      jump\t// in\n    tag_321:\n        /* \"#utility.yul\":15531:15560   */\n      tag_322\n        /* \"#utility.yul\":15549:15559   */\n      dup5\n        /* \"#utility.yul\":15531:15560   */\n      tag_139\n      jump\t// in\n    tag_322:\n        /* \"#utility.yul\":15521:15529   */\n      dup2\n        /* \"#utility.yul\":15517:15561   */\n      add\n        /* \"#utility.yul\":15714:15716   */\n      0x20\n        /* \"#utility.yul\":15702:15712   */\n      dup6\n        /* \"#utility.yul\":15699:15717   */\n      lt\n        /* \"#utility.yul\":15696:15745   */\n      iszero\n      tag_323\n      jumpi\n        /* \"#utility.yul\":15735:15743   */\n      dup2\n        /* \"#utility.yul\":15720:15743   */\n      swap1\n      pop\n        /* \"#utility.yul\":15696:15745   */\n    tag_323:\n        /* \"#utility.yul\":15758:15838   */\n      tag_324\n        /* \"#utility.yul\":15814:15836   */\n      tag_325\n        /* \"#utility.yul\":15832:15835   */\n      dup6\n        /* \"#utility.yul\":15814:15836   */\n      tag_139\n      jump\t// in\n    tag_325:\n        /* \"#utility.yul\":15804:15812   */\n      dup4\n        /* \"#utility.yul\":15800:15837   */\n      add\n        /* \"#utility.yul\":15787:15798   */\n      dup3\n        /* \"#utility.yul\":15758:15838   */\n      tag_148\n      jump\t// in\n    tag_324:\n        /* \"#utility.yul\":15417:15848   */\n      pop\n      pop\n        /* \"#utility.yul\":15402:15848   */\n    tag_320:\n        /* \"#utility.yul\":15312:15855   */\n      pop\n      pop\n      pop\n      jump\t// out\n        /* \"#utility.yul\":15861:15978   */\n    tag_150:\n        /* \"#utility.yul\":15915:15923   */\n      0x00\n        /* \"#utility.yul\":15965:15970   */\n      dup3\n        /* \"#utility.yul\":15959:15963   */\n      dup3\n        /* \"#utility.yul\":15955:15971   */\n      shr\n        /* \"#utility.yul\":15934:15971   */\n      swap1\n      pop\n        /* \"#utility.yul\":15861:15978   */\n      swap3\n      swap2\n      pop\n      pop\n      jump\t// out\n        /* \"#utility.yul\":15984:16153   */\n    tag_151:\n        /* \"#utility.yul\":16028:16034   */\n      0x00\n        /* \"#utility.yul\":16061:16112   */\n      tag_328\n        /* \"#utility.yul\":16109:16110   */\n      0x00\n        /* \"#utility.yul\":16105:16111   */\n      not\n        /* \"#utility.yul\":16097:16102   */\n      dup5\n        /* \"#utility.yul\":16094:16095   */\n      0x08\n        /* \"#utility.yul\":16090:16103   */\n      mul\n        /* \"#utility.yul\":16061:16112   */\n      tag_150\n      jump\t// in\n    tag_328:\n        /* \"#utility.yul\":16057:16113   */\n      not\n        /* \"#utility.yul\":16142:16146   */\n      dup1\n        /* \"#utility.yul\":16136:16140   */\n      dup4\n        /* \"#utility.yul\":16132:16147   */\n      and\n        /* \"#utility.yul\":16122:16147   */\n      swap2\n      pop\n        /* \"#utility.yul\":16035:16153   */\n      pop\n        /* \"#utility.yul\":15984:16153   */\n      swap3\n      swap2\n      pop\n      pop\n      jump\t// out\n        /* \"#utility.yul\":16158:16453   */\n    tag_152:\n        /* \"#utility.yul\":16234:16238   */\n      0x00\n        /* \"#utility.yul\":16380:16409   */\n      tag_330\n        /* \"#utility.yul\":16405:16408   */\n      dup4\n        /* \"#utility.yul\":16399:16403   */\n      dup4\n        /* \"#utility.yul\":16380:16409   */\n      tag_151\n      jump\t// in\n    tag_330:\n        /* \"#utility.yul\":16372:16409   */\n      swap2\n      pop\n        /* \"#utility.yul\":16442:16445   */\n      dup3\n        /* \"#utility.yul\":16439:16440   */\n      0x02\n        /* \"#utility.yul\":16435:16446   */\n      mul\n        /* \"#utility.yul\":16429:16433   */\n      dup3\n        /* \"#utility.yul\":16426:16447   */\n      or\n        /* \"#utility.yul\":16418:16447   */\n      swap1\n      pop\n        /* \"#utility.yul\":16158:16453   */\n      swap3\n      swap2\n      pop\n      pop\n      jump\t// out\n        /* \"#utility.yul\":16458:17853   */\n    tag_101:\n        /* \"#utility.yul\":16575:16612   */\n      tag_332\n        /* \"#utility.yul\":16608:16611   */\n      dup3\n        /* \"#utility.yul\":16575:16612   */\n      tag_135\n      jump\t// in\n    tag_332:\n        /* \"#utility.yul\":16677:16695   */\n      0xffffffffffffffff\n        /* \"#utility.yul\":16669:16675   */\n      dup2\n        /* \"#utility.yul\":16666:16696   */\n      gt\n        /* \"#utility.yul\":16663:16719   */\n      iszero\n      tag_333\n      jumpi\n        /* \"#utility.yul\":16699:16717   */\n      tag_334\n      tag_118\n      jump\t// in\n    tag_334:\n        /* \"#utility.yul\":16663:16719   */\n    tag_333:\n        /* \"#utility.yul\":16743:16781   */\n      tag_335\n        /* \"#utility.yul\":16775:16779   */\n      dup3\n        /* \"#utility.yul\":16769:16780   */\n      sload\n        /* \"#utility.yul\":16743:16781   */\n      tag_104\n      jump\t// in\n    tag_335:\n        /* \"#utility.yul\":16828:16895   */\n      tag_336\n        /* \"#utility.yul\":16888:16894   */\n      dup3\n        /* \"#utility.yul\":16880:16886   */\n      dup3\n        /* \"#utility.yul\":16874:16878   */\n      dup6\n        /* \"#utility.yul\":16828:16895   */\n      tag_149\n      jump\t// in\n    tag_336:\n        /* \"#utility.yul\":16922:16923   */\n      0x00\n        /* \"#utility.yul\":16946:16950   */\n      0x20\n        /* \"#utility.yul\":16933:16950   */\n      swap1\n      pop\n        /* \"#utility.yul\":16978:16980   */\n      0x1f\n        /* \"#utility.yul\":16970:16976   */\n      dup4\n        /* \"#utility.yul\":16967:16981   */\n      gt\n        /* \"#utility.yul\":16995:16996   */\n      0x01\n        /* \"#utility.yul\":16990:17608   */\n      dup2\n      eq\n      tag_338\n      jumpi\n        /* \"#utility.yul\":17652:17653   */\n      0x00\n        /* \"#utility.yul\":17669:17675   */\n      dup5\n        /* \"#utility.yul\":17666:17743   */\n      iszero\n      tag_339\n      jumpi\n        /* \"#utility.yul\":17718:17727   */\n      dup3\n        /* \"#utility.yul\":17713:17716   */\n      dup8\n        /* \"#utility.yul\":17709:17728   */\n      add\n        /* \"#utility.yul\":17703:17729   */\n      mload\n        /* \"#utility.yul\":17694:17729   */\n      swap1\n      pop\n        /* \"#utility.yul\":17666:17743   */\n    tag_339:\n        /* \"#utility.yul\":17769:17836   */\n      tag_340\n        /* \"#utility.yul\":17829:17835   */\n      dup6\n        /* \"#utility.yul\":17822:17827   */\n      dup3\n        /* \"#utility.yul\":17769:17836   */\n      tag_152\n      jump\t// in\n    tag_340:\n        /* \"#utility.yul\":17763:17767   */\n      dup7\n        /* \"#utility.yul\":17756:17837   */\n      sstore\n        /* \"#utility.yul\":17625:17847   */\n      pop\n        /* \"#utility.yul\":16960:17847   */\n      jump(tag_337)\n        /* \"#utility.yul\":16990:17608   */\n    tag_338:\n        /* \"#utility.yul\":17042:17046   */\n      0x1f\n        /* \"#utility.yul\":17038:17047   */\n      not\n        /* \"#utility.yul\":17030:17036   */\n      dup5\n        /* \"#utility.yul\":17026:17048   */\n      and\n        /* \"#utility.yul\":17076:17113   */\n      tag_341\n        /* \"#utility.yul\":17108:17112   */\n      dup7\n        /* \"#utility.yul\":17076:17113   */\n      tag_106\n      jump\t// in\n    tag_341:\n        /* \"#utility.yul\":17135:17136   */\n      0x00\n        /* \"#utility.yul\":17149:17357   */\n    tag_342:\n        /* \"#utility.yul\":17163:17170   */\n      dup3\n        /* \"#utility.yul\":17160:17161   */\n      dup2\n        /* \"#utility.yul\":17157:17171   */\n      lt\n        /* \"#utility.yul\":17149:17357   */\n      iszero\n      tag_344\n      jumpi\n        /* \"#utility.yul\":17242:17251   */\n      dup5\n        /* \"#utility.yul\":17237:17240   */\n      dup10\n        /* \"#utility.yul\":17233:17252   */\n      add\n        /* \"#utility.yul\":17227:17253   */\n      mload\n        /* \"#utility.yul\":17219:17225   */\n      dup3\n        /* \"#utility.yul\":17212:17254   */\n      sstore\n        /* \"#utility.yul\":17293:17294   */\n      0x01\n        /* \"#utility.yul\":17285:17291   */\n      dup3\n        /* \"#utility.yul\":17281:17295   */\n      add\n        /* \"#utility.yul\":17271:17295   */\n      swap2\n      pop\n        /* \"#utility.yul\":17340:17342   */\n      0x20\n        /* \"#utility.yul\":17329:17338   */\n      dup6\n        /* \"#utility.yul\":17325:17343   */\n      add\n        /* \"#utility.yul\":17312:17343   */\n      swap5\n      pop\n        /* \"#utility.yul\":17186:17190   */\n      0x20\n        /* \"#utility.yul\":17183:17184   */\n      dup2\n        /* \"#utility.yul\":17179:17191   */\n      add\n        /* \"#utility.yul\":17174:17191   */\n      swap1\n      pop\n        /* \"#utility.yul\":17149:17357   */\n      jump(tag_342)\n    tag_344:\n        /* \"#utility.yul\":17385:17391   */\n      dup7\n        /* \"#utility.yul\":17376:17383   */\n      dup4\n        /* \"#utility.yul\":17373:17392   */\n      lt\n        /* \"#utility.yul\":17370:17549   */\n      iszero\n      tag_345\n      jumpi\n        /* \"#utility.yul\":17443:17452   */\n      dup5\n        /* \"#utility.yul\":17438:17441   */\n      dup10\n        /* \"#utility.yul\":17434:17453   */\n      add\n        /* \"#utility.yul\":17428:17454   */\n      mload\n        /* \"#utility.yul\":17486:17534   */\n      tag_346\n        /* \"#utility.yul\":17528:17532   */\n      0x1f\n        /* \"#utility.yul\":17520:17526   */\n      dup10\n        /* \"#utility.yul\":17516:17533   */\n      and\n        /* \"#utility.yul\":17505:17514   */\n      dup3\n        /* \"#utility.yul\":17486:17534   */\n      tag_151\n      jump\t// in\n    tag_346:\n        /* \"#utility.yul\":17478:17484   */\n      dup4\n        /* \"#utility.yul\":17471:17535   */\n      sstore\n        /* \"#utility.yul\":17393:17549   */\n      pop\n        /* \"#utility.yul\":17370:17549   */\n    tag_345:\n        /* \"#utility.yul\":17595:17596   */\n      0x01\n        /* \"#utility.yul\":17591:17592   */\n      0x02\n        /* \"#utility.yul\":17583:17589   */\n      dup9\n        /* \"#utility.yul\":17579:17593   */\n      mul\n        /* \"#utility.yul\":17575:17597   */\n      add\n        /* \"#utility.yul\":17569:17573   */\n      dup9\n        /* \"#utility.yul\":17562:17598   */\n      sstore\n        /* \"#utility.yul\":16997:17608   */\n      pop\n      pop\n      pop\n        /* \"#utility.yul\":16960:17847   */\n    tag_337:\n      pop\n        /* \"#utility.yul\":16550:17853   */\n      pop\n      pop\n      pop\n        /* \"#utility.yul\":16458:17853   */\n      pop\n      pop\n      jump\t// out\n\n    auxdata: 0xa2646970667358221220647ce0cacfaf4036262b477800c1757d27856b8579b811b5de8d14eb56f2675a64736f6c634300080f0033\n}\n",
				"bytecode": {
					"linkReferences": {},
					"object": "608060405234801561001057600080fd5b50336000806101000a81548173ffffffffffffffffffffffffffffffffffffffff021916908373ffffffffffffffffffffffffffffffffffffffff16021790555033600460006101000a81548173ffffffffffffffffffffffffffffffffffffffff021916908373ffffffffffffffffffffffffffffffffffffffff160217905550611344806100a16000396000f3fe60806040526004361061008a5760003560e01c8063b2bdfa7b11610059578063b2bdfa7b146101e5578063e935155814610210578063e9e6533114610239578063f993185514610255578063fe49048a1461029257610147565b806313af40351461014c5780635bbe4ac314610175578063704b6c02146101915780638f32d59b146101ba57610147565b36610147576002600560003373ffffffffffffffffffffffffffffffffffffffff1673ffffffffffffffffffffffffffffffffffffffff1681526020019081526020016000206040516100dd9190610a85565b908152602001604051809103902060009054906101000a900460ff1661010257600080fd5b34600660003373ffffffffffffffffffffffffffffffffffffffff1673ffffffffffffffffffffffffffffffffffffffff168152602001908152602001600020819055005b600080fd5b34801561015857600080fd5b50610173600480360381019061016e9190610b0e565b6102bb565b005b61018f600480360381019061018a9190610cb7565b610345565b005b34801561019d57600080fd5b506101b860048036038101906101b39190610b0e565b6105b8565b005b3480156101c657600080fd5b506101cf610643565b6040516101dc9190610dbd565b60405180910390f35b3480156101f157600080fd5b506101fa61069a565b6040516102079190610de7565b60405180910390f35b34801561021c57600080fd5b5061023760048036038101906102329190610e02565b6106be565b005b610253600480360381019061024e9190610b0e565b6107bd565b005b34801561026157600080fd5b5061027c60048036038101906102779190610b0e565b6107c0565b6040516102899190610e5a565b60405180910390f35b34801561029e57600080fd5b506102b960048036038101906102b49190610e75565b6107d8565b005b6102c3610643565b610302576040517f08c379a00000000000000000000000000000000000000000000000000000000081526004016102f990610f2e565b60405180910390fd5b806000806101000a81548173ffffffffffffffffffffffffffffffffffffffff021916908373ffffffffffffffffffffffffffffffffffffffff16021790555050565b600460009054906101000a900473ffffffffffffffffffffffffffffffffffffffff1673ffffffffffffffffffffffffffffffffffffffff163373ffffffffffffffffffffffffffffffffffffffff161461039f57600080fd5b600115156001826040516103b39190610fbd565b908152602001604051809103902060009054906101000a905050507fe10b63ae15af33dfb6fd11bdb907fba25fdd8cdbb63d7c46d530e30901d62107858585858560405161040595949392919061100d565b60405180910390a160028160405161041d9190610fbd565b908152602001604051809103902060009054906101000a900460ff161561057a576104856003826040516104519190610fbd565b908152602001604051809103902060009054906101000a900473ffffffffffffffffffffffffffffffffffffffff166107bd565b7f4e5bfbe05270402fc09cd413235062e684a8396be0a33385106e3b5c34302e606003826040516104b69190610fbd565b908152602001604051809103902060009054906101000a900473ffffffffffffffffffffffffffffffffffffffff16600660006003856040516104f99190610fbd565b908152602001604051809103902060009054906101000a900473ffffffffffffffffffffffffffffffffffffffff1673ffffffffffffffffffffffffffffffffffffffff1673ffffffffffffffffffffffffffffffffffffffff1681526020019081526020016000205460405161057192919061107c565b60405180910390a15b600060018260405161058c9190610fbd565b908152602001604051809103902060006101000a81548160ff0219169083151502179055505050505050565b6105c0610643565b6105ff576040517f08c379a00000000000000000000000000000000000000000000000000000000081526004016105f690610f2e565b60405180910390fd5b80600460006101000a81548173ffffffffffffffffffffffffffffffffffffffff021916908373ffffffffffffffffffffffffffffffffffffffff16021790555050565b60008060009054906101000a900473ffffffffffffffffffffffffffffffffffffffff1673ffffffffffffffffffffffffffffffffffffffff163373ffffffffffffffffffffffffffffffffffffffff1614905090565b60008054906101000a900473ffffffffffffffffffffffffffffffffffffffff1681565b600460009054906101000a900473ffffffffffffffffffffffffffffffffffffffff1673ffffffffffffffffffffffffffffffffffffffff163373ffffffffffffffffffffffffffffffffffffffff161461071857600080fd5b600180826040516107299190610fbd565b908152602001604051809103902060006101000a81548160ff02191690831515021790555060018160405161075e9190610fbd565b908152602001604051809103902060009054906101000a900460ff1661078357600080fd5b60016002826040516107959190610fbd565b908152602001604051809103902060006101000a81548160ff02191690831515021790555050565b50565b60066020528060005260406000206000915090505481565b600460009054906101000a900473ffffffffffffffffffffffffffffffffffffffff1673ffffffffffffffffffffffffffffffffffffffff163373ffffffffffffffffffffffffffffffffffffffff161461083257600080fd5b600180836040516108439190610fbd565b908152602001604051809103902060006101000a81548160ff0219169083151502179055506001826040516108789190610fbd565b908152602001604051809103902060009054906101000a900460ff1661089d57600080fd5b60016002836040516108af9190610fbd565b908152602001604051809103902060006101000a81548160ff02191690831515021790555081600560008373ffffffffffffffffffffffffffffffffffffffff1673ffffffffffffffffffffffffffffffffffffffff1681526020019081526020016000209081610920919061123c565b50806003836040516109329190610fbd565b908152602001604051809103902060006101000a81548173ffffffffffffffffffffffffffffffffffffffff021916908373ffffffffffffffffffffffffffffffffffffffff1602179055505050565b7f4e487b7100000000000000000000000000000000000000000000000000000000600052602260045260246000fd5b600060028204905060018216806109c957607f821691505b6020821081036109dc576109db610982565b5b50919050565b600081905092915050565b60008190508160005260206000209050919050565b60008154610a0f816109b1565b610a1981866109e2565b94506001821660008114610a345760018114610a4957610a7c565b60ff1983168652811515820286019350610a7c565b610a52856109ed565b60005b83811015610a7457815481890152600182019150602081019050610a55565b838801955050505b50505092915050565b6000610a918284610a02565b915081905092915050565b6000604051905090565b600080fd5b600080fd5b600073ffffffffffffffffffffffffffffffffffffffff82169050919050565b6000610adb82610ab0565b9050919050565b610aeb81610ad0565b8114610af657600080fd5b50565b600081359050610b0881610ae2565b92915050565b600060208284031215610b2457610b23610aa6565b5b6000610b3284828501610af9565b91505092915050565b600080fd5b600080fd5b6000601f19601f8301169050919050565b7f4e487b7100000000000000000000000000000000000000000000000000000000600052604160045260246000fd5b610b8e82610b45565b810181811067ffffffffffffffff82111715610bad57610bac610b56565b5b80604052505050565b6000610bc0610a9c565b9050610bcc8282610b85565b919050565b600067ffffffffffffffff821115610bec57610beb610b56565b5b610bf582610b45565b9050602081019050919050565b82818337600083830152505050565b6000610c24610c1f84610bd1565b610bb6565b905082815260208101848484011115610c4057610c3f610b40565b5b610c4b848285610c02565b509392505050565b600082601f830112610c6857610c67610b3b565b5b8135610c78848260208601610c11565b91505092915050565b6000819050919050565b610c9481610c81565b8114610c9f57600080fd5b50565b600081359050610cb181610c8b565b92915050565b600080600080600060a08688031215610cd357610cd2610aa6565b5b600086013567ffffffffffffffff811115610cf157610cf0610aab565b5b610cfd88828901610c53565b955050602086013567ffffffffffffffff811115610d1e57610d1d610aab565b5b610d2a88828901610c53565b9450506040610d3b88828901610ca2565b935050606086013567ffffffffffffffff811115610d5c57610d5b610aab565b5b610d6888828901610c53565b925050608086013567ffffffffffffffff811115610d8957610d88610aab565b5b610d9588828901610c53565b9150509295509295909350565b60008115159050919050565b610db781610da2565b82525050565b6000602082019050610dd26000830184610dae565b92915050565b610de181610ad0565b82525050565b6000602082019050610dfc6000830184610dd8565b92915050565b600060208284031215610e1857610e17610aa6565b5b600082013567ffffffffffffffff811115610e3657610e35610aab565b5b610e4284828501610c53565b91505092915050565b610e5481610c81565b82525050565b6000602082019050610e6f6000830184610e4b565b92915050565b60008060408385031215610e8c57610e8b610aa6565b5b600083013567ffffffffffffffff811115610eaa57610ea9610aab565b5b610eb685828601610c53565b9250506020610ec785828601610af9565b9150509250929050565b600082825260208201905092915050565b7f4f776e61626c653a2063616c6c6572206973206e6f7420746865206f776e6572600082015250565b6000610f18602083610ed1565b9150610f2382610ee2565b602082019050919050565b60006020820190508181036000830152610f4781610f0b565b9050919050565b600081519050919050565b60005b83811015610f77578082015181840152602081019050610f5c565b83811115610f86576000848401525b50505050565b6000610f9782610f4e565b610fa181856109e2565b9350610fb1818560208601610f59565b80840191505092915050565b6000610fc98284610f8c565b915081905092915050565b6000610fdf82610f4e565b610fe98185610ed1565b9350610ff9818560208601610f59565b61100281610b45565b840191505092915050565b600060a08201905081810360008301526110278188610fd4565b9050818103602083015261103b8187610fd4565b905061104a6040830186610e4b565b818103606083015261105c8185610fd4565b905081810360808301526110708184610fd4565b90509695505050505050565b60006040820190506110916000830185610dd8565b61109e6020830184610e4b565b9392505050565b60006020601f8301049050919050565b600082821b905092915050565b6000600883026110f27fffffffffffffffffffffffffffffffffffffffffffffffffffffffffffffffff826110b5565b6110fc86836110b5565b95508019841693508086168417925050509392505050565b6000819050919050565b600061113961113461112f84610c81565b611114565b610c81565b9050919050565b6000819050919050565b6111538361111e565b61116761115f82611140565b8484546110c2565b825550505050565b600090565b61117c61116f565b61118781848461114a565b505050565b5b818110156111ab576111a0600082611174565b60018101905061118d565b5050565b601f8211156111f0576111c1816109ed565b6111ca846110a5565b810160208510156111d9578190505b6111ed6111e5856110a5565b83018261118c565b50505b505050565b600082821c905092915050565b6000611213600019846008026111f5565b1980831691505092915050565b600061122c8383611202565b9150826002028217905092915050565b61124582610f4e565b67ffffffffffffffff81111561125e5761125d610b56565b5b61126882546109b1565b6112738282856111af565b600060209050601f8311600181146112a65760008415611294578287015190505b61129e8582611220565b865550611306565b601f1984166112b4866109ed565b60005b828110156112dc578489015182556001820191506020850194506020810190506112b7565b868310156112f957848901516112f5601f891682611202565b8355505b6001600288020188555050505b50505050505056fea2646970667358221220647ce0cacfaf4036262b477800c1757d27856b8579b811b5de8d14eb56f2675a64736f6c634300080f0033",
					"opcodes": "PUSH1 0x80 PUSH1 0x40 MSTORE CALLVALUE DUP1 ISZERO PUSH2 0x10 JUMPI PUSH1 0x0 DUP1 REVERT JUMPDEST POP CALLER PUSH1 0x0 DUP1 PUSH2 0x100 EXP DUP2 SLOAD DUP2 PUSH20 0xFFFFFFFFFFFFFFFFFFFFFFFFFFFFFFFFFFFFFFFF MUL NOT AND SWAP1 DUP4 PUSH20 0xFFFFFFFFFFFFFFFFFFFFFFFFFFFFFFFFFFFFFFFF AND MUL OR SWAP1 SSTORE POP CALLER PUSH1 0x4 PUSH1 0x0 PUSH2 0x100 EXP DUP2 SLOAD DUP2 PUSH20 0xFFFFFFFFFFFFFFFFFFFFFFFFFFFFFFFFFFFFFFFF MUL NOT AND SWAP1 DUP4 PUSH20 0xFFFFFFFFFFFFFFFFFFFFFFFFFFFFFFFFFFFFFFFF AND MUL OR SWAP1 SSTORE POP PUSH2 0x1344 DUP1 PUSH2 0xA1 PUSH1 0x0 CODECOPY PUSH1 0x0 RETURN INVALID PUSH1 0x80 PUSH1 0x40 MSTORE PUSH1 0x4 CALLDATASIZE LT PUSH2 0x8A JUMPI PUSH1 0x0 CALLDATALOAD PUSH1 0xE0 SHR DUP1 PUSH4 0xB2BDFA7B GT PUSH2 0x59 JUMPI DUP1 PUSH4 0xB2BDFA7B EQ PUSH2 0x1E5 JUMPI DUP1 PUSH4 0xE9351558 EQ PUSH2 0x210 JUMPI DUP1 PUSH4 0xE9E65331 EQ PUSH2 0x239 JUMPI DUP1 PUSH4 0xF9931855 EQ PUSH2 0x255 JUMPI DUP1 PUSH4 0xFE49048A EQ PUSH2 0x292 JUMPI PUSH2 0x147 JUMP JUMPDEST DUP1 PUSH4 0x13AF4035 EQ PUSH2 0x14C JUMPI DUP1 PUSH4 0x5BBE4AC3 EQ PUSH2 0x175 JUMPI DUP1 PUSH4 0x704B6C02 EQ PUSH2 0x191 JUMPI DUP1 PUSH4 0x8F32D59B EQ PUSH2 0x1BA JUMPI PUSH2 0x147 JUMP JUMPDEST CALLDATASIZE PUSH2 0x147 JUMPI PUSH1 0x2 PUSH1 0x5 PUSH1 0x0 CALLER PUSH20 0xFFFFFFFFFFFFFFFFFFFFFFFFFFFFFFFFFFFFFFFF AND PUSH20 0xFFFFFFFFFFFFFFFFFFFFFFFFFFFFFFFFFFFFFFFF AND DUP2 MSTORE PUSH1 0x20 ADD SWAP1 DUP2 MSTORE PUSH1 0x20 ADD PUSH1 0x0 KECCAK256 PUSH1 0x40 MLOAD PUSH2 0xDD SWAP2 SWAP1 PUSH2 0xA85 JUMP JUMPDEST SWAP1 DUP2 MSTORE PUSH1 0x20 ADD PUSH1 0x40 MLOAD DUP1 SWAP2 SUB SWAP1 KECCAK256 PUSH1 0x0 SWAP1 SLOAD SWAP1 PUSH2 0x100 EXP SWAP1 DIV PUSH1 0xFF AND PUSH2 0x102 JUMPI PUSH1 0x0 DUP1 REVERT JUMPDEST CALLVALUE PUSH1 0x6 PUSH1 0x0 CALLER PUSH20 0xFFFFFFFFFFFFFFFFFFFFFFFFFFFFFFFFFFFFFFFF AND PUSH20 0xFFFFFFFFFFFFFFFFFFFFFFFFFFFFFFFFFFFFFFFF AND DUP2 MSTORE PUSH1 0x20 ADD SWAP1 DUP2 MSTORE PUSH1 0x20 ADD PUSH1 0x0 KECCAK256 DUP2 SWAP1 SSTORE STOP JUMPDEST PUSH1 0x0 DUP1 REVERT JUMPDEST CALLVALUE DUP1 ISZERO PUSH2 0x158 JUMPI PUSH1 0x0 DUP1 REVERT JUMPDEST POP PUSH2 0x173 PUSH1 0x4 DUP1 CALLDATASIZE SUB DUP2 ADD SWAP1 PUSH2 0x16E SWAP2 SWAP1 PUSH2 0xB0E JUMP JUMPDEST PUSH2 0x2BB JUMP JUMPDEST STOP JUMPDEST PUSH2 0x18F PUSH1 0x4 DUP1 CALLDATASIZE SUB DUP2 ADD SWAP1 PUSH2 0x18A SWAP2 SWAP1 PUSH2 0xCB7 JUMP JUMPDEST PUSH2 0x345 JUMP JUMPDEST STOP JUMPDEST CALLVALUE DUP1 ISZERO PUSH2 0x19D JUMPI PUSH1 0x0 DUP1 REVERT JUMPDEST POP PUSH2 0x1B8 PUSH1 0x4 DUP1 CALLDATASIZE SUB DUP2 ADD SWAP1 PUSH2 0x1B3 SWAP2 SWAP1 PUSH2 0xB0E JUMP JUMPDEST PUSH2 0x5B8 JUMP JUMPDEST STOP JUMPDEST CALLVALUE DUP1 ISZERO PUSH2 0x1C6 JUMPI PUSH1 0x0 DUP1 REVERT JUMPDEST POP PUSH2 0x1CF PUSH2 0x643 JUMP JUMPDEST PUSH1 0x40 MLOAD PUSH2 0x1DC SWAP2 SWAP1 PUSH2 0xDBD JUMP JUMPDEST PUSH1 0x40 MLOAD DUP1 SWAP2 SUB SWAP1 RETURN JUMPDEST CALLVALUE DUP1 ISZERO PUSH2 0x1F1 JUMPI PUSH1 0x0 DUP1 REVERT JUMPDEST POP PUSH2 0x1FA PUSH2 0x69A JUMP JUMPDEST PUSH1 0x40 MLOAD PUSH2 0x207 SWAP2 SWAP1 PUSH2 0xDE7 JUMP JUMPDEST PUSH1 0x40 MLOAD DUP1 SWAP2 SUB SWAP1 RETURN JUMPDEST CALLVALUE DUP1 ISZERO PUSH2 0x21C JUMPI PUSH1 0x0 DUP1 REVERT JUMPDEST POP PUSH2 0x237 PUSH1 0x4 DUP1 CALLDATASIZE SUB DUP2 ADD SWAP1 PUSH2 0x232 SWAP2 SWAP1 PUSH2 0xE02 JUMP JUMPDEST PUSH2 0x6BE JUMP JUMPDEST STOP JUMPDEST PUSH2 0x253 PUSH1 0x4 DUP1 CALLDATASIZE SUB DUP2 ADD SWAP1 PUSH2 0x24E SWAP2 SWAP1 PUSH2 0xB0E JUMP JUMPDEST PUSH2 0x7BD JUMP JUMPDEST STOP JUMPDEST CALLVALUE DUP1 ISZERO PUSH2 0x261 JUMPI PUSH1 0x0 DUP1 REVERT JUMPDEST POP PUSH2 0x27C PUSH1 0x4 DUP1 CALLDATASIZE SUB DUP2 ADD SWAP1 PUSH2 0x277 SWAP2 SWAP1 PUSH2 0xB0E JUMP JUMPDEST PUSH2 0x7C0 JUMP JUMPDEST PUSH1 0x40 MLOAD PUSH2 0x289 SWAP2 SWAP1 PUSH2 0xE5A JUMP JUMPDEST PUSH1 0x40 MLOAD DUP1 SWAP2 SUB SWAP1 RETURN JUMPDEST CALLVALUE DUP1 ISZERO PUSH2 0x29E JUMPI PUSH1 0x0 DUP1 REVERT JUMPDEST POP PUSH2 0x2B9 PUSH1 0x4 DUP1 CALLDATASIZE SUB DUP2 ADD SWAP1 PUSH2 0x2B4 SWAP2 SWAP1 PUSH2 0xE75 JUMP JUMPDEST PUSH2 0x7D8 JUMP JUMPDEST STOP JUMPDEST PUSH2 0x2C3 PUSH2 0x643 JUMP JUMPDEST PUSH2 0x302 JUMPI PUSH1 0x40 MLOAD PUSH32 0x8C379A000000000000000000000000000000000000000000000000000000000 DUP2 MSTORE PUSH1 0x4 ADD PUSH2 0x2F9 SWAP1 PUSH2 0xF2E JUMP JUMPDEST PUSH1 0x40 MLOAD DUP1 SWAP2 SUB SWAP1 REVERT JUMPDEST DUP1 PUSH1 0x0 DUP1 PUSH2 0x100 EXP DUP2 SLOAD DUP2 PUSH20 0xFFFFFFFFFFFFFFFFFFFFFFFFFFFFFFFFFFFFFFFF MUL NOT AND SWAP1 DUP4 PUSH20 0xFFFFFFFFFFFFFFFFFFFFFFFFFFFFFFFFFFFFFFFF AND MUL OR SWAP1 SSTORE POP POP JUMP JUMPDEST PUSH1 0x4 PUSH1 0x0 SWAP1 SLOAD SWAP1 PUSH2 0x100 EXP SWAP1 DIV PUSH20 0xFFFFFFFFFFFFFFFFFFFFFFFFFFFFFFFFFFFFFFFF AND PUSH20 0xFFFFFFFFFFFFFFFFFFFFFFFFFFFFFFFFFFFFFFFF AND CALLER PUSH20 0xFFFFFFFFFFFFFFFFFFFFFFFFFFFFFFFFFFFFFFFF AND EQ PUSH2 0x39F JUMPI PUSH1 0x0 DUP1 REVERT JUMPDEST PUSH1 0x1 ISZERO ISZERO PUSH1 0x1 DUP3 PUSH1 0x40 MLOAD PUSH2 0x3B3 SWAP2 SWAP1 PUSH2 0xFBD JUMP JUMPDEST SWAP1 DUP2 MSTORE PUSH1 0x20 ADD PUSH1 0x40 MLOAD DUP1 SWAP2 SUB SWAP1 KECCAK256 PUSH1 0x0 SWAP1 SLOAD SWAP1 PUSH2 0x100 EXP SWAP1 POP POP POP PUSH32 0xE10B63AE15AF33DFB6FD11BDB907FBA25FDD8CDBB63D7C46D530E30901D62107 DUP6 DUP6 DUP6 DUP6 DUP6 PUSH1 0x40 MLOAD PUSH2 0x405 SWAP6 SWAP5 SWAP4 SWAP3 SWAP2 SWAP1 PUSH2 0x100D JUMP JUMPDEST PUSH1 0x40 MLOAD DUP1 SWAP2 SUB SWAP1 LOG1 PUSH1 0x2 DUP2 PUSH1 0x40 MLOAD PUSH2 0x41D SWAP2 SWAP1 PUSH2 0xFBD JUMP JUMPDEST SWAP1 DUP2 MSTORE PUSH1 0x20 ADD PUSH1 0x40 MLOAD DUP1 SWAP2 SUB SWAP1 KECCAK256 PUSH1 0x0 SWAP1 SLOAD SWAP1 PUSH2 0x100 EXP SWAP1 DIV PUSH1 0xFF AND ISZERO PUSH2 0x57A JUMPI PUSH2 0x485 PUSH1 0x3 DUP3 PUSH1 0x40 MLOAD PUSH2 0x451 SWAP2 SWAP1 PUSH2 0xFBD JUMP JUMPDEST SWAP1 DUP2 MSTORE PUSH1 0x20 ADD PUSH1 0x40 MLOAD DUP1 SWAP2 SUB SWAP1 KECCAK256 PUSH1 0x0 SWAP1 SLOAD SWAP1 PUSH2 0x100 EXP SWAP1 DIV PUSH20 0xFFFFFFFFFFFFFFFFFFFFFFFFFFFFFFFFFFFFFFFF AND PUSH2 0x7BD JUMP JUMPDEST PUSH32 0x4E5BFBE05270402FC09CD413235062E684A8396BE0A33385106E3B5C34302E60 PUSH1 0x3 DUP3 PUSH1 0x40 MLOAD PUSH2 0x4B6 SWAP2 SWAP1 PUSH2 0xFBD JUMP JUMPDEST SWAP1 DUP2 MSTORE PUSH1 0x20 ADD PUSH1 0x40 MLOAD DUP1 SWAP2 SUB SWAP1 KECCAK256 PUSH1 0x0 SWAP1 SLOAD SWAP1 PUSH2 0x100 EXP SWAP1 DIV PUSH20 0xFFFFFFFFFFFFFFFFFFFFFFFFFFFFFFFFFFFFFFFF AND PUSH1 0x6 PUSH1 0x0 PUSH1 0x3 DUP6 PUSH1 0x40 MLOAD PUSH2 0x4F9 SWAP2 SWAP1 PUSH2 0xFBD JUMP JUMPDEST SWAP1 DUP2 MSTORE PUSH1 0x20 ADD PUSH1 0x40 MLOAD DUP1 SWAP2 SUB SWAP1 KECCAK256 PUSH1 0x0 SWAP1 SLOAD SWAP1 PUSH2 0x100 EXP SWAP1 DIV PUSH20 0xFFFFFFFFFFFFFFFFFFFFFFFFFFFFFFFFFFFFFFFF AND PUSH20 0xFFFFFFFFFFFFFFFFFFFFFFFFFFFFFFFFFFFFFFFF AND PUSH20 0xFFFFFFFFFFFFFFFFFFFFFFFFFFFFFFFFFFFFFFFF AND DUP2 MSTORE PUSH1 0x20 ADD SWAP1 DUP2 MSTORE PUSH1 0x20 ADD PUSH1 0x0 KECCAK256 SLOAD PUSH1 0x40 MLOAD PUSH2 0x571 SWAP3 SWAP2 SWAP1 PUSH2 0x107C JUMP JUMPDEST PUSH1 0x40 MLOAD DUP1 SWAP2 SUB SWAP1 LOG1 JUMPDEST PUSH1 0x0 PUSH1 0x1 DUP3 PUSH1 0x40 MLOAD PUSH2 0x58C SWAP2 SWAP1 PUSH2 0xFBD JUMP JUMPDEST SWAP1 DUP2 MSTORE PUSH1 0x20 ADD PUSH1 0x40 MLOAD DUP1 SWAP2 SUB SWAP1 KECCAK256 PUSH1 0x0 PUSH2 0x100 EXP DUP2 SLOAD DUP2 PUSH1 0xFF MUL NOT AND SWAP1 DUP4 ISZERO ISZERO MUL OR SWAP1 SSTORE POP POP POP POP POP POP JUMP JUMPDEST PUSH2 0x5C0 PUSH2 0x643 JUMP JUMPDEST PUSH2 0x5FF JUMPI PUSH1 0x40 MLOAD PUSH32 0x8C379A000000000000000000000000000000000000000000000000000000000 DUP2 MSTORE PUSH1 0x4 ADD PUSH2 0x5F6 SWAP1 PUSH2 0xF2E JUMP JUMPDEST PUSH1 0x40 MLOAD DUP1 SWAP2 SUB SWAP1 REVERT JUMPDEST DUP1 PUSH1 0x4 PUSH1 0x0 PUSH2 0x100 EXP DUP2 SLOAD DUP2 PUSH20 0xFFFFFFFFFFFFFFFFFFFFFFFFFFFFFFFFFFFFFFFF MUL NOT AND SWAP1 DUP4 PUSH20 0xFFFFFFFFFFFFFFFFFFFFFFFFFFFFFFFFFFFFFFFF AND MUL OR SWAP1 SSTORE POP POP JUMP JUMPDEST PUSH1 0x0 DUP1 PUSH1 0x0 SWAP1 SLOAD SWAP1 PUSH2 0x100 EXP SWAP1 DIV PUSH20 0xFFFFFFFFFFFFFFFFFFFFFFFFFFFFFFFFFFFFFFFF AND PUSH20 0xFFFFFFFFFFFFFFFFFFFFFFFFFFFFFFFFFFFFFFFF AND CALLER PUSH20 0xFFFFFFFFFFFFFFFFFFFFFFFFFFFFFFFFFFFFFFFF AND EQ SWAP1 POP SWAP1 JUMP JUMPDEST PUSH1 0x0 DUP1 SLOAD SWAP1 PUSH2 0x100 EXP SWAP1 DIV PUSH20 0xFFFFFFFFFFFFFFFFFFFFFFFFFFFFFFFFFFFFFFFF AND DUP2 JUMP JUMPDEST PUSH1 0x4 PUSH1 0x0 SWAP1 SLOAD SWAP1 PUSH2 0x100 EXP SWAP1 DIV PUSH20 0xFFFFFFFFFFFFFFFFFFFFFFFFFFFFFFFFFFFFFFFF AND PUSH20 0xFFFFFFFFFFFFFFFFFFFFFFFFFFFFFFFFFFFFFFFF AND CALLER PUSH20 0xFFFFFFFFFFFFFFFFFFFFFFFFFFFFFFFFFFFFFFFF AND EQ PUSH2 0x718 JUMPI PUSH1 0x0 DUP1 REVERT JUMPDEST PUSH1 0x1 DUP1 DUP3 PUSH1 0x40 MLOAD PUSH2 0x729 SWAP2 SWAP1 PUSH2 0xFBD JUMP JUMPDEST SWAP1 DUP2 MSTORE PUSH1 0x20 ADD PUSH1 0x40 MLOAD DUP1 SWAP2 SUB SWAP1 KECCAK256 PUSH1 0x0 PUSH2 0x100 EXP DUP2 SLOAD DUP2 PUSH1 0xFF MUL NOT AND SWAP1 DUP4 ISZERO ISZERO MUL OR SWAP1 SSTORE POP PUSH1 0x1 DUP2 PUSH1 0x40 MLOAD PUSH2 0x75E SWAP2 SWAP1 PUSH2 0xFBD JUMP JUMPDEST SWAP1 DUP2 MSTORE PUSH1 0x20 ADD PUSH1 0x40 MLOAD DUP1 SWAP2 SUB SWAP1 KECCAK256 PUSH1 0x0 SWAP1 SLOAD SWAP1 PUSH2 0x100 EXP SWAP1 DIV PUSH1 0xFF AND PUSH2 0x783 JUMPI PUSH1 0x0 DUP1 REVERT JUMPDEST PUSH1 0x1 PUSH1 0x2 DUP3 PUSH1 0x40 MLOAD PUSH2 0x795 SWAP2 SWAP1 PUSH2 0xFBD JUMP JUMPDEST SWAP1 DUP2 MSTORE PUSH1 0x20 ADD PUSH1 0x40 MLOAD DUP1 SWAP2 SUB SWAP1 KECCAK256 PUSH1 0x0 PUSH2 0x100 EXP DUP2 SLOAD DUP2 PUSH1 0xFF MUL NOT AND SWAP1 DUP4 ISZERO ISZERO MUL OR SWAP1 SSTORE POP POP JUMP JUMPDEST POP JUMP JUMPDEST PUSH1 0x6 PUSH1 0x20 MSTORE DUP1 PUSH1 0x0 MSTORE PUSH1 0x40 PUSH1 0x0 KECCAK256 PUSH1 0x0 SWAP2 POP SWAP1 POP SLOAD DUP2 JUMP JUMPDEST PUSH1 0x4 PUSH1 0x0 SWAP1 SLOAD SWAP1 PUSH2 0x100 EXP SWAP1 DIV PUSH20 0xFFFFFFFFFFFFFFFFFFFFFFFFFFFFFFFFFFFFFFFF AND PUSH20 0xFFFFFFFFFFFFFFFFFFFFFFFFFFFFFFFFFFFFFFFF AND CALLER PUSH20 0xFFFFFFFFFFFFFFFFFFFFFFFFFFFFFFFFFFFFFFFF AND EQ PUSH2 0x832 JUMPI PUSH1 0x0 DUP1 REVERT JUMPDEST PUSH1 0x1 DUP1 DUP4 PUSH1 0x40 MLOAD PUSH2 0x843 SWAP2 SWAP1 PUSH2 0xFBD JUMP JUMPDEST SWAP1 DUP2 MSTORE PUSH1 0x20 ADD PUSH1 0x40 MLOAD DUP1 SWAP2 SUB SWAP1 KECCAK256 PUSH1 0x0 PUSH2 0x100 EXP DUP2 SLOAD DUP2 PUSH1 0xFF MUL NOT AND SWAP1 DUP4 ISZERO ISZERO MUL OR SWAP1 SSTORE POP PUSH1 0x1 DUP3 PUSH1 0x40 MLOAD PUSH2 0x878 SWAP2 SWAP1 PUSH2 0xFBD JUMP JUMPDEST SWAP1 DUP2 MSTORE PUSH1 0x20 ADD PUSH1 0x40 MLOAD DUP1 SWAP2 SUB SWAP1 KECCAK256 PUSH1 0x0 SWAP1 SLOAD SWAP1 PUSH2 0x100 EXP SWAP1 DIV PUSH1 0xFF AND PUSH2 0x89D JUMPI PUSH1 0x0 DUP1 REVERT JUMPDEST PUSH1 0x1 PUSH1 0x2 DUP4 PUSH1 0x40 MLOAD PUSH2 0x8AF SWAP2 SWAP1 PUSH2 0xFBD JUMP JUMPDEST SWAP1 DUP2 MSTORE PUSH1 0x20 ADD PUSH1 0x40 MLOAD DUP1 SWAP2 SUB SWAP1 KECCAK256 PUSH1 0x0 PUSH2 0x100 EXP DUP2 SLOAD DUP2 PUSH1 0xFF MUL NOT AND SWAP1 DUP4 ISZERO ISZERO MUL OR SWAP1 SSTORE POP DUP2 PUSH1 0x5 PUSH1 0x0 DUP4 PUSH20 0xFFFFFFFFFFFFFFFFFFFFFFFFFFFFFFFFFFFFFFFF AND PUSH20 0xFFFFFFFFFFFFFFFFFFFFFFFFFFFFFFFFFFFFFFFF AND DUP2 MSTORE PUSH1 0x20 ADD SWAP1 DUP2 MSTORE PUSH1 0x20 ADD PUSH1 0x0 KECCAK256 SWAP1 DUP2 PUSH2 0x920 SWAP2 SWAP1 PUSH2 0x123C JUMP JUMPDEST POP DUP1 PUSH1 0x3 DUP4 PUSH1 0x40 MLOAD PUSH2 0x932 SWAP2 SWAP1 PUSH2 0xFBD JUMP JUMPDEST SWAP1 DUP2 MSTORE PUSH1 0x20 ADD PUSH1 0x40 MLOAD DUP1 SWAP2 SUB SWAP1 KECCAK256 PUSH1 0x0 PUSH2 0x100 EXP DUP2 SLOAD DUP2 PUSH20 0xFFFFFFFFFFFFFFFFFFFFFFFFFFFFFFFFFFFFFFFF MUL NOT AND SWAP1 DUP4 PUSH20 0xFFFFFFFFFFFFFFFFFFFFFFFFFFFFFFFFFFFFFFFF AND MUL OR SWAP1 SSTORE POP POP POP JUMP JUMPDEST PUSH32 0x4E487B7100000000000000000000000000000000000000000000000000000000 PUSH1 0x0 MSTORE PUSH1 0x22 PUSH1 0x4 MSTORE PUSH1 0x24 PUSH1 0x0 REVERT JUMPDEST PUSH1 0x0 PUSH1 0x2 DUP3 DIV SWAP1 POP PUSH1 0x1 DUP3 AND DUP1 PUSH2 0x9C9 JUMPI PUSH1 0x7F DUP3 AND SWAP2 POP JUMPDEST PUSH1 0x20 DUP3 LT DUP2 SUB PUSH2 0x9DC JUMPI PUSH2 0x9DB PUSH2 0x982 JUMP JUMPDEST JUMPDEST POP SWAP2 SWAP1 POP JUMP JUMPDEST PUSH1 0x0 DUP2 SWAP1 POP SWAP3 SWAP2 POP POP JUMP JUMPDEST PUSH1 0x0 DUP2 SWAP1 POP DUP2 PUSH1 0x0 MSTORE PUSH1 0x20 PUSH1 0x0 KECCAK256 SWAP1 POP SWAP2 SWAP1 POP JUMP JUMPDEST PUSH1 0x0 DUP2 SLOAD PUSH2 0xA0F DUP2 PUSH2 0x9B1 JUMP JUMPDEST PUSH2 0xA19 DUP2 DUP7 PUSH2 0x9E2 JUMP JUMPDEST SWAP5 POP PUSH1 0x1 DUP3 AND PUSH1 0x0 DUP2 EQ PUSH2 0xA34 JUMPI PUSH1 0x1 DUP2 EQ PUSH2 0xA49 JUMPI PUSH2 0xA7C JUMP JUMPDEST PUSH1 0xFF NOT DUP4 AND DUP7 MSTORE DUP2 ISZERO ISZERO DUP3 MUL DUP7 ADD SWAP4 POP PUSH2 0xA7C JUMP JUMPDEST PUSH2 0xA52 DUP6 PUSH2 0x9ED JUMP JUMPDEST PUSH1 0x0 JUMPDEST DUP4 DUP2 LT ISZERO PUSH2 0xA74 JUMPI DUP2 SLOAD DUP2 DUP10 ADD MSTORE PUSH1 0x1 DUP3 ADD SWAP2 POP PUSH1 0x20 DUP2 ADD SWAP1 POP PUSH2 0xA55 JUMP JUMPDEST DUP4 DUP9 ADD SWAP6 POP POP POP JUMPDEST POP POP POP SWAP3 SWAP2 POP POP JUMP JUMPDEST PUSH1 0x0 PUSH2 0xA91 DUP3 DUP5 PUSH2 0xA02 JUMP JUMPDEST SWAP2 POP DUP2 SWAP1 POP SWAP3 SWAP2 POP POP JUMP JUMPDEST PUSH1 0x0 PUSH1 0x40 MLOAD SWAP1 POP SWAP1 JUMP JUMPDEST PUSH1 0x0 DUP1 REVERT JUMPDEST PUSH1 0x0 DUP1 REVERT JUMPDEST PUSH1 0x0 PUSH20 0xFFFFFFFFFFFFFFFFFFFFFFFFFFFFFFFFFFFFFFFF DUP3 AND SWAP1 POP SWAP2 SWAP1 POP JUMP JUMPDEST PUSH1 0x0 PUSH2 0xADB DUP3 PUSH2 0xAB0 JUMP JUMPDEST SWAP1 POP SWAP2 SWAP1 POP JUMP JUMPDEST PUSH2 0xAEB DUP2 PUSH2 0xAD0 JUMP JUMPDEST DUP2 EQ PUSH2 0xAF6 JUMPI PUSH1 0x0 DUP1 REVERT JUMPDEST POP JUMP JUMPDEST PUSH1 0x0 DUP2 CALLDATALOAD SWAP1 POP PUSH2 0xB08 DUP2 PUSH2 0xAE2 JUMP JUMPDEST SWAP3 SWAP2 POP POP JUMP JUMPDEST PUSH1 0x0 PUSH1 0x20 DUP3 DUP5 SUB SLT ISZERO PUSH2 0xB24 JUMPI PUSH2 0xB23 PUSH2 0xAA6 JUMP JUMPDEST JUMPDEST PUSH1 0x0 PUSH2 0xB32 DUP5 DUP3 DUP6 ADD PUSH2 0xAF9 JUMP JUMPDEST SWAP2 POP POP SWAP3 SWAP2 POP POP JUMP JUMPDEST PUSH1 0x0 DUP1 REVERT JUMPDEST PUSH1 0x0 DUP1 REVERT JUMPDEST PUSH1 0x0 PUSH1 0x1F NOT PUSH1 0x1F DUP4 ADD AND SWAP1 POP SWAP2 SWAP1 POP JUMP JUMPDEST PUSH32 0x4E487B7100000000000000000000000000000000000000000000000000000000 PUSH1 0x0 MSTORE PUSH1 0x41 PUSH1 0x4 MSTORE PUSH1 0x24 PUSH1 0x0 REVERT JUMPDEST PUSH2 0xB8E DUP3 PUSH2 0xB45 JUMP JUMPDEST DUP2 ADD DUP2 DUP2 LT PUSH8 0xFFFFFFFFFFFFFFFF DUP3 GT OR ISZERO PUSH2 0xBAD JUMPI PUSH2 0xBAC PUSH2 0xB56 JUMP JUMPDEST JUMPDEST DUP1 PUSH1 0x40 MSTORE POP POP POP JUMP JUMPDEST PUSH1 0x0 PUSH2 0xBC0 PUSH2 0xA9C JUMP JUMPDEST SWAP1 POP PUSH2 0xBCC DUP3 DUP3 PUSH2 0xB85 JUMP JUMPDEST SWAP2 SWAP1 POP JUMP JUMPDEST PUSH1 0x0 PUSH8 0xFFFFFFFFFFFFFFFF DUP3 GT ISZERO PUSH2 0xBEC JUMPI PUSH2 0xBEB PUSH2 0xB56 JUMP JUMPDEST JUMPDEST PUSH2 0xBF5 DUP3 PUSH2 0xB45 JUMP JUMPDEST SWAP1 POP PUSH1 0x20 DUP2 ADD SWAP1 POP SWAP2 SWAP1 POP JUMP JUMPDEST DUP3 DUP2 DUP4 CALLDATACOPY PUSH1 0x0 DUP4 DUP4 ADD MSTORE POP POP POP JUMP JUMPDEST PUSH1 0x0 PUSH2 0xC24 PUSH2 0xC1F DUP5 PUSH2 0xBD1 JUMP JUMPDEST PUSH2 0xBB6 JUMP JUMPDEST SWAP1 POP DUP3 DUP2 MSTORE PUSH1 0x20 DUP2 ADD DUP5 DUP5 DUP5 ADD GT ISZERO PUSH2 0xC40 JUMPI PUSH2 0xC3F PUSH2 0xB40 JUMP JUMPDEST JUMPDEST PUSH2 0xC4B DUP5 DUP3 DUP6 PUSH2 0xC02 JUMP JUMPDEST POP SWAP4 SWAP3 POP POP POP JUMP JUMPDEST PUSH1 0x0 DUP3 PUSH1 0x1F DUP4 ADD SLT PUSH2 0xC68 JUMPI PUSH2 0xC67 PUSH2 0xB3B JUMP JUMPDEST JUMPDEST DUP2 CALLDATALOAD PUSH2 0xC78 DUP5 DUP3 PUSH1 0x20 DUP7 ADD PUSH2 0xC11 JUMP JUMPDEST SWAP2 POP POP SWAP3 SWAP2 POP POP JUMP JUMPDEST PUSH1 0x0 DUP2 SWAP1 POP SWAP2 SWAP1 POP JUMP JUMPDEST PUSH2 0xC94 DUP2 PUSH2 0xC81 JUMP JUMPDEST DUP2 EQ PUSH2 0xC9F JUMPI PUSH1 0x0 DUP1 REVERT JUMPDEST POP JUMP JUMPDEST PUSH1 0x0 DUP2 CALLDATALOAD SWAP1 POP PUSH2 0xCB1 DUP2 PUSH2 0xC8B JUMP JUMPDEST SWAP3 SWAP2 POP POP JUMP JUMPDEST PUSH1 0x0 DUP1 PUSH1 0x0 DUP1 PUSH1 0x0 PUSH1 0xA0 DUP7 DUP9 SUB SLT ISZERO PUSH2 0xCD3 JUMPI PUSH2 0xCD2 PUSH2 0xAA6 JUMP JUMPDEST JUMPDEST PUSH1 0x0 DUP7 ADD CALLDATALOAD PUSH8 0xFFFFFFFFFFFFFFFF DUP2 GT ISZERO PUSH2 0xCF1 JUMPI PUSH2 0xCF0 PUSH2 0xAAB JUMP JUMPDEST JUMPDEST PUSH2 0xCFD DUP9 DUP3 DUP10 ADD PUSH2 0xC53 JUMP JUMPDEST SWAP6 POP POP PUSH1 0x20 DUP7 ADD CALLDATALOAD PUSH8 0xFFFFFFFFFFFFFFFF DUP2 GT ISZERO PUSH2 0xD1E JUMPI PUSH2 0xD1D PUSH2 0xAAB JUMP JUMPDEST JUMPDEST PUSH2 0xD2A DUP9 DUP3 DUP10 ADD PUSH2 0xC53 JUMP JUMPDEST SWAP5 POP POP PUSH1 0x40 PUSH2 0xD3B DUP9 DUP3 DUP10 ADD PUSH2 0xCA2 JUMP JUMPDEST SWAP4 POP POP PUSH1 0x60 DUP7 ADD CALLDATALOAD PUSH8 0xFFFFFFFFFFFFFFFF DUP2 GT ISZERO PUSH2 0xD5C JUMPI PUSH2 0xD5B PUSH2 0xAAB JUMP JUMPDEST JUMPDEST PUSH2 0xD68 DUP9 DUP3 DUP10 ADD PUSH2 0xC53 JUMP JUMPDEST SWAP3 POP POP PUSH1 0x80 DUP7 ADD CALLDATALOAD PUSH8 0xFFFFFFFFFFFFFFFF DUP2 GT ISZERO PUSH2 0xD89 JUMPI PUSH2 0xD88 PUSH2 0xAAB JUMP JUMPDEST JUMPDEST PUSH2 0xD95 DUP9 DUP3 DUP10 ADD PUSH2 0xC53 JUMP JUMPDEST SWAP2 POP POP SWAP3 SWAP6 POP SWAP3 SWAP6 SWAP1 SWAP4 POP JUMP JUMPDEST PUSH1 0x0 DUP2 ISZERO ISZERO SWAP1 POP SWAP2 SWAP1 POP JUMP JUMPDEST PUSH2 0xDB7 DUP2 PUSH2 0xDA2 JUMP JUMPDEST DUP3 MSTORE POP POP JUMP JUMPDEST PUSH1 0x0 PUSH1 0x20 DUP3 ADD SWAP1 POP PUSH2 0xDD2 PUSH1 0x0 DUP4 ADD DUP5 PUSH2 0xDAE JUMP JUMPDEST SWAP3 SWAP2 POP POP JUMP JUMPDEST PUSH2 0xDE1 DUP2 PUSH2 0xAD0 JUMP JUMPDEST DUP3 MSTORE POP POP JUMP JUMPDEST PUSH1 0x0 PUSH1 0x20 DUP3 ADD SWAP1 POP PUSH2 0xDFC PUSH1 0x0 DUP4 ADD DUP5 PUSH2 0xDD8 JUMP JUMPDEST SWAP3 SWAP2 POP POP JUMP JUMPDEST PUSH1 0x0 PUSH1 0x20 DUP3 DUP5 SUB SLT ISZERO PUSH2 0xE18 JUMPI PUSH2 0xE17 PUSH2 0xAA6 JUMP JUMPDEST JUMPDEST PUSH1 0x0 DUP3 ADD CALLDATALOAD PUSH8 0xFFFFFFFFFFFFFFFF DUP2 GT ISZERO PUSH2 0xE36 JUMPI PUSH2 0xE35 PUSH2 0xAAB JUMP JUMPDEST JUMPDEST PUSH2 0xE42 DUP5 DUP3 DUP6 ADD PUSH2 0xC53 JUMP JUMPDEST SWAP2 POP POP SWAP3 SWAP2 POP POP JUMP JUMPDEST PUSH2 0xE54 DUP2 PUSH2 0xC81 JUMP JUMPDEST DUP3 MSTORE POP POP JUMP JUMPDEST PUSH1 0x0 PUSH1 0x20 DUP3 ADD SWAP1 POP PUSH2 0xE6F PUSH1 0x0 DUP4 ADD DUP5 PUSH2 0xE4B JUMP JUMPDEST SWAP3 SWAP2 POP POP JUMP JUMPDEST PUSH1 0x0 DUP1 PUSH1 0x40 DUP4 DUP6 SUB SLT ISZERO PUSH2 0xE8C JUMPI PUSH2 0xE8B PUSH2 0xAA6 JUMP JUMPDEST JUMPDEST PUSH1 0x0 DUP4 ADD CALLDATALOAD PUSH8 0xFFFFFFFFFFFFFFFF DUP2 GT ISZERO PUSH2 0xEAA JUMPI PUSH2 0xEA9 PUSH2 0xAAB JUMP JUMPDEST JUMPDEST PUSH2 0xEB6 DUP6 DUP3 DUP7 ADD PUSH2 0xC53 JUMP JUMPDEST SWAP3 POP POP PUSH1 0x20 PUSH2 0xEC7 DUP6 DUP3 DUP7 ADD PUSH2 0xAF9 JUMP JUMPDEST SWAP2 POP POP SWAP3 POP SWAP3 SWAP1 POP JUMP JUMPDEST PUSH1 0x0 DUP3 DUP3 MSTORE PUSH1 0x20 DUP3 ADD SWAP1 POP SWAP3 SWAP2 POP POP JUMP JUMPDEST PUSH32 0x4F776E61626C653A2063616C6C6572206973206E6F7420746865206F776E6572 PUSH1 0x0 DUP3 ADD MSTORE POP JUMP JUMPDEST PUSH1 0x0 PUSH2 0xF18 PUSH1 0x20 DUP4 PUSH2 0xED1 JUMP JUMPDEST SWAP2 POP PUSH2 0xF23 DUP3 PUSH2 0xEE2 JUMP JUMPDEST PUSH1 0x20 DUP3 ADD SWAP1 POP SWAP2 SWAP1 POP JUMP JUMPDEST PUSH1 0x0 PUSH1 0x20 DUP3 ADD SWAP1 POP DUP2 DUP2 SUB PUSH1 0x0 DUP4 ADD MSTORE PUSH2 0xF47 DUP2 PUSH2 0xF0B JUMP JUMPDEST SWAP1 POP SWAP2 SWAP1 POP JUMP JUMPDEST PUSH1 0x0 DUP2 MLOAD SWAP1 POP SWAP2 SWAP1 POP JUMP JUMPDEST PUSH1 0x0 JUMPDEST DUP4 DUP2 LT ISZERO PUSH2 0xF77 JUMPI DUP1 DUP3 ADD MLOAD DUP2 DUP5 ADD MSTORE PUSH1 0x20 DUP2 ADD SWAP1 POP PUSH2 0xF5C JUMP JUMPDEST DUP4 DUP2 GT ISZERO PUSH2 0xF86 JUMPI PUSH1 0x0 DUP5 DUP5 ADD MSTORE JUMPDEST POP POP POP POP JUMP JUMPDEST PUSH1 0x0 PUSH2 0xF97 DUP3 PUSH2 0xF4E JUMP JUMPDEST PUSH2 0xFA1 DUP2 DUP6 PUSH2 0x9E2 JUMP JUMPDEST SWAP4 POP PUSH2 0xFB1 DUP2 DUP6 PUSH1 0x20 DUP7 ADD PUSH2 0xF59 JUMP JUMPDEST DUP1 DUP5 ADD SWAP2 POP POP SWAP3 SWAP2 POP POP JUMP JUMPDEST PUSH1 0x0 PUSH2 0xFC9 DUP3 DUP5 PUSH2 0xF8C JUMP JUMPDEST SWAP2 POP DUP2 SWAP1 POP SWAP3 SWAP2 POP POP JUMP JUMPDEST PUSH1 0x0 PUSH2 0xFDF DUP3 PUSH2 0xF4E JUMP JUMPDEST PUSH2 0xFE9 DUP2 DUP6 PUSH2 0xED1 JUMP JUMPDEST SWAP4 POP PUSH2 0xFF9 DUP2 DUP6 PUSH1 0x20 DUP7 ADD PUSH2 0xF59 JUMP JUMPDEST PUSH2 0x1002 DUP2 PUSH2 0xB45 JUMP JUMPDEST DUP5 ADD SWAP2 POP POP SWAP3 SWAP2 POP POP JUMP JUMPDEST PUSH1 0x0 PUSH1 0xA0 DUP3 ADD SWAP1 POP DUP2 DUP2 SUB PUSH1 0x0 DUP4 ADD MSTORE PUSH2 0x1027 DUP2 DUP9 PUSH2 0xFD4 JUMP JUMPDEST SWAP1 POP DUP2 DUP2 SUB PUSH1 0x20 DUP4 ADD MSTORE PUSH2 0x103B DUP2 DUP8 PUSH2 0xFD4 JUMP JUMPDEST SWAP1 POP PUSH2 0x104A PUSH1 0x40 DUP4 ADD DUP7 PUSH2 0xE4B JUMP JUMPDEST DUP2 DUP2 SUB PUSH1 0x60 DUP4 ADD MSTORE PUSH2 0x105C DUP2 DUP6 PUSH2 0xFD4 JUMP JUMPDEST SWAP1 POP DUP2 DUP2 SUB PUSH1 0x80 DUP4 ADD MSTORE PUSH2 0x1070 DUP2 DUP5 PUSH2 0xFD4 JUMP JUMPDEST SWAP1 POP SWAP7 SWAP6 POP POP POP POP POP POP JUMP JUMPDEST PUSH1 0x0 PUSH1 0x40 DUP3 ADD SWAP1 POP PUSH2 0x1091 PUSH1 0x0 DUP4 ADD DUP6 PUSH2 0xDD8 JUMP JUMPDEST PUSH2 0x109E PUSH1 0x20 DUP4 ADD DUP5 PUSH2 0xE4B JUMP JUMPDEST SWAP4 SWAP3 POP POP POP JUMP JUMPDEST PUSH1 0x0 PUSH1 0x20 PUSH1 0x1F DUP4 ADD DIV SWAP1 POP SWAP2 SWAP1 POP JUMP JUMPDEST PUSH1 0x0 DUP3 DUP3 SHL SWAP1 POP SWAP3 SWAP2 POP POP JUMP JUMPDEST PUSH1 0x0 PUSH1 0x8 DUP4 MUL PUSH2 0x10F2 PUSH32 0xFFFFFFFFFFFFFFFFFFFFFFFFFFFFFFFFFFFFFFFFFFFFFFFFFFFFFFFFFFFFFFFF DUP3 PUSH2 0x10B5 JUMP JUMPDEST PUSH2 0x10FC DUP7 DUP4 PUSH2 0x10B5 JUMP JUMPDEST SWAP6 POP DUP1 NOT DUP5 AND SWAP4 POP DUP1 DUP7 AND DUP5 OR SWAP3 POP POP POP SWAP4 SWAP3 POP POP POP JUMP JUMPDEST PUSH1 0x0 DUP2 SWAP1 POP SWAP2 SWAP1 POP JUMP JUMPDEST PUSH1 0x0 PUSH2 0x1139 PUSH2 0x1134 PUSH2 0x112F DUP5 PUSH2 0xC81 JUMP JUMPDEST PUSH2 0x1114 JUMP JUMPDEST PUSH2 0xC81 JUMP JUMPDEST SWAP1 POP SWAP2 SWAP1 POP JUMP JUMPDEST PUSH1 0x0 DUP2 SWAP1 POP SWAP2 SWAP1 POP JUMP JUMPDEST PUSH2 0x1153 DUP4 PUSH2 0x111E JUMP JUMPDEST PUSH2 0x1167 PUSH2 0x115F DUP3 PUSH2 0x1140 JUMP JUMPDEST DUP5 DUP5 SLOAD PUSH2 0x10C2 JUMP JUMPDEST DUP3 SSTORE POP POP POP POP JUMP JUMPDEST PUSH1 0x0 SWAP1 JUMP JUMPDEST PUSH2 0x117C PUSH2 0x116F JUMP JUMPDEST PUSH2 0x1187 DUP2 DUP5 DUP5 PUSH2 0x114A JUMP JUMPDEST POP POP POP JUMP JUMPDEST JUMPDEST DUP2 DUP2 LT ISZERO PUSH2 0x11AB JUMPI PUSH2 0x11A0 PUSH1 0x0 DUP3 PUSH2 0x1174 JUMP JUMPDEST PUSH1 0x1 DUP2 ADD SWAP1 POP PUSH2 0x118D JUMP JUMPDEST POP POP JUMP JUMPDEST PUSH1 0x1F DUP3 GT ISZERO PUSH2 0x11F0 JUMPI PUSH2 0x11C1 DUP2 PUSH2 0x9ED JUMP JUMPDEST PUSH2 0x11CA DUP5 PUSH2 0x10A5 JUMP JUMPDEST DUP2 ADD PUSH1 0x20 DUP6 LT ISZERO PUSH2 0x11D9 JUMPI DUP2 SWAP1 POP JUMPDEST PUSH2 0x11ED PUSH2 0x11E5 DUP6 PUSH2 0x10A5 JUMP JUMPDEST DUP4 ADD DUP3 PUSH2 0x118C JUMP JUMPDEST POP POP JUMPDEST POP POP POP JUMP JUMPDEST PUSH1 0x0 DUP3 DUP3 SHR SWAP1 POP SWAP3 SWAP2 POP POP JUMP JUMPDEST PUSH1 0x0 PUSH2 0x1213 PUSH1 0x0 NOT DUP5 PUSH1 0x8 MUL PUSH2 0x11F5 JUMP JUMPDEST NOT DUP1 DUP4 AND SWAP2 POP POP SWAP3 SWAP2 POP POP JUMP JUMPDEST PUSH1 0x0 PUSH2 0x122C DUP4 DUP4 PUSH2 0x1202 JUMP JUMPDEST SWAP2 POP DUP3 PUSH1 0x2 MUL DUP3 OR SWAP1 POP SWAP3 SWAP2 POP POP JUMP JUMPDEST PUSH2 0x1245 DUP3 PUSH2 0xF4E JUMP JUMPDEST PUSH8 0xFFFFFFFFFFFFFFFF DUP2 GT ISZERO PUSH2 0x125E JUMPI PUSH2 0x125D PUSH2 0xB56 JUMP JUMPDEST JUMPDEST PUSH2 0x1268 DUP3 SLOAD PUSH2 0x9B1 JUMP JUMPDEST PUSH2 0x1273 DUP3 DUP3 DUP6 PUSH2 0x11AF JUMP JUMPDEST PUSH1 0x0 PUSH1 0x20 SWAP1 POP PUSH1 0x1F DUP4 GT PUSH1 0x1 DUP2 EQ PUSH2 0x12A6 JUMPI PUSH1 0x0 DUP5 ISZERO PUSH2 0x1294 JUMPI DUP3 DUP8 ADD MLOAD SWAP1 POP JUMPDEST PUSH2 0x129E DUP6 DUP3 PUSH2 0x1220 JUMP JUMPDEST DUP7 SSTORE POP PUSH2 0x1306 JUMP JUMPDEST PUSH1 0x1F NOT DUP5 AND PUSH2 0x12B4 DUP7 PUSH2 0x9ED JUMP JUMPDEST PUSH1 0x0 JUMPDEST DUP3 DUP2 LT ISZERO PUSH2 0x12DC JUMPI DUP5 DUP10 ADD MLOAD DUP3 SSTORE PUSH1 0x1 DUP3 ADD SWAP2 POP PUSH1 0x20 DUP6 ADD SWAP5 POP PUSH1 0x20 DUP2 ADD SWAP1 POP PUSH2 0x12B7 JUMP JUMPDEST DUP7 DUP4 LT ISZERO PUSH2 0x12F9 JUMPI DUP5 DUP10 ADD MLOAD PUSH2 0x12F5 PUSH1 0x1F DUP10 AND DUP3 PUSH2 0x1202 JUMP JUMPDEST DUP4 SSTORE POP JUMPDEST PUSH1 0x1 PUSH1 0x2 DUP9 MUL ADD DUP9 SSTORE POP POP POP JUMPDEST POP POP POP POP POP POP JUMP INVALID LOG2 PUSH5 0x6970667358 0x22 SLT KECCAK256 PUSH5 0x7CE0CACFAF BLOCKHASH CALLDATASIZE 0x26 0x2B SELFBALANCE PUSH25 0xC1757D27856B8579B811B5DE8D14EB56F2675A64736F6C63 NUMBER STOP ADDMOD 0xF STOP CALLER "
				},
				"gasEstimates": {
					"creation": {
						"codeDepositCost": "986400",
						"executionCost": "49559",
						"totalCost": "1035959"
					},
					"external": {
						"_owner()": "2511",
						"isOwner()": "2563",
						"issueCertificate(string,string,uint256,string,string)": "infinite",
						"returnStakedEther(address)": "475",
						"setAdmin(address)": "26972",
						"setOwner(address)": "26928",
						"stakedAmount(address)": "2880",
						"updateCertificateRecipient(string)": "infinite",
						"updateCertificateRecipientForStaking(string,address)": "infinite"
					}
				},
				"methodIdentifiers": {
					"_owner()": "b2bdfa7b",
					"isOwner()": "8f32d59b",
					"issueCertificate(string,string,uint256,string,string)": "5bbe4ac3",
					"returnStakedEther(address)": "e9e65331",
					"setAdmin(address)": "704b6c02",
					"setOwner(address)": "13af4035",
					"stakedAmount(address)": "f9931855",
					"updateCertificateRecipient(string)": "e9351558",
					"updateCertificateRecipientForStaking(string,address)": "fe49048a"
				}
			},
			"storageLayout": {
				"storage": [
					{
						"astId": 236,
						"contract": "certificateissuer.sol:CertificateIssuer",
						"label": "_owner",
						"offset": 0,
						"slot": "0",
						"type": "t_address"
					},
					{
						"astId": 29,
						"contract": "certificateissuer.sol:CertificateIssuer",
						"label": "cauthValid",
						"offset": 0,
						"slot": "1",
						"type": "t_mapping(t_string_memory_ptr,t_bool)"
					},
					{
						"astId": 33,
						"contract": "certificateissuer.sol:CertificateIssuer",
						"label": "cauthToCanStake",
						"offset": 0,
						"slot": "2",
						"type": "t_mapping(t_string_memory_ptr,t_bool)"
					},
					{
						"astId": 37,
						"contract": "certificateissuer.sol:CertificateIssuer",
						"label": "cauthToAddress",
						"offset": 0,
						"slot": "3",
						"type": "t_mapping(t_string_memory_ptr,t_address)"
					},
					{
						"astId": 39,
						"contract": "certificateissuer.sol:CertificateIssuer",
						"label": "_admin",
						"offset": 0,
						"slot": "4",
						"type": "t_address"
					},
					{
						"astId": 43,
						"contract": "certificateissuer.sol:CertificateIssuer",
						"label": "adressToCauth",
						"offset": 0,
						"slot": "5",
						"type": "t_mapping(t_address,t_string_storage)"
					},
					{
						"astId": 47,
						"contract": "certificateissuer.sol:CertificateIssuer",
						"label": "stakedAmount",
						"offset": 0,
						"slot": "6",
						"type": "t_mapping(t_address,t_uint256)"
					}
				],
				"types": {
					"t_address": {
						"encoding": "inplace",
						"label": "address",
						"numberOfBytes": "20"
					},
					"t_bool": {
						"encoding": "inplace",
						"label": "bool",
						"numberOfBytes": "1"
					},
					"t_mapping(t_address,t_string_storage)": {
						"encoding": "mapping",
						"key": "t_address",
						"label": "mapping(address => string)",
						"numberOfBytes": "32",
						"value": "t_string_storage"
					},
					"t_mapping(t_address,t_uint256)": {
						"encoding": "mapping",
						"key": "t_address",
						"label": "mapping(address => uint256)",
						"numberOfBytes": "32",
						"value": "t_uint256"
					},
					"t_mapping(t_string_memory_ptr,t_address)": {
						"encoding": "mapping",
						"key": "t_string_memory_ptr",
						"label": "mapping(string => address)",
						"numberOfBytes": "32",
						"value": "t_address"
					},
					"t_mapping(t_string_memory_ptr,t_bool)": {
						"encoding": "mapping",
						"key": "t_string_memory_ptr",
						"label": "mapping(string => bool)",
						"numberOfBytes": "32",
						"value": "t_bool"
					},
					"t_string_memory_ptr": {
						"encoding": "bytes",
						"label": "string",
						"numberOfBytes": "32"
					},
					"t_string_storage": {
						"encoding": "bytes",
						"label": "string",
						"numberOfBytes": "32"
					},
					"t_uint256": {
						"encoding": "inplace",
						"label": "uint256",
						"numberOfBytes": "32"
					}
				}
			},
			"userdoc": {
				"kind": "user",
				"methods": {},
				"version": 1
			}
		}
	}
}