{
	"certificateissuer.sol": {
		"CertificateIssuer": {
			"abi": [
				{
					"inputs": [],
					"stateMutability": "nonpayable",
					"type": "constructor"
				},
				{
					"anonymous": false,
					"inputs": [
						{
							"indexed": false,
							"internalType": "string",
							"name": "_name",
							"type": "string"
						},
						{
							"indexed": false,
							"internalType": "string",
							"name": "_courseTittle",
							"type": "string"
						},
						{
							"indexed": false,
							"internalType": "uint256",
							"name": "_duration",
							"type": "uint256"
						},
						{
							"indexed": false,
							"internalType": "uint256",
							"name": "institute",
							"type": "uint256"
						},
						{
							"indexed": false,
							"internalType": "string",
							"name": "cauth",
							"type": "string"
						}
					],
					"name": "certificateIssued",
					"type": "event"
				},
				{
					"anonymous": false,
					"inputs": [
						{
							"indexed": false,
							"internalType": "address",
							"name": "_studentAddress",
							"type": "address"
						},
						{
							"indexed": false,
							"internalType": "uint256",
							"name": "_amount",
							"type": "uint256"
						}
					],
					"name": "stakeReturned",
					"type": "event"
				},
				{
					"inputs": [],
					"name": "_owner",
					"outputs": [
						{
							"internalType": "address",
							"name": "",
							"type": "address"
						}
					],
					"stateMutability": "view",
					"type": "function"
				},
				{
					"inputs": [],
					"name": "isOwner",
					"outputs": [
						{
							"internalType": "bool",
							"name": "",
							"type": "bool"
						}
					],
					"stateMutability": "view",
					"type": "function"
				},
				{
					"inputs": [
						{
							"internalType": "string",
							"name": "_name",
							"type": "string"
						},
						{
							"internalType": "string",
							"name": "_courseTittle",
							"type": "string"
						},
						{
							"internalType": "uint256",
							"name": "_duration",
							"type": "uint256"
						},
						{
							"internalType": "uint256",
							"name": "institute",
							"type": "uint256"
						},
						{
							"internalType": "string",
							"name": "cauth",
							"type": "string"
						},
						{
							"internalType": "bool",
							"name": "_expirable",
							"type": "bool"
						},
						{
							"internalType": "uint256",
							"name": "",
							"type": "uint256"
						}
					],
					"name": "issueCertificate",
					"outputs": [],
					"stateMutability": "payable",
					"type": "function"
				},
				{
					"inputs": [
						{
							"internalType": "address",
							"name": "_studentAddress",
							"type": "address"
						}
					],
					"name": "returnStakedEther",
					"outputs": [],
					"stateMutability": "payable",
					"type": "function"
				},
				{
					"inputs": [
						{
							"internalType": "address",
							"name": "_adminParameter",
							"type": "address"
						}
					],
					"name": "setAdmin",
					"outputs": [],
					"stateMutability": "nonpayable",
					"type": "function"
				},
				{
					"inputs": [
						{
							"internalType": "address",
							"name": "_newOwner",
							"type": "address"
						}
					],
					"name": "setOwner",
					"outputs": [],
					"stateMutability": "nonpayable",
					"type": "function"
				},
				{
					"inputs": [
						{
							"internalType": "address",
							"name": "",
							"type": "address"
						}
					],
					"name": "stakedAmount",
					"outputs": [
						{
							"internalType": "uint256",
							"name": "",
							"type": "uint256"
						}
					],
					"stateMutability": "view",
					"type": "function"
				},
				{
					"inputs": [
						{
							"internalType": "string",
							"name": "cauth",
							"type": "string"
						}
					],
					"name": "updateCertificateRecipient",
					"outputs": [],
					"stateMutability": "nonpayable",
					"type": "function"
				},
				{
					"inputs": [
						{
							"internalType": "string",
							"name": "cauth",
							"type": "string"
						},
						{
							"internalType": "address",
							"name": "_staker",
							"type": "address"
						}
					],
					"name": "updateCertificateRecipientForStaking",
					"outputs": [],
					"stateMutability": "nonpayable",
					"type": "function"
				},
				{
					"stateMutability": "payable",
					"type": "receive"
				}
			],
			"devdoc": {
				"kind": "dev",
				"methods": {
					"isOwner()": {
						"details": "Returns true if the caller is the current owner."
					}
				},
				"version": 1
			},
			"evm": {
				"assembly": "    /* \"certificateissuer.sol\":89:3697  contract CertificateIssuer is Ownable{... */\n  mstore(0x40, 0x80)\n    /* \"certificateissuer.sol\":133:187  constructor (){... */\n  callvalue\n  dup1\n  iszero\n  tag_1\n  jumpi\n  0x00\n  dup1\n  revert\ntag_1:\n  pop\n    /* \"ownable.sol\":150:160  msg.sender */\n  caller\n    /* \"ownable.sol\":141:147  _owner */\n  0x00\n  dup1\n    /* \"ownable.sol\":141:160  _owner = msg.sender */\n  0x0100\n  exp\n  dup2\n  sload\n  dup2\n  0xffffffffffffffffffffffffffffffffffffffff\n  mul\n  not\n  and\n  swap1\n  dup4\n  0xffffffffffffffffffffffffffffffffffffffff\n  and\n  mul\n  or\n  swap1\n  sstore\n  pop\n    /* \"certificateissuer.sol\":167:177  msg.sender */\n  caller\n    /* \"certificateissuer.sol\":158:164  _admin */\n  0x04\n  0x00\n    /* \"certificateissuer.sol\":158:177  _admin = msg.sender */\n  0x0100\n  exp\n  dup2\n  sload\n  dup2\n  0xffffffffffffffffffffffffffffffffffffffff\n  mul\n  not\n  and\n  swap1\n  dup4\n  0xffffffffffffffffffffffffffffffffffffffff\n  and\n  mul\n  or\n  swap1\n  sstore\n  pop\n    /* \"certificateissuer.sol\":89:3697  contract CertificateIssuer is Ownable{... */\n  dataSize(sub_0)\n  dup1\n  dataOffset(sub_0)\n  0x00\n  codecopy\n  0x00\n  return\nstop\n\nsub_0: assembly {\n        /* \"certificateissuer.sol\":89:3697  contract CertificateIssuer is Ownable{... */\n      mstore(0x40, 0x80)\n      jumpi(tag_1, lt(calldatasize, 0x04))\n      shr(0xe0, calldataload(0x00))\n      dup1\n      0xe9351558\n      gt\n      tag_12\n      jumpi\n      dup1\n      0xe9351558\n      eq\n      tag_7\n      jumpi\n      dup1\n      0xe9e65331\n      eq\n      tag_8\n      jumpi\n      dup1\n      0xf24426ae\n      eq\n      tag_9\n      jumpi\n      dup1\n      0xf9931855\n      eq\n      tag_10\n      jumpi\n      dup1\n      0xfe49048a\n      eq\n      tag_11\n      jumpi\n      jump(tag_2)\n    tag_12:\n      dup1\n      0x13af4035\n      eq\n      tag_3\n      jumpi\n      dup1\n      0x704b6c02\n      eq\n      tag_4\n      jumpi\n      dup1\n      0x8f32d59b\n      eq\n      tag_5\n      jumpi\n      dup1\n      0xb2bdfa7b\n      eq\n      tag_6\n      jumpi\n      jump(tag_2)\n    tag_1:\n      jumpi(tag_2, calldatasize)\n        /* \"certificateissuer.sol\":3587:3602  cauthToCanStake */\n      0x02\n        /* \"certificateissuer.sol\":3603:3616  adressToCauth */\n      0x05\n        /* \"certificateissuer.sol\":3603:3628  adressToCauth[msg.sender] */\n      0x00\n        /* \"certificateissuer.sol\":3617:3627  msg.sender */\n      caller\n        /* \"certificateissuer.sol\":3603:3628  adressToCauth[msg.sender] */\n      0xffffffffffffffffffffffffffffffffffffffff\n      and\n      0xffffffffffffffffffffffffffffffffffffffff\n      and\n      dup2\n      mstore\n      0x20\n      add\n      swap1\n      dup2\n      mstore\n      0x20\n      add\n      0x00\n      keccak256\n        /* \"certificateissuer.sol\":3587:3629  cauthToCanStake[adressToCauth[msg.sender]] */\n      mload(0x40)\n      tag_15\n      swap2\n      swap1\n      tag_16\n      jump\t// in\n    tag_15:\n      swap1\n      dup2\n      mstore\n      0x20\n      add\n      mload(0x40)\n      dup1\n      swap2\n      sub\n      swap1\n      keccak256\n      0x00\n      swap1\n      sload\n      swap1\n      0x0100\n      exp\n      swap1\n      div\n      0xff\n      and\n        /* \"certificateissuer.sol\":3579:3630  require(cauthToCanStake[adressToCauth[msg.sender]]) */\n      tag_17\n      jumpi\n      0x00\n      dup1\n      revert\n    tag_17:\n        /* \"certificateissuer.sol\":3670:3679  msg.value */\n      callvalue\n        /* \"certificateissuer.sol\":3643:3655  stakedAmount */\n      0x06\n        /* \"certificateissuer.sol\":3643:3667  stakedAmount[msg.sender] */\n      0x00\n        /* \"certificateissuer.sol\":3656:3666  msg.sender */\n      caller\n        /* \"certificateissuer.sol\":3643:3667  stakedAmount[msg.sender] */\n      0xffffffffffffffffffffffffffffffffffffffff\n      and\n      0xffffffffffffffffffffffffffffffffffffffff\n      and\n      dup2\n      mstore\n      0x20\n      add\n      swap1\n      dup2\n      mstore\n      0x20\n      add\n      0x00\n      keccak256\n        /* \"certificateissuer.sol\":3643:3679  stakedAmount[msg.sender] = msg.value */\n      dup2\n      swap1\n      sstore\n      stop\n        /* \"certificateissuer.sol\":89:3697  contract CertificateIssuer is Ownable{... */\n    tag_2:\n      0x00\n      dup1\n      revert\n        /* \"ownable.sol\":551:643  function setOwner(address _newOwner) public onlyOwner {... */\n    tag_3:\n      callvalue\n      dup1\n      iszero\n      tag_18\n      jumpi\n      0x00\n      dup1\n      revert\n    tag_18:\n      pop\n      tag_19\n      0x04\n      dup1\n      calldatasize\n      sub\n      dup2\n      add\n      swap1\n      tag_20\n      swap2\n      swap1\n      tag_21\n      jump\t// in\n    tag_20:\n      tag_22\n      jump\t// in\n    tag_19:\n      stop\n        /* \"certificateissuer.sol\":799:903  function setAdmin(address _adminParameter) public onlyOwner{... */\n    tag_4:\n      callvalue\n      dup1\n      iszero\n      tag_23\n      jumpi\n      0x00\n      dup1\n      revert\n    tag_23:\n      pop\n      tag_24\n      0x04\n      dup1\n      calldatasize\n      sub\n      dup2\n      add\n      swap1\n      tag_25\n      swap2\n      swap1\n      tag_21\n      jump\t// in\n    tag_25:\n      tag_26\n      jump\t// in\n    tag_24:\n      stop\n        /* \"ownable.sol\":451:545  function isOwner() public view returns (bool) {... */\n    tag_5:\n      callvalue\n      dup1\n      iszero\n      tag_27\n      jumpi\n      0x00\n      dup1\n      revert\n    tag_27:\n      pop\n      tag_28\n      tag_29\n      jump\t// in\n    tag_28:\n      mload(0x40)\n      tag_30\n      swap2\n      swap1\n      tag_31\n      jump\t// in\n    tag_30:\n      mload(0x40)\n      dup1\n      swap2\n      sub\n      swap1\n      return\n        /* \"ownable.sol\":85:106  address public _owner */\n    tag_6:\n      callvalue\n      dup1\n      iszero\n      tag_32\n      jumpi\n      0x00\n      dup1\n      revert\n    tag_32:\n      pop\n      tag_33\n      tag_34\n      jump\t// in\n    tag_33:\n      mload(0x40)\n      tag_35\n      swap2\n      swap1\n      tag_36\n      jump\t// in\n    tag_35:\n      mload(0x40)\n      dup1\n      swap2\n      sub\n      swap1\n      return\n        /* \"certificateissuer.sol\":1940:2173  function updateCertificateRecipient(string memory cauth) public  {... */\n    tag_7:\n      callvalue\n      dup1\n      iszero\n      tag_37\n      jumpi\n      0x00\n      dup1\n      revert\n    tag_37:\n      pop\n      tag_38\n      0x04\n      dup1\n      calldatasize\n      sub\n      dup2\n      add\n      swap1\n      tag_39\n      swap2\n      swap1\n      tag_40\n      jump\t// in\n    tag_39:\n      tag_41\n      jump\t// in\n    tag_38:\n      stop\n        /* \"certificateissuer.sol\":3445:3529  function returnStakedEther(address _studentAddress) public payable{... */\n    tag_8:\n      tag_42\n      0x04\n      dup1\n      calldatasize\n      sub\n      dup2\n      add\n      swap1\n      tag_43\n      swap2\n      swap1\n      tag_21\n      jump\t// in\n    tag_43:\n      tag_44\n      jump\t// in\n    tag_42:\n      stop\n        /* \"certificateissuer.sol\":2702:3437  function issueCertificate(string memory _name , string memory _courseTittle, uint _duration , uint institute,string memory cauth, bool _expirable , uint  ) external payable  {... */\n    tag_9:\n      tag_45\n      0x04\n      dup1\n      calldatasize\n      sub\n      dup2\n      add\n      swap1\n      tag_46\n      swap2\n      swap1\n      tag_47\n      jump\t// in\n    tag_46:\n      tag_48\n      jump\t// in\n    tag_45:\n      stop\n        /* \"certificateissuer.sol\":551:596  mapping(address =>  uint) public stakedAmount */\n    tag_10:\n      callvalue\n      dup1\n      iszero\n      tag_49\n      jumpi\n      0x00\n      dup1\n      revert\n    tag_49:\n      pop\n      tag_50\n      0x04\n      dup1\n      calldatasize\n      sub\n      dup2\n      add\n      swap1\n      tag_51\n      swap2\n      swap1\n      tag_21\n      jump\t// in\n    tag_51:\n      tag_52\n      jump\t// in\n    tag_50:\n      mload(0x40)\n      tag_53\n      swap2\n      swap1\n      tag_54\n      jump\t// in\n    tag_53:\n      mload(0x40)\n      dup1\n      swap2\n      sub\n      swap1\n      return\n        /* \"certificateissuer.sol\":2349:2694  function updateCertificateRecipientForStaking(string memory cauth,address _staker ) public   {... */\n    tag_11:\n      callvalue\n      dup1\n      iszero\n      tag_55\n      jumpi\n      0x00\n      dup1\n      revert\n    tag_55:\n      pop\n      tag_56\n      0x04\n      dup1\n      calldatasize\n      sub\n      dup2\n      add\n      swap1\n      tag_57\n      swap2\n      swap1\n      tag_58\n      jump\t// in\n    tag_57:\n      tag_59\n      jump\t// in\n    tag_56:\n      stop\n        /* \"ownable.sol\":551:643  function setOwner(address _newOwner) public onlyOwner {... */\n    tag_22:\n        /* \"ownable.sol\":299:308  isOwner() */\n      tag_61\n        /* \"ownable.sol\":299:306  isOwner */\n      tag_29\n        /* \"ownable.sol\":299:308  isOwner() */\n      jump\t// in\n    tag_61:\n        /* \"ownable.sol\":291:345  require(isOwner(), \"Ownable: caller is not the owner\") */\n      tag_62\n      jumpi\n      mload(0x40)\n      0x08c379a000000000000000000000000000000000000000000000000000000000\n      dup2\n      mstore\n      0x04\n      add\n      tag_63\n      swap1\n      tag_64\n      jump\t// in\n    tag_63:\n      mload(0x40)\n      dup1\n      swap2\n      sub\n      swap1\n      revert\n    tag_62:\n        /* \"ownable.sol\":625:634  _newOwner */\n      dup1\n        /* \"ownable.sol\":616:622  _owner */\n      0x00\n      dup1\n        /* \"ownable.sol\":616:634  _owner = _newOwner */\n      0x0100\n      exp\n      dup2\n      sload\n      dup2\n      0xffffffffffffffffffffffffffffffffffffffff\n      mul\n      not\n      and\n      swap1\n      dup4\n      0xffffffffffffffffffffffffffffffffffffffff\n      and\n      mul\n      or\n      swap1\n      sstore\n      pop\n        /* \"ownable.sol\":551:643  function setOwner(address _newOwner) public onlyOwner {... */\n      pop\n      jump\t// out\n        /* \"certificateissuer.sol\":799:903  function setAdmin(address _adminParameter) public onlyOwner{... */\n    tag_26:\n        /* \"ownable.sol\":299:308  isOwner() */\n      tag_67\n        /* \"ownable.sol\":299:306  isOwner */\n      tag_29\n        /* \"ownable.sol\":299:308  isOwner() */\n      jump\t// in\n    tag_67:\n        /* \"ownable.sol\":291:345  require(isOwner(), \"Ownable: caller is not the owner\") */\n      tag_68\n      jumpi\n      mload(0x40)\n      0x08c379a000000000000000000000000000000000000000000000000000000000\n      dup2\n      mstore\n      0x04\n      add\n      tag_69\n      swap1\n      tag_64\n      jump\t// in\n    tag_69:\n      mload(0x40)\n      dup1\n      swap2\n      sub\n      swap1\n      revert\n    tag_68:\n        /* \"certificateissuer.sol\":878:893  _adminParameter */\n      dup1\n        /* \"certificateissuer.sol\":869:875  _admin */\n      0x04\n      0x00\n        /* \"certificateissuer.sol\":869:893  _admin = _adminParameter */\n      0x0100\n      exp\n      dup2\n      sload\n      dup2\n      0xffffffffffffffffffffffffffffffffffffffff\n      mul\n      not\n      and\n      swap1\n      dup4\n      0xffffffffffffffffffffffffffffffffffffffff\n      and\n      mul\n      or\n      swap1\n      sstore\n      pop\n        /* \"certificateissuer.sol\":799:903  function setAdmin(address _adminParameter) public onlyOwner{... */\n      pop\n      jump\t// out\n        /* \"ownable.sol\":451:545  function isOwner() public view returns (bool) {... */\n    tag_29:\n        /* \"ownable.sol\":491:495  bool */\n      0x00\n        /* \"ownable.sol\":530:536  _owner */\n      dup1\n      0x00\n      swap1\n      sload\n      swap1\n      0x0100\n      exp\n      swap1\n      div\n      0xffffffffffffffffffffffffffffffffffffffff\n      and\n        /* \"ownable.sol\":516:536  msg.sender == _owner */\n      0xffffffffffffffffffffffffffffffffffffffff\n      and\n        /* \"ownable.sol\":516:526  msg.sender */\n      caller\n        /* \"ownable.sol\":516:536  msg.sender == _owner */\n      0xffffffffffffffffffffffffffffffffffffffff\n      and\n      eq\n        /* \"ownable.sol\":508:537  return (msg.sender == _owner) */\n      swap1\n      pop\n        /* \"ownable.sol\":451:545  function isOwner() public view returns (bool) {... */\n      swap1\n      jump\t// out\n        /* \"ownable.sol\":85:106  address public _owner */\n    tag_34:\n      0x00\n      dup1\n      sload\n      swap1\n      0x0100\n      exp\n      swap1\n      div\n      0xffffffffffffffffffffffffffffffffffffffff\n      and\n      dup2\n      jump\t// out\n        /* \"certificateissuer.sol\":1940:2173  function updateCertificateRecipient(string memory cauth) public  {... */\n    tag_41:\n        /* \"certificateissuer.sol\":2038:2044  _admin */\n      0x04\n      0x00\n      swap1\n      sload\n      swap1\n      0x0100\n      exp\n      swap1\n      div\n      0xffffffffffffffffffffffffffffffffffffffff\n      and\n        /* \"certificateissuer.sol\":2024:2044  msg.sender == _admin */\n      0xffffffffffffffffffffffffffffffffffffffff\n      and\n        /* \"certificateissuer.sol\":2024:2034  msg.sender */\n      caller\n        /* \"certificateissuer.sol\":2024:2044  msg.sender == _admin */\n      0xffffffffffffffffffffffffffffffffffffffff\n      and\n      eq\n        /* \"certificateissuer.sol\":2016:2045  require(msg.sender == _admin) */\n      tag_73\n      jumpi\n      0x00\n      dup1\n      revert\n    tag_73:\n        /* \"certificateissuer.sol\":2077:2081  true */\n      0x01\n        /* \"certificateissuer.sol\":2057:2067  cauthValid */\n      dup1\n        /* \"certificateissuer.sol\":2068:2073  cauth */\n      dup3\n        /* \"certificateissuer.sol\":2057:2074  cauthValid[cauth] */\n      mload(0x40)\n      tag_74\n      swap2\n      swap1\n      tag_75\n      jump\t// in\n    tag_74:\n      swap1\n      dup2\n      mstore\n      0x20\n      add\n      mload(0x40)\n      dup1\n      swap2\n      sub\n      swap1\n      keccak256\n      0x00\n        /* \"certificateissuer.sol\":2057:2081  cauthValid[cauth] = true */\n      0x0100\n      exp\n      dup2\n      sload\n      dup2\n      0xff\n      mul\n      not\n      and\n      swap1\n      dup4\n      iszero\n      iszero\n      mul\n      or\n      swap1\n      sstore\n      pop\n        /* \"certificateissuer.sol\":2103:2113  cauthValid */\n      0x01\n        /* \"certificateissuer.sol\":2114:2119  cauth */\n      dup2\n        /* \"certificateissuer.sol\":2103:2120  cauthValid[cauth] */\n      mload(0x40)\n      tag_76\n      swap2\n      swap1\n      tag_75\n      jump\t// in\n    tag_76:\n      swap1\n      dup2\n      mstore\n      0x20\n      add\n      mload(0x40)\n      dup1\n      swap2\n      sub\n      swap1\n      keccak256\n      0x00\n      swap1\n      sload\n      swap1\n      0x0100\n      exp\n      swap1\n      div\n      0xff\n      and\n        /* \"certificateissuer.sol\":2095:2121  require(cauthValid[cauth]) */\n      tag_77\n      jumpi\n      0x00\n      dup1\n      revert\n    tag_77:\n        /* \"certificateissuer.sol\":2159:2163  true */\n      0x01\n        /* \"certificateissuer.sol\":2134:2149  cauthToCanStake */\n      0x02\n        /* \"certificateissuer.sol\":2150:2155  cauth */\n      dup3\n        /* \"certificateissuer.sol\":2134:2156  cauthToCanStake[cauth] */\n      mload(0x40)\n      tag_78\n      swap2\n      swap1\n      tag_75\n      jump\t// in\n    tag_78:\n      swap1\n      dup2\n      mstore\n      0x20\n      add\n      mload(0x40)\n      dup1\n      swap2\n      sub\n      swap1\n      keccak256\n      0x00\n        /* \"certificateissuer.sol\":2134:2163  cauthToCanStake[cauth] = true */\n      0x0100\n      exp\n      dup2\n      sload\n      dup2\n      0xff\n      mul\n      not\n      and\n      swap1\n      dup4\n      iszero\n      iszero\n      mul\n      or\n      swap1\n      sstore\n      pop\n        /* \"certificateissuer.sol\":1940:2173  function updateCertificateRecipient(string memory cauth) public  {... */\n      pop\n      jump\t// out\n        /* \"certificateissuer.sol\":3445:3529  function returnStakedEther(address _studentAddress) public payable{... */\n    tag_44:\n      pop\n      jump\t// out\n        /* \"certificateissuer.sol\":2702:3437  function issueCertificate(string memory _name , string memory _courseTittle, uint _duration , uint institute,string memory cauth, bool _expirable , uint  ) external payable  {... */\n    tag_48:\n        /* \"certificateissuer.sol\":2970:2974  true */\n      0x01\n        /* \"certificateissuer.sol\":2949:2974  cauthValid[cauth] == true */\n      iszero\n      iszero\n        /* \"certificateissuer.sol\":2949:2959  cauthValid */\n      0x01\n        /* \"certificateissuer.sol\":2960:2965  cauth */\n      dup5\n        /* \"certificateissuer.sol\":2949:2966  cauthValid[cauth] */\n      mload(0x40)\n      tag_81\n      swap2\n      swap1\n      tag_75\n      jump\t// in\n    tag_81:\n      swap1\n      dup2\n      mstore\n      0x20\n      add\n      mload(0x40)\n      dup1\n      swap2\n      sub\n      swap1\n      keccak256\n      0x00\n      swap1\n      sload\n      swap1\n      0x0100\n      exp\n      swap1\n      div\n      0xff\n      and\n        /* \"certificateissuer.sol\":2949:2974  cauthValid[cauth] == true */\n      iszero\n      iszero\n      eq\n        /* \"certificateissuer.sol\":2941:2975  require(cauthValid[cauth] == true) */\n      tag_82\n      jumpi\n      0x00\n      dup1\n      revert\n    tag_82:\n        /* \"certificateissuer.sol\":3039:3045  _admin */\n      0x04\n      0x00\n      swap1\n      sload\n      swap1\n      0x0100\n      exp\n      swap1\n      div\n      0xffffffffffffffffffffffffffffffffffffffff\n      and\n        /* \"certificateissuer.sol\":3025:3045  msg.sender == _admin */\n      0xffffffffffffffffffffffffffffffffffffffff\n      and\n        /* \"certificateissuer.sol\":3025:3035  msg.sender */\n      caller\n        /* \"certificateissuer.sol\":3025:3045  msg.sender == _admin */\n      0xffffffffffffffffffffffffffffffffffffffff\n      and\n      eq\n        /* \"certificateissuer.sol\":3017:3046  require(msg.sender == _admin) */\n      tag_83\n      jumpi\n      0x00\n      dup1\n      revert\n    tag_83:\n        /* \"certificateissuer.sol\":3091:3155  certificateIssued(_name,_courseTittle,_duration,institute,cauth) */\n      0x2ee35da94d6494eb515fd8f6fffdecd1d417dbae7e370cb1f77d709473e01d59\n        /* \"certificateissuer.sol\":3109:3114  _name */\n      dup8\n        /* \"certificateissuer.sol\":3115:3128  _courseTittle */\n      dup8\n        /* \"certificateissuer.sol\":3129:3138  _duration */\n      dup8\n        /* \"certificateissuer.sol\":3139:3148  institute */\n      dup8\n        /* \"certificateissuer.sol\":3149:3154  cauth */\n      dup8\n        /* \"certificateissuer.sol\":3091:3155  certificateIssued(_name,_courseTittle,_duration,institute,cauth) */\n      mload(0x40)\n      tag_84\n      swap6\n      swap5\n      swap4\n      swap3\n      swap2\n      swap1\n      tag_85\n      jump\t// in\n    tag_84:\n      mload(0x40)\n      dup1\n      swap2\n      sub\n      swap1\n      log1\n        /* \"certificateissuer.sol\":3224:3229  false */\n      0x00\n        /* \"certificateissuer.sol\":3204:3214  cauthValid */\n      0x01\n        /* \"certificateissuer.sol\":3215:3220  cauth */\n      dup5\n        /* \"certificateissuer.sol\":3204:3221  cauthValid[cauth] */\n      mload(0x40)\n      tag_86\n      swap2\n      swap1\n      tag_75\n      jump\t// in\n    tag_86:\n      swap1\n      dup2\n      mstore\n      0x20\n      add\n      mload(0x40)\n      dup1\n      swap2\n      sub\n      swap1\n      keccak256\n      0x00\n        /* \"certificateissuer.sol\":3204:3229  cauthValid[cauth] = false */\n      0x0100\n      exp\n      dup2\n      sload\n      dup2\n      0xff\n      mul\n      not\n      and\n      swap1\n      dup4\n      iszero\n      iszero\n      mul\n      or\n      swap1\n      sstore\n      pop\n        /* \"certificateissuer.sol\":3247:3262  cauthToCanStake */\n      0x02\n        /* \"certificateissuer.sol\":3263:3268  cauth */\n      dup4\n        /* \"certificateissuer.sol\":3247:3269  cauthToCanStake[cauth] */\n      mload(0x40)\n      tag_87\n      swap2\n      swap1\n      tag_75\n      jump\t// in\n    tag_87:\n      swap1\n      dup2\n      mstore\n      0x20\n      add\n      mload(0x40)\n      dup1\n      swap2\n      sub\n      swap1\n      keccak256\n      0x00\n      swap1\n      sload\n      swap1\n      0x0100\n      exp\n      swap1\n      div\n      0xff\n      and\n        /* \"certificateissuer.sol\":3244:3430  if(cauthToCanStake[cauth]){... */\n      iszero\n      tag_88\n      jumpi\n        /* \"certificateissuer.sol\":3285:3325  returnStakedEther(cauthToAddress[cauth]) */\n      tag_89\n        /* \"certificateissuer.sol\":3303:3317  cauthToAddress */\n      0x03\n        /* \"certificateissuer.sol\":3318:3323  cauth */\n      dup5\n        /* \"certificateissuer.sol\":3303:3324  cauthToAddress[cauth] */\n      mload(0x40)\n      tag_90\n      swap2\n      swap1\n      tag_75\n      jump\t// in\n    tag_90:\n      swap1\n      dup2\n      mstore\n      0x20\n      add\n      mload(0x40)\n      dup1\n      swap2\n      sub\n      swap1\n      keccak256\n      0x00\n      swap1\n      sload\n      swap1\n      0x0100\n      exp\n      swap1\n      div\n      0xffffffffffffffffffffffffffffffffffffffff\n      and\n        /* \"certificateissuer.sol\":3285:3302  returnStakedEther */\n      tag_44\n        /* \"certificateissuer.sol\":3285:3325  returnStakedEther(cauthToAddress[cauth]) */\n      jump\t// in\n    tag_89:\n        /* \"certificateissuer.sol\":3345:3417  stakeReturned(cauthToAddress[cauth],stakedAmount[cauthToAddress[cauth]]) */\n      0x4e5bfbe05270402fc09cd413235062e684a8396be0a33385106e3b5c34302e60\n        /* \"certificateissuer.sol\":3359:3373  cauthToAddress */\n      0x03\n        /* \"certificateissuer.sol\":3374:3379  cauth */\n      dup5\n        /* \"certificateissuer.sol\":3359:3380  cauthToAddress[cauth] */\n      mload(0x40)\n      tag_91\n      swap2\n      swap1\n      tag_75\n      jump\t// in\n    tag_91:\n      swap1\n      dup2\n      mstore\n      0x20\n      add\n      mload(0x40)\n      dup1\n      swap2\n      sub\n      swap1\n      keccak256\n      0x00\n      swap1\n      sload\n      swap1\n      0x0100\n      exp\n      swap1\n      div\n      0xffffffffffffffffffffffffffffffffffffffff\n      and\n        /* \"certificateissuer.sol\":3381:3393  stakedAmount */\n      0x06\n        /* \"certificateissuer.sol\":3381:3416  stakedAmount[cauthToAddress[cauth]] */\n      0x00\n        /* \"certificateissuer.sol\":3394:3408  cauthToAddress */\n      0x03\n        /* \"certificateissuer.sol\":3409:3414  cauth */\n      dup8\n        /* \"certificateissuer.sol\":3394:3415  cauthToAddress[cauth] */\n      mload(0x40)\n      tag_92\n      swap2\n      swap1\n      tag_75\n      jump\t// in\n    tag_92:\n      swap1\n      dup2\n      mstore\n      0x20\n      add\n      mload(0x40)\n      dup1\n      swap2\n      sub\n      swap1\n      keccak256\n      0x00\n      swap1\n      sload\n      swap1\n      0x0100\n      exp\n      swap1\n      div\n      0xffffffffffffffffffffffffffffffffffffffff\n      and\n        /* \"certificateissuer.sol\":3381:3416  stakedAmount[cauthToAddress[cauth]] */\n      0xffffffffffffffffffffffffffffffffffffffff\n      and\n      0xffffffffffffffffffffffffffffffffffffffff\n      and\n      dup2\n      mstore\n      0x20\n      add\n      swap1\n      dup2\n      mstore\n      0x20\n      add\n      0x00\n      keccak256\n      sload\n        /* \"certificateissuer.sol\":3345:3417  stakeReturned(cauthToAddress[cauth],stakedAmount[cauthToAddress[cauth]]) */\n      mload(0x40)\n      tag_93\n      swap3\n      swap2\n      swap1\n      tag_94\n      jump\t// in\n    tag_93:\n      mload(0x40)\n      dup1\n      swap2\n      sub\n      swap1\n      log1\n        /* \"certificateissuer.sol\":3244:3430  if(cauthToCanStake[cauth]){... */\n    tag_88:\n        /* \"certificateissuer.sol\":2702:3437  function issueCertificate(string memory _name , string memory _courseTittle, uint _duration , uint institute,string memory cauth, bool _expirable , uint  ) external payable  {... */\n      pop\n      pop\n      pop\n      pop\n      pop\n      pop\n      pop\n      jump\t// out\n        /* \"certificateissuer.sol\":551:596  mapping(address =>  uint) public stakedAmount */\n    tag_52:\n      mstore(0x20, 0x06)\n      dup1\n      0x00\n      mstore\n      keccak256(0x00, 0x40)\n      0x00\n      swap2\n      pop\n      swap1\n      pop\n      sload\n      dup2\n      jump\t// out\n        /* \"certificateissuer.sol\":2349:2694  function updateCertificateRecipientForStaking(string memory cauth,address _staker ) public   {... */\n    tag_59:\n        /* \"certificateissuer.sol\":2475:2481  _admin */\n      0x04\n      0x00\n      swap1\n      sload\n      swap1\n      0x0100\n      exp\n      swap1\n      div\n      0xffffffffffffffffffffffffffffffffffffffff\n      and\n        /* \"certificateissuer.sol\":2461:2481  msg.sender == _admin */\n      0xffffffffffffffffffffffffffffffffffffffff\n      and\n        /* \"certificateissuer.sol\":2461:2471  msg.sender */\n      caller\n        /* \"certificateissuer.sol\":2461:2481  msg.sender == _admin */\n      0xffffffffffffffffffffffffffffffffffffffff\n      and\n      eq\n        /* \"certificateissuer.sol\":2453:2482  require(msg.sender == _admin) */\n      tag_96\n      jumpi\n      0x00\n      dup1\n      revert\n    tag_96:\n        /* \"certificateissuer.sol\":2514:2518  true */\n      0x01\n        /* \"certificateissuer.sol\":2494:2504  cauthValid */\n      dup1\n        /* \"certificateissuer.sol\":2505:2510  cauth */\n      dup4\n        /* \"certificateissuer.sol\":2494:2511  cauthValid[cauth] */\n      mload(0x40)\n      tag_97\n      swap2\n      swap1\n      tag_75\n      jump\t// in\n    tag_97:\n      swap1\n      dup2\n      mstore\n      0x20\n      add\n      mload(0x40)\n      dup1\n      swap2\n      sub\n      swap1\n      keccak256\n      0x00\n        /* \"certificateissuer.sol\":2494:2518  cauthValid[cauth] = true */\n      0x0100\n      exp\n      dup2\n      sload\n      dup2\n      0xff\n      mul\n      not\n      and\n      swap1\n      dup4\n      iszero\n      iszero\n      mul\n      or\n      swap1\n      sstore\n      pop\n        /* \"certificateissuer.sol\":2540:2550  cauthValid */\n      0x01\n        /* \"certificateissuer.sol\":2551:2556  cauth */\n      dup3\n        /* \"certificateissuer.sol\":2540:2557  cauthValid[cauth] */\n      mload(0x40)\n      tag_98\n      swap2\n      swap1\n      tag_75\n      jump\t// in\n    tag_98:\n      swap1\n      dup2\n      mstore\n      0x20\n      add\n      mload(0x40)\n      dup1\n      swap2\n      sub\n      swap1\n      keccak256\n      0x00\n      swap1\n      sload\n      swap1\n      0x0100\n      exp\n      swap1\n      div\n      0xff\n      and\n        /* \"certificateissuer.sol\":2532:2558  require(cauthValid[cauth]) */\n      tag_99\n      jumpi\n      0x00\n      dup1\n      revert\n    tag_99:\n        /* \"certificateissuer.sol\":2596:2600  true */\n      0x01\n        /* \"certificateissuer.sol\":2571:2586  cauthToCanStake */\n      0x02\n        /* \"certificateissuer.sol\":2587:2592  cauth */\n      dup4\n        /* \"certificateissuer.sol\":2571:2593  cauthToCanStake[cauth] */\n      mload(0x40)\n      tag_100\n      swap2\n      swap1\n      tag_75\n      jump\t// in\n    tag_100:\n      swap1\n      dup2\n      mstore\n      0x20\n      add\n      mload(0x40)\n      dup1\n      swap2\n      sub\n      swap1\n      keccak256\n      0x00\n        /* \"certificateissuer.sol\":2571:2600  cauthToCanStake[cauth] = true */\n      0x0100\n      exp\n      dup2\n      sload\n      dup2\n      0xff\n      mul\n      not\n      and\n      swap1\n      dup4\n      iszero\n      iszero\n      mul\n      or\n      swap1\n      sstore\n      pop\n        /* \"certificateissuer.sol\":2638:2643  cauth */\n      dup2\n        /* \"certificateissuer.sol\":2613:2626  adressToCauth */\n      0x05\n        /* \"certificateissuer.sol\":2613:2635  adressToCauth[_staker] */\n      0x00\n        /* \"certificateissuer.sol\":2627:2634  _staker */\n      dup4\n        /* \"certificateissuer.sol\":2613:2635  adressToCauth[_staker] */\n      0xffffffffffffffffffffffffffffffffffffffff\n      and\n      0xffffffffffffffffffffffffffffffffffffffff\n      and\n      dup2\n      mstore\n      0x20\n      add\n      swap1\n      dup2\n      mstore\n      0x20\n      add\n      0x00\n      keccak256\n        /* \"certificateissuer.sol\":2613:2643  adressToCauth[_staker] = cauth */\n      swap1\n      dup2\n      tag_101\n      swap2\n      swap1\n      tag_102\n      jump\t// in\n    tag_101:\n      pop\n        /* \"certificateissuer.sol\":2678:2685  _staker */\n      dup1\n        /* \"certificateissuer.sol\":2655:2669  cauthToAddress */\n      0x03\n        /* \"certificateissuer.sol\":2670:2675  cauth */\n      dup4\n        /* \"certificateissuer.sol\":2655:2676  cauthToAddress[cauth] */\n      mload(0x40)\n      tag_103\n      swap2\n      swap1\n      tag_75\n      jump\t// in\n    tag_103:\n      swap1\n      dup2\n      mstore\n      0x20\n      add\n      mload(0x40)\n      dup1\n      swap2\n      sub\n      swap1\n      keccak256\n      0x00\n        /* \"certificateissuer.sol\":2655:2685  cauthToAddress[cauth] =_staker */\n      0x0100\n      exp\n      dup2\n      sload\n      dup2\n      0xffffffffffffffffffffffffffffffffffffffff\n      mul\n      not\n      and\n      swap1\n      dup4\n      0xffffffffffffffffffffffffffffffffffffffff\n      and\n      mul\n      or\n      swap1\n      sstore\n      pop\n        /* \"certificateissuer.sol\":2349:2694  function updateCertificateRecipientForStaking(string memory cauth,address _staker ) public   {... */\n      pop\n      pop\n      jump\t// out\n        /* \"#utility.yul\":7:187   */\n    tag_104:\n        /* \"#utility.yul\":55:132   */\n      0x4e487b7100000000000000000000000000000000000000000000000000000000\n        /* \"#utility.yul\":52:53   */\n      0x00\n        /* \"#utility.yul\":45:133   */\n      mstore\n        /* \"#utility.yul\":152:156   */\n      0x22\n        /* \"#utility.yul\":149:150   */\n      0x04\n        /* \"#utility.yul\":142:157   */\n      mstore\n        /* \"#utility.yul\":176:180   */\n      0x24\n        /* \"#utility.yul\":173:174   */\n      0x00\n        /* \"#utility.yul\":166:181   */\n      revert\n        /* \"#utility.yul\":193:513   */\n    tag_105:\n        /* \"#utility.yul\":237:243   */\n      0x00\n        /* \"#utility.yul\":274:275   */\n      0x02\n        /* \"#utility.yul\":268:272   */\n      dup3\n        /* \"#utility.yul\":264:276   */\n      div\n        /* \"#utility.yul\":254:276   */\n      swap1\n      pop\n        /* \"#utility.yul\":321:322   */\n      0x01\n        /* \"#utility.yul\":315:319   */\n      dup3\n        /* \"#utility.yul\":311:323   */\n      and\n        /* \"#utility.yul\":342:360   */\n      dup1\n        /* \"#utility.yul\":332:413   */\n      tag_159\n      jumpi\n        /* \"#utility.yul\":398:402   */\n      0x7f\n        /* \"#utility.yul\":390:396   */\n      dup3\n        /* \"#utility.yul\":386:403   */\n      and\n        /* \"#utility.yul\":376:403   */\n      swap2\n      pop\n        /* \"#utility.yul\":332:413   */\n    tag_159:\n        /* \"#utility.yul\":460:462   */\n      0x20\n        /* \"#utility.yul\":452:458   */\n      dup3\n        /* \"#utility.yul\":449:463   */\n      lt\n        /* \"#utility.yul\":429:447   */\n      dup2\n        /* \"#utility.yul\":426:464   */\n      sub\n        /* \"#utility.yul\":423:507   */\n      tag_160\n      jumpi\n        /* \"#utility.yul\":479:497   */\n      tag_161\n      tag_104\n      jump\t// in\n    tag_161:\n        /* \"#utility.yul\":423:507   */\n    tag_160:\n        /* \"#utility.yul\":244:513   */\n      pop\n        /* \"#utility.yul\":193:513   */\n      swap2\n      swap1\n      pop\n      jump\t// out\n        /* \"#utility.yul\":519:667   */\n    tag_106:\n        /* \"#utility.yul\":621:632   */\n      0x00\n        /* \"#utility.yul\":658:661   */\n      dup2\n        /* \"#utility.yul\":643:661   */\n      swap1\n      pop\n        /* \"#utility.yul\":519:667   */\n      swap3\n      swap2\n      pop\n      pop\n      jump\t// out\n        /* \"#utility.yul\":673:814   */\n    tag_107:\n        /* \"#utility.yul\":722:726   */\n      0x00\n        /* \"#utility.yul\":745:748   */\n      dup2\n        /* \"#utility.yul\":737:748   */\n      swap1\n      pop\n        /* \"#utility.yul\":768:771   */\n      dup2\n        /* \"#utility.yul\":765:766   */\n      0x00\n        /* \"#utility.yul\":758:772   */\n      mstore\n        /* \"#utility.yul\":802:806   */\n      0x20\n        /* \"#utility.yul\":799:800   */\n      0x00\n        /* \"#utility.yul\":789:807   */\n      keccak256\n        /* \"#utility.yul\":781:807   */\n      swap1\n      pop\n        /* \"#utility.yul\":673:814   */\n      swap2\n      swap1\n      pop\n      jump\t// out\n        /* \"#utility.yul\":844:1718   */\n    tag_108:\n        /* \"#utility.yul\":947:950   */\n      0x00\n        /* \"#utility.yul\":984:989   */\n      dup2\n        /* \"#utility.yul\":978:990   */\n      sload\n        /* \"#utility.yul\":1013:1049   */\n      tag_165\n        /* \"#utility.yul\":1039:1048   */\n      dup2\n        /* \"#utility.yul\":1013:1049   */\n      tag_105\n      jump\t// in\n    tag_165:\n        /* \"#utility.yul\":1065:1154   */\n      tag_166\n        /* \"#utility.yul\":1147:1153   */\n      dup2\n        /* \"#utility.yul\":1142:1145   */\n      dup7\n        /* \"#utility.yul\":1065:1154   */\n      tag_106\n      jump\t// in\n    tag_166:\n        /* \"#utility.yul\":1058:1154   */\n      swap5\n      pop\n        /* \"#utility.yul\":1185:1186   */\n      0x01\n        /* \"#utility.yul\":1174:1183   */\n      dup3\n        /* \"#utility.yul\":1170:1187   */\n      and\n        /* \"#utility.yul\":1201:1202   */\n      0x00\n        /* \"#utility.yul\":1196:1362   */\n      dup2\n      eq\n      tag_168\n      jumpi\n        /* \"#utility.yul\":1376:1377   */\n      0x01\n        /* \"#utility.yul\":1371:1712   */\n      dup2\n      eq\n      tag_169\n      jumpi\n        /* \"#utility.yul\":1163:1712   */\n      jump(tag_167)\n        /* \"#utility.yul\":1196:1362   */\n    tag_168:\n        /* \"#utility.yul\":1280:1284   */\n      0xff\n        /* \"#utility.yul\":1276:1285   */\n      not\n        /* \"#utility.yul\":1265:1274   */\n      dup4\n        /* \"#utility.yul\":1261:1286   */\n      and\n        /* \"#utility.yul\":1256:1259   */\n      dup7\n        /* \"#utility.yul\":1249:1287   */\n      mstore\n        /* \"#utility.yul\":1342:1348   */\n      dup2\n        /* \"#utility.yul\":1335:1349   */\n      iszero\n        /* \"#utility.yul\":1328:1350   */\n      iszero\n        /* \"#utility.yul\":1320:1326   */\n      dup3\n        /* \"#utility.yul\":1316:1351   */\n      mul\n        /* \"#utility.yul\":1311:1314   */\n      dup7\n        /* \"#utility.yul\":1307:1352   */\n      add\n        /* \"#utility.yul\":1300:1352   */\n      swap4\n      pop\n        /* \"#utility.yul\":1196:1362   */\n      jump(tag_167)\n        /* \"#utility.yul\":1371:1712   */\n    tag_169:\n        /* \"#utility.yul\":1438:1476   */\n      tag_170\n        /* \"#utility.yul\":1470:1475   */\n      dup6\n        /* \"#utility.yul\":1438:1476   */\n      tag_107\n      jump\t// in\n    tag_170:\n        /* \"#utility.yul\":1498:1499   */\n      0x00\n        /* \"#utility.yul\":1512:1666   */\n    tag_171:\n        /* \"#utility.yul\":1526:1532   */\n      dup4\n        /* \"#utility.yul\":1523:1524   */\n      dup2\n        /* \"#utility.yul\":1520:1533   */\n      lt\n        /* \"#utility.yul\":1512:1666   */\n      iszero\n      tag_173\n      jumpi\n        /* \"#utility.yul\":1600:1607   */\n      dup2\n        /* \"#utility.yul\":1594:1608   */\n      sload\n        /* \"#utility.yul\":1590:1591   */\n      dup2\n        /* \"#utility.yul\":1585:1588   */\n      dup10\n        /* \"#utility.yul\":1581:1592   */\n      add\n        /* \"#utility.yul\":1574:1609   */\n      mstore\n        /* \"#utility.yul\":1650:1651   */\n      0x01\n        /* \"#utility.yul\":1641:1648   */\n      dup3\n        /* \"#utility.yul\":1637:1652   */\n      add\n        /* \"#utility.yul\":1626:1652   */\n      swap2\n      pop\n        /* \"#utility.yul\":1548:1552   */\n      0x20\n        /* \"#utility.yul\":1545:1546   */\n      dup2\n        /* \"#utility.yul\":1541:1553   */\n      add\n        /* \"#utility.yul\":1536:1553   */\n      swap1\n      pop\n        /* \"#utility.yul\":1512:1666   */\n      jump(tag_171)\n    tag_173:\n        /* \"#utility.yul\":1695:1701   */\n      dup4\n        /* \"#utility.yul\":1690:1693   */\n      dup9\n        /* \"#utility.yul\":1686:1702   */\n      add\n        /* \"#utility.yul\":1679:1702   */\n      swap6\n      pop\n        /* \"#utility.yul\":1378:1712   */\n      pop\n      pop\n        /* \"#utility.yul\":1163:1712   */\n    tag_167:\n      pop\n        /* \"#utility.yul\":951:1718   */\n      pop\n      pop\n        /* \"#utility.yul\":844:1718   */\n      swap3\n      swap2\n      pop\n      pop\n      jump\t// out\n        /* \"#utility.yul\":1724:1993   */\n    tag_16:\n        /* \"#utility.yul\":1853:1856   */\n      0x00\n        /* \"#utility.yul\":1875:1967   */\n      tag_175\n        /* \"#utility.yul\":1963:1966   */\n      dup3\n        /* \"#utility.yul\":1954:1960   */\n      dup5\n        /* \"#utility.yul\":1875:1967   */\n      tag_108\n      jump\t// in\n    tag_175:\n        /* \"#utility.yul\":1868:1967   */\n      swap2\n      pop\n        /* \"#utility.yul\":1984:1987   */\n      dup2\n        /* \"#utility.yul\":1977:1987   */\n      swap1\n      pop\n        /* \"#utility.yul\":1724:1993   */\n      swap3\n      swap2\n      pop\n      pop\n      jump\t// out\n        /* \"#utility.yul\":1999:2074   */\n    tag_109:\n        /* \"#utility.yul\":2032:2038   */\n      0x00\n        /* \"#utility.yul\":2065:2067   */\n      0x40\n        /* \"#utility.yul\":2059:2068   */\n      mload\n        /* \"#utility.yul\":2049:2068   */\n      swap1\n      pop\n        /* \"#utility.yul\":1999:2074   */\n      swap1\n      jump\t// out\n        /* \"#utility.yul\":2080:2197   */\n    tag_110:\n        /* \"#utility.yul\":2189:2190   */\n      0x00\n        /* \"#utility.yul\":2186:2187   */\n      dup1\n        /* \"#utility.yul\":2179:2191   */\n      revert\n        /* \"#utility.yul\":2203:2320   */\n    tag_111:\n        /* \"#utility.yul\":2312:2313   */\n      0x00\n        /* \"#utility.yul\":2309:2310   */\n      dup1\n        /* \"#utility.yul\":2302:2314   */\n      revert\n        /* \"#utility.yul\":2326:2452   */\n    tag_112:\n        /* \"#utility.yul\":2363:2370   */\n      0x00\n        /* \"#utility.yul\":2403:2445   */\n      0xffffffffffffffffffffffffffffffffffffffff\n        /* \"#utility.yul\":2396:2401   */\n      dup3\n        /* \"#utility.yul\":2392:2446   */\n      and\n        /* \"#utility.yul\":2381:2446   */\n      swap1\n      pop\n        /* \"#utility.yul\":2326:2452   */\n      swap2\n      swap1\n      pop\n      jump\t// out\n        /* \"#utility.yul\":2458:2554   */\n    tag_113:\n        /* \"#utility.yul\":2495:2502   */\n      0x00\n        /* \"#utility.yul\":2524:2548   */\n      tag_181\n        /* \"#utility.yul\":2542:2547   */\n      dup3\n        /* \"#utility.yul\":2524:2548   */\n      tag_112\n      jump\t// in\n    tag_181:\n        /* \"#utility.yul\":2513:2548   */\n      swap1\n      pop\n        /* \"#utility.yul\":2458:2554   */\n      swap2\n      swap1\n      pop\n      jump\t// out\n        /* \"#utility.yul\":2560:2682   */\n    tag_114:\n        /* \"#utility.yul\":2633:2657   */\n      tag_183\n        /* \"#utility.yul\":2651:2656   */\n      dup2\n        /* \"#utility.yul\":2633:2657   */\n      tag_113\n      jump\t// in\n    tag_183:\n        /* \"#utility.yul\":2626:2631   */\n      dup2\n        /* \"#utility.yul\":2623:2658   */\n      eq\n        /* \"#utility.yul\":2613:2676   */\n      tag_184\n      jumpi\n        /* \"#utility.yul\":2672:2673   */\n      0x00\n        /* \"#utility.yul\":2669:2670   */\n      dup1\n        /* \"#utility.yul\":2662:2674   */\n      revert\n        /* \"#utility.yul\":2613:2676   */\n    tag_184:\n        /* \"#utility.yul\":2560:2682   */\n      pop\n      jump\t// out\n        /* \"#utility.yul\":2688:2827   */\n    tag_115:\n        /* \"#utility.yul\":2734:2739   */\n      0x00\n        /* \"#utility.yul\":2772:2778   */\n      dup2\n        /* \"#utility.yul\":2759:2779   */\n      calldataload\n        /* \"#utility.yul\":2750:2779   */\n      swap1\n      pop\n        /* \"#utility.yul\":2788:2821   */\n      tag_186\n        /* \"#utility.yul\":2815:2820   */\n      dup2\n        /* \"#utility.yul\":2788:2821   */\n      tag_114\n      jump\t// in\n    tag_186:\n        /* \"#utility.yul\":2688:2827   */\n      swap3\n      swap2\n      pop\n      pop\n      jump\t// out\n        /* \"#utility.yul\":2833:3162   */\n    tag_21:\n        /* \"#utility.yul\":2892:2898   */\n      0x00\n        /* \"#utility.yul\":2941:2943   */\n      0x20\n        /* \"#utility.yul\":2929:2938   */\n      dup3\n        /* \"#utility.yul\":2920:2927   */\n      dup5\n        /* \"#utility.yul\":2916:2939   */\n      sub\n        /* \"#utility.yul\":2912:2944   */\n      slt\n        /* \"#utility.yul\":2909:3028   */\n      iszero\n      tag_188\n      jumpi\n        /* \"#utility.yul\":2947:3026   */\n      tag_189\n      tag_110\n      jump\t// in\n    tag_189:\n        /* \"#utility.yul\":2909:3028   */\n    tag_188:\n        /* \"#utility.yul\":3067:3068   */\n      0x00\n        /* \"#utility.yul\":3092:3145   */\n      tag_190\n        /* \"#utility.yul\":3137:3144   */\n      dup5\n        /* \"#utility.yul\":3128:3134   */\n      dup3\n        /* \"#utility.yul\":3117:3126   */\n      dup6\n        /* \"#utility.yul\":3113:3135   */\n      add\n        /* \"#utility.yul\":3092:3145   */\n      tag_115\n      jump\t// in\n    tag_190:\n        /* \"#utility.yul\":3082:3145   */\n      swap2\n      pop\n        /* \"#utility.yul\":3038:3155   */\n      pop\n        /* \"#utility.yul\":2833:3162   */\n      swap3\n      swap2\n      pop\n      pop\n      jump\t// out\n        /* \"#utility.yul\":3168:3258   */\n    tag_116:\n        /* \"#utility.yul\":3202:3209   */\n      0x00\n        /* \"#utility.yul\":3245:3250   */\n      dup2\n        /* \"#utility.yul\":3238:3251   */\n      iszero\n        /* \"#utility.yul\":3231:3252   */\n      iszero\n        /* \"#utility.yul\":3220:3252   */\n      swap1\n      pop\n        /* \"#utility.yul\":3168:3258   */\n      swap2\n      swap1\n      pop\n      jump\t// out\n        /* \"#utility.yul\":3264:3373   */\n    tag_117:\n        /* \"#utility.yul\":3345:3366   */\n      tag_193\n        /* \"#utility.yul\":3360:3365   */\n      dup2\n        /* \"#utility.yul\":3345:3366   */\n      tag_116\n      jump\t// in\n    tag_193:\n        /* \"#utility.yul\":3340:3343   */\n      dup3\n        /* \"#utility.yul\":3333:3367   */\n      mstore\n        /* \"#utility.yul\":3264:3373   */\n      pop\n      pop\n      jump\t// out\n        /* \"#utility.yul\":3379:3589   */\n    tag_31:\n        /* \"#utility.yul\":3466:3470   */\n      0x00\n        /* \"#utility.yul\":3504:3506   */\n      0x20\n        /* \"#utility.yul\":3493:3502   */\n      dup3\n        /* \"#utility.yul\":3489:3507   */\n      add\n        /* \"#utility.yul\":3481:3507   */\n      swap1\n      pop\n        /* \"#utility.yul\":3517:3582   */\n      tag_195\n        /* \"#utility.yul\":3579:3580   */\n      0x00\n        /* \"#utility.yul\":3568:3577   */\n      dup4\n        /* \"#utility.yul\":3564:3581   */\n      add\n        /* \"#utility.yul\":3555:3561   */\n      dup5\n        /* \"#utility.yul\":3517:3582   */\n      tag_117\n      jump\t// in\n    tag_195:\n        /* \"#utility.yul\":3379:3589   */\n      swap3\n      swap2\n      pop\n      pop\n      jump\t// out\n        /* \"#utility.yul\":3595:3713   */\n    tag_118:\n        /* \"#utility.yul\":3682:3706   */\n      tag_197\n        /* \"#utility.yul\":3700:3705   */\n      dup2\n        /* \"#utility.yul\":3682:3706   */\n      tag_113\n      jump\t// in\n    tag_197:\n        /* \"#utility.yul\":3677:3680   */\n      dup3\n        /* \"#utility.yul\":3670:3707   */\n      mstore\n        /* \"#utility.yul\":3595:3713   */\n      pop\n      pop\n      jump\t// out\n        /* \"#utility.yul\":3719:3941   */\n    tag_36:\n        /* \"#utility.yul\":3812:3816   */\n      0x00\n        /* \"#utility.yul\":3850:3852   */\n      0x20\n        /* \"#utility.yul\":3839:3848   */\n      dup3\n        /* \"#utility.yul\":3835:3853   */\n      add\n        /* \"#utility.yul\":3827:3853   */\n      swap1\n      pop\n        /* \"#utility.yul\":3863:3934   */\n      tag_199\n        /* \"#utility.yul\":3931:3932   */\n      0x00\n        /* \"#utility.yul\":3920:3929   */\n      dup4\n        /* \"#utility.yul\":3916:3933   */\n      add\n        /* \"#utility.yul\":3907:3913   */\n      dup5\n        /* \"#utility.yul\":3863:3934   */\n      tag_118\n      jump\t// in\n    tag_199:\n        /* \"#utility.yul\":3719:3941   */\n      swap3\n      swap2\n      pop\n      pop\n      jump\t// out\n        /* \"#utility.yul\":3947:4064   */\n    tag_119:\n        /* \"#utility.yul\":4056:4057   */\n      0x00\n        /* \"#utility.yul\":4053:4054   */\n      dup1\n        /* \"#utility.yul\":4046:4058   */\n      revert\n        /* \"#utility.yul\":4070:4187   */\n    tag_120:\n        /* \"#utility.yul\":4179:4180   */\n      0x00\n        /* \"#utility.yul\":4176:4177   */\n      dup1\n        /* \"#utility.yul\":4169:4181   */\n      revert\n        /* \"#utility.yul\":4193:4295   */\n    tag_121:\n        /* \"#utility.yul\":4234:4240   */\n      0x00\n        /* \"#utility.yul\":4285:4287   */\n      0x1f\n        /* \"#utility.yul\":4281:4288   */\n      not\n        /* \"#utility.yul\":4276:4278   */\n      0x1f\n        /* \"#utility.yul\":4269:4274   */\n      dup4\n        /* \"#utility.yul\":4265:4279   */\n      add\n        /* \"#utility.yul\":4261:4289   */\n      and\n        /* \"#utility.yul\":4251:4289   */\n      swap1\n      pop\n        /* \"#utility.yul\":4193:4295   */\n      swap2\n      swap1\n      pop\n      jump\t// out\n        /* \"#utility.yul\":4301:4481   */\n    tag_122:\n        /* \"#utility.yul\":4349:4426   */\n      0x4e487b7100000000000000000000000000000000000000000000000000000000\n        /* \"#utility.yul\":4346:4347   */\n      0x00\n        /* \"#utility.yul\":4339:4427   */\n      mstore\n        /* \"#utility.yul\":4446:4450   */\n      0x41\n        /* \"#utility.yul\":4443:4444   */\n      0x04\n        /* \"#utility.yul\":4436:4451   */\n      mstore\n        /* \"#utility.yul\":4470:4474   */\n      0x24\n        /* \"#utility.yul\":4467:4468   */\n      0x00\n        /* \"#utility.yul\":4460:4475   */\n      revert\n        /* \"#utility.yul\":4487:4768   */\n    tag_123:\n        /* \"#utility.yul\":4570:4597   */\n      tag_205\n        /* \"#utility.yul\":4592:4596   */\n      dup3\n        /* \"#utility.yul\":4570:4597   */\n      tag_121\n      jump\t// in\n    tag_205:\n        /* \"#utility.yul\":4562:4568   */\n      dup2\n        /* \"#utility.yul\":4558:4598   */\n      add\n        /* \"#utility.yul\":4700:4706   */\n      dup2\n        /* \"#utility.yul\":4688:4698   */\n      dup2\n        /* \"#utility.yul\":4685:4707   */\n      lt\n        /* \"#utility.yul\":4664:4682   */\n      0xffffffffffffffff\n        /* \"#utility.yul\":4652:4662   */\n      dup3\n        /* \"#utility.yul\":4649:4683   */\n      gt\n        /* \"#utility.yul\":4646:4708   */\n      or\n        /* \"#utility.yul\":4643:4731   */\n      iszero\n      tag_206\n      jumpi\n        /* \"#utility.yul\":4711:4729   */\n      tag_207\n      tag_122\n      jump\t// in\n    tag_207:\n        /* \"#utility.yul\":4643:4731   */\n    tag_206:\n        /* \"#utility.yul\":4751:4761   */\n      dup1\n        /* \"#utility.yul\":4747:4749   */\n      0x40\n        /* \"#utility.yul\":4740:4762   */\n      mstore\n        /* \"#utility.yul\":4530:4768   */\n      pop\n        /* \"#utility.yul\":4487:4768   */\n      pop\n      pop\n      jump\t// out\n        /* \"#utility.yul\":4774:4903   */\n    tag_124:\n        /* \"#utility.yul\":4808:4814   */\n      0x00\n        /* \"#utility.yul\":4835:4855   */\n      tag_209\n      tag_109\n      jump\t// in\n    tag_209:\n        /* \"#utility.yul\":4825:4855   */\n      swap1\n      pop\n        /* \"#utility.yul\":4864:4897   */\n      tag_210\n        /* \"#utility.yul\":4892:4896   */\n      dup3\n        /* \"#utility.yul\":4884:4890   */\n      dup3\n        /* \"#utility.yul\":4864:4897   */\n      tag_123\n      jump\t// in\n    tag_210:\n        /* \"#utility.yul\":4774:4903   */\n      swap2\n      swap1\n      pop\n      jump\t// out\n        /* \"#utility.yul\":4909:5217   */\n    tag_125:\n        /* \"#utility.yul\":4971:4975   */\n      0x00\n        /* \"#utility.yul\":5061:5079   */\n      0xffffffffffffffff\n        /* \"#utility.yul\":5053:5059   */\n      dup3\n        /* \"#utility.yul\":5050:5080   */\n      gt\n        /* \"#utility.yul\":5047:5103   */\n      iszero\n      tag_212\n      jumpi\n        /* \"#utility.yul\":5083:5101   */\n      tag_213\n      tag_122\n      jump\t// in\n    tag_213:\n        /* \"#utility.yul\":5047:5103   */\n    tag_212:\n        /* \"#utility.yul\":5121:5150   */\n      tag_214\n        /* \"#utility.yul\":5143:5149   */\n      dup3\n        /* \"#utility.yul\":5121:5150   */\n      tag_121\n      jump\t// in\n    tag_214:\n        /* \"#utility.yul\":5113:5150   */\n      swap1\n      pop\n        /* \"#utility.yul\":5205:5209   */\n      0x20\n        /* \"#utility.yul\":5199:5203   */\n      dup2\n        /* \"#utility.yul\":5195:5210   */\n      add\n        /* \"#utility.yul\":5187:5210   */\n      swap1\n      pop\n        /* \"#utility.yul\":4909:5217   */\n      swap2\n      swap1\n      pop\n      jump\t// out\n        /* \"#utility.yul\":5223:5377   */\n    tag_126:\n        /* \"#utility.yul\":5307:5313   */\n      dup3\n        /* \"#utility.yul\":5302:5305   */\n      dup2\n        /* \"#utility.yul\":5297:5300   */\n      dup4\n        /* \"#utility.yul\":5284:5314   */\n      calldatacopy\n        /* \"#utility.yul\":5369:5370   */\n      0x00\n        /* \"#utility.yul\":5360:5366   */\n      dup4\n        /* \"#utility.yul\":5355:5358   */\n      dup4\n        /* \"#utility.yul\":5351:5367   */\n      add\n        /* \"#utility.yul\":5344:5371   */\n      mstore\n        /* \"#utility.yul\":5223:5377   */\n      pop\n      pop\n      pop\n      jump\t// out\n        /* \"#utility.yul\":5383:5795   */\n    tag_127:\n        /* \"#utility.yul\":5461:5466   */\n      0x00\n        /* \"#utility.yul\":5486:5552   */\n      tag_217\n        /* \"#utility.yul\":5502:5551   */\n      tag_218\n        /* \"#utility.yul\":5544:5550   */\n      dup5\n        /* \"#utility.yul\":5502:5551   */\n      tag_125\n      jump\t// in\n    tag_218:\n        /* \"#utility.yul\":5486:5552   */\n      tag_124\n      jump\t// in\n    tag_217:\n        /* \"#utility.yul\":5477:5552   */\n      swap1\n      pop\n        /* \"#utility.yul\":5575:5581   */\n      dup3\n        /* \"#utility.yul\":5568:5573   */\n      dup2\n        /* \"#utility.yul\":5561:5582   */\n      mstore\n        /* \"#utility.yul\":5613:5617   */\n      0x20\n        /* \"#utility.yul\":5606:5611   */\n      dup2\n        /* \"#utility.yul\":5602:5618   */\n      add\n        /* \"#utility.yul\":5651:5654   */\n      dup5\n        /* \"#utility.yul\":5642:5648   */\n      dup5\n        /* \"#utility.yul\":5637:5640   */\n      dup5\n        /* \"#utility.yul\":5633:5649   */\n      add\n        /* \"#utility.yul\":5630:5655   */\n      gt\n        /* \"#utility.yul\":5627:5739   */\n      iszero\n      tag_219\n      jumpi\n        /* \"#utility.yul\":5658:5737   */\n      tag_220\n      tag_120\n      jump\t// in\n    tag_220:\n        /* \"#utility.yul\":5627:5739   */\n    tag_219:\n        /* \"#utility.yul\":5748:5789   */\n      tag_221\n        /* \"#utility.yul\":5782:5788   */\n      dup5\n        /* \"#utility.yul\":5777:5780   */\n      dup3\n        /* \"#utility.yul\":5772:5775   */\n      dup6\n        /* \"#utility.yul\":5748:5789   */\n      tag_126\n      jump\t// in\n    tag_221:\n        /* \"#utility.yul\":5467:5795   */\n      pop\n        /* \"#utility.yul\":5383:5795   */\n      swap4\n      swap3\n      pop\n      pop\n      pop\n      jump\t// out\n        /* \"#utility.yul\":5815:6155   */\n    tag_128:\n        /* \"#utility.yul\":5871:5876   */\n      0x00\n        /* \"#utility.yul\":5920:5923   */\n      dup3\n        /* \"#utility.yul\":5913:5917   */\n      0x1f\n        /* \"#utility.yul\":5905:5911   */\n      dup4\n        /* \"#utility.yul\":5901:5918   */\n      add\n        /* \"#utility.yul\":5897:5924   */\n      slt\n        /* \"#utility.yul\":5887:6009   */\n      tag_223\n      jumpi\n        /* \"#utility.yul\":5928:6007   */\n      tag_224\n      tag_119\n      jump\t// in\n    tag_224:\n        /* \"#utility.yul\":5887:6009   */\n    tag_223:\n        /* \"#utility.yul\":6045:6051   */\n      dup2\n        /* \"#utility.yul\":6032:6052   */\n      calldataload\n        /* \"#utility.yul\":6070:6149   */\n      tag_225\n        /* \"#utility.yul\":6145:6148   */\n      dup5\n        /* \"#utility.yul\":6137:6143   */\n      dup3\n        /* \"#utility.yul\":6130:6134   */\n      0x20\n        /* \"#utility.yul\":6122:6128   */\n      dup7\n        /* \"#utility.yul\":6118:6135   */\n      add\n        /* \"#utility.yul\":6070:6149   */\n      tag_127\n      jump\t// in\n    tag_225:\n        /* \"#utility.yul\":6061:6149   */\n      swap2\n      pop\n        /* \"#utility.yul\":5877:6155   */\n      pop\n        /* \"#utility.yul\":5815:6155   */\n      swap3\n      swap2\n      pop\n      pop\n      jump\t// out\n        /* \"#utility.yul\":6161:6670   */\n    tag_40:\n        /* \"#utility.yul\":6230:6236   */\n      0x00\n        /* \"#utility.yul\":6279:6281   */\n      0x20\n        /* \"#utility.yul\":6267:6276   */\n      dup3\n        /* \"#utility.yul\":6258:6265   */\n      dup5\n        /* \"#utility.yul\":6254:6277   */\n      sub\n        /* \"#utility.yul\":6250:6282   */\n      slt\n        /* \"#utility.yul\":6247:6366   */\n      iszero\n      tag_227\n      jumpi\n        /* \"#utility.yul\":6285:6364   */\n      tag_228\n      tag_110\n      jump\t// in\n    tag_228:\n        /* \"#utility.yul\":6247:6366   */\n    tag_227:\n        /* \"#utility.yul\":6433:6434   */\n      0x00\n        /* \"#utility.yul\":6422:6431   */\n      dup3\n        /* \"#utility.yul\":6418:6435   */\n      add\n        /* \"#utility.yul\":6405:6436   */\n      calldataload\n        /* \"#utility.yul\":6463:6481   */\n      0xffffffffffffffff\n        /* \"#utility.yul\":6455:6461   */\n      dup2\n        /* \"#utility.yul\":6452:6482   */\n      gt\n        /* \"#utility.yul\":6449:6566   */\n      iszero\n      tag_229\n      jumpi\n        /* \"#utility.yul\":6485:6564   */\n      tag_230\n      tag_111\n      jump\t// in\n    tag_230:\n        /* \"#utility.yul\":6449:6566   */\n    tag_229:\n        /* \"#utility.yul\":6590:6653   */\n      tag_231\n        /* \"#utility.yul\":6645:6652   */\n      dup5\n        /* \"#utility.yul\":6636:6642   */\n      dup3\n        /* \"#utility.yul\":6625:6634   */\n      dup6\n        /* \"#utility.yul\":6621:6643   */\n      add\n        /* \"#utility.yul\":6590:6653   */\n      tag_128\n      jump\t// in\n    tag_231:\n        /* \"#utility.yul\":6580:6653   */\n      swap2\n      pop\n        /* \"#utility.yul\":6376:6663   */\n      pop\n        /* \"#utility.yul\":6161:6670   */\n      swap3\n      swap2\n      pop\n      pop\n      jump\t// out\n        /* \"#utility.yul\":6676:6753   */\n    tag_129:\n        /* \"#utility.yul\":6713:6720   */\n      0x00\n        /* \"#utility.yul\":6742:6747   */\n      dup2\n        /* \"#utility.yul\":6731:6747   */\n      swap1\n      pop\n        /* \"#utility.yul\":6676:6753   */\n      swap2\n      swap1\n      pop\n      jump\t// out\n        /* \"#utility.yul\":6759:6881   */\n    tag_130:\n        /* \"#utility.yul\":6832:6856   */\n      tag_234\n        /* \"#utility.yul\":6850:6855   */\n      dup2\n        /* \"#utility.yul\":6832:6856   */\n      tag_129\n      jump\t// in\n    tag_234:\n        /* \"#utility.yul\":6825:6830   */\n      dup2\n        /* \"#utility.yul\":6822:6857   */\n      eq\n        /* \"#utility.yul\":6812:6875   */\n      tag_235\n      jumpi\n        /* \"#utility.yul\":6871:6872   */\n      0x00\n        /* \"#utility.yul\":6868:6869   */\n      dup1\n        /* \"#utility.yul\":6861:6873   */\n      revert\n        /* \"#utility.yul\":6812:6875   */\n    tag_235:\n        /* \"#utility.yul\":6759:6881   */\n      pop\n      jump\t// out\n        /* \"#utility.yul\":6887:7026   */\n    tag_131:\n        /* \"#utility.yul\":6933:6938   */\n      0x00\n        /* \"#utility.yul\":6971:6977   */\n      dup2\n        /* \"#utility.yul\":6958:6978   */\n      calldataload\n        /* \"#utility.yul\":6949:6978   */\n      swap1\n      pop\n        /* \"#utility.yul\":6987:7020   */\n      tag_237\n        /* \"#utility.yul\":7014:7019   */\n      dup2\n        /* \"#utility.yul\":6987:7020   */\n      tag_130\n      jump\t// in\n    tag_237:\n        /* \"#utility.yul\":6887:7026   */\n      swap3\n      swap2\n      pop\n      pop\n      jump\t// out\n        /* \"#utility.yul\":7032:7148   */\n    tag_132:\n        /* \"#utility.yul\":7102:7123   */\n      tag_239\n        /* \"#utility.yul\":7117:7122   */\n      dup2\n        /* \"#utility.yul\":7102:7123   */\n      tag_116\n      jump\t// in\n    tag_239:\n        /* \"#utility.yul\":7095:7100   */\n      dup2\n        /* \"#utility.yul\":7092:7124   */\n      eq\n        /* \"#utility.yul\":7082:7142   */\n      tag_240\n      jumpi\n        /* \"#utility.yul\":7138:7139   */\n      0x00\n        /* \"#utility.yul\":7135:7136   */\n      dup1\n        /* \"#utility.yul\":7128:7140   */\n      revert\n        /* \"#utility.yul\":7082:7142   */\n    tag_240:\n        /* \"#utility.yul\":7032:7148   */\n      pop\n      jump\t// out\n        /* \"#utility.yul\":7154:7287   */\n    tag_133:\n        /* \"#utility.yul\":7197:7202   */\n      0x00\n        /* \"#utility.yul\":7235:7241   */\n      dup2\n        /* \"#utility.yul\":7222:7242   */\n      calldataload\n        /* \"#utility.yul\":7213:7242   */\n      swap1\n      pop\n        /* \"#utility.yul\":7251:7281   */\n      tag_242\n        /* \"#utility.yul\":7275:7280   */\n      dup2\n        /* \"#utility.yul\":7251:7281   */\n      tag_132\n      jump\t// in\n    tag_242:\n        /* \"#utility.yul\":7154:7287   */\n      swap3\n      swap2\n      pop\n      pop\n      jump\t// out\n        /* \"#utility.yul\":7293:9030   */\n    tag_47:\n        /* \"#utility.yul\":7433:7439   */\n      0x00\n        /* \"#utility.yul\":7441:7447   */\n      dup1\n        /* \"#utility.yul\":7449:7455   */\n      0x00\n        /* \"#utility.yul\":7457:7463   */\n      dup1\n        /* \"#utility.yul\":7465:7471   */\n      0x00\n        /* \"#utility.yul\":7473:7479   */\n      dup1\n        /* \"#utility.yul\":7481:7487   */\n      0x00\n        /* \"#utility.yul\":7530:7533   */\n      0xe0\n        /* \"#utility.yul\":7518:7527   */\n      dup9\n        /* \"#utility.yul\":7509:7516   */\n      dup11\n        /* \"#utility.yul\":7505:7528   */\n      sub\n        /* \"#utility.yul\":7501:7534   */\n      slt\n        /* \"#utility.yul\":7498:7618   */\n      iszero\n      tag_244\n      jumpi\n        /* \"#utility.yul\":7537:7616   */\n      tag_245\n      tag_110\n      jump\t// in\n    tag_245:\n        /* \"#utility.yul\":7498:7618   */\n    tag_244:\n        /* \"#utility.yul\":7685:7686   */\n      0x00\n        /* \"#utility.yul\":7674:7683   */\n      dup9\n        /* \"#utility.yul\":7670:7687   */\n      add\n        /* \"#utility.yul\":7657:7688   */\n      calldataload\n        /* \"#utility.yul\":7715:7733   */\n      0xffffffffffffffff\n        /* \"#utility.yul\":7707:7713   */\n      dup2\n        /* \"#utility.yul\":7704:7734   */\n      gt\n        /* \"#utility.yul\":7701:7818   */\n      iszero\n      tag_246\n      jumpi\n        /* \"#utility.yul\":7737:7816   */\n      tag_247\n      tag_111\n      jump\t// in\n    tag_247:\n        /* \"#utility.yul\":7701:7818   */\n    tag_246:\n        /* \"#utility.yul\":7842:7905   */\n      tag_248\n        /* \"#utility.yul\":7897:7904   */\n      dup11\n        /* \"#utility.yul\":7888:7894   */\n      dup3\n        /* \"#utility.yul\":7877:7886   */\n      dup12\n        /* \"#utility.yul\":7873:7895   */\n      add\n        /* \"#utility.yul\":7842:7905   */\n      tag_128\n      jump\t// in\n    tag_248:\n        /* \"#utility.yul\":7832:7905   */\n      swap8\n      pop\n        /* \"#utility.yul\":7628:7915   */\n      pop\n        /* \"#utility.yul\":7982:7984   */\n      0x20\n        /* \"#utility.yul\":7971:7980   */\n      dup9\n        /* \"#utility.yul\":7967:7985   */\n      add\n        /* \"#utility.yul\":7954:7986   */\n      calldataload\n        /* \"#utility.yul\":8013:8031   */\n      0xffffffffffffffff\n        /* \"#utility.yul\":8005:8011   */\n      dup2\n        /* \"#utility.yul\":8002:8032   */\n      gt\n        /* \"#utility.yul\":7999:8116   */\n      iszero\n      tag_249\n      jumpi\n        /* \"#utility.yul\":8035:8114   */\n      tag_250\n      tag_111\n      jump\t// in\n    tag_250:\n        /* \"#utility.yul\":7999:8116   */\n    tag_249:\n        /* \"#utility.yul\":8140:8203   */\n      tag_251\n        /* \"#utility.yul\":8195:8202   */\n      dup11\n        /* \"#utility.yul\":8186:8192   */\n      dup3\n        /* \"#utility.yul\":8175:8184   */\n      dup12\n        /* \"#utility.yul\":8171:8193   */\n      add\n        /* \"#utility.yul\":8140:8203   */\n      tag_128\n      jump\t// in\n    tag_251:\n        /* \"#utility.yul\":8130:8203   */\n      swap7\n      pop\n        /* \"#utility.yul\":7925:8213   */\n      pop\n        /* \"#utility.yul\":8252:8254   */\n      0x40\n        /* \"#utility.yul\":8278:8331   */\n      tag_252\n        /* \"#utility.yul\":8323:8330   */\n      dup11\n        /* \"#utility.yul\":8314:8320   */\n      dup3\n        /* \"#utility.yul\":8303:8312   */\n      dup12\n        /* \"#utility.yul\":8299:8321   */\n      add\n        /* \"#utility.yul\":8278:8331   */\n      tag_131\n      jump\t// in\n    tag_252:\n        /* \"#utility.yul\":8268:8331   */\n      swap6\n      pop\n        /* \"#utility.yul\":8223:8341   */\n      pop\n        /* \"#utility.yul\":8380:8382   */\n      0x60\n        /* \"#utility.yul\":8406:8459   */\n      tag_253\n        /* \"#utility.yul\":8451:8458   */\n      dup11\n        /* \"#utility.yul\":8442:8448   */\n      dup3\n        /* \"#utility.yul\":8431:8440   */\n      dup12\n        /* \"#utility.yul\":8427:8449   */\n      add\n        /* \"#utility.yul\":8406:8459   */\n      tag_131\n      jump\t// in\n    tag_253:\n        /* \"#utility.yul\":8396:8459   */\n      swap5\n      pop\n        /* \"#utility.yul\":8351:8469   */\n      pop\n        /* \"#utility.yul\":8536:8539   */\n      0x80\n        /* \"#utility.yul\":8525:8534   */\n      dup9\n        /* \"#utility.yul\":8521:8540   */\n      add\n        /* \"#utility.yul\":8508:8541   */\n      calldataload\n        /* \"#utility.yul\":8568:8586   */\n      0xffffffffffffffff\n        /* \"#utility.yul\":8560:8566   */\n      dup2\n        /* \"#utility.yul\":8557:8587   */\n      gt\n        /* \"#utility.yul\":8554:8671   */\n      iszero\n      tag_254\n      jumpi\n        /* \"#utility.yul\":8590:8669   */\n      tag_255\n      tag_111\n      jump\t// in\n    tag_255:\n        /* \"#utility.yul\":8554:8671   */\n    tag_254:\n        /* \"#utility.yul\":8695:8758   */\n      tag_256\n        /* \"#utility.yul\":8750:8757   */\n      dup11\n        /* \"#utility.yul\":8741:8747   */\n      dup3\n        /* \"#utility.yul\":8730:8739   */\n      dup12\n        /* \"#utility.yul\":8726:8748   */\n      add\n        /* \"#utility.yul\":8695:8758   */\n      tag_128\n      jump\t// in\n    tag_256:\n        /* \"#utility.yul\":8685:8758   */\n      swap4\n      pop\n        /* \"#utility.yul\":8479:8768   */\n      pop\n        /* \"#utility.yul\":8807:8810   */\n      0xa0\n        /* \"#utility.yul\":8834:8884   */\n      tag_257\n        /* \"#utility.yul\":8876:8883   */\n      dup11\n        /* \"#utility.yul\":8867:8873   */\n      dup3\n        /* \"#utility.yul\":8856:8865   */\n      dup12\n        /* \"#utility.yul\":8852:8874   */\n      add\n        /* \"#utility.yul\":8834:8884   */\n      tag_133\n      jump\t// in\n    tag_257:\n        /* \"#utility.yul\":8824:8884   */\n      swap3\n      pop\n        /* \"#utility.yul\":8778:8894   */\n      pop\n        /* \"#utility.yul\":8933:8936   */\n      0xc0\n        /* \"#utility.yul\":8960:9013   */\n      tag_258\n        /* \"#utility.yul\":9005:9012   */\n      dup11\n        /* \"#utility.yul\":8996:9002   */\n      dup3\n        /* \"#utility.yul\":8985:8994   */\n      dup12\n        /* \"#utility.yul\":8981:9003   */\n      add\n        /* \"#utility.yul\":8960:9013   */\n      tag_131\n      jump\t// in\n    tag_258:\n        /* \"#utility.yul\":8950:9013   */\n      swap2\n      pop\n        /* \"#utility.yul\":8904:9023   */\n      pop\n        /* \"#utility.yul\":7293:9030   */\n      swap3\n      swap6\n      swap9\n      swap2\n      swap5\n      swap8\n      pop\n      swap3\n      swap6\n      pop\n      jump\t// out\n        /* \"#utility.yul\":9036:9154   */\n    tag_134:\n        /* \"#utility.yul\":9123:9147   */\n      tag_260\n        /* \"#utility.yul\":9141:9146   */\n      dup2\n        /* \"#utility.yul\":9123:9147   */\n      tag_129\n      jump\t// in\n    tag_260:\n        /* \"#utility.yul\":9118:9121   */\n      dup3\n        /* \"#utility.yul\":9111:9148   */\n      mstore\n        /* \"#utility.yul\":9036:9154   */\n      pop\n      pop\n      jump\t// out\n        /* \"#utility.yul\":9160:9382   */\n    tag_54:\n        /* \"#utility.yul\":9253:9257   */\n      0x00\n        /* \"#utility.yul\":9291:9293   */\n      0x20\n        /* \"#utility.yul\":9280:9289   */\n      dup3\n        /* \"#utility.yul\":9276:9294   */\n      add\n        /* \"#utility.yul\":9268:9294   */\n      swap1\n      pop\n        /* \"#utility.yul\":9304:9375   */\n      tag_262\n        /* \"#utility.yul\":9372:9373   */\n      0x00\n        /* \"#utility.yul\":9361:9370   */\n      dup4\n        /* \"#utility.yul\":9357:9374   */\n      add\n        /* \"#utility.yul\":9348:9354   */\n      dup5\n        /* \"#utility.yul\":9304:9375   */\n      tag_134\n      jump\t// in\n    tag_262:\n        /* \"#utility.yul\":9160:9382   */\n      swap3\n      swap2\n      pop\n      pop\n      jump\t// out\n        /* \"#utility.yul\":9388:10042   */\n    tag_58:\n        /* \"#utility.yul\":9466:9472   */\n      0x00\n        /* \"#utility.yul\":9474:9480   */\n      dup1\n        /* \"#utility.yul\":9523:9525   */\n      0x40\n        /* \"#utility.yul\":9511:9520   */\n      dup4\n        /* \"#utility.yul\":9502:9509   */\n      dup6\n        /* \"#utility.yul\":9498:9521   */\n      sub\n        /* \"#utility.yul\":9494:9526   */\n      slt\n        /* \"#utility.yul\":9491:9610   */\n      iszero\n      tag_264\n      jumpi\n        /* \"#utility.yul\":9529:9608   */\n      tag_265\n      tag_110\n      jump\t// in\n    tag_265:\n        /* \"#utility.yul\":9491:9610   */\n    tag_264:\n        /* \"#utility.yul\":9677:9678   */\n      0x00\n        /* \"#utility.yul\":9666:9675   */\n      dup4\n        /* \"#utility.yul\":9662:9679   */\n      add\n        /* \"#utility.yul\":9649:9680   */\n      calldataload\n        /* \"#utility.yul\":9707:9725   */\n      0xffffffffffffffff\n        /* \"#utility.yul\":9699:9705   */\n      dup2\n        /* \"#utility.yul\":9696:9726   */\n      gt\n        /* \"#utility.yul\":9693:9810   */\n      iszero\n      tag_266\n      jumpi\n        /* \"#utility.yul\":9729:9808   */\n      tag_267\n      tag_111\n      jump\t// in\n    tag_267:\n        /* \"#utility.yul\":9693:9810   */\n    tag_266:\n        /* \"#utility.yul\":9834:9897   */\n      tag_268\n        /* \"#utility.yul\":9889:9896   */\n      dup6\n        /* \"#utility.yul\":9880:9886   */\n      dup3\n        /* \"#utility.yul\":9869:9878   */\n      dup7\n        /* \"#utility.yul\":9865:9887   */\n      add\n        /* \"#utility.yul\":9834:9897   */\n      tag_128\n      jump\t// in\n    tag_268:\n        /* \"#utility.yul\":9824:9897   */\n      swap3\n      pop\n        /* \"#utility.yul\":9620:9907   */\n      pop\n        /* \"#utility.yul\":9946:9948   */\n      0x20\n        /* \"#utility.yul\":9972:10025   */\n      tag_269\n        /* \"#utility.yul\":10017:10024   */\n      dup6\n        /* \"#utility.yul\":10008:10014   */\n      dup3\n        /* \"#utility.yul\":9997:10006   */\n      dup7\n        /* \"#utility.yul\":9993:10015   */\n      add\n        /* \"#utility.yul\":9972:10025   */\n      tag_115\n      jump\t// in\n    tag_269:\n        /* \"#utility.yul\":9962:10025   */\n      swap2\n      pop\n        /* \"#utility.yul\":9917:10035   */\n      pop\n        /* \"#utility.yul\":9388:10042   */\n      swap3\n      pop\n      swap3\n      swap1\n      pop\n      jump\t// out\n        /* \"#utility.yul\":10048:10217   */\n    tag_135:\n        /* \"#utility.yul\":10132:10143   */\n      0x00\n        /* \"#utility.yul\":10166:10172   */\n      dup3\n        /* \"#utility.yul\":10161:10164   */\n      dup3\n        /* \"#utility.yul\":10154:10173   */\n      mstore\n        /* \"#utility.yul\":10206:10210   */\n      0x20\n        /* \"#utility.yul\":10201:10204   */\n      dup3\n        /* \"#utility.yul\":10197:10211   */\n      add\n        /* \"#utility.yul\":10182:10211   */\n      swap1\n      pop\n        /* \"#utility.yul\":10048:10217   */\n      swap3\n      swap2\n      pop\n      pop\n      jump\t// out\n        /* \"#utility.yul\":10223:10405   */\n    tag_136:\n        /* \"#utility.yul\":10363:10397   */\n      0x4f776e61626c653a2063616c6c6572206973206e6f7420746865206f776e6572\n        /* \"#utility.yul\":10359:10360   */\n      0x00\n        /* \"#utility.yul\":10351:10357   */\n      dup3\n        /* \"#utility.yul\":10347:10361   */\n      add\n        /* \"#utility.yul\":10340:10398   */\n      mstore\n        /* \"#utility.yul\":10223:10405   */\n      pop\n      jump\t// out\n        /* \"#utility.yul\":10411:10777   */\n    tag_137:\n        /* \"#utility.yul\":10553:10556   */\n      0x00\n        /* \"#utility.yul\":10574:10641   */\n      tag_273\n        /* \"#utility.yul\":10638:10640   */\n      0x20\n        /* \"#utility.yul\":10633:10636   */\n      dup4\n        /* \"#utility.yul\":10574:10641   */\n      tag_135\n      jump\t// in\n    tag_273:\n        /* \"#utility.yul\":10567:10641   */\n      swap2\n      pop\n        /* \"#utility.yul\":10650:10743   */\n      tag_274\n        /* \"#utility.yul\":10739:10742   */\n      dup3\n        /* \"#utility.yul\":10650:10743   */\n      tag_136\n      jump\t// in\n    tag_274:\n        /* \"#utility.yul\":10768:10770   */\n      0x20\n        /* \"#utility.yul\":10763:10766   */\n      dup3\n        /* \"#utility.yul\":10759:10771   */\n      add\n        /* \"#utility.yul\":10752:10771   */\n      swap1\n      pop\n        /* \"#utility.yul\":10411:10777   */\n      swap2\n      swap1\n      pop\n      jump\t// out\n        /* \"#utility.yul\":10783:11202   */\n    tag_64:\n        /* \"#utility.yul\":10949:10953   */\n      0x00\n        /* \"#utility.yul\":10987:10989   */\n      0x20\n        /* \"#utility.yul\":10976:10985   */\n      dup3\n        /* \"#utility.yul\":10972:10990   */\n      add\n        /* \"#utility.yul\":10964:10990   */\n      swap1\n      pop\n        /* \"#utility.yul\":11036:11045   */\n      dup2\n        /* \"#utility.yul\":11030:11034   */\n      dup2\n        /* \"#utility.yul\":11026:11046   */\n      sub\n        /* \"#utility.yul\":11022:11023   */\n      0x00\n        /* \"#utility.yul\":11011:11020   */\n      dup4\n        /* \"#utility.yul\":11007:11024   */\n      add\n        /* \"#utility.yul\":11000:11047   */\n      mstore\n        /* \"#utility.yul\":11064:11195   */\n      tag_276\n        /* \"#utility.yul\":11190:11194   */\n      dup2\n        /* \"#utility.yul\":11064:11195   */\n      tag_137\n      jump\t// in\n    tag_276:\n        /* \"#utility.yul\":11056:11195   */\n      swap1\n      pop\n        /* \"#utility.yul\":10783:11202   */\n      swap2\n      swap1\n      pop\n      jump\t// out\n        /* \"#utility.yul\":11208:11307   */\n    tag_138:\n        /* \"#utility.yul\":11260:11266   */\n      0x00\n        /* \"#utility.yul\":11294:11299   */\n      dup2\n        /* \"#utility.yul\":11288:11300   */\n      mload\n        /* \"#utility.yul\":11278:11300   */\n      swap1\n      pop\n        /* \"#utility.yul\":11208:11307   */\n      swap2\n      swap1\n      pop\n      jump\t// out\n        /* \"#utility.yul\":11313:11620   */\n    tag_139:\n        /* \"#utility.yul\":11381:11382   */\n      0x00\n        /* \"#utility.yul\":11391:11504   */\n    tag_279:\n        /* \"#utility.yul\":11405:11411   */\n      dup4\n        /* \"#utility.yul\":11402:11403   */\n      dup2\n        /* \"#utility.yul\":11399:11412   */\n      lt\n        /* \"#utility.yul\":11391:11504   */\n      iszero\n      tag_281\n      jumpi\n        /* \"#utility.yul\":11490:11491   */\n      dup1\n        /* \"#utility.yul\":11485:11488   */\n      dup3\n        /* \"#utility.yul\":11481:11492   */\n      add\n        /* \"#utility.yul\":11475:11493   */\n      mload\n        /* \"#utility.yul\":11471:11472   */\n      dup2\n        /* \"#utility.yul\":11466:11469   */\n      dup5\n        /* \"#utility.yul\":11462:11473   */\n      add\n        /* \"#utility.yul\":11455:11494   */\n      mstore\n        /* \"#utility.yul\":11427:11429   */\n      0x20\n        /* \"#utility.yul\":11424:11425   */\n      dup2\n        /* \"#utility.yul\":11420:11430   */\n      add\n        /* \"#utility.yul\":11415:11430   */\n      swap1\n      pop\n        /* \"#utility.yul\":11391:11504   */\n      jump(tag_279)\n    tag_281:\n        /* \"#utility.yul\":11522:11528   */\n      dup4\n        /* \"#utility.yul\":11519:11520   */\n      dup2\n        /* \"#utility.yul\":11516:11529   */\n      gt\n        /* \"#utility.yul\":11513:11614   */\n      iszero\n      tag_282\n      jumpi\n        /* \"#utility.yul\":11602:11603   */\n      0x00\n        /* \"#utility.yul\":11593:11599   */\n      dup5\n        /* \"#utility.yul\":11588:11591   */\n      dup5\n        /* \"#utility.yul\":11584:11600   */\n      add\n        /* \"#utility.yul\":11577:11604   */\n      mstore\n        /* \"#utility.yul\":11513:11614   */\n    tag_282:\n        /* \"#utility.yul\":11362:11620   */\n      pop\n        /* \"#utility.yul\":11313:11620   */\n      pop\n      pop\n      pop\n      jump\t// out\n        /* \"#utility.yul\":11626:12003   */\n    tag_140:\n        /* \"#utility.yul\":11732:11735   */\n      0x00\n        /* \"#utility.yul\":11760:11799   */\n      tag_284\n        /* \"#utility.yul\":11793:11798   */\n      dup3\n        /* \"#utility.yul\":11760:11799   */\n      tag_138\n      jump\t// in\n    tag_284:\n        /* \"#utility.yul\":11815:11904   */\n      tag_285\n        /* \"#utility.yul\":11897:11903   */\n      dup2\n        /* \"#utility.yul\":11892:11895   */\n      dup6\n        /* \"#utility.yul\":11815:11904   */\n      tag_106\n      jump\t// in\n    tag_285:\n        /* \"#utility.yul\":11808:11904   */\n      swap4\n      pop\n        /* \"#utility.yul\":11913:11965   */\n      tag_286\n        /* \"#utility.yul\":11958:11964   */\n      dup2\n        /* \"#utility.yul\":11953:11956   */\n      dup6\n        /* \"#utility.yul\":11946:11950   */\n      0x20\n        /* \"#utility.yul\":11939:11944   */\n      dup7\n        /* \"#utility.yul\":11935:11951   */\n      add\n        /* \"#utility.yul\":11913:11965   */\n      tag_139\n      jump\t// in\n    tag_286:\n        /* \"#utility.yul\":11990:11996   */\n      dup1\n        /* \"#utility.yul\":11985:11988   */\n      dup5\n        /* \"#utility.yul\":11981:11997   */\n      add\n        /* \"#utility.yul\":11974:11997   */\n      swap2\n      pop\n        /* \"#utility.yul\":11736:12003   */\n      pop\n        /* \"#utility.yul\":11626:12003   */\n      swap3\n      swap2\n      pop\n      pop\n      jump\t// out\n        /* \"#utility.yul\":12009:12284   */\n    tag_75:\n        /* \"#utility.yul\":12141:12144   */\n      0x00\n        /* \"#utility.yul\":12163:12258   */\n      tag_288\n        /* \"#utility.yul\":12254:12257   */\n      dup3\n        /* \"#utility.yul\":12245:12251   */\n      dup5\n        /* \"#utility.yul\":12163:12258   */\n      tag_140\n      jump\t// in\n    tag_288:\n        /* \"#utility.yul\":12156:12258   */\n      swap2\n      pop\n        /* \"#utility.yul\":12275:12278   */\n      dup2\n        /* \"#utility.yul\":12268:12278   */\n      swap1\n      pop\n        /* \"#utility.yul\":12009:12284   */\n      swap3\n      swap2\n      pop\n      pop\n      jump\t// out\n        /* \"#utility.yul\":12290:12654   */\n    tag_141:\n        /* \"#utility.yul\":12378:12381   */\n      0x00\n        /* \"#utility.yul\":12406:12445   */\n      tag_290\n        /* \"#utility.yul\":12439:12444   */\n      dup3\n        /* \"#utility.yul\":12406:12445   */\n      tag_138\n      jump\t// in\n    tag_290:\n        /* \"#utility.yul\":12461:12532   */\n      tag_291\n        /* \"#utility.yul\":12525:12531   */\n      dup2\n        /* \"#utility.yul\":12520:12523   */\n      dup6\n        /* \"#utility.yul\":12461:12532   */\n      tag_135\n      jump\t// in\n    tag_291:\n        /* \"#utility.yul\":12454:12532   */\n      swap4\n      pop\n        /* \"#utility.yul\":12541:12593   */\n      tag_292\n        /* \"#utility.yul\":12586:12592   */\n      dup2\n        /* \"#utility.yul\":12581:12584   */\n      dup6\n        /* \"#utility.yul\":12574:12578   */\n      0x20\n        /* \"#utility.yul\":12567:12572   */\n      dup7\n        /* \"#utility.yul\":12563:12579   */\n      add\n        /* \"#utility.yul\":12541:12593   */\n      tag_139\n      jump\t// in\n    tag_292:\n        /* \"#utility.yul\":12618:12647   */\n      tag_293\n        /* \"#utility.yul\":12640:12646   */\n      dup2\n        /* \"#utility.yul\":12618:12647   */\n      tag_121\n      jump\t// in\n    tag_293:\n        /* \"#utility.yul\":12613:12616   */\n      dup5\n        /* \"#utility.yul\":12609:12648   */\n      add\n        /* \"#utility.yul\":12602:12648   */\n      swap2\n      pop\n        /* \"#utility.yul\":12382:12654   */\n      pop\n        /* \"#utility.yul\":12290:12654   */\n      swap3\n      swap2\n      pop\n      pop\n      jump\t// out\n        /* \"#utility.yul\":12660:13597   */\n    tag_85:\n        /* \"#utility.yul\":12925:12929   */\n      0x00\n        /* \"#utility.yul\":12963:12966   */\n      0xa0\n        /* \"#utility.yul\":12952:12961   */\n      dup3\n        /* \"#utility.yul\":12948:12967   */\n      add\n        /* \"#utility.yul\":12940:12967   */\n      swap1\n      pop\n        /* \"#utility.yul\":13013:13022   */\n      dup2\n        /* \"#utility.yul\":13007:13011   */\n      dup2\n        /* \"#utility.yul\":13003:13023   */\n      sub\n        /* \"#utility.yul\":12999:13000   */\n      0x00\n        /* \"#utility.yul\":12988:12997   */\n      dup4\n        /* \"#utility.yul\":12984:13001   */\n      add\n        /* \"#utility.yul\":12977:13024   */\n      mstore\n        /* \"#utility.yul\":13041:13119   */\n      tag_295\n        /* \"#utility.yul\":13114:13118   */\n      dup2\n        /* \"#utility.yul\":13105:13111   */\n      dup9\n        /* \"#utility.yul\":13041:13119   */\n      tag_141\n      jump\t// in\n    tag_295:\n        /* \"#utility.yul\":13033:13119   */\n      swap1\n      pop\n        /* \"#utility.yul\":13166:13175   */\n      dup2\n        /* \"#utility.yul\":13160:13164   */\n      dup2\n        /* \"#utility.yul\":13156:13176   */\n      sub\n        /* \"#utility.yul\":13151:13153   */\n      0x20\n        /* \"#utility.yul\":13140:13149   */\n      dup4\n        /* \"#utility.yul\":13136:13154   */\n      add\n        /* \"#utility.yul\":13129:13177   */\n      mstore\n        /* \"#utility.yul\":13194:13272   */\n      tag_296\n        /* \"#utility.yul\":13267:13271   */\n      dup2\n        /* \"#utility.yul\":13258:13264   */\n      dup8\n        /* \"#utility.yul\":13194:13272   */\n      tag_141\n      jump\t// in\n    tag_296:\n        /* \"#utility.yul\":13186:13272   */\n      swap1\n      pop\n        /* \"#utility.yul\":13282:13354   */\n      tag_297\n        /* \"#utility.yul\":13350:13352   */\n      0x40\n        /* \"#utility.yul\":13339:13348   */\n      dup4\n        /* \"#utility.yul\":13335:13353   */\n      add\n        /* \"#utility.yul\":13326:13332   */\n      dup7\n        /* \"#utility.yul\":13282:13354   */\n      tag_134\n      jump\t// in\n    tag_297:\n        /* \"#utility.yul\":13364:13436   */\n      tag_298\n        /* \"#utility.yul\":13432:13434   */\n      0x60\n        /* \"#utility.yul\":13421:13430   */\n      dup4\n        /* \"#utility.yul\":13417:13435   */\n      add\n        /* \"#utility.yul\":13408:13414   */\n      dup6\n        /* \"#utility.yul\":13364:13436   */\n      tag_134\n      jump\t// in\n    tag_298:\n        /* \"#utility.yul\":13484:13493   */\n      dup2\n        /* \"#utility.yul\":13478:13482   */\n      dup2\n        /* \"#utility.yul\":13474:13494   */\n      sub\n        /* \"#utility.yul\":13468:13471   */\n      0x80\n        /* \"#utility.yul\":13457:13466   */\n      dup4\n        /* \"#utility.yul\":13453:13472   */\n      add\n        /* \"#utility.yul\":13446:13495   */\n      mstore\n        /* \"#utility.yul\":13512:13590   */\n      tag_299\n        /* \"#utility.yul\":13585:13589   */\n      dup2\n        /* \"#utility.yul\":13576:13582   */\n      dup5\n        /* \"#utility.yul\":13512:13590   */\n      tag_141\n      jump\t// in\n    tag_299:\n        /* \"#utility.yul\":13504:13590   */\n      swap1\n      pop\n        /* \"#utility.yul\":12660:13597   */\n      swap7\n      swap6\n      pop\n      pop\n      pop\n      pop\n      pop\n      pop\n      jump\t// out\n        /* \"#utility.yul\":13603:13935   */\n    tag_94:\n        /* \"#utility.yul\":13724:13728   */\n      0x00\n        /* \"#utility.yul\":13762:13764   */\n      0x40\n        /* \"#utility.yul\":13751:13760   */\n      dup3\n        /* \"#utility.yul\":13747:13765   */\n      add\n        /* \"#utility.yul\":13739:13765   */\n      swap1\n      pop\n        /* \"#utility.yul\":13775:13846   */\n      tag_301\n        /* \"#utility.yul\":13843:13844   */\n      0x00\n        /* \"#utility.yul\":13832:13841   */\n      dup4\n        /* \"#utility.yul\":13828:13845   */\n      add\n        /* \"#utility.yul\":13819:13825   */\n      dup6\n        /* \"#utility.yul\":13775:13846   */\n      tag_118\n      jump\t// in\n    tag_301:\n        /* \"#utility.yul\":13856:13928   */\n      tag_302\n        /* \"#utility.yul\":13924:13926   */\n      0x20\n        /* \"#utility.yul\":13913:13922   */\n      dup4\n        /* \"#utility.yul\":13909:13927   */\n      add\n        /* \"#utility.yul\":13900:13906   */\n      dup5\n        /* \"#utility.yul\":13856:13928   */\n      tag_134\n      jump\t// in\n    tag_302:\n        /* \"#utility.yul\":13603:13935   */\n      swap4\n      swap3\n      pop\n      pop\n      pop\n      jump\t// out\n        /* \"#utility.yul\":13941:14034   */\n    tag_142:\n        /* \"#utility.yul\":13978:13984   */\n      0x00\n        /* \"#utility.yul\":14025:14027   */\n      0x20\n        /* \"#utility.yul\":14020:14022   */\n      0x1f\n        /* \"#utility.yul\":14013:14018   */\n      dup4\n        /* \"#utility.yul\":14009:14023   */\n      add\n        /* \"#utility.yul\":14005:14028   */\n      div\n        /* \"#utility.yul\":13995:14028   */\n      swap1\n      pop\n        /* \"#utility.yul\":13941:14034   */\n      swap2\n      swap1\n      pop\n      jump\t// out\n        /* \"#utility.yul\":14040:14147   */\n    tag_143:\n        /* \"#utility.yul\":14084:14092   */\n      0x00\n        /* \"#utility.yul\":14134:14139   */\n      dup3\n        /* \"#utility.yul\":14128:14132   */\n      dup3\n        /* \"#utility.yul\":14124:14140   */\n      shl\n        /* \"#utility.yul\":14103:14140   */\n      swap1\n      pop\n        /* \"#utility.yul\":14040:14147   */\n      swap3\n      swap2\n      pop\n      pop\n      jump\t// out\n        /* \"#utility.yul\":14153:14546   */\n    tag_144:\n        /* \"#utility.yul\":14222:14228   */\n      0x00\n        /* \"#utility.yul\":14272:14273   */\n      0x08\n        /* \"#utility.yul\":14260:14270   */\n      dup4\n        /* \"#utility.yul\":14256:14274   */\n      mul\n        /* \"#utility.yul\":14295:14392   */\n      tag_306\n        /* \"#utility.yul\":14325:14391   */\n      0xffffffffffffffffffffffffffffffffffffffffffffffffffffffffffffffff\n        /* \"#utility.yul\":14314:14323   */\n      dup3\n        /* \"#utility.yul\":14295:14392   */\n      tag_143\n      jump\t// in\n    tag_306:\n        /* \"#utility.yul\":14413:14452   */\n      tag_307\n        /* \"#utility.yul\":14443:14451   */\n      dup7\n        /* \"#utility.yul\":14432:14441   */\n      dup4\n        /* \"#utility.yul\":14413:14452   */\n      tag_143\n      jump\t// in\n    tag_307:\n        /* \"#utility.yul\":14401:14452   */\n      swap6\n      pop\n        /* \"#utility.yul\":14485:14489   */\n      dup1\n        /* \"#utility.yul\":14481:14490   */\n      not\n        /* \"#utility.yul\":14474:14479   */\n      dup5\n        /* \"#utility.yul\":14470:14491   */\n      and\n        /* \"#utility.yul\":14461:14491   */\n      swap4\n      pop\n        /* \"#utility.yul\":14534:14538   */\n      dup1\n        /* \"#utility.yul\":14524:14532   */\n      dup7\n        /* \"#utility.yul\":14520:14539   */\n      and\n        /* \"#utility.yul\":14513:14518   */\n      dup5\n        /* \"#utility.yul\":14510:14540   */\n      or\n        /* \"#utility.yul\":14500:14540   */\n      swap3\n      pop\n        /* \"#utility.yul\":14229:14546   */\n      pop\n      pop\n        /* \"#utility.yul\":14153:14546   */\n      swap4\n      swap3\n      pop\n      pop\n      pop\n      jump\t// out\n        /* \"#utility.yul\":14552:14612   */\n    tag_145:\n        /* \"#utility.yul\":14580:14583   */\n      0x00\n        /* \"#utility.yul\":14601:14606   */\n      dup2\n        /* \"#utility.yul\":14594:14606   */\n      swap1\n      pop\n        /* \"#utility.yul\":14552:14612   */\n      swap2\n      swap1\n      pop\n      jump\t// out\n        /* \"#utility.yul\":14618:14760   */\n    tag_146:\n        /* \"#utility.yul\":14668:14677   */\n      0x00\n        /* \"#utility.yul\":14701:14754   */\n      tag_310\n        /* \"#utility.yul\":14719:14753   */\n      tag_311\n        /* \"#utility.yul\":14728:14752   */\n      tag_312\n        /* \"#utility.yul\":14746:14751   */\n      dup5\n        /* \"#utility.yul\":14728:14752   */\n      tag_129\n      jump\t// in\n    tag_312:\n        /* \"#utility.yul\":14719:14753   */\n      tag_145\n      jump\t// in\n    tag_311:\n        /* \"#utility.yul\":14701:14754   */\n      tag_129\n      jump\t// in\n    tag_310:\n        /* \"#utility.yul\":14688:14754   */\n      swap1\n      pop\n        /* \"#utility.yul\":14618:14760   */\n      swap2\n      swap1\n      pop\n      jump\t// out\n        /* \"#utility.yul\":14766:14841   */\n    tag_147:\n        /* \"#utility.yul\":14809:14812   */\n      0x00\n        /* \"#utility.yul\":14830:14835   */\n      dup2\n        /* \"#utility.yul\":14823:14835   */\n      swap1\n      pop\n        /* \"#utility.yul\":14766:14841   */\n      swap2\n      swap1\n      pop\n      jump\t// out\n        /* \"#utility.yul\":14847:15116   */\n    tag_148:\n        /* \"#utility.yul\":14957:14996   */\n      tag_315\n        /* \"#utility.yul\":14988:14995   */\n      dup4\n        /* \"#utility.yul\":14957:14996   */\n      tag_146\n      jump\t// in\n    tag_315:\n        /* \"#utility.yul\":15018:15109   */\n      tag_316\n        /* \"#utility.yul\":15067:15108   */\n      tag_317\n        /* \"#utility.yul\":15091:15107   */\n      dup3\n        /* \"#utility.yul\":15067:15108   */\n      tag_147\n      jump\t// in\n    tag_317:\n        /* \"#utility.yul\":15059:15065   */\n      dup5\n        /* \"#utility.yul\":15052:15056   */\n      dup5\n        /* \"#utility.yul\":15046:15057   */\n      sload\n        /* \"#utility.yul\":15018:15109   */\n      tag_144\n      jump\t// in\n    tag_316:\n        /* \"#utility.yul\":15012:15016   */\n      dup3\n        /* \"#utility.yul\":15005:15110   */\n      sstore\n        /* \"#utility.yul\":14923:15116   */\n      pop\n        /* \"#utility.yul\":14847:15116   */\n      pop\n      pop\n      pop\n      jump\t// out\n        /* \"#utility.yul\":15122:15195   */\n    tag_149:\n        /* \"#utility.yul\":15167:15170   */\n      0x00\n        /* \"#utility.yul\":15122:15195   */\n      swap1\n      jump\t// out\n        /* \"#utility.yul\":15201:15390   */\n    tag_150:\n        /* \"#utility.yul\":15278:15310   */\n      tag_320\n      tag_149\n      jump\t// in\n    tag_320:\n        /* \"#utility.yul\":15319:15384   */\n      tag_321\n        /* \"#utility.yul\":15377:15383   */\n      dup2\n        /* \"#utility.yul\":15369:15375   */\n      dup5\n        /* \"#utility.yul\":15363:15367   */\n      dup5\n        /* \"#utility.yul\":15319:15384   */\n      tag_148\n      jump\t// in\n    tag_321:\n        /* \"#utility.yul\":15254:15390   */\n      pop\n        /* \"#utility.yul\":15201:15390   */\n      pop\n      pop\n      jump\t// out\n        /* \"#utility.yul\":15396:15582   */\n    tag_151:\n        /* \"#utility.yul\":15456:15576   */\n    tag_323:\n        /* \"#utility.yul\":15473:15476   */\n      dup2\n        /* \"#utility.yul\":15466:15471   */\n      dup2\n        /* \"#utility.yul\":15463:15477   */\n      lt\n        /* \"#utility.yul\":15456:15576   */\n      iszero\n      tag_325\n      jumpi\n        /* \"#utility.yul\":15527:15566   */\n      tag_326\n        /* \"#utility.yul\":15564:15565   */\n      0x00\n        /* \"#utility.yul\":15557:15562   */\n      dup3\n        /* \"#utility.yul\":15527:15566   */\n      tag_150\n      jump\t// in\n    tag_326:\n        /* \"#utility.yul\":15500:15501   */\n      0x01\n        /* \"#utility.yul\":15493:15498   */\n      dup2\n        /* \"#utility.yul\":15489:15502   */\n      add\n        /* \"#utility.yul\":15480:15502   */\n      swap1\n      pop\n        /* \"#utility.yul\":15456:15576   */\n      jump(tag_323)\n    tag_325:\n        /* \"#utility.yul\":15396:15582   */\n      pop\n      pop\n      jump\t// out\n        /* \"#utility.yul\":15588:16131   */\n    tag_152:\n        /* \"#utility.yul\":15689:15691   */\n      0x1f\n        /* \"#utility.yul\":15684:15687   */\n      dup3\n        /* \"#utility.yul\":15681:15692   */\n      gt\n        /* \"#utility.yul\":15678:16124   */\n      iszero\n      tag_328\n      jumpi\n        /* \"#utility.yul\":15723:15761   */\n      tag_329\n        /* \"#utility.yul\":15755:15760   */\n      dup2\n        /* \"#utility.yul\":15723:15761   */\n      tag_107\n      jump\t// in\n    tag_329:\n        /* \"#utility.yul\":15807:15836   */\n      tag_330\n        /* \"#utility.yul\":15825:15835   */\n      dup5\n        /* \"#utility.yul\":15807:15836   */\n      tag_142\n      jump\t// in\n    tag_330:\n        /* \"#utility.yul\":15797:15805   */\n      dup2\n        /* \"#utility.yul\":15793:15837   */\n      add\n        /* \"#utility.yul\":15990:15992   */\n      0x20\n        /* \"#utility.yul\":15978:15988   */\n      dup6\n        /* \"#utility.yul\":15975:15993   */\n      lt\n        /* \"#utility.yul\":15972:16021   */\n      iszero\n      tag_331\n      jumpi\n        /* \"#utility.yul\":16011:16019   */\n      dup2\n        /* \"#utility.yul\":15996:16019   */\n      swap1\n      pop\n        /* \"#utility.yul\":15972:16021   */\n    tag_331:\n        /* \"#utility.yul\":16034:16114   */\n      tag_332\n        /* \"#utility.yul\":16090:16112   */\n      tag_333\n        /* \"#utility.yul\":16108:16111   */\n      dup6\n        /* \"#utility.yul\":16090:16112   */\n      tag_142\n      jump\t// in\n    tag_333:\n        /* \"#utility.yul\":16080:16088   */\n      dup4\n        /* \"#utility.yul\":16076:16113   */\n      add\n        /* \"#utility.yul\":16063:16074   */\n      dup3\n        /* \"#utility.yul\":16034:16114   */\n      tag_151\n      jump\t// in\n    tag_332:\n        /* \"#utility.yul\":15693:16124   */\n      pop\n      pop\n        /* \"#utility.yul\":15678:16124   */\n    tag_328:\n        /* \"#utility.yul\":15588:16131   */\n      pop\n      pop\n      pop\n      jump\t// out\n        /* \"#utility.yul\":16137:16254   */\n    tag_153:\n        /* \"#utility.yul\":16191:16199   */\n      0x00\n        /* \"#utility.yul\":16241:16246   */\n      dup3\n        /* \"#utility.yul\":16235:16239   */\n      dup3\n        /* \"#utility.yul\":16231:16247   */\n      shr\n        /* \"#utility.yul\":16210:16247   */\n      swap1\n      pop\n        /* \"#utility.yul\":16137:16254   */\n      swap3\n      swap2\n      pop\n      pop\n      jump\t// out\n        /* \"#utility.yul\":16260:16429   */\n    tag_154:\n        /* \"#utility.yul\":16304:16310   */\n      0x00\n        /* \"#utility.yul\":16337:16388   */\n      tag_336\n        /* \"#utility.yul\":16385:16386   */\n      0x00\n        /* \"#utility.yul\":16381:16387   */\n      not\n        /* \"#utility.yul\":16373:16378   */\n      dup5\n        /* \"#utility.yul\":16370:16371   */\n      0x08\n        /* \"#utility.yul\":16366:16379   */\n      mul\n        /* \"#utility.yul\":16337:16388   */\n      tag_153\n      jump\t// in\n    tag_336:\n        /* \"#utility.yul\":16333:16389   */\n      not\n        /* \"#utility.yul\":16418:16422   */\n      dup1\n        /* \"#utility.yul\":16412:16416   */\n      dup4\n        /* \"#utility.yul\":16408:16423   */\n      and\n        /* \"#utility.yul\":16398:16423   */\n      swap2\n      pop\n        /* \"#utility.yul\":16311:16429   */\n      pop\n        /* \"#utility.yul\":16260:16429   */\n      swap3\n      swap2\n      pop\n      pop\n      jump\t// out\n        /* \"#utility.yul\":16434:16729   */\n    tag_155:\n        /* \"#utility.yul\":16510:16514   */\n      0x00\n        /* \"#utility.yul\":16656:16685   */\n      tag_338\n        /* \"#utility.yul\":16681:16684   */\n      dup4\n        /* \"#utility.yul\":16675:16679   */\n      dup4\n        /* \"#utility.yul\":16656:16685   */\n      tag_154\n      jump\t// in\n    tag_338:\n        /* \"#utility.yul\":16648:16685   */\n      swap2\n      pop\n        /* \"#utility.yul\":16718:16721   */\n      dup3\n        /* \"#utility.yul\":16715:16716   */\n      0x02\n        /* \"#utility.yul\":16711:16722   */\n      mul\n        /* \"#utility.yul\":16705:16709   */\n      dup3\n        /* \"#utility.yul\":16702:16723   */\n      or\n        /* \"#utility.yul\":16694:16723   */\n      swap1\n      pop\n        /* \"#utility.yul\":16434:16729   */\n      swap3\n      swap2\n      pop\n      pop\n      jump\t// out\n        /* \"#utility.yul\":16734:18129   */\n    tag_102:\n        /* \"#utility.yul\":16851:16888   */\n      tag_340\n        /* \"#utility.yul\":16884:16887   */\n      dup3\n        /* \"#utility.yul\":16851:16888   */\n      tag_138\n      jump\t// in\n    tag_340:\n        /* \"#utility.yul\":16953:16971   */\n      0xffffffffffffffff\n        /* \"#utility.yul\":16945:16951   */\n      dup2\n        /* \"#utility.yul\":16942:16972   */\n      gt\n        /* \"#utility.yul\":16939:16995   */\n      iszero\n      tag_341\n      jumpi\n        /* \"#utility.yul\":16975:16993   */\n      tag_342\n      tag_122\n      jump\t// in\n    tag_342:\n        /* \"#utility.yul\":16939:16995   */\n    tag_341:\n        /* \"#utility.yul\":17019:17057   */\n      tag_343\n        /* \"#utility.yul\":17051:17055   */\n      dup3\n        /* \"#utility.yul\":17045:17056   */\n      sload\n        /* \"#utility.yul\":17019:17057   */\n      tag_105\n      jump\t// in\n    tag_343:\n        /* \"#utility.yul\":17104:17171   */\n      tag_344\n        /* \"#utility.yul\":17164:17170   */\n      dup3\n        /* \"#utility.yul\":17156:17162   */\n      dup3\n        /* \"#utility.yul\":17150:17154   */\n      dup6\n        /* \"#utility.yul\":17104:17171   */\n      tag_152\n      jump\t// in\n    tag_344:\n        /* \"#utility.yul\":17198:17199   */\n      0x00\n        /* \"#utility.yul\":17222:17226   */\n      0x20\n        /* \"#utility.yul\":17209:17226   */\n      swap1\n      pop\n        /* \"#utility.yul\":17254:17256   */\n      0x1f\n        /* \"#utility.yul\":17246:17252   */\n      dup4\n        /* \"#utility.yul\":17243:17257   */\n      gt\n        /* \"#utility.yul\":17271:17272   */\n      0x01\n        /* \"#utility.yul\":17266:17884   */\n      dup2\n      eq\n      tag_346\n      jumpi\n        /* \"#utility.yul\":17928:17929   */\n      0x00\n        /* \"#utility.yul\":17945:17951   */\n      dup5\n        /* \"#utility.yul\":17942:18019   */\n      iszero\n      tag_347\n      jumpi\n        /* \"#utility.yul\":17994:18003   */\n      dup3\n        /* \"#utility.yul\":17989:17992   */\n      dup8\n        /* \"#utility.yul\":17985:18004   */\n      add\n        /* \"#utility.yul\":17979:18005   */\n      mload\n        /* \"#utility.yul\":17970:18005   */\n      swap1\n      pop\n        /* \"#utility.yul\":17942:18019   */\n    tag_347:\n        /* \"#utility.yul\":18045:18112   */\n      tag_348\n        /* \"#utility.yul\":18105:18111   */\n      dup6\n        /* \"#utility.yul\":18098:18103   */\n      dup3\n        /* \"#utility.yul\":18045:18112   */\n      tag_155\n      jump\t// in\n    tag_348:\n        /* \"#utility.yul\":18039:18043   */\n      dup7\n        /* \"#utility.yul\":18032:18113   */\n      sstore\n        /* \"#utility.yul\":17901:18123   */\n      pop\n        /* \"#utility.yul\":17236:18123   */\n      jump(tag_345)\n        /* \"#utility.yul\":17266:17884   */\n    tag_346:\n        /* \"#utility.yul\":17318:17322   */\n      0x1f\n        /* \"#utility.yul\":17314:17323   */\n      not\n        /* \"#utility.yul\":17306:17312   */\n      dup5\n        /* \"#utility.yul\":17302:17324   */\n      and\n        /* \"#utility.yul\":17352:17389   */\n      tag_349\n        /* \"#utility.yul\":17384:17388   */\n      dup7\n        /* \"#utility.yul\":17352:17389   */\n      tag_107\n      jump\t// in\n    tag_349:\n        /* \"#utility.yul\":17411:17412   */\n      0x00\n        /* \"#utility.yul\":17425:17633   */\n    tag_350:\n        /* \"#utility.yul\":17439:17446   */\n      dup3\n        /* \"#utility.yul\":17436:17437   */\n      dup2\n        /* \"#utility.yul\":17433:17447   */\n      lt\n        /* \"#utility.yul\":17425:17633   */\n      iszero\n      tag_352\n      jumpi\n        /* \"#utility.yul\":17518:17527   */\n      dup5\n        /* \"#utility.yul\":17513:17516   */\n      dup10\n        /* \"#utility.yul\":17509:17528   */\n      add\n        /* \"#utility.yul\":17503:17529   */\n      mload\n        /* \"#utility.yul\":17495:17501   */\n      dup3\n        /* \"#utility.yul\":17488:17530   */\n      sstore\n        /* \"#utility.yul\":17569:17570   */\n      0x01\n        /* \"#utility.yul\":17561:17567   */\n      dup3\n        /* \"#utility.yul\":17557:17571   */\n      add\n        /* \"#utility.yul\":17547:17571   */\n      swap2\n      pop\n        /* \"#utility.yul\":17616:17618   */\n      0x20\n        /* \"#utility.yul\":17605:17614   */\n      dup6\n        /* \"#utility.yul\":17601:17619   */\n      add\n        /* \"#utility.yul\":17588:17619   */\n      swap5\n      pop\n        /* \"#utility.yul\":17462:17466   */\n      0x20\n        /* \"#utility.yul\":17459:17460   */\n      dup2\n        /* \"#utility.yul\":17455:17467   */\n      add\n        /* \"#utility.yul\":17450:17467   */\n      swap1\n      pop\n        /* \"#utility.yul\":17425:17633   */\n      jump(tag_350)\n    tag_352:\n        /* \"#utility.yul\":17661:17667   */\n      dup7\n        /* \"#utility.yul\":17652:17659   */\n      dup4\n        /* \"#utility.yul\":17649:17668   */\n      lt\n        /* \"#utility.yul\":17646:17825   */\n      iszero\n      tag_353\n      jumpi\n        /* \"#utility.yul\":17719:17728   */\n      dup5\n        /* \"#utility.yul\":17714:17717   */\n      dup10\n        /* \"#utility.yul\":17710:17729   */\n      add\n        /* \"#utility.yul\":17704:17730   */\n      mload\n        /* \"#utility.yul\":17762:17810   */\n      tag_354\n        /* \"#utility.yul\":17804:17808   */\n      0x1f\n        /* \"#utility.yul\":17796:17802   */\n      dup10\n        /* \"#utility.yul\":17792:17809   */\n      and\n        /* \"#utility.yul\":17781:17790   */\n      dup3\n        /* \"#utility.yul\":17762:17810   */\n      tag_154\n      jump\t// in\n    tag_354:\n        /* \"#utility.yul\":17754:17760   */\n      dup4\n        /* \"#utility.yul\":17747:17811   */\n      sstore\n        /* \"#utility.yul\":17669:17825   */\n      pop\n        /* \"#utility.yul\":17646:17825   */\n    tag_353:\n        /* \"#utility.yul\":17871:17872   */\n      0x01\n        /* \"#utility.yul\":17867:17868   */\n      0x02\n        /* \"#utility.yul\":17859:17865   */\n      dup9\n        /* \"#utility.yul\":17855:17869   */\n      mul\n        /* \"#utility.yul\":17851:17873   */\n      add\n        /* \"#utility.yul\":17845:17849   */\n      dup9\n        /* \"#utility.yul\":17838:17874   */\n      sstore\n        /* \"#utility.yul\":17273:17884   */\n      pop\n      pop\n      pop\n        /* \"#utility.yul\":17236:18123   */\n    tag_345:\n      pop\n        /* \"#utility.yul\":16826:18129   */\n      pop\n      pop\n      pop\n        /* \"#utility.yul\":16734:18129   */\n      pop\n      pop\n      jump\t// out\n\n    auxdata: 0xa26469706673582212201c990baba57dba1ec37f941a21c844490fef26536c0b433dfc2b11a8025c416964736f6c634300080f0033\n}\n",
				"bytecode": {
					"linkReferences": {},
					"object": "608060405234801561001057600080fd5b50336000806101000a81548173ffffffffffffffffffffffffffffffffffffffff021916908373ffffffffffffffffffffffffffffffffffffffff16021790555033600460006101000a81548173ffffffffffffffffffffffffffffffffffffffff021916908373ffffffffffffffffffffffffffffffffffffffff160217905550611383806100a16000396000f3fe60806040526004361061008a5760003560e01c8063e935155811610059578063e9351558146101f4578063e9e653311461021d578063f24426ae14610239578063f993185514610255578063fe49048a1461029257610147565b806313af40351461014c578063704b6c02146101755780638f32d59b1461019e578063b2bdfa7b146101c957610147565b36610147576002600560003373ffffffffffffffffffffffffffffffffffffffff1673ffffffffffffffffffffffffffffffffffffffff1681526020019081526020016000206040516100dd9190610a94565b908152602001604051809103902060009054906101000a900460ff1661010257600080fd5b34600660003373ffffffffffffffffffffffffffffffffffffffff1673ffffffffffffffffffffffffffffffffffffffff168152602001908152602001600020819055005b600080fd5b34801561015857600080fd5b50610173600480360381019061016e9190610b1d565b6102bb565b005b34801561018157600080fd5b5061019c60048036038101906101979190610b1d565b610345565b005b3480156101aa57600080fd5b506101b36103d0565b6040516101c09190610b65565b60405180910390f35b3480156101d557600080fd5b506101de610427565b6040516101eb9190610b8f565b60405180910390f35b34801561020057600080fd5b5061021b60048036038101906102169190610cf0565b61044b565b005b61023760048036038101906102329190610b1d565b61054a565b005b610253600480360381019061024e9190610d9b565b61054d565b005b34801561026157600080fd5b5061027c60048036038101906102779190610b1d565b6107cf565b6040516102899190610ea0565b60405180910390f35b34801561029e57600080fd5b506102b960048036038101906102b49190610ebb565b6107e7565b005b6102c36103d0565b610302576040517f08c379a00000000000000000000000000000000000000000000000000000000081526004016102f990610f74565b60405180910390fd5b806000806101000a81548173ffffffffffffffffffffffffffffffffffffffff021916908373ffffffffffffffffffffffffffffffffffffffff16021790555050565b61034d6103d0565b61038c576040517f08c379a000000000000000000000000000000000000000000000000000000000815260040161038390610f74565b60405180910390fd5b80600460006101000a81548173ffffffffffffffffffffffffffffffffffffffff021916908373ffffffffffffffffffffffffffffffffffffffff16021790555050565b60008060009054906101000a900473ffffffffffffffffffffffffffffffffffffffff1673ffffffffffffffffffffffffffffffffffffffff163373ffffffffffffffffffffffffffffffffffffffff1614905090565b60008054906101000a900473ffffffffffffffffffffffffffffffffffffffff1681565b600460009054906101000a900473ffffffffffffffffffffffffffffffffffffffff1673ffffffffffffffffffffffffffffffffffffffff163373ffffffffffffffffffffffffffffffffffffffff16146104a557600080fd5b600180826040516104b69190611003565b908152602001604051809103902060006101000a81548160ff0219169083151502179055506001816040516104eb9190611003565b908152602001604051809103902060009054906101000a900460ff1661051057600080fd5b60016002826040516105229190611003565b908152602001604051809103902060006101000a81548160ff02191690831515021790555050565b50565b600115156001846040516105619190611003565b908152602001604051809103902060009054906101000a900460ff1615151461058957600080fd5b600460009054906101000a900473ffffffffffffffffffffffffffffffffffffffff1673ffffffffffffffffffffffffffffffffffffffff163373ffffffffffffffffffffffffffffffffffffffff16146105e357600080fd5b7f2ee35da94d6494eb515fd8f6fffdecd1d417dbae7e370cb1f77d709473e01d59878787878760405161061a959493929190611053565b60405180910390a160006001846040516106349190611003565b908152602001604051809103902060006101000a81548160ff0219169083151502179055506002836040516106699190611003565b908152602001604051809103902060009054906101000a900460ff16156107c6576106d160038460405161069d9190611003565b908152602001604051809103902060009054906101000a900473ffffffffffffffffffffffffffffffffffffffff1661054a565b7f4e5bfbe05270402fc09cd413235062e684a8396be0a33385106e3b5c34302e606003846040516107029190611003565b908152602001604051809103902060009054906101000a900473ffffffffffffffffffffffffffffffffffffffff16600660006003876040516107459190611003565b908152602001604051809103902060009054906101000a900473ffffffffffffffffffffffffffffffffffffffff1673ffffffffffffffffffffffffffffffffffffffff1673ffffffffffffffffffffffffffffffffffffffff168152602001908152602001600020546040516107bd9291906110bb565b60405180910390a15b50505050505050565b60066020528060005260406000206000915090505481565b600460009054906101000a900473ffffffffffffffffffffffffffffffffffffffff1673ffffffffffffffffffffffffffffffffffffffff163373ffffffffffffffffffffffffffffffffffffffff161461084157600080fd5b600180836040516108529190611003565b908152602001604051809103902060006101000a81548160ff0219169083151502179055506001826040516108879190611003565b908152602001604051809103902060009054906101000a900460ff166108ac57600080fd5b60016002836040516108be9190611003565b908152602001604051809103902060006101000a81548160ff02191690831515021790555081600560008373ffffffffffffffffffffffffffffffffffffffff1673ffffffffffffffffffffffffffffffffffffffff168152602001908152602001600020908161092f919061127b565b50806003836040516109419190611003565b908152602001604051809103902060006101000a81548173ffffffffffffffffffffffffffffffffffffffff021916908373ffffffffffffffffffffffffffffffffffffffff1602179055505050565b7f4e487b7100000000000000000000000000000000000000000000000000000000600052602260045260246000fd5b600060028204905060018216806109d857607f821691505b6020821081036109eb576109ea610991565b5b50919050565b600081905092915050565b60008190508160005260206000209050919050565b60008154610a1e816109c0565b610a2881866109f1565b94506001821660008114610a435760018114610a5857610a8b565b60ff1983168652811515820286019350610a8b565b610a61856109fc565b60005b83811015610a8357815481890152600182019150602081019050610a64565b838801955050505b50505092915050565b6000610aa08284610a11565b915081905092915050565b6000604051905090565b600080fd5b600080fd5b600073ffffffffffffffffffffffffffffffffffffffff82169050919050565b6000610aea82610abf565b9050919050565b610afa81610adf565b8114610b0557600080fd5b50565b600081359050610b1781610af1565b92915050565b600060208284031215610b3357610b32610ab5565b5b6000610b4184828501610b08565b91505092915050565b60008115159050919050565b610b5f81610b4a565b82525050565b6000602082019050610b7a6000830184610b56565b92915050565b610b8981610adf565b82525050565b6000602082019050610ba46000830184610b80565b92915050565b600080fd5b600080fd5b6000601f19601f8301169050919050565b7f4e487b7100000000000000000000000000000000000000000000000000000000600052604160045260246000fd5b610bfd82610bb4565b810181811067ffffffffffffffff82111715610c1c57610c1b610bc5565b5b80604052505050565b6000610c2f610aab565b9050610c3b8282610bf4565b919050565b600067ffffffffffffffff821115610c5b57610c5a610bc5565b5b610c6482610bb4565b9050602081019050919050565b82818337600083830152505050565b6000610c93610c8e84610c40565b610c25565b905082815260208101848484011115610caf57610cae610baf565b5b610cba848285610c71565b509392505050565b600082601f830112610cd757610cd6610baa565b5b8135610ce7848260208601610c80565b91505092915050565b600060208284031215610d0657610d05610ab5565b5b600082013567ffffffffffffffff811115610d2457610d23610aba565b5b610d3084828501610cc2565b91505092915050565b6000819050919050565b610d4c81610d39565b8114610d5757600080fd5b50565b600081359050610d6981610d43565b92915050565b610d7881610b4a565b8114610d8357600080fd5b50565b600081359050610d9581610d6f565b92915050565b600080600080600080600060e0888a031215610dba57610db9610ab5565b5b600088013567ffffffffffffffff811115610dd857610dd7610aba565b5b610de48a828b01610cc2565b975050602088013567ffffffffffffffff811115610e0557610e04610aba565b5b610e118a828b01610cc2565b9650506040610e228a828b01610d5a565b9550506060610e338a828b01610d5a565b945050608088013567ffffffffffffffff811115610e5457610e53610aba565b5b610e608a828b01610cc2565b93505060a0610e718a828b01610d86565b92505060c0610e828a828b01610d5a565b91505092959891949750929550565b610e9a81610d39565b82525050565b6000602082019050610eb56000830184610e91565b92915050565b60008060408385031215610ed257610ed1610ab5565b5b600083013567ffffffffffffffff811115610ef057610eef610aba565b5b610efc85828601610cc2565b9250506020610f0d85828601610b08565b9150509250929050565b600082825260208201905092915050565b7f4f776e61626c653a2063616c6c6572206973206e6f7420746865206f776e6572600082015250565b6000610f5e602083610f17565b9150610f6982610f28565b602082019050919050565b60006020820190508181036000830152610f8d81610f51565b9050919050565b600081519050919050565b60005b83811015610fbd578082015181840152602081019050610fa2565b83811115610fcc576000848401525b50505050565b6000610fdd82610f94565b610fe781856109f1565b9350610ff7818560208601610f9f565b80840191505092915050565b600061100f8284610fd2565b915081905092915050565b600061102582610f94565b61102f8185610f17565b935061103f818560208601610f9f565b61104881610bb4565b840191505092915050565b600060a082019050818103600083015261106d818861101a565b90508181036020830152611081818761101a565b90506110906040830186610e91565b61109d6060830185610e91565b81810360808301526110af818461101a565b90509695505050505050565b60006040820190506110d06000830185610b80565b6110dd6020830184610e91565b9392505050565b60006020601f8301049050919050565b600082821b905092915050565b6000600883026111317fffffffffffffffffffffffffffffffffffffffffffffffffffffffffffffffff826110f4565b61113b86836110f4565b95508019841693508086168417925050509392505050565b6000819050919050565b600061117861117361116e84610d39565b611153565b610d39565b9050919050565b6000819050919050565b6111928361115d565b6111a661119e8261117f565b848454611101565b825550505050565b600090565b6111bb6111ae565b6111c6818484611189565b505050565b5b818110156111ea576111df6000826111b3565b6001810190506111cc565b5050565b601f82111561122f57611200816109fc565b611209846110e4565b81016020851015611218578190505b61122c611224856110e4565b8301826111cb565b50505b505050565b600082821c905092915050565b600061125260001984600802611234565b1980831691505092915050565b600061126b8383611241565b9150826002028217905092915050565b61128482610f94565b67ffffffffffffffff81111561129d5761129c610bc5565b5b6112a782546109c0565b6112b28282856111ee565b600060209050601f8311600181146112e557600084156112d3578287015190505b6112dd858261125f565b865550611345565b601f1984166112f3866109fc565b60005b8281101561131b578489015182556001820191506020850194506020810190506112f6565b868310156113385784890151611334601f891682611241565b8355505b6001600288020188555050505b50505050505056fea26469706673582212201c990baba57dba1ec37f941a21c844490fef26536c0b433dfc2b11a8025c416964736f6c634300080f0033",
					"opcodes": "PUSH1 0x80 PUSH1 0x40 MSTORE CALLVALUE DUP1 ISZERO PUSH2 0x10 JUMPI PUSH1 0x0 DUP1 REVERT JUMPDEST POP CALLER PUSH1 0x0 DUP1 PUSH2 0x100 EXP DUP2 SLOAD DUP2 PUSH20 0xFFFFFFFFFFFFFFFFFFFFFFFFFFFFFFFFFFFFFFFF MUL NOT AND SWAP1 DUP4 PUSH20 0xFFFFFFFFFFFFFFFFFFFFFFFFFFFFFFFFFFFFFFFF AND MUL OR SWAP1 SSTORE POP CALLER PUSH1 0x4 PUSH1 0x0 PUSH2 0x100 EXP DUP2 SLOAD DUP2 PUSH20 0xFFFFFFFFFFFFFFFFFFFFFFFFFFFFFFFFFFFFFFFF MUL NOT AND SWAP1 DUP4 PUSH20 0xFFFFFFFFFFFFFFFFFFFFFFFFFFFFFFFFFFFFFFFF AND MUL OR SWAP1 SSTORE POP PUSH2 0x1383 DUP1 PUSH2 0xA1 PUSH1 0x0 CODECOPY PUSH1 0x0 RETURN INVALID PUSH1 0x80 PUSH1 0x40 MSTORE PUSH1 0x4 CALLDATASIZE LT PUSH2 0x8A JUMPI PUSH1 0x0 CALLDATALOAD PUSH1 0xE0 SHR DUP1 PUSH4 0xE9351558 GT PUSH2 0x59 JUMPI DUP1 PUSH4 0xE9351558 EQ PUSH2 0x1F4 JUMPI DUP1 PUSH4 0xE9E65331 EQ PUSH2 0x21D JUMPI DUP1 PUSH4 0xF24426AE EQ PUSH2 0x239 JUMPI DUP1 PUSH4 0xF9931855 EQ PUSH2 0x255 JUMPI DUP1 PUSH4 0xFE49048A EQ PUSH2 0x292 JUMPI PUSH2 0x147 JUMP JUMPDEST DUP1 PUSH4 0x13AF4035 EQ PUSH2 0x14C JUMPI DUP1 PUSH4 0x704B6C02 EQ PUSH2 0x175 JUMPI DUP1 PUSH4 0x8F32D59B EQ PUSH2 0x19E JUMPI DUP1 PUSH4 0xB2BDFA7B EQ PUSH2 0x1C9 JUMPI PUSH2 0x147 JUMP JUMPDEST CALLDATASIZE PUSH2 0x147 JUMPI PUSH1 0x2 PUSH1 0x5 PUSH1 0x0 CALLER PUSH20 0xFFFFFFFFFFFFFFFFFFFFFFFFFFFFFFFFFFFFFFFF AND PUSH20 0xFFFFFFFFFFFFFFFFFFFFFFFFFFFFFFFFFFFFFFFF AND DUP2 MSTORE PUSH1 0x20 ADD SWAP1 DUP2 MSTORE PUSH1 0x20 ADD PUSH1 0x0 KECCAK256 PUSH1 0x40 MLOAD PUSH2 0xDD SWAP2 SWAP1 PUSH2 0xA94 JUMP JUMPDEST SWAP1 DUP2 MSTORE PUSH1 0x20 ADD PUSH1 0x40 MLOAD DUP1 SWAP2 SUB SWAP1 KECCAK256 PUSH1 0x0 SWAP1 SLOAD SWAP1 PUSH2 0x100 EXP SWAP1 DIV PUSH1 0xFF AND PUSH2 0x102 JUMPI PUSH1 0x0 DUP1 REVERT JUMPDEST CALLVALUE PUSH1 0x6 PUSH1 0x0 CALLER PUSH20 0xFFFFFFFFFFFFFFFFFFFFFFFFFFFFFFFFFFFFFFFF AND PUSH20 0xFFFFFFFFFFFFFFFFFFFFFFFFFFFFFFFFFFFFFFFF AND DUP2 MSTORE PUSH1 0x20 ADD SWAP1 DUP2 MSTORE PUSH1 0x20 ADD PUSH1 0x0 KECCAK256 DUP2 SWAP1 SSTORE STOP JUMPDEST PUSH1 0x0 DUP1 REVERT JUMPDEST CALLVALUE DUP1 ISZERO PUSH2 0x158 JUMPI PUSH1 0x0 DUP1 REVERT JUMPDEST POP PUSH2 0x173 PUSH1 0x4 DUP1 CALLDATASIZE SUB DUP2 ADD SWAP1 PUSH2 0x16E SWAP2 SWAP1 PUSH2 0xB1D JUMP JUMPDEST PUSH2 0x2BB JUMP JUMPDEST STOP JUMPDEST CALLVALUE DUP1 ISZERO PUSH2 0x181 JUMPI PUSH1 0x0 DUP1 REVERT JUMPDEST POP PUSH2 0x19C PUSH1 0x4 DUP1 CALLDATASIZE SUB DUP2 ADD SWAP1 PUSH2 0x197 SWAP2 SWAP1 PUSH2 0xB1D JUMP JUMPDEST PUSH2 0x345 JUMP JUMPDEST STOP JUMPDEST CALLVALUE DUP1 ISZERO PUSH2 0x1AA JUMPI PUSH1 0x0 DUP1 REVERT JUMPDEST POP PUSH2 0x1B3 PUSH2 0x3D0 JUMP JUMPDEST PUSH1 0x40 MLOAD PUSH2 0x1C0 SWAP2 SWAP1 PUSH2 0xB65 JUMP JUMPDEST PUSH1 0x40 MLOAD DUP1 SWAP2 SUB SWAP1 RETURN JUMPDEST CALLVALUE DUP1 ISZERO PUSH2 0x1D5 JUMPI PUSH1 0x0 DUP1 REVERT JUMPDEST POP PUSH2 0x1DE PUSH2 0x427 JUMP JUMPDEST PUSH1 0x40 MLOAD PUSH2 0x1EB SWAP2 SWAP1 PUSH2 0xB8F JUMP JUMPDEST PUSH1 0x40 MLOAD DUP1 SWAP2 SUB SWAP1 RETURN JUMPDEST CALLVALUE DUP1 ISZERO PUSH2 0x200 JUMPI PUSH1 0x0 DUP1 REVERT JUMPDEST POP PUSH2 0x21B PUSH1 0x4 DUP1 CALLDATASIZE SUB DUP2 ADD SWAP1 PUSH2 0x216 SWAP2 SWAP1 PUSH2 0xCF0 JUMP JUMPDEST PUSH2 0x44B JUMP JUMPDEST STOP JUMPDEST PUSH2 0x237 PUSH1 0x4 DUP1 CALLDATASIZE SUB DUP2 ADD SWAP1 PUSH2 0x232 SWAP2 SWAP1 PUSH2 0xB1D JUMP JUMPDEST PUSH2 0x54A JUMP JUMPDEST STOP JUMPDEST PUSH2 0x253 PUSH1 0x4 DUP1 CALLDATASIZE SUB DUP2 ADD SWAP1 PUSH2 0x24E SWAP2 SWAP1 PUSH2 0xD9B JUMP JUMPDEST PUSH2 0x54D JUMP JUMPDEST STOP JUMPDEST CALLVALUE DUP1 ISZERO PUSH2 0x261 JUMPI PUSH1 0x0 DUP1 REVERT JUMPDEST POP PUSH2 0x27C PUSH1 0x4 DUP1 CALLDATASIZE SUB DUP2 ADD SWAP1 PUSH2 0x277 SWAP2 SWAP1 PUSH2 0xB1D JUMP JUMPDEST PUSH2 0x7CF JUMP JUMPDEST PUSH1 0x40 MLOAD PUSH2 0x289 SWAP2 SWAP1 PUSH2 0xEA0 JUMP JUMPDEST PUSH1 0x40 MLOAD DUP1 SWAP2 SUB SWAP1 RETURN JUMPDEST CALLVALUE DUP1 ISZERO PUSH2 0x29E JUMPI PUSH1 0x0 DUP1 REVERT JUMPDEST POP PUSH2 0x2B9 PUSH1 0x4 DUP1 CALLDATASIZE SUB DUP2 ADD SWAP1 PUSH2 0x2B4 SWAP2 SWAP1 PUSH2 0xEBB JUMP JUMPDEST PUSH2 0x7E7 JUMP JUMPDEST STOP JUMPDEST PUSH2 0x2C3 PUSH2 0x3D0 JUMP JUMPDEST PUSH2 0x302 JUMPI PUSH1 0x40 MLOAD PUSH32 0x8C379A000000000000000000000000000000000000000000000000000000000 DUP2 MSTORE PUSH1 0x4 ADD PUSH2 0x2F9 SWAP1 PUSH2 0xF74 JUMP JUMPDEST PUSH1 0x40 MLOAD DUP1 SWAP2 SUB SWAP1 REVERT JUMPDEST DUP1 PUSH1 0x0 DUP1 PUSH2 0x100 EXP DUP2 SLOAD DUP2 PUSH20 0xFFFFFFFFFFFFFFFFFFFFFFFFFFFFFFFFFFFFFFFF MUL NOT AND SWAP1 DUP4 PUSH20 0xFFFFFFFFFFFFFFFFFFFFFFFFFFFFFFFFFFFFFFFF AND MUL OR SWAP1 SSTORE POP POP JUMP JUMPDEST PUSH2 0x34D PUSH2 0x3D0 JUMP JUMPDEST PUSH2 0x38C JUMPI PUSH1 0x40 MLOAD PUSH32 0x8C379A000000000000000000000000000000000000000000000000000000000 DUP2 MSTORE PUSH1 0x4 ADD PUSH2 0x383 SWAP1 PUSH2 0xF74 JUMP JUMPDEST PUSH1 0x40 MLOAD DUP1 SWAP2 SUB SWAP1 REVERT JUMPDEST DUP1 PUSH1 0x4 PUSH1 0x0 PUSH2 0x100 EXP DUP2 SLOAD DUP2 PUSH20 0xFFFFFFFFFFFFFFFFFFFFFFFFFFFFFFFFFFFFFFFF MUL NOT AND SWAP1 DUP4 PUSH20 0xFFFFFFFFFFFFFFFFFFFFFFFFFFFFFFFFFFFFFFFF AND MUL OR SWAP1 SSTORE POP POP JUMP JUMPDEST PUSH1 0x0 DUP1 PUSH1 0x0 SWAP1 SLOAD SWAP1 PUSH2 0x100 EXP SWAP1 DIV PUSH20 0xFFFFFFFFFFFFFFFFFFFFFFFFFFFFFFFFFFFFFFFF AND PUSH20 0xFFFFFFFFFFFFFFFFFFFFFFFFFFFFFFFFFFFFFFFF AND CALLER PUSH20 0xFFFFFFFFFFFFFFFFFFFFFFFFFFFFFFFFFFFFFFFF AND EQ SWAP1 POP SWAP1 JUMP JUMPDEST PUSH1 0x0 DUP1 SLOAD SWAP1 PUSH2 0x100 EXP SWAP1 DIV PUSH20 0xFFFFFFFFFFFFFFFFFFFFFFFFFFFFFFFFFFFFFFFF AND DUP2 JUMP JUMPDEST PUSH1 0x4 PUSH1 0x0 SWAP1 SLOAD SWAP1 PUSH2 0x100 EXP SWAP1 DIV PUSH20 0xFFFFFFFFFFFFFFFFFFFFFFFFFFFFFFFFFFFFFFFF AND PUSH20 0xFFFFFFFFFFFFFFFFFFFFFFFFFFFFFFFFFFFFFFFF AND CALLER PUSH20 0xFFFFFFFFFFFFFFFFFFFFFFFFFFFFFFFFFFFFFFFF AND EQ PUSH2 0x4A5 JUMPI PUSH1 0x0 DUP1 REVERT JUMPDEST PUSH1 0x1 DUP1 DUP3 PUSH1 0x40 MLOAD PUSH2 0x4B6 SWAP2 SWAP1 PUSH2 0x1003 JUMP JUMPDEST SWAP1 DUP2 MSTORE PUSH1 0x20 ADD PUSH1 0x40 MLOAD DUP1 SWAP2 SUB SWAP1 KECCAK256 PUSH1 0x0 PUSH2 0x100 EXP DUP2 SLOAD DUP2 PUSH1 0xFF MUL NOT AND SWAP1 DUP4 ISZERO ISZERO MUL OR SWAP1 SSTORE POP PUSH1 0x1 DUP2 PUSH1 0x40 MLOAD PUSH2 0x4EB SWAP2 SWAP1 PUSH2 0x1003 JUMP JUMPDEST SWAP1 DUP2 MSTORE PUSH1 0x20 ADD PUSH1 0x40 MLOAD DUP1 SWAP2 SUB SWAP1 KECCAK256 PUSH1 0x0 SWAP1 SLOAD SWAP1 PUSH2 0x100 EXP SWAP1 DIV PUSH1 0xFF AND PUSH2 0x510 JUMPI PUSH1 0x0 DUP1 REVERT JUMPDEST PUSH1 0x1 PUSH1 0x2 DUP3 PUSH1 0x40 MLOAD PUSH2 0x522 SWAP2 SWAP1 PUSH2 0x1003 JUMP JUMPDEST SWAP1 DUP2 MSTORE PUSH1 0x20 ADD PUSH1 0x40 MLOAD DUP1 SWAP2 SUB SWAP1 KECCAK256 PUSH1 0x0 PUSH2 0x100 EXP DUP2 SLOAD DUP2 PUSH1 0xFF MUL NOT AND SWAP1 DUP4 ISZERO ISZERO MUL OR SWAP1 SSTORE POP POP JUMP JUMPDEST POP JUMP JUMPDEST PUSH1 0x1 ISZERO ISZERO PUSH1 0x1 DUP5 PUSH1 0x40 MLOAD PUSH2 0x561 SWAP2 SWAP1 PUSH2 0x1003 JUMP JUMPDEST SWAP1 DUP2 MSTORE PUSH1 0x20 ADD PUSH1 0x40 MLOAD DUP1 SWAP2 SUB SWAP1 KECCAK256 PUSH1 0x0 SWAP1 SLOAD SWAP1 PUSH2 0x100 EXP SWAP1 DIV PUSH1 0xFF AND ISZERO ISZERO EQ PUSH2 0x589 JUMPI PUSH1 0x0 DUP1 REVERT JUMPDEST PUSH1 0x4 PUSH1 0x0 SWAP1 SLOAD SWAP1 PUSH2 0x100 EXP SWAP1 DIV PUSH20 0xFFFFFFFFFFFFFFFFFFFFFFFFFFFFFFFFFFFFFFFF AND PUSH20 0xFFFFFFFFFFFFFFFFFFFFFFFFFFFFFFFFFFFFFFFF AND CALLER PUSH20 0xFFFFFFFFFFFFFFFFFFFFFFFFFFFFFFFFFFFFFFFF AND EQ PUSH2 0x5E3 JUMPI PUSH1 0x0 DUP1 REVERT JUMPDEST PUSH32 0x2EE35DA94D6494EB515FD8F6FFFDECD1D417DBAE7E370CB1F77D709473E01D59 DUP8 DUP8 DUP8 DUP8 DUP8 PUSH1 0x40 MLOAD PUSH2 0x61A SWAP6 SWAP5 SWAP4 SWAP3 SWAP2 SWAP1 PUSH2 0x1053 JUMP JUMPDEST PUSH1 0x40 MLOAD DUP1 SWAP2 SUB SWAP1 LOG1 PUSH1 0x0 PUSH1 0x1 DUP5 PUSH1 0x40 MLOAD PUSH2 0x634 SWAP2 SWAP1 PUSH2 0x1003 JUMP JUMPDEST SWAP1 DUP2 MSTORE PUSH1 0x20 ADD PUSH1 0x40 MLOAD DUP1 SWAP2 SUB SWAP1 KECCAK256 PUSH1 0x0 PUSH2 0x100 EXP DUP2 SLOAD DUP2 PUSH1 0xFF MUL NOT AND SWAP1 DUP4 ISZERO ISZERO MUL OR SWAP1 SSTORE POP PUSH1 0x2 DUP4 PUSH1 0x40 MLOAD PUSH2 0x669 SWAP2 SWAP1 PUSH2 0x1003 JUMP JUMPDEST SWAP1 DUP2 MSTORE PUSH1 0x20 ADD PUSH1 0x40 MLOAD DUP1 SWAP2 SUB SWAP1 KECCAK256 PUSH1 0x0 SWAP1 SLOAD SWAP1 PUSH2 0x100 EXP SWAP1 DIV PUSH1 0xFF AND ISZERO PUSH2 0x7C6 JUMPI PUSH2 0x6D1 PUSH1 0x3 DUP5 PUSH1 0x40 MLOAD PUSH2 0x69D SWAP2 SWAP1 PUSH2 0x1003 JUMP JUMPDEST SWAP1 DUP2 MSTORE PUSH1 0x20 ADD PUSH1 0x40 MLOAD DUP1 SWAP2 SUB SWAP1 KECCAK256 PUSH1 0x0 SWAP1 SLOAD SWAP1 PUSH2 0x100 EXP SWAP1 DIV PUSH20 0xFFFFFFFFFFFFFFFFFFFFFFFFFFFFFFFFFFFFFFFF AND PUSH2 0x54A JUMP JUMPDEST PUSH32 0x4E5BFBE05270402FC09CD413235062E684A8396BE0A33385106E3B5C34302E60 PUSH1 0x3 DUP5 PUSH1 0x40 MLOAD PUSH2 0x702 SWAP2 SWAP1 PUSH2 0x1003 JUMP JUMPDEST SWAP1 DUP2 MSTORE PUSH1 0x20 ADD PUSH1 0x40 MLOAD DUP1 SWAP2 SUB SWAP1 KECCAK256 PUSH1 0x0 SWAP1 SLOAD SWAP1 PUSH2 0x100 EXP SWAP1 DIV PUSH20 0xFFFFFFFFFFFFFFFFFFFFFFFFFFFFFFFFFFFFFFFF AND PUSH1 0x6 PUSH1 0x0 PUSH1 0x3 DUP8 PUSH1 0x40 MLOAD PUSH2 0x745 SWAP2 SWAP1 PUSH2 0x1003 JUMP JUMPDEST SWAP1 DUP2 MSTORE PUSH1 0x20 ADD PUSH1 0x40 MLOAD DUP1 SWAP2 SUB SWAP1 KECCAK256 PUSH1 0x0 SWAP1 SLOAD SWAP1 PUSH2 0x100 EXP SWAP1 DIV PUSH20 0xFFFFFFFFFFFFFFFFFFFFFFFFFFFFFFFFFFFFFFFF AND PUSH20 0xFFFFFFFFFFFFFFFFFFFFFFFFFFFFFFFFFFFFFFFF AND PUSH20 0xFFFFFFFFFFFFFFFFFFFFFFFFFFFFFFFFFFFFFFFF AND DUP2 MSTORE PUSH1 0x20 ADD SWAP1 DUP2 MSTORE PUSH1 0x20 ADD PUSH1 0x0 KECCAK256 SLOAD PUSH1 0x40 MLOAD PUSH2 0x7BD SWAP3 SWAP2 SWAP1 PUSH2 0x10BB JUMP JUMPDEST PUSH1 0x40 MLOAD DUP1 SWAP2 SUB SWAP1 LOG1 JUMPDEST POP POP POP POP POP POP POP JUMP JUMPDEST PUSH1 0x6 PUSH1 0x20 MSTORE DUP1 PUSH1 0x0 MSTORE PUSH1 0x40 PUSH1 0x0 KECCAK256 PUSH1 0x0 SWAP2 POP SWAP1 POP SLOAD DUP2 JUMP JUMPDEST PUSH1 0x4 PUSH1 0x0 SWAP1 SLOAD SWAP1 PUSH2 0x100 EXP SWAP1 DIV PUSH20 0xFFFFFFFFFFFFFFFFFFFFFFFFFFFFFFFFFFFFFFFF AND PUSH20 0xFFFFFFFFFFFFFFFFFFFFFFFFFFFFFFFFFFFFFFFF AND CALLER PUSH20 0xFFFFFFFFFFFFFFFFFFFFFFFFFFFFFFFFFFFFFFFF AND EQ PUSH2 0x841 JUMPI PUSH1 0x0 DUP1 REVERT JUMPDEST PUSH1 0x1 DUP1 DUP4 PUSH1 0x40 MLOAD PUSH2 0x852 SWAP2 SWAP1 PUSH2 0x1003 JUMP JUMPDEST SWAP1 DUP2 MSTORE PUSH1 0x20 ADD PUSH1 0x40 MLOAD DUP1 SWAP2 SUB SWAP1 KECCAK256 PUSH1 0x0 PUSH2 0x100 EXP DUP2 SLOAD DUP2 PUSH1 0xFF MUL NOT AND SWAP1 DUP4 ISZERO ISZERO MUL OR SWAP1 SSTORE POP PUSH1 0x1 DUP3 PUSH1 0x40 MLOAD PUSH2 0x887 SWAP2 SWAP1 PUSH2 0x1003 JUMP JUMPDEST SWAP1 DUP2 MSTORE PUSH1 0x20 ADD PUSH1 0x40 MLOAD DUP1 SWAP2 SUB SWAP1 KECCAK256 PUSH1 0x0 SWAP1 SLOAD SWAP1 PUSH2 0x100 EXP SWAP1 DIV PUSH1 0xFF AND PUSH2 0x8AC JUMPI PUSH1 0x0 DUP1 REVERT JUMPDEST PUSH1 0x1 PUSH1 0x2 DUP4 PUSH1 0x40 MLOAD PUSH2 0x8BE SWAP2 SWAP1 PUSH2 0x1003 JUMP JUMPDEST SWAP1 DUP2 MSTORE PUSH1 0x20 ADD PUSH1 0x40 MLOAD DUP1 SWAP2 SUB SWAP1 KECCAK256 PUSH1 0x0 PUSH2 0x100 EXP DUP2 SLOAD DUP2 PUSH1 0xFF MUL NOT AND SWAP1 DUP4 ISZERO ISZERO MUL OR SWAP1 SSTORE POP DUP2 PUSH1 0x5 PUSH1 0x0 DUP4 PUSH20 0xFFFFFFFFFFFFFFFFFFFFFFFFFFFFFFFFFFFFFFFF AND PUSH20 0xFFFFFFFFFFFFFFFFFFFFFFFFFFFFFFFFFFFFFFFF AND DUP2 MSTORE PUSH1 0x20 ADD SWAP1 DUP2 MSTORE PUSH1 0x20 ADD PUSH1 0x0 KECCAK256 SWAP1 DUP2 PUSH2 0x92F SWAP2 SWAP1 PUSH2 0x127B JUMP JUMPDEST POP DUP1 PUSH1 0x3 DUP4 PUSH1 0x40 MLOAD PUSH2 0x941 SWAP2 SWAP1 PUSH2 0x1003 JUMP JUMPDEST SWAP1 DUP2 MSTORE PUSH1 0x20 ADD PUSH1 0x40 MLOAD DUP1 SWAP2 SUB SWAP1 KECCAK256 PUSH1 0x0 PUSH2 0x100 EXP DUP2 SLOAD DUP2 PUSH20 0xFFFFFFFFFFFFFFFFFFFFFFFFFFFFFFFFFFFFFFFF MUL NOT AND SWAP1 DUP4 PUSH20 0xFFFFFFFFFFFFFFFFFFFFFFFFFFFFFFFFFFFFFFFF AND MUL OR SWAP1 SSTORE POP POP POP JUMP JUMPDEST PUSH32 0x4E487B7100000000000000000000000000000000000000000000000000000000 PUSH1 0x0 MSTORE PUSH1 0x22 PUSH1 0x4 MSTORE PUSH1 0x24 PUSH1 0x0 REVERT JUMPDEST PUSH1 0x0 PUSH1 0x2 DUP3 DIV SWAP1 POP PUSH1 0x1 DUP3 AND DUP1 PUSH2 0x9D8 JUMPI PUSH1 0x7F DUP3 AND SWAP2 POP JUMPDEST PUSH1 0x20 DUP3 LT DUP2 SUB PUSH2 0x9EB JUMPI PUSH2 0x9EA PUSH2 0x991 JUMP JUMPDEST JUMPDEST POP SWAP2 SWAP1 POP JUMP JUMPDEST PUSH1 0x0 DUP2 SWAP1 POP SWAP3 SWAP2 POP POP JUMP JUMPDEST PUSH1 0x0 DUP2 SWAP1 POP DUP2 PUSH1 0x0 MSTORE PUSH1 0x20 PUSH1 0x0 KECCAK256 SWAP1 POP SWAP2 SWAP1 POP JUMP JUMPDEST PUSH1 0x0 DUP2 SLOAD PUSH2 0xA1E DUP2 PUSH2 0x9C0 JUMP JUMPDEST PUSH2 0xA28 DUP2 DUP7 PUSH2 0x9F1 JUMP JUMPDEST SWAP5 POP PUSH1 0x1 DUP3 AND PUSH1 0x0 DUP2 EQ PUSH2 0xA43 JUMPI PUSH1 0x1 DUP2 EQ PUSH2 0xA58 JUMPI PUSH2 0xA8B JUMP JUMPDEST PUSH1 0xFF NOT DUP4 AND DUP7 MSTORE DUP2 ISZERO ISZERO DUP3 MUL DUP7 ADD SWAP4 POP PUSH2 0xA8B JUMP JUMPDEST PUSH2 0xA61 DUP6 PUSH2 0x9FC JUMP JUMPDEST PUSH1 0x0 JUMPDEST DUP4 DUP2 LT ISZERO PUSH2 0xA83 JUMPI DUP2 SLOAD DUP2 DUP10 ADD MSTORE PUSH1 0x1 DUP3 ADD SWAP2 POP PUSH1 0x20 DUP2 ADD SWAP1 POP PUSH2 0xA64 JUMP JUMPDEST DUP4 DUP9 ADD SWAP6 POP POP POP JUMPDEST POP POP POP SWAP3 SWAP2 POP POP JUMP JUMPDEST PUSH1 0x0 PUSH2 0xAA0 DUP3 DUP5 PUSH2 0xA11 JUMP JUMPDEST SWAP2 POP DUP2 SWAP1 POP SWAP3 SWAP2 POP POP JUMP JUMPDEST PUSH1 0x0 PUSH1 0x40 MLOAD SWAP1 POP SWAP1 JUMP JUMPDEST PUSH1 0x0 DUP1 REVERT JUMPDEST PUSH1 0x0 DUP1 REVERT JUMPDEST PUSH1 0x0 PUSH20 0xFFFFFFFFFFFFFFFFFFFFFFFFFFFFFFFFFFFFFFFF DUP3 AND SWAP1 POP SWAP2 SWAP1 POP JUMP JUMPDEST PUSH1 0x0 PUSH2 0xAEA DUP3 PUSH2 0xABF JUMP JUMPDEST SWAP1 POP SWAP2 SWAP1 POP JUMP JUMPDEST PUSH2 0xAFA DUP2 PUSH2 0xADF JUMP JUMPDEST DUP2 EQ PUSH2 0xB05 JUMPI PUSH1 0x0 DUP1 REVERT JUMPDEST POP JUMP JUMPDEST PUSH1 0x0 DUP2 CALLDATALOAD SWAP1 POP PUSH2 0xB17 DUP2 PUSH2 0xAF1 JUMP JUMPDEST SWAP3 SWAP2 POP POP JUMP JUMPDEST PUSH1 0x0 PUSH1 0x20 DUP3 DUP5 SUB SLT ISZERO PUSH2 0xB33 JUMPI PUSH2 0xB32 PUSH2 0xAB5 JUMP JUMPDEST JUMPDEST PUSH1 0x0 PUSH2 0xB41 DUP5 DUP3 DUP6 ADD PUSH2 0xB08 JUMP JUMPDEST SWAP2 POP POP SWAP3 SWAP2 POP POP JUMP JUMPDEST PUSH1 0x0 DUP2 ISZERO ISZERO SWAP1 POP SWAP2 SWAP1 POP JUMP JUMPDEST PUSH2 0xB5F DUP2 PUSH2 0xB4A JUMP JUMPDEST DUP3 MSTORE POP POP JUMP JUMPDEST PUSH1 0x0 PUSH1 0x20 DUP3 ADD SWAP1 POP PUSH2 0xB7A PUSH1 0x0 DUP4 ADD DUP5 PUSH2 0xB56 JUMP JUMPDEST SWAP3 SWAP2 POP POP JUMP JUMPDEST PUSH2 0xB89 DUP2 PUSH2 0xADF JUMP JUMPDEST DUP3 MSTORE POP POP JUMP JUMPDEST PUSH1 0x0 PUSH1 0x20 DUP3 ADD SWAP1 POP PUSH2 0xBA4 PUSH1 0x0 DUP4 ADD DUP5 PUSH2 0xB80 JUMP JUMPDEST SWAP3 SWAP2 POP POP JUMP JUMPDEST PUSH1 0x0 DUP1 REVERT JUMPDEST PUSH1 0x0 DUP1 REVERT JUMPDEST PUSH1 0x0 PUSH1 0x1F NOT PUSH1 0x1F DUP4 ADD AND SWAP1 POP SWAP2 SWAP1 POP JUMP JUMPDEST PUSH32 0x4E487B7100000000000000000000000000000000000000000000000000000000 PUSH1 0x0 MSTORE PUSH1 0x41 PUSH1 0x4 MSTORE PUSH1 0x24 PUSH1 0x0 REVERT JUMPDEST PUSH2 0xBFD DUP3 PUSH2 0xBB4 JUMP JUMPDEST DUP2 ADD DUP2 DUP2 LT PUSH8 0xFFFFFFFFFFFFFFFF DUP3 GT OR ISZERO PUSH2 0xC1C JUMPI PUSH2 0xC1B PUSH2 0xBC5 JUMP JUMPDEST JUMPDEST DUP1 PUSH1 0x40 MSTORE POP POP POP JUMP JUMPDEST PUSH1 0x0 PUSH2 0xC2F PUSH2 0xAAB JUMP JUMPDEST SWAP1 POP PUSH2 0xC3B DUP3 DUP3 PUSH2 0xBF4 JUMP JUMPDEST SWAP2 SWAP1 POP JUMP JUMPDEST PUSH1 0x0 PUSH8 0xFFFFFFFFFFFFFFFF DUP3 GT ISZERO PUSH2 0xC5B JUMPI PUSH2 0xC5A PUSH2 0xBC5 JUMP JUMPDEST JUMPDEST PUSH2 0xC64 DUP3 PUSH2 0xBB4 JUMP JUMPDEST SWAP1 POP PUSH1 0x20 DUP2 ADD SWAP1 POP SWAP2 SWAP1 POP JUMP JUMPDEST DUP3 DUP2 DUP4 CALLDATACOPY PUSH1 0x0 DUP4 DUP4 ADD MSTORE POP POP POP JUMP JUMPDEST PUSH1 0x0 PUSH2 0xC93 PUSH2 0xC8E DUP5 PUSH2 0xC40 JUMP JUMPDEST PUSH2 0xC25 JUMP JUMPDEST SWAP1 POP DUP3 DUP2 MSTORE PUSH1 0x20 DUP2 ADD DUP5 DUP5 DUP5 ADD GT ISZERO PUSH2 0xCAF JUMPI PUSH2 0xCAE PUSH2 0xBAF JUMP JUMPDEST JUMPDEST PUSH2 0xCBA DUP5 DUP3 DUP6 PUSH2 0xC71 JUMP JUMPDEST POP SWAP4 SWAP3 POP POP POP JUMP JUMPDEST PUSH1 0x0 DUP3 PUSH1 0x1F DUP4 ADD SLT PUSH2 0xCD7 JUMPI PUSH2 0xCD6 PUSH2 0xBAA JUMP JUMPDEST JUMPDEST DUP2 CALLDATALOAD PUSH2 0xCE7 DUP5 DUP3 PUSH1 0x20 DUP7 ADD PUSH2 0xC80 JUMP JUMPDEST SWAP2 POP POP SWAP3 SWAP2 POP POP JUMP JUMPDEST PUSH1 0x0 PUSH1 0x20 DUP3 DUP5 SUB SLT ISZERO PUSH2 0xD06 JUMPI PUSH2 0xD05 PUSH2 0xAB5 JUMP JUMPDEST JUMPDEST PUSH1 0x0 DUP3 ADD CALLDATALOAD PUSH8 0xFFFFFFFFFFFFFFFF DUP2 GT ISZERO PUSH2 0xD24 JUMPI PUSH2 0xD23 PUSH2 0xABA JUMP JUMPDEST JUMPDEST PUSH2 0xD30 DUP5 DUP3 DUP6 ADD PUSH2 0xCC2 JUMP JUMPDEST SWAP2 POP POP SWAP3 SWAP2 POP POP JUMP JUMPDEST PUSH1 0x0 DUP2 SWAP1 POP SWAP2 SWAP1 POP JUMP JUMPDEST PUSH2 0xD4C DUP2 PUSH2 0xD39 JUMP JUMPDEST DUP2 EQ PUSH2 0xD57 JUMPI PUSH1 0x0 DUP1 REVERT JUMPDEST POP JUMP JUMPDEST PUSH1 0x0 DUP2 CALLDATALOAD SWAP1 POP PUSH2 0xD69 DUP2 PUSH2 0xD43 JUMP JUMPDEST SWAP3 SWAP2 POP POP JUMP JUMPDEST PUSH2 0xD78 DUP2 PUSH2 0xB4A JUMP JUMPDEST DUP2 EQ PUSH2 0xD83 JUMPI PUSH1 0x0 DUP1 REVERT JUMPDEST POP JUMP JUMPDEST PUSH1 0x0 DUP2 CALLDATALOAD SWAP1 POP PUSH2 0xD95 DUP2 PUSH2 0xD6F JUMP JUMPDEST SWAP3 SWAP2 POP POP JUMP JUMPDEST PUSH1 0x0 DUP1 PUSH1 0x0 DUP1 PUSH1 0x0 DUP1 PUSH1 0x0 PUSH1 0xE0 DUP9 DUP11 SUB SLT ISZERO PUSH2 0xDBA JUMPI PUSH2 0xDB9 PUSH2 0xAB5 JUMP JUMPDEST JUMPDEST PUSH1 0x0 DUP9 ADD CALLDATALOAD PUSH8 0xFFFFFFFFFFFFFFFF DUP2 GT ISZERO PUSH2 0xDD8 JUMPI PUSH2 0xDD7 PUSH2 0xABA JUMP JUMPDEST JUMPDEST PUSH2 0xDE4 DUP11 DUP3 DUP12 ADD PUSH2 0xCC2 JUMP JUMPDEST SWAP8 POP POP PUSH1 0x20 DUP9 ADD CALLDATALOAD PUSH8 0xFFFFFFFFFFFFFFFF DUP2 GT ISZERO PUSH2 0xE05 JUMPI PUSH2 0xE04 PUSH2 0xABA JUMP JUMPDEST JUMPDEST PUSH2 0xE11 DUP11 DUP3 DUP12 ADD PUSH2 0xCC2 JUMP JUMPDEST SWAP7 POP POP PUSH1 0x40 PUSH2 0xE22 DUP11 DUP3 DUP12 ADD PUSH2 0xD5A JUMP JUMPDEST SWAP6 POP POP PUSH1 0x60 PUSH2 0xE33 DUP11 DUP3 DUP12 ADD PUSH2 0xD5A JUMP JUMPDEST SWAP5 POP POP PUSH1 0x80 DUP9 ADD CALLDATALOAD PUSH8 0xFFFFFFFFFFFFFFFF DUP2 GT ISZERO PUSH2 0xE54 JUMPI PUSH2 0xE53 PUSH2 0xABA JUMP JUMPDEST JUMPDEST PUSH2 0xE60 DUP11 DUP3 DUP12 ADD PUSH2 0xCC2 JUMP JUMPDEST SWAP4 POP POP PUSH1 0xA0 PUSH2 0xE71 DUP11 DUP3 DUP12 ADD PUSH2 0xD86 JUMP JUMPDEST SWAP3 POP POP PUSH1 0xC0 PUSH2 0xE82 DUP11 DUP3 DUP12 ADD PUSH2 0xD5A JUMP JUMPDEST SWAP2 POP POP SWAP3 SWAP6 SWAP9 SWAP2 SWAP5 SWAP8 POP SWAP3 SWAP6 POP JUMP JUMPDEST PUSH2 0xE9A DUP2 PUSH2 0xD39 JUMP JUMPDEST DUP3 MSTORE POP POP JUMP JUMPDEST PUSH1 0x0 PUSH1 0x20 DUP3 ADD SWAP1 POP PUSH2 0xEB5 PUSH1 0x0 DUP4 ADD DUP5 PUSH2 0xE91 JUMP JUMPDEST SWAP3 SWAP2 POP POP JUMP JUMPDEST PUSH1 0x0 DUP1 PUSH1 0x40 DUP4 DUP6 SUB SLT ISZERO PUSH2 0xED2 JUMPI PUSH2 0xED1 PUSH2 0xAB5 JUMP JUMPDEST JUMPDEST PUSH1 0x0 DUP4 ADD CALLDATALOAD PUSH8 0xFFFFFFFFFFFFFFFF DUP2 GT ISZERO PUSH2 0xEF0 JUMPI PUSH2 0xEEF PUSH2 0xABA JUMP JUMPDEST JUMPDEST PUSH2 0xEFC DUP6 DUP3 DUP7 ADD PUSH2 0xCC2 JUMP JUMPDEST SWAP3 POP POP PUSH1 0x20 PUSH2 0xF0D DUP6 DUP3 DUP7 ADD PUSH2 0xB08 JUMP JUMPDEST SWAP2 POP POP SWAP3 POP SWAP3 SWAP1 POP JUMP JUMPDEST PUSH1 0x0 DUP3 DUP3 MSTORE PUSH1 0x20 DUP3 ADD SWAP1 POP SWAP3 SWAP2 POP POP JUMP JUMPDEST PUSH32 0x4F776E61626C653A2063616C6C6572206973206E6F7420746865206F776E6572 PUSH1 0x0 DUP3 ADD MSTORE POP JUMP JUMPDEST PUSH1 0x0 PUSH2 0xF5E PUSH1 0x20 DUP4 PUSH2 0xF17 JUMP JUMPDEST SWAP2 POP PUSH2 0xF69 DUP3 PUSH2 0xF28 JUMP JUMPDEST PUSH1 0x20 DUP3 ADD SWAP1 POP SWAP2 SWAP1 POP JUMP JUMPDEST PUSH1 0x0 PUSH1 0x20 DUP3 ADD SWAP1 POP DUP2 DUP2 SUB PUSH1 0x0 DUP4 ADD MSTORE PUSH2 0xF8D DUP2 PUSH2 0xF51 JUMP JUMPDEST SWAP1 POP SWAP2 SWAP1 POP JUMP JUMPDEST PUSH1 0x0 DUP2 MLOAD SWAP1 POP SWAP2 SWAP1 POP JUMP JUMPDEST PUSH1 0x0 JUMPDEST DUP4 DUP2 LT ISZERO PUSH2 0xFBD JUMPI DUP1 DUP3 ADD MLOAD DUP2 DUP5 ADD MSTORE PUSH1 0x20 DUP2 ADD SWAP1 POP PUSH2 0xFA2 JUMP JUMPDEST DUP4 DUP2 GT ISZERO PUSH2 0xFCC JUMPI PUSH1 0x0 DUP5 DUP5 ADD MSTORE JUMPDEST POP POP POP POP JUMP JUMPDEST PUSH1 0x0 PUSH2 0xFDD DUP3 PUSH2 0xF94 JUMP JUMPDEST PUSH2 0xFE7 DUP2 DUP6 PUSH2 0x9F1 JUMP JUMPDEST SWAP4 POP PUSH2 0xFF7 DUP2 DUP6 PUSH1 0x20 DUP7 ADD PUSH2 0xF9F JUMP JUMPDEST DUP1 DUP5 ADD SWAP2 POP POP SWAP3 SWAP2 POP POP JUMP JUMPDEST PUSH1 0x0 PUSH2 0x100F DUP3 DUP5 PUSH2 0xFD2 JUMP JUMPDEST SWAP2 POP DUP2 SWAP1 POP SWAP3 SWAP2 POP POP JUMP JUMPDEST PUSH1 0x0 PUSH2 0x1025 DUP3 PUSH2 0xF94 JUMP JUMPDEST PUSH2 0x102F DUP2 DUP6 PUSH2 0xF17 JUMP JUMPDEST SWAP4 POP PUSH2 0x103F DUP2 DUP6 PUSH1 0x20 DUP7 ADD PUSH2 0xF9F JUMP JUMPDEST PUSH2 0x1048 DUP2 PUSH2 0xBB4 JUMP JUMPDEST DUP5 ADD SWAP2 POP POP SWAP3 SWAP2 POP POP JUMP JUMPDEST PUSH1 0x0 PUSH1 0xA0 DUP3 ADD SWAP1 POP DUP2 DUP2 SUB PUSH1 0x0 DUP4 ADD MSTORE PUSH2 0x106D DUP2 DUP9 PUSH2 0x101A JUMP JUMPDEST SWAP1 POP DUP2 DUP2 SUB PUSH1 0x20 DUP4 ADD MSTORE PUSH2 0x1081 DUP2 DUP8 PUSH2 0x101A JUMP JUMPDEST SWAP1 POP PUSH2 0x1090 PUSH1 0x40 DUP4 ADD DUP7 PUSH2 0xE91 JUMP JUMPDEST PUSH2 0x109D PUSH1 0x60 DUP4 ADD DUP6 PUSH2 0xE91 JUMP JUMPDEST DUP2 DUP2 SUB PUSH1 0x80 DUP4 ADD MSTORE PUSH2 0x10AF DUP2 DUP5 PUSH2 0x101A JUMP JUMPDEST SWAP1 POP SWAP7 SWAP6 POP POP POP POP POP POP JUMP JUMPDEST PUSH1 0x0 PUSH1 0x40 DUP3 ADD SWAP1 POP PUSH2 0x10D0 PUSH1 0x0 DUP4 ADD DUP6 PUSH2 0xB80 JUMP JUMPDEST PUSH2 0x10DD PUSH1 0x20 DUP4 ADD DUP5 PUSH2 0xE91 JUMP JUMPDEST SWAP4 SWAP3 POP POP POP JUMP JUMPDEST PUSH1 0x0 PUSH1 0x20 PUSH1 0x1F DUP4 ADD DIV SWAP1 POP SWAP2 SWAP1 POP JUMP JUMPDEST PUSH1 0x0 DUP3 DUP3 SHL SWAP1 POP SWAP3 SWAP2 POP POP JUMP JUMPDEST PUSH1 0x0 PUSH1 0x8 DUP4 MUL PUSH2 0x1131 PUSH32 0xFFFFFFFFFFFFFFFFFFFFFFFFFFFFFFFFFFFFFFFFFFFFFFFFFFFFFFFFFFFFFFFF DUP3 PUSH2 0x10F4 JUMP JUMPDEST PUSH2 0x113B DUP7 DUP4 PUSH2 0x10F4 JUMP JUMPDEST SWAP6 POP DUP1 NOT DUP5 AND SWAP4 POP DUP1 DUP7 AND DUP5 OR SWAP3 POP POP POP SWAP4 SWAP3 POP POP POP JUMP JUMPDEST PUSH1 0x0 DUP2 SWAP1 POP SWAP2 SWAP1 POP JUMP JUMPDEST PUSH1 0x0 PUSH2 0x1178 PUSH2 0x1173 PUSH2 0x116E DUP5 PUSH2 0xD39 JUMP JUMPDEST PUSH2 0x1153 JUMP JUMPDEST PUSH2 0xD39 JUMP JUMPDEST SWAP1 POP SWAP2 SWAP1 POP JUMP JUMPDEST PUSH1 0x0 DUP2 SWAP1 POP SWAP2 SWAP1 POP JUMP JUMPDEST PUSH2 0x1192 DUP4 PUSH2 0x115D JUMP JUMPDEST PUSH2 0x11A6 PUSH2 0x119E DUP3 PUSH2 0x117F JUMP JUMPDEST DUP5 DUP5 SLOAD PUSH2 0x1101 JUMP JUMPDEST DUP3 SSTORE POP POP POP POP JUMP JUMPDEST PUSH1 0x0 SWAP1 JUMP JUMPDEST PUSH2 0x11BB PUSH2 0x11AE JUMP JUMPDEST PUSH2 0x11C6 DUP2 DUP5 DUP5 PUSH2 0x1189 JUMP JUMPDEST POP POP POP JUMP JUMPDEST JUMPDEST DUP2 DUP2 LT ISZERO PUSH2 0x11EA JUMPI PUSH2 0x11DF PUSH1 0x0 DUP3 PUSH2 0x11B3 JUMP JUMPDEST PUSH1 0x1 DUP2 ADD SWAP1 POP PUSH2 0x11CC JUMP JUMPDEST POP POP JUMP JUMPDEST PUSH1 0x1F DUP3 GT ISZERO PUSH2 0x122F JUMPI PUSH2 0x1200 DUP2 PUSH2 0x9FC JUMP JUMPDEST PUSH2 0x1209 DUP5 PUSH2 0x10E4 JUMP JUMPDEST DUP2 ADD PUSH1 0x20 DUP6 LT ISZERO PUSH2 0x1218 JUMPI DUP2 SWAP1 POP JUMPDEST PUSH2 0x122C PUSH2 0x1224 DUP6 PUSH2 0x10E4 JUMP JUMPDEST DUP4 ADD DUP3 PUSH2 0x11CB JUMP JUMPDEST POP POP JUMPDEST POP POP POP JUMP JUMPDEST PUSH1 0x0 DUP3 DUP3 SHR SWAP1 POP SWAP3 SWAP2 POP POP JUMP JUMPDEST PUSH1 0x0 PUSH2 0x1252 PUSH1 0x0 NOT DUP5 PUSH1 0x8 MUL PUSH2 0x1234 JUMP JUMPDEST NOT DUP1 DUP4 AND SWAP2 POP POP SWAP3 SWAP2 POP POP JUMP JUMPDEST PUSH1 0x0 PUSH2 0x126B DUP4 DUP4 PUSH2 0x1241 JUMP JUMPDEST SWAP2 POP DUP3 PUSH1 0x2 MUL DUP3 OR SWAP1 POP SWAP3 SWAP2 POP POP JUMP JUMPDEST PUSH2 0x1284 DUP3 PUSH2 0xF94 JUMP JUMPDEST PUSH8 0xFFFFFFFFFFFFFFFF DUP2 GT ISZERO PUSH2 0x129D JUMPI PUSH2 0x129C PUSH2 0xBC5 JUMP JUMPDEST JUMPDEST PUSH2 0x12A7 DUP3 SLOAD PUSH2 0x9C0 JUMP JUMPDEST PUSH2 0x12B2 DUP3 DUP3 DUP6 PUSH2 0x11EE JUMP JUMPDEST PUSH1 0x0 PUSH1 0x20 SWAP1 POP PUSH1 0x1F DUP4 GT PUSH1 0x1 DUP2 EQ PUSH2 0x12E5 JUMPI PUSH1 0x0 DUP5 ISZERO PUSH2 0x12D3 JUMPI DUP3 DUP8 ADD MLOAD SWAP1 POP JUMPDEST PUSH2 0x12DD DUP6 DUP3 PUSH2 0x125F JUMP JUMPDEST DUP7 SSTORE POP PUSH2 0x1345 JUMP JUMPDEST PUSH1 0x1F NOT DUP5 AND PUSH2 0x12F3 DUP7 PUSH2 0x9FC JUMP JUMPDEST PUSH1 0x0 JUMPDEST DUP3 DUP2 LT ISZERO PUSH2 0x131B JUMPI DUP5 DUP10 ADD MLOAD DUP3 SSTORE PUSH1 0x1 DUP3 ADD SWAP2 POP PUSH1 0x20 DUP6 ADD SWAP5 POP PUSH1 0x20 DUP2 ADD SWAP1 POP PUSH2 0x12F6 JUMP JUMPDEST DUP7 DUP4 LT ISZERO PUSH2 0x1338 JUMPI DUP5 DUP10 ADD MLOAD PUSH2 0x1334 PUSH1 0x1F DUP10 AND DUP3 PUSH2 0x1241 JUMP JUMPDEST DUP4 SSTORE POP JUMPDEST PUSH1 0x1 PUSH1 0x2 DUP9 MUL ADD DUP9 SSTORE POP POP POP JUMPDEST POP POP POP POP POP POP JUMP INVALID LOG2 PUSH5 0x6970667358 0x22 SLT KECCAK256 SHR SWAP10 SIGNEXTEND 0xAB 0xA5 PUSH30 0xBA1EC37F941A21C844490FEF26536C0B433DFC2B11A8025C416964736F6C PUSH4 0x4300080F STOP CALLER "
				},
				"gasEstimates": {
					"creation": {
						"codeDepositCost": "999000",
						"executionCost": "49573",
						"totalCost": "1048573"
					},
					"external": {
						"_owner()": "2578",
						"isOwner()": "2541",
						"issueCertificate(string,string,uint256,uint256,string,bool,uint256)": "infinite",
						"returnStakedEther(address)": "453",
						"setAdmin(address)": "26950",
						"setOwner(address)": "26928",
						"stakedAmount(address)": "2880",
						"updateCertificateRecipient(string)": "infinite",
						"updateCertificateRecipientForStaking(string,address)": "infinite"
					}
				},
				"methodIdentifiers": {
					"_owner()": "b2bdfa7b",
					"isOwner()": "8f32d59b",
					"issueCertificate(string,string,uint256,uint256,string,bool,uint256)": "f24426ae",
					"returnStakedEther(address)": "e9e65331",
					"setAdmin(address)": "704b6c02",
					"setOwner(address)": "13af4035",
					"stakedAmount(address)": "f9931855",
					"updateCertificateRecipient(string)": "e9351558",
					"updateCertificateRecipientForStaking(string,address)": "fe49048a"
				}
			},
			"storageLayout": {
				"storage": [
					{
						"astId": 242,
						"contract": "certificateissuer.sol:CertificateIssuer",
						"label": "_owner",
						"offset": 0,
						"slot": "0",
						"type": "t_address"
					},
					{
						"astId": 17,
						"contract": "certificateissuer.sol:CertificateIssuer",
						"label": "cauthValid",
						"offset": 0,
						"slot": "1",
						"type": "t_mapping(t_string_memory_ptr,t_bool)"
					},
					{
						"astId": 21,
						"contract": "certificateissuer.sol:CertificateIssuer",
						"label": "cauthToCanStake",
						"offset": 0,
						"slot": "2",
						"type": "t_mapping(t_string_memory_ptr,t_bool)"
					},
					{
						"astId": 25,
						"contract": "certificateissuer.sol:CertificateIssuer",
						"label": "cauthToAddress",
						"offset": 0,
						"slot": "3",
						"type": "t_mapping(t_string_memory_ptr,t_address)"
					},
					{
						"astId": 27,
						"contract": "certificateissuer.sol:CertificateIssuer",
						"label": "_admin",
						"offset": 0,
						"slot": "4",
						"type": "t_address"
					},
					{
						"astId": 31,
						"contract": "certificateissuer.sol:CertificateIssuer",
						"label": "adressToCauth",
						"offset": 0,
						"slot": "5",
						"type": "t_mapping(t_address,t_string_storage)"
					},
					{
						"astId": 35,
						"contract": "certificateissuer.sol:CertificateIssuer",
						"label": "stakedAmount",
						"offset": 0,
						"slot": "6",
						"type": "t_mapping(t_address,t_uint256)"
					}
				],
				"types": {
					"t_address": {
						"encoding": "inplace",
						"label": "address",
						"numberOfBytes": "20"
					},
					"t_bool": {
						"encoding": "inplace",
						"label": "bool",
						"numberOfBytes": "1"
					},
					"t_mapping(t_address,t_string_storage)": {
						"encoding": "mapping",
						"key": "t_address",
						"label": "mapping(address => string)",
						"numberOfBytes": "32",
						"value": "t_string_storage"
					},
					"t_mapping(t_address,t_uint256)": {
						"encoding": "mapping",
						"key": "t_address",
						"label": "mapping(address => uint256)",
						"numberOfBytes": "32",
						"value": "t_uint256"
					},
					"t_mapping(t_string_memory_ptr,t_address)": {
						"encoding": "mapping",
						"key": "t_string_memory_ptr",
						"label": "mapping(string => address)",
						"numberOfBytes": "32",
						"value": "t_address"
					},
					"t_mapping(t_string_memory_ptr,t_bool)": {
						"encoding": "mapping",
						"key": "t_string_memory_ptr",
						"label": "mapping(string => bool)",
						"numberOfBytes": "32",
						"value": "t_bool"
					},
					"t_string_memory_ptr": {
						"encoding": "bytes",
						"label": "string",
						"numberOfBytes": "32"
					},
					"t_string_storage": {
						"encoding": "bytes",
						"label": "string",
						"numberOfBytes": "32"
					},
					"t_uint256": {
						"encoding": "inplace",
						"label": "uint256",
						"numberOfBytes": "32"
					}
				}
			},
			"userdoc": {
				"kind": "user",
				"methods": {},
				"version": 1
			}
		}
	}
}