{
	"certificateissuer.sol": {
		"CertificateIssuer": {
			"abi": [
				{
					"inputs": [],
					"stateMutability": "nonpayable",
					"type": "constructor"
				},
				{
					"anonymous": false,
					"inputs": [
						{
							"indexed": false,
							"internalType": "string",
							"name": "_name",
							"type": "string"
						},
						{
							"indexed": false,
							"internalType": "string",
							"name": "_courseTittle",
							"type": "string"
						},
						{
							"indexed": false,
							"internalType": "uint256",
							"name": "_duration",
							"type": "uint256"
						},
						{
							"indexed": false,
							"internalType": "uint256",
							"name": "institute",
							"type": "uint256"
						},
						{
							"indexed": false,
							"internalType": "string",
							"name": "cauth",
							"type": "string"
						}
					],
					"name": "certificateIssued",
					"type": "event"
				},
				{
					"anonymous": false,
					"inputs": [
						{
							"indexed": false,
							"internalType": "string",
							"name": "_name",
							"type": "string"
						},
						{
							"indexed": false,
							"internalType": "string",
							"name": "_courseTittle",
							"type": "string"
						},
						{
							"indexed": false,
							"internalType": "uint256",
							"name": "_duration",
							"type": "uint256"
						},
						{
							"indexed": false,
							"internalType": "uint256",
							"name": "institute",
							"type": "uint256"
						},
						{
							"indexed": false,
							"internalType": "string",
							"name": "cauth",
							"type": "string"
						}
					],
					"name": "stakeR",
					"type": "event"
				},
				{
					"inputs": [],
					"name": "_owner",
					"outputs": [
						{
							"internalType": "address",
							"name": "",
							"type": "address"
						}
					],
					"stateMutability": "view",
					"type": "function"
				},
				{
					"inputs": [],
					"name": "isOwner",
					"outputs": [
						{
							"internalType": "bool",
							"name": "",
							"type": "bool"
						}
					],
					"stateMutability": "view",
					"type": "function"
				},
				{
					"inputs": [
						{
							"internalType": "string",
							"name": "_name",
							"type": "string"
						},
						{
							"internalType": "string",
							"name": "_courseTittle",
							"type": "string"
						},
						{
							"internalType": "uint256",
							"name": "_duration",
							"type": "uint256"
						},
						{
							"internalType": "uint256",
							"name": "institute",
							"type": "uint256"
						},
						{
							"internalType": "string",
							"name": "cauth",
							"type": "string"
						}
					],
					"name": "issueCertificate",
					"outputs": [],
					"stateMutability": "payable",
					"type": "function"
				},
				{
					"inputs": [
						{
							"internalType": "address",
							"name": "_studentAddress",
							"type": "address"
						}
					],
					"name": "returnStakedEther",
					"outputs": [],
					"stateMutability": "payable",
					"type": "function"
				},
				{
					"inputs": [
						{
							"internalType": "address",
							"name": "_adminParameter",
							"type": "address"
						}
					],
					"name": "setAdmin",
					"outputs": [],
					"stateMutability": "nonpayable",
					"type": "function"
				},
				{
					"inputs": [
						{
							"internalType": "address",
							"name": "_newOwner",
							"type": "address"
						}
					],
					"name": "setOwner",
					"outputs": [],
					"stateMutability": "nonpayable",
					"type": "function"
				},
				{
					"inputs": [
						{
							"internalType": "address",
							"name": "",
							"type": "address"
						}
					],
					"name": "stakedAmount",
					"outputs": [
						{
							"internalType": "uint256",
							"name": "",
							"type": "uint256"
						}
					],
					"stateMutability": "view",
					"type": "function"
				},
				{
					"inputs": [
						{
							"internalType": "string",
							"name": "cauth",
							"type": "string"
						}
					],
					"name": "updateCertificateRecipient",
					"outputs": [],
					"stateMutability": "nonpayable",
					"type": "function"
				},
				{
					"inputs": [
						{
							"internalType": "string",
							"name": "cauth",
							"type": "string"
						},
						{
							"internalType": "address",
							"name": "_staker",
							"type": "address"
						}
					],
					"name": "updateCertificateRecipientForStaking",
					"outputs": [],
					"stateMutability": "nonpayable",
					"type": "function"
				},
				{
					"stateMutability": "payable",
					"type": "receive"
				}
			],
			"devdoc": {
				"kind": "dev",
				"methods": {
					"isOwner()": {
						"details": "Returns true if the caller is the current owner."
					}
				},
				"version": 1
			},
			"evm": {
				"assembly": "    /* \"certificateissuer.sol\":89:3684  contract CertificateIssuer is Ownable{... */\n  mstore(0x40, 0x80)\n    /* \"certificateissuer.sol\":186:240  constructor (){... */\n  callvalue\n  dup1\n  iszero\n  tag_1\n  jumpi\n  0x00\n  dup1\n  revert\ntag_1:\n  pop\n    /* \"ownable.sol\":150:160  msg.sender */\n  caller\n    /* \"ownable.sol\":141:147  _owner */\n  0x00\n  dup1\n    /* \"ownable.sol\":141:160  _owner = msg.sender */\n  0x0100\n  exp\n  dup2\n  sload\n  dup2\n  0xffffffffffffffffffffffffffffffffffffffff\n  mul\n  not\n  and\n  swap1\n  dup4\n  0xffffffffffffffffffffffffffffffffffffffff\n  and\n  mul\n  or\n  swap1\n  sstore\n  pop\n    /* \"certificateissuer.sol\":220:230  msg.sender */\n  caller\n    /* \"certificateissuer.sol\":211:217  _admin */\n  0x04\n  0x00\n    /* \"certificateissuer.sol\":211:230  _admin = msg.sender */\n  0x0100\n  exp\n  dup2\n  sload\n  dup2\n  0xffffffffffffffffffffffffffffffffffffffff\n  mul\n  not\n  and\n  swap1\n  dup4\n  0xffffffffffffffffffffffffffffffffffffffff\n  and\n  mul\n  or\n  swap1\n  sstore\n  pop\n    /* \"certificateissuer.sol\":89:3684  contract CertificateIssuer is Ownable{... */\n  dataSize(sub_0)\n  dup1\n  dataOffset(sub_0)\n  0x00\n  codecopy\n  0x00\n  return\nstop\n\nsub_0: assembly {\n        /* \"certificateissuer.sol\":89:3684  contract CertificateIssuer is Ownable{... */\n      mstore(0x40, 0x80)\n      jumpi(tag_1, lt(calldatasize, 0x04))\n      shr(0xe0, calldataload(0x00))\n      dup1\n      0xb2bdfa7b\n      gt\n      tag_12\n      jumpi\n      dup1\n      0xb2bdfa7b\n      eq\n      tag_7\n      jumpi\n      dup1\n      0xe9351558\n      eq\n      tag_8\n      jumpi\n      dup1\n      0xe9e65331\n      eq\n      tag_9\n      jumpi\n      dup1\n      0xf9931855\n      eq\n      tag_10\n      jumpi\n      dup1\n      0xfe49048a\n      eq\n      tag_11\n      jumpi\n      jump(tag_2)\n    tag_12:\n      dup1\n      0x13af4035\n      eq\n      tag_3\n      jumpi\n      dup1\n      0x3f59c657\n      eq\n      tag_4\n      jumpi\n      dup1\n      0x704b6c02\n      eq\n      tag_5\n      jumpi\n      dup1\n      0x8f32d59b\n      eq\n      tag_6\n      jumpi\n      jump(tag_2)\n    tag_1:\n      jumpi(tag_2, calldatasize)\n        /* \"certificateissuer.sol\":3568:3583  cauthToCanStake */\n      0x02\n        /* \"certificateissuer.sol\":3584:3597  adressToCauth */\n      0x05\n        /* \"certificateissuer.sol\":3584:3609  adressToCauth[msg.sender] */\n      0x00\n        /* \"certificateissuer.sol\":3598:3608  msg.sender */\n      caller\n        /* \"certificateissuer.sol\":3584:3609  adressToCauth[msg.sender] */\n      0xffffffffffffffffffffffffffffffffffffffff\n      and\n      0xffffffffffffffffffffffffffffffffffffffff\n      and\n      dup2\n      mstore\n      0x20\n      add\n      swap1\n      dup2\n      mstore\n      0x20\n      add\n      0x00\n      keccak256\n        /* \"certificateissuer.sol\":3568:3610  cauthToCanStake[adressToCauth[msg.sender]] */\n      mload(0x40)\n      tag_15\n      swap2\n      swap1\n      tag_16\n      jump\t// in\n    tag_15:\n      swap1\n      dup2\n      mstore\n      0x20\n      add\n      mload(0x40)\n      dup1\n      swap2\n      sub\n      swap1\n      keccak256\n      0x00\n      swap1\n      sload\n      swap1\n      0x0100\n      exp\n      swap1\n      div\n      0xff\n      and\n        /* \"certificateissuer.sol\":3560:3611  require(cauthToCanStake[adressToCauth[msg.sender]]) */\n      tag_17\n      jumpi\n      0x00\n      dup1\n      revert\n    tag_17:\n        /* \"certificateissuer.sol\":3651:3660  msg.value */\n      callvalue\n        /* \"certificateissuer.sol\":3624:3636  stakedAmount */\n      0x06\n        /* \"certificateissuer.sol\":3624:3648  stakedAmount[msg.sender] */\n      0x00\n        /* \"certificateissuer.sol\":3637:3647  msg.sender */\n      caller\n        /* \"certificateissuer.sol\":3624:3648  stakedAmount[msg.sender] */\n      0xffffffffffffffffffffffffffffffffffffffff\n      and\n      0xffffffffffffffffffffffffffffffffffffffff\n      and\n      dup2\n      mstore\n      0x20\n      add\n      swap1\n      dup2\n      mstore\n      0x20\n      add\n      0x00\n      keccak256\n        /* \"certificateissuer.sol\":3624:3660  stakedAmount[msg.sender] = msg.value */\n      dup2\n      swap1\n      sstore\n      stop\n        /* \"certificateissuer.sol\":89:3684  contract CertificateIssuer is Ownable{... */\n    tag_2:\n      0x00\n      dup1\n      revert\n        /* \"ownable.sol\":551:643  function setOwner(address _newOwner) public onlyOwner {... */\n    tag_3:\n      callvalue\n      dup1\n      iszero\n      tag_18\n      jumpi\n      0x00\n      dup1\n      revert\n    tag_18:\n      pop\n      tag_19\n      0x04\n      dup1\n      calldatasize\n      sub\n      dup2\n      add\n      swap1\n      tag_20\n      swap2\n      swap1\n      tag_21\n      jump\t// in\n    tag_20:\n      tag_22\n      jump\t// in\n    tag_19:\n      stop\n        /* \"certificateissuer.sol\":2736:3359  function issueCertificate(string memory _name , string memory _courseTittle, uint _duration , uint institute,string memory cauth ) external payable  {... */\n    tag_4:\n      tag_23\n      0x04\n      dup1\n      calldatasize\n      sub\n      dup2\n      add\n      swap1\n      tag_24\n      swap2\n      swap1\n      tag_25\n      jump\t// in\n    tag_24:\n      tag_26\n      jump\t// in\n    tag_23:\n      stop\n        /* \"certificateissuer.sol\":833:937  function setAdmin(address _adminParameter) public onlyOwner{... */\n    tag_5:\n      callvalue\n      dup1\n      iszero\n      tag_27\n      jumpi\n      0x00\n      dup1\n      revert\n    tag_27:\n      pop\n      tag_28\n      0x04\n      dup1\n      calldatasize\n      sub\n      dup2\n      add\n      swap1\n      tag_29\n      swap2\n      swap1\n      tag_21\n      jump\t// in\n    tag_29:\n      tag_30\n      jump\t// in\n    tag_28:\n      stop\n        /* \"ownable.sol\":451:545  function isOwner() public view returns (bool) {... */\n    tag_6:\n      callvalue\n      dup1\n      iszero\n      tag_31\n      jumpi\n      0x00\n      dup1\n      revert\n    tag_31:\n      pop\n      tag_32\n      tag_33\n      jump\t// in\n    tag_32:\n      mload(0x40)\n      tag_34\n      swap2\n      swap1\n      tag_35\n      jump\t// in\n    tag_34:\n      mload(0x40)\n      dup1\n      swap2\n      sub\n      swap1\n      return\n        /* \"ownable.sol\":85:106  address public _owner */\n    tag_7:\n      callvalue\n      dup1\n      iszero\n      tag_36\n      jumpi\n      0x00\n      dup1\n      revert\n    tag_36:\n      pop\n      tag_37\n      tag_38\n      jump\t// in\n    tag_37:\n      mload(0x40)\n      tag_39\n      swap2\n      swap1\n      tag_40\n      jump\t// in\n    tag_39:\n      mload(0x40)\n      dup1\n      swap2\n      sub\n      swap1\n      return\n        /* \"certificateissuer.sol\":1974:2207  function updateCertificateRecipient(string memory cauth) public  {... */\n    tag_8:\n      callvalue\n      dup1\n      iszero\n      tag_41\n      jumpi\n      0x00\n      dup1\n      revert\n    tag_41:\n      pop\n      tag_42\n      0x04\n      dup1\n      calldatasize\n      sub\n      dup2\n      add\n      swap1\n      tag_43\n      swap2\n      swap1\n      tag_44\n      jump\t// in\n    tag_43:\n      tag_45\n      jump\t// in\n    tag_42:\n      stop\n        /* \"certificateissuer.sol\":3367:3451  function returnStakedEther(address _studentAddress) public payable{... */\n    tag_9:\n      tag_46\n      0x04\n      dup1\n      calldatasize\n      sub\n      dup2\n      add\n      swap1\n      tag_47\n      swap2\n      swap1\n      tag_21\n      jump\t// in\n    tag_47:\n      tag_48\n      jump\t// in\n    tag_46:\n      stop\n        /* \"certificateissuer.sol\":3458:3503  mapping(address =>  uint) public stakedAmount */\n    tag_10:\n      callvalue\n      dup1\n      iszero\n      tag_49\n      jumpi\n      0x00\n      dup1\n      revert\n    tag_49:\n      pop\n      tag_50\n      0x04\n      dup1\n      calldatasize\n      sub\n      dup2\n      add\n      swap1\n      tag_51\n      swap2\n      swap1\n      tag_21\n      jump\t// in\n    tag_51:\n      tag_52\n      jump\t// in\n    tag_50:\n      mload(0x40)\n      tag_53\n      swap2\n      swap1\n      tag_54\n      jump\t// in\n    tag_53:\n      mload(0x40)\n      dup1\n      swap2\n      sub\n      swap1\n      return\n        /* \"certificateissuer.sol\":2383:2728  function updateCertificateRecipientForStaking(string memory cauth,address _staker ) public   {... */\n    tag_11:\n      callvalue\n      dup1\n      iszero\n      tag_55\n      jumpi\n      0x00\n      dup1\n      revert\n    tag_55:\n      pop\n      tag_56\n      0x04\n      dup1\n      calldatasize\n      sub\n      dup2\n      add\n      swap1\n      tag_57\n      swap2\n      swap1\n      tag_58\n      jump\t// in\n    tag_57:\n      tag_59\n      jump\t// in\n    tag_56:\n      stop\n        /* \"ownable.sol\":551:643  function setOwner(address _newOwner) public onlyOwner {... */\n    tag_22:\n        /* \"ownable.sol\":299:308  isOwner() */\n      tag_61\n        /* \"ownable.sol\":299:306  isOwner */\n      tag_33\n        /* \"ownable.sol\":299:308  isOwner() */\n      jump\t// in\n    tag_61:\n        /* \"ownable.sol\":291:345  require(isOwner(), \"Ownable: caller is not the owner\") */\n      tag_62\n      jumpi\n      mload(0x40)\n      0x08c379a000000000000000000000000000000000000000000000000000000000\n      dup2\n      mstore\n      0x04\n      add\n      tag_63\n      swap1\n      tag_64\n      jump\t// in\n    tag_63:\n      mload(0x40)\n      dup1\n      swap2\n      sub\n      swap1\n      revert\n    tag_62:\n        /* \"ownable.sol\":625:634  _newOwner */\n      dup1\n        /* \"ownable.sol\":616:622  _owner */\n      0x00\n      dup1\n        /* \"ownable.sol\":616:634  _owner = _newOwner */\n      0x0100\n      exp\n      dup2\n      sload\n      dup2\n      0xffffffffffffffffffffffffffffffffffffffff\n      mul\n      not\n      and\n      swap1\n      dup4\n      0xffffffffffffffffffffffffffffffffffffffff\n      and\n      mul\n      or\n      swap1\n      sstore\n      pop\n        /* \"ownable.sol\":551:643  function setOwner(address _newOwner) public onlyOwner {... */\n      pop\n      jump\t// out\n        /* \"certificateissuer.sol\":2736:3359  function issueCertificate(string memory _name , string memory _courseTittle, uint _duration , uint institute,string memory cauth ) external payable  {... */\n    tag_26:\n        /* \"certificateissuer.sol\":2979:2983  true */\n      0x01\n        /* \"certificateissuer.sol\":2958:2983  cauthValid[cauth] == true */\n      iszero\n      iszero\n        /* \"certificateissuer.sol\":2958:2968  cauthValid */\n      0x01\n        /* \"certificateissuer.sol\":2969:2974  cauth */\n      dup3\n        /* \"certificateissuer.sol\":2958:2975  cauthValid[cauth] */\n      mload(0x40)\n      tag_67\n      swap2\n      swap1\n      tag_68\n      jump\t// in\n    tag_67:\n      swap1\n      dup2\n      mstore\n      0x20\n      add\n      mload(0x40)\n      dup1\n      swap2\n      sub\n      swap1\n      keccak256\n      0x00\n      swap1\n      sload\n      swap1\n      0x0100\n      exp\n      swap1\n      div\n      0xff\n      and\n        /* \"certificateissuer.sol\":2958:2983  cauthValid[cauth] == true */\n      iszero\n      iszero\n      eq\n        /* \"certificateissuer.sol\":2950:2984  require(cauthValid[cauth] == true) */\n      tag_69\n      jumpi\n      0x00\n      dup1\n      revert\n    tag_69:\n        /* \"certificateissuer.sol\":3048:3054  _admin */\n      0x04\n      0x00\n      swap1\n      sload\n      swap1\n      0x0100\n      exp\n      swap1\n      div\n      0xffffffffffffffffffffffffffffffffffffffff\n      and\n        /* \"certificateissuer.sol\":3034:3054  msg.sender == _admin */\n      0xffffffffffffffffffffffffffffffffffffffff\n      and\n        /* \"certificateissuer.sol\":3034:3044  msg.sender */\n      caller\n        /* \"certificateissuer.sol\":3034:3054  msg.sender == _admin */\n      0xffffffffffffffffffffffffffffffffffffffff\n      and\n      eq\n        /* \"certificateissuer.sol\":3026:3055  require(msg.sender == _admin) */\n      tag_70\n      jumpi\n      0x00\n      dup1\n      revert\n    tag_70:\n        /* \"certificateissuer.sol\":3100:3164  certificateIssued(_name,_courseTittle,_duration,institute,cauth) */\n      0x2ee35da94d6494eb515fd8f6fffdecd1d417dbae7e370cb1f77d709473e01d59\n        /* \"certificateissuer.sol\":3118:3123  _name */\n      dup6\n        /* \"certificateissuer.sol\":3124:3137  _courseTittle */\n      dup6\n        /* \"certificateissuer.sol\":3138:3147  _duration */\n      dup6\n        /* \"certificateissuer.sol\":3148:3157  institute */\n      dup6\n        /* \"certificateissuer.sol\":3158:3163  cauth */\n      dup6\n        /* \"certificateissuer.sol\":3100:3164  certificateIssued(_name,_courseTittle,_duration,institute,cauth) */\n      mload(0x40)\n      tag_71\n      swap6\n      swap5\n      swap4\n      swap3\n      swap2\n      swap1\n      tag_72\n      jump\t// in\n    tag_71:\n      mload(0x40)\n      dup1\n      swap2\n      sub\n      swap1\n      log1\n        /* \"certificateissuer.sol\":3233:3238  false */\n      0x00\n        /* \"certificateissuer.sol\":3213:3223  cauthValid */\n      0x01\n        /* \"certificateissuer.sol\":3224:3229  cauth */\n      dup3\n        /* \"certificateissuer.sol\":3213:3230  cauthValid[cauth] */\n      mload(0x40)\n      tag_73\n      swap2\n      swap1\n      tag_68\n      jump\t// in\n    tag_73:\n      swap1\n      dup2\n      mstore\n      0x20\n      add\n      mload(0x40)\n      dup1\n      swap2\n      sub\n      swap1\n      keccak256\n      0x00\n        /* \"certificateissuer.sol\":3213:3238  cauthValid[cauth] = false */\n      0x0100\n      exp\n      dup2\n      sload\n      dup2\n      0xff\n      mul\n      not\n      and\n      swap1\n      dup4\n      iszero\n      iszero\n      mul\n      or\n      swap1\n      sstore\n      pop\n        /* \"certificateissuer.sol\":3256:3271  cauthToCanStake */\n      0x02\n        /* \"certificateissuer.sol\":3272:3277  cauth */\n      dup2\n        /* \"certificateissuer.sol\":3256:3278  cauthToCanStake[cauth] */\n      mload(0x40)\n      tag_74\n      swap2\n      swap1\n      tag_68\n      jump\t// in\n    tag_74:\n      swap1\n      dup2\n      mstore\n      0x20\n      add\n      mload(0x40)\n      dup1\n      swap2\n      sub\n      swap1\n      keccak256\n      0x00\n      swap1\n      sload\n      swap1\n      0x0100\n      exp\n      swap1\n      div\n      0xff\n      and\n        /* \"certificateissuer.sol\":3253:3346  if(cauthToCanStake[cauth]){... */\n      iszero\n      tag_75\n      jumpi\n        /* \"certificateissuer.sol\":3294:3334  returnStakedEther(cauthToAddress[cauth]) */\n      tag_76\n        /* \"certificateissuer.sol\":3312:3326  cauthToAddress */\n      0x03\n        /* \"certificateissuer.sol\":3327:3332  cauth */\n      dup3\n        /* \"certificateissuer.sol\":3312:3333  cauthToAddress[cauth] */\n      mload(0x40)\n      tag_77\n      swap2\n      swap1\n      tag_68\n      jump\t// in\n    tag_77:\n      swap1\n      dup2\n      mstore\n      0x20\n      add\n      mload(0x40)\n      dup1\n      swap2\n      sub\n      swap1\n      keccak256\n      0x00\n      swap1\n      sload\n      swap1\n      0x0100\n      exp\n      swap1\n      div\n      0xffffffffffffffffffffffffffffffffffffffff\n      and\n        /* \"certificateissuer.sol\":3294:3311  returnStakedEther */\n      tag_48\n        /* \"certificateissuer.sol\":3294:3334  returnStakedEther(cauthToAddress[cauth]) */\n      jump\t// in\n    tag_76:\n        /* \"certificateissuer.sol\":3253:3346  if(cauthToCanStake[cauth]){... */\n    tag_75:\n        /* \"certificateissuer.sol\":2736:3359  function issueCertificate(string memory _name , string memory _courseTittle, uint _duration , uint institute,string memory cauth ) external payable  {... */\n      pop\n      pop\n      pop\n      pop\n      pop\n      jump\t// out\n        /* \"certificateissuer.sol\":833:937  function setAdmin(address _adminParameter) public onlyOwner{... */\n    tag_30:\n        /* \"ownable.sol\":299:308  isOwner() */\n      tag_79\n        /* \"ownable.sol\":299:306  isOwner */\n      tag_33\n        /* \"ownable.sol\":299:308  isOwner() */\n      jump\t// in\n    tag_79:\n        /* \"ownable.sol\":291:345  require(isOwner(), \"Ownable: caller is not the owner\") */\n      tag_80\n      jumpi\n      mload(0x40)\n      0x08c379a000000000000000000000000000000000000000000000000000000000\n      dup2\n      mstore\n      0x04\n      add\n      tag_81\n      swap1\n      tag_64\n      jump\t// in\n    tag_81:\n      mload(0x40)\n      dup1\n      swap2\n      sub\n      swap1\n      revert\n    tag_80:\n        /* \"certificateissuer.sol\":912:927  _adminParameter */\n      dup1\n        /* \"certificateissuer.sol\":903:909  _admin */\n      0x04\n      0x00\n        /* \"certificateissuer.sol\":903:927  _admin = _adminParameter */\n      0x0100\n      exp\n      dup2\n      sload\n      dup2\n      0xffffffffffffffffffffffffffffffffffffffff\n      mul\n      not\n      and\n      swap1\n      dup4\n      0xffffffffffffffffffffffffffffffffffffffff\n      and\n      mul\n      or\n      swap1\n      sstore\n      pop\n        /* \"certificateissuer.sol\":833:937  function setAdmin(address _adminParameter) public onlyOwner{... */\n      pop\n      jump\t// out\n        /* \"ownable.sol\":451:545  function isOwner() public view returns (bool) {... */\n    tag_33:\n        /* \"ownable.sol\":491:495  bool */\n      0x00\n        /* \"ownable.sol\":530:536  _owner */\n      dup1\n      0x00\n      swap1\n      sload\n      swap1\n      0x0100\n      exp\n      swap1\n      div\n      0xffffffffffffffffffffffffffffffffffffffff\n      and\n        /* \"ownable.sol\":516:536  msg.sender == _owner */\n      0xffffffffffffffffffffffffffffffffffffffff\n      and\n        /* \"ownable.sol\":516:526  msg.sender */\n      caller\n        /* \"ownable.sol\":516:536  msg.sender == _owner */\n      0xffffffffffffffffffffffffffffffffffffffff\n      and\n      eq\n        /* \"ownable.sol\":508:537  return (msg.sender == _owner) */\n      swap1\n      pop\n        /* \"ownable.sol\":451:545  function isOwner() public view returns (bool) {... */\n      swap1\n      jump\t// out\n        /* \"ownable.sol\":85:106  address public _owner */\n    tag_38:\n      0x00\n      dup1\n      sload\n      swap1\n      0x0100\n      exp\n      swap1\n      div\n      0xffffffffffffffffffffffffffffffffffffffff\n      and\n      dup2\n      jump\t// out\n        /* \"certificateissuer.sol\":1974:2207  function updateCertificateRecipient(string memory cauth) public  {... */\n    tag_45:\n        /* \"certificateissuer.sol\":2072:2078  _admin */\n      0x04\n      0x00\n      swap1\n      sload\n      swap1\n      0x0100\n      exp\n      swap1\n      div\n      0xffffffffffffffffffffffffffffffffffffffff\n      and\n        /* \"certificateissuer.sol\":2058:2078  msg.sender == _admin */\n      0xffffffffffffffffffffffffffffffffffffffff\n      and\n        /* \"certificateissuer.sol\":2058:2068  msg.sender */\n      caller\n        /* \"certificateissuer.sol\":2058:2078  msg.sender == _admin */\n      0xffffffffffffffffffffffffffffffffffffffff\n      and\n      eq\n        /* \"certificateissuer.sol\":2050:2079  require(msg.sender == _admin) */\n      tag_85\n      jumpi\n      0x00\n      dup1\n      revert\n    tag_85:\n        /* \"certificateissuer.sol\":2111:2115  true */\n      0x01\n        /* \"certificateissuer.sol\":2091:2101  cauthValid */\n      dup1\n        /* \"certificateissuer.sol\":2102:2107  cauth */\n      dup3\n        /* \"certificateissuer.sol\":2091:2108  cauthValid[cauth] */\n      mload(0x40)\n      tag_86\n      swap2\n      swap1\n      tag_68\n      jump\t// in\n    tag_86:\n      swap1\n      dup2\n      mstore\n      0x20\n      add\n      mload(0x40)\n      dup1\n      swap2\n      sub\n      swap1\n      keccak256\n      0x00\n        /* \"certificateissuer.sol\":2091:2115  cauthValid[cauth] = true */\n      0x0100\n      exp\n      dup2\n      sload\n      dup2\n      0xff\n      mul\n      not\n      and\n      swap1\n      dup4\n      iszero\n      iszero\n      mul\n      or\n      swap1\n      sstore\n      pop\n        /* \"certificateissuer.sol\":2137:2147  cauthValid */\n      0x01\n        /* \"certificateissuer.sol\":2148:2153  cauth */\n      dup2\n        /* \"certificateissuer.sol\":2137:2154  cauthValid[cauth] */\n      mload(0x40)\n      tag_87\n      swap2\n      swap1\n      tag_68\n      jump\t// in\n    tag_87:\n      swap1\n      dup2\n      mstore\n      0x20\n      add\n      mload(0x40)\n      dup1\n      swap2\n      sub\n      swap1\n      keccak256\n      0x00\n      swap1\n      sload\n      swap1\n      0x0100\n      exp\n      swap1\n      div\n      0xff\n      and\n        /* \"certificateissuer.sol\":2129:2155  require(cauthValid[cauth]) */\n      tag_88\n      jumpi\n      0x00\n      dup1\n      revert\n    tag_88:\n        /* \"certificateissuer.sol\":2193:2197  true */\n      0x01\n        /* \"certificateissuer.sol\":2168:2183  cauthToCanStake */\n      0x02\n        /* \"certificateissuer.sol\":2184:2189  cauth */\n      dup3\n        /* \"certificateissuer.sol\":2168:2190  cauthToCanStake[cauth] */\n      mload(0x40)\n      tag_89\n      swap2\n      swap1\n      tag_68\n      jump\t// in\n    tag_89:\n      swap1\n      dup2\n      mstore\n      0x20\n      add\n      mload(0x40)\n      dup1\n      swap2\n      sub\n      swap1\n      keccak256\n      0x00\n        /* \"certificateissuer.sol\":2168:2197  cauthToCanStake[cauth] = true */\n      0x0100\n      exp\n      dup2\n      sload\n      dup2\n      0xff\n      mul\n      not\n      and\n      swap1\n      dup4\n      iszero\n      iszero\n      mul\n      or\n      swap1\n      sstore\n      pop\n        /* \"certificateissuer.sol\":1974:2207  function updateCertificateRecipient(string memory cauth) public  {... */\n      pop\n      jump\t// out\n        /* \"certificateissuer.sol\":3367:3451  function returnStakedEther(address _studentAddress) public payable{... */\n    tag_48:\n      pop\n      jump\t// out\n        /* \"certificateissuer.sol\":3458:3503  mapping(address =>  uint) public stakedAmount */\n    tag_52:\n      mstore(0x20, 0x06)\n      dup1\n      0x00\n      mstore\n      keccak256(0x00, 0x40)\n      0x00\n      swap2\n      pop\n      swap1\n      pop\n      sload\n      dup2\n      jump\t// out\n        /* \"certificateissuer.sol\":2383:2728  function updateCertificateRecipientForStaking(string memory cauth,address _staker ) public   {... */\n    tag_59:\n        /* \"certificateissuer.sol\":2509:2515  _admin */\n      0x04\n      0x00\n      swap1\n      sload\n      swap1\n      0x0100\n      exp\n      swap1\n      div\n      0xffffffffffffffffffffffffffffffffffffffff\n      and\n        /* \"certificateissuer.sol\":2495:2515  msg.sender == _admin */\n      0xffffffffffffffffffffffffffffffffffffffff\n      and\n        /* \"certificateissuer.sol\":2495:2505  msg.sender */\n      caller\n        /* \"certificateissuer.sol\":2495:2515  msg.sender == _admin */\n      0xffffffffffffffffffffffffffffffffffffffff\n      and\n      eq\n        /* \"certificateissuer.sol\":2487:2516  require(msg.sender == _admin) */\n      tag_92\n      jumpi\n      0x00\n      dup1\n      revert\n    tag_92:\n        /* \"certificateissuer.sol\":2548:2552  true */\n      0x01\n        /* \"certificateissuer.sol\":2528:2538  cauthValid */\n      dup1\n        /* \"certificateissuer.sol\":2539:2544  cauth */\n      dup4\n        /* \"certificateissuer.sol\":2528:2545  cauthValid[cauth] */\n      mload(0x40)\n      tag_93\n      swap2\n      swap1\n      tag_68\n      jump\t// in\n    tag_93:\n      swap1\n      dup2\n      mstore\n      0x20\n      add\n      mload(0x40)\n      dup1\n      swap2\n      sub\n      swap1\n      keccak256\n      0x00\n        /* \"certificateissuer.sol\":2528:2552  cauthValid[cauth] = true */\n      0x0100\n      exp\n      dup2\n      sload\n      dup2\n      0xff\n      mul\n      not\n      and\n      swap1\n      dup4\n      iszero\n      iszero\n      mul\n      or\n      swap1\n      sstore\n      pop\n        /* \"certificateissuer.sol\":2574:2584  cauthValid */\n      0x01\n        /* \"certificateissuer.sol\":2585:2590  cauth */\n      dup3\n        /* \"certificateissuer.sol\":2574:2591  cauthValid[cauth] */\n      mload(0x40)\n      tag_94\n      swap2\n      swap1\n      tag_68\n      jump\t// in\n    tag_94:\n      swap1\n      dup2\n      mstore\n      0x20\n      add\n      mload(0x40)\n      dup1\n      swap2\n      sub\n      swap1\n      keccak256\n      0x00\n      swap1\n      sload\n      swap1\n      0x0100\n      exp\n      swap1\n      div\n      0xff\n      and\n        /* \"certificateissuer.sol\":2566:2592  require(cauthValid[cauth]) */\n      tag_95\n      jumpi\n      0x00\n      dup1\n      revert\n    tag_95:\n        /* \"certificateissuer.sol\":2630:2634  true */\n      0x01\n        /* \"certificateissuer.sol\":2605:2620  cauthToCanStake */\n      0x02\n        /* \"certificateissuer.sol\":2621:2626  cauth */\n      dup4\n        /* \"certificateissuer.sol\":2605:2627  cauthToCanStake[cauth] */\n      mload(0x40)\n      tag_96\n      swap2\n      swap1\n      tag_68\n      jump\t// in\n    tag_96:\n      swap1\n      dup2\n      mstore\n      0x20\n      add\n      mload(0x40)\n      dup1\n      swap2\n      sub\n      swap1\n      keccak256\n      0x00\n        /* \"certificateissuer.sol\":2605:2634  cauthToCanStake[cauth] = true */\n      0x0100\n      exp\n      dup2\n      sload\n      dup2\n      0xff\n      mul\n      not\n      and\n      swap1\n      dup4\n      iszero\n      iszero\n      mul\n      or\n      swap1\n      sstore\n      pop\n        /* \"certificateissuer.sol\":2672:2677  cauth */\n      dup2\n        /* \"certificateissuer.sol\":2647:2660  adressToCauth */\n      0x05\n        /* \"certificateissuer.sol\":2647:2669  adressToCauth[_staker] */\n      0x00\n        /* \"certificateissuer.sol\":2661:2668  _staker */\n      dup4\n        /* \"certificateissuer.sol\":2647:2669  adressToCauth[_staker] */\n      0xffffffffffffffffffffffffffffffffffffffff\n      and\n      0xffffffffffffffffffffffffffffffffffffffff\n      and\n      dup2\n      mstore\n      0x20\n      add\n      swap1\n      dup2\n      mstore\n      0x20\n      add\n      0x00\n      keccak256\n        /* \"certificateissuer.sol\":2647:2677  adressToCauth[_staker] = cauth */\n      swap1\n      dup2\n      tag_97\n      swap2\n      swap1\n      tag_98\n      jump\t// in\n    tag_97:\n      pop\n        /* \"certificateissuer.sol\":2712:2719  _staker */\n      dup1\n        /* \"certificateissuer.sol\":2689:2703  cauthToAddress */\n      0x03\n        /* \"certificateissuer.sol\":2704:2709  cauth */\n      dup4\n        /* \"certificateissuer.sol\":2689:2710  cauthToAddress[cauth] */\n      mload(0x40)\n      tag_99\n      swap2\n      swap1\n      tag_68\n      jump\t// in\n    tag_99:\n      swap1\n      dup2\n      mstore\n      0x20\n      add\n      mload(0x40)\n      dup1\n      swap2\n      sub\n      swap1\n      keccak256\n      0x00\n        /* \"certificateissuer.sol\":2689:2719  cauthToAddress[cauth] =_staker */\n      0x0100\n      exp\n      dup2\n      sload\n      dup2\n      0xffffffffffffffffffffffffffffffffffffffff\n      mul\n      not\n      and\n      swap1\n      dup4\n      0xffffffffffffffffffffffffffffffffffffffff\n      and\n      mul\n      or\n      swap1\n      sstore\n      pop\n        /* \"certificateissuer.sol\":2383:2728  function updateCertificateRecipientForStaking(string memory cauth,address _staker ) public   {... */\n      pop\n      pop\n      jump\t// out\n        /* \"#utility.yul\":7:187   */\n    tag_100:\n        /* \"#utility.yul\":55:132   */\n      0x4e487b7100000000000000000000000000000000000000000000000000000000\n        /* \"#utility.yul\":52:53   */\n      0x00\n        /* \"#utility.yul\":45:133   */\n      mstore\n        /* \"#utility.yul\":152:156   */\n      0x22\n        /* \"#utility.yul\":149:150   */\n      0x04\n        /* \"#utility.yul\":142:157   */\n      mstore\n        /* \"#utility.yul\":176:180   */\n      0x24\n        /* \"#utility.yul\":173:174   */\n      0x00\n        /* \"#utility.yul\":166:181   */\n      revert\n        /* \"#utility.yul\":193:513   */\n    tag_101:\n        /* \"#utility.yul\":237:243   */\n      0x00\n        /* \"#utility.yul\":274:275   */\n      0x02\n        /* \"#utility.yul\":268:272   */\n      dup3\n        /* \"#utility.yul\":264:276   */\n      div\n        /* \"#utility.yul\":254:276   */\n      swap1\n      pop\n        /* \"#utility.yul\":321:322   */\n      0x01\n        /* \"#utility.yul\":315:319   */\n      dup3\n        /* \"#utility.yul\":311:323   */\n      and\n        /* \"#utility.yul\":342:360   */\n      dup1\n        /* \"#utility.yul\":332:413   */\n      tag_153\n      jumpi\n        /* \"#utility.yul\":398:402   */\n      0x7f\n        /* \"#utility.yul\":390:396   */\n      dup3\n        /* \"#utility.yul\":386:403   */\n      and\n        /* \"#utility.yul\":376:403   */\n      swap2\n      pop\n        /* \"#utility.yul\":332:413   */\n    tag_153:\n        /* \"#utility.yul\":460:462   */\n      0x20\n        /* \"#utility.yul\":452:458   */\n      dup3\n        /* \"#utility.yul\":449:463   */\n      lt\n        /* \"#utility.yul\":429:447   */\n      dup2\n        /* \"#utility.yul\":426:464   */\n      sub\n        /* \"#utility.yul\":423:507   */\n      tag_154\n      jumpi\n        /* \"#utility.yul\":479:497   */\n      tag_155\n      tag_100\n      jump\t// in\n    tag_155:\n        /* \"#utility.yul\":423:507   */\n    tag_154:\n        /* \"#utility.yul\":244:513   */\n      pop\n        /* \"#utility.yul\":193:513   */\n      swap2\n      swap1\n      pop\n      jump\t// out\n        /* \"#utility.yul\":519:667   */\n    tag_102:\n        /* \"#utility.yul\":621:632   */\n      0x00\n        /* \"#utility.yul\":658:661   */\n      dup2\n        /* \"#utility.yul\":643:661   */\n      swap1\n      pop\n        /* \"#utility.yul\":519:667   */\n      swap3\n      swap2\n      pop\n      pop\n      jump\t// out\n        /* \"#utility.yul\":673:814   */\n    tag_103:\n        /* \"#utility.yul\":722:726   */\n      0x00\n        /* \"#utility.yul\":745:748   */\n      dup2\n        /* \"#utility.yul\":737:748   */\n      swap1\n      pop\n        /* \"#utility.yul\":768:771   */\n      dup2\n        /* \"#utility.yul\":765:766   */\n      0x00\n        /* \"#utility.yul\":758:772   */\n      mstore\n        /* \"#utility.yul\":802:806   */\n      0x20\n        /* \"#utility.yul\":799:800   */\n      0x00\n        /* \"#utility.yul\":789:807   */\n      keccak256\n        /* \"#utility.yul\":781:807   */\n      swap1\n      pop\n        /* \"#utility.yul\":673:814   */\n      swap2\n      swap1\n      pop\n      jump\t// out\n        /* \"#utility.yul\":844:1718   */\n    tag_104:\n        /* \"#utility.yul\":947:950   */\n      0x00\n        /* \"#utility.yul\":984:989   */\n      dup2\n        /* \"#utility.yul\":978:990   */\n      sload\n        /* \"#utility.yul\":1013:1049   */\n      tag_159\n        /* \"#utility.yul\":1039:1048   */\n      dup2\n        /* \"#utility.yul\":1013:1049   */\n      tag_101\n      jump\t// in\n    tag_159:\n        /* \"#utility.yul\":1065:1154   */\n      tag_160\n        /* \"#utility.yul\":1147:1153   */\n      dup2\n        /* \"#utility.yul\":1142:1145   */\n      dup7\n        /* \"#utility.yul\":1065:1154   */\n      tag_102\n      jump\t// in\n    tag_160:\n        /* \"#utility.yul\":1058:1154   */\n      swap5\n      pop\n        /* \"#utility.yul\":1185:1186   */\n      0x01\n        /* \"#utility.yul\":1174:1183   */\n      dup3\n        /* \"#utility.yul\":1170:1187   */\n      and\n        /* \"#utility.yul\":1201:1202   */\n      0x00\n        /* \"#utility.yul\":1196:1362   */\n      dup2\n      eq\n      tag_162\n      jumpi\n        /* \"#utility.yul\":1376:1377   */\n      0x01\n        /* \"#utility.yul\":1371:1712   */\n      dup2\n      eq\n      tag_163\n      jumpi\n        /* \"#utility.yul\":1163:1712   */\n      jump(tag_161)\n        /* \"#utility.yul\":1196:1362   */\n    tag_162:\n        /* \"#utility.yul\":1280:1284   */\n      0xff\n        /* \"#utility.yul\":1276:1285   */\n      not\n        /* \"#utility.yul\":1265:1274   */\n      dup4\n        /* \"#utility.yul\":1261:1286   */\n      and\n        /* \"#utility.yul\":1256:1259   */\n      dup7\n        /* \"#utility.yul\":1249:1287   */\n      mstore\n        /* \"#utility.yul\":1342:1348   */\n      dup2\n        /* \"#utility.yul\":1335:1349   */\n      iszero\n        /* \"#utility.yul\":1328:1350   */\n      iszero\n        /* \"#utility.yul\":1320:1326   */\n      dup3\n        /* \"#utility.yul\":1316:1351   */\n      mul\n        /* \"#utility.yul\":1311:1314   */\n      dup7\n        /* \"#utility.yul\":1307:1352   */\n      add\n        /* \"#utility.yul\":1300:1352   */\n      swap4\n      pop\n        /* \"#utility.yul\":1196:1362   */\n      jump(tag_161)\n        /* \"#utility.yul\":1371:1712   */\n    tag_163:\n        /* \"#utility.yul\":1438:1476   */\n      tag_164\n        /* \"#utility.yul\":1470:1475   */\n      dup6\n        /* \"#utility.yul\":1438:1476   */\n      tag_103\n      jump\t// in\n    tag_164:\n        /* \"#utility.yul\":1498:1499   */\n      0x00\n        /* \"#utility.yul\":1512:1666   */\n    tag_165:\n        /* \"#utility.yul\":1526:1532   */\n      dup4\n        /* \"#utility.yul\":1523:1524   */\n      dup2\n        /* \"#utility.yul\":1520:1533   */\n      lt\n        /* \"#utility.yul\":1512:1666   */\n      iszero\n      tag_167\n      jumpi\n        /* \"#utility.yul\":1600:1607   */\n      dup2\n        /* \"#utility.yul\":1594:1608   */\n      sload\n        /* \"#utility.yul\":1590:1591   */\n      dup2\n        /* \"#utility.yul\":1585:1588   */\n      dup10\n        /* \"#utility.yul\":1581:1592   */\n      add\n        /* \"#utility.yul\":1574:1609   */\n      mstore\n        /* \"#utility.yul\":1650:1651   */\n      0x01\n        /* \"#utility.yul\":1641:1648   */\n      dup3\n        /* \"#utility.yul\":1637:1652   */\n      add\n        /* \"#utility.yul\":1626:1652   */\n      swap2\n      pop\n        /* \"#utility.yul\":1548:1552   */\n      0x20\n        /* \"#utility.yul\":1545:1546   */\n      dup2\n        /* \"#utility.yul\":1541:1553   */\n      add\n        /* \"#utility.yul\":1536:1553   */\n      swap1\n      pop\n        /* \"#utility.yul\":1512:1666   */\n      jump(tag_165)\n    tag_167:\n        /* \"#utility.yul\":1695:1701   */\n      dup4\n        /* \"#utility.yul\":1690:1693   */\n      dup9\n        /* \"#utility.yul\":1686:1702   */\n      add\n        /* \"#utility.yul\":1679:1702   */\n      swap6\n      pop\n        /* \"#utility.yul\":1378:1712   */\n      pop\n      pop\n        /* \"#utility.yul\":1163:1712   */\n    tag_161:\n      pop\n        /* \"#utility.yul\":951:1718   */\n      pop\n      pop\n        /* \"#utility.yul\":844:1718   */\n      swap3\n      swap2\n      pop\n      pop\n      jump\t// out\n        /* \"#utility.yul\":1724:1993   */\n    tag_16:\n        /* \"#utility.yul\":1853:1856   */\n      0x00\n        /* \"#utility.yul\":1875:1967   */\n      tag_169\n        /* \"#utility.yul\":1963:1966   */\n      dup3\n        /* \"#utility.yul\":1954:1960   */\n      dup5\n        /* \"#utility.yul\":1875:1967   */\n      tag_104\n      jump\t// in\n    tag_169:\n        /* \"#utility.yul\":1868:1967   */\n      swap2\n      pop\n        /* \"#utility.yul\":1984:1987   */\n      dup2\n        /* \"#utility.yul\":1977:1987   */\n      swap1\n      pop\n        /* \"#utility.yul\":1724:1993   */\n      swap3\n      swap2\n      pop\n      pop\n      jump\t// out\n        /* \"#utility.yul\":1999:2074   */\n    tag_105:\n        /* \"#utility.yul\":2032:2038   */\n      0x00\n        /* \"#utility.yul\":2065:2067   */\n      0x40\n        /* \"#utility.yul\":2059:2068   */\n      mload\n        /* \"#utility.yul\":2049:2068   */\n      swap1\n      pop\n        /* \"#utility.yul\":1999:2074   */\n      swap1\n      jump\t// out\n        /* \"#utility.yul\":2080:2197   */\n    tag_106:\n        /* \"#utility.yul\":2189:2190   */\n      0x00\n        /* \"#utility.yul\":2186:2187   */\n      dup1\n        /* \"#utility.yul\":2179:2191   */\n      revert\n        /* \"#utility.yul\":2203:2320   */\n    tag_107:\n        /* \"#utility.yul\":2312:2313   */\n      0x00\n        /* \"#utility.yul\":2309:2310   */\n      dup1\n        /* \"#utility.yul\":2302:2314   */\n      revert\n        /* \"#utility.yul\":2326:2452   */\n    tag_108:\n        /* \"#utility.yul\":2363:2370   */\n      0x00\n        /* \"#utility.yul\":2403:2445   */\n      0xffffffffffffffffffffffffffffffffffffffff\n        /* \"#utility.yul\":2396:2401   */\n      dup3\n        /* \"#utility.yul\":2392:2446   */\n      and\n        /* \"#utility.yul\":2381:2446   */\n      swap1\n      pop\n        /* \"#utility.yul\":2326:2452   */\n      swap2\n      swap1\n      pop\n      jump\t// out\n        /* \"#utility.yul\":2458:2554   */\n    tag_109:\n        /* \"#utility.yul\":2495:2502   */\n      0x00\n        /* \"#utility.yul\":2524:2548   */\n      tag_175\n        /* \"#utility.yul\":2542:2547   */\n      dup3\n        /* \"#utility.yul\":2524:2548   */\n      tag_108\n      jump\t// in\n    tag_175:\n        /* \"#utility.yul\":2513:2548   */\n      swap1\n      pop\n        /* \"#utility.yul\":2458:2554   */\n      swap2\n      swap1\n      pop\n      jump\t// out\n        /* \"#utility.yul\":2560:2682   */\n    tag_110:\n        /* \"#utility.yul\":2633:2657   */\n      tag_177\n        /* \"#utility.yul\":2651:2656   */\n      dup2\n        /* \"#utility.yul\":2633:2657   */\n      tag_109\n      jump\t// in\n    tag_177:\n        /* \"#utility.yul\":2626:2631   */\n      dup2\n        /* \"#utility.yul\":2623:2658   */\n      eq\n        /* \"#utility.yul\":2613:2676   */\n      tag_178\n      jumpi\n        /* \"#utility.yul\":2672:2673   */\n      0x00\n        /* \"#utility.yul\":2669:2670   */\n      dup1\n        /* \"#utility.yul\":2662:2674   */\n      revert\n        /* \"#utility.yul\":2613:2676   */\n    tag_178:\n        /* \"#utility.yul\":2560:2682   */\n      pop\n      jump\t// out\n        /* \"#utility.yul\":2688:2827   */\n    tag_111:\n        /* \"#utility.yul\":2734:2739   */\n      0x00\n        /* \"#utility.yul\":2772:2778   */\n      dup2\n        /* \"#utility.yul\":2759:2779   */\n      calldataload\n        /* \"#utility.yul\":2750:2779   */\n      swap1\n      pop\n        /* \"#utility.yul\":2788:2821   */\n      tag_180\n        /* \"#utility.yul\":2815:2820   */\n      dup2\n        /* \"#utility.yul\":2788:2821   */\n      tag_110\n      jump\t// in\n    tag_180:\n        /* \"#utility.yul\":2688:2827   */\n      swap3\n      swap2\n      pop\n      pop\n      jump\t// out\n        /* \"#utility.yul\":2833:3162   */\n    tag_21:\n        /* \"#utility.yul\":2892:2898   */\n      0x00\n        /* \"#utility.yul\":2941:2943   */\n      0x20\n        /* \"#utility.yul\":2929:2938   */\n      dup3\n        /* \"#utility.yul\":2920:2927   */\n      dup5\n        /* \"#utility.yul\":2916:2939   */\n      sub\n        /* \"#utility.yul\":2912:2944   */\n      slt\n        /* \"#utility.yul\":2909:3028   */\n      iszero\n      tag_182\n      jumpi\n        /* \"#utility.yul\":2947:3026   */\n      tag_183\n      tag_106\n      jump\t// in\n    tag_183:\n        /* \"#utility.yul\":2909:3028   */\n    tag_182:\n        /* \"#utility.yul\":3067:3068   */\n      0x00\n        /* \"#utility.yul\":3092:3145   */\n      tag_184\n        /* \"#utility.yul\":3137:3144   */\n      dup5\n        /* \"#utility.yul\":3128:3134   */\n      dup3\n        /* \"#utility.yul\":3117:3126   */\n      dup6\n        /* \"#utility.yul\":3113:3135   */\n      add\n        /* \"#utility.yul\":3092:3145   */\n      tag_111\n      jump\t// in\n    tag_184:\n        /* \"#utility.yul\":3082:3145   */\n      swap2\n      pop\n        /* \"#utility.yul\":3038:3155   */\n      pop\n        /* \"#utility.yul\":2833:3162   */\n      swap3\n      swap2\n      pop\n      pop\n      jump\t// out\n        /* \"#utility.yul\":3168:3285   */\n    tag_112:\n        /* \"#utility.yul\":3277:3278   */\n      0x00\n        /* \"#utility.yul\":3274:3275   */\n      dup1\n        /* \"#utility.yul\":3267:3279   */\n      revert\n        /* \"#utility.yul\":3291:3408   */\n    tag_113:\n        /* \"#utility.yul\":3400:3401   */\n      0x00\n        /* \"#utility.yul\":3397:3398   */\n      dup1\n        /* \"#utility.yul\":3390:3402   */\n      revert\n        /* \"#utility.yul\":3414:3516   */\n    tag_114:\n        /* \"#utility.yul\":3455:3461   */\n      0x00\n        /* \"#utility.yul\":3506:3508   */\n      0x1f\n        /* \"#utility.yul\":3502:3509   */\n      not\n        /* \"#utility.yul\":3497:3499   */\n      0x1f\n        /* \"#utility.yul\":3490:3495   */\n      dup4\n        /* \"#utility.yul\":3486:3500   */\n      add\n        /* \"#utility.yul\":3482:3510   */\n      and\n        /* \"#utility.yul\":3472:3510   */\n      swap1\n      pop\n        /* \"#utility.yul\":3414:3516   */\n      swap2\n      swap1\n      pop\n      jump\t// out\n        /* \"#utility.yul\":3522:3702   */\n    tag_115:\n        /* \"#utility.yul\":3570:3647   */\n      0x4e487b7100000000000000000000000000000000000000000000000000000000\n        /* \"#utility.yul\":3567:3568   */\n      0x00\n        /* \"#utility.yul\":3560:3648   */\n      mstore\n        /* \"#utility.yul\":3667:3671   */\n      0x41\n        /* \"#utility.yul\":3664:3665   */\n      0x04\n        /* \"#utility.yul\":3657:3672   */\n      mstore\n        /* \"#utility.yul\":3691:3695   */\n      0x24\n        /* \"#utility.yul\":3688:3689   */\n      0x00\n        /* \"#utility.yul\":3681:3696   */\n      revert\n        /* \"#utility.yul\":3708:3989   */\n    tag_116:\n        /* \"#utility.yul\":3791:3818   */\n      tag_190\n        /* \"#utility.yul\":3813:3817   */\n      dup3\n        /* \"#utility.yul\":3791:3818   */\n      tag_114\n      jump\t// in\n    tag_190:\n        /* \"#utility.yul\":3783:3789   */\n      dup2\n        /* \"#utility.yul\":3779:3819   */\n      add\n        /* \"#utility.yul\":3921:3927   */\n      dup2\n        /* \"#utility.yul\":3909:3919   */\n      dup2\n        /* \"#utility.yul\":3906:3928   */\n      lt\n        /* \"#utility.yul\":3885:3903   */\n      0xffffffffffffffff\n        /* \"#utility.yul\":3873:3883   */\n      dup3\n        /* \"#utility.yul\":3870:3904   */\n      gt\n        /* \"#utility.yul\":3867:3929   */\n      or\n        /* \"#utility.yul\":3864:3952   */\n      iszero\n      tag_191\n      jumpi\n        /* \"#utility.yul\":3932:3950   */\n      tag_192\n      tag_115\n      jump\t// in\n    tag_192:\n        /* \"#utility.yul\":3864:3952   */\n    tag_191:\n        /* \"#utility.yul\":3972:3982   */\n      dup1\n        /* \"#utility.yul\":3968:3970   */\n      0x40\n        /* \"#utility.yul\":3961:3983   */\n      mstore\n        /* \"#utility.yul\":3751:3989   */\n      pop\n        /* \"#utility.yul\":3708:3989   */\n      pop\n      pop\n      jump\t// out\n        /* \"#utility.yul\":3995:4124   */\n    tag_117:\n        /* \"#utility.yul\":4029:4035   */\n      0x00\n        /* \"#utility.yul\":4056:4076   */\n      tag_194\n      tag_105\n      jump\t// in\n    tag_194:\n        /* \"#utility.yul\":4046:4076   */\n      swap1\n      pop\n        /* \"#utility.yul\":4085:4118   */\n      tag_195\n        /* \"#utility.yul\":4113:4117   */\n      dup3\n        /* \"#utility.yul\":4105:4111   */\n      dup3\n        /* \"#utility.yul\":4085:4118   */\n      tag_116\n      jump\t// in\n    tag_195:\n        /* \"#utility.yul\":3995:4124   */\n      swap2\n      swap1\n      pop\n      jump\t// out\n        /* \"#utility.yul\":4130:4438   */\n    tag_118:\n        /* \"#utility.yul\":4192:4196   */\n      0x00\n        /* \"#utility.yul\":4282:4300   */\n      0xffffffffffffffff\n        /* \"#utility.yul\":4274:4280   */\n      dup3\n        /* \"#utility.yul\":4271:4301   */\n      gt\n        /* \"#utility.yul\":4268:4324   */\n      iszero\n      tag_197\n      jumpi\n        /* \"#utility.yul\":4304:4322   */\n      tag_198\n      tag_115\n      jump\t// in\n    tag_198:\n        /* \"#utility.yul\":4268:4324   */\n    tag_197:\n        /* \"#utility.yul\":4342:4371   */\n      tag_199\n        /* \"#utility.yul\":4364:4370   */\n      dup3\n        /* \"#utility.yul\":4342:4371   */\n      tag_114\n      jump\t// in\n    tag_199:\n        /* \"#utility.yul\":4334:4371   */\n      swap1\n      pop\n        /* \"#utility.yul\":4426:4430   */\n      0x20\n        /* \"#utility.yul\":4420:4424   */\n      dup2\n        /* \"#utility.yul\":4416:4431   */\n      add\n        /* \"#utility.yul\":4408:4431   */\n      swap1\n      pop\n        /* \"#utility.yul\":4130:4438   */\n      swap2\n      swap1\n      pop\n      jump\t// out\n        /* \"#utility.yul\":4444:4598   */\n    tag_119:\n        /* \"#utility.yul\":4528:4534   */\n      dup3\n        /* \"#utility.yul\":4523:4526   */\n      dup2\n        /* \"#utility.yul\":4518:4521   */\n      dup4\n        /* \"#utility.yul\":4505:4535   */\n      calldatacopy\n        /* \"#utility.yul\":4590:4591   */\n      0x00\n        /* \"#utility.yul\":4581:4587   */\n      dup4\n        /* \"#utility.yul\":4576:4579   */\n      dup4\n        /* \"#utility.yul\":4572:4588   */\n      add\n        /* \"#utility.yul\":4565:4592   */\n      mstore\n        /* \"#utility.yul\":4444:4598   */\n      pop\n      pop\n      pop\n      jump\t// out\n        /* \"#utility.yul\":4604:5016   */\n    tag_120:\n        /* \"#utility.yul\":4682:4687   */\n      0x00\n        /* \"#utility.yul\":4707:4773   */\n      tag_202\n        /* \"#utility.yul\":4723:4772   */\n      tag_203\n        /* \"#utility.yul\":4765:4771   */\n      dup5\n        /* \"#utility.yul\":4723:4772   */\n      tag_118\n      jump\t// in\n    tag_203:\n        /* \"#utility.yul\":4707:4773   */\n      tag_117\n      jump\t// in\n    tag_202:\n        /* \"#utility.yul\":4698:4773   */\n      swap1\n      pop\n        /* \"#utility.yul\":4796:4802   */\n      dup3\n        /* \"#utility.yul\":4789:4794   */\n      dup2\n        /* \"#utility.yul\":4782:4803   */\n      mstore\n        /* \"#utility.yul\":4834:4838   */\n      0x20\n        /* \"#utility.yul\":4827:4832   */\n      dup2\n        /* \"#utility.yul\":4823:4839   */\n      add\n        /* \"#utility.yul\":4872:4875   */\n      dup5\n        /* \"#utility.yul\":4863:4869   */\n      dup5\n        /* \"#utility.yul\":4858:4861   */\n      dup5\n        /* \"#utility.yul\":4854:4870   */\n      add\n        /* \"#utility.yul\":4851:4876   */\n      gt\n        /* \"#utility.yul\":4848:4960   */\n      iszero\n      tag_204\n      jumpi\n        /* \"#utility.yul\":4879:4958   */\n      tag_205\n      tag_113\n      jump\t// in\n    tag_205:\n        /* \"#utility.yul\":4848:4960   */\n    tag_204:\n        /* \"#utility.yul\":4969:5010   */\n      tag_206\n        /* \"#utility.yul\":5003:5009   */\n      dup5\n        /* \"#utility.yul\":4998:5001   */\n      dup3\n        /* \"#utility.yul\":4993:4996   */\n      dup6\n        /* \"#utility.yul\":4969:5010   */\n      tag_119\n      jump\t// in\n    tag_206:\n        /* \"#utility.yul\":4688:5016   */\n      pop\n        /* \"#utility.yul\":4604:5016   */\n      swap4\n      swap3\n      pop\n      pop\n      pop\n      jump\t// out\n        /* \"#utility.yul\":5036:5376   */\n    tag_121:\n        /* \"#utility.yul\":5092:5097   */\n      0x00\n        /* \"#utility.yul\":5141:5144   */\n      dup3\n        /* \"#utility.yul\":5134:5138   */\n      0x1f\n        /* \"#utility.yul\":5126:5132   */\n      dup4\n        /* \"#utility.yul\":5122:5139   */\n      add\n        /* \"#utility.yul\":5118:5145   */\n      slt\n        /* \"#utility.yul\":5108:5230   */\n      tag_208\n      jumpi\n        /* \"#utility.yul\":5149:5228   */\n      tag_209\n      tag_112\n      jump\t// in\n    tag_209:\n        /* \"#utility.yul\":5108:5230   */\n    tag_208:\n        /* \"#utility.yul\":5266:5272   */\n      dup2\n        /* \"#utility.yul\":5253:5273   */\n      calldataload\n        /* \"#utility.yul\":5291:5370   */\n      tag_210\n        /* \"#utility.yul\":5366:5369   */\n      dup5\n        /* \"#utility.yul\":5358:5364   */\n      dup3\n        /* \"#utility.yul\":5351:5355   */\n      0x20\n        /* \"#utility.yul\":5343:5349   */\n      dup7\n        /* \"#utility.yul\":5339:5356   */\n      add\n        /* \"#utility.yul\":5291:5370   */\n      tag_120\n      jump\t// in\n    tag_210:\n        /* \"#utility.yul\":5282:5370   */\n      swap2\n      pop\n        /* \"#utility.yul\":5098:5376   */\n      pop\n        /* \"#utility.yul\":5036:5376   */\n      swap3\n      swap2\n      pop\n      pop\n      jump\t// out\n        /* \"#utility.yul\":5382:5459   */\n    tag_122:\n        /* \"#utility.yul\":5419:5426   */\n      0x00\n        /* \"#utility.yul\":5448:5453   */\n      dup2\n        /* \"#utility.yul\":5437:5453   */\n      swap1\n      pop\n        /* \"#utility.yul\":5382:5459   */\n      swap2\n      swap1\n      pop\n      jump\t// out\n        /* \"#utility.yul\":5465:5587   */\n    tag_123:\n        /* \"#utility.yul\":5538:5562   */\n      tag_213\n        /* \"#utility.yul\":5556:5561   */\n      dup2\n        /* \"#utility.yul\":5538:5562   */\n      tag_122\n      jump\t// in\n    tag_213:\n        /* \"#utility.yul\":5531:5536   */\n      dup2\n        /* \"#utility.yul\":5528:5563   */\n      eq\n        /* \"#utility.yul\":5518:5581   */\n      tag_214\n      jumpi\n        /* \"#utility.yul\":5577:5578   */\n      0x00\n        /* \"#utility.yul\":5574:5575   */\n      dup1\n        /* \"#utility.yul\":5567:5579   */\n      revert\n        /* \"#utility.yul\":5518:5581   */\n    tag_214:\n        /* \"#utility.yul\":5465:5587   */\n      pop\n      jump\t// out\n        /* \"#utility.yul\":5593:5732   */\n    tag_124:\n        /* \"#utility.yul\":5639:5644   */\n      0x00\n        /* \"#utility.yul\":5677:5683   */\n      dup2\n        /* \"#utility.yul\":5664:5684   */\n      calldataload\n        /* \"#utility.yul\":5655:5684   */\n      swap1\n      pop\n        /* \"#utility.yul\":5693:5726   */\n      tag_216\n        /* \"#utility.yul\":5720:5725   */\n      dup2\n        /* \"#utility.yul\":5693:5726   */\n      tag_123\n      jump\t// in\n    tag_216:\n        /* \"#utility.yul\":5593:5732   */\n      swap3\n      swap2\n      pop\n      pop\n      jump\t// out\n        /* \"#utility.yul\":5738:7189   */\n    tag_25:\n        /* \"#utility.yul\":5863:5869   */\n      0x00\n        /* \"#utility.yul\":5871:5877   */\n      dup1\n        /* \"#utility.yul\":5879:5885   */\n      0x00\n        /* \"#utility.yul\":5887:5893   */\n      dup1\n        /* \"#utility.yul\":5895:5901   */\n      0x00\n        /* \"#utility.yul\":5944:5947   */\n      0xa0\n        /* \"#utility.yul\":5932:5941   */\n      dup7\n        /* \"#utility.yul\":5923:5930   */\n      dup9\n        /* \"#utility.yul\":5919:5942   */\n      sub\n        /* \"#utility.yul\":5915:5948   */\n      slt\n        /* \"#utility.yul\":5912:6032   */\n      iszero\n      tag_218\n      jumpi\n        /* \"#utility.yul\":5951:6030   */\n      tag_219\n      tag_106\n      jump\t// in\n    tag_219:\n        /* \"#utility.yul\":5912:6032   */\n    tag_218:\n        /* \"#utility.yul\":6099:6100   */\n      0x00\n        /* \"#utility.yul\":6088:6097   */\n      dup7\n        /* \"#utility.yul\":6084:6101   */\n      add\n        /* \"#utility.yul\":6071:6102   */\n      calldataload\n        /* \"#utility.yul\":6129:6147   */\n      0xffffffffffffffff\n        /* \"#utility.yul\":6121:6127   */\n      dup2\n        /* \"#utility.yul\":6118:6148   */\n      gt\n        /* \"#utility.yul\":6115:6232   */\n      iszero\n      tag_220\n      jumpi\n        /* \"#utility.yul\":6151:6230   */\n      tag_221\n      tag_107\n      jump\t// in\n    tag_221:\n        /* \"#utility.yul\":6115:6232   */\n    tag_220:\n        /* \"#utility.yul\":6256:6319   */\n      tag_222\n        /* \"#utility.yul\":6311:6318   */\n      dup9\n        /* \"#utility.yul\":6302:6308   */\n      dup3\n        /* \"#utility.yul\":6291:6300   */\n      dup10\n        /* \"#utility.yul\":6287:6309   */\n      add\n        /* \"#utility.yul\":6256:6319   */\n      tag_121\n      jump\t// in\n    tag_222:\n        /* \"#utility.yul\":6246:6319   */\n      swap6\n      pop\n        /* \"#utility.yul\":6042:6329   */\n      pop\n        /* \"#utility.yul\":6396:6398   */\n      0x20\n        /* \"#utility.yul\":6385:6394   */\n      dup7\n        /* \"#utility.yul\":6381:6399   */\n      add\n        /* \"#utility.yul\":6368:6400   */\n      calldataload\n        /* \"#utility.yul\":6427:6445   */\n      0xffffffffffffffff\n        /* \"#utility.yul\":6419:6425   */\n      dup2\n        /* \"#utility.yul\":6416:6446   */\n      gt\n        /* \"#utility.yul\":6413:6530   */\n      iszero\n      tag_223\n      jumpi\n        /* \"#utility.yul\":6449:6528   */\n      tag_224\n      tag_107\n      jump\t// in\n    tag_224:\n        /* \"#utility.yul\":6413:6530   */\n    tag_223:\n        /* \"#utility.yul\":6554:6617   */\n      tag_225\n        /* \"#utility.yul\":6609:6616   */\n      dup9\n        /* \"#utility.yul\":6600:6606   */\n      dup3\n        /* \"#utility.yul\":6589:6598   */\n      dup10\n        /* \"#utility.yul\":6585:6607   */\n      add\n        /* \"#utility.yul\":6554:6617   */\n      tag_121\n      jump\t// in\n    tag_225:\n        /* \"#utility.yul\":6544:6617   */\n      swap5\n      pop\n        /* \"#utility.yul\":6339:6627   */\n      pop\n        /* \"#utility.yul\":6666:6668   */\n      0x40\n        /* \"#utility.yul\":6692:6745   */\n      tag_226\n        /* \"#utility.yul\":6737:6744   */\n      dup9\n        /* \"#utility.yul\":6728:6734   */\n      dup3\n        /* \"#utility.yul\":6717:6726   */\n      dup10\n        /* \"#utility.yul\":6713:6735   */\n      add\n        /* \"#utility.yul\":6692:6745   */\n      tag_124\n      jump\t// in\n    tag_226:\n        /* \"#utility.yul\":6682:6745   */\n      swap4\n      pop\n        /* \"#utility.yul\":6637:6755   */\n      pop\n        /* \"#utility.yul\":6794:6796   */\n      0x60\n        /* \"#utility.yul\":6820:6873   */\n      tag_227\n        /* \"#utility.yul\":6865:6872   */\n      dup9\n        /* \"#utility.yul\":6856:6862   */\n      dup3\n        /* \"#utility.yul\":6845:6854   */\n      dup10\n        /* \"#utility.yul\":6841:6863   */\n      add\n        /* \"#utility.yul\":6820:6873   */\n      tag_124\n      jump\t// in\n    tag_227:\n        /* \"#utility.yul\":6810:6873   */\n      swap3\n      pop\n        /* \"#utility.yul\":6765:6883   */\n      pop\n        /* \"#utility.yul\":6950:6953   */\n      0x80\n        /* \"#utility.yul\":6939:6948   */\n      dup7\n        /* \"#utility.yul\":6935:6954   */\n      add\n        /* \"#utility.yul\":6922:6955   */\n      calldataload\n        /* \"#utility.yul\":6982:7000   */\n      0xffffffffffffffff\n        /* \"#utility.yul\":6974:6980   */\n      dup2\n        /* \"#utility.yul\":6971:7001   */\n      gt\n        /* \"#utility.yul\":6968:7085   */\n      iszero\n      tag_228\n      jumpi\n        /* \"#utility.yul\":7004:7083   */\n      tag_229\n      tag_107\n      jump\t// in\n    tag_229:\n        /* \"#utility.yul\":6968:7085   */\n    tag_228:\n        /* \"#utility.yul\":7109:7172   */\n      tag_230\n        /* \"#utility.yul\":7164:7171   */\n      dup9\n        /* \"#utility.yul\":7155:7161   */\n      dup3\n        /* \"#utility.yul\":7144:7153   */\n      dup10\n        /* \"#utility.yul\":7140:7162   */\n      add\n        /* \"#utility.yul\":7109:7172   */\n      tag_121\n      jump\t// in\n    tag_230:\n        /* \"#utility.yul\":7099:7172   */\n      swap2\n      pop\n        /* \"#utility.yul\":6893:7182   */\n      pop\n        /* \"#utility.yul\":5738:7189   */\n      swap3\n      swap6\n      pop\n      swap3\n      swap6\n      swap1\n      swap4\n      pop\n      jump\t// out\n        /* \"#utility.yul\":7195:7285   */\n    tag_125:\n        /* \"#utility.yul\":7229:7236   */\n      0x00\n        /* \"#utility.yul\":7272:7277   */\n      dup2\n        /* \"#utility.yul\":7265:7278   */\n      iszero\n        /* \"#utility.yul\":7258:7279   */\n      iszero\n        /* \"#utility.yul\":7247:7279   */\n      swap1\n      pop\n        /* \"#utility.yul\":7195:7285   */\n      swap2\n      swap1\n      pop\n      jump\t// out\n        /* \"#utility.yul\":7291:7400   */\n    tag_126:\n        /* \"#utility.yul\":7372:7393   */\n      tag_233\n        /* \"#utility.yul\":7387:7392   */\n      dup2\n        /* \"#utility.yul\":7372:7393   */\n      tag_125\n      jump\t// in\n    tag_233:\n        /* \"#utility.yul\":7367:7370   */\n      dup3\n        /* \"#utility.yul\":7360:7394   */\n      mstore\n        /* \"#utility.yul\":7291:7400   */\n      pop\n      pop\n      jump\t// out\n        /* \"#utility.yul\":7406:7616   */\n    tag_35:\n        /* \"#utility.yul\":7493:7497   */\n      0x00\n        /* \"#utility.yul\":7531:7533   */\n      0x20\n        /* \"#utility.yul\":7520:7529   */\n      dup3\n        /* \"#utility.yul\":7516:7534   */\n      add\n        /* \"#utility.yul\":7508:7534   */\n      swap1\n      pop\n        /* \"#utility.yul\":7544:7609   */\n      tag_235\n        /* \"#utility.yul\":7606:7607   */\n      0x00\n        /* \"#utility.yul\":7595:7604   */\n      dup4\n        /* \"#utility.yul\":7591:7608   */\n      add\n        /* \"#utility.yul\":7582:7588   */\n      dup5\n        /* \"#utility.yul\":7544:7609   */\n      tag_126\n      jump\t// in\n    tag_235:\n        /* \"#utility.yul\":7406:7616   */\n      swap3\n      swap2\n      pop\n      pop\n      jump\t// out\n        /* \"#utility.yul\":7622:7740   */\n    tag_127:\n        /* \"#utility.yul\":7709:7733   */\n      tag_237\n        /* \"#utility.yul\":7727:7732   */\n      dup2\n        /* \"#utility.yul\":7709:7733   */\n      tag_109\n      jump\t// in\n    tag_237:\n        /* \"#utility.yul\":7704:7707   */\n      dup3\n        /* \"#utility.yul\":7697:7734   */\n      mstore\n        /* \"#utility.yul\":7622:7740   */\n      pop\n      pop\n      jump\t// out\n        /* \"#utility.yul\":7746:7968   */\n    tag_40:\n        /* \"#utility.yul\":7839:7843   */\n      0x00\n        /* \"#utility.yul\":7877:7879   */\n      0x20\n        /* \"#utility.yul\":7866:7875   */\n      dup3\n        /* \"#utility.yul\":7862:7880   */\n      add\n        /* \"#utility.yul\":7854:7880   */\n      swap1\n      pop\n        /* \"#utility.yul\":7890:7961   */\n      tag_239\n        /* \"#utility.yul\":7958:7959   */\n      0x00\n        /* \"#utility.yul\":7947:7956   */\n      dup4\n        /* \"#utility.yul\":7943:7960   */\n      add\n        /* \"#utility.yul\":7934:7940   */\n      dup5\n        /* \"#utility.yul\":7890:7961   */\n      tag_127\n      jump\t// in\n    tag_239:\n        /* \"#utility.yul\":7746:7968   */\n      swap3\n      swap2\n      pop\n      pop\n      jump\t// out\n        /* \"#utility.yul\":7974:8483   */\n    tag_44:\n        /* \"#utility.yul\":8043:8049   */\n      0x00\n        /* \"#utility.yul\":8092:8094   */\n      0x20\n        /* \"#utility.yul\":8080:8089   */\n      dup3\n        /* \"#utility.yul\":8071:8078   */\n      dup5\n        /* \"#utility.yul\":8067:8090   */\n      sub\n        /* \"#utility.yul\":8063:8095   */\n      slt\n        /* \"#utility.yul\":8060:8179   */\n      iszero\n      tag_241\n      jumpi\n        /* \"#utility.yul\":8098:8177   */\n      tag_242\n      tag_106\n      jump\t// in\n    tag_242:\n        /* \"#utility.yul\":8060:8179   */\n    tag_241:\n        /* \"#utility.yul\":8246:8247   */\n      0x00\n        /* \"#utility.yul\":8235:8244   */\n      dup3\n        /* \"#utility.yul\":8231:8248   */\n      add\n        /* \"#utility.yul\":8218:8249   */\n      calldataload\n        /* \"#utility.yul\":8276:8294   */\n      0xffffffffffffffff\n        /* \"#utility.yul\":8268:8274   */\n      dup2\n        /* \"#utility.yul\":8265:8295   */\n      gt\n        /* \"#utility.yul\":8262:8379   */\n      iszero\n      tag_243\n      jumpi\n        /* \"#utility.yul\":8298:8377   */\n      tag_244\n      tag_107\n      jump\t// in\n    tag_244:\n        /* \"#utility.yul\":8262:8379   */\n    tag_243:\n        /* \"#utility.yul\":8403:8466   */\n      tag_245\n        /* \"#utility.yul\":8458:8465   */\n      dup5\n        /* \"#utility.yul\":8449:8455   */\n      dup3\n        /* \"#utility.yul\":8438:8447   */\n      dup6\n        /* \"#utility.yul\":8434:8456   */\n      add\n        /* \"#utility.yul\":8403:8466   */\n      tag_121\n      jump\t// in\n    tag_245:\n        /* \"#utility.yul\":8393:8466   */\n      swap2\n      pop\n        /* \"#utility.yul\":8189:8476   */\n      pop\n        /* \"#utility.yul\":7974:8483   */\n      swap3\n      swap2\n      pop\n      pop\n      jump\t// out\n        /* \"#utility.yul\":8489:8607   */\n    tag_128:\n        /* \"#utility.yul\":8576:8600   */\n      tag_247\n        /* \"#utility.yul\":8594:8599   */\n      dup2\n        /* \"#utility.yul\":8576:8600   */\n      tag_122\n      jump\t// in\n    tag_247:\n        /* \"#utility.yul\":8571:8574   */\n      dup3\n        /* \"#utility.yul\":8564:8601   */\n      mstore\n        /* \"#utility.yul\":8489:8607   */\n      pop\n      pop\n      jump\t// out\n        /* \"#utility.yul\":8613:8835   */\n    tag_54:\n        /* \"#utility.yul\":8706:8710   */\n      0x00\n        /* \"#utility.yul\":8744:8746   */\n      0x20\n        /* \"#utility.yul\":8733:8742   */\n      dup3\n        /* \"#utility.yul\":8729:8747   */\n      add\n        /* \"#utility.yul\":8721:8747   */\n      swap1\n      pop\n        /* \"#utility.yul\":8757:8828   */\n      tag_249\n        /* \"#utility.yul\":8825:8826   */\n      0x00\n        /* \"#utility.yul\":8814:8823   */\n      dup4\n        /* \"#utility.yul\":8810:8827   */\n      add\n        /* \"#utility.yul\":8801:8807   */\n      dup5\n        /* \"#utility.yul\":8757:8828   */\n      tag_128\n      jump\t// in\n    tag_249:\n        /* \"#utility.yul\":8613:8835   */\n      swap3\n      swap2\n      pop\n      pop\n      jump\t// out\n        /* \"#utility.yul\":8841:9495   */\n    tag_58:\n        /* \"#utility.yul\":8919:8925   */\n      0x00\n        /* \"#utility.yul\":8927:8933   */\n      dup1\n        /* \"#utility.yul\":8976:8978   */\n      0x40\n        /* \"#utility.yul\":8964:8973   */\n      dup4\n        /* \"#utility.yul\":8955:8962   */\n      dup6\n        /* \"#utility.yul\":8951:8974   */\n      sub\n        /* \"#utility.yul\":8947:8979   */\n      slt\n        /* \"#utility.yul\":8944:9063   */\n      iszero\n      tag_251\n      jumpi\n        /* \"#utility.yul\":8982:9061   */\n      tag_252\n      tag_106\n      jump\t// in\n    tag_252:\n        /* \"#utility.yul\":8944:9063   */\n    tag_251:\n        /* \"#utility.yul\":9130:9131   */\n      0x00\n        /* \"#utility.yul\":9119:9128   */\n      dup4\n        /* \"#utility.yul\":9115:9132   */\n      add\n        /* \"#utility.yul\":9102:9133   */\n      calldataload\n        /* \"#utility.yul\":9160:9178   */\n      0xffffffffffffffff\n        /* \"#utility.yul\":9152:9158   */\n      dup2\n        /* \"#utility.yul\":9149:9179   */\n      gt\n        /* \"#utility.yul\":9146:9263   */\n      iszero\n      tag_253\n      jumpi\n        /* \"#utility.yul\":9182:9261   */\n      tag_254\n      tag_107\n      jump\t// in\n    tag_254:\n        /* \"#utility.yul\":9146:9263   */\n    tag_253:\n        /* \"#utility.yul\":9287:9350   */\n      tag_255\n        /* \"#utility.yul\":9342:9349   */\n      dup6\n        /* \"#utility.yul\":9333:9339   */\n      dup3\n        /* \"#utility.yul\":9322:9331   */\n      dup7\n        /* \"#utility.yul\":9318:9340   */\n      add\n        /* \"#utility.yul\":9287:9350   */\n      tag_121\n      jump\t// in\n    tag_255:\n        /* \"#utility.yul\":9277:9350   */\n      swap3\n      pop\n        /* \"#utility.yul\":9073:9360   */\n      pop\n        /* \"#utility.yul\":9399:9401   */\n      0x20\n        /* \"#utility.yul\":9425:9478   */\n      tag_256\n        /* \"#utility.yul\":9470:9477   */\n      dup6\n        /* \"#utility.yul\":9461:9467   */\n      dup3\n        /* \"#utility.yul\":9450:9459   */\n      dup7\n        /* \"#utility.yul\":9446:9468   */\n      add\n        /* \"#utility.yul\":9425:9478   */\n      tag_111\n      jump\t// in\n    tag_256:\n        /* \"#utility.yul\":9415:9478   */\n      swap2\n      pop\n        /* \"#utility.yul\":9370:9488   */\n      pop\n        /* \"#utility.yul\":8841:9495   */\n      swap3\n      pop\n      swap3\n      swap1\n      pop\n      jump\t// out\n        /* \"#utility.yul\":9501:9670   */\n    tag_129:\n        /* \"#utility.yul\":9585:9596   */\n      0x00\n        /* \"#utility.yul\":9619:9625   */\n      dup3\n        /* \"#utility.yul\":9614:9617   */\n      dup3\n        /* \"#utility.yul\":9607:9626   */\n      mstore\n        /* \"#utility.yul\":9659:9663   */\n      0x20\n        /* \"#utility.yul\":9654:9657   */\n      dup3\n        /* \"#utility.yul\":9650:9664   */\n      add\n        /* \"#utility.yul\":9635:9664   */\n      swap1\n      pop\n        /* \"#utility.yul\":9501:9670   */\n      swap3\n      swap2\n      pop\n      pop\n      jump\t// out\n        /* \"#utility.yul\":9676:9858   */\n    tag_130:\n        /* \"#utility.yul\":9816:9850   */\n      0x4f776e61626c653a2063616c6c6572206973206e6f7420746865206f776e6572\n        /* \"#utility.yul\":9812:9813   */\n      0x00\n        /* \"#utility.yul\":9804:9810   */\n      dup3\n        /* \"#utility.yul\":9800:9814   */\n      add\n        /* \"#utility.yul\":9793:9851   */\n      mstore\n        /* \"#utility.yul\":9676:9858   */\n      pop\n      jump\t// out\n        /* \"#utility.yul\":9864:10230   */\n    tag_131:\n        /* \"#utility.yul\":10006:10009   */\n      0x00\n        /* \"#utility.yul\":10027:10094   */\n      tag_260\n        /* \"#utility.yul\":10091:10093   */\n      0x20\n        /* \"#utility.yul\":10086:10089   */\n      dup4\n        /* \"#utility.yul\":10027:10094   */\n      tag_129\n      jump\t// in\n    tag_260:\n        /* \"#utility.yul\":10020:10094   */\n      swap2\n      pop\n        /* \"#utility.yul\":10103:10196   */\n      tag_261\n        /* \"#utility.yul\":10192:10195   */\n      dup3\n        /* \"#utility.yul\":10103:10196   */\n      tag_130\n      jump\t// in\n    tag_261:\n        /* \"#utility.yul\":10221:10223   */\n      0x20\n        /* \"#utility.yul\":10216:10219   */\n      dup3\n        /* \"#utility.yul\":10212:10224   */\n      add\n        /* \"#utility.yul\":10205:10224   */\n      swap1\n      pop\n        /* \"#utility.yul\":9864:10230   */\n      swap2\n      swap1\n      pop\n      jump\t// out\n        /* \"#utility.yul\":10236:10655   */\n    tag_64:\n        /* \"#utility.yul\":10402:10406   */\n      0x00\n        /* \"#utility.yul\":10440:10442   */\n      0x20\n        /* \"#utility.yul\":10429:10438   */\n      dup3\n        /* \"#utility.yul\":10425:10443   */\n      add\n        /* \"#utility.yul\":10417:10443   */\n      swap1\n      pop\n        /* \"#utility.yul\":10489:10498   */\n      dup2\n        /* \"#utility.yul\":10483:10487   */\n      dup2\n        /* \"#utility.yul\":10479:10499   */\n      sub\n        /* \"#utility.yul\":10475:10476   */\n      0x00\n        /* \"#utility.yul\":10464:10473   */\n      dup4\n        /* \"#utility.yul\":10460:10477   */\n      add\n        /* \"#utility.yul\":10453:10500   */\n      mstore\n        /* \"#utility.yul\":10517:10648   */\n      tag_263\n        /* \"#utility.yul\":10643:10647   */\n      dup2\n        /* \"#utility.yul\":10517:10648   */\n      tag_131\n      jump\t// in\n    tag_263:\n        /* \"#utility.yul\":10509:10648   */\n      swap1\n      pop\n        /* \"#utility.yul\":10236:10655   */\n      swap2\n      swap1\n      pop\n      jump\t// out\n        /* \"#utility.yul\":10661:10760   */\n    tag_132:\n        /* \"#utility.yul\":10713:10719   */\n      0x00\n        /* \"#utility.yul\":10747:10752   */\n      dup2\n        /* \"#utility.yul\":10741:10753   */\n      mload\n        /* \"#utility.yul\":10731:10753   */\n      swap1\n      pop\n        /* \"#utility.yul\":10661:10760   */\n      swap2\n      swap1\n      pop\n      jump\t// out\n        /* \"#utility.yul\":10766:11073   */\n    tag_133:\n        /* \"#utility.yul\":10834:10835   */\n      0x00\n        /* \"#utility.yul\":10844:10957   */\n    tag_266:\n        /* \"#utility.yul\":10858:10864   */\n      dup4\n        /* \"#utility.yul\":10855:10856   */\n      dup2\n        /* \"#utility.yul\":10852:10865   */\n      lt\n        /* \"#utility.yul\":10844:10957   */\n      iszero\n      tag_268\n      jumpi\n        /* \"#utility.yul\":10943:10944   */\n      dup1\n        /* \"#utility.yul\":10938:10941   */\n      dup3\n        /* \"#utility.yul\":10934:10945   */\n      add\n        /* \"#utility.yul\":10928:10946   */\n      mload\n        /* \"#utility.yul\":10924:10925   */\n      dup2\n        /* \"#utility.yul\":10919:10922   */\n      dup5\n        /* \"#utility.yul\":10915:10926   */\n      add\n        /* \"#utility.yul\":10908:10947   */\n      mstore\n        /* \"#utility.yul\":10880:10882   */\n      0x20\n        /* \"#utility.yul\":10877:10878   */\n      dup2\n        /* \"#utility.yul\":10873:10883   */\n      add\n        /* \"#utility.yul\":10868:10883   */\n      swap1\n      pop\n        /* \"#utility.yul\":10844:10957   */\n      jump(tag_266)\n    tag_268:\n        /* \"#utility.yul\":10975:10981   */\n      dup4\n        /* \"#utility.yul\":10972:10973   */\n      dup2\n        /* \"#utility.yul\":10969:10982   */\n      gt\n        /* \"#utility.yul\":10966:11067   */\n      iszero\n      tag_269\n      jumpi\n        /* \"#utility.yul\":11055:11056   */\n      0x00\n        /* \"#utility.yul\":11046:11052   */\n      dup5\n        /* \"#utility.yul\":11041:11044   */\n      dup5\n        /* \"#utility.yul\":11037:11053   */\n      add\n        /* \"#utility.yul\":11030:11057   */\n      mstore\n        /* \"#utility.yul\":10966:11067   */\n    tag_269:\n        /* \"#utility.yul\":10815:11073   */\n      pop\n        /* \"#utility.yul\":10766:11073   */\n      pop\n      pop\n      pop\n      jump\t// out\n        /* \"#utility.yul\":11079:11456   */\n    tag_134:\n        /* \"#utility.yul\":11185:11188   */\n      0x00\n        /* \"#utility.yul\":11213:11252   */\n      tag_271\n        /* \"#utility.yul\":11246:11251   */\n      dup3\n        /* \"#utility.yul\":11213:11252   */\n      tag_132\n      jump\t// in\n    tag_271:\n        /* \"#utility.yul\":11268:11357   */\n      tag_272\n        /* \"#utility.yul\":11350:11356   */\n      dup2\n        /* \"#utility.yul\":11345:11348   */\n      dup6\n        /* \"#utility.yul\":11268:11357   */\n      tag_102\n      jump\t// in\n    tag_272:\n        /* \"#utility.yul\":11261:11357   */\n      swap4\n      pop\n        /* \"#utility.yul\":11366:11418   */\n      tag_273\n        /* \"#utility.yul\":11411:11417   */\n      dup2\n        /* \"#utility.yul\":11406:11409   */\n      dup6\n        /* \"#utility.yul\":11399:11403   */\n      0x20\n        /* \"#utility.yul\":11392:11397   */\n      dup7\n        /* \"#utility.yul\":11388:11404   */\n      add\n        /* \"#utility.yul\":11366:11418   */\n      tag_133\n      jump\t// in\n    tag_273:\n        /* \"#utility.yul\":11443:11449   */\n      dup1\n        /* \"#utility.yul\":11438:11441   */\n      dup5\n        /* \"#utility.yul\":11434:11450   */\n      add\n        /* \"#utility.yul\":11427:11450   */\n      swap2\n      pop\n        /* \"#utility.yul\":11189:11456   */\n      pop\n        /* \"#utility.yul\":11079:11456   */\n      swap3\n      swap2\n      pop\n      pop\n      jump\t// out\n        /* \"#utility.yul\":11462:11737   */\n    tag_68:\n        /* \"#utility.yul\":11594:11597   */\n      0x00\n        /* \"#utility.yul\":11616:11711   */\n      tag_275\n        /* \"#utility.yul\":11707:11710   */\n      dup3\n        /* \"#utility.yul\":11698:11704   */\n      dup5\n        /* \"#utility.yul\":11616:11711   */\n      tag_134\n      jump\t// in\n    tag_275:\n        /* \"#utility.yul\":11609:11711   */\n      swap2\n      pop\n        /* \"#utility.yul\":11728:11731   */\n      dup2\n        /* \"#utility.yul\":11721:11731   */\n      swap1\n      pop\n        /* \"#utility.yul\":11462:11737   */\n      swap3\n      swap2\n      pop\n      pop\n      jump\t// out\n        /* \"#utility.yul\":11743:12107   */\n    tag_135:\n        /* \"#utility.yul\":11831:11834   */\n      0x00\n        /* \"#utility.yul\":11859:11898   */\n      tag_277\n        /* \"#utility.yul\":11892:11897   */\n      dup3\n        /* \"#utility.yul\":11859:11898   */\n      tag_132\n      jump\t// in\n    tag_277:\n        /* \"#utility.yul\":11914:11985   */\n      tag_278\n        /* \"#utility.yul\":11978:11984   */\n      dup2\n        /* \"#utility.yul\":11973:11976   */\n      dup6\n        /* \"#utility.yul\":11914:11985   */\n      tag_129\n      jump\t// in\n    tag_278:\n        /* \"#utility.yul\":11907:11985   */\n      swap4\n      pop\n        /* \"#utility.yul\":11994:12046   */\n      tag_279\n        /* \"#utility.yul\":12039:12045   */\n      dup2\n        /* \"#utility.yul\":12034:12037   */\n      dup6\n        /* \"#utility.yul\":12027:12031   */\n      0x20\n        /* \"#utility.yul\":12020:12025   */\n      dup7\n        /* \"#utility.yul\":12016:12032   */\n      add\n        /* \"#utility.yul\":11994:12046   */\n      tag_133\n      jump\t// in\n    tag_279:\n        /* \"#utility.yul\":12071:12100   */\n      tag_280\n        /* \"#utility.yul\":12093:12099   */\n      dup2\n        /* \"#utility.yul\":12071:12100   */\n      tag_114\n      jump\t// in\n    tag_280:\n        /* \"#utility.yul\":12066:12069   */\n      dup5\n        /* \"#utility.yul\":12062:12101   */\n      add\n        /* \"#utility.yul\":12055:12101   */\n      swap2\n      pop\n        /* \"#utility.yul\":11835:12107   */\n      pop\n        /* \"#utility.yul\":11743:12107   */\n      swap3\n      swap2\n      pop\n      pop\n      jump\t// out\n        /* \"#utility.yul\":12113:13050   */\n    tag_72:\n        /* \"#utility.yul\":12378:12382   */\n      0x00\n        /* \"#utility.yul\":12416:12419   */\n      0xa0\n        /* \"#utility.yul\":12405:12414   */\n      dup3\n        /* \"#utility.yul\":12401:12420   */\n      add\n        /* \"#utility.yul\":12393:12420   */\n      swap1\n      pop\n        /* \"#utility.yul\":12466:12475   */\n      dup2\n        /* \"#utility.yul\":12460:12464   */\n      dup2\n        /* \"#utility.yul\":12456:12476   */\n      sub\n        /* \"#utility.yul\":12452:12453   */\n      0x00\n        /* \"#utility.yul\":12441:12450   */\n      dup4\n        /* \"#utility.yul\":12437:12454   */\n      add\n        /* \"#utility.yul\":12430:12477   */\n      mstore\n        /* \"#utility.yul\":12494:12572   */\n      tag_282\n        /* \"#utility.yul\":12567:12571   */\n      dup2\n        /* \"#utility.yul\":12558:12564   */\n      dup9\n        /* \"#utility.yul\":12494:12572   */\n      tag_135\n      jump\t// in\n    tag_282:\n        /* \"#utility.yul\":12486:12572   */\n      swap1\n      pop\n        /* \"#utility.yul\":12619:12628   */\n      dup2\n        /* \"#utility.yul\":12613:12617   */\n      dup2\n        /* \"#utility.yul\":12609:12629   */\n      sub\n        /* \"#utility.yul\":12604:12606   */\n      0x20\n        /* \"#utility.yul\":12593:12602   */\n      dup4\n        /* \"#utility.yul\":12589:12607   */\n      add\n        /* \"#utility.yul\":12582:12630   */\n      mstore\n        /* \"#utility.yul\":12647:12725   */\n      tag_283\n        /* \"#utility.yul\":12720:12724   */\n      dup2\n        /* \"#utility.yul\":12711:12717   */\n      dup8\n        /* \"#utility.yul\":12647:12725   */\n      tag_135\n      jump\t// in\n    tag_283:\n        /* \"#utility.yul\":12639:12725   */\n      swap1\n      pop\n        /* \"#utility.yul\":12735:12807   */\n      tag_284\n        /* \"#utility.yul\":12803:12805   */\n      0x40\n        /* \"#utility.yul\":12792:12801   */\n      dup4\n        /* \"#utility.yul\":12788:12806   */\n      add\n        /* \"#utility.yul\":12779:12785   */\n      dup7\n        /* \"#utility.yul\":12735:12807   */\n      tag_128\n      jump\t// in\n    tag_284:\n        /* \"#utility.yul\":12817:12889   */\n      tag_285\n        /* \"#utility.yul\":12885:12887   */\n      0x60\n        /* \"#utility.yul\":12874:12883   */\n      dup4\n        /* \"#utility.yul\":12870:12888   */\n      add\n        /* \"#utility.yul\":12861:12867   */\n      dup6\n        /* \"#utility.yul\":12817:12889   */\n      tag_128\n      jump\t// in\n    tag_285:\n        /* \"#utility.yul\":12937:12946   */\n      dup2\n        /* \"#utility.yul\":12931:12935   */\n      dup2\n        /* \"#utility.yul\":12927:12947   */\n      sub\n        /* \"#utility.yul\":12921:12924   */\n      0x80\n        /* \"#utility.yul\":12910:12919   */\n      dup4\n        /* \"#utility.yul\":12906:12925   */\n      add\n        /* \"#utility.yul\":12899:12948   */\n      mstore\n        /* \"#utility.yul\":12965:13043   */\n      tag_286\n        /* \"#utility.yul\":13038:13042   */\n      dup2\n        /* \"#utility.yul\":13029:13035   */\n      dup5\n        /* \"#utility.yul\":12965:13043   */\n      tag_135\n      jump\t// in\n    tag_286:\n        /* \"#utility.yul\":12957:13043   */\n      swap1\n      pop\n        /* \"#utility.yul\":12113:13050   */\n      swap7\n      swap6\n      pop\n      pop\n      pop\n      pop\n      pop\n      pop\n      jump\t// out\n        /* \"#utility.yul\":13056:13149   */\n    tag_136:\n        /* \"#utility.yul\":13093:13099   */\n      0x00\n        /* \"#utility.yul\":13140:13142   */\n      0x20\n        /* \"#utility.yul\":13135:13137   */\n      0x1f\n        /* \"#utility.yul\":13128:13133   */\n      dup4\n        /* \"#utility.yul\":13124:13138   */\n      add\n        /* \"#utility.yul\":13120:13143   */\n      div\n        /* \"#utility.yul\":13110:13143   */\n      swap1\n      pop\n        /* \"#utility.yul\":13056:13149   */\n      swap2\n      swap1\n      pop\n      jump\t// out\n        /* \"#utility.yul\":13155:13262   */\n    tag_137:\n        /* \"#utility.yul\":13199:13207   */\n      0x00\n        /* \"#utility.yul\":13249:13254   */\n      dup3\n        /* \"#utility.yul\":13243:13247   */\n      dup3\n        /* \"#utility.yul\":13239:13255   */\n      shl\n        /* \"#utility.yul\":13218:13255   */\n      swap1\n      pop\n        /* \"#utility.yul\":13155:13262   */\n      swap3\n      swap2\n      pop\n      pop\n      jump\t// out\n        /* \"#utility.yul\":13268:13661   */\n    tag_138:\n        /* \"#utility.yul\":13337:13343   */\n      0x00\n        /* \"#utility.yul\":13387:13388   */\n      0x08\n        /* \"#utility.yul\":13375:13385   */\n      dup4\n        /* \"#utility.yul\":13371:13389   */\n      mul\n        /* \"#utility.yul\":13410:13507   */\n      tag_290\n        /* \"#utility.yul\":13440:13506   */\n      0xffffffffffffffffffffffffffffffffffffffffffffffffffffffffffffffff\n        /* \"#utility.yul\":13429:13438   */\n      dup3\n        /* \"#utility.yul\":13410:13507   */\n      tag_137\n      jump\t// in\n    tag_290:\n        /* \"#utility.yul\":13528:13567   */\n      tag_291\n        /* \"#utility.yul\":13558:13566   */\n      dup7\n        /* \"#utility.yul\":13547:13556   */\n      dup4\n        /* \"#utility.yul\":13528:13567   */\n      tag_137\n      jump\t// in\n    tag_291:\n        /* \"#utility.yul\":13516:13567   */\n      swap6\n      pop\n        /* \"#utility.yul\":13600:13604   */\n      dup1\n        /* \"#utility.yul\":13596:13605   */\n      not\n        /* \"#utility.yul\":13589:13594   */\n      dup5\n        /* \"#utility.yul\":13585:13606   */\n      and\n        /* \"#utility.yul\":13576:13606   */\n      swap4\n      pop\n        /* \"#utility.yul\":13649:13653   */\n      dup1\n        /* \"#utility.yul\":13639:13647   */\n      dup7\n        /* \"#utility.yul\":13635:13654   */\n      and\n        /* \"#utility.yul\":13628:13633   */\n      dup5\n        /* \"#utility.yul\":13625:13655   */\n      or\n        /* \"#utility.yul\":13615:13655   */\n      swap3\n      pop\n        /* \"#utility.yul\":13344:13661   */\n      pop\n      pop\n        /* \"#utility.yul\":13268:13661   */\n      swap4\n      swap3\n      pop\n      pop\n      pop\n      jump\t// out\n        /* \"#utility.yul\":13667:13727   */\n    tag_139:\n        /* \"#utility.yul\":13695:13698   */\n      0x00\n        /* \"#utility.yul\":13716:13721   */\n      dup2\n        /* \"#utility.yul\":13709:13721   */\n      swap1\n      pop\n        /* \"#utility.yul\":13667:13727   */\n      swap2\n      swap1\n      pop\n      jump\t// out\n        /* \"#utility.yul\":13733:13875   */\n    tag_140:\n        /* \"#utility.yul\":13783:13792   */\n      0x00\n        /* \"#utility.yul\":13816:13869   */\n      tag_294\n        /* \"#utility.yul\":13834:13868   */\n      tag_295\n        /* \"#utility.yul\":13843:13867   */\n      tag_296\n        /* \"#utility.yul\":13861:13866   */\n      dup5\n        /* \"#utility.yul\":13843:13867   */\n      tag_122\n      jump\t// in\n    tag_296:\n        /* \"#utility.yul\":13834:13868   */\n      tag_139\n      jump\t// in\n    tag_295:\n        /* \"#utility.yul\":13816:13869   */\n      tag_122\n      jump\t// in\n    tag_294:\n        /* \"#utility.yul\":13803:13869   */\n      swap1\n      pop\n        /* \"#utility.yul\":13733:13875   */\n      swap2\n      swap1\n      pop\n      jump\t// out\n        /* \"#utility.yul\":13881:13956   */\n    tag_141:\n        /* \"#utility.yul\":13924:13927   */\n      0x00\n        /* \"#utility.yul\":13945:13950   */\n      dup2\n        /* \"#utility.yul\":13938:13950   */\n      swap1\n      pop\n        /* \"#utility.yul\":13881:13956   */\n      swap2\n      swap1\n      pop\n      jump\t// out\n        /* \"#utility.yul\":13962:14231   */\n    tag_142:\n        /* \"#utility.yul\":14072:14111   */\n      tag_299\n        /* \"#utility.yul\":14103:14110   */\n      dup4\n        /* \"#utility.yul\":14072:14111   */\n      tag_140\n      jump\t// in\n    tag_299:\n        /* \"#utility.yul\":14133:14224   */\n      tag_300\n        /* \"#utility.yul\":14182:14223   */\n      tag_301\n        /* \"#utility.yul\":14206:14222   */\n      dup3\n        /* \"#utility.yul\":14182:14223   */\n      tag_141\n      jump\t// in\n    tag_301:\n        /* \"#utility.yul\":14174:14180   */\n      dup5\n        /* \"#utility.yul\":14167:14171   */\n      dup5\n        /* \"#utility.yul\":14161:14172   */\n      sload\n        /* \"#utility.yul\":14133:14224   */\n      tag_138\n      jump\t// in\n    tag_300:\n        /* \"#utility.yul\":14127:14131   */\n      dup3\n        /* \"#utility.yul\":14120:14225   */\n      sstore\n        /* \"#utility.yul\":14038:14231   */\n      pop\n        /* \"#utility.yul\":13962:14231   */\n      pop\n      pop\n      pop\n      jump\t// out\n        /* \"#utility.yul\":14237:14310   */\n    tag_143:\n        /* \"#utility.yul\":14282:14285   */\n      0x00\n        /* \"#utility.yul\":14237:14310   */\n      swap1\n      jump\t// out\n        /* \"#utility.yul\":14316:14505   */\n    tag_144:\n        /* \"#utility.yul\":14393:14425   */\n      tag_304\n      tag_143\n      jump\t// in\n    tag_304:\n        /* \"#utility.yul\":14434:14499   */\n      tag_305\n        /* \"#utility.yul\":14492:14498   */\n      dup2\n        /* \"#utility.yul\":14484:14490   */\n      dup5\n        /* \"#utility.yul\":14478:14482   */\n      dup5\n        /* \"#utility.yul\":14434:14499   */\n      tag_142\n      jump\t// in\n    tag_305:\n        /* \"#utility.yul\":14369:14505   */\n      pop\n        /* \"#utility.yul\":14316:14505   */\n      pop\n      pop\n      jump\t// out\n        /* \"#utility.yul\":14511:14697   */\n    tag_145:\n        /* \"#utility.yul\":14571:14691   */\n    tag_307:\n        /* \"#utility.yul\":14588:14591   */\n      dup2\n        /* \"#utility.yul\":14581:14586   */\n      dup2\n        /* \"#utility.yul\":14578:14592   */\n      lt\n        /* \"#utility.yul\":14571:14691   */\n      iszero\n      tag_309\n      jumpi\n        /* \"#utility.yul\":14642:14681   */\n      tag_310\n        /* \"#utility.yul\":14679:14680   */\n      0x00\n        /* \"#utility.yul\":14672:14677   */\n      dup3\n        /* \"#utility.yul\":14642:14681   */\n      tag_144\n      jump\t// in\n    tag_310:\n        /* \"#utility.yul\":14615:14616   */\n      0x01\n        /* \"#utility.yul\":14608:14613   */\n      dup2\n        /* \"#utility.yul\":14604:14617   */\n      add\n        /* \"#utility.yul\":14595:14617   */\n      swap1\n      pop\n        /* \"#utility.yul\":14571:14691   */\n      jump(tag_307)\n    tag_309:\n        /* \"#utility.yul\":14511:14697   */\n      pop\n      pop\n      jump\t// out\n        /* \"#utility.yul\":14703:15246   */\n    tag_146:\n        /* \"#utility.yul\":14804:14806   */\n      0x1f\n        /* \"#utility.yul\":14799:14802   */\n      dup3\n        /* \"#utility.yul\":14796:14807   */\n      gt\n        /* \"#utility.yul\":14793:15239   */\n      iszero\n      tag_312\n      jumpi\n        /* \"#utility.yul\":14838:14876   */\n      tag_313\n        /* \"#utility.yul\":14870:14875   */\n      dup2\n        /* \"#utility.yul\":14838:14876   */\n      tag_103\n      jump\t// in\n    tag_313:\n        /* \"#utility.yul\":14922:14951   */\n      tag_314\n        /* \"#utility.yul\":14940:14950   */\n      dup5\n        /* \"#utility.yul\":14922:14951   */\n      tag_136\n      jump\t// in\n    tag_314:\n        /* \"#utility.yul\":14912:14920   */\n      dup2\n        /* \"#utility.yul\":14908:14952   */\n      add\n        /* \"#utility.yul\":15105:15107   */\n      0x20\n        /* \"#utility.yul\":15093:15103   */\n      dup6\n        /* \"#utility.yul\":15090:15108   */\n      lt\n        /* \"#utility.yul\":15087:15136   */\n      iszero\n      tag_315\n      jumpi\n        /* \"#utility.yul\":15126:15134   */\n      dup2\n        /* \"#utility.yul\":15111:15134   */\n      swap1\n      pop\n        /* \"#utility.yul\":15087:15136   */\n    tag_315:\n        /* \"#utility.yul\":15149:15229   */\n      tag_316\n        /* \"#utility.yul\":15205:15227   */\n      tag_317\n        /* \"#utility.yul\":15223:15226   */\n      dup6\n        /* \"#utility.yul\":15205:15227   */\n      tag_136\n      jump\t// in\n    tag_317:\n        /* \"#utility.yul\":15195:15203   */\n      dup4\n        /* \"#utility.yul\":15191:15228   */\n      add\n        /* \"#utility.yul\":15178:15189   */\n      dup3\n        /* \"#utility.yul\":15149:15229   */\n      tag_145\n      jump\t// in\n    tag_316:\n        /* \"#utility.yul\":14808:15239   */\n      pop\n      pop\n        /* \"#utility.yul\":14793:15239   */\n    tag_312:\n        /* \"#utility.yul\":14703:15246   */\n      pop\n      pop\n      pop\n      jump\t// out\n        /* \"#utility.yul\":15252:15369   */\n    tag_147:\n        /* \"#utility.yul\":15306:15314   */\n      0x00\n        /* \"#utility.yul\":15356:15361   */\n      dup3\n        /* \"#utility.yul\":15350:15354   */\n      dup3\n        /* \"#utility.yul\":15346:15362   */\n      shr\n        /* \"#utility.yul\":15325:15362   */\n      swap1\n      pop\n        /* \"#utility.yul\":15252:15369   */\n      swap3\n      swap2\n      pop\n      pop\n      jump\t// out\n        /* \"#utility.yul\":15375:15544   */\n    tag_148:\n        /* \"#utility.yul\":15419:15425   */\n      0x00\n        /* \"#utility.yul\":15452:15503   */\n      tag_320\n        /* \"#utility.yul\":15500:15501   */\n      0x00\n        /* \"#utility.yul\":15496:15502   */\n      not\n        /* \"#utility.yul\":15488:15493   */\n      dup5\n        /* \"#utility.yul\":15485:15486   */\n      0x08\n        /* \"#utility.yul\":15481:15494   */\n      mul\n        /* \"#utility.yul\":15452:15503   */\n      tag_147\n      jump\t// in\n    tag_320:\n        /* \"#utility.yul\":15448:15504   */\n      not\n        /* \"#utility.yul\":15533:15537   */\n      dup1\n        /* \"#utility.yul\":15527:15531   */\n      dup4\n        /* \"#utility.yul\":15523:15538   */\n      and\n        /* \"#utility.yul\":15513:15538   */\n      swap2\n      pop\n        /* \"#utility.yul\":15426:15544   */\n      pop\n        /* \"#utility.yul\":15375:15544   */\n      swap3\n      swap2\n      pop\n      pop\n      jump\t// out\n        /* \"#utility.yul\":15549:15844   */\n    tag_149:\n        /* \"#utility.yul\":15625:15629   */\n      0x00\n        /* \"#utility.yul\":15771:15800   */\n      tag_322\n        /* \"#utility.yul\":15796:15799   */\n      dup4\n        /* \"#utility.yul\":15790:15794   */\n      dup4\n        /* \"#utility.yul\":15771:15800   */\n      tag_148\n      jump\t// in\n    tag_322:\n        /* \"#utility.yul\":15763:15800   */\n      swap2\n      pop\n        /* \"#utility.yul\":15833:15836   */\n      dup3\n        /* \"#utility.yul\":15830:15831   */\n      0x02\n        /* \"#utility.yul\":15826:15837   */\n      mul\n        /* \"#utility.yul\":15820:15824   */\n      dup3\n        /* \"#utility.yul\":15817:15838   */\n      or\n        /* \"#utility.yul\":15809:15838   */\n      swap1\n      pop\n        /* \"#utility.yul\":15549:15844   */\n      swap3\n      swap2\n      pop\n      pop\n      jump\t// out\n        /* \"#utility.yul\":15849:17244   */\n    tag_98:\n        /* \"#utility.yul\":15966:16003   */\n      tag_324\n        /* \"#utility.yul\":15999:16002   */\n      dup3\n        /* \"#utility.yul\":15966:16003   */\n      tag_132\n      jump\t// in\n    tag_324:\n        /* \"#utility.yul\":16068:16086   */\n      0xffffffffffffffff\n        /* \"#utility.yul\":16060:16066   */\n      dup2\n        /* \"#utility.yul\":16057:16087   */\n      gt\n        /* \"#utility.yul\":16054:16110   */\n      iszero\n      tag_325\n      jumpi\n        /* \"#utility.yul\":16090:16108   */\n      tag_326\n      tag_115\n      jump\t// in\n    tag_326:\n        /* \"#utility.yul\":16054:16110   */\n    tag_325:\n        /* \"#utility.yul\":16134:16172   */\n      tag_327\n        /* \"#utility.yul\":16166:16170   */\n      dup3\n        /* \"#utility.yul\":16160:16171   */\n      sload\n        /* \"#utility.yul\":16134:16172   */\n      tag_101\n      jump\t// in\n    tag_327:\n        /* \"#utility.yul\":16219:16286   */\n      tag_328\n        /* \"#utility.yul\":16279:16285   */\n      dup3\n        /* \"#utility.yul\":16271:16277   */\n      dup3\n        /* \"#utility.yul\":16265:16269   */\n      dup6\n        /* \"#utility.yul\":16219:16286   */\n      tag_146\n      jump\t// in\n    tag_328:\n        /* \"#utility.yul\":16313:16314   */\n      0x00\n        /* \"#utility.yul\":16337:16341   */\n      0x20\n        /* \"#utility.yul\":16324:16341   */\n      swap1\n      pop\n        /* \"#utility.yul\":16369:16371   */\n      0x1f\n        /* \"#utility.yul\":16361:16367   */\n      dup4\n        /* \"#utility.yul\":16358:16372   */\n      gt\n        /* \"#utility.yul\":16386:16387   */\n      0x01\n        /* \"#utility.yul\":16381:16999   */\n      dup2\n      eq\n      tag_330\n      jumpi\n        /* \"#utility.yul\":17043:17044   */\n      0x00\n        /* \"#utility.yul\":17060:17066   */\n      dup5\n        /* \"#utility.yul\":17057:17134   */\n      iszero\n      tag_331\n      jumpi\n        /* \"#utility.yul\":17109:17118   */\n      dup3\n        /* \"#utility.yul\":17104:17107   */\n      dup8\n        /* \"#utility.yul\":17100:17119   */\n      add\n        /* \"#utility.yul\":17094:17120   */\n      mload\n        /* \"#utility.yul\":17085:17120   */\n      swap1\n      pop\n        /* \"#utility.yul\":17057:17134   */\n    tag_331:\n        /* \"#utility.yul\":17160:17227   */\n      tag_332\n        /* \"#utility.yul\":17220:17226   */\n      dup6\n        /* \"#utility.yul\":17213:17218   */\n      dup3\n        /* \"#utility.yul\":17160:17227   */\n      tag_149\n      jump\t// in\n    tag_332:\n        /* \"#utility.yul\":17154:17158   */\n      dup7\n        /* \"#utility.yul\":17147:17228   */\n      sstore\n        /* \"#utility.yul\":17016:17238   */\n      pop\n        /* \"#utility.yul\":16351:17238   */\n      jump(tag_329)\n        /* \"#utility.yul\":16381:16999   */\n    tag_330:\n        /* \"#utility.yul\":16433:16437   */\n      0x1f\n        /* \"#utility.yul\":16429:16438   */\n      not\n        /* \"#utility.yul\":16421:16427   */\n      dup5\n        /* \"#utility.yul\":16417:16439   */\n      and\n        /* \"#utility.yul\":16467:16504   */\n      tag_333\n        /* \"#utility.yul\":16499:16503   */\n      dup7\n        /* \"#utility.yul\":16467:16504   */\n      tag_103\n      jump\t// in\n    tag_333:\n        /* \"#utility.yul\":16526:16527   */\n      0x00\n        /* \"#utility.yul\":16540:16748   */\n    tag_334:\n        /* \"#utility.yul\":16554:16561   */\n      dup3\n        /* \"#utility.yul\":16551:16552   */\n      dup2\n        /* \"#utility.yul\":16548:16562   */\n      lt\n        /* \"#utility.yul\":16540:16748   */\n      iszero\n      tag_336\n      jumpi\n        /* \"#utility.yul\":16633:16642   */\n      dup5\n        /* \"#utility.yul\":16628:16631   */\n      dup10\n        /* \"#utility.yul\":16624:16643   */\n      add\n        /* \"#utility.yul\":16618:16644   */\n      mload\n        /* \"#utility.yul\":16610:16616   */\n      dup3\n        /* \"#utility.yul\":16603:16645   */\n      sstore\n        /* \"#utility.yul\":16684:16685   */\n      0x01\n        /* \"#utility.yul\":16676:16682   */\n      dup3\n        /* \"#utility.yul\":16672:16686   */\n      add\n        /* \"#utility.yul\":16662:16686   */\n      swap2\n      pop\n        /* \"#utility.yul\":16731:16733   */\n      0x20\n        /* \"#utility.yul\":16720:16729   */\n      dup6\n        /* \"#utility.yul\":16716:16734   */\n      add\n        /* \"#utility.yul\":16703:16734   */\n      swap5\n      pop\n        /* \"#utility.yul\":16577:16581   */\n      0x20\n        /* \"#utility.yul\":16574:16575   */\n      dup2\n        /* \"#utility.yul\":16570:16582   */\n      add\n        /* \"#utility.yul\":16565:16582   */\n      swap1\n      pop\n        /* \"#utility.yul\":16540:16748   */\n      jump(tag_334)\n    tag_336:\n        /* \"#utility.yul\":16776:16782   */\n      dup7\n        /* \"#utility.yul\":16767:16774   */\n      dup4\n        /* \"#utility.yul\":16764:16783   */\n      lt\n        /* \"#utility.yul\":16761:16940   */\n      iszero\n      tag_337\n      jumpi\n        /* \"#utility.yul\":16834:16843   */\n      dup5\n        /* \"#utility.yul\":16829:16832   */\n      dup10\n        /* \"#utility.yul\":16825:16844   */\n      add\n        /* \"#utility.yul\":16819:16845   */\n      mload\n        /* \"#utility.yul\":16877:16925   */\n      tag_338\n        /* \"#utility.yul\":16919:16923   */\n      0x1f\n        /* \"#utility.yul\":16911:16917   */\n      dup10\n        /* \"#utility.yul\":16907:16924   */\n      and\n        /* \"#utility.yul\":16896:16905   */\n      dup3\n        /* \"#utility.yul\":16877:16925   */\n      tag_148\n      jump\t// in\n    tag_338:\n        /* \"#utility.yul\":16869:16875   */\n      dup4\n        /* \"#utility.yul\":16862:16926   */\n      sstore\n        /* \"#utility.yul\":16784:16940   */\n      pop\n        /* \"#utility.yul\":16761:16940   */\n    tag_337:\n        /* \"#utility.yul\":16986:16987   */\n      0x01\n        /* \"#utility.yul\":16982:16983   */\n      0x02\n        /* \"#utility.yul\":16974:16980   */\n      dup9\n        /* \"#utility.yul\":16970:16984   */\n      mul\n        /* \"#utility.yul\":16966:16988   */\n      add\n        /* \"#utility.yul\":16960:16964   */\n      dup9\n        /* \"#utility.yul\":16953:16989   */\n      sstore\n        /* \"#utility.yul\":16388:16999   */\n      pop\n      pop\n      pop\n        /* \"#utility.yul\":16351:17238   */\n    tag_329:\n      pop\n        /* \"#utility.yul\":15941:17244   */\n      pop\n      pop\n      pop\n        /* \"#utility.yul\":15849:17244   */\n      pop\n      pop\n      jump\t// out\n\n    auxdata: 0xa26469706673582212206a526c3efa8bc13b322415b431a7bdc9d33d5051295bf0df288f9ebea58def5164736f6c634300080f0033\n}\n",
				"bytecode": {
					"linkReferences": {},
					"object": "608060405234801561001057600080fd5b50336000806101000a81548173ffffffffffffffffffffffffffffffffffffffff021916908373ffffffffffffffffffffffffffffffffffffffff16021790555033600460006101000a81548173ffffffffffffffffffffffffffffffffffffffff021916908373ffffffffffffffffffffffffffffffffffffffff160217905550611211806100a16000396000f3fe60806040526004361061008a5760003560e01c8063b2bdfa7b11610059578063b2bdfa7b146101e5578063e935155814610210578063e9e6533114610239578063f993185514610255578063fe49048a1461029257610147565b806313af40351461014c5780633f59c65714610175578063704b6c02146101915780638f32d59b146101ba57610147565b36610147576002600560003373ffffffffffffffffffffffffffffffffffffffff1673ffffffffffffffffffffffffffffffffffffffff1681526020019081526020016000206040516100dd919061099e565b908152602001604051809103902060009054906101000a900460ff1661010257600080fd5b34600660003373ffffffffffffffffffffffffffffffffffffffff1673ffffffffffffffffffffffffffffffffffffffff168152602001908152602001600020819055005b600080fd5b34801561015857600080fd5b50610173600480360381019061016e9190610a27565b6102bb565b005b61018f600480360381019061018a9190610bd0565b610345565b005b34801561019d57600080fd5b506101b860048036038101906101b39190610a27565b6104d1565b005b3480156101c657600080fd5b506101cf61055c565b6040516101dc9190610cba565b60405180910390f35b3480156101f157600080fd5b506101fa6105b3565b6040516102079190610ce4565b60405180910390f35b34801561021c57600080fd5b5061023760048036038101906102329190610cff565b6105d7565b005b610253600480360381019061024e9190610a27565b6106d6565b005b34801561026157600080fd5b5061027c60048036038101906102779190610a27565b6106d9565b6040516102899190610d57565b60405180910390f35b34801561029e57600080fd5b506102b960048036038101906102b49190610d72565b6106f1565b005b6102c361055c565b610302576040517f08c379a00000000000000000000000000000000000000000000000000000000081526004016102f990610e2b565b60405180910390fd5b806000806101000a81548173ffffffffffffffffffffffffffffffffffffffff021916908373ffffffffffffffffffffffffffffffffffffffff16021790555050565b600115156001826040516103599190610eba565b908152602001604051809103902060009054906101000a900460ff1615151461038157600080fd5b600460009054906101000a900473ffffffffffffffffffffffffffffffffffffffff1673ffffffffffffffffffffffffffffffffffffffff163373ffffffffffffffffffffffffffffffffffffffff16146103db57600080fd5b7f2ee35da94d6494eb515fd8f6fffdecd1d417dbae7e370cb1f77d709473e01d598585858585604051610412959493929190610f0a565b60405180910390a1600060018260405161042c9190610eba565b908152602001604051809103902060006101000a81548160ff0219169083151502179055506002816040516104619190610eba565b908152602001604051809103902060009054906101000a900460ff16156104ca576104c96003826040516104959190610eba565b908152602001604051809103902060009054906101000a900473ffffffffffffffffffffffffffffffffffffffff166106d6565b5b5050505050565b6104d961055c565b610518576040517f08c379a000000000000000000000000000000000000000000000000000000000815260040161050f90610e2b565b60405180910390fd5b80600460006101000a81548173ffffffffffffffffffffffffffffffffffffffff021916908373ffffffffffffffffffffffffffffffffffffffff16021790555050565b60008060009054906101000a900473ffffffffffffffffffffffffffffffffffffffff1673ffffffffffffffffffffffffffffffffffffffff163373ffffffffffffffffffffffffffffffffffffffff1614905090565b60008054906101000a900473ffffffffffffffffffffffffffffffffffffffff1681565b600460009054906101000a900473ffffffffffffffffffffffffffffffffffffffff1673ffffffffffffffffffffffffffffffffffffffff163373ffffffffffffffffffffffffffffffffffffffff161461063157600080fd5b600180826040516106429190610eba565b908152602001604051809103902060006101000a81548160ff0219169083151502179055506001816040516106779190610eba565b908152602001604051809103902060009054906101000a900460ff1661069c57600080fd5b60016002826040516106ae9190610eba565b908152602001604051809103902060006101000a81548160ff02191690831515021790555050565b50565b60066020528060005260406000206000915090505481565b600460009054906101000a900473ffffffffffffffffffffffffffffffffffffffff1673ffffffffffffffffffffffffffffffffffffffff163373ffffffffffffffffffffffffffffffffffffffff161461074b57600080fd5b6001808360405161075c9190610eba565b908152602001604051809103902060006101000a81548160ff0219169083151502179055506001826040516107919190610eba565b908152602001604051809103902060009054906101000a900460ff166107b657600080fd5b60016002836040516107c89190610eba565b908152602001604051809103902060006101000a81548160ff02191690831515021790555081600560008373ffffffffffffffffffffffffffffffffffffffff1673ffffffffffffffffffffffffffffffffffffffff16815260200190815260200160002090816108399190611109565b508060038360405161084b9190610eba565b908152602001604051809103902060006101000a81548173ffffffffffffffffffffffffffffffffffffffff021916908373ffffffffffffffffffffffffffffffffffffffff1602179055505050565b7f4e487b7100000000000000000000000000000000000000000000000000000000600052602260045260246000fd5b600060028204905060018216806108e257607f821691505b6020821081036108f5576108f461089b565b5b50919050565b600081905092915050565b60008190508160005260206000209050919050565b60008154610928816108ca565b61093281866108fb565b9450600182166000811461094d576001811461096257610995565b60ff1983168652811515820286019350610995565b61096b85610906565b60005b8381101561098d5781548189015260018201915060208101905061096e565b838801955050505b50505092915050565b60006109aa828461091b565b915081905092915050565b6000604051905090565b600080fd5b600080fd5b600073ffffffffffffffffffffffffffffffffffffffff82169050919050565b60006109f4826109c9565b9050919050565b610a04816109e9565b8114610a0f57600080fd5b50565b600081359050610a21816109fb565b92915050565b600060208284031215610a3d57610a3c6109bf565b5b6000610a4b84828501610a12565b91505092915050565b600080fd5b600080fd5b6000601f19601f8301169050919050565b7f4e487b7100000000000000000000000000000000000000000000000000000000600052604160045260246000fd5b610aa782610a5e565b810181811067ffffffffffffffff82111715610ac657610ac5610a6f565b5b80604052505050565b6000610ad96109b5565b9050610ae58282610a9e565b919050565b600067ffffffffffffffff821115610b0557610b04610a6f565b5b610b0e82610a5e565b9050602081019050919050565b82818337600083830152505050565b6000610b3d610b3884610aea565b610acf565b905082815260208101848484011115610b5957610b58610a59565b5b610b64848285610b1b565b509392505050565b600082601f830112610b8157610b80610a54565b5b8135610b91848260208601610b2a565b91505092915050565b6000819050919050565b610bad81610b9a565b8114610bb857600080fd5b50565b600081359050610bca81610ba4565b92915050565b600080600080600060a08688031215610bec57610beb6109bf565b5b600086013567ffffffffffffffff811115610c0a57610c096109c4565b5b610c1688828901610b6c565b955050602086013567ffffffffffffffff811115610c3757610c366109c4565b5b610c4388828901610b6c565b9450506040610c5488828901610bbb565b9350506060610c6588828901610bbb565b925050608086013567ffffffffffffffff811115610c8657610c856109c4565b5b610c9288828901610b6c565b9150509295509295909350565b60008115159050919050565b610cb481610c9f565b82525050565b6000602082019050610ccf6000830184610cab565b92915050565b610cde816109e9565b82525050565b6000602082019050610cf96000830184610cd5565b92915050565b600060208284031215610d1557610d146109bf565b5b600082013567ffffffffffffffff811115610d3357610d326109c4565b5b610d3f84828501610b6c565b91505092915050565b610d5181610b9a565b82525050565b6000602082019050610d6c6000830184610d48565b92915050565b60008060408385031215610d8957610d886109bf565b5b600083013567ffffffffffffffff811115610da757610da66109c4565b5b610db385828601610b6c565b9250506020610dc485828601610a12565b9150509250929050565b600082825260208201905092915050565b7f4f776e61626c653a2063616c6c6572206973206e6f7420746865206f776e6572600082015250565b6000610e15602083610dce565b9150610e2082610ddf565b602082019050919050565b60006020820190508181036000830152610e4481610e08565b9050919050565b600081519050919050565b60005b83811015610e74578082015181840152602081019050610e59565b83811115610e83576000848401525b50505050565b6000610e9482610e4b565b610e9e81856108fb565b9350610eae818560208601610e56565b80840191505092915050565b6000610ec68284610e89565b915081905092915050565b6000610edc82610e4b565b610ee68185610dce565b9350610ef6818560208601610e56565b610eff81610a5e565b840191505092915050565b600060a0820190508181036000830152610f248188610ed1565b90508181036020830152610f388187610ed1565b9050610f476040830186610d48565b610f546060830185610d48565b8181036080830152610f668184610ed1565b90509695505050505050565b60006020601f8301049050919050565b600082821b905092915050565b600060088302610fbf7fffffffffffffffffffffffffffffffffffffffffffffffffffffffffffffffff82610f82565b610fc98683610f82565b95508019841693508086168417925050509392505050565b6000819050919050565b6000611006611001610ffc84610b9a565b610fe1565b610b9a565b9050919050565b6000819050919050565b61102083610feb565b61103461102c8261100d565b848454610f8f565b825550505050565b600090565b61104961103c565b611054818484611017565b505050565b5b818110156110785761106d600082611041565b60018101905061105a565b5050565b601f8211156110bd5761108e81610906565b61109784610f72565b810160208510156110a6578190505b6110ba6110b285610f72565b830182611059565b50505b505050565b600082821c905092915050565b60006110e0600019846008026110c2565b1980831691505092915050565b60006110f983836110cf565b9150826002028217905092915050565b61111282610e4b565b67ffffffffffffffff81111561112b5761112a610a6f565b5b61113582546108ca565b61114082828561107c565b600060209050601f8311600181146111735760008415611161578287015190505b61116b85826110ed565b8655506111d3565b601f19841661118186610906565b60005b828110156111a957848901518255600182019150602085019450602081019050611184565b868310156111c657848901516111c2601f8916826110cf565b8355505b6001600288020188555050505b50505050505056fea26469706673582212206a526c3efa8bc13b322415b431a7bdc9d33d5051295bf0df288f9ebea58def5164736f6c634300080f0033",
					"opcodes": "PUSH1 0x80 PUSH1 0x40 MSTORE CALLVALUE DUP1 ISZERO PUSH2 0x10 JUMPI PUSH1 0x0 DUP1 REVERT JUMPDEST POP CALLER PUSH1 0x0 DUP1 PUSH2 0x100 EXP DUP2 SLOAD DUP2 PUSH20 0xFFFFFFFFFFFFFFFFFFFFFFFFFFFFFFFFFFFFFFFF MUL NOT AND SWAP1 DUP4 PUSH20 0xFFFFFFFFFFFFFFFFFFFFFFFFFFFFFFFFFFFFFFFF AND MUL OR SWAP1 SSTORE POP CALLER PUSH1 0x4 PUSH1 0x0 PUSH2 0x100 EXP DUP2 SLOAD DUP2 PUSH20 0xFFFFFFFFFFFFFFFFFFFFFFFFFFFFFFFFFFFFFFFF MUL NOT AND SWAP1 DUP4 PUSH20 0xFFFFFFFFFFFFFFFFFFFFFFFFFFFFFFFFFFFFFFFF AND MUL OR SWAP1 SSTORE POP PUSH2 0x1211 DUP1 PUSH2 0xA1 PUSH1 0x0 CODECOPY PUSH1 0x0 RETURN INVALID PUSH1 0x80 PUSH1 0x40 MSTORE PUSH1 0x4 CALLDATASIZE LT PUSH2 0x8A JUMPI PUSH1 0x0 CALLDATALOAD PUSH1 0xE0 SHR DUP1 PUSH4 0xB2BDFA7B GT PUSH2 0x59 JUMPI DUP1 PUSH4 0xB2BDFA7B EQ PUSH2 0x1E5 JUMPI DUP1 PUSH4 0xE9351558 EQ PUSH2 0x210 JUMPI DUP1 PUSH4 0xE9E65331 EQ PUSH2 0x239 JUMPI DUP1 PUSH4 0xF9931855 EQ PUSH2 0x255 JUMPI DUP1 PUSH4 0xFE49048A EQ PUSH2 0x292 JUMPI PUSH2 0x147 JUMP JUMPDEST DUP1 PUSH4 0x13AF4035 EQ PUSH2 0x14C JUMPI DUP1 PUSH4 0x3F59C657 EQ PUSH2 0x175 JUMPI DUP1 PUSH4 0x704B6C02 EQ PUSH2 0x191 JUMPI DUP1 PUSH4 0x8F32D59B EQ PUSH2 0x1BA JUMPI PUSH2 0x147 JUMP JUMPDEST CALLDATASIZE PUSH2 0x147 JUMPI PUSH1 0x2 PUSH1 0x5 PUSH1 0x0 CALLER PUSH20 0xFFFFFFFFFFFFFFFFFFFFFFFFFFFFFFFFFFFFFFFF AND PUSH20 0xFFFFFFFFFFFFFFFFFFFFFFFFFFFFFFFFFFFFFFFF AND DUP2 MSTORE PUSH1 0x20 ADD SWAP1 DUP2 MSTORE PUSH1 0x20 ADD PUSH1 0x0 KECCAK256 PUSH1 0x40 MLOAD PUSH2 0xDD SWAP2 SWAP1 PUSH2 0x99E JUMP JUMPDEST SWAP1 DUP2 MSTORE PUSH1 0x20 ADD PUSH1 0x40 MLOAD DUP1 SWAP2 SUB SWAP1 KECCAK256 PUSH1 0x0 SWAP1 SLOAD SWAP1 PUSH2 0x100 EXP SWAP1 DIV PUSH1 0xFF AND PUSH2 0x102 JUMPI PUSH1 0x0 DUP1 REVERT JUMPDEST CALLVALUE PUSH1 0x6 PUSH1 0x0 CALLER PUSH20 0xFFFFFFFFFFFFFFFFFFFFFFFFFFFFFFFFFFFFFFFF AND PUSH20 0xFFFFFFFFFFFFFFFFFFFFFFFFFFFFFFFFFFFFFFFF AND DUP2 MSTORE PUSH1 0x20 ADD SWAP1 DUP2 MSTORE PUSH1 0x20 ADD PUSH1 0x0 KECCAK256 DUP2 SWAP1 SSTORE STOP JUMPDEST PUSH1 0x0 DUP1 REVERT JUMPDEST CALLVALUE DUP1 ISZERO PUSH2 0x158 JUMPI PUSH1 0x0 DUP1 REVERT JUMPDEST POP PUSH2 0x173 PUSH1 0x4 DUP1 CALLDATASIZE SUB DUP2 ADD SWAP1 PUSH2 0x16E SWAP2 SWAP1 PUSH2 0xA27 JUMP JUMPDEST PUSH2 0x2BB JUMP JUMPDEST STOP JUMPDEST PUSH2 0x18F PUSH1 0x4 DUP1 CALLDATASIZE SUB DUP2 ADD SWAP1 PUSH2 0x18A SWAP2 SWAP1 PUSH2 0xBD0 JUMP JUMPDEST PUSH2 0x345 JUMP JUMPDEST STOP JUMPDEST CALLVALUE DUP1 ISZERO PUSH2 0x19D JUMPI PUSH1 0x0 DUP1 REVERT JUMPDEST POP PUSH2 0x1B8 PUSH1 0x4 DUP1 CALLDATASIZE SUB DUP2 ADD SWAP1 PUSH2 0x1B3 SWAP2 SWAP1 PUSH2 0xA27 JUMP JUMPDEST PUSH2 0x4D1 JUMP JUMPDEST STOP JUMPDEST CALLVALUE DUP1 ISZERO PUSH2 0x1C6 JUMPI PUSH1 0x0 DUP1 REVERT JUMPDEST POP PUSH2 0x1CF PUSH2 0x55C JUMP JUMPDEST PUSH1 0x40 MLOAD PUSH2 0x1DC SWAP2 SWAP1 PUSH2 0xCBA JUMP JUMPDEST PUSH1 0x40 MLOAD DUP1 SWAP2 SUB SWAP1 RETURN JUMPDEST CALLVALUE DUP1 ISZERO PUSH2 0x1F1 JUMPI PUSH1 0x0 DUP1 REVERT JUMPDEST POP PUSH2 0x1FA PUSH2 0x5B3 JUMP JUMPDEST PUSH1 0x40 MLOAD PUSH2 0x207 SWAP2 SWAP1 PUSH2 0xCE4 JUMP JUMPDEST PUSH1 0x40 MLOAD DUP1 SWAP2 SUB SWAP1 RETURN JUMPDEST CALLVALUE DUP1 ISZERO PUSH2 0x21C JUMPI PUSH1 0x0 DUP1 REVERT JUMPDEST POP PUSH2 0x237 PUSH1 0x4 DUP1 CALLDATASIZE SUB DUP2 ADD SWAP1 PUSH2 0x232 SWAP2 SWAP1 PUSH2 0xCFF JUMP JUMPDEST PUSH2 0x5D7 JUMP JUMPDEST STOP JUMPDEST PUSH2 0x253 PUSH1 0x4 DUP1 CALLDATASIZE SUB DUP2 ADD SWAP1 PUSH2 0x24E SWAP2 SWAP1 PUSH2 0xA27 JUMP JUMPDEST PUSH2 0x6D6 JUMP JUMPDEST STOP JUMPDEST CALLVALUE DUP1 ISZERO PUSH2 0x261 JUMPI PUSH1 0x0 DUP1 REVERT JUMPDEST POP PUSH2 0x27C PUSH1 0x4 DUP1 CALLDATASIZE SUB DUP2 ADD SWAP1 PUSH2 0x277 SWAP2 SWAP1 PUSH2 0xA27 JUMP JUMPDEST PUSH2 0x6D9 JUMP JUMPDEST PUSH1 0x40 MLOAD PUSH2 0x289 SWAP2 SWAP1 PUSH2 0xD57 JUMP JUMPDEST PUSH1 0x40 MLOAD DUP1 SWAP2 SUB SWAP1 RETURN JUMPDEST CALLVALUE DUP1 ISZERO PUSH2 0x29E JUMPI PUSH1 0x0 DUP1 REVERT JUMPDEST POP PUSH2 0x2B9 PUSH1 0x4 DUP1 CALLDATASIZE SUB DUP2 ADD SWAP1 PUSH2 0x2B4 SWAP2 SWAP1 PUSH2 0xD72 JUMP JUMPDEST PUSH2 0x6F1 JUMP JUMPDEST STOP JUMPDEST PUSH2 0x2C3 PUSH2 0x55C JUMP JUMPDEST PUSH2 0x302 JUMPI PUSH1 0x40 MLOAD PUSH32 0x8C379A000000000000000000000000000000000000000000000000000000000 DUP2 MSTORE PUSH1 0x4 ADD PUSH2 0x2F9 SWAP1 PUSH2 0xE2B JUMP JUMPDEST PUSH1 0x40 MLOAD DUP1 SWAP2 SUB SWAP1 REVERT JUMPDEST DUP1 PUSH1 0x0 DUP1 PUSH2 0x100 EXP DUP2 SLOAD DUP2 PUSH20 0xFFFFFFFFFFFFFFFFFFFFFFFFFFFFFFFFFFFFFFFF MUL NOT AND SWAP1 DUP4 PUSH20 0xFFFFFFFFFFFFFFFFFFFFFFFFFFFFFFFFFFFFFFFF AND MUL OR SWAP1 SSTORE POP POP JUMP JUMPDEST PUSH1 0x1 ISZERO ISZERO PUSH1 0x1 DUP3 PUSH1 0x40 MLOAD PUSH2 0x359 SWAP2 SWAP1 PUSH2 0xEBA JUMP JUMPDEST SWAP1 DUP2 MSTORE PUSH1 0x20 ADD PUSH1 0x40 MLOAD DUP1 SWAP2 SUB SWAP1 KECCAK256 PUSH1 0x0 SWAP1 SLOAD SWAP1 PUSH2 0x100 EXP SWAP1 DIV PUSH1 0xFF AND ISZERO ISZERO EQ PUSH2 0x381 JUMPI PUSH1 0x0 DUP1 REVERT JUMPDEST PUSH1 0x4 PUSH1 0x0 SWAP1 SLOAD SWAP1 PUSH2 0x100 EXP SWAP1 DIV PUSH20 0xFFFFFFFFFFFFFFFFFFFFFFFFFFFFFFFFFFFFFFFF AND PUSH20 0xFFFFFFFFFFFFFFFFFFFFFFFFFFFFFFFFFFFFFFFF AND CALLER PUSH20 0xFFFFFFFFFFFFFFFFFFFFFFFFFFFFFFFFFFFFFFFF AND EQ PUSH2 0x3DB JUMPI PUSH1 0x0 DUP1 REVERT JUMPDEST PUSH32 0x2EE35DA94D6494EB515FD8F6FFFDECD1D417DBAE7E370CB1F77D709473E01D59 DUP6 DUP6 DUP6 DUP6 DUP6 PUSH1 0x40 MLOAD PUSH2 0x412 SWAP6 SWAP5 SWAP4 SWAP3 SWAP2 SWAP1 PUSH2 0xF0A JUMP JUMPDEST PUSH1 0x40 MLOAD DUP1 SWAP2 SUB SWAP1 LOG1 PUSH1 0x0 PUSH1 0x1 DUP3 PUSH1 0x40 MLOAD PUSH2 0x42C SWAP2 SWAP1 PUSH2 0xEBA JUMP JUMPDEST SWAP1 DUP2 MSTORE PUSH1 0x20 ADD PUSH1 0x40 MLOAD DUP1 SWAP2 SUB SWAP1 KECCAK256 PUSH1 0x0 PUSH2 0x100 EXP DUP2 SLOAD DUP2 PUSH1 0xFF MUL NOT AND SWAP1 DUP4 ISZERO ISZERO MUL OR SWAP1 SSTORE POP PUSH1 0x2 DUP2 PUSH1 0x40 MLOAD PUSH2 0x461 SWAP2 SWAP1 PUSH2 0xEBA JUMP JUMPDEST SWAP1 DUP2 MSTORE PUSH1 0x20 ADD PUSH1 0x40 MLOAD DUP1 SWAP2 SUB SWAP1 KECCAK256 PUSH1 0x0 SWAP1 SLOAD SWAP1 PUSH2 0x100 EXP SWAP1 DIV PUSH1 0xFF AND ISZERO PUSH2 0x4CA JUMPI PUSH2 0x4C9 PUSH1 0x3 DUP3 PUSH1 0x40 MLOAD PUSH2 0x495 SWAP2 SWAP1 PUSH2 0xEBA JUMP JUMPDEST SWAP1 DUP2 MSTORE PUSH1 0x20 ADD PUSH1 0x40 MLOAD DUP1 SWAP2 SUB SWAP1 KECCAK256 PUSH1 0x0 SWAP1 SLOAD SWAP1 PUSH2 0x100 EXP SWAP1 DIV PUSH20 0xFFFFFFFFFFFFFFFFFFFFFFFFFFFFFFFFFFFFFFFF AND PUSH2 0x6D6 JUMP JUMPDEST JUMPDEST POP POP POP POP POP JUMP JUMPDEST PUSH2 0x4D9 PUSH2 0x55C JUMP JUMPDEST PUSH2 0x518 JUMPI PUSH1 0x40 MLOAD PUSH32 0x8C379A000000000000000000000000000000000000000000000000000000000 DUP2 MSTORE PUSH1 0x4 ADD PUSH2 0x50F SWAP1 PUSH2 0xE2B JUMP JUMPDEST PUSH1 0x40 MLOAD DUP1 SWAP2 SUB SWAP1 REVERT JUMPDEST DUP1 PUSH1 0x4 PUSH1 0x0 PUSH2 0x100 EXP DUP2 SLOAD DUP2 PUSH20 0xFFFFFFFFFFFFFFFFFFFFFFFFFFFFFFFFFFFFFFFF MUL NOT AND SWAP1 DUP4 PUSH20 0xFFFFFFFFFFFFFFFFFFFFFFFFFFFFFFFFFFFFFFFF AND MUL OR SWAP1 SSTORE POP POP JUMP JUMPDEST PUSH1 0x0 DUP1 PUSH1 0x0 SWAP1 SLOAD SWAP1 PUSH2 0x100 EXP SWAP1 DIV PUSH20 0xFFFFFFFFFFFFFFFFFFFFFFFFFFFFFFFFFFFFFFFF AND PUSH20 0xFFFFFFFFFFFFFFFFFFFFFFFFFFFFFFFFFFFFFFFF AND CALLER PUSH20 0xFFFFFFFFFFFFFFFFFFFFFFFFFFFFFFFFFFFFFFFF AND EQ SWAP1 POP SWAP1 JUMP JUMPDEST PUSH1 0x0 DUP1 SLOAD SWAP1 PUSH2 0x100 EXP SWAP1 DIV PUSH20 0xFFFFFFFFFFFFFFFFFFFFFFFFFFFFFFFFFFFFFFFF AND DUP2 JUMP JUMPDEST PUSH1 0x4 PUSH1 0x0 SWAP1 SLOAD SWAP1 PUSH2 0x100 EXP SWAP1 DIV PUSH20 0xFFFFFFFFFFFFFFFFFFFFFFFFFFFFFFFFFFFFFFFF AND PUSH20 0xFFFFFFFFFFFFFFFFFFFFFFFFFFFFFFFFFFFFFFFF AND CALLER PUSH20 0xFFFFFFFFFFFFFFFFFFFFFFFFFFFFFFFFFFFFFFFF AND EQ PUSH2 0x631 JUMPI PUSH1 0x0 DUP1 REVERT JUMPDEST PUSH1 0x1 DUP1 DUP3 PUSH1 0x40 MLOAD PUSH2 0x642 SWAP2 SWAP1 PUSH2 0xEBA JUMP JUMPDEST SWAP1 DUP2 MSTORE PUSH1 0x20 ADD PUSH1 0x40 MLOAD DUP1 SWAP2 SUB SWAP1 KECCAK256 PUSH1 0x0 PUSH2 0x100 EXP DUP2 SLOAD DUP2 PUSH1 0xFF MUL NOT AND SWAP1 DUP4 ISZERO ISZERO MUL OR SWAP1 SSTORE POP PUSH1 0x1 DUP2 PUSH1 0x40 MLOAD PUSH2 0x677 SWAP2 SWAP1 PUSH2 0xEBA JUMP JUMPDEST SWAP1 DUP2 MSTORE PUSH1 0x20 ADD PUSH1 0x40 MLOAD DUP1 SWAP2 SUB SWAP1 KECCAK256 PUSH1 0x0 SWAP1 SLOAD SWAP1 PUSH2 0x100 EXP SWAP1 DIV PUSH1 0xFF AND PUSH2 0x69C JUMPI PUSH1 0x0 DUP1 REVERT JUMPDEST PUSH1 0x1 PUSH1 0x2 DUP3 PUSH1 0x40 MLOAD PUSH2 0x6AE SWAP2 SWAP1 PUSH2 0xEBA JUMP JUMPDEST SWAP1 DUP2 MSTORE PUSH1 0x20 ADD PUSH1 0x40 MLOAD DUP1 SWAP2 SUB SWAP1 KECCAK256 PUSH1 0x0 PUSH2 0x100 EXP DUP2 SLOAD DUP2 PUSH1 0xFF MUL NOT AND SWAP1 DUP4 ISZERO ISZERO MUL OR SWAP1 SSTORE POP POP JUMP JUMPDEST POP JUMP JUMPDEST PUSH1 0x6 PUSH1 0x20 MSTORE DUP1 PUSH1 0x0 MSTORE PUSH1 0x40 PUSH1 0x0 KECCAK256 PUSH1 0x0 SWAP2 POP SWAP1 POP SLOAD DUP2 JUMP JUMPDEST PUSH1 0x4 PUSH1 0x0 SWAP1 SLOAD SWAP1 PUSH2 0x100 EXP SWAP1 DIV PUSH20 0xFFFFFFFFFFFFFFFFFFFFFFFFFFFFFFFFFFFFFFFF AND PUSH20 0xFFFFFFFFFFFFFFFFFFFFFFFFFFFFFFFFFFFFFFFF AND CALLER PUSH20 0xFFFFFFFFFFFFFFFFFFFFFFFFFFFFFFFFFFFFFFFF AND EQ PUSH2 0x74B JUMPI PUSH1 0x0 DUP1 REVERT JUMPDEST PUSH1 0x1 DUP1 DUP4 PUSH1 0x40 MLOAD PUSH2 0x75C SWAP2 SWAP1 PUSH2 0xEBA JUMP JUMPDEST SWAP1 DUP2 MSTORE PUSH1 0x20 ADD PUSH1 0x40 MLOAD DUP1 SWAP2 SUB SWAP1 KECCAK256 PUSH1 0x0 PUSH2 0x100 EXP DUP2 SLOAD DUP2 PUSH1 0xFF MUL NOT AND SWAP1 DUP4 ISZERO ISZERO MUL OR SWAP1 SSTORE POP PUSH1 0x1 DUP3 PUSH1 0x40 MLOAD PUSH2 0x791 SWAP2 SWAP1 PUSH2 0xEBA JUMP JUMPDEST SWAP1 DUP2 MSTORE PUSH1 0x20 ADD PUSH1 0x40 MLOAD DUP1 SWAP2 SUB SWAP1 KECCAK256 PUSH1 0x0 SWAP1 SLOAD SWAP1 PUSH2 0x100 EXP SWAP1 DIV PUSH1 0xFF AND PUSH2 0x7B6 JUMPI PUSH1 0x0 DUP1 REVERT JUMPDEST PUSH1 0x1 PUSH1 0x2 DUP4 PUSH1 0x40 MLOAD PUSH2 0x7C8 SWAP2 SWAP1 PUSH2 0xEBA JUMP JUMPDEST SWAP1 DUP2 MSTORE PUSH1 0x20 ADD PUSH1 0x40 MLOAD DUP1 SWAP2 SUB SWAP1 KECCAK256 PUSH1 0x0 PUSH2 0x100 EXP DUP2 SLOAD DUP2 PUSH1 0xFF MUL NOT AND SWAP1 DUP4 ISZERO ISZERO MUL OR SWAP1 SSTORE POP DUP2 PUSH1 0x5 PUSH1 0x0 DUP4 PUSH20 0xFFFFFFFFFFFFFFFFFFFFFFFFFFFFFFFFFFFFFFFF AND PUSH20 0xFFFFFFFFFFFFFFFFFFFFFFFFFFFFFFFFFFFFFFFF AND DUP2 MSTORE PUSH1 0x20 ADD SWAP1 DUP2 MSTORE PUSH1 0x20 ADD PUSH1 0x0 KECCAK256 SWAP1 DUP2 PUSH2 0x839 SWAP2 SWAP1 PUSH2 0x1109 JUMP JUMPDEST POP DUP1 PUSH1 0x3 DUP4 PUSH1 0x40 MLOAD PUSH2 0x84B SWAP2 SWAP1 PUSH2 0xEBA JUMP JUMPDEST SWAP1 DUP2 MSTORE PUSH1 0x20 ADD PUSH1 0x40 MLOAD DUP1 SWAP2 SUB SWAP1 KECCAK256 PUSH1 0x0 PUSH2 0x100 EXP DUP2 SLOAD DUP2 PUSH20 0xFFFFFFFFFFFFFFFFFFFFFFFFFFFFFFFFFFFFFFFF MUL NOT AND SWAP1 DUP4 PUSH20 0xFFFFFFFFFFFFFFFFFFFFFFFFFFFFFFFFFFFFFFFF AND MUL OR SWAP1 SSTORE POP POP POP JUMP JUMPDEST PUSH32 0x4E487B7100000000000000000000000000000000000000000000000000000000 PUSH1 0x0 MSTORE PUSH1 0x22 PUSH1 0x4 MSTORE PUSH1 0x24 PUSH1 0x0 REVERT JUMPDEST PUSH1 0x0 PUSH1 0x2 DUP3 DIV SWAP1 POP PUSH1 0x1 DUP3 AND DUP1 PUSH2 0x8E2 JUMPI PUSH1 0x7F DUP3 AND SWAP2 POP JUMPDEST PUSH1 0x20 DUP3 LT DUP2 SUB PUSH2 0x8F5 JUMPI PUSH2 0x8F4 PUSH2 0x89B JUMP JUMPDEST JUMPDEST POP SWAP2 SWAP1 POP JUMP JUMPDEST PUSH1 0x0 DUP2 SWAP1 POP SWAP3 SWAP2 POP POP JUMP JUMPDEST PUSH1 0x0 DUP2 SWAP1 POP DUP2 PUSH1 0x0 MSTORE PUSH1 0x20 PUSH1 0x0 KECCAK256 SWAP1 POP SWAP2 SWAP1 POP JUMP JUMPDEST PUSH1 0x0 DUP2 SLOAD PUSH2 0x928 DUP2 PUSH2 0x8CA JUMP JUMPDEST PUSH2 0x932 DUP2 DUP7 PUSH2 0x8FB JUMP JUMPDEST SWAP5 POP PUSH1 0x1 DUP3 AND PUSH1 0x0 DUP2 EQ PUSH2 0x94D JUMPI PUSH1 0x1 DUP2 EQ PUSH2 0x962 JUMPI PUSH2 0x995 JUMP JUMPDEST PUSH1 0xFF NOT DUP4 AND DUP7 MSTORE DUP2 ISZERO ISZERO DUP3 MUL DUP7 ADD SWAP4 POP PUSH2 0x995 JUMP JUMPDEST PUSH2 0x96B DUP6 PUSH2 0x906 JUMP JUMPDEST PUSH1 0x0 JUMPDEST DUP4 DUP2 LT ISZERO PUSH2 0x98D JUMPI DUP2 SLOAD DUP2 DUP10 ADD MSTORE PUSH1 0x1 DUP3 ADD SWAP2 POP PUSH1 0x20 DUP2 ADD SWAP1 POP PUSH2 0x96E JUMP JUMPDEST DUP4 DUP9 ADD SWAP6 POP POP POP JUMPDEST POP POP POP SWAP3 SWAP2 POP POP JUMP JUMPDEST PUSH1 0x0 PUSH2 0x9AA DUP3 DUP5 PUSH2 0x91B JUMP JUMPDEST SWAP2 POP DUP2 SWAP1 POP SWAP3 SWAP2 POP POP JUMP JUMPDEST PUSH1 0x0 PUSH1 0x40 MLOAD SWAP1 POP SWAP1 JUMP JUMPDEST PUSH1 0x0 DUP1 REVERT JUMPDEST PUSH1 0x0 DUP1 REVERT JUMPDEST PUSH1 0x0 PUSH20 0xFFFFFFFFFFFFFFFFFFFFFFFFFFFFFFFFFFFFFFFF DUP3 AND SWAP1 POP SWAP2 SWAP1 POP JUMP JUMPDEST PUSH1 0x0 PUSH2 0x9F4 DUP3 PUSH2 0x9C9 JUMP JUMPDEST SWAP1 POP SWAP2 SWAP1 POP JUMP JUMPDEST PUSH2 0xA04 DUP2 PUSH2 0x9E9 JUMP JUMPDEST DUP2 EQ PUSH2 0xA0F JUMPI PUSH1 0x0 DUP1 REVERT JUMPDEST POP JUMP JUMPDEST PUSH1 0x0 DUP2 CALLDATALOAD SWAP1 POP PUSH2 0xA21 DUP2 PUSH2 0x9FB JUMP JUMPDEST SWAP3 SWAP2 POP POP JUMP JUMPDEST PUSH1 0x0 PUSH1 0x20 DUP3 DUP5 SUB SLT ISZERO PUSH2 0xA3D JUMPI PUSH2 0xA3C PUSH2 0x9BF JUMP JUMPDEST JUMPDEST PUSH1 0x0 PUSH2 0xA4B DUP5 DUP3 DUP6 ADD PUSH2 0xA12 JUMP JUMPDEST SWAP2 POP POP SWAP3 SWAP2 POP POP JUMP JUMPDEST PUSH1 0x0 DUP1 REVERT JUMPDEST PUSH1 0x0 DUP1 REVERT JUMPDEST PUSH1 0x0 PUSH1 0x1F NOT PUSH1 0x1F DUP4 ADD AND SWAP1 POP SWAP2 SWAP1 POP JUMP JUMPDEST PUSH32 0x4E487B7100000000000000000000000000000000000000000000000000000000 PUSH1 0x0 MSTORE PUSH1 0x41 PUSH1 0x4 MSTORE PUSH1 0x24 PUSH1 0x0 REVERT JUMPDEST PUSH2 0xAA7 DUP3 PUSH2 0xA5E JUMP JUMPDEST DUP2 ADD DUP2 DUP2 LT PUSH8 0xFFFFFFFFFFFFFFFF DUP3 GT OR ISZERO PUSH2 0xAC6 JUMPI PUSH2 0xAC5 PUSH2 0xA6F JUMP JUMPDEST JUMPDEST DUP1 PUSH1 0x40 MSTORE POP POP POP JUMP JUMPDEST PUSH1 0x0 PUSH2 0xAD9 PUSH2 0x9B5 JUMP JUMPDEST SWAP1 POP PUSH2 0xAE5 DUP3 DUP3 PUSH2 0xA9E JUMP JUMPDEST SWAP2 SWAP1 POP JUMP JUMPDEST PUSH1 0x0 PUSH8 0xFFFFFFFFFFFFFFFF DUP3 GT ISZERO PUSH2 0xB05 JUMPI PUSH2 0xB04 PUSH2 0xA6F JUMP JUMPDEST JUMPDEST PUSH2 0xB0E DUP3 PUSH2 0xA5E JUMP JUMPDEST SWAP1 POP PUSH1 0x20 DUP2 ADD SWAP1 POP SWAP2 SWAP1 POP JUMP JUMPDEST DUP3 DUP2 DUP4 CALLDATACOPY PUSH1 0x0 DUP4 DUP4 ADD MSTORE POP POP POP JUMP JUMPDEST PUSH1 0x0 PUSH2 0xB3D PUSH2 0xB38 DUP5 PUSH2 0xAEA JUMP JUMPDEST PUSH2 0xACF JUMP JUMPDEST SWAP1 POP DUP3 DUP2 MSTORE PUSH1 0x20 DUP2 ADD DUP5 DUP5 DUP5 ADD GT ISZERO PUSH2 0xB59 JUMPI PUSH2 0xB58 PUSH2 0xA59 JUMP JUMPDEST JUMPDEST PUSH2 0xB64 DUP5 DUP3 DUP6 PUSH2 0xB1B JUMP JUMPDEST POP SWAP4 SWAP3 POP POP POP JUMP JUMPDEST PUSH1 0x0 DUP3 PUSH1 0x1F DUP4 ADD SLT PUSH2 0xB81 JUMPI PUSH2 0xB80 PUSH2 0xA54 JUMP JUMPDEST JUMPDEST DUP2 CALLDATALOAD PUSH2 0xB91 DUP5 DUP3 PUSH1 0x20 DUP7 ADD PUSH2 0xB2A JUMP JUMPDEST SWAP2 POP POP SWAP3 SWAP2 POP POP JUMP JUMPDEST PUSH1 0x0 DUP2 SWAP1 POP SWAP2 SWAP1 POP JUMP JUMPDEST PUSH2 0xBAD DUP2 PUSH2 0xB9A JUMP JUMPDEST DUP2 EQ PUSH2 0xBB8 JUMPI PUSH1 0x0 DUP1 REVERT JUMPDEST POP JUMP JUMPDEST PUSH1 0x0 DUP2 CALLDATALOAD SWAP1 POP PUSH2 0xBCA DUP2 PUSH2 0xBA4 JUMP JUMPDEST SWAP3 SWAP2 POP POP JUMP JUMPDEST PUSH1 0x0 DUP1 PUSH1 0x0 DUP1 PUSH1 0x0 PUSH1 0xA0 DUP7 DUP9 SUB SLT ISZERO PUSH2 0xBEC JUMPI PUSH2 0xBEB PUSH2 0x9BF JUMP JUMPDEST JUMPDEST PUSH1 0x0 DUP7 ADD CALLDATALOAD PUSH8 0xFFFFFFFFFFFFFFFF DUP2 GT ISZERO PUSH2 0xC0A JUMPI PUSH2 0xC09 PUSH2 0x9C4 JUMP JUMPDEST JUMPDEST PUSH2 0xC16 DUP9 DUP3 DUP10 ADD PUSH2 0xB6C JUMP JUMPDEST SWAP6 POP POP PUSH1 0x20 DUP7 ADD CALLDATALOAD PUSH8 0xFFFFFFFFFFFFFFFF DUP2 GT ISZERO PUSH2 0xC37 JUMPI PUSH2 0xC36 PUSH2 0x9C4 JUMP JUMPDEST JUMPDEST PUSH2 0xC43 DUP9 DUP3 DUP10 ADD PUSH2 0xB6C JUMP JUMPDEST SWAP5 POP POP PUSH1 0x40 PUSH2 0xC54 DUP9 DUP3 DUP10 ADD PUSH2 0xBBB JUMP JUMPDEST SWAP4 POP POP PUSH1 0x60 PUSH2 0xC65 DUP9 DUP3 DUP10 ADD PUSH2 0xBBB JUMP JUMPDEST SWAP3 POP POP PUSH1 0x80 DUP7 ADD CALLDATALOAD PUSH8 0xFFFFFFFFFFFFFFFF DUP2 GT ISZERO PUSH2 0xC86 JUMPI PUSH2 0xC85 PUSH2 0x9C4 JUMP JUMPDEST JUMPDEST PUSH2 0xC92 DUP9 DUP3 DUP10 ADD PUSH2 0xB6C JUMP JUMPDEST SWAP2 POP POP SWAP3 SWAP6 POP SWAP3 SWAP6 SWAP1 SWAP4 POP JUMP JUMPDEST PUSH1 0x0 DUP2 ISZERO ISZERO SWAP1 POP SWAP2 SWAP1 POP JUMP JUMPDEST PUSH2 0xCB4 DUP2 PUSH2 0xC9F JUMP JUMPDEST DUP3 MSTORE POP POP JUMP JUMPDEST PUSH1 0x0 PUSH1 0x20 DUP3 ADD SWAP1 POP PUSH2 0xCCF PUSH1 0x0 DUP4 ADD DUP5 PUSH2 0xCAB JUMP JUMPDEST SWAP3 SWAP2 POP POP JUMP JUMPDEST PUSH2 0xCDE DUP2 PUSH2 0x9E9 JUMP JUMPDEST DUP3 MSTORE POP POP JUMP JUMPDEST PUSH1 0x0 PUSH1 0x20 DUP3 ADD SWAP1 POP PUSH2 0xCF9 PUSH1 0x0 DUP4 ADD DUP5 PUSH2 0xCD5 JUMP JUMPDEST SWAP3 SWAP2 POP POP JUMP JUMPDEST PUSH1 0x0 PUSH1 0x20 DUP3 DUP5 SUB SLT ISZERO PUSH2 0xD15 JUMPI PUSH2 0xD14 PUSH2 0x9BF JUMP JUMPDEST JUMPDEST PUSH1 0x0 DUP3 ADD CALLDATALOAD PUSH8 0xFFFFFFFFFFFFFFFF DUP2 GT ISZERO PUSH2 0xD33 JUMPI PUSH2 0xD32 PUSH2 0x9C4 JUMP JUMPDEST JUMPDEST PUSH2 0xD3F DUP5 DUP3 DUP6 ADD PUSH2 0xB6C JUMP JUMPDEST SWAP2 POP POP SWAP3 SWAP2 POP POP JUMP JUMPDEST PUSH2 0xD51 DUP2 PUSH2 0xB9A JUMP JUMPDEST DUP3 MSTORE POP POP JUMP JUMPDEST PUSH1 0x0 PUSH1 0x20 DUP3 ADD SWAP1 POP PUSH2 0xD6C PUSH1 0x0 DUP4 ADD DUP5 PUSH2 0xD48 JUMP JUMPDEST SWAP3 SWAP2 POP POP JUMP JUMPDEST PUSH1 0x0 DUP1 PUSH1 0x40 DUP4 DUP6 SUB SLT ISZERO PUSH2 0xD89 JUMPI PUSH2 0xD88 PUSH2 0x9BF JUMP JUMPDEST JUMPDEST PUSH1 0x0 DUP4 ADD CALLDATALOAD PUSH8 0xFFFFFFFFFFFFFFFF DUP2 GT ISZERO PUSH2 0xDA7 JUMPI PUSH2 0xDA6 PUSH2 0x9C4 JUMP JUMPDEST JUMPDEST PUSH2 0xDB3 DUP6 DUP3 DUP7 ADD PUSH2 0xB6C JUMP JUMPDEST SWAP3 POP POP PUSH1 0x20 PUSH2 0xDC4 DUP6 DUP3 DUP7 ADD PUSH2 0xA12 JUMP JUMPDEST SWAP2 POP POP SWAP3 POP SWAP3 SWAP1 POP JUMP JUMPDEST PUSH1 0x0 DUP3 DUP3 MSTORE PUSH1 0x20 DUP3 ADD SWAP1 POP SWAP3 SWAP2 POP POP JUMP JUMPDEST PUSH32 0x4F776E61626C653A2063616C6C6572206973206E6F7420746865206F776E6572 PUSH1 0x0 DUP3 ADD MSTORE POP JUMP JUMPDEST PUSH1 0x0 PUSH2 0xE15 PUSH1 0x20 DUP4 PUSH2 0xDCE JUMP JUMPDEST SWAP2 POP PUSH2 0xE20 DUP3 PUSH2 0xDDF JUMP JUMPDEST PUSH1 0x20 DUP3 ADD SWAP1 POP SWAP2 SWAP1 POP JUMP JUMPDEST PUSH1 0x0 PUSH1 0x20 DUP3 ADD SWAP1 POP DUP2 DUP2 SUB PUSH1 0x0 DUP4 ADD MSTORE PUSH2 0xE44 DUP2 PUSH2 0xE08 JUMP JUMPDEST SWAP1 POP SWAP2 SWAP1 POP JUMP JUMPDEST PUSH1 0x0 DUP2 MLOAD SWAP1 POP SWAP2 SWAP1 POP JUMP JUMPDEST PUSH1 0x0 JUMPDEST DUP4 DUP2 LT ISZERO PUSH2 0xE74 JUMPI DUP1 DUP3 ADD MLOAD DUP2 DUP5 ADD MSTORE PUSH1 0x20 DUP2 ADD SWAP1 POP PUSH2 0xE59 JUMP JUMPDEST DUP4 DUP2 GT ISZERO PUSH2 0xE83 JUMPI PUSH1 0x0 DUP5 DUP5 ADD MSTORE JUMPDEST POP POP POP POP JUMP JUMPDEST PUSH1 0x0 PUSH2 0xE94 DUP3 PUSH2 0xE4B JUMP JUMPDEST PUSH2 0xE9E DUP2 DUP6 PUSH2 0x8FB JUMP JUMPDEST SWAP4 POP PUSH2 0xEAE DUP2 DUP6 PUSH1 0x20 DUP7 ADD PUSH2 0xE56 JUMP JUMPDEST DUP1 DUP5 ADD SWAP2 POP POP SWAP3 SWAP2 POP POP JUMP JUMPDEST PUSH1 0x0 PUSH2 0xEC6 DUP3 DUP5 PUSH2 0xE89 JUMP JUMPDEST SWAP2 POP DUP2 SWAP1 POP SWAP3 SWAP2 POP POP JUMP JUMPDEST PUSH1 0x0 PUSH2 0xEDC DUP3 PUSH2 0xE4B JUMP JUMPDEST PUSH2 0xEE6 DUP2 DUP6 PUSH2 0xDCE JUMP JUMPDEST SWAP4 POP PUSH2 0xEF6 DUP2 DUP6 PUSH1 0x20 DUP7 ADD PUSH2 0xE56 JUMP JUMPDEST PUSH2 0xEFF DUP2 PUSH2 0xA5E JUMP JUMPDEST DUP5 ADD SWAP2 POP POP SWAP3 SWAP2 POP POP JUMP JUMPDEST PUSH1 0x0 PUSH1 0xA0 DUP3 ADD SWAP1 POP DUP2 DUP2 SUB PUSH1 0x0 DUP4 ADD MSTORE PUSH2 0xF24 DUP2 DUP9 PUSH2 0xED1 JUMP JUMPDEST SWAP1 POP DUP2 DUP2 SUB PUSH1 0x20 DUP4 ADD MSTORE PUSH2 0xF38 DUP2 DUP8 PUSH2 0xED1 JUMP JUMPDEST SWAP1 POP PUSH2 0xF47 PUSH1 0x40 DUP4 ADD DUP7 PUSH2 0xD48 JUMP JUMPDEST PUSH2 0xF54 PUSH1 0x60 DUP4 ADD DUP6 PUSH2 0xD48 JUMP JUMPDEST DUP2 DUP2 SUB PUSH1 0x80 DUP4 ADD MSTORE PUSH2 0xF66 DUP2 DUP5 PUSH2 0xED1 JUMP JUMPDEST SWAP1 POP SWAP7 SWAP6 POP POP POP POP POP POP JUMP JUMPDEST PUSH1 0x0 PUSH1 0x20 PUSH1 0x1F DUP4 ADD DIV SWAP1 POP SWAP2 SWAP1 POP JUMP JUMPDEST PUSH1 0x0 DUP3 DUP3 SHL SWAP1 POP SWAP3 SWAP2 POP POP JUMP JUMPDEST PUSH1 0x0 PUSH1 0x8 DUP4 MUL PUSH2 0xFBF PUSH32 0xFFFFFFFFFFFFFFFFFFFFFFFFFFFFFFFFFFFFFFFFFFFFFFFFFFFFFFFFFFFFFFFF DUP3 PUSH2 0xF82 JUMP JUMPDEST PUSH2 0xFC9 DUP7 DUP4 PUSH2 0xF82 JUMP JUMPDEST SWAP6 POP DUP1 NOT DUP5 AND SWAP4 POP DUP1 DUP7 AND DUP5 OR SWAP3 POP POP POP SWAP4 SWAP3 POP POP POP JUMP JUMPDEST PUSH1 0x0 DUP2 SWAP1 POP SWAP2 SWAP1 POP JUMP JUMPDEST PUSH1 0x0 PUSH2 0x1006 PUSH2 0x1001 PUSH2 0xFFC DUP5 PUSH2 0xB9A JUMP JUMPDEST PUSH2 0xFE1 JUMP JUMPDEST PUSH2 0xB9A JUMP JUMPDEST SWAP1 POP SWAP2 SWAP1 POP JUMP JUMPDEST PUSH1 0x0 DUP2 SWAP1 POP SWAP2 SWAP1 POP JUMP JUMPDEST PUSH2 0x1020 DUP4 PUSH2 0xFEB JUMP JUMPDEST PUSH2 0x1034 PUSH2 0x102C DUP3 PUSH2 0x100D JUMP JUMPDEST DUP5 DUP5 SLOAD PUSH2 0xF8F JUMP JUMPDEST DUP3 SSTORE POP POP POP POP JUMP JUMPDEST PUSH1 0x0 SWAP1 JUMP JUMPDEST PUSH2 0x1049 PUSH2 0x103C JUMP JUMPDEST PUSH2 0x1054 DUP2 DUP5 DUP5 PUSH2 0x1017 JUMP JUMPDEST POP POP POP JUMP JUMPDEST JUMPDEST DUP2 DUP2 LT ISZERO PUSH2 0x1078 JUMPI PUSH2 0x106D PUSH1 0x0 DUP3 PUSH2 0x1041 JUMP JUMPDEST PUSH1 0x1 DUP2 ADD SWAP1 POP PUSH2 0x105A JUMP JUMPDEST POP POP JUMP JUMPDEST PUSH1 0x1F DUP3 GT ISZERO PUSH2 0x10BD JUMPI PUSH2 0x108E DUP2 PUSH2 0x906 JUMP JUMPDEST PUSH2 0x1097 DUP5 PUSH2 0xF72 JUMP JUMPDEST DUP2 ADD PUSH1 0x20 DUP6 LT ISZERO PUSH2 0x10A6 JUMPI DUP2 SWAP1 POP JUMPDEST PUSH2 0x10BA PUSH2 0x10B2 DUP6 PUSH2 0xF72 JUMP JUMPDEST DUP4 ADD DUP3 PUSH2 0x1059 JUMP JUMPDEST POP POP JUMPDEST POP POP POP JUMP JUMPDEST PUSH1 0x0 DUP3 DUP3 SHR SWAP1 POP SWAP3 SWAP2 POP POP JUMP JUMPDEST PUSH1 0x0 PUSH2 0x10E0 PUSH1 0x0 NOT DUP5 PUSH1 0x8 MUL PUSH2 0x10C2 JUMP JUMPDEST NOT DUP1 DUP4 AND SWAP2 POP POP SWAP3 SWAP2 POP POP JUMP JUMPDEST PUSH1 0x0 PUSH2 0x10F9 DUP4 DUP4 PUSH2 0x10CF JUMP JUMPDEST SWAP2 POP DUP3 PUSH1 0x2 MUL DUP3 OR SWAP1 POP SWAP3 SWAP2 POP POP JUMP JUMPDEST PUSH2 0x1112 DUP3 PUSH2 0xE4B JUMP JUMPDEST PUSH8 0xFFFFFFFFFFFFFFFF DUP2 GT ISZERO PUSH2 0x112B JUMPI PUSH2 0x112A PUSH2 0xA6F JUMP JUMPDEST JUMPDEST PUSH2 0x1135 DUP3 SLOAD PUSH2 0x8CA JUMP JUMPDEST PUSH2 0x1140 DUP3 DUP3 DUP6 PUSH2 0x107C JUMP JUMPDEST PUSH1 0x0 PUSH1 0x20 SWAP1 POP PUSH1 0x1F DUP4 GT PUSH1 0x1 DUP2 EQ PUSH2 0x1173 JUMPI PUSH1 0x0 DUP5 ISZERO PUSH2 0x1161 JUMPI DUP3 DUP8 ADD MLOAD SWAP1 POP JUMPDEST PUSH2 0x116B DUP6 DUP3 PUSH2 0x10ED JUMP JUMPDEST DUP7 SSTORE POP PUSH2 0x11D3 JUMP JUMPDEST PUSH1 0x1F NOT DUP5 AND PUSH2 0x1181 DUP7 PUSH2 0x906 JUMP JUMPDEST PUSH1 0x0 JUMPDEST DUP3 DUP2 LT ISZERO PUSH2 0x11A9 JUMPI DUP5 DUP10 ADD MLOAD DUP3 SSTORE PUSH1 0x1 DUP3 ADD SWAP2 POP PUSH1 0x20 DUP6 ADD SWAP5 POP PUSH1 0x20 DUP2 ADD SWAP1 POP PUSH2 0x1184 JUMP JUMPDEST DUP7 DUP4 LT ISZERO PUSH2 0x11C6 JUMPI DUP5 DUP10 ADD MLOAD PUSH2 0x11C2 PUSH1 0x1F DUP10 AND DUP3 PUSH2 0x10CF JUMP JUMPDEST DUP4 SSTORE POP JUMPDEST PUSH1 0x1 PUSH1 0x2 DUP9 MUL ADD DUP9 SSTORE POP POP POP JUMPDEST POP POP POP POP POP POP JUMP INVALID LOG2 PUSH5 0x6970667358 0x22 SLT KECCAK256 PUSH11 0x526C3EFA8BC13B322415B4 BALANCE 0xA7 0xBD 0xC9 0xD3 RETURNDATASIZE POP MLOAD 0x29 JUMPDEST CREATE 0xDF 0x28 DUP16 SWAP15 0xBE 0xA5 DUP14 0xEF MLOAD PUSH5 0x736F6C6343 STOP ADDMOD 0xF STOP CALLER "
				},
				"gasEstimates": {
					"creation": {
						"codeDepositCost": "925000",
						"executionCost": "49494",
						"totalCost": "974494"
					},
					"external": {
						"_owner()": "2511",
						"isOwner()": "2563",
						"issueCertificate(string,string,uint256,uint256,string)": "infinite",
						"returnStakedEther(address)": "475",
						"setAdmin(address)": "26972",
						"setOwner(address)": "26928",
						"stakedAmount(address)": "2880",
						"updateCertificateRecipient(string)": "infinite",
						"updateCertificateRecipientForStaking(string,address)": "infinite"
					}
				},
				"methodIdentifiers": {
					"_owner()": "b2bdfa7b",
					"isOwner()": "8f32d59b",
					"issueCertificate(string,string,uint256,uint256,string)": "3f59c657",
					"returnStakedEther(address)": "e9e65331",
					"setAdmin(address)": "704b6c02",
					"setOwner(address)": "13af4035",
					"stakedAmount(address)": "f9931855",
					"updateCertificateRecipient(string)": "e9351558",
					"updateCertificateRecipientForStaking(string,address)": "fe49048a"
				}
			},
			"storageLayout": {
				"storage": [
					{
						"astId": 234,
						"contract": "certificateissuer.sol:CertificateIssuer",
						"label": "_owner",
						"offset": 0,
						"slot": "0",
						"type": "t_address"
					},
					{
						"astId": 18,
						"contract": "certificateissuer.sol:CertificateIssuer",
						"label": "cauthValid",
						"offset": 0,
						"slot": "1",
						"type": "t_mapping(t_string_memory_ptr,t_bool)"
					},
					{
						"astId": 22,
						"contract": "certificateissuer.sol:CertificateIssuer",
						"label": "cauthToCanStake",
						"offset": 0,
						"slot": "2",
						"type": "t_mapping(t_string_memory_ptr,t_bool)"
					},
					{
						"astId": 26,
						"contract": "certificateissuer.sol:CertificateIssuer",
						"label": "cauthToAddress",
						"offset": 0,
						"slot": "3",
						"type": "t_mapping(t_string_memory_ptr,t_address)"
					},
					{
						"astId": 28,
						"contract": "certificateissuer.sol:CertificateIssuer",
						"label": "_admin",
						"offset": 0,
						"slot": "4",
						"type": "t_address"
					},
					{
						"astId": 32,
						"contract": "certificateissuer.sol:CertificateIssuer",
						"label": "adressToCauth",
						"offset": 0,
						"slot": "5",
						"type": "t_mapping(t_address,t_string_storage)"
					},
					{
						"astId": 208,
						"contract": "certificateissuer.sol:CertificateIssuer",
						"label": "stakedAmount",
						"offset": 0,
						"slot": "6",
						"type": "t_mapping(t_address,t_uint256)"
					}
				],
				"types": {
					"t_address": {
						"encoding": "inplace",
						"label": "address",
						"numberOfBytes": "20"
					},
					"t_bool": {
						"encoding": "inplace",
						"label": "bool",
						"numberOfBytes": "1"
					},
					"t_mapping(t_address,t_string_storage)": {
						"encoding": "mapping",
						"key": "t_address",
						"label": "mapping(address => string)",
						"numberOfBytes": "32",
						"value": "t_string_storage"
					},
					"t_mapping(t_address,t_uint256)": {
						"encoding": "mapping",
						"key": "t_address",
						"label": "mapping(address => uint256)",
						"numberOfBytes": "32",
						"value": "t_uint256"
					},
					"t_mapping(t_string_memory_ptr,t_address)": {
						"encoding": "mapping",
						"key": "t_string_memory_ptr",
						"label": "mapping(string => address)",
						"numberOfBytes": "32",
						"value": "t_address"
					},
					"t_mapping(t_string_memory_ptr,t_bool)": {
						"encoding": "mapping",
						"key": "t_string_memory_ptr",
						"label": "mapping(string => bool)",
						"numberOfBytes": "32",
						"value": "t_bool"
					},
					"t_string_memory_ptr": {
						"encoding": "bytes",
						"label": "string",
						"numberOfBytes": "32"
					},
					"t_string_storage": {
						"encoding": "bytes",
						"label": "string",
						"numberOfBytes": "32"
					},
					"t_uint256": {
						"encoding": "inplace",
						"label": "uint256",
						"numberOfBytes": "32"
					}
				}
			},
			"userdoc": {
				"kind": "user",
				"methods": {
					"constructor": {
						"notice": "create data type = struct named  certificate"
					}
				},
				"version": 1
			}
		}
	}
}